S31508004000800600202D420008394200083B4200087D
S315080040103D4200083F4200084142000800000000F7
S3150800402000000000000000000000000043420008F5
S31508004030454200080000000047420008F94B000806
S315080040404B4200084B4200084B4200084B4200080E
S315080040504B4200084B4200084B4200084B420008FE
S315080040604B4200084B4200084B4200084B420008EE
S315080040704B4200084B4200084B4200084B420008DE
S315080040804B4200084B4200084B4200084B420008CE
S315080040904B4200084B4200084B4200084B420008BE
S315080040A04B4200084B4200084B4200084B420008AE
S315080040B04B4200084B4200084B4200084B4200089E
S315080040C04B4200084B4200084B4200084B4200088E
S315080040D04B4200084B4200084B4200084B4200087E
S315080040E04B4200084B4200084B4200084B4200086E
S315080040F04B4200084B4200084B4200084B4200085E
S315080041000000000000000000000000004B4200080C
S315080041104B4200084B4200084B4200084B4200083D
S315080041204B4200084B4200084B4200084B4200082D
S315080041304B4200084B420008000000000000000047
S315080041404B4200084B4200084B42000800000000A2
S315080041500000000000000000000000000000000051
S3150800416000000000000000004B4200084B42000817
S315080041704B4200080000000000000000000000009C
S31508004180000000004B420008EE11AA5500F002F8A4
S3150800419000F03CF80AA090E8000C82448344AAF197
S315080041A00107DA4501D100F031F8AFF2090EBAE895
S315080041B00F0013F0010F18BFFB1A43F0010318474D
S315080041C0780B0000980B0000103A24BF78C878C115
S315080041D0FAD8520724BF30C830C144BF04680C60FF
S315080041E0704700000023002400250026103A28BF47
S315080041F078C1FBD8520728BF30C148BF0B6070474B
S315080042001FB500F084FD1FBD10B510BD00F035F8D0
S315080042101146FFF7F5FF00F075FD00F053F803B4FB
S31508004220FFF7F2FF03BC00F05BF800000A4885467A
S315080042300A4880470A480047FEE7FEE7FEE7FEE72A
S31508004240FEE7FEE7FEE7FEE7FEE7FEE70548064966
S31508004250064A074B7047000080060020554C0008A8
S315080042608D41000880000020800600208002002082
S3150800427080020020704770477047754600F02CF89A
S31508004280AE4605006946534620F00700854618B035
S3150800429020B5FFF7DBFFBDE820404FF000064FF0E2
S315080042A000074FF000084FF0000BAC46ACE8C00919
S315080042B0ACE8C009ACE8C009ACE8C00921F00701C0
S315080042C08D46704710B50446AFF300802046BDE81A
S315080042D01040FFF7A4BF00000048704710000020F8
S315080042E001491820ABBEFEE7260002007047000011
S315080042F02DE9F04F83B00D68002D00F0C58000F160
S3150800430038424FEAB22241F200070192C4F600078A
S315080043100522002600244FF0010AB84208BF0422ED
S31508004320009209E00D68043435FA0AF20AF1010A26
S3150800433006F1020600F0A880AAF1010C012202FA91
S315080043400CFB15EA0B09EDD0D1F8048008F003053B
S31508004350A5F1010EBEF1010F11D887680322CB68BB
S31508004360B24027EA0202B3401A4382604268C8F3A1
S31508004370001322EA0B0203FA0CF31A434260032DD8
S315080043801CD0C26803238F68B3409A4307FA06F322
S315080043901A43022DC26011D16FF0030202EA5C02D1
S315080043A0024404F01C070F23D2F820E003FA07F5AD
S315080043B00B692EEA0505BB402B43136202680323EB
S315080043C04F68B3409A4307F00303B3401A4317F400
S315080043D0403F0260A6D041F21803C4F202031A68ED
S315080043E040F2004E42F001021A601A68C4F2010E49
S315080043F002F001020292029A2CF003024FF60848D4
S315080044007244CFF6FF7852F8083004F00C070F25EF
S31508004410BD4023EA050C019B009D042B38BF1D46B1
S3150800442005FA07F747EA0C0342F80830DEF80820D1
S315080044304B6842EA090740F20C4CDD0258BF22EAF3
S315080044400907CEF80870C4F2010CDCF800209D02BA
S3150800445042EA090758BF22EA0907CCF80070DEF8D5
S3150800446004209D0342EA090758BF22EA0907CEF845
S315080044700470DEF80020DB0342EA090758BF22EA87
S315080044800907CEF800704DE703B0BDE8F08F0000CD
S315080044901823002A08BF2823C150704740F2780025
S315080044A0C2F200000068704740F2040040F278014A
S315080044B0C2F20000C2F2000100680A6810440860EF
S315080044C07047000080B542F20000C4F2020001689D
S315080044D041F010010160032000F0A0F8002000F070
S315080044E005F800F02BF8002080BD0000B0B540F2BA
S315080044F00402C2F2000240F200011268C2F2000190
S315080045004FF47A730968B3FBF2F20446B1FBF2F191
S31508004510084600F003FB0F2C4FF001050CD858B9DC
S315080045204FF0FF3021460022002500F067F840F2E0
S315080045300800C2F2000004602846B0BD10B586B077
S3150800454041F21400C4F20200416841F001014160E1
S31508004550416801F0010101910199016841F4800166
S315080045600160016801F4800101910199016841F433
S3150800457000110160006800F4001001900198032002
S3150800458000F04CF86FF00B0000210022002400F028
S3150800459035F86FF00A000021002200F02FF86FF0BE
S315080045A009000021002200F029F86FF0040000211C
S315080045B0002200F023F86FF003000021002200F02B
S315080045C01DF86FF001000021002200F017F84FF0E7
S315080045D0FF300021002200F011F84FF4807001909E
S315080045E00120CDE9020441F20000C4F6000001A949
S315080045F00494FFF77DFE06B010BD000070B51446A2
S315080046000D46064600F054FB2946224600F0C6FA37
S315080046100146304600F054FB70BD000080B500F03E
S3150800462061FB80BD2DE9F04381B0002878D042F2C5
S315080046300008C4F202080446D8F800000D4600F047
S31508004640070088420CD2D8F8000020F0070028435B
S31508004650C8F80000D8F8000000F00700A8425FD1AB
S31508004660206841F204098107C4F2020907D5D9F87E
S315080046700010A26821F0F0011143C9F80010C00724
S3150800468045D1D8F8000000F00700A8420CD9D8F8A0
S31508004690000020F007002843C8F80000D8F80000FA
S315080046A000F00700A8423BD12068410707D5D9F892
S315080046B00010E26821F4E0611143C9F80010000710
S315080046C008D5D9F80000216920F4605040EAC100F5
S315080046D0C9F8000000F054F8D9F8001044F628523A
S315080046E0C1F30311C0F60002515C40F2000220FA41
S315080046F001F140F20800C2F200000068C2F20002AE
S315080047001160FFF7F3FE002001B0BDE8F083606892
S31508004710022809D0012828D159F8041C890307D48E
S31508004720012001B0BDE8F08359F8041C8901F7D5CA
S31508004730D9F8001021F003010843C9F80000FFF773
S31508004740ADFE064641F28837D9F80000616800F0E8
S315080047500C00B0EB810F94D0FFF7A0FE801BB84287
S31508004760F2D9032001B0BDE8F08359F8041C890783
S31508004770D6D5DDE740F20000C2F2000000687047B7
S3150800478041F2040CC4F2020CDCF8003003F00C0011
S31508004790082841F20020C0F27A0018BF7047C3F318
S315080047A083420AA18A5CDCF82810DB0305D440F6AC
S315080047B00010C0F23D005043704701F00F0107A3F7
S315080047C0595CB0FBF1F05043704700BF0203040583
S315080047D0060708090A0B0C0D0E0F10100102030438
S315080047E005060708090A0B0C0D0E0F102DE9F041F6
S315080047F082B0002800F08F800446007841F2000657
S31508004800C007C4F202064BD0706800F00C000428FA
S3150800481006D13068800343D56068002840D17AE025
S31508004820706800F00C00082802D17068C003F0D444
S3150800483065682DB1B5F5A02F0AD0B5F5803F0BD028
S31508004840306820F480303060306820F4802006E03C
S31508004850306840F480203060306840F48030306042
S31508004860F06AA16820F00F000843F062FFF716FE11
S31508004870002D054611D000BF3068800310D4FFF71D
S315080048800DFE401B6428F7D908E100BFFFF706FEB6
S31508004890401B64284FF003003AD830688003F5D4EB
S315080048A02078800718D5706810F00C0F07D070684C
S315080048B000F00C0008286CD17068C00369D4306811
S315080048C0800702D52069012825D13068616920F062
S315080048D0F80040EAC1003060207800071FD420782D
S315080048E0400732D4E56995B1706800F00C000828D5
S315080048F040F08880012D0ED07068216A00F480325D
S315080049008A4208D1616A00F47010884203D10020F7
S3150800491002B0BDE8F081012002B0BDE8F081A069CF
S3150800492000285BD00020C4F242200121C0F8801480
S31508004930FFF7B4FD054600BF706A8007CFD4FFF7BE
S31508004940ADFD401B0228F7D9A8E0F06910F08058A1
S3150800495008D1F06940F08050F061F06900F08050AD
S315080049600190019847F20007C4F200073868C005AD
S3150800497026D4386840F480703860FFF78FFD054606
S315080049803868C0051CD4FFF789FD401B6428F7D991
S3150800499084E02069002840F20000C4F2422053D087
S315080049A001210160FFF77AFD054600BF30688007E0
S315080049B03FF58BAFFFF772FD401B0228F6D96DE075
S315080049C0E5681DB1052D51D0012D53D0306A20F070
S315080049D001003062306A20F004004EE00020C4F284
S315080049E042200021C0F88014FFF758FD054600BF95
S315080049F0706A80077FF573AFFFF750FD401B0228EA
S31508004A00F6D94BE00027C4F2422700203866FFF7A4
S31508004A1045FD022D05460BD13068800156D5FFF7B6
S31508004A203DFD401B02284FF00300F5D970E700BF93
S31508004A30306880017FF56BAFFFF730FD401B022819
S31508004A404FF00300F4D963E700210160FFF726FD64
S31508004A50054600BF306880077FF53EAFFFF71EFDAD
S31508004A60401B02284FF00300F4D951E7306A40F0A2
S31508004A7004003062306A40F001003062FFF70EFD34
S31508004A80002D054641F2883714D000BF306A8007EA
S31508004A9013D4FFF703FD401BB842F7D9032002B031
S31508004AA0BDE8F081FFF7FAFC401BB8424FF003005F
S31508004AB03FF62EAF306A8007F4D4B8F1000F7FF4C2
S31508004AC011AFF06920F08050F0610BE77068D4E907
S31508004AD0082120F4741008431043706001203866DA
S31508004AE0FFF7DCFC044600BF306880013FF50FAFD6
S31508004AF0FFF7D4FC001B02284FF00300F4D907E7A0
S31508004B004EF21001CEF200010A68042822F00402CF
S31508004B1008BF04320A6070477047000080B500F08D
S31508004B2053F880BD80B5FFF7F7FF80BD80B500F06C
S31508004B30B5F8FFF7C7FC00F065F800F099F800F043
S31508004B4001F880BD80B541F20000C4F600004FF4BC
S31508004B5080710022FFF79CFC80BD0000B0B500F014
S31508004B6083F840F27405C2F2000529680446401A23
S31508004B70B0F5FA7F38BFB0BD40F27000C2F200004F
S31508004B80017881F00102027041F20000C4F60000CB
S31508004B904FF48071FFF77CFC2C60B0BD00F0070075
S31508004BA080F00703042B28BF04234FF0FF3C03388B
S31508004BB00CFA03F338BF0020994381400CFA00F041
S31508004BC022EA000008437047B0B501380024B4EB68
S31508004BD0106F1CBF0120B0BD4EF21005CEF20005C5
S31508004BE068604FF0FF300F2100F06AF80720AC60CC
S31508004BF028602046B0BD000080B5FFF755FCFFF7DA
S31508004C0091FF80BDB0B590B0012006900A904FF490
S31508004C1080300E904FF4E0104FF4A02100240225B6
S31508004C200F9006A8079108940D95FFF7DFFD00B1D0
S31508004C30FEE70F20CDE901054FF48060CDE90404B5
S31508004C4001A802210394FFF7EDFC00B1FEE710B0BE
S31508004C50B0BD00004EF68850CEF20000016841F45F
S31508004C60700101607047000080B5FFF717FC80BD32
S31508004C7080B5FFF77FFD44F6D351C1F26201A0FB70
S31508004C8001018809FFF74AFF0420FFF739FF4FF0B3
S31508004C90FF3000210022FFF7B1FC80BD44F200007E
S31508004CA04EF60851C0F60000CEF2000108607047C3
S31508004CB04EF60C50CEF200000068C0F30220704792
S31508004CC04EF6145300F00F02CEF2000309011A44FF
S31508004CD000F16043B0F1FF3FC8BF03F564421170AD
S31508004CE0704700004EF60C51CEF200010A684FF6E6
S31508004CF0FF031A4060F30A2242F0806040F0FD701C
S31508004D0008607047FFF712FFFFF728FFFCE7F1EE90
S31508004D10100A4FF6FF71C0F2C03120EA010040F0D8
S31508004D204070E1EE100A7047000000000000000025
S31508004D300102030406070809584D00080000002070
S31508004D4010000000C8410008684D00081000002047
S31508004D5070060000E441000800127A000100000015
S30D08004D6010000000000000002D
S7050800418D24
