S01900006F70656E626C745F73746D3332663732332E73726563FD
S31508000000000004201D160008F1150008F315000865
S31508000010F5150008F7150008F91500080000000096
S31508000020000000000000000000000000FB150008AA
S31508000030FD15000800000000FF150008011600085D
S315080000406D1600086D1600086D1600086D16000876
S315080000506D1600086D1600086D1600086D16000866
S315080000606D1600086D1600086D1600086D16000856
S315080000706D1600086D1600086D1600086D16000846
S315080000806D1600086D1600086D1600086D16000836
S315080000906D1600086D1600086D1600086D16000826
S315080000A06D1600086D1600086D1600086D16000816
S315080000B06D1600086D1600086D1600086D16000806
S315080000C06D1600086D1600086D1600086D160008F6
S315080000D06D1600086D1600086D1600086D160008E6
S315080000E06D1600086D1600086D1600086D160008D6
S315080000F06D1600086D1600086D1600086D160008C6
S315080001006D1600086D1600086D1600086D160008B5
S315080001106D1600086D1600086D1600086D160008A5
S315080001206D1600086D1600086D1600086D16000895
S315080001306D16000800000000000000000000000026
S315080001400000000000000000000000006D16000816
S315080001506D1600086D1600086D1600086D16000865
S315080001606D1600086D1600086D1600086D16000855
S315080001706D1600086D16000800000000000000005B
S315080001806D1600086D1600086D1600086D16000835
S315080001906D1600086D160008000000006D160008B0
S315080001A00000000000000000000000006D160008B6
S315080001B06D1600086D16000800000000000000001B
S315080001C00000000000000000000000000000000021
S315080001D00000000000000000000000006D16000886
S315080001E010B5054C237833B9044B13B10448AFF363
S315080001F000800123237010BDA40000200000000029
S3150800020054C9000808B5034B1BB103490348AFF3AB
S31508000210008008BD00000000A800002054C900089E
S31508000220034613F8012B002AFBD1181A0138704728
S3150800023081F0004102E000BF83F0004330B54FEA89
S3150800024041044FEA430594EA050F08BF90EA020FF6
S315080002501FBF54EA000C55EA020C7FEA645C7FEA89
S31508000260655C00F0E2804FEA5454D4EB5555B8BFAC
S315080002706D420CDD2C4480EA020281EA030382EA1D
S31508000280000083EA010180EA020281EA0303362DAF
S3150800029088BF30BD11F0004F4FEA01314FF4801C82
S315080002A04CEA113102D0404261EB410113F0004F94
S315080002B04FEA03334CEA133302D0524263EB43034B
S315080002C094EA050F00F0A780A4F10104D5F1200EE9
S315080002D00DDB02FA0EFC22FA05F2801841F1000144
S315080002E003FA0EF2801843FA05F359410EE0A5F118
S315080002F020050EF1200E012A03FA0EFC28BF4CF049
S31508000300020C43FA05F3C01851EBE37101F00045FE
S3150800031007D54FF0000EDCF1000C7EEB00006EEB0B
S315080003200101B1F5801F1BD3B1F5001F0CD3490895
S315080003305FEA30004FEA3C0C04F101044FEA4452EC
S3150800034012F5800F80F09A80BCF1004F08BF5FEA73
S31508000350500C50F1000041EB045141EA050130BD53
S315080003605FEA4C0C404141EB0101013C28BFB1F565
S31508000370801FE9D291F0000F04BF01460020B1FAB0
S3150800038081F308BF2033A3F10B03B3F120020CDA83
S315080003900C3208DD02F1140CC2F10C0201FA0CF061
S315080003A021FA02F10CE002F11402D8BFC2F1200CC6
S315080003B001FA02F120FA0CFCDCBF41EA0C0190407C
S315080003C0E41AA2BF01EB0451294330BD6FEA0404C5
S315080003D01F3C1CDA0C340EDC04F11404C4F12002B0
S315080003E020FA04F001FA02F340EA030021FA04F3C2
S315080003F045EA030130BDC4F10C04C4F1200220FA19
S3150800040002F001FA04F340EA0300294630BD21FA56
S3150800041004F0294630BD94F0000F83F4801306BF1C
S3150800042081F480110134013D4EE77FEA645C18BF10
S315080004307FEA655C29D094EA050F08BF90EA020FA7
S3150800044005D054EA000C04BF1946104630BD91EA9F
S31508000450030F1EBF0021002030BD5FEA545C05D1A2
S315080004604000494128BF41F0004130BD14F58004E1
S315080004703CBF01F5801130BD01F0004545F0FE4155
S3150800048041F470014FF0000030BD7FEA645C1ABF8A
S31508000490194610467FEA655C1CBF0B46024650EAC1
S315080004A0013406BF52EA033591EA030F41F40021ED
S315080004B030BD00BF90F0000F04BF0021704730B573
S315080004C04FF4806404F132044FF000054FF0000148
S315080004D050E700BF90F0000F04BF0021704730B509
S315080004E04FF4806404F1320410F0004548BF4042DE
S315080004F04FF000013EE700BF42004FEAE2014FEA33
S3150800050031014FEA02701FBF12F07F4393F07F4F0D
S3150800051081F06051704732F07F4208BF704793F010
S315080005207F4F04BF41F40021704730B54FF4607423
S3150800053001F0004521F000411CE700BF50EA010226
S3150800054008BF704730B54FF000050AE050EA0102CF
S3150800055008BF704730B511F0004502D5404261EB3F
S3150800056041014FF4806404F132045FEA915C3FF480
S31508000570D8AE4FF003025FEADC0C18BF03325FEA1D
S31508000580DC0C18BF033202EBDC02C2F1200300FACE
S3150800059003FC20FA02F001FA03FE40EA0E0021FAF3
S315080005A002F11444BDE600BF70B54FF0FF0C4CF4E1
S315080005B0E06C1CEA11541DBF1CEA135594EA0C0F93
S315080005C095EA0C0F00F0DEF82C4481EA030621EACE
S315080005D04C5123EA4C5350EA013518BF52EA033509
S315080005E041F4801143F4801338D0A0FB02CE4FF0BB
S315080005F00005E1FB02E506F00042E0FB03E54FF0EB
S315080006000006E1FB03569CF0000F18BF4EF0010EE2
S31508000610A4F1FF04B6F5007F64F5407404D25FEADE
S315080006204E0E6D4146EB060642EAC62141EA555191
S315080006304FEAC52040EA5E504FEACE2EB4F1FD0CD3
S3150800064088BFBCF5E06F1ED8BEF1004F08BF5FEA51
S31508000650500E50F1000041EB045170BD06F0004603
S3150800066046EA010140EA020081EA0301B4EB5C04B0
S31508000670C2BFD4EB0C0541EA045170BD41F48011A8
S315080006804FF0000E013C00F3AB8014F1360FDEBFCD
S31508000690002001F0004170BDC4F10004203C35DAA9
S315080006A00C341BDC04F11404C4F1200500FA05F32C
S315080006B020FA04F001FA05F240EA020001F00042CD
S315080006C021F0004110EBD37021FA04F642EB060143
S315080006D05EEA430E08BF20EAD37070BDC4F10C046D
S315080006E0C4F1200500FA04F320FA05F001FA04F231
S315080006F040EA020001F0004110EBD37041F100011D
S315080007005EEA430E08BF20EAD37070BDC4F1200527
S3150800071000FA05F24EEA020E20FA04F301FA05F28F
S3150800072043EA020321FA04F001F0004121FA04F237
S3150800073020EA020000EBD3705EEA430E08BF20EA07
S31508000740D37070BD94F0000F0FD101F00046400041
S3150800075041EB010111F4801F08BF013CF7D041EAC3
S31508000760060195F0000F18BF704703F000465200C7
S3150800077043EB030313F4801F08BF013DF7D043EA98
S315080007800603704794EA0C0F0CEA135518BF95EA4E
S315080007900C0F0CD050EA410618BF52EA4306D1D1D5
S315080007A081EA030101F000414FF0000070BD50EAF4
S315080007B0410606BF1046194652EA430619D094EA7E
S315080007C00C0F02D150EA013613D195EA0C0F05D168
S315080007D052EA03361CBF104619460AD181EA0301BC
S315080007E001F0004141F0FE4141F470014FF0000074
S315080007F070BD41F0FE4141F4780170BD70B54FF00F
S31508000800FF0C4CF4E06C1CEA11541DBF1CEA13558E
S3150800081094EA0C0F95EA0C0F00F0A7F8A4EB050470
S3150800082081EA030E52EA03354FEA013100F0888067
S315080008304FEA03334FF0805545EA131343EA126330
S315080008404FEA022245EA111545EA10654FEA0026E5
S315080008500EF000419D4208BF964244F1FD0404F59E
S31508000860407402D25B084FEA3202B61A65EB0305FA
S315080008705B084FEA32024FF480104FF4002CB6EBB7
S31508000880020E75EB030E22BFB61A754640EA0C0037
S315080008905B084FEA3202B6EB020E75EB030E22BF77
S315080008A0B61A754640EA5C005B084FEA3202B6EBB8
S315080008B0020E75EB030E22BFB61A754640EA9C0077
S315080008C05B084FEA3202B6EB020E75EB030E22BF47
S315080008D0B61A754640EADC0055EA060E18D04FEA05
S315080008E0051545EA16754FEA06164FEAC30343EAA5
S315080008F052734FEAC2025FEA1C1CC0D111F4801F72
S315080009000BD141EA00014FF000004FF0004CB6E76A
S3150800091011F4801F04BF01430020B4F1FD0C88BF09
S31508000920BCF5E06F3FF6AFAEB5EB030C04BFB6EB14
S31508000930020C5FEA500C50F1000041EB045170BD07
S315080009400EF0004E4EEA113114EB5C04C2BFD4EB34
S315080009500C0541EA045170BD41F480114FF0000EB8
S31508000960013C90E645EA060E8DE60CEA135594EA34
S315080009700C0F08BF95EA0C0F3FF43BAF94EA0C0F37
S315080009800AD150EA01347FF434AF95EA0C0F7FF4AC
S3150800099025AF104619462CE795EA0C0F06D152EA00
S315080009A003353FF4FDAE1046194622E750EA4106E4
S315080009B018BF52EA43067FF4C5AE50EA41047FF4F5
S315080009C00DAF52EA43057FF4EBAE12E74FF0FF3C5A
S315080009D006E000BF4FF0010C02E000BF4FF0010C2B
S315080009E04DF804CD4FEA410C7FEA6C5C4FEA430CA4
S315080009F018BF7FEA6C5C1BD001B050EA410C0CBFF3
S31508000A0052EA430C91EA030F02BF90EA020F002054
S31508000A10704710F1000F91EA030F58BF994208BFBB
S31508000A2090422CBFD8176FEAE37040F00100704778
S31508000A304FEA410C7FEA6C5C02D150EA013C07D1CF
S31508000A404FEA430C7FEA6C5CD6D152EA033CD3D01A
S31508000A505DF8040B704700BF8446104662468C4614
S31508000A601946634600E000BF01B5FFF7B7FF002847
S31508000A7048BF10F1000F01BD4DF808EDFFF7F4FF70
S31508000A800CBF012000205DF808FB00BF4DF808EDFB
S31508000A90FFF7EAFF34BF012000205DF808FB00BF1E
S31508000AA04DF808EDFFF7E0FF94BF012000205DF840
S31508000AB008FB00BF4DF808EDFFF7CEFF94BF0120F5
S31508000AC000205DF808FB00BF4DF808EDFFF7C4FFEE
S31508000AD034BF012000205DF808FB00BF4FEA410241
S31508000AE012F5001215D211D56FF47873B3EB625272
S31508000AF012D94FEAC12343F0004343EA505311F099
S31508000B00004F23FA02F018BF404270474FF000002A
S31508000B10704750EA013005D111F0004008BF6FF068
S31508000B20004070474FF00000704700BF4A0011D2DE
S31508000B3012F5001211D20DD56FF47873B3EB625229
S31508000B400ED44FEAC12343F0004343EA505323FA35
S31508000B5002F070474FF00000704750EA013002D1AA
S31508000B604FF0FF3070474FF00000704753B94AB94D
S31508000B70002908BF00281CBF4FF0FF314FF0FF3097
S31508000B8000F088B9ADF1080C6DE904CE00F006F85E
S31508000B90DDF804E0DDE9022304B070472DE9F047EB
S31508000BA0089D8E4604468846002B4AD18A42174637
S31508000BB062D9B2FA82F64EB1C6F1200301FA06F8F6
S31508000BC020FA03F3B74043EA0808B4404FEA174E41
S31508000BD01FFA87FCB8FBFEF1230C0EFB118843EACB
S31508000BE0084301FB0CF29A4209D9FB1801F1FF30C0
S31508000BF080F0EA809A4240F2E78002393B449A1A2A
S31508000C00A3B2B2FBFEF00EFB102243EA024300FB3E
S31508000C100CFC9C4509D9FB1800F1FF3280F0D68000
S31508000C209C4540F2D3803B44023840EA0140A3EB9E
S31508000C300C0300211DB1F3400022C5E90032BDE8CE
S31508000C40F0878B4205D90DB1C5E900010021084698
S31508000C50F5E7B3FA83F1002946D1734502D38242F8
S31508000C6000F20581841A6EEB030201209046002DDE
S31508000C70E5D0C5E90048E2E7002A00F09080B2FA1C
S31508000C8082F6002E40F0A4808A1A030C4FEA174E0B
S31508000C9080B2BCB20121B2FBFEFC0EFB1C2243EA69
S31508000CA0024304FB0CF29A4207D9FB180CF1FF38F1
S31508000CB002D29A4200F2E080C4469B1AB3FBFEF2C7
S31508000CC00EFB123340EA034302FB04F49C4207D9A5
S31508000CD0FB1802F1FF3002D29C4200F2CA8002469B
S31508000CE01B1B42EA0C40A5E7C1F120068B4022FAFD
S31508000CF006F71F430EFA01F420FA06F32EFA06FE4B
S31508000D004FEA1749234300FA01F81FFA87FCBEFB8E
S31508000D10F9F01C0C09FB10EE44EA0E4400FB0CFE2D
S31508000D20A64502FA01F209D93C1900F1FF3A80F00A
S31508000D309C80A64540F2998002383C44A4EB0E04F8
S31508000D401FFA83FEB4FBF9F309FB13444EEA044485
S31508000D5003FB0CFCA44508D93C1903F1FF3E80F0BF
S31508000D608280A4457FD9023B3C4443EA0040A4EB79
S31508000D700C04A0FB02EC64457346E14662D35FD0DF
S31508000D805DB1B8EB030264EB090404FA06F622FA2D
S31508000D9001F31E43CC40C5E9006400214FE7B1FBCF
S31508000DA0F2FC010C41EA0E4180B240EA01423B46A0
S31508000DB038463C46B846BE462026B1FBF7F1A2EBBC
S31508000DC0080241EA0C4166E7014618E710462CE797
S31508000DD0C6F120022EFA02F3B740B14020FA02F219
S31508000DE04FEA174E0A43B3FBFEF8BCB20EFB1833A4
S31508000DF0110C41EA034108FB04F9B04089454FEA62
S31508000E00104380B23ED9791808F1FF3C01D28945D2
S31508000E101FD8A1EB0901B1FBFEF909FB04F80EFB8B
S31508000E20191192B242EA0142424529D2BA1809F189
S31508000E30FF31C4D24245C2D2A9F102013A44BEE703
S31508000E40F0459DD2BEEB02036CEB070C0138E14678
S31508000E5096E7A7EB09094944A8F1020CB1FBFEF98C
S31508000E6009FB04F8DBE773467FE7504666E7084662
S31508000E70FDE63B44023A33E7ACF1020C3B441CE77F
S31508000E8049469CE7A1EB0901C446B1FBFEF909FBFB
S31508000E9004F8C4E7704700BF08B508F0B1FE02F0D1
S31508000EA0F7FB08BD08B508F0C1FE02F013FC08BD43
S31508000EB008B5054B1B6913F0010F01D0002008BDCA
S31508000EC000F0A2F80120FAE70000024008B5642005
S31508000ED000F06CF808BD08B500F06EF808BD000013
S31508000EE000B5C7B04FF48C72002168460BF0EAFCD7
S31508000EF0694608480BF0A3FB40B9009B3BB19DF837
S31508000F00083013F0100F02D1012000E0002047B08E
S31508000F105DF804FBBCCA000800487047BCCA000854
S31508000F2000B585B0033804280ED8DFE800F00321A1
S31508000F302C101700184B00221A704B6813B1164B69
S31508000F4001221A7001F0E0FF05B05DF804FB0220EB
S31508000F5002F000F8114802F021F8F5E7087A0228AD
S31508000F6003D80F4802F01AF8EEE701F0F3FFF8E7A6
S31508000F70094B1B78012B02D001F0D6FFE4E709489C
S31508000F800BF07FFBF8E70A780749684608F01CFA71
S31508000F90684602F003F8D7E7C000002078C90008C1
S31508000FA084C90008BCCA000894C90008014B188007
S31508000FB0704700BFC800002008B508F0C1FD0E4BF9
S31508000FC01B6898420FD30D4B1B786BB90B4B01224C
S31508000FD01A700B4B02229A6108F0B2FD094B1B8866
S31508000FE00344054A136008BD044B00221A70044BDB
S31508000FF04FF400329A61EFE7C4000020C1000020D8
S3150800100000040240C8000020024B4FF400329A61E7
S31508001010704700BF0004024070B58EB000240894E3
S3150800102009940A940B940C940D94354B1A6B42F060
S3150800103010021A631A6B02F010020792079A1A6BCB
S3150800104042F008021A631A6B02F008020692069A20
S315080010501A6B42F002021A631A6B02F00202059238
S31508001060059A1A6B42F040021A631A6B02F04002A4
S315080010700492049A1A6B42F020021A631A6B02F061
S3150800108020020392039A1A6B42F080021A631A6BC3
S3150800109002F080020292029A1A6B42F004021A6364
S315080010A01A6B02F004020192019A1A6B42F00102CD
S315080010B01A631B6B03F001030093009B11484FF45E
S315080010C080538361104E4FF40032B26108930125B4
S315080010D0099508A901F0E6F8089509940C9408A959
S315080010E00A4801F0DFF80223089309950A940B943D
S315080010F00C9408A9304601F0D5F80EB070BD00BFB3
S3150800110000380240001C0240000402400000024071
S315080011102DE9F04190B0002409940A940B940C949C
S315080011200D940E940F9403940494059406940794CE
S315080011300894294BD3F8902022F44062C3F89020F3
S315080011405A6C42F020025A645A6C02F0200202924B
S31508001150029A1A6B42F004021A631B6B03F004032B
S315080011600193019B802303934FF00208CDF810806A
S315080011700327059708260896184D03A9284601F05F
S3150800118091F840230393CDF81080059706940794A9
S31508001190089603A9284601F085F84FF46143099398
S315080011A00A940B940C940C230D930E940F940C4CE8
S315080011B009A9204601F0F8FA636823F490436360AE
S315080011C0A36823F02A03A360236843F0010323607E
S315080011D010B0BDE8F08100BF0038024000080240A8
S315080011E00014014072B6FEE708B5374A136823F0C3
S315080011F00F0343F007031360334B1B6803F00F0319
S31508001200072BF9D1314B1A6842F440421A601A6822
S3150800121042F480321A6003F5E4331A6842F48022F5
S315080012201A601A6842F480321A60294B1B6813F454
S31508001230003FFAD0264B5A6826491140264A0A43E7
S315080012405A605A6825491140254A0A435A601A685D
S3150800125042F080721A601E4B1B6813F0007FFAD0AA
S315080012601A4B5B6813F4804FFAD0194B9A6822F030
S31508001270F0029A609A6822F4E05242F4A0529A6008
S315080012809A6822F4604242F400429A609A6822F010
S31508001290030242F002029A600D4B9B6803F00C03AE
S315080012A0082BF9D10F4801F0FDFA002000F0F6F9F5
S315080012B038B9074AD2F88C3023F08073C2F88C30DC
S315080012C008BDFFF78FFF00BF003C024000700040DA
S315080012D0003802400080BCFF196C40000080BFF057
S315080012E0196C400900E6DF0C00B5ADF5797D00F014
S315080012F0FBF9FFF779FFFFF78FFEFFF709FF054BAD
S315080013000093684600F0B6F8FFF7C6FDFFF7CAFD7A
S31508001310FCE700BF00000440F0B587B00023019346
S315080013200293039304930593254B1B680BB107B0EF
S31508001330F0BD234B01221A60224B9A6B42F0010240
S315080013409A639B6B03F001030093009B4FF683732C
S31508001350019302260296032504950C24059401A9F7
S31508001360194800F005FC4DF6B37301930296002761
S3150800137003970495059401A9144800F0F9FB802306
S315080013800193029603970495059401A9104800F065
S31508001390EFFB40F23F2301930296039704950594C9
S315080013A001A90C4800F0E4FB4FF23F0301930296B3
S315080013B003970495059401A9074800F0D9FBB6E7F9
S315080013C0D00000200038024000100240000C024005
S315080013D000040240001802400014024008B5124BEF
S315080013E01B6803B108BD104B01221A600F4A936BA4
S315080013F023F0010393634FF683710D4800F0ACFCAC
S315080014004DF6B3710B4800F0A7FC80210A4800F09E
S31508001410A3FC40F23F21094800F09EFC4FF23F0131
S31508001420074800F099FCDDE7CC00002000380240B0
S3150800143000100240000C024000040240001802405E
S315080014400014024082B00A4B1A6C42F080521A64A9
S315080014501A6C02F080520092009A5A6C42F480424A
S315080014605A645B6C03F480430193019B02B0704796
S315080014700038024010B58AB00023059306930793F7
S315080014800893099302681F4B9A4201D00AB010BD0F
S315080014901D4CD4F8903023F00063C4F89030236BC9
S315080014A043F002032363236B03F002030193019BBA
S315080014B04FF44043059302230693032308930C2312
S315080014C0099305A9114800F053FB636C43F00043E8
S315080014D06364636C03F000430293029B236B43F03F
S315080014E000532363236B03F000530393039B236B7F
S315080014F043F080432363236B03F080430493049BE8
S31508001500C4E700BF0000044000380240000402405F
S3150800151008B502680B4B9A4200D008BDA3F5E43320
S315080015205A6C22F000425A641A6B22F000521A636F
S315080015301A6B22F080421A634FF44041024800F0C9
S315080015400BFCEAE7000004400004024008B5FFF778
S31508001550E3FE08BD08B5FFF741FF08BD30B5ADF598
S31508001560797D00F0E5FE1C4C4FF40033A3611B4D5A
S315080015704FF08053AB611A4B00936846FFF7C8FFDC
S31508001580284600F0F3FD174800F0F0FD204600F06D
S31508001590EDFD154800F0EAFD144B5A6C22F02002C6
S315080015A05A641A6B22F080021A631A6B22F004023C
S315080015B01A631A6B22F002021A631A6B22F00102EE
S315080015C01A631A6C22F080521A645A6C22F480420A
S315080015D05A640DF5797D30BD00040240001C0240B6
S315080015E000000440000802400000024000380240A3
S315080015F0FEE7FEE7FEE7FEE7FEE77047704770473F
S3150800160008B500F07DF808BD034AD2F8883043F4DF
S315080016107003C2F88830704700ED00E0DFF834D078
S31508001620FFF7F2FF0C480D490D4A002302E0D45893
S31508001630C4500433C4188C42F9D30A4A0A4C00230E
S3150800164001E013600432A242FBD30BF051F9FFF715
S315080016504BFE70470000042000000020A400002074
S3150800166014DD0008A400002050160020FEE7000044
S3150800167010B5094B4FF0FF321A6200241C625A62F9
S315080016805C621A611C615A615C619A619C61FFF730
S3150800169065FF204610BD00BF0038024010B504465D
S315080016A00E4B1A784FF47A73B3FBF2F30C4A1068B0
S315080016B0B0FBF3F000F098F868B90F2C01D90120B7
S315080016C00AE0002221464FF0FF3000F07DF8054B76
S315080016D01C60002000E0012010BD00BF04000020AF
S315080016E0000000200800002008B5032000F05AF882
S315080016F00020FFF7D3FFFFF7A5FE002008BD000076
S31508001700034A1168034B1B780B441360704700BFEC
S31508001710D40000200400002038B5044608F018FA62
S315080017200546B4F1FF3F02D0044B1B781C4408F071
S315080017300FFA401BA042FAD338BD00BF04000020B0
S31508001740002804DB0901C9B2044B1954704700F09C
S315080017500F000901C9B2024B1954704700E400E0B2
S3150800176014ED00E000B500F00700C0F1070CBCF16D
S31508001770040F28BF4FF0040C031D062B0FD9C31EF8
S315080017804FF0FF3E0EFA0CF021EA000199400EFADE
S3150800179003FE22EA0E0241EA02005DF804FB00237A
S315080017A0EEE700000649CB6823F4E0631B041B0C34
S315080017B0000200F4E0600343024A1A43CA60704715
S315080017C000ED00E00000FA0510B50446054BD868A0
S315080017D0C0F30220FFF7C6FF01462046FFF7B0FF19
S315080017E010BD00BF00ED00E00138B0F1807F0BD2DC
S315080017F04FF0E0235861054AF02182F823100020B3
S31508001800986107221A6170470120704700ED00E0D1
S3150800181010B40B490C6924F440740C610C6944F447
S3150800182040740C610C6944F001040C610260BFF35A
S315080018306F8F4360BFF34F8F5DF8044B704700BF4F
S31508001840003C0240084B1A6922F440721A611A6970
S3150800185042F400721A611A6942F001021A610160C3
S31508001860BFF34F8F704700BF003C0240084B1A6910
S3150800187022F440721A611A6942F480721A611A696E
S3150800188042F001021A610180BFF34F8F704700BF13
S31508001890003C0240074B1A6922F440721A611A6921
S315080018A01A611A6942F001021A610170BFF34F8F7B
S315080018B0704700BF003C0240204BDB6813F0020F64
S315080018C004D01F4A936943F0200393611B4BDB68DE
S315080018D013F0100F04D01A4A936943F0100393616A
S315080018E0164BDB6813F0200F04D0154A936943F0B2
S315080018F008039361114BDB6813F0400F04D0104ABC
S31508001900936943F0040393610C4BDB6813F0800F73
S3150800191004D00B4A936943F002039361074BDB68D3
S3150800192013F4807F04D0064A936943F04003936119
S31508001930024B4FF4F972DA60704700BF003C024070
S31508001940D8000020094B1B69002B01DB00207047DB
S31508001950064B074A5A6002F188325A601B69002B07
S3150800196001DB002070470120704700BF003C0240A1
S3150800197023016745034A136943F0004313610020B6
S31508001980704700BF003C024038B50446154B00229C
S315080019909A6108F0DDF80546134BDB6813F4803FBF
S315080019A00AD0B4F1FF3FF7D024B108F0D1F8401BB4
S315080019B0A042F1D903200DE00B4BDB6813F4F97F45
S315080019C009D1094BDB6813F0010F08D0064B012239
S315080019D0DA60002038BDFFF76FFF0120FAE7002024
S315080019E0F8E700BFD8000020003C0240F8B51646CC
S315080019F01B4A127D012A31D004460D461F46184B54
S31508001A0001221A754CF25030FFF7BEFF90B9032C2D
S31508001A1007D8DFE804F00213181DF1B22846FFF7CD
S31508001A2039FF4CF25030FFF7AFFF0E4A136923F027
S31508001A30010313610A4B00221A75F8BDB1B2284694
S31508001A40FFF714FFEDE731462846FFF7FBFEE8E708
S31508001A5032463B462846FFF7DBFEE2E70220ECE784
S31508001A60D8000020003C0240084B1A6922F4407254
S31508001A701A611A6942F004021A611A6942EA0022D6
S31508001A8042F480321A61BFF34F8F7047003C024020
S31508001A90012905D0022906D039B14FF4407104E076
S31508001AA04FF4807101E04FF400710C4B1A6922F46F
S31508001AB040721A611A690A431A611A6922F0F80211
S31508001AC01A611A6942EAC00040F0020018611A69F0
S31508001AD042F480321A61BFF34F8F7047003C0240D0
S31508001AE0214B1B7D012B3CD070B504460E461E4B80
S31508001AF001221A754CF25030FFF746FF014658BBD3
S31508001B004FF0FF3333602368012B16D06568A3684E
S31508001B1062681344AB421FD9217B2846FFF7B8FFFA
S31508001B204CF25030FFF730FF104A136923F07A035E
S31508001B301361014678B90135E9E7207BFFF794FF81
S31508001B404CF25030FFF720FF0146084A136923F08C
S31508001B500403136100E03560034B00221A7508463A
S31508001B6070BD022108467047D8000020003C02409C
S31508001B7000230F2B00F2E78070B582B065E0856818
S31508001B804FEA430E032404FA0EF425EA0405CC684A
S31508001B9004FA0EF42C438460446824EA02044A6872
S31508001BA0C2F300129A40224342605CE0DC08083423
S31508001BB050F8242003F00705AD004FF00F0E0EFA7B
S31508001BC005FE22EA0E0E0A69AA4042EA0E0240F80B
S31508001BD024205CE0072200E0002202FA0EF22A43E3
S31508001BE00234594D45F82420584A94686FEA0C0285
S31508001BF024EA0C054E6816F4801F01D04CEA040549
S31508001C00524CA560E46802EA04054E6816F4001F03
S31508001C1001D04CEA04054D4CE560646802EA040507
S31508001C204E6816F4003F01D04CEA0405474C65603F
S31508001C30246822404D6815F4803F01D04CEA04021E
S31508001C40424C226001330F2B7BD801229A400C6844
S31508001C5004EA020C32EA0404F4D14C6804F00304E2
S31508001C60013C012C8BD94A6802F00302032A09D0E9
S31508001C70C4685D000322AA4024EA02048A68AA40CE
S31508001C802243C2604A6802F00302022A8ED0046820
S31508001C904FEA430E032202FA0EF224EA02044A68C5
S31508001CA002F0030202FA0EF2224302604A6812F4B4
S31508001CB0403FC7D0264A546C44F480445464526C5E
S31508001CC002F480420192019A9C08A51C1E4A52F809
S31508001CD0255003F0030E4FEA8E0E0F2202FA0EF27B
S31508001CE025EA02051B4A90423FF476AF02F5806268
S31508001CF090421AD002F58062904218D002F58062AE
S31508001D00904216D002F58062904214D002F58062A5
S31508001D10904212D002F58062904210D002F580629D
S31508001D2090423FF457AF082257E7012255E70222AF
S31508001D3053E7032251E704224FE705224DE706221F
S31508001D404BE702B070BD704700380140003C0140C7
S31508001D50003802400000024000230F2B00F28F805B
S31508001D60F0B52DE0072500E0002505FA0CF5A5429B
S31508001D7069D004685D004FF0030C0CFA05FC24EAF0
S31508001D800C0404604FEAD30E0EF1080E50F82E40EC
S31508001D9003F00706B6000F25B54024EA050440F807
S31508001DA02E40C46824EA0C04C460446824EA02028B
S31508001DB04260826822EA0C02826001330F2B5DD8EA
S31508001DC001229A4002EA010632EA0104F5D14FEAF5
S31508001DD0930E0EF102052A4C54F8254003F0030C25
S31508001DE04FEA8C0C0F2505FA0CF73C40254DA84206
S31508001DF0BAD005F58065A84219D005F58065A842D0
S31508001E0017D005F58065A84215D005F58065A84266
S31508001E1013D005F58065A84211D005F58065A8425E
S31508001E200FD005F58065A8429CD008259DE70125B9
S31508001E309BE7022599E7032597E7042595E70525F6
S31508001E4093E7062591E7104C256825EA06052560DF
S31508001E50656825EA06056560E56825EA0605E5601C
S31508001E60A56825EA0605A560054E0EF1020456F892
S31508001E70245025EA070546F824507AE7F0BD70474E
S31508001E800038014000000240003C01400AB181616F
S31508001E90704709048161704740B370B50E46154610
S31508001EA0044690F84530E3B1214651F8080B00F096
S31508001EB02FF8A2683146206800F08EF8E36AA26817
S31508001EC02946606800F0B6F82268A16852F8213001
S31508001ED043F0010342F82130012384F845300020FD
S31508001EE070BD80F84430FFF731FBDDE7012070470D
S31508001EF010B50446FFF72EFBA2686168206800F05B
S31508001F0051F8002084F8450084F8440010BD00000C
S31508001F1030B40A6850F8223023F0010340F8223022
S31508001F208B68082B30D000244A6822431343CA68BA
S31508001F3013430A6913434A6913438A691343CA69EF
S31508001F4013430A6A13434A6A13438A6A1343CA6ADB
S31508001F5013430A6B1A434B6B1A438B6B1A430C6871
S31508001F6050F824500E4B2B40134340F824300B6B8B
S31508001F70B3F5801F0AD00B681BB103684A6B13437D
S31508001F800360002030BC70474024CDE70A68002A69
S31508001F90F1D0026822F4801213430360EBE700BF16
S31508001FA08004C0FF50F8223023F0010340F82230A5
S31508001FB06AB943F2DB0340F8223002F1010C6FF0F4
S31508001FC0704340F82C3041F822300020704743F225
S31508001FD0D20340F82230F0E710B40B684C6843EAA5
S31508001FE004138C6843EA0423CC6843EA04430C6967
S31508001FF004F1FF3C43EA0C534C69A4F1020C43EA92
S315080020000C6301328C69234340F82230036813F4C9
S31508002010801F0BD0426822F470020B69013B42EA2A
S315080020200352436823F470031343436000205DF8AA
S31508002030044B7047B3F5804F05D06FF0704340F8F6
S3150800204022300020704730B450F82230094C1C402A
S315080020500B684D6843EA05138D6843EA05238D69C5
S315080020602B43C96843EA01431C4340F82240002039
S3150800207030BC70470000F0CF00B5836891FAA1FC28
S31508002080BCFA8CFC4FEA4C0C4FF0030E0EFA0CFC13
S3150800209023EA0C0391FAA1F1B1FA81F149008A40C9
S315080020A0134383605DF804FB00B5C36891FAA1FC8D
S315080020B0BCFA8CFC4FEA4C0C4FF0030E0EFA0CFCE3
S315080020C023EA0C0391FAA1F1B1FA81F149008A4099
S315080020D01343C3605DF804FB00B5036A91FAA1FCDB
S315080020E0BCFA8CFC4FEA8C0C4FF00F0E0EFA0CFC67
S315080020F023EA0C0391FAA1F1B1FA81F189008A4029
S31508002100134303625DF804FB00B5436A090A91FAB2
S31508002110A1FCBCFA8CFC4FEA8C0C4FF00F0E0EFAA1
S315080021200CFC23EA0C0391FAA1F1B1FA81F18900BA
S315080021308A40134343625DF804FB00B5036891FACD
S31508002140A1FCBCFA8CFC4FEA4C0C4FF0030E0EFABD
S315080021500CFC23EA0C0391FAA1F1B1FA81F14900CA
S315080021608A40134303605DF804FB0000444B984221
S3150800217019D0444B984222D0434B98422BD0434B1C
S31508002180984234D0424B98423DD0424B984246D072
S31508002190414B98424FD0414B984258D0404B9842B9
S315080021A061D00120704703F560531A6942F00102B5
S315080021B01A611A6922F001021A610020704703F5B4
S315080021C050531A6942F002021A611A6922F0020291
S315080021D01A610020704703F540531A6942F0040259
S315080021E01A611A6922F004021A610020704703F581
S315080021F030531A6942F008021A611A6922F0080275
S315080022001A610020704703F520531A6942F010023C
S315080022101A611A6922F010021A610020704703F544
S3150800222010531A6942F020021A611A6922F0200234
S315080022301A610020704703F500531A6942F04002FC
S315080022401A611A6922F040021A610020704703F5E4
S31508002250E0531A6942F080021A611A6922F0800274
S315080022601A610020704703F5C0531A6942F4807258
S315080022701A611A6922F480721A610020704700BF39
S31508002280000002400004024000080240000C024020
S31508002290001002400014024000180240001C0240D0
S315080022A000200240F8B507460E460D6895FAA5F5D2
S315080022B0B5FA85F519E0B26821463846FFF7DCFE1F
S315080022C03268F1687B6823EA020301FB02F21343D2
S315080022D07B6016E0726921463846FFF715FF72687B
S315080022E021463846FFF729FF0135346834FA05F2E6
S315080022F01BD00122AA401440F6D07368013B012B7B
S31508002300D9D9326921463846FFF7CEFE7368022BC3
S31508002310E5D194FAA4F3B3FA83F3072BDAD87269F2
S3150800232021463846FFF7D8FED9E70020F8BD000059
S3150800233082B0224A136843F0010313601F4B1B68DF
S3150800234013F0020FFAD01D4B00229A601A68019208
S3150800235001991B4A0A400192019A1A601A6822F0EA
S31508002360F80242F080021A60144B1B6813F0007FD3
S31508002370FAD1124B1B6813F0006FFAD10F4B1B688A
S3150800238013F0005FFAD10D4B0E4A5A60103AC3F8A3
S315080023908420C3F88820DA6822F4FE42DA60DA6814
S315080023A042F47F02DA605A6F22F001025A675A6FC6
S315080023B042F080725A67002002B070470038024027
S315080023C0FFFFF2EA10300024034B9B68C3F30313A4
S315080023D0024AD35CD840704700380240E0CA000879
S315080023E0034B9B68C3F38223024AD35CD8407047E9
S315080023F000380240D8CA0008034B9B68C3F342332F
S31508002400024AD35CD840704700380240D8CA000850
S315080024100D4B5B6803F480039BB90C480A4B5A685A
S3150800242002F03F02B0FBF2F05A68C2F3881202FBD0
S3150800243000F05B68C3F3014301335B00B0FBF3F0C4
S3150800244070470348EAE700BF003802400024F4005A
S3150800245040787D0108B5074B9B6803F00C03042BF5
S3150800246004D0082B04D1FFF7D3FF08BD0248FCE7C8
S315080024700248FAE70038024040787D010024F4005B
S3150800248008B5032808D00C282ED0B0F5406F53D0D5
S3150800249030287AD0002008BD514BD3F8903003403D
S315080024A043EA00434F4A934208D0B3F1031F0CD0C6
S315080024B0013A934211D1FFF7CDFFECE7484B186874
S315080024C010F00200E7D04848E5E7454B186F10F0D2
S315080024D00200E0D04FF40040DDE7FFF7BBFFFFF74F
S315080024E073FFFFF789FFD6E73D4BD3F890300340DB
S315080024F043EA00433D4A934208D0B3F10C1F0CD07F
S31508002500043A934211D1FFF7A5FFC4E7344B186884
S3150800251010F00200BFD03448BDE7314B186F10F0F9
S315080025200200B8D04FF40040B5E7FFF793FFFFF776
S315080025304BFFFFF755FFAEE7294BD3F89030034022
S3150800254043EA00432A4A934209D0B3F10C2F0DD02F
S31508002550A2F58062934211D1FFF77CFF9BE7204BDF
S31508002560186810F0020096D01F4894E71C4B186FA5
S3150800257010F002008FD04FF400408CE7FFF76AFF97
S31508002580FFF722FFFFF738FF85E7154BD3F89030A2
S31508002590034043EA0043174A934208D0B3F1301F79
S315080025A00DD0103A934213D1FFF754FF73E70C4B43
S315080025B0186810F002003FF46EAF0B486BE7084B43
S315080025C0186F10F002003FF466AF4FF4004062E760
S315080025D0FFF740FFFFF7F8FEFFF702FF5BE700BFD4
S315080025E000380240020003000024F40008000C0032
S315080025F00008000C2000300008B5C0280AD0B0F545
S31508002600407F2FD0B0F5405F55D0B0F5404F7BD016
S31508002610002008BD524BD3F89030034043EA0043EC
S31508002620504A934208D0B3F1C01F0CD0403A9342A7
S3150800263011D1FFF70FFFECE7494B186810F00200BD
S31508002640E7D04948E5E7464B186F10F00200E0D09E
S315080026504FF40040DDE7FFF7FDFEFFF7B5FEFFF795
S31508002660BFFED6E73E4BD3F89030034043EA00431B
S315080026703E4A934209D0B3F1032F0DD0A2F58072DA
S31508002680934211D1FFF7E6FEC3E7354B186810F001
S315080026900200BED03448BCE7314B186F10F0020078
S315080026A0B7D04FF40040B4E7FFF7D4FEFFF78CFE2F
S315080026B0FFF796FEADE72A4BD3F89030034043EA7E
S315080026C000432B4A934209D0B3F1302F0DD0A2F51F
S315080026D08052934211D1FFF7BDFE9AE7204B186846
S315080026E010F0020095D0204893E71D4B186F10F0A4
S315080026F002008ED04FF400408BE7FFF7ABFEFFF7E2
S3150800270063FEFFF76DFE84E7154BD3F89030034060
S3150800271043EA0043174A934209D0B3F1C02F0ED0BB
S31508002720A2F58042934213D1FFF794FE71E70C4B52
S31508002730186810F002003FF46CAF0B4869E7084BC5
S31508002740186F10F002003FF464AF4FF4004060E7E2
S31508002750FFF780FEFFF738FEFFF742FE59E700BF96
S31508002760003802408000C0000024F4000002000384
S3150800277000200030008000C0B2F5004F06D001EB03
S315080027805301B1FBF3F189B2C16070475A0802EBF5
S315080027904102B2FBF3F34FF6F0721A40C3F3420359
S315080027A01343C3607047000038B5036813F0010F80
S315080027B062D104460D460368314A1A404B68C96817
S315080027C00B4329690B43A9690B431A430260AB689B
S315080027D0426822F44052134343606B69826822F4CC
S315080027E0407213438360274B984216D0264B984273
S315080027F01BD0264B98421CD0254B98421DD0254B02
S3150800280098421ED0244B984220D0244B984222D07E
S31508002810234B984224D001202FE00320FFF730FEF7
S3150800282060B32B680BBB012027E00C20FFF728FEBE
S31508002830F6E73020FFF724FEF2E7C020FFF7DCFEBC
S31508002840EEE74FF44070FFF7D7FEE9E74FF4406034
S31508002850FFF716FEE4E74FF44050FFF7CDFEDFE73B
S315080028604FF44040FFF7C8FEDAE7AA69014620465A
S31508002870FFF782FF002000E0012038BD0120FCE7B9
S31508002880F369FFEF00100140004400400048004093
S31508002890004C004000500040001401400078004001
S315080028A0007C0040014B1860704700BF0000002004
S315080028B0F0207047F020704710B4EF2819D8174C4D
S315080028C02080EF291BD8164C218002EB000CBCF1A6
S315080028D0F00F1ADC1FFA8CF00138124A10805A18C9
S315080028E0F02A16DC91B201390F4B19805DF8044BBA
S315080028F070470A4C4FF0000CA4F800C0E1E7084CFA
S315080029004FF0000CA4F800C0DFE7064AEF2010805D
S31508002910E5E7054BEF221A80E8E700BFF60000203E
S31508002920F40000200E0000200C00002070B50E46B2
S31508002930154600F031FC002404E0305D00F026FC6A
S315080029400134E4B2AC42F8D370BD10B582B00128A8
S315080029500BD002280DD060238DF80030012269467D
S315080029603620FFF7E3FF02B010BD00238DF80030D4
S31508002970F4E700248DF800408DF8014001238DF816
S315080029800230F0238DF803308DF804408DF80540A9
S31508002990062269463320FFF7C9FF8DF80040502309
S315080029A08DF80130022269463720FFF7BFFFC023A2
S315080029B08DF80030D2E708B5002211462920FFF726
S315080029C0B5FF002211461120FFF7B0FF08BD2DE91B
S315080029D0F04784B000F0D6FB002211461020FFF71E
S315080029E0A5FF0A2000F0E2FB002211460120FFF7AE
S315080029F09DFFC82000F0DAFB002211461120FFF7E0
S31508002A0095FF782000F0D2FB00248DF800400122C3
S31508002A1069463620FFF78AFF05258DF80050012202
S31508002A2069463A20FFF782FF224621462120FFF712
S31508002A307DFF8DF800408DF801408DF80240EF26A5
S31508002A408DF80360042269462A20FFF76FFF8DF888
S31508002A5000408DF801408DF802408DF8036004228D
S31508002A6069462B20FFF762FF4FF00C088DF80080AF
S31508002A708DF801808DF8024033278DF803708DF8A4
S31508002A8004702A466946B220FFF750FF4FF0350911
S31508002A908DF8009001226946B720FFF747FF1F23EC
S31508002AA08DF8003001226946BB20FFF73FFF2C2333
S31508002AB08DF8003001226946C020FFF737FF01254F
S31508002AC08DF80050C3238DF8013002226946C220D2
S31508002AD0FFF72CFF20238DF800302A466946C420CC
S31508002AE0FFF724FF0F238DF800302A466946C620D3
S31508002AF0FFF71CFFA4238DF80030A1238DF80130C1
S31508002B002A466946D020FFF711FF4FF0D00A8DF804
S31508002B1000A008268DF8016011238DF802308DF883
S31508002B2003608DF8048015238DF805304FF03908B9
S31508002B308DF806808DF8077050238DF808303623F7
S31508002B408DF8093013238DF80A3014278DF80B7089
S31508002B5029238DF80C302D238DF80D300E22694669
S31508002B60E020FFF7E3FE8DF800A08DF80160102342
S31508002B708DF802308DF8036006238DF804308DF841
S31508002B8005308DF8068044238DF8073051238DF8DB
S31508002B9008300B238DF8093016238DF80A308DF886
S31508002BA00B702F238DF80C3031238DF80D300E2243
S31508002BB06946E120FFF7BAFEFFF7FDFE8DF80040F3
S31508002BC02A4669464846FFF7B1FE04B0BDE8F087D5
S31508002BD000B583B0FE238DF80430012201A9BD207B
S31508002BE0FFF7A4FE002211461020FFF79FFE0A20D9
S31508002BF000F0DCFA03B05DF804FB30B583B00C4690
S31508002C0000258DF80450C0B28DF805008DF80650E1
S31508002C1011388DF8070004220DEB02012A20FFF770
S31508002C2085FE8DF80450E1B28DF805108DF8065032
S31508002C3011398DF8071004220DEB02012B20FFF73E
S31508002C4075FE03B030BD10B51446FFF7D6FF002257
S31508002C5011462C20FFF76AFE204600F097FA10BDB1
S31508002C6010B582B0FFF7C9FF002211462E20FFF7E4
S31508002C705DFE00F097FA00F095FA044600F092FA25
S31508002C80231203F0FC038DF8003004F0FC048DF8E1
S31508002C900140001200F0FC008DF80200009BADF820
S31508002CA004301B0C8DF8063000209DF8043063F3C1
S31508002CB007009DF8053063F30F209DF8063063F38F
S31508002CC0174002B010BD30B583B004460D46FFF775
S31508002CD094FF29462046FFF7C3FF8DF80400C0F38A
S31508002CE007238DF80530C0F307408DF806009DF8D8
S31508002CF00430DB089DF8050080089DF80620400191
S31508002D0000EBC32080B200EBD20080B203B030BD26
S31508002D1070B5064608461D461146FFF76EFF0022A7
S31508002D2011462C20FFF702FE002404E0304600F08E
S31508002D302DFA0134A4B2AC42F8D370BD2DE9F041A6
S31508002D4080460D4616461F4611462846FFF755FF8C
S31508002D50002211462C20FFF7E9FD002407E0A119FF
S31508002D60424689B22846FFF76EFF0134A4B2BC4238
S31508002D70F5D3BDE8F08100002DE9F84305460F4676
S31508002D8016469846002211462C20FFF7CFFD2C4602
S31508002D904FF0000902E009F10109013406EB050CC0
S31508002DA0A44517D90C4BB3F800E0A645F5D80B4B4C
S31508002DB01B88BB42F1D80A4B1B88A342EDD3094BAB
S31508002DC01B88BB42E9D36445E5D038F8190000F002
S31508002DD0DDF9E0E7BDE8F883F6000020F4000020FE
S31508002DE00E0000200C0000202DE9F84F80468A4688
S31508002DF09146194B1F88194B1B88FF1ABFB201371A
S31508002E00BFB2174B1C88174B1B88E41AA4B20134AF
S31508002E1053889388B2F80AB01FFA8BFB93894BEA5A
S31508002E20034B11FA84F4002611E0651EADB229465B
S31508002E304046FFF7E2FE06FB07F30BEB43034B4462
S31508002E403A4629464046FFF797FF0136013CA24518
S31508002E50EBD3BDE8F88F00BF0E000020F600002077
S31508002E600C000020F40000202DE9F84F8046894622
S31508002E7017469A46DDF828B00C4600250FE0A6B29C
S31508002E8031464046FFF7B9FE05FB07F30BEB430354
S31508002E903A4631464046FFF76FFF0135013409EBE4
S31508002EA00A03A342EBD8BDE8F88F08B500F074F919
S31508002EB000F078F900F076F9C0B208BD08B500F060
S31508002EC061F90420FFF7F1FF08BD000008B50022EC
S31508002ED04FF400610248FEF7D9FF00F0F3FA08BD87
S31508002EE0001C024008B5002000F076FA08BD000074
S31508002EF008B500F0DFFA01224FF400610148FEF739
S31508002F00C5FF08BD001C024008B5064B00221A7012
S31508002F105A7000F083FBFFF7D9FFFFF7E3FFFFF7CF
S31508002F20E7FF08BDF800002000B595B0FFF7CEFF13
S31508002F30FFF7D8FF00F092FB4FF02043019303F50B
S31508002F40827302930223039301A8FEF7D1FF15B0FB
S31508002F505DF804FB642828BF64200F4B1B78834266
S31508002F6000D1704710B50C4C20704FF6FF7000F07A
S31508002F7031F92023C9221321084600F069FA48F2DC
S31508002F80F07000F027F922781E2352001421084613
S31508002F9000F078FA10BD00BFF800002038B50446E6
S31508002FA0FDF73EF9C1B2142928BF1421002301E018
S31508002FB00133DBB28B4207D2E05C164A1A445278D8
S31508002FC09042F5D0012300E0002303BB38BDE05C46
S31508002FD0104A1A4450700133DBB28B42F7D30D4DB9
S31508002FE0294400244C70204600F0F4F81023F022FF
S31508002FF03C21204600F046FA4FF6FF7000F0EAF84A
S3150800300003236A1C3C21132000F070F9DEE7002335
S31508003010E3E700BFF80000204FF0C8435880BFF32D
S315080030204F8F70474FF0C8431880BFF34F8F7047D4
S315080030304FF0C843588880B27047000000B58DB07D
S31508003040324B9A6B42F001029A639A6B02F00102C4
S315080030500192019A9A6B42F001029A639A6B02F006
S3150800306001020292029A9A6942F001029A619A69E9
S3150800307022F001029A611A6B42F008021A631A6B6F
S3150800308002F008020392039A1A6B42F010021A63BE
S315080030901A6B02F010020492049A1A6B42F020028C
S315080030A01A631A6B02F020020592059A1A6B42F00F
S315080030B040021A631B6B03F040030693069B022328
S315080030C008930123099303230A930C230B934DF6C4
S315080030D0B373079307A90E48FEF74AFD4FF68373A5
S315080030E0079307A90B48FEF743FD4FF23F030793E3
S315080030F007A90948FEF73CFD40F23F23079307A9B5
S315080031000648FEF735FD0DB05DF804FB00380240B1
S31508003110000C024000100240001402400018024051
S3150800312000B59BB0FFF78AFF4FF02043079303F5DE
S31508003130827308930222099200230A930B931021A3
S315080031400C910D930E930F934FF480511091119398
S315080031501293139314934FF4001116911793159322
S3150800316009210091019206210291012103910492FD
S31508003170059206936A46694607A8FEF78DFE1BB0B8
S315080031805DF804FB08B5FFF7CBFF08BD08B5FFF7E8
S3150800319043FFBFF34F8F08BD08B5FFF743FFBFF3E3
S315080031A04F8F08BD08B5FFF743FF08BD08B5FEF702
S315080031B0B3FA08BD08B5024B1B689B6A984708BD59
S315080031C01001002008B5024B1B68DB6A984708BD4A
S315080031D010010020014B1860704700BF1401002041
S315080031E0014B9860704700BF1401002008B5034BD7
S315080031F01B685B6903B1984708BD00BF1001002032
S315080032002DE9F04F83B080468B4600922C4B9B6885
S31508003210DA8801929D88E91D4FEAE1094FEAC90754
S31508003220FFB2EBB2FF1AFFB24FF0000A5346CA4686
S3150800323099462BE0009AD65C00240EE0009AD35CEF
S31508003240467846EA0326F7E708EB04001C4B9A88FB
S31508003250594680B2FFF7CAFF0134A54210D92B1B85
S315080032603B44013B012202FA03F33342ECD008EB5C
S315080032700400134B1A88594680B2FFF7B7FFEBE7ED
S315080032800BF1010B1FFA8BFB09F10109019B4B4559
S3150800329012D909FB0AF3009AD018BAF1010FC9D05E
S315080032A0BAF1020FCAD0009AD35C4678360246EACB
S315080032B0034683781E43BFE703B0BDE8F08F00BF1F
S315080032C01401002038B5084B9C682568A2F1200334
S315080032D0E28802FB03F3A2880732D21002FB0352EC
S315080032E0FFF78EFF38BD00BF140100202DE9F0411D
S315080032F004460E46154698469446002700E00137D0
S315080033001CF8012B002AFAD1FFF754FF214B9B68C2
S315080033109A88B0FBF2F0B8F1010F07D0B8F1020FA6
S315080033200CD023B2002B32DD00271BE0C01B00FBAC
S3150800333002F3C3F34F0323449CB2F2E7C31B13FB08
S3150800334002F39BB21B1B9CB2EBE715F8012B314627
S315080033502046FFF7B7FF0F4B9B689B8823449CB218
S315080033600137BFB295F80080FFF724FF094B9B6829
S31508003370998801FB17039BB2B8F1000218BF012216
S315080033808B4238BF0022002ADFD1BDE8F081012434
S31508003390CAE700BF14010020F8B506460F461546D1
S315080033A00B4B1B681C6A8CB113460A460146094832
S315080033B00088A047F8BD3019064B1A88394680B2EE
S315080033C0FFF714FF0134A542F5D8F3E70024FAE71E
S315080033D0100100201401002070B50C4B1E681860FF
S315080033E0FFF7F0FE0546002407E0FFF7E3FE82B28A
S315080033F0A1B20020FFF7D0FF0134AC42F5D3034B4E
S315080034001E60B0B2FFF7E6FE70BD00BF14010020D3
S31508003410F8B506460F4615460B4B1B685C6A8CB119
S3150800342013460A46014609480088A047F8BD3919D7
S31508003430064B1A8889B23046FFF7D8FE0134A542F2
S31508003440F5D8F3E70024FAE710010020140100205C
S31508003450F8B504460D4617461E46FFF79DFFA919FF
S315080034603A4689B22046FFF797FF32462946204654
S31508003470FFF7CEFFE0193246294680B2FFF7C8FFAC
S31508003480F8BD0000F8B507460D4616461C46084B1B
S315080034901888FFF79FFE29460135ADB232463846F1
S315080034A0FFF77AFF2346013CA4B2002BF3D1F8BDFF
S315080034B01401002008B5024B1B689B68984708BD95
S315080034C01001002008B5024B1B68DB68984708BD49
S315080034D010010020F0B589B0204B1A6B42F080022B
S315080034E01A631A6B02F080020092009A1A6B42F075
S315080034F004021A631A6B02F004020192019A1A6B0B
S3150800350042F080021A631B6B03F080030293029B4E
S315080035108027039700240594022306930126049620
S315080035200F4D03A92846FEF723FB224639462846AF
S31508003530FEF7ACFC4FF480730393049403A909487F
S31508003540FEF716FB4FF4006303930496069403A94B
S315080035502846FEF70DFB09B0F0BD00BF0038024053
S31508003560001C02400008024070B50646264B00259E
S315080035705D60264A9A604FF6FF721A60FFF7AAFF47
S31508003580234C2A464FF400612046FEF77FFC2A4664
S3150800359080212046FEF77AFC0520FEF7BDF80122B9
S315080035A080212046FEF772FC0A20FEF7B5F82A4667
S315080035B080212046FEF76AFC1420FEF7ADF80122AA
S315080035C080212046FEF762FC0A20FEF7A5F8114B7B
S315080035D05B689847852801D0012070BD0D4B0E4ABF
S315080035E013601B68984736B1022E08D00748FFF7C4
S315080035F0F7FD0020F1E72846FFF7A7F9F6E70220CE
S31508003600FFF7A3F9F2E700BF1401002048000020E5
S31508003610001C0240100000201001002008B50120FF
S31508003620FFF7A2FF08BD000010B586B08021019102
S31508003630084C2046FEF790FB4FF48071019106482E
S31508003640FEF78AFB4FF4006101912046FEF784FBE2
S3150800365006B010BD001C02400008024008B5002054
S31508003660FFF7BAFEFFF72EFF00224FF4006103486A
S31508003670FEF70CFCFFF7D8FF002008BD001C02402F
S31508003680024B00221A700120704700BF200100205B
S3150800369000B583B000230D4A13700D4A137006F067
S315080036A08DFAB0F5FA6F0CD302238DF80430AA23ED
S315080036B08DF8053001A9012004F01AFD03B05DF864
S315080036C004FB4FF4FA6006F073FAEDE721010020D7
S315080036D02001002008B506F061FB0021012004F056
S315080036E02BFD00214FF0FF3001F034FF08BD08B56F
S315080036F006F026FA08BD000010B5FFF7F8FF0446E5
S31508003700074B1B784BB1FFF7E5FFFFF7F0FF001BF0
S31508003710B0F5FA6FF4D3002000E0012010BD00BF19
S315080037202001002008B506F0FFFB024B01221A70A3
S3150800373008BD00BF21010020014B00221A70704706
S31508003740210100200020704708B50130C0B200F002
S31508003750B5F808B1002008BD0220FCE730B585B0F1
S3150800376004468C4601300B4901250D700021029153
S31508003770094D01959BB2009313466246C0B200F00C
S315080037800DFA2046FFF7B8FF10B1002005B030BD8E
S315080037900120FBE7200100208136000830B585B0FE
S315080037A004468C4601300B4901250D700021029113
S315080037B0094D01959BB2009313466246C0B200F0CC
S315080037C049FA2046FFF798FF10B1002005B030BD32
S315080037D00120FBE7200100208136000810B51446B9
S315080037E00130C0B2032915D8DFE801F002040A1037
S315080037F0084610BD002100F045F820600020F8E7D3
S31508003800002100F04DF820800020F2E70123136024
S315080038100020EEE70420ECE7F8B50F684B681B7B41
S315080038204BB14FF0E023D3F8F03D13F0010F00D071
S3150800383000BE0020F8BD0446451E01F091FC036851
S315080038401ABA7B7B01320E4E0233342101FB05F591
S3150800385005EBC30333449A607B7B426812BA023392
S3150800386005EBC30333445A60731901275F71204679
S31508003870FFF758FF715D204602F0A0F93846D9E7F0
S31508003880E401002001380231342303FB00F000EB89
S31508003890C100024B03449868704700BFE40100204A
S315080038A001380231342303FB00F000EBC100024B60
S315080038B003445868704700BFE40100200138034BF1
S315080038C0342202FB00335879704700BFE401002018
S315080038D02DE9F04383B00C461F46461E254934237E
S315080038E003FB06110B7903F0FF091BB9484603B021
S315080038F0BDE8F08305469046897801F035FC814697
S315080039000028F3D006EB46031B4A02EB031EF446D7
S3150800391020686168A268E368ACE80F0020696169FD
S31508003920A269ACE80700A28BA37FACF800208CF84C
S3150800393002301049342303FB0611C1F80880CF6012
S315080039400A9B0B6101238B710023019300931F23AC
S3150800395072468978284601F051FC81460028C5D16F
S31508003960044B342202FB06339978284601F024FCDE
S31508003970BCE700BFE401002024010020F0B58BB0AD
S31508003980044615461E46431E1648342202FB03000B
S31508003990037903F0FF000BB90BB0F0BD0F461F22E9
S315080039A0002102A808F08EFF0F4B029303F19053F3
S315080039B0A3F56D03133B03938DF815700823049341
S315080039C080238DF814300A238DF8163025238DF8B8
S315080039D01730109B009333462A4602A92046FFF764
S315080039E077FFD9E7E401002055534243F0B58BB081
S315080039F0044616461F46431E1348342202FB03009C
S31508003A00037903F0FF000BB90BB0F0BD0D461F227A
S31508003A10002102A808F056FF0C4B029303F19053BD
S31508003A20A3F56D03133B03938DF8155006238DF804
S31508003A3016308DF8185000973346002202A9204602
S31508003A40FFF746FFE0E700BFE40100205553424375
S31508003A5038B50478651EC37863B10B4B342202FB74
S31508003A6005330122DA700023084A19462046FFF773
S31508003A70BDFF38BD01F074FB02780132024B3421D8
S31508003A8001FB0533DA70EEE7E4010020493B000844
S31508003A9010B50C684B681B7B4BB14FF0E023D3F88D
S31508003AA0F03D13F0010F00D000BE002010BD00232A
S31508003AB0074A617BFFF79AFF0028F7D14FF0E0230A
S31508003AC0D3F8F03D13F0010FF0D000BEEEE700BFCB
S31508003AD0493B0008F0B58DB004460F4615461E460C
S31508003AE01F22002104A808F0EDFE164B049303F1EB
S31508003AF09053A3F56D03133B05938DF81D701223A0
S31508003B00069380228DF81C2006228DF81E2000229E
S31508003B100292ADF80C2003228DF808208DF80C309F
S31508003B200298CDF81F00BDF80C30ADF82330129B73
S31508003B30009333462A4604A92046FFF7C9FE0DB06E
S31508003B40F0BD00BF5553424370B582B004460D68B8
S31508003B504E6801F005FB0246337B43B9697B009347
S31508003B600C4B2046FFF70AFF012002B070BD697BA7
S31508003B7000230093084B2046FFF7ACFF0028F4D13A
S31508003B804FF0E023D3F8F03D13F0010FEDD000BE5F
S31508003B90EBE700BF19380008913A00082DE9F04311
S31508003BA08FB0054690461E46BDF85890471E274BCF
S31508003BB0342202FB07335B7903F0FF0013B90FB019
S31508003BC0BDE8F0830C461F22002106A808F07AFEFD
S31508003BD01F4B069303F19053A3F56D03133B07930D
S31508003BE08DF825400234342303FB07F707EBC40797
S31508003BF0164B3B445B6803FB09F3089380238DF857
S31508003C0024300A238DF82630002303930493ADF855
S31508003C10143028238DF80C3036BACDF80E6099FA90
S31508003C2099F9ADF8139003AB03CBCDF82700CDF87F
S31508003C302B101B88ADF82F30189B0093179B424614
S31508003C4006A92846FFF744FEB9E700BFE4010020AD
S31508003C50555342432DE9F0438FB0054690461E461C
S31508003C60BDF85890471E254B342202FB07335B7973
S31508003C7003F0FF0013B90FB0BDE8F0830C461F220E
S31508003C80002106A808F01EFE1D4B069303F190536B
S31508003C90A3F56D03133B07938DF8254002343423AF
S31508003CA003FB07F707EBC407144B3B445B6803FBAE
S31508003CB009F308930A238DF8263000230393049307
S31508003CC0ADF814302A238DF80C3036BACDF80E60CC
S31508003CD099FA99F9ADF8139003AB03CBCDF8270001
S31508003CE0CDF82B101B88ADF82F30189B0093179B27
S31508003CF0424606A92846FFF7EBFDBCE7E40100208B
S31508003D005553424308B5D0220021024808F0DAFD8F
S31508003D10012008BDE401002001207047042812D8BC
S31508003D2010B5431E3422084C02FB0344227932B1F3
S31508003D3063792BB934220021204608F0C3FD10BD53
S31508003D40FFF7FAFCF6E77047E401002070B586B085
S31508003D50164600F1FF3E0EEB4E05484A02EB0515E6
S31508003D600EEB4E0C4FEA0C1C0CF1200C6244444C32
S31508003D704FF0340C0CFB0E4C9CF80640022C4BD032
S31508003D80032C60D0012C74D19CF802408C4233D1AC
S31508003D901F3B18BF01237EBB73BB0EEB4E01374B8F
S31508003DA003EB01139B68002B36D03549342505FBF8
S31508003DB00E118E6886B3324905FB0E1102228A71EE
S31508003DC00EEB4E052D4901EB051191F90C20002A41
S31508003DD01CDB0022019200929BB23246214601F07A
S31508003DE00DFA002846D14FF0E023D3F8F03D13F042
S31508003DF0010F3FD000BE3DE04FF0E023D3F8F03D81
S31508003E0013F0010F00D000BE002033E01C4A342115
S31508003E1001FB0E225478DCE71949342303FB0E1103
S31508003E2003238B710023019300930D23497801F036
S31508003E30E5F9F8B94FF0E023D3F8F03D13F0010F98
S31508003E4018D000BE16E00E4B342101FB0E330021BC
S31508003E509971DC6884B102950392094B342202FBFE
S31508003E600E339A6804921B69059302A9A04701209C
S31508003E7000E0012006B070BD0120FBE72401002008
S31508003E80E40100202DE9F84314469279062A5BD10D
S31508003E900F46E279502A5BD12579C5EBC505ADB247
S31508003EA00935ADB29D4206D801F1FF392678264478
S31508003EB04FF0000826E04FF0E023D3F8F03D13F06A
S31508003EC0010F00D000BE00253FE04FF0E023D3F8F5
S31508003ED0F03D13F0010F00D000BE002535E04FF08D
S31508003EE0E023D3F8F03D13F0010F00D000BE002503
S31508003EF02BE0184A342101FB0922537033781E44FB
S31508003F0008F10108B8F1010F16D87378052BDCD132
S31508003F10F37803F00303022BD7D13146384601F074
S31508003F20AFFC0028DBD0B378DA09E2D1094A34219C
S31508003F3001FB09229370E1E7A278342303FB09F910
S31508003F40044B03F8092000E000252846BDE8F8835D
S31508003F500025FAE7E401002030B589B00446421E80
S31508003F60342302FB03F32648C35C8B420AD04FF086
S31508003F70E023D3F8F03D13F0010F00D000BE002077
S31508003F8009B030BD1E4B342000FB023201231371E9
S31508003F909DF8182063F304028DF81820D2B263F353
S31508003FA046128DF81820D2B242F080028DF81820F9
S31508003FB0FE228DF819200025ADF81A50ADF81C1010
S31508003FC0ADF81E3001F0CCF80095019502950395E1
S31508003FD0049505958DF8004006AB02930390094BAE
S31508003FE00493684601F0BEFB0028C9D14FF0E023D0
S31508003FF0D3F8F03D13F0010FC2D000BEC0E700BFF2
S31508004000E4010020513A000803460A4490B281426E
S3150800401002D8B0EB430F03DB5B009BB2C01A80B239
S315080040207047024683888B4203D8C91A88B25081E2
S315080040307047194488B2FAE7F8B50E46B0F804C0D6
S31508004040ACEB0307BFB2A3EB0C0C9444016819440C
S31508004050974203D3304608F06FFCF8BD05461FFAB1
S315080040608CF43A46304608F067FC22462968F0196F
S3150800407008F062FCF1E7F8B505460E46B0F804C04C
S31508004080ACEB0307BFB2A3EB0C0C944400681844CE
S31508004090974202D308F050FCF8BD1FFA8CF43A4652
S315080040A008F04AFC2246F119286808F045FCF3E7AF
S315080040B0002343810381704710B582B004460BB1D3
S315080040C01B7806E0042304E0086820601944D21A25
S315080040D092B29342F8D90AB902B010BD00230193EF
S315080040E001A808F029FC019B2360F5E72DE9F04FAC
S315080040F083B00E460C9F8488A4EB03081FFA88F841
S315080041001C1B1444016801EB0309904507D33B4681
S3150800411049463046FFF7D0FF03B0BDE8F08F0546A5
S31508004120A4B297F800B0CBF1000A0AEA080A3B469F
S31508004130524649463046FFF7BFFF0BF1FF32D2B26F
S3150800414018EA02023DD0ABEB020B1FFA8BFBA34524
S3150800415028BFA3465FFA8BF84FF0000C0CE009EB7A
S315080041600A0313F80C100CF108036B4403F8041C3B
S315080041700CF1010C5FFA8CFC9445F0D3002308E09F
S315080041802868D118C05C0831694401F8040C013369
S31508004190DBB24345F4D35FFA8BFB3B465A4401A98D
S315080041A03046FFF789FFA4EB0B0B1FFA8BF429683F
S315080041B04144002CB0D03B4622463046FFF77CFFF0
S315080041C0AAE72968F5E7844608460BB11B7807E095
S315080041D0042305E0DCF8001001601844D21A92B2F4
S315080041E09342F7D902B9704700B583B0DCF80030BE
S315080041F0019301A908F0A0FB03B05DF804FB2DE9C3
S31508004200F04F83B088468488E51AADB21C1B144467
S3150800421007681F44954207D30C9B39464046FFF76B
S31508004220D2FF03B0BDE8F08F0646A4B20C9B93F804
S3150800423000B0CBF1000A0AEA050A5246394640465A
S31508004240FFF7C1FF0BF1FF33DBB21D4008D1316820
S31508004250002CE6D00C9B22464046FFF7B4FFE0E769
S31508004260ABEB05039BB2A34228BF23465FFA83FB49
S31508004270D9460C9B05EB0B0201A94046FFF7A3FFA5
S31508004280002309E00AEB030203F10801694411F867
S31508004290041CB9540133DBB2AB42F3D3002308E064
S315080042A0EA18316808326A4412F8042CCA540133F1
S315080042B0DBB25B45F4D3A4EB09039CB231685944DD
S315080042C0C6E72DE9F04182B006460F4690461946E4
S315080042D0BDF82030099C8288C81A002808DB85B2F8
S315080042E0E5B1AA4209D3454500D34546B2880CE054
S315080042F0CD1A05EB4205ADB2F2E73046FFF791FE5F
S315080043000346B588EFE79B1A9BB29A42FBD94CB194
S3150800431000942A4639463046FFF7E8FE284602B09A
S31508004320BDE8F0812A4639463046FFF785FEF5E7AF
S3150800433030B583B00446B0F808C04589ADB20193DC
S3150800434000951FFA8CF3FFF7BCFF05466189024604
S3150800435089B2A088FFF758FE6081284603B030BDB1
S315080043602DE9F04383B09146002A5FD0044688467B
S315080043701F460689B6B2B0F80AC01FFA8CF18379CF
S31508004380CBB98588731A002B0EDB1FFA83FC6545AB
S3150800439051D9A5EB0C05ADB24D4528BF4D46002DAC
S315080043A045D0A28833462BE0A6EB010C0CEB450C56
S315080043B01FFA8CFCEBE78588954207D80FB10E46A5
S315080043C0EDE7A2EB0509C8440E46E8E7731A002B89
S315080043D00DDB9BB24B44B3EB450F0DDBA5EB090296
S315080043E092B22846FFF710FE06464D46D7E7731ADF
S315080043F003EB45039BB2EDE74D46D0E79B1A9BB20C
S315080044009A42FBD967B100972A4641462046FFF7EC
S31508004410F6FE2A463146A088FFF7F6FD208106E01B
S315080044202A4641462046FFF726FEF2E71546284665
S3150800443003B0BDE8F0830025F9E7000008B5C378A6
S315080044404BB90378053BC16803EBC303064A13441B
S315080044500A68C3F80520054A13680361002111603C
S3150800446003B1984708BD00BFC4020020D00200204F
S3150800447000B583B003460F496A4603C982E80300BC
S315080044809A60197805390C4A02EB01120432DA608F
S315080044900A4A1A61184601F065F910B103B05DF8C9
S315080044A004FB4FF0E023D3F8F03D13F0010FF5D0ED
S315080044B000BEF3E770C90008B4020020C945000829
S315080044C000B589B08E4681BB4FF0000C9DF81810D8
S315080044D06CF304018DF81810C9B24FF0010C6CF397
S315080044E046118DF81810C9B221F080018DF8181000
S315080044F08DF819C0ADF81A20ADF81CE00022ADF809
S315080045001E200092019202920392049205928DF85F
S31508004510000006AA029204930A9B0593684601F0D6
S3150800452021F928B109B05DF804FB4FF0030CCDE77B
S315080045304FF0E023D3F8F03D13F0010FF2D000BEA0
S31508004540F0E700B589B08C4689BB4FF0000E9DF8A0
S3150800455018106EF304018DF81810C9B24FF0010E49
S315080045606EF346118DF81810C9B221F080018DF846
S31508004570181003218DF81910ADF81A20ADF81CC0D3
S315080045800022ADF81E200092019202920392049234
S3150800459005928DF8000006AA029204930A9B0593D9
S315080045A0684601F0DFF828B109B05DF804FB4FF062
S315080045B0030ECCE74FF0E023D3F8F03D13F0010FDC
S315080045C0F2D000BEF0E70000C37843B14FF0E02315
S315080045D0D3F8F03D13F0010F1CD000BE704700B5AC
S315080045E083B00078431F0C4901EB031191F806C00C
S315080045F003EBC303094A134483F802C04A7ADA7004
S3150800460000230093064B08220121FFF79AFF03B007
S315080046105DF804FB704700BFB4020020C402002006
S315080046208948000810B588B00C4600293CD14FF0DF
S31508004630000C9DF818106CF304018DF81810C9B217
S315080046404FF0010C6CF346118DF81810C9B241F001
S3150800465080018DF8181000218DF81910ADF81A1080
S31508004660ADF81C404FF0040CADF81EC00091019146
S3150800467002910391049105918DF8000006A9029113
S31508004680039204930A9A05928CB105380A4A049251
S315080046900A4A02EB001262440392094A136068460A
S315080046A001F060F808B010BD4FF0030CC1E7044BE9
S315080046B000221A60F3E700BF3D440008B402002058
S315080046C0D0020020053800EBC000034B0344D3F8A2
S315080046D00530136001207047C4020020034B0022F6
S315080046E01A605A601A720120704700BFC40200207F
S315080046F0012070472DE9F04186B01D465379092BF4
S3150800470077D10E4614469379002B77D10F2D09D809
S315080047104FF0E023D3F8F03D13F0010F00D000BEB0
S31508004720002567E0A1F1050801A9304600F05AFC0A
S3150800473078B39DF80A30022B02D0234610252AE0CA
S315080047401F2D14D904F11003627C042A05D1627D59
S31508004750092A02D1E27D022A13D04FF0E023D3F8CA
S31508004760F03D13F0010F00D000BE002542E04FF0E7
S31508004770E023D3F8F03D13F0010F00D000BE00256A
S3150800478038E008EBC8011E4A0A44012111712025A8
S3150800479001E0234610251A789F187B78052B04D14B
S315080047A0FB7803F00303032B09D04FF0E023D3F87B
S315080047B0F03D13F0010F00D000BE00251AE039467F
S315080047C0304601F05DF850B1A1780D4B08EBC808EA
S315080047D003EB080203F80810BB7853700AE04FF0A1
S315080047E0E023D3F8F03D13F0010F00D000BE0025FA
S315080047F000E00025284606B0BDE8F0810025F9E767
S31508004800C4020020042806D9053800EBC000054A72
S315080048108318597801B970470021115059601972E7
S31508004820F9E700BFC402002070B582B00546441FF0
S3150800483004EBC402124B1344597800F095FC064663
S3150800484010B9304602B070BD04EBC4030C491944D4
S3150800485000230193009301230A4A02EB04124978C4
S31508004860284600F0CBFC06460028EAD104EBC4042F
S31508004870034B23445978284600F09EFCE1E700BF25
S31508004880C4020020B4020020C378C3B930B583B08F
S3150800489005786C1F8368998804EBC402174B134488
S315080048A09B78994214D0C9B2013100230093144B66
S315080048B00822C9B22846FFF744FE03B030BD4FF0C0
S315080048C0E023D3F8F03D13F0010F15D000BE704772
S315080048D02846FFF7A9FF38B94FF0E023D3F8F03D93
S315080048E013F0010F00D000BE04EBC404034B195D9E
S315080048F0284601F063F9E0E7704700BFC4020020CC
S3150800490089480008F0B587B00478C37803BB836884
S315080049109988CEB2651F4369022B30D0032B6FD01E
S31508004920012B40F08F80C368186803909DF80E30FD
S3150800493013F0010F1AD113F0020F00F0838004233D
S315080049400093484B012200212046FFF7B9FD78E085
S315080049502046FFF769FF002878D14FF0E023D3F807
S31508004960F03D13F0010F71D000BE6FE004230093F1
S315080049703C4B002211462046FFF7A2FD61E005EBFD
S31508004980C505394B2B44DB7913F0010F14D113F00D
S31508004990020F1AD113F0040F20D113F0080F26D1F5
S315080049A013F0100F4ED0042300932E4B14223146D9
S315080049B02046FFF785FD44E003230093294B102288
S315080049C031462046FFF77CFD3BE004230093254B48
S315080049D0112231462046FFF773FD32E00423009387
S315080049E0204B122231462046FFF76AFD29E00423B0
S315080049F000931C4B132231462046FFF761FD20E049
S31508004A000027039704970597204600F06BFC8DF85E
S31508004A100C0005EBC505144B2B445B7983F00103A9
S31508004A2003F001038DF80D308DF810408DF81160F4
S31508004A30394603A800F054FF9DF80D00B0FA80F03F
S31508004A40400918B92046FFF7EFFE08B107B0F0BDD8
S31508004A504FF0E023D3F8F03D13F0010FF6D000BE77
S31508004A60F4E700BF05490008C402002010B588B065
S31508004A70431F03EBC302184CA25C8A420AD04FF0CC
S31508004A80E023D3F8F03D13F0010F00D000BE00205C
S31508004A9008B010BD03EBC3030F4A13441B7983B157
S31508004AA0002300930D4B012201F054F80028EFD1A2
S31508004AB04FF0E023D3F8F03D13F0010FE8D000BE25
S31508004AC0E6E78DF8080000238DF80930079302A859
S31508004AD0FFF7CEFC0120DBE7C40200207144000882
S31508004AE010B582B0044672BBA0F1050C4FEA0C1350
S31508004AF01C4AD05C38B310F0010F0FD101210CEB22
S31508004B00CC02194B13449B788B421AD320FA01F333
S31508004B1013F0010F0DD10131C9B2F0E702EB0C1207
S31508004B2001230093114B043200212046FFF77AFD3A
S31508004B3008E0022300930D4B00222046FFF772FD82
S31508004B4000E0002018B92046FFF76EFE08B102B053
S31508004B5010BD4FF0E023D3F8F03D13F0010FF6D067
S31508004B6000BEF4E7B4020020C4020020054900088C
S31508004B704369C2781A70704700B589B086468C4674
S31508004B80134B06AA93E8030082E803000023009368
S31508004B90019302930393049305938DF800E08DF82F
S31508004BA003C00C4BD98A89B2019102929A68039282
S31508004BB0DA680492196905911B7D13B1054B00212A
S31508004BC019750AB16846904709B05DF804FB00BF3D
S31508004BD0DC0200205000002010B10520042304E068
S31508004BE00420002301E00133DBB298420DD903EB20
S31508004BF04302C2EB4211064A0A441032127912F0F5
S31508004C00010FF0D10133D8B270470020704700BFBA
S31508004C10B804002010B504465D22002107F052FEB4
S31508004C204FF0FF33C4F81530C4F819302022FF219D
S31508004C3004F11D0007F046FE10BD000008B520B1BE
S31508004C40044B187802F0DEFE08BD024B187802F015
S31508004C50DAFEF9E75000002008B5064BFF225A7025
S31508004C600022DA6108B9187900B908BDFFF7DCFD3A
S31508004C70FBE700BF500000202DE9F04F83B0074640
S31508004C80431EDBB2042B19D8431E03EB4303C3EBC5
S31508004C9043132F4E1E44B1F8028088440B78CC1873
S31508004CA0444550D2237804EB030BD8454BD3002B4D
S31508004CB049D06378042B03D05C46F1E70026EAE77F
S31508004CC0A8EB04091FFA89F9002516E0EB1ADBB2EE
S31508004CD0012B10D8C3EBC3031E4A02EB8303D3F898
S31508004CE00CB04B46224639463078D847834681452C
S31508004CF028BF082811D80135EDB2174B1B78AA46EC
S31508004D005A1CAA4215DBAB42E0D9144B1B68C5EB0B
S31508004D10C50213EB8203E2D1EDE701900094082364
S31508004D2006F1150206F11D01284603F043FAA344CD
S31508004D3000E0A346084B1B7802339A45BCD19BF882
S31508004D4000309B44B8E7012003B0BDE8F08F00BFF0
S31508004D50B8040020D0D60008D4020020D8020020CB
S31508004D607047012070477047034600201870704747
S31508004D70704770472DE9F04383B005460E4617463F
S31508004D8000238DF8043056E0131D6B44012203F806
S31508004D90042C7FE0A9EB0303DBB2012B07D8C3EB96
S31508004DA0C3034A4A02EB83039B692046984709F1E5
S31508004DB001095FFA89F9464B1B785A1C4A4509DBF3
S31508004DC04B45E7D9434B1B68C9EBC90213EB820372
S31508004DD0EAD1ECE72146284602F072FE3E4B5B7D9F
S31508004DE09C4207D03C4B5B789C420BD04046FFF771
S31508004DF011FF21E0384B1B7D002BF3D0364B0022E8
S31508004E001A75EFE7344BFF225A70DA69334B9A4228
S31508004E10ECD1314B0022DA61E8E700233BB903F114
S31508004E2008026A4412F8042CBABB0133F6E70123D8
S31508004E30002B47D19BB30024042CEED8224604EB62
S31508004E404403C3EB4313264903EB01080134E4B2D8
S31508004E5002EB4203C3EB4313CB5CAB42ECD14346B4
S31508004E6010331B7913F0010FE6D01EB198F8013004
S31508004E70B342E1D147B102EB4203C3EB43131849EE
S31508004E800B449B78BB42D7D1042C3FF67DAF204616
S31508004E90FFF76FFF4FF000098DE70023C8E703F11E
S31508004EA008026A4412F8042C12B90133DBB2C1E7CE
S31508004EB003F108026A44002102F8041C5E1DF6B2DA
S31508004EC01F46B8E703B0BDE8F08300BFD0D6000898
S31508004ED0D4020020D80200205000002055610008A6
S31508004EE0B804002008B5184B5B7823B90278164B2E
S31508004EF0DB789A4205D0427901790078FFF73AFFC4
S31508004F0008BD8188104A92889142F4D1002118463A
S31508004F1002F0D6FD0C4B5B7D73B10B4B5B78002B17
S31508004F20EED1094BFF225A70DA69084B9A42E7D14B
S31508004F30054B0022DA61E3E7034B1B7D002BECD01F
S31508004F40014B00221A75E8E7500000205561000859
S31508004F5038B50C4BDB694BB14FF0E023D3F8F03D85
S31508004F6013F0010F00D000BE002038BD0446054DE1
S31508004F70E9612A62FEF7BBFB204401306862012022
S31508004F80F3E700BF5000002008B50278054BDA7039
S31508004F9002791A7142795A71002203499620FFF75D
S31508004FA0D7FF08BD500000205561000870B1421EA9
S31508004FB0D2B2042A10D8431E03EB4303C3EB4313B0
S31508004FC0064A1344187D00F001007047044B5878D0
S31508004FD0B0FA80F04009704700207047B8040020F6
S31508004FE050000020431EDBB2042B0CD8013800EB1E
S31508004FF04000C0EB40100F4B0344002918BF002B9C
S3150800500003D1002070470023F7E700B512220A7083
S3150800501001204870D3F804E0D3F808C0DA681B69A1
S31508005020C1F802E0C1F806C0C1F80A20C1F80E307E
S315080050305DF804FBB8040020034B1B78834214BFB9
S3150800504000200120704700BF50000020024B18784E
S31508005050FF3818BF012070475000002070B505467C
S315080050600E46FFF7E9FF0446002865D1FFF7EEFF75
S3150800507088B1324B1D703146284602F04BFC044677
S31508005080002856D14FF0E023D3F8F03D13F0010F76
S3150800509052D000BE50E02A4C2046FFF709F8083CDB
S315080050A0284B1C60284C2046FFF702F8083C274B83
S315080050B01C602748FFF758FE264B186040F2D112AD
S315080050C00021254807F0FEFB1C4C2822002120461B
S315080050D007F0F8FBFF2323706370002409E004EB54
S315080050E04400C0EB40101C4B1844FFF793FD0134F5
S315080050F0E4B2042CF3D900240CE0E31ADBB2012B4A
S3150800510006D8C3EBC303154A02EB83035B689847CB
S315080051100134E4B20E4B1B785A1CA242A9DBA34207
S31508005120EBD90C4B1B68C4EBC40213EB8203EDD11D
S31508005130EEE7284602F066FC204670BD50000020C7
S3150800514094000020F403002080000020E4030020DF
S31508005150D4020020D8020020B8040020D0D60008C7
S3150800516000487047E402002008B5431EDBB2042B52
S315080051700AD8013800EB4000C0EB40100D4B18442C
S31508005180037D13F0010F09D14FF0E023D3F8F03D6A
S3150800519013F0010F00D000BE002008BD01F00F0378
S315080051A05B0003EBD113383318440021053002F0B5
S315080051B0D1FFF2E7B804002008B5431EDBB2042B82
S315080051C017D8013800EB4000C0EB40100A4B0344E7
S315080051D0187D10F0010000D108BD01F00F02520041
S315080051E002EBD112383298180021053002F0CFFFB1
S315080051F0F2E70020F0E700BFB80400202DE9F041EF
S3150800520082B0441EE4B2042C45D800F1FF3C0CEBF6
S315080052104C0CCCEB4C1E214F0EEB070401F00F058E
S31508005220CE0904EB450C0CEBD11C0CF1380C9CF8A0
S3150800523005C01CF0010F0BD04FF0E023D3F8F03D6A
S3150800524013F0010F00D000BE002002B0BDE8F081C7
S3150800525004EB450CB4449CF83D8048F001088CF8F2
S315080052603D80009313460A46014617F80E0002F0E1
S315080052708FFD0028E9D104EB4504344494F83D3009
S3150800528023F0010384F83D3094F83D3023F00403FD
S3150800529084F83D30D9E70020D7E700BFB8040020DE
S315080052A0431EDBB2042B09D8013800EB4000C0EBE3
S315080052B04010054B1B580B6001207047034BD3F871
S315080052C003300B60F8E700BFB80400205000002048
S315080052D000B583B001A9FFF7E3FF9DF8070003B007
S315080052E05DF804FB00B583B001A9FFF7D9FF9DF867
S315080052F0040003B05DF804FB10B582B00446002331
S315080053000093CDF8033007238DF8003005238DF878
S315080053100130ADF80410FFF7E5FF6A46214602F0B2
S31508005320FBFB02B010BD00002DE9F84305460C460C
S3150800533011F00F0817D0CF09431EDBB2042B45D84E
S31508005340431E03EB4303C3EB4313214803EB000956
S3150800535009EB48023A4492F83D6016F0010619D165
S315080053603046BDE8F883FFF7BDFF1A4B5B7DAB42BD
S3150800537028D1184B1B7D0BB90026F1E72246294692
S3150800538002F062FD134B1B7DF3B1124B00221A7516
S315080053900126E5E70A462946C05C02F055FD09EBF9
S315080053A048033B4493F83D2022F0010283F83D2050
S315080053B007EB4807383709EB07000021053002F0EC
S315080053C0E6FECDE70026CBE70126C9E70026C7E7B4
S315080053D0B8040020500000202DE9F04182B00646AE
S315080053E014461D46FFF77EFF012C0DD0022C03D074
S315080053F0002C36D0002004E021463046FFF7BCFBDF
S31508005400012002B0BDE8F0813046FFF7CFFD18B1A4
S315080054104E4B1B7E022B05D921463046FFF7ACFBC7
S315080054200120EEE7494A012111750B441376002342
S31508005430D3823046FFF756FF454A314602F08EFDC5
S315080054400028DED1414B1B7D13B1404B00221A7553
S315080054504FF0E023D3F8F03D13F0010FD1D000BE92
S31508005460CFE73A4B1B7DDBB2022B26D0032B45D068
S31508005470012B68D1364BDB88FBB1344A127DD2B298
S31508005480022A02D0314A02211175314A1278D2090C
S3150800549011D100932D4B9B682246314602F078FCC9
S315080054A00028AED14FF0E023D3F8F03D13F0010FFA
S315080054B0A7D000BEA5E78024EBE7ABB2234AD38288
S315080054C0137DDBB2032B02D0134603221A75204B39
S315080054D01B78DB0910D0002300932246314602F0E0
S315080054E057FC00288DD14FF0E023D3F8F03D13F098
S315080054F0010F86D000BE84E78024ECE7144B5B7866
