S31508000000805A002021020008290200082B02000855
S315080000102D0200082F020008310200080000000027
S315080000200000000000000000000000003302000885
S31508000030350200080000000037020008352C0008C9
S315080000403B0200083B0200083B0200083B0200088E
S315080000503B0200083B0200083B0200083B0200087E
S315080000603B0200083B0200083B0200083B0200086E
S315080000703B0200083B0200083B0200083B0200085E
S315080000803B0200083B0200083B0200083B0200084E
S315080000903B0200083B0200083B0200083B0200083E
S315080000A03B0200083B0200083B0200083B0200082E
S315080000B03B0200083B0200083B0200083B0200081E
S315080000C03B0200083B0200083B0200083B0200080E
S315080000D03B0200083B0200083B0200083B020008FE
S315080000E03B0200083B0200083B0200083B020008EE
S315080000F03B0200083B0200083B0200083B020008DE
S315080001003B0200083B0200083B0200083B020008CD
S315080001103B0200083B0200083B0200083B020008BD
S315080001203B0200083B0200083B0200083B020008AD
S315080001303B0200083B0200083B0200083B0200089D
S315080001403B0200083B0200083B0200083B0200088D
S315080001503B0200083B0200083B0200083B0200087D
S315080001603B0200083B0200083B0200083B0200086D
S315080001703B0200083B0200083B02000800000000A2
S315080001803B02000800F002F800F03AF80AA090E8EE
S31508000190000C82448344AAF10107DA4501D100F034
S315080001A02FF8AFF2090EBAE80F0013F0010F18BFC7
S315080001B0FB1A43F001031847D8770000F8770000C8
S315080001C0103A24BF78C878C1FAD8520724BF30C875
S315080001D030C144BF04680C60704700000023002447
S315080001E000250026103A28BF78C1FBD8520728BF39
S315080001F030C148BF0B6070471FB51FBD10B510BD95
S3150800020000F0BCF91146FFF7F7FF04F0CFFD00F048
S31508000210DAF903B4FFF7F2FF03BC00F0E1F90000D6
S315080002200948804709480047FEE7FEE7FEE7FEE77C
S31508000230FEE7FEE7FEE7FEE7FEE7FEE704480549B8
S31508000240054A064B70470000372C00088501000850
S3150800025080480020805A0020804A0020804A0020DA
S3150800026053EA020C00F069802DE9F04B4FF00006C6
S31508000270002B1FBFB3FA83F503FA05F424FA05F633
S315080002805E4012BF1643B2FA82F502FA05F4C5F1CA
S3150800029020051EBF22FA05FC44EA0C04203556EA5E
S315080002A0044C4FEA144418BF641C4FF000084FF082
S315080002B00009904271EB030C39D3002919BFB1FA32
S315080002C081F701FA07F6B0FA80F700FA07F6C7F1E0
S315080002D020071EBF20FA07FC46EA0C062037B6FBA5
S315080002E0F4FCA7EB0507103F07F01F0BCBF1200620
S315080002F02CFA06F60CFA0BFB44BFB3460026202F51
S31508000300A4BF5E464FF0000B5BEA060C08BF4FF031
S31508000310010B19EB0B0948EB0608ABFB027C06FB45
S3150800032002CC0BFB03CCC01B71EB0C01C1E70B46DF
S31508000330024641464846BDE8F08B13B5084318BF48
S315080003404FF0FF300146AFF30080BDE81C40704710
S3150800035040EA010310B59B070FD1042A0DD310C834
S3150800036008C9121F9C42F8D020BA19BA884201D986
S31508000370012010BD4FF0FF3010BD1AB1D30703D0CE
S31508000380521C07E0002010BD10F8013B11F8014B84
S315080003901B1B07D110F8013B11F8014B1B1B01D1A0
S315080003A0921EF1D1184610BD10B5431C02E010F894
S315080003B0011B71B18107FAD14FF0013202C88C1ABC
S315080003C08C4314EAC211F9D0C01A0A0603D0C01E1B
S315080003D010BDC01A10BD0A0401D0801E10BD090246
S315080003E0FCD0401E10BD032A40F2308010F0030CEA
S315080003F000F0158011F8013BBCF1020F624498BF6A
S3150800040011F801CB00F8013B38BF11F8013BA2F106
S31508000410040298BF00F801CB38BF00F8013B11F081
S31508000420030300F07980083AC0F0088051F8043BCD
S31508000430083A51F804CBA0E80810F5E7121D5CBF8E
S3150800044051F8043B40F8043BAFF30080D20724BFC1
S3150800045011F8013B11F801CB48BF11F8012B24BF55
S3150800046000F8013B00F801CB48BF00F8012B7047A4
S3150800047002F0FF0343EA032242EA024200F024B8EC
S315080004804FF000020429C0F0128010F0030C00F0AF
S315080004901B80CCF1040CBCF1020F18BF00F8012B2D
S315080004A0A8BF20F8022BA1EB0C0100F00DB85FEAFB
S315080004B0C17C24BF00F8012B00F8012B48BF00F8C7
S315080004C0012B70474FF0000200B513469446964636
S315080004D0203922BFA0E80C50A0E80C50B1F1200149
S315080004E0BFF4F7AF090728BFA0E80C5048BF0CC0F7
S315080004F05DF804EB890028BF40F8042B08BF704755
S3150800050048BF20F8022B11F0804F18BF00F8012BC6
S31508000510704770477047704710B5203AC0F00B8097
S31508000520B1E81850A0E81850B1E81850A0E81850DB
S31508000530203ABFF4F5AF5FEA027C24BFB1E8185051
S31508000540A0E8185044BF18C918C0BDE810405FEAB3
S31508000550827C24BF51F8043B40F8043B08BF70472F
S31508000560D20728BF31F8023B48BF11F8012B28BF34
S3150800057020F8023B48BF00F8012B7047754600F08B
S315080005802BF8AE4605006946534620F00700854617
S3150800059018B020B5FFF752FEBDE820404FF0000620
S315080005A04FF000074FF000084FF0000BAC46ACE8E0
S315080005B0C009ACE8C009ACE8C009ACE8C00921F03C
S315080005C007018D46704710B50446AFF300802046F4
S315080005D0BDE81040FFF71DBE0048704788000020A0
S315080005E001491820ABBEFEE726000200704700004E
S315080005F000F017F9FCE710B500F0A4F8012818D0A8
S3150800060043F22464C2F200042078012818BF10BD02
S3150800061002F012FB43F2206143F22862C2F20001A3
S31508000620C2F2000209681268114401F5FA7188429B
S3150800063000D210BD00202070BDE8104000F00CB9B3
S3150800064043F22060C2F200000068704780B543F2AA
S315080006502460C2F200000121017002F0EDFA43F2B3
S315080006602861C2F200010860BDE88040FFF7C3BFF9
S3150800067080B543F22460C2F200000078012818BF52
S3150800068080BD02F0D9FA43F22861C2F2000108607F
S3150800069080BD43F22061C2F200010860704780B550
S315080006A000F0C3F800F0B8F802F0F2FA02F06FF9B9
S315080006B000F038F8BDE88040FFF7C8BF80B500F005
S315080006C0B0F802F051FB00F044F8BDE88040FFF7AF
S315080006D092BF80B502F03CF840F25500C2F2000025
S315080006E004210170BDE88040FFF7C2BF02F065BB78
S315080006F040F25500C2F2000001788120022908BFA5
S315080007000820032908BF3F20704740F25500C2F26F
S31508000710000001788120022908BF0820032908BFA4
S315080007203F20704710B502F029FC02F065F940F247
S315080007305504C2F200040020207002F04CFB03208E
S31508000740207010BD80B502F025FC002818BF0120D6
S3150800075080BD10B582B040F2EC00C2F200000DF187
S31508000760070102F069F940F255040128C2F20004B3
S3150800077009D100209DF80710207040F2EC00C2F263
S31508000780000002F011FC40F2EC00C2F200000DF18C
S31508000790070102F068FB012809D103209DF807101C
S315080007A0207040F2EC00C2F2000002F0FDFB40F2BD
S315080007B0EC00C2F200000DF1070102F02DF8012845
S315080007C009D104209DF80710207040F2EC00C2F20F
S315080007D0000002F0E9FB02B010BD70B540F2550604
S315080007E0C2F2000632780D46044622B9E9B220461E
S315080007F002F098F93278032A04D1E9B2204602F0C9
S315080008008AFB3278042A03D1E9B2204602F088F836
S31508000810BDE8704002F0E1BCAFF30080642001F04F
S315080008201ABFAFF3008001F01CBFAFF3008072B6A9
S31508000830704762B67047000070B562B114460D463F
S31508000840064600BF15F8010B013C06F8010BFFF739
S31508000850E8FF2004F6D170BD10B502F09AF8D0B1C1
S3150800086000F01DF8B8B1FFF741FF00F027FB02F0D2
S315080008705BFA02F08AF84FF68071C1F6FF710840FC
S315080008804EF60851CEF20001086002F07EF8446880
S31508000890FFF7CFFFA047BDE81040FFF71ABF80B5A6
S315080008A040F60000C4F202004FF4005101F04FF97F
S315080008B0012804BF002080BD01F0C5FE012080BDCF
S315080008C070B5044631B14FF4006C4FF4804EC4E95C
S315080008D002EC01E0D4E902EC2268E369106848F208
S315080008E00F11CFF6207108404FF40071002B08BF96
S315080008F04FF4C06141EA0E01084340EA0C0010605B
S315080009001568012000F0F0FA206840210560416072
S315080009104568012000F0E8FA20684FF64172456004
S3150800092000258560C56081691140803181618669CD
S31508000930012000F0D9FA20688661C561C5690120E1
S3150800094000F0D2FA206841F21801C561425843F610
S315080009502373CFF6DE031A4042F0087242F004020F
S3150800096042504558012000F0BFFA206800F5805132
S315080009708D6142F280014FF48055C0F2C121415188
S315080009804659012000F0B0FAA169206801294651AC
S3150800099007D100F58050C16941F4803141F040012A
S315080009A0C161606948F240028188C4F2020211609E
S315080009B00068506070BD80B543F61043C4F2020368
S315080009C0D3F800C04FF4407E2CF440721A601A68BF
S315080009D0032938BF4FEA012E42EA0E011960196849
S315080009E021F0F8011960196841EAC00040F00200D8
S315080009F01860186840F48030186080BD43F60040DF
S31508000A00C4F20200016889050FD5016821F4007156
S31508000A100160016841F400610160016821F4006128
S31508000A200160016841F4007101600168490558BF19
S31508000A307047016821F480610160016841F48051C2
S31508000A400160016821F480510160016841F4806108
S31508000A500160704743F60C40C4F202000168C906FB
S31508000A6043F6A021C2F2000105D5CA6942F0080280
S31508000A70CA61102202600268920605D5CA6942F068
S31508000A800402CA61202202600268520605D5CA69B4
S31508000A9042F00202CA61402202600268120605D5C7
S31508000AA0CA6942F00102CA6180220260026892079E
S31508000AB058BF7047CA6942F01002CA610221016034
S31508000AC070470000F0B581B0044643F6A02043F60F
S31508000AD00C46C2F200000021C4F20206C16101F010
S31508000AE040F83168C9030CD43068C0071CBF012020
S31508000AF03060306810F0F20F09D0FFF7ABFF012025
S31508000B0006E00546671C05D04CB9032000E0002026
S31508000B1001B0F0BD3068C003E6D5002FFAD001F069
S31508000B2020F8401BA042F5D9EFE700002DE9F04177
S31508000B3006460068884640F2FF111C461546421CC8
S31508000B4028EA010707D1301D39464FF4007237608D
S31508000B50FFF772FE3068B84206D03046394600F0D4
S31508000B60EAF8F0B107680646A8EB07003044071D07
S31508000B70FFF757FEB81B0438B0F5007F08D3306876
S31508000B8000F50071304600F0D6F850B10646071D4C
S31508000B9015F8010B013C07F8010BE9D10120BDE866
S31508000BA0F0810020BDE8F08180B543F63000C2F23E
S31508000BB000000068013006D043F63000C2F200009B
S31508000BC000F030F978B143F22C60C2F200000068F8
S31508000BD0013006D043F22C60C2F2000000F022F980
S31508000BE008B1012080BD002080BD00002DE9F04F2E
S31508000BF087B004464FF6FF70C0F60F004E1E001B66
S31508000C00864202D94FF0000B65E0204600F068F8EE
S31508000C100546301900F064F8FF2D4FF0000B5AD046
S31508000C200646FF2857D0B5424FF000004FF00001A6
S31508000C3098BF0120012D88BF012100220C2E38BF44
S31508000C40012211404FF0000B0840CDF804B042D005
S31508000C500090022006900120CDF808B0059000F01B
S31508000C60EAFD47F6BC07C0F6000700BFECB2002055
S31508000C7039180A7AA2420BD00C307828F8D1FFF737
S31508000C80D0FD02A801A9049400F0DEFCC0B11EE064
S31508000C904968BBEB910F13D057F800804FEA9109CA
S31508000CA04FF0000A5FEA0A6008BFFFF7BAFD58F876
S31508000CB02A000130E3D10AF1010AD145F2D100BF79
S31508000CC00135E8B2B042D1D9DDF800B001E04FF005
S31508000CD0000B00F022FD584607B0BDE8F08F000073
S31508000CE070B547F6BC0604460025C0F6000600BFE8
S31508000CF0FFF797FD7059A04204D871194A68104445
S31508000D00A04204D80C35782DF2D1FF2070BD087AA0
S31508000D1070BD48F20000C0F60000704743F22C6030
S31508000D20C2F200004FF0FF31016043F63000C2F214
S31508000D30000001607047B0B5044643F63000C2F2C1
S31508000D40000084420D460AD048F20000C0F60000B2
S31508000D50854209D143F63004C2F200040CE043F29E
S31508000D602C64C2F2000403E0204600F05BF808B1E8
S31508000D70E80501D000240AE02068A84207D02046EA
S31508000D8040F8045B29464FF40072FFF755FD2046EC
S31508000D90B0BDB0B548F20000C0F60000D0E900C208
S31508000DA0D0E902316244D0E904E41A441144856961
S31508000DB071442144D0F8840129440844B0FA80F0EB
S31508000DC04009B0BDF0B581B005464FF6FF70C0F6D4
S31508000DD00F004F1E401B874221D828460C46164650
S31508000DE0FFF77EFFFF281AD07819FFF779FFFF284B
S31508000DF015D04020C0F20400B0EB552F07BF43F6CC
S31508000E003000C2F2000043F22C60C2F2000029460C
S31508000E103246234601B0BDE8F040FFF787BE002002
S31508000E2001B0F0BD2DE9F04381B0814600F003FD25
S31508000E3009F1040800240025D9F8000058F80460D0
S31508000E402718FFF7EEFC022039463246002300F049
S31508000E506EFC48B93868B04205D10434B4F5007F51
S31508000E60EAD1012500E0002500F057FC284601B02C
S31508000E70BDE8F08310B582B043F63000C2F2000038
S31508000E800168013117D0D0E901C2D0E903316244C3
S31508000E90D0E905E41A441144C06971442144084460
S31508000EA04042019048F28410C0F6000001AA0421CD
S31508000EB0FFF788FF00E0012002B010BD80B543F6B9
S31508000EC01000C4F202004FF0FF31002201610261F6
S31508000ED041614261016002604160426081608260F6
S31508000EE000F0AEFE002080BDB0B5044600F039FE25
S31508000EF0054640F28100C2F200000078611C18BF66
S31508000F00044400BF00F02DFE401BA042FAD3B0BD3A
S31508000F102DE9F04390F845704FF0020C012F34D0BC
S31508000F2080F844C081622BB3D0F818C0A3F1010E33
S31508000F3001F1080401F1200500264FF0004844F2AB
S31508000F40F45900BFBCF1010F44F8088C44F8049C1E
S31508000F50226008BF44F8049C76450F4606F1010650
S31508000F6038BF2F466760203402F2F452B34205F1C7
S31508000F702005E7D1026841F20C03D15001214FF058
S31508000F80000C80F8441080F845C06046BDE8F08340
S31508000F902DE9F04190F845704FF0020C012F34D03E
S31508000FA080F844C0C1622BB3D0F81CC0A3F1010E6F
S31508000FB001F1080401F1200500264FF4801800BF4E
S31508000FC0BCF1000F44F8088C226005D154F8087C5F
S31508000FD047F4400744F8087C76450F4606F10106B3
S31508000FE038BF2F466760203402F2F452B34205F147
S31508000FF02005E5D1026841F21003D15001214FF0D6
S31508001000000C80F8441080F845C06046BDE8F081C1
S3150800101090F8451001294FF0020132D080F84410AB
S31508001020836A4FF0010C196800290AD41968C905A2
S3150800103009D41968890518D4816B013181630121A6
S3150800104018E0012118E0816B4A1C8263002906BF5B
S3150800105003631946016B43631A688968C2F30D4234
S31508001060043AC0E90F21002104E000220121C0E969
S315080010700C328163DA688262002280F844C080F804
S315080010804520084670470000F0B583B004460020A6
S31508001090002C02903FD094F8440028B9002084F828
S315080010A04500204600F0E9F80020019043F6440088
S315080010B0C4F2020001684FF4805641F48041016091
S315080010C0006800F480400190019843F60400C4F2D9
S315080010D00100016821F4000101602168226A0368A1
S315080010E01A430260885940F00100885100F039FD22
S315080010F0054600BF20688159C9070ED000F031FDAA
S31508001100401BB0F5FA7FF5D90325002084F8445032
S3150800111084F845003FE001253DE0006920F01C0504
S3150800112000F0EEFF4DF20031CFF6CE614EF2BF125F
S315080011300144C0F2E402914202D845F008051AE0DB
S315080011404FF24011CFF6E95147F63F020144C0F28B
S315080011507D12914202D845F00C050CE047F60011C5
S31508001160CFF66C41084445F60021C0F26221884258
S3150800117028BF45F0040520680021056120464FF484
S31508001180004200F02BFA48B1204601210125FFF75D
S3150800119097FB84F84450284603B0F0BDFF20FFF7BC
S315080011A0A3FE606800284FD000F0DBFC054602AEBF
S315080011B041F2893720460121324600F0EFF800F067
S315080011C0D0FC401BB84233D29DF808004007F1D541
S315080011D0204600214FF4805200F000FA0028D3D1AF
S315080011E000F0BFFC054602AE41F2893720460121D0
S315080011F0324600F0D3F800F0B4FC401BB84217D2D0
S315080012009DF808008006F1D502AA2046102100F0B4
S31508001210C5F80028B8D102984FF4006101EA4021C8
S315080012208007E16054BF4FF480400020A0601BE0B7
S31508001230204601210125FFF743FB002084F844508E
S3150800124084F845000325A6E7D4E90201400840EAE8
S31508001250D10082B22046002100F0C0F9002893D1BF
S3150800126040F6FF70FFF740FE204600210025FFF7F5
S3150800127027FB012084F844008DE72DE9F04385B06B
S31508001280006848F20001C4F20201884240F08280F8
S31508001290002643F630000096C4F2020001680024D6
S315080012A041F0007101600168C4F2020401F00071A6
S315080012B000910099009601686D4641F080610160D1
S315080012C001684FF0020801F08061009100990096CC
S315080012D001684FF0030941F00061016001680B27BE
S315080012E001F00061009100990096016841F004013F
S315080012F00160016801F004010091009900960168F7
S3150800130041F001010160016801F0010100910099B5
S315080013100096016841F002010160016801F00201CE
S31508001320009100990096016841F04001016000684B
S31508001330294600F04000009000983220009004F5FD
S315080013400060CDE90186CDF80C90049700F012FBF9
S315080013508620CDE9000820462946CDE9026904978A
S3150800136000F008FB4FF40050CDE9000804F5806052
S315080013702946CDE90269049700F0FCFA4FF420509B
S31508001380CDE9000804F5C0502946CDE9026904975D
S3150800139000F0F0FA05B0BDE8F083000070B5044629
S315080013A090F84400822804BF022070BD822084F889
S315080013B04400206815460269238A02F01C0203F0DD
S315080013C01F0361F38A1242EAC3210131016100F069
S315080013D0C8FB064600F0C5FB801BB0F5803F0BD264
S315080013E020680169C907F5D1406980B228600120E3
S315080013F084F84400002070BD012084F844000020D1
S3150800140084F84500032070BD80B582B090F8451079
S3150800141001294FF0020166D0012280F8452080F8A4
S31508001420441000210091016840F2400C0A68C2F29B
S31508001430000C42F008020A60096844F6D35E00917F
S31508001440DCF80030C1F2620EA3FB0E31490A0191A5
S3150800145000BF01994B1E00290193F9D10099036831
S31508001460196000210091196841F004011960196892
S315080014700091DCF80010A1FB0E13590A019100BF78
S3150800148000BF01994B1E00290193F9D10099036801
S3150800149019600021009141F218015A5842F480124D
S315080014A05A5059580091DCF80010A1FB0E12510A47
S315080014B0019100BF00BF01994A1E00290192F9D186
S315080014C00099026841F21803D150D15841F40051ED
S315080014D0D150D15841F00201D150012180F8441071
S315080014E0002180F84510084602B080BD70B590F816
S315080014F04520012A4FF002026DD080F8442031B30E
S31508001500C26A1368002B25D440F2F553994211D3C9
S315080015104BF20B03CAF60243A1FB0335AE0A40F2AF
S31508001520F45C06FB1C14002C18BF012404EB95255B
S31508001530012D12D113686FF35F3143F04053D5681C
S3150800154013605160116841F0004111602EE00121DD
S3150800155001223BE00122122138E04FF60C23CFF698
S31508001560FF7305FB0311331901F2F45E6FF35F3E57
S31508001570591E0024156825F0405515601CB91568D4
S3150800158045F080551560A142C2F804C005D115681A
S3150800159045F000551560C2F804E01668D56846F0AF
S315080015A0004601341660A3422A46E3D10168C562A3
S315080015B041F214028A5852074FF0000205D541F24B
S315080015C00403194404230B610A60012180F84410BE
S315080015D0002180F84510104670BD0000B0B50446DD
S315080015E090F84400422804BF0220B0BD422084F887
S315080015F04400206892B20369258A03F01C0305F0AB
S315080016001F0561F38A1343EAC5210331426101616B
S3150800161000F0A7FA054600BF00F0A3FA401BB0F594
S31508001620803F08D220680069C007F5D1012084F8F8
S3150800163044000020B0BD012084F84400002084F84E
S3150800164045000320B0BD00002DE9F04381B043F604
S31508001650A028C2F2000898F81820012A01D102260B
S3150800166057E00546012088F818004CF250308946A4
S31508001670FFF728FA0646002848D14FF0FF30C9F888
S315080016800000286801281DD143F61044C4F202045C
S3150800169028692168000221F440712160216880B21E
S315080016A041F0040121602168084340F4803020603D
S315080016B04CF25030FFF706FA2168064621F004007E
S315080016C0206021E0D5E902703844874218D243F6F3
S315080016D01044C4F2020400BF297C3846FFF76BF9B0
S315080016E04CF25030FFF7EEF92168064621F0FA0071
S315080016F020603EB9D5E90201013708448742EBD399
S31508001700002601E0C9F80070FFF778F9002088F88C
S315080017101800304601B0BDE8F08343F61041C4F224
S315080017200201086840F0004200200A6070472DE96F
S31508001730F04381B043F6A024C2F200049046227E0C
S31508001740012A01D1022073E00746012020764CF2D7
S3150800175050301E460D46FFF7B5F9002866D143F608
S315080017601049022FC4F2020915D0012F28D0E7BB71
S31508001770D9F8000020F44070C9F80000D9F8000034
S31508001780C9F80000D9F8000040F00100C9F80000C7
S3150800179085F8008040E0D9F8000020F44070C9F8C8
S315080017A00000D9F8000040F40070C9F80000D9F824
S315080017B0000040F00100C9F80000C5F800802BE0E1
S315080017C0D9F8000020F44070C9F80000D9F80000E4
S315080017D040F48070C9F80000D9F8000040F0010014
S315080017E0C9F80000A5F8008016E0D9F8000020F432
S315080017F04070C9F80000D9F8000040F44070C9F8F4
S315080018000000D9F8000040F00100C9F80000C5F84A
S315080018100080BFF36F8F6E604CF25030FFF752F9BD
S31508001820D9F8001021F00101C9F80010002121762D
S3150800183001B0BDE8F08343F60440C4F20200C16873
S31508001840B1F1FF3FC4BF0020704740F22311C4F234
S315080018506751016048F6AB11CCF6EF510160C068DC
S31508001860C00F70472DE9F04F82B000297ED000F1F5
S315080018703E4242F2000602F1FF72C4F202064FEA45
S31508001880B2270923B04208BF0823082F4FF00004E7
S315080018904FF000064FF0010738BF4FEAB223009316
S315080018A0019100BF7A1E012303FA02FE1EEA01080F
S315080018B053D043F60041C4F201014FEA920CA1F558
S315080018C07E790F2359F82CA006F00C0B009D03FA1D
S315080018D00BF10AEA010305FA0BF5AB421FD143F6F1
S315080018E00045C4F201052B6843F60C4A23EA0803AF
S315080018F02B606B68C4F2010A23EA08036B60DAF806
S31508001900003023EA0803CAF80030AB6823EA080364
S31508001910AB6059F82C3023EA010149F82C1001680C
S315080019200323A3406FF00305994305EA52020160B9
S31508001930024406F01C0C156A0F2101FA0CF125EA7F
S3150800194001011162C1689943C160416821EA0E012B
S315080019504160816899438160019931FA07F207F17C
S31508001960010706F1040604F102049BD102B0BDE8A2
S31508001970F08F00002DE9F04F84B00E68002E00F0BD
S31508001980E38000F13E4242F2000502F1FF72C4F222
S3150800199002058E464FEAB2270921A84208BF082148
S315080019A0082F4FF000054FF001074FF000084FF0E1
S315080019B0000938BF4FEAB2210091CDF808E000BF10
S315080019C0A7F1010B012101FA0BF216EA020A00F04F
S315080019D0AD80DEF804C00CF00306741E012C19D87D
S315080019E08368714601930323CC68019903FA08F3C7
S315080019F0994304FA08F42143816041684FEA490E85
S31508001A009143CCF3001202FA0BF27446DB431143FE
S31508001A1041600BE0032101FA08F1CB43032E44464B
S31508001A2004D1DDF808E04446032627E0C168DDF85E
S31508001A3008E01940DEF80820022E02FA04F241EA0C
S31508001A400201C1601AD16FF0030101EA5B0101448A
S31508001A5005F01C060F22D1F820C0A64602FA06F4A5
S31508001A60029A2CEA04041269B24022437446DDF84D
S31508001A7008E00A62DEF804C00CF00306016806FAFC
S31508001A8004F2194011431CF4403F01604ED0002176
S31508001A9043F644020391C4F20202116843F6004475
S31508001AA041F4804111601168C4F2010401F48041D7
S31508001AB0039103992BF003014FF6084C2144CFF606
S31508001AC0FF7C51F80C2005F00C030F269E40B2430C
S31508001AD0009E06FA03F31A4341F80C20A168DEF8C3
S31508001AE0042041EA0A0343F60C4CD60258BF21EA01
S31508001AF00A03A360C4F2010CDCF80010960241EA5E
S31508001B000A0358BF21EA0A03CCF800306168960335
S31508001B1041EA0A0358BF21EA0A0363602168D2032F
S31508001B2041EA0A0358BF21EA0A032360DEF8006087
S31508001B3009F1010936FA07F108F1020807F1010768
S31508001B4005F104057FF43CAF04B0BDE8F08F0069E9
S31508001B50084018BF01207047002A08BF09048161A0
S31508001B60704780B5242043F6342EC4F20100C2F231
S31508001B70000E0068BEF80020801A80B2632816D9C5
S31508001B8048F21F53C5F2EB1343F6982CA0FB030348
S31508001B90C2F2000CDCF80000590900EB531064236C
S31508001BA001FB0321CCF80000AEF8001080BD43F617
S31508001BB09820C2F20000006880BD80B543F6004058
S31508001BC0C4F20200016841F400710160016841F441
S31508001BD080610160016841F480710160032000F0B2
S31508001BE055F9002000F004F800F080F8002080BDC8
S31508001BF0B0B540F28102C2F2000240F2400112780A
S31508001C00C2F200014FF47A730968B3FBF2F2044694
S31508001C10B1FBF2F1084600F039FC0F2C4FF0010534
S31508001C200CD858B94FF0FF3021460022002500F0A5
S31508001C3002F940F28400C2F2000004602846B0BDF2
S31508001C40B0B500F0DDF90024C4F2020404F580659D
S31508001C50284680210022FFF77FFF28468021FFF7CC
S31508001C6001FE04F500604FF40051FFF7FBFD204626
S31508001C704FF40061FFF7F6FD20464FF48051FFF759
S31508001C80F1FD43F63005C4F20205686804F54064C0
S31508001C9020F08000686020464FF48071FFF7E2FD6F
S31508001CA020464FF40071FFF7DDFD286920F48020F7
S31508001CB02861286820F040002860286820F008007D
S31508001CC02860286820F004002860286820F00200B0
S31508001CD02860286820F001002860286920F08050D4
S31508001CE02861686920F480406861B0BD2DE9F04339
S31508001CF087B0002443F630070294C4F20207386915
S31508001D0040F2000840F0805038613869C4F2020891
S31508001D1000F08050029002980294786908F580666F
S31508001D2040F48040786178690DF1080900F4804034
S31508001D300290029802943868494640F001003860DB
S31508001D40386800F00100029002980294386840F062
S31508001D5002003860386800F0020002900298029487
S31508001D60386840F004003860386800F004000290D3
S31508001D7002980294386840F008003860386800F025
S31508001D800800029002980294386840F040003860D3
S31508001D90386800F04000029002980294386940F4CE
S31508001DA080203861386900F48020029002988020EB
S31508001DB002900120CDE9030430460594FFF7DAFDC9
S31508001DC0304680210022FFF7C7FE4FF40050CDE9C8
S31508001DD0020408F5006049460494FFF7CBFD4FF46A
S31508001DE040700290072002260325069008F54060F9
S31508001DF04946CDE903640595FFF7BCFD4FF4C0508D
S31508001E00CDE902060A20069040464946CDE9044532
S31508001E10FFF7B0FD786840F0800078600194786933
S31508001E2040F480407861786900F480400190019818
S31508001E3007B0BDE8F08310B54EF60C5CCEF2000C88
S31508001E40DCF80030C3F3022E8EF00704042C28BFFA
S31508001E500424BEF103034FF0FF3E0EFA04F438BF24
S31508001E600023A14399400EFA03F39A4300F00F03A7
S31508001E70043B1143634409010C3300F16042B0F19D
S31508001E80FF3FC8BF02F56443197010BD4EF60C51EA
S31508001E90CEF200010A684FF6FF031A4060F30A22E1
S31508001EA042F0806040F0FD700860704770477047E8
S31508001EB02DE9F041002879D043F60008C4F202085B
S31508001EC00446D8F800040D4600F00F00884207D2F1
S31508001ED088F80054D8F8000400F00F00A84265D12D
S31508001EE02068810717D5410705D5D8F8081041F4A9
S31508001EF0E051C8F80810010705D5D8F8081041F4CC
S31508001F006041C8F80810D8F80810A26821F0F00156
S31508001F101143C8F80810C0073FD1D8F8000400F0EC
S31508001F200F00A84207D988F80054D8F8000400F032
S31508001F300F00A8423AD12068410707D5D8F80810FB
S31508001F40E26821F4E0511143C8F80810000708D5E3
S31508001F50D8F80800216920F4604040EAC100C8F8B2
S31508001F60080000F0D3F8D8F8081047F26C72C1F3ED
S31508001F700311C0F60002515C40F2400220FA01F15A
S31508001F8040F28400C2F200000068C2F2000211604A
S31508001F90FFF72EFE0020BDE8F0816068022808D011
S31508001FA0012827D1D8F80010890306D40120BDE8F6
S31508001FB0F081D8F800108901F8D5D8F8081021F072
S31508001FC003010843C8F80800FFF7CBFD064641F2AF
S31508001FD0883700BFD8F80800616800F00C00B0EB3D
S31508001FE0810F9AD0FFF7BDFD801BB842F2D90320B6
S31508001FF0BDE8F081D8F800108907D7D5DDE70000DD
S31508002000F0B581B043F60006C4F20206FFF7A9FD53
S315080020103168044641F00100306000BF306880072F
S3150800202005D4FFF79EFD001B0228F7D946E0306865
S3150800203040F080003060FFF794FD0546002041F22D
S315080020408837B060B468FFF78CFD14F00C0F0446AF
S3150800205003D0601BB842F5D930E0306820F4502030
S31508002060306000BF3568FFF77CFDA903054603D538
S31508002070281B6428F6D921E0306820F0807030608B
S315080020803068800105D5FFF76CFD401B6428F7D939
S3150800209014E043F21000C0F200407060FFF761FDE3
S315080020A03168044621F08060306000BF3068000166
S315080020B007D5FFF756FD001B0228F7D9032001B004
S315080020C0F0BD43F20000C2F20000C6F8840000200A
S315080020D0F0604FF0FF30706740F28400C2F20000F3
S315080020E040F24001006842F20042C2F20001C0F22A
S315080020F0F4020A60FFF77CFD002818BF0120DEE71E
S3150800210040F24000C2F200000068704710B543F67E
S315080021100404C4F20204606800F00C0142F20040B4
S315080021200829C0F2F40007D0042918BF10BD41F2EF
S315080021300020C0F27A0010BD216801F03F02216834
S3150800214023684902C3F3881105D4A1FB00010023C3
S31508002150FEF786F806E041F20020C0F27A0048430E
S31508002160B0FBF2F021680222C1F3014102EB410102
S31508002170B0FBF1F010BD00002DE9F04182B0002857
S3150800218000F08D800446007843F60006C007C4F2C6
S31508002190020630D0B06800F00C00042805D130687B
S315080021A0800328D5606830BB79E0B06800F00C0081
S315080021B0082802D170684002F1D46068B07065687A
S315080021C0FFF7CFFC002D054612D000BF306880030C
S315080021D011D4FFF7C6FC401B6428F7D9EFE000BF0F
S315080021E0FFF7BFFC401B64284FF0030000F2E880AD
S315080021F030688003F4D4207880071AD5B06810F0C8
S315080022000C0F09D0B06800F00C00082840F089804F
S315080022107068400200F185803068800702D5E06862
S3150800222001283CD13068216920F0F80040EAC10055
S3150800223030602078000734D42078400747D4A56951
S315080022405DB3B06800F00C00082840F0BC80012D92
S3150800225025D07068E16900F480028A421FD1216A9C
S3150800226000F03F028A421AD147F6C071626A0140FD
S31508002270B1EB821F13D1A26A0023CFF6FF7303EBDB
S31508002280C23200F440316FF30F02914207D1E16A7E
S3150800229000F07060B0EB016F01D1002090E00120E2
S315080022A08EE06069002840F20000C4F2472076D02C
S315080022B00121C0F8801EFFF754FC0546706F8007A1
S315080022C0BAD4FFF74EFC401B0228F7D977E0306CEA
S315080022D010F080580AD100200190306C40F08050F0
S315080022E03064306C00F080500190019847F2000786
S315080022F0C4F20007386840F4807038603868C00552
S3150800230024D4386840F480703860FFF72AFC054604
S315080023103868C0051AD4FFF724FC401B0228F7D9F1
S315080023204DE0E068002871D00020C4F24720012162
S315080023300160FFF716FC0546306880073FF572AF67
S31508002340FFF70FFC401B0228F6D938E0A06886F88C
S315080023507000A568FFF705FC002D054641F2883791
S3150800236011D000BF306F800710D4FFF7FAFB401B6F
S31508002370B842F7D923E000BFFFF7F3FB401BB8428A
S315080023804FF003001CD8306F8007F5D4B8F1000F62
S315080023907FF455AF306C20F0805030644FE7002151
S315080023A0C0F8801EFFF7DDFB054600BF706F80078B
S315080023B07FF542AFFFF7D5FB401B0228F6D903206D
S315080023C002B0BDE8F0810027C4F24727002038662E
S315080023D0FFF7C7FB022D05460CD100BF3068800108
S315080023E028D5FFF7BEFB401B64284FF00300F5D93C
S315080023F0E6E700BF306880017FF54FAFFFF7B1FB16
S31508002400401B64284FF00300F4D9D9E70020C4F232
S31508002410472000210160FFF7A4FB054630688007C6
S315080024207FF507AFFFF79DFB401B02284FF003001F
S31508002430F4D9C5E7706848F20001CFF2BC0104F18F
S315080024401C0500EA010C2ECD002041EA0C01E46AC5
S31508002450CFF6FF70114300EBC53041EA83116FF3E5
S315080024600F0041EA04610843706001203866FFF7EF
S3150800247078FB0446306880013FF50FAFFFF771FB24
S31508002480001B64284FF00300F4D999E7411E002089
S31508002490B0EB116F1CBF012070474EF21002CEF24E
S315080024A0000251604EF62351CEF20001F0230B7064
S315080024B0072190601160704710B5044600F06DFA68
S315080024C043F608012060C4F202010A6847F26C73F9
S315080024D0C2F30312C0F600039A5C47F27C73D0403D
S315080024E060600A68C0F60003C2F382229A5C20FA8A
S315080024F002F2A2600968C1F34231595CC840E06043
S3150800250010BD70B584B00446C068800479D4E0680C
S315080025100D4649F20C618843D5E9011E05F10C0CFC
S315080025209CE848100843AA69184330431043E06002
S3150800253020696E4620F4405040EA0E00206160692A
S3150800254020F4407040EA0C0060613046FFF7B4FFA3
S3150800255044F6FF70C4F2000084424FF0010012DC1A
S3150800256044F20041C4F200018C4221D044F6000135
S31508002570C4F200018C421BD044F60041C4F20001AB
S315080025808C4215D03EE045F20001C4F200018C42AF
S315080025900ED041F20041C4F201018C4205D041F24D
S315080025A00001C4F201018C422CD106F10C0001E0B5
S315080025B006F10800016821B3286810B3AA6919232F
S315080025C0B2F5004F03FB01F11ED14000B1FBF0F05C
S315080025D048F21F51C5F2EB11A0FB01235A096FF00F
S315080025E0630302FB0300322303EBC000A0FB0101D7
S315080025F04FF4F87000EA111000EB0210C1F3421113
S315080026001CE0012004B070BD8000B1FBF0F048F278
S315080026101F51C5F2EB11A0FB01235A096FF06303A2
S3150800262002FB0300322303EB0010A0FB0101F0209C
S3150800263000EA511000EB0210C1F3431180B20844BE
S31508002640A0600020DEE740F20040C4F202008021CC
S315080026500022FFF781BA43F68821C2F200010880FA
S31508002660704710B500F0E8FA40F27424C2F200048C
S315080026702168884238BF10BD40F27020C2F20000BF
S31508002680017881F00102027040F20040C4F20200B3
S315080026908021FFF761FA00F0CFFA43F68821C2F2EB
S315080026A0000109880844206010BDB0B544F2FE1543
S315080026B044F24411C2F20005C2F2000128780C68FF
S315080026C041063FD4C1071CBF002184F8A910410761
S315080026D00AD594F8A910012906D1B4F8A61004F170
S315080026E0200004F06EFD2878010711D594F8A8108B
S315080026F001290DD1B4F8A610002284F8A82039B112
S31508002700012084F8A90004F1200004F05AFD287875
S3150800271080071CD544F20420C2F2000000888528F0
S3150800272015D894F8A910002918BFB0BD43F6FC21A6
S31508002730C2F200010968021F081DD1B2BDE8B04007
S3150800274000F032BC0120E0610020C4F8A600B0BD4C
S3150800275043F69D21C2F20001097843F69C20C2F295
S31508002760000001220029027008BF00F001B8704776
S3150800277010B543F69C20C2F200000078012818BF65
S3150800278010BD02F075FB00F057FA43F6C02100F5BC
S31508002790FA70C2F20001086000F04EFA42F21071B7
S315080027A0084440F2E801C2F20001086003F0F5FEB1
S315080027B044F20020C2F200000021016044F2082021
S315080027C0C2F20000016044F2F410C2F20000016097
S315080027D04EF6030003F0FAFE02F08DFB43F6902452
S315080027E0C2F20004204602F032FB2046062101F020
S315080027F0F6FE01F00EFFFDF723FF42F20F71884245
S3150800280003D842F21070FDF744FF43F69D20C2F24A
S3150800281000000121017010BD70B543F69D20C2F27B
S3150800282000000078012878D102F074FB44F20424F1
S31508002830C2F2000410B343F60035C2F20005AE89B1
S3150800284020804FF4006002F0AFFA864207D10120DB
S3150800285003F0D0FE208888B103F094FD0AE0AD8924
S3150800286040F6060002F0A0FA854207D103F032FDD1
S31508002870208818B102F078FB0020208000F0DCF9EF
S3150800288043F6C021C2F200010A6844F2441544F234
S3150800289048169042C2F20005C2F2000622D302F59B
S315080028A0FA70086002202E6003F0A4FE208828B182
S315080028B003F068FD02F058FB0020208044F2142043
S315080028C044F21821C2F20000C2F20001016005209C
S315080028D003F090FE208828B103F054FD02F044FB73
S315080028E00020208000F0A8F940F2E801C2F20001B9
S315080028F00A68904205D342F210701044086003F04B
S31508002900C9FD03202E6003F075FE208828B103F068
S3150800291039FD02F029FB00202080002070BD000050
S3150800292010B543F69D22C2F200021278012A18BF9A
S3150800293010BD44F24412C2F20002D2F800E0DEF8FA
S315080029401CC0CEF820C049B10EF124030A4600BFC8
S3150800295010F8014B013A03F8014BF9D1081DAEF8FE
S31508002960A60001208EF8A8000CF10100CEF81C0084
S3150800297010BD80B5FEF77EFA18B1BDE88040FEF7B7
S3150800298013B9002080BDFEF731B9FEF7C2B9FEF7CC
S31508002990C5B9FEF7FEB9FEF715BA43F60401C4F247
S315080029A00201486800F00C0242F20040082AC0F210
S315080029B0F40007D0042A18BF704741F20020C0F27D
S315080029C07A0070470A680B68520241F20022C0F288
S315080029D07A0258BF024603F03F000B68B2FBF0F0DC
S315080029E00968C3F388125043C1F30141022202EB7E
S315080029F04101B0FBF1F0704710B588B044F60C04FD
S31508002A00C4F2000420680C2120F4005020604FF422
S31508002A10614001900020CDE902000490CDE905103F
S31508002A200790A4F10C0001A9FFF76BFD206840F49C
S31508002A300050206008B010BDF0B581B040F2FC2609
S31508002A40C2F200060D46317844F60002C4F20002CE
S31508002A50A1B140F2FD27C2F200073B78116889064A
S31508002A6012D400F0E9F840F20031C2F20001096818
S31508002A700024C831884288BF347039E0106810F0E5
S31508002A80200019D1002433E040F27821C2F2000177
S31508002A9052685C18627001330C78DAB2A2424FF0C1
S31508002AA000043B7024D101313B70FDF7C5FE387830
S31508002AB03470287001241BE0516840F27822C2F273
S31508002AC000024FF00004117090B1C8B20138802896
S31508002AD00ED800F0B1F840F20031C2F200010860E9
S31508002AE040F2FD20C2F2000000240470012030707C
S31508002AF0204601B0F0BD0000B0B544F60004C4F2AB
S31508002B000004606000F098F800F10A0520680006E5
S31508002B1048BFB0BDFDF785FE00F08EF8A842F5D98E
S31508002B20B0BD0000B0B50C468229054604D2204641
S31508002B30FFF7E2FF44B90FE008A07E21FDF758FD34
S31508002B402046FFF7D9FF00BFFDF76BFE15F8010B0E
S31508002B50FFF7D2FF013CF7D1B0BD00BF2E2E2F2EB6
S31508002B602E2F2E2E2F2E2E2F536F757263652F4103
S31508002B70524D434D335F53544D333246322F7273A1
S31508002B803233322E6300000040F20000C2F2000029
S31508002B900168CAB2C1F30723C1F3074C02EB1161FE
S31508002BA0194401EB0C020421435C92B201313C2921
S31508002BB01A44F9D1504280B27047B0B540F20004C9
S31508002BC0C2F2000420684EF2A275CCF64265A8420D
S31508002BD005D1FFF7D9FFA18F884208BFB0BD201DD8
S31508002BE038212560FDF76EFCFFF7CEFFA087B0BD44
S31508002BF070B540F20006C2F200060C4631684EF285
S31508002C00A272CCF6426291421CBF002070BD0546F6
S31508002C10FFF7BAFF0146002C4FF0000008BF70BD51
S31508002C20372D06D8B28F914201BF701900792070EE
S31508002C30012070BD7047704780B5242043F6342EB6
S31508002C40C4F20100C2F2000E0068BEF80020801A25
S31508002C5080B2632816D948F21F53C5F2EB1343F620
S31508002C60982CA0FB0303C2F2000CDCF800005909FB
S31508002C7000EB5310642301FB0321CCF80000AEF8E7
S31508002C80001080BD43F69820C2F20000006880BD9F
S31508002C9081B043F60800C4F20200C16B47F27C73A8
S31508002CA041F00101C163C16BC0F6000301F00101E7
S31508002CB00091009940F24001C2F2000109680268D9
S31508002CC00068C2F342329A5C10F4604F21FA02F1AE
S31508002CD04FF0020208BF012202FB01F045F6C521AA
S31508002CE04009C0F67C21A0FB01010020C4F20100C6
S31508002CF0012202604FF6FF72C2624FF0FF3202EB0A
S31508002D00D11181624169002241F00101416143F616
S31508002D109821C2F200010A60406A43F63421C2F2E1
S31508002D200001088001B0704743F62400C4F202008F
S31508002D30016841F001010160016821F001010160AB
S31508002D40016A21F0010101624EF21000CEF2000084
S31508002D5000210160416081604EF60450CEF2000009
S31508002D604FF000710160704780B5242043F6342E79
S31508002D70C4F20100C2F2000E0268BEF80010521A30
S31508002D8092B2642A38BF80BD48F21F53C5F2EB13CE
S31508002D9043F6982CA2FB0323C2F2000CDCF80020B1
S31508002DA0580902EB5312642300FB0310CCF80020E9
S31508002DB0AEF8000080BD7047704780B502F043FD4D
S31508002DC044F25820C2F200004FF0A0410160BDE86D
S31508002DD08040FFF76BB880B582B044F25820C2F243
S31508002DE000004FF0A0410160FFF761F840F60400CB
S31508002DF0C5F20000016841F0020101603820C5F201
S31508002E000000016841F400110160016821F4002105
S31508002E100160016821F4802101600120ADF80600F7
S31508002E200DF10601002002F01FFDFDF709FC00095F
S31508002E307C2803D84FF4FA60FDF72BFC02B080BD5E
S31508002E40704710B50446002003F0D6F948B10020B3
S31508002E502146012203F0DCF90138B0FA80F0400976
S31508002E6010BD002010BD2DE9F04381B005460020B5
S31508002E700C4600F025FF4FF0FF30002102F07EFDE2
S31508002E8043F2E528C2F2000898F8000028B343F296
S31508002E90E629C2F2000999F8000043F2A527C2F212
S31508002EA0000738440130FFF7CCFF01282ED199F8E6
S31508002EB0000039780130C2B28A424FF0000689F81C
S31508002EC0000024D1791C2846FDF7B6FC99F80000C5
S31508002ED088F800600126207019E043F2A524C2F2A2
S31508002EE000042046FFF7ADFF01284FF000060ED17B
S31508002EF0207801383E280AD8012088F8000043F2D5
S31508002F00E620C2F200000026067000E000263046E1
S31508002F1001B0BDE8F08310B582B0044640298DF8AB
S31508002F20071006D347F65E10C0F600009B21FDF792
S31508002F305FFB0DF107010020012203F077F9012854
S31508002F4006D047F65E10C0F600009F21FDF750FB3D
S31508002F509DF807200020214603F068F99DF8071020
S31508002F60884206D047F65E10C0F60000A221FDF79B
S31508002F703FFB002003F068F902B010BD44F234703C
S31508002F80C2F200000021C0F88810A0F88610C0F828
S31508002F908110704744F23470C2F2000090F8810044
S31508002FA0002818BF012070472DE9F0410546007832
S31508002FB044F23474FF28C2F200041AD10120A4F89E
S31508002FC0810041F2FF0020800020A070FDF790FBF1
S31508002FD0E070FDF79AFB2071FDF797FB000A607118
S31508002FE040F20110E0800820A4F88600FFF7CFFC25
S31508002FF0D9E094F88110012918BFBDE8F081A0F145
S31508003000F1010D291ED8DFE801F03E3E07414B616C
S315080030103E3E3E673E72747F6E68FF20002E4FF07C
S315080030200008207000F0A980D4F88870002000BF3E
S3150800303017F8011B013E4518FDF7F3FB002EE8B211
S31508003040F6D19BE0C93809281DD8DFE800F0051C31
S315080030501CA61C1C61646D77D4F88860FDF748FBD4
S31508003060411E6A1C3046FFF796FC002800F0958042
S31508003070FF202070FDF73CFBD4F88810084401387F
S31508003080C4F8880058E042F2FE0088E06E78FDF742
S315080030902FFBB04245D96968C4F888106A7807E0FA
S315080030A06E78FDF725FBB0423BD96A78D4F88810CC
S315080030B0601CFDF7C1FB6878D4F888100844C4F88A
S315080030C088006878FF21217001306AE06968FF206E
S315080030D02070C4F888102FE047F68611C0F6000164
S315080030E0FF20C4F888100721C4E9000150E0FE203B
S315080030F055E0FF2094F8821020800020A170A4F8E3
S315080031000300607106204CE00020A4F8810011E05D
S31508003110FDF7A2FB0EE06E78FDF7EAFA0238B04238
S3150800312017DA42F2FE203AE0D4F888006968FFF719
S315080031302AFC90B3FF202070012032E0FF200025F2
S315080031402080A570FDF7D4FAE070A580A571072048
S3150800315027E00120A4F886006978FF202070C9B10D
S31508003160D4F88800AA1CFFF716FCB0B16878D4F822
S3150800317088100844C4F8880015E000250120A4F842
S3150800318001002571A4F8058084F8078084F8038077
S31508003190082006E0FFF7EDFB28B943F2FE10208071
S315080031A00220A4F8860094F88400012806D141F28A
S315080031B0FE0020800220A4F8860003E0B4F9860009
S315080031C0012808DB012281B2204684F88420BDE864
S315080031D0F041FDF702BBBDE8F08144F23470C2F25B
S315080031E00000002180F884107047000070B58488BC
S315080031F0D61A38BF06EB4406350418D0B5B2A54230
S3150800320006D92346944298BF5B421344438100BFC4
S315080032109DB2A542A3EB0403FAD2C28800686FF3F5
S31508003220DF3202FB050308461946FDF7DCF8B0B2A3
S31508003230002818BF012070BD2DE9F04F83B00C9C03
S31508003240074680881E1B924638BF06EB40063204A6
S315080032503CD08846B1B2814206D90146984298BF09
S315080032604942CC1806467C81DDF834E0A2B22146F4
S315080032708242A4EB0004F9D2B3B2534538BFB24632
S31508003280B7F806903E684C46431A6FF3DF34AAEB4C
S31508003290030504FB02611FFA8AFB04FB03FCBEF16B
S315080032A0010F04FB05F514D0BEF1000F40F08D8028
S315080032B098B283454FD91FFA8CF640463246FDF739
S315080032C092F8396808EB0600AAB247E04FF0000A00
S315080032D07BE09BB29B4544D94FF6FC730CEA030E80
S315080032E00023AB46B3EB9E0F09D0CCF38D030C46F7
S315080032F0013B54F8047B1D04C8F80070F8D11CF093
S31508003300030448D0801AC4F104071FFA8BF300FBA4
S3150800331009F0E9467144BB424FF0000300F003028E
S3150800332048465D4638BF5F460093FDF75CF83806A9
S31508003330ABEB07050BD0601EC0B248440130BAB2E9
S315080033403146FDF750F8781EC0B23044461C009846
S31508003350C8F8000020E004FB0BF24046FDF743F8EE
S3150800336033E004FB0AF082B20023B3EB920F08D0D5
S31508003370920800BF013A51F8043B1704C8F8003018
S31508003380F8D110F0030220D00020019001A8FDF723
S315080033902AF8019817E05D46280416D0C5F38D0073
S315080033A038B100BF013856F8041B0204C8F80010EB
S315080033B0F8D115F0030208D00020029002A8314681
S315080033C0FDF711F80298C8F800001FFA8AF003B052
S315080033D0BDE8F08F10B582B09C4604460389408943
S315080033E0CDF804C000902046FFF726FFA288618921
S315080033F001448BB28B4202D0A1EB420104E0B3EB4D
S31508003400420F28BFA1EB4201618102B010BD000046
S315080034102DE9F04F87B0002A75D080460589408986
S31508003420B8F806C091466FF001028B460FFA8CF188
S31508003430571CB8F80420B9424FF6FE760DDD281A57
S3150800344038BF00EB420087B23846BA4288BF1046FA
S31508003450C01B87B24F4523D925E04A4515D92F1AEF
S3150800346038BF07EB4207BFB24F44B7EB420F1AD338
S31508003470A2EB09073D18AFB28742C0F0DC805000C6
S31508003480B84298BF02FB06550DE00D466FF3DF35CF
S31508003490A9EB0207002B08BF07FB05BB054610462C
S315080034A0070481462FD02F46039500BFBCB2384685
S315080034B09442A7EB0207F9D2D8F80070151A6FF3F1
S315080034C0DF31A9EB050604FB01701FFA89FA05FB33
S315080034D001FE012B01FB06F6029617D0039C002B72
S315080034E0564640F09380AAB296426ED91FFA8EF7D6
S315080034F059463A46FCF777FF029AD8F800000BEBD4
S31508003500070192B280E04FF000098FE0ABB29A450E
S315080035105FD94FF6FC7101EA0E010023B3EB910F58
S3150800352001910AD0CEF38D03054600BFDBF8006093
S31508003530013B190445F8046BF8D11EF0030329D0A2
S315080035400199029E08440193C3F10405B1B2A94248
S31508003550DBF8001038BF35460491111B01FB0CF14E
S3150800356004AC01F003022146FCF73DFFD8F80070D1
S315080035702806A6EB050602960CD00198AAB20138D1
S31508003580C0B22044411C3846FCF72DFF681EC0B265
S315080035903844471CDDE902045646000436D0029832
S315080035A0C0F38D0038B100BFDBF800100138020403
S315080035B047F8041BF8D1029810F0030226D0DBF86E
S315080035C0000006A9069038461EE006FB01F2594699
S315080035D01AE009FB01F18AB200235646B3EB920FB3
S315080035E00AD0039C920800BFDBF80030013A1704A2
S315080035F040F8043BF8D100E0039C11F0030205D023
S31508003600DBF80010059105A9FCF7EDFEA0B23044E1
S31508003610B8F8041082B2824202D1B2EB410F03D34A
S315080036204FF6FE7201FB0200A8F808001FFA89F09F
S3150800363007B0BDE8F08F02FB065534E70A44A2F14D
S31508003640010C8C450BD900BF31F8023B1B041BBA91
S31508003650184482B2934288BF01306145F4D361456C
S3150800366008D19CF8001000EB012082B2B2EB012FC2
S3150800367038BF013080B27047FFF7DEBA2DE9F04354
S3150800368081B043F2EC25C2F200052978FF2920D043
S3150800369043F2E82847F2847904460026C2F2000875
S315080036A0C0F60009002700BFC8B2874204D2D8F87E
S315080036B00000E0B1304401E0484618D1C168204610
S315080036C0884729780137481CC0B2874206F1240684
S315080036D0EAD343F29834C2F2000420462C21FCF7C0
S315080036E0F1FE201D1C21FF22FCF7C2FE07E04EF664
S315080036F0F050CEF200000068C00700D000BE01B04E
S31508003700BDE8F083B0B543F23031C2F200018A89D0
S31508003710CB890446D51AAAB2402A91F9002028BFB7
S315080037204025B2F1FF3F01DD00210BE0280408D057
S315080037308968A1B143F2F020AAB2C2F20000FCF7F0
S3150800374052FE802143F2F022C2F20002ABB2002BF5
S3150800375008BF1A462046BDE8B04003F089BE0020DF
S31508003760B0BD012888BF002047F2A8710001C0F645
S3150800377000010858D0F8041841F00201C0F80418EE
S3150800378070477047012888BF002047F2A8720001D9
S31508003790C0F60002105880228A4301F00F0100EBA0
S315080037A0820000EB4110D0F8001921F40011C0F88E
S315080037B00019D0F8001941F08051C0F80019704777
S315080037C02DE9F0418046012888BF002047F2A874F9
S315080037D00001C0F6000425580020002603F08CFEE0
S315080037E043F24830C2F2000086714FF00110B8F17A
S315080037F0010FC5F81C082ED804EB0810007A44F20D
S31508003800C0720121C2F20002022898BF022000BF3E
S315080038100024012305EB442606EB4116D6F8007969
S31508003820B7F1FF3F05DC06F510673E6846F090469F
S315080038303E6084F0010702EB4116DB0706EB07172B
S315080038404FF000064FF001044FF000037E81E1D1EE
S3150800385001318142DCD14FF48460286128698006F1
S31508003860FCD41020286100BF2869C006FCD4404655
S3150800387000F0F6FC0020BDE8F04103F04CBE70B540
S315080038800D46AA8889786FF3DF22064600F06CFC9D
S31508003890044620B13046294601F012F807E04EF6F4
S315080038A0F050CEF200000068C00700D000BE2046E7
S315080038B070BDB0B5054601220C46012888BF002513
S315080038C001F052F8200718BFB0BD47F2A8712801C9
S315080038D0C0F600010858806CB0BD2DE9F047804657
S315080038E000209946174601F00F05CE094FF0000A49
S315080038F003F002FE44F2C070C2F2000000EB45116C
S3150800390001EB061044899CB132018F50017BC0F847
S3150800391004A0A0F8089041732DB943F24830C2F2CA
S31508003920000020F8169040462946324601F090F8E5
S315080039300020002C18BF012403F0EDFD2046BDE849
S31508003940F08700002DE9F04784B00546407889469F
S315080039500238052800F28F80DFE800F003126E7A3D
S3150800396086BD43F29830C2F20000017801F0FE01EC
S315080039700170017801F0FD010170002141706FE0CE
S3150800398043F2EC28C2F2000898F80000FF2821D07C
S3150800399043F2E82A47F284760027C2F2000AC0F604
S315080039A000060024C1B28C4204D2DAF8001051B1E4
S315080039B0394401E0314606D10A6A22B12878696895
S315080039C0904798F80000411C0134C9B28C4207F1AF
S315080039D02407E7D343F29837C2F20007387843F250
S315080039E0C4384007C2F2000840F1D1803878B9F1EE
S315080039F0000F00F0FB0038702878D8F800408DF8E2
S31508003A0004004FF005008DF805004FF00000039004
S31508003A10029000F0A380201D01A901F0F9FD0028FD
S31508003A2040F0AE804EF6F050CEF200000068C007B7
S31508003A3000F0AD8000BEAAE043F29830C2F2000062
S31508003A400178C90700F0D980017841F0040111E036
S31508003A5043F29830C2F200000178C90700F0CD8021
S31508003A60017801F0FB0105E043F28840C2F200004C
S31508003A7001780131017043F2C430C2F200000468D3
S31508003A80B9F1000F0ED0201D294601F0C1FDD0B9AD
S31508003A904EF6F050CEF200000068C00700F0AD8088
S31508003AA000BEAAE040F24406C2F2000631680020D1
S31508003AB08847201D294601F0ABFD316806460120DE
S31508003AC08847002EE4D0287869784A4604B0BDE8CD
S31508003AD0F04701F0C2BE297911F00F00CBD043F2AE
S31508003AE09832C2F2000202EB400043F2EC2300EBEC
S31508003AF0D112C2F20003127D1B7893420BD943F20E
S31508003B00E823C2F200031B68002BB4D002EBC20202
S31508003B1003EB820204E0AED147F28472C0F60002DB
S31508003B20D369002BA7D0CB09C41814F8200F00F0CE
S31508003B30FE002070207800F0FB002070D7692878F6
S31508003B406A79AB68B847002857D1207840F0010059
S31508003B502070207840F0040020708CE740F244067C
S31508003B60C2F20006316800208847201D01A901F02D
S31508003B704FFD3168064601208847002E3FF452AFB4
S31508003B809DF804009DF805104A4601F066FEF8788F
S31508003B90C00732D02878D8F800408DF804000320F2
S31508003BA08DF805006868B9F1000F02900DD0201D48
S31508003BB001A901F02DFDC8B94EF6F050CEF200006D
S31508003BC00068C00719D000BE17E040F24405C2F2EB
S31508003BD00005296800208847201D01A901F018FD65
S31508003BE02968054601208847002DE5D09DF8040080
S31508003BF09DF805104A4601F030FE04B0BDE8F0878E
S31508003C0070B50646012888BF002047F2A871000152
S31508003C10C0F600010C5843F24830C2F200000021F9
S31508003C20C0E900112046012100F040FEA16C0546BE
S31508003C3030462946002200F0F3FC60B1D4F800189B
S31508003C409DB1A26C21F0030102F0C002802A08BFD0
S31508003C5041F480410BE04EF6F051CEF200010968BE
S31508003C60C90708BF70BD00BE70BD41F0030141F031
S31508003C700401C4F80018D4F80418022241F002011D
S31508003C80C4F80418E16862F35E71E160216843F2E2
S31508003C90040241F0C00121F010012160A169C8F2B7
S31508003CA000021143A161A16841F08001A160D4F826
S31508003CB0041821F00201C4F8041870BD7047704753
S31508003CC02DE9F04F85B001460128019088BF0020F4
S31508003CD047F2A8710001C0F6000151F8009043F2BE
S31508003CE04837D9F81800D9F81410C2F2000701EAC3
S31508003CF0000A5FEACA407AD54FF48050C9F8140022
S31508003D00012003F0F9FBD9F8480044F2C076C2F264
S31508003D100006C0F383243046C021FCF7D3FB0020FD
S31508003D20F880601C09F53061024600BF0B68013A4D
S31508003D3043F0006341F8203BF8D109F5106100BF54
S31508003D400A68B2F1FF3F03DC0A6842F090420A6053
S31508003D50013801F12001F3D14FF00110C9F81C0810
S31508003D600920C9F81408C9F810084FF48460C9F87E
S31508003D70100000BFD9F810008006FBD41020C9F83F
S31508003D80100000BFD9F81000C006FBD4019800F057
S31508003D9067FAD9F8000820F4FE60C9F80008D9F8CF
S31508003DA0000920F00300C9F80009D9F8000B20F033
S31508003DB00300C9F8000BD9F80009C9F80009D9F8B1
S31508003DC0000BC9F8000B402070817083D9F84800B1
S31508003DD0D9F8100B40F0C040C9F8100BD9F81800F4
S31508003DE040F4E010C9F81800012003F094FB5FEADC
S31508003DF08A4023D54FF40050C9F814004FF40060E8
S31508003E00C9F81400D9F81800182140F40060C9F858
S31508003E101800D9F8080801EA80000221C0F2010159
S31508003E2021FA00F001998DF80C008DF8081001218F
S31508003E308DF8091002A80121FFF784FD5FEA0A50F0
S31508003E4013D54FF40060C9F81400D9F818000121F9
S31508003E5020F40060C9F8180001988DF808000420BD
S31508003E608DF8090002A8FFF76DFDBAF1FF3F13DCD4
S31508003E704FF00040C9F81400D9F81800012140F4A1
S31508003E800060C9F8180001988DF8080005208DF81B
S31508003E90090002A8FFF756FD5FEA4A700FD5D9F860
S31508003EA00440600709D5019801218DF80800022011
S31508003EB08DF8090002A8FFF745FDC9F804405FEA36
S31508003EC00A701FD50820C9F81400D9F8180040F45C
S31508003ED00060C9F81800D9F80808F979C0F30D2068
S31508003EE029B9D9F8181021F00801C9F8181001994C
S31508003EF003908DF8081003218DF8091002A80121F6
S31508003F00FFF720FD44F2C07C5FEACA60C2F2000CEB
S31508003F106AD5D9F8180043F2503520F0100009F593
S31508003F20805B4FF00008C2F20005C9F8180000BF10
S31508003F30D9F82010C1F34340022801F00F040BD032
S31508003F40042819D0062845D1DBF80000DBF8001054
S31508003F50C5E900013EE000BFC1F30A172FB30CEB19
S31508003F604410406888B159463A4601F08CFB44F241
S31508003F70C07CC2F2000C18E009EB4410D0F8101B04
S31508003F8041F0C041C0F8101B24E066015CF8061039
S31508003F9048463A4600F08AF944F2C07CC2F2000C60
S31508003FA05CF8060038444CF806000CEB44104189CE
S31508003FB08F420FD209EB4411D1F8101B0289A2EBEC
S31508003FC00101018134B943F24830C2F20000A0F879
S31508003FD0008000BFD9F81400C006A9D4D9F8180083
S31508003FE040F01000C9F818005FEA0A3007D50198B2
S31508003FF0002100F00FFE44F2C07CC2F2000C5FEA1A
S315080040004A3007D50198012100F004FE44F2C07C2D
S31508004010C2F2000C5FEACA206ED54FF48010C9F8C8
S315080040201400D9F808084FF48051C0F3002ED9F8C7
S315080040304800BEF1000F08BF4FF40051002400915C
S315080040404FF4F071C8F2040401EA501000F120059B
S3150800405004F5002A4FF000084FF0000B09EB0800A2
S31508004060D0F8001901EA0A02A2423FD1C1F3004280
S3150800407072453BD10CEB0802537FA3B1178B568BC5
S31508004080013B5377BA19013AB2FBF6F20B0C62F30D
S31508004090DC47C0F81079009A89B21A4341EA02410E
S315080040A0C0F8001922E0019F6BF07F06F1B238468E
S315080040B000225446F24600F057FC07208DF8090006
S315080040C00020049001208DF80D0002A801218DF82A
S315080040D008708DF80C60FFF735FCD646A24600241A
S315080040E044F2C07CC8F20404C2F2000C08F12008AD
S315080040F045450BF1010BB1D105B0BDE8F08F80B590
S315080041000246012888BF002247F2A8731201C0F6AA
S31508004110000353F802C00023DCF8002822F4FE62EC
S3150800412042EA011E80210022CCF800E8BDE8804062
S31508004130FFF7D3BB012888BF002047F2A872000109
S31508004140C0F60002105843F24832C2F20002D1719A
S3150800415029B108214161816941F0080102E08169BC
S3150800416021F0080181617047B0B547F2A87CC0F616
S31508004170000C0CEB00152C7A0128034601F00F0EF3
S3150800418088BF0023A64523D21B015CF803C049B2A9
S31508004190002902F1030125D447F6FE7000EA510012
S315080041A000EB44001030DCF8241080B281424CD277
S315080041B043F24831C2F200018988884234D94EF662
S315080041C0F050CEF200000068C00709D000BE07E034
S315080041D04EF6F050CEF200000068C00700D000BED0
S315080041E00020B0BD022843F24830C2F2000005D3D1
S315080041F06B7A82799A422AD201328271DCF80820D7
S315080042000123890823EAD2138288DCF824409940DE
S315080042100B1993420BD94EF6F050CEF20000006807
S31508004220C007DDD000BEDBE7CCF824000DE0521A4B
S31508004230828090B2BEF1000F40EA01401ABF0CEB33
S315080042408E01C1F80001CCF828000120B0BD4EF659
S31508004250F050CEF200000068C007C1D000BEBFE72C
S3150800426047F2A871C0F600010346012801EB0012C7
S3150800427088BF00231B0192F808C0CB58302101EBF8
S315080042804C015962D1689A6C43F248324FEA910C54
S31508004290C2F20002C1F38F01A2F804C041EA014C40
S315080042A080214022C3F85CC0FFF75EBF80B50023BB
S315080042B0B3EB920F00F5805C07D09308DCF800E0BA
S315080042C0013B180441F804EBF8D112F0030208BFC9
S315080042D080BDDCF80000012A087005D0030A032A0D
S315080042E04B7004BF000C887080BD000080B500EBE1
S315080042F001300021B1EB930F00F5805C07D09908D7
S31508004300013952F804EB0804CCF800E0F8D113F0B0
S31508004310030308BF80BD1178012B07D05078032B03
S3150800432041EA002104BF907841EA0041CCF8001028
S3150800433080BD2DE9F04143F6C426C2F20006308856
S31508004340B0F5937F0BDBB0F5AB7F17DB21D0B0F56B
S31508004350B57F7DD040F26B1188427CD03BE1B0F549
S31508004360887F32DA002800F0BC8040F20F118842BC
S3150800437040F031814FF48870308051E0B0F5937F7A
S315080043802CD040F25511884240F025814FF4AB708D
S31508004390308006F1080000F0F5FE002800F01D81C7
S315080043A00220B0704FF47A70306144F20020C2F2F5
S315080043B000000021016000F08EFE316906F1080058
S315080043C000F0ECFE4FF4B57006E129D040F2251155
S315080043D0884240F000814FF49370308044F2FE1416
S315080043E0C2F200042078800709D406F1080000F01C
S315080043F0C9FE002800F0F1802078800703D500F078
S31508004400E9FD05283ED0306942F21071884200F372
S31508004410E280B17800F57A700329306134D073E010
S3150800442044F2FE14C2F200042078800709D406F18B
S31508004430080000F0A7FE002800F0CF80207880074B
S3150800444055D500F0C7FD022851D10220B07058E0BA
S3150800445040F26B10308044F2FE14C2F20004207859
S3150800446080070AD406F1080000F08CFE002800F048
S31508004470B4802078800740F1A18000F0ABFD0528C4
S3150800448040F09C800320B07044F20020D6E909125F
S31508004490C2F20000016044F20820C2F20000336B49
S315080044A0026044F2F411308CC2F200010B6000F095
S315080044B07BFC718C0446084600F076FC40EA044012
S315080044C040084FF47A71414306F10800B1F1FF3F05
S315080044D0D8BF6FF00041316100F060FE40F2551020
S315080044E07AE00120B0704FF47A70306116E03069D6
S315080044F04EF65F218842DCBF40003061B078022862
S315080045000CD14FF47A70306100F0E5FD316906F19F
S31508004510080000F043FE40F225105DE043F6FC2853
S31508004520C2F20008D8F8007040F201103880B0696D
S315080045304DF6AD61C2F21231B8700020796044F2CE
S315080045400021F870C2F2000109684FF40002BA604F
S31508004550F96038617861B861D6E9051407F11C0578
S3150800456028462246FBF73FFF2819C4F11001FBF73E
S3150800457087FF07F12C00C021FBF782FF48F2632072
S31508004580C6F2533047F8EC0F40F23510C3F201700B
S31508004590786040F20310C0F20360B860D8F80000F3
S315080045A0FF213973391A0D3102F00BFE316906F114
S315080045B0080000F0F3FD40F20F100DE0306942F2FA
S315080045C01071884207DCB17800F57A7003293061EA
S315080045D07FF4F1AE58E700203080BDE8F081B0B531
S315080045E082B043F6C424C2F20004C4E905014FF0C0
S315080045F0FF300025019001A84FF48641A57002F00E
S3150800460017FE606010B14FF488418180258002B0A2
S31508004610B0BD44F20020C2F20000002101607047DC
S315080046202DE9F047012888BF00209246000197A28D
S3150800463014584FF6FF72206C40F2000820EA020771
S315080046400020C4F6547040F20009C4F204088742F8
S31508004650C5F2315918BF4F453DD1A06820F0010079
S31508004660A060E06889B1A16C226DC9B20223B3EBE0
S31508004670911F02F4404650D14FF62771CFF6C57107
S31508004680084000F11005E5604FE040F04005E560A0
S31508004690A06B444540F48030A06307D143F6500030
S315080046A0C4F20200016821F080410160204600F052
S315080046B0EFFC052060F38D25E56040F24000C2F26C
S315080046C00000016844F2FF70C0F2E81081421BD96D
S315080046D04FF4C05098E00023C5F232539F42BCD035
S315080046E04EF6F052CEF200021668F60700D000BE6B
S315080046F0874218BF4F45B0D09F42AED01068C0075A
S3150800470000F0AF8000BEACE049F6DF50C0F2A3105F
S3150800471081421BD94FF4E05076E0890920F058050C
S31508004720002E18BF0835E560C9B1A06B20F48030AB
S31508004730A063204600F0ACFC25F470504FF4A0515D
S31508004740002E08BF4FF41051084461E043F2FF50B1
S31508004750C0F26E10814220D94FF4005054E0A06B8D
S31508004760444540F48030A06307D143F65000C4F2B4
S315080047700200016821F080410160204600F088FCB3
S3150800478043F6504025EA00004FF4A051002E08BF1A
S315080047904FF410510844E0608FE74AF23F40C0F2F8
S315080047A04C10814202D94FF410502DE042F6FF40DA
S315080047B0C0F23110814202D94FF4205024E044F669
S315080047C09F10C0F21A10814202D94FF430501BE0F4
S315080047D047F27F30C0F20610814202D94FF44050AA
S315080047E012E042F2FF30C0F2F400814202D94FF4DF
S315080047F0505009E04EF2BF12C0F2E4024FF4705076
S31508004800914288BF4FF46050E16821F47051084323
S31508004810E060E06840F00700E060D4F8000E20F0A1
S315080048200F00C4F8000E4FF48460206120698006EA
S31508004830FCD41020206100BF2069C006FCD44FF0CC
S31508004840FF30606160600020BAF1000FA06104D0FB
S31508004850A06840F02600A06003E0A06940F01000C0
S31508004860A061A7EB0802A7EB0900A2F17562A0F503
S315080048708031B2FA82F2B0FA80F0B1FA81F15209C7
S315080048804009490910430843BDE8F0870000005075
S31508004890430000000400000000050000000004407A
S315080048A04D0000000600000000100000012904BFAA
S315080048B000207047806C10F0C00018BF01207047B8
S315080048C02DE9F041012888BF002047F2A87291F827
S315080048D002E00001C0F6000244F2C07552F800C0BA
S315080048E00EF00F028B88C2F200054FEADE1405EBC4
S315080048F042156FF3DF2305EB04156B818879DCF825
S315080049000868471E4FF0010816F0060F08BF08FA98
S3150800491007F02873C8780C2500F0030105EA800023
S31508004920012918BF00F58050611E18BF0121B8EB98
S31508004930DE1F08BF40EA821043EA00400CEB412123
S3150800494000F5004001EB4211C1F80009B8EBDE1F83
S3150800495018BF1032DCF81C0808FA02F10843CCF834
S315080049601C08BDE8F081000010B5012888BF0020AA
S3150800497047F2A8730001C0F600034CB2185801F0BC
S315080049800F0C0021B4F1FF3FC8BF012100EB412104
S3150800499001EB4C11002A18BF4FF40012D1F8003968
S315080049A0B4F1FF3F01F5106E22DDBCF1000F2AD0ED
S315080049B0B3F1FF3F27DCD0F8043800F6040C43F4C3
S315080049C00073C0F8043800BF43691B06FCD5DEF83F
S315080049D00000104340F08040CEF8000001F60810B1
S315080049E001688907FCD502214FF4806201600BE05B
S315080049F0DEF80040002B0DD442EA040141F00061C4
S31508004A00CEF800101BE0F446DCF800001043CCF8A2
S31508004A1000001CE044F0006301F60811CEF80030EF
S31508004A200B685B06FCD5DEF800301A4342F080427C
S31508004A30CEF800200A689207FCD502220A604FEADF
S31508004A408C112031016100BF01698906FCD410BDB3
S31508004A502DE9F0410C4601461546012888BF00217C
S31508004A6047F2A8720901C0F6000252F801806A1ED0
S31508004A7018BF0122BCB144F2C071C2F2000101EBB9
S31508004A80441101EB051319895B89CE18013EB6FB63
S31508004A90F3F60023C1F6F87303EAC643360408BFE3
S31508004AA04FF400230EE043F24833C2F2000333F812
S31508004AB015603146402E28BF4021761A23F8156026
S31508004AC04FF4002308EB42220B4302EB4412C2F8D0
S31508004AD01039D2F8003902F5106203F44026B6F50B
S31508004AE0802F0AD1D8F808681F0CF6054FF414462B
S31508004AF058BF4FF424463E4303E04FF4044646EAC3
S31508004B0013469BB2D8F8487043EA0643012D136052
S31508004B1018D1B9B1214600F017F89CB144F2C0711A
S31508004B20C2F2000101EB441101EB0511098981422A
S31508004B3098BFBDE8F0810120D8F83418A040084392
S31508004B40C8F83408BDE8F0812DE9F04F85B0012892
S31508004B5088BF002047F2A8720001C0F6000212586A
S31508004B6002EB4110D0F81039C3F3C944002C4AD0DF
S31508004B7000F51163049344F2C073C2F2000303EB19
S31508004B80411300F6181902EB013003F11A0703F175
S31508004B90100503F1140A00F580504FF000084FF095
S31508004BA0000B0397CDE90012029000BF0498006835
S31508004BB003990E8881B28E4288BF0646D9F800004E
S31508004BC04FF6FC71C0F20301B7B201EA8000B842A1
S31508004BD01BD3DAF8000028B102993A4600F007FD1F
S31508004BE009E000BF2A68DDE900103B46FFF77EFBB7
S31508004BF02868384428600BF1010B1FFA8BF08442B1
S31508004C00B044D3D801E04FF000081FFA88F005B089
S31508004C10BDE8F08F2DE9F04F85B0024601280090D7
S31508004C2088BF002047F2A8720001C0F60002175894
S31508004C304FF4F072B86CB86C0191013902EA501061
S31508004C4018BF012100F1200407EB41204FEA011AA1
S31508004C5000F608154FF0000B4FF00008D7F81808B3
S31508004C600AEB0801C840C00700F0948055F80B907D
S31508004C70019845F80B90012812D15FEAC97058D0FF
S31508004C80BBF1000F3DD143F24830C2F20000408824
S31508004C90B8B3009800210122FFF7DAFE49E000BF09
S31508004CA05FEA097015D448F2210000EA09000128D4
S31508004CB070D1BBF1000F57D143F24830C2F2000061
S31508004CC00088002850D0009800210022FFF7C0FE77
S31508004CD060E0D7F80009B0F1FF3F04DC00988021B6
S31508004CE00022FFF741FE009806228DF8080043F2DD
S31508004CF05030C2F2000003C88DF80920CDE903013F
S31508004D0044E044F2C071C2F20001594448F0800000
S31508004D10098B009A8DF80C0000208DF808200722D0
S31508004D2004918DF80D0002A801218DF80920FEF7DF
S31508004D3009FE5FEA09602DD5D7F83408012101FA82
S31508004D4008F6304226D000985FFA88F1FFF7FCFE95
S31508004D5007EB0B00D0F8100940031BD1D7F834082D
S31508004D60B043C7F8340815E044F2C070C2F2000038
S31508004D7058440089009904908DF8081007210020EE
S31508004D808DF809108DF80C808DF80D0002A8012108
S31508004D90FEF7D8FD0BF1200B5C4508F101087FF4FE
S31508004DA05DAF05B0BDE8F08F40BA704792B00024F9
S31508004DB08DF80340FCF701FF01A81421CDE90A4448
S31508004DC0CDE90844FBF77EFB0120069005200790F5
S31508004DD04FF480000D900420C0210E90CDE90F10ED
S31508004DE008200225119006A80C95FDF7C5F930B1E3
S31508004DF047F65410C0F600009321FBF7F9FB0F2085
S31508004E00CDE901054FF4A05004904FF48050059069
S31508004E1001A803210394FDF74BF830B147F6541067
S31508004E20C0F60000A221FBF7E3FBFDF7C6FEFBF781
S31508004E3036FC0DF103010020FDF7DAFE9DF80300AC
S31508004E40012808BFFBF745FCFBF738FCFCE743F6EF
S31508004E508A21C2F200010A7802704A7842708A787A
S31508004E608270CA78C2700A790271497941717047AD
S31508004E7010B543F68A200821C2F20000C6F62711AB
S31508004E80016044F25B51818043F6382448F2000100
S31508004E90C2F20004C4F2020101224FF480434FF427
S31508004EA0006C84E80E1000214FF40002C4E90501E5
S31508004EB020462182C4E90712FCF7E6F840F2F01111
S31508004EC041F6D422C2F20001C2F2000220460423AF
S31508004ED0FCF75EF840F2701140F20432C2F20001AB
S31508004EE0C2F2000220460423FCF712F82046BDE869
S31508004EF01040FCF789BA43F68A20C2F200000188FE
S31508004F0044F2F812D0F80200C2F200021180C2F888
S31508004F100200704770B543F63825C2F200052846E8
S31508004F20FCF776F800264FF00004D8B9AC8F296C48
S31508004F3043F60030C2F200002246FBF754FA296B0A
S31508004F4028680A6842F000420A60AE6341F214011A
S31508004F504158090606D541F2080108448021C16076
S31508004F6000210160204670BD70B543F63824C2F2B0
S31508004F700004E56AFDF760FE00F1FA062868B0F15C
S31508004F80FF3F06DCFBF74DFCFDF756FEB042F5D9B0
S31508004F9011E044F20420C2F20000E16A058888683C
S31508004FA043F60031C2F200012A46FBF71CFA2046F6
S31508004FB02946FCF79BFA206841F2140141588906F4
S31508004FC058BF70BD41F20401084420210161002147
S31508004FD0016070BDB0B543F6FC20C2F2000005685A
S31508004FE02878022811D168684DF6AD61C2F21231EF
S31508004FF088420AD143F6C424C2F20004D4E9051251
S3150800500005F11C00FBF7A4F910B10020C0B2B0BD31
S3150800501044F20420C2F2000000882969002861626F
S31508005020F3D005F1F0010A18002000BF0B78322BE7
S3150800503008DD352B10DC332B14D0352B08BF8878C8
S315080050401CE000BF012B11D0032B13D0062B15D162
S31508005050D1F80230E36211E0362B15D1D1F80230CF
S31508005060E3610BE0D1F80230236207E0D1F80230A1
S31508005070A36203E0D1F80230236300BF4B781944DA
S3150800508002319142D2D3C1E7FF2BF7D1BEE7000028
S315080050900169B1F1FF3FFBDC016C02694FF6FE7353
S315080050A0194044F20A23994242F00101016103D2F0
S315080050B00169C907FCD109E001698900FCD50169C4
S315080050C041F0005121F00101016100BF0169B1F110
S315080050D0FF3FFBDC70472DE9F04143F6FC28C2F29E
S315080050E00008D8F8006040F2011043F6C427308063
S315080050F0C2F20007B8694DF6AD61C2F21231B0705E
S315080051000020716044F20021F070C2F200010968C3
S315080051104FF40002B260F16030617061B061D7E9A6
S31508005120051406F11C0528462246FBF75CF92819E2
S31508005130C4F11001FBF7A4F906F12C00C021FBF716
S315080051409FF948F26320C6F2533046F8EC0F40F256
S315080051503510C3F20360706004203072F869796A0A
S31508005160C6F8090040F23240A6F80D00D8F800004B
S31508005170C6F80F10FF22311A1431F274BDE8F04157
S3150800518002F01FB810B50446FEF776FAD4E9001205
S31508005190411A00209142A8BF012010BD10B504464F
S315080051A04160FEF769FA206010BD000010B57AB1BB
S315080051B001EB020C4A78052A06D18A7802F00F0E0E
S315080051C0D40900EB4E0213550A7811446145F1D310
S315080051D010BD0178C9070ED1017849070BD40178AB
S315080051E0C90708D10178490705D4017841F00401B7
S315080051F0017001207047002070470178490708D5DB
S315080052000178C90705D1017801F0FB010170012079
S315080052107047002070470120704770B582B0044679
S3150800522000789C46069B00F0FE00079A0844DDE9D4
S315080052300865207004F1080019460123CDF800C05E
S3150800524000F09AF966600120658002B070BD70B5FD
S3150800525015460C46064601F108009AB2294600F0A2
S31508005260C3F905463046214600F002F8284670BDC7
S31508005270F0B581B00C4689892778054609B304F14B
S315080052800806304600F0B6F9B9074FF4007758BF5C
S31508005290402787424FD82078C0074CD161782846E6
S315080052A002F09BF8002846D0304600F0A3F9874262
S315080052B026D92078C0073ED16178284602F0CAF878
S315080052C039E0F80737D16178284602F086F890B3B6
S315080052D02078C0070BD163886178002B14BF6268F9
S315080052E00022284602F0C4F808B1668824E04EF683
S315080052F0F050CEF200000068C0071CD000BE1AE0CD
S315080053007942668808402178B04238BF0646C80701
S3150800531009D16178002E14BF6268002228463346F8
S3150800532002F0A6F840B94EF6F050CEF2000000683A
S31508005330C00700D000BE0026304601B0F0BD2DE9FA
S31508005340F04381B0002B49D0804688891D46174610
S315080053500E46D0B106F10804AAB22046394600F036
S315080053608FF935788146204600F01BF9A9074FF4D6
S31508005370007158BF4021814202D9B08981422FD994
S315080053804046314600F030F82AE03078C00725D18B
S315080053907178404602F021F800B3B6F802907068BA
S315080053A0A94588BFA94639464A46FBF71CF830780E
S315080053B0C0070BD171785FEA094014BF72680022F2
S315080053C01FFA89F3404602F053F848B94EF6F050F2
S315080053D0CEF200000068C00700D000BE4FF00009FA
S315080053E0484601B0BDE8F08370B501F108050446EA
S315080053F028460E4600F0D5F838B33078C00724D1D1
S315080054007178204601F0E9FFF8B17168728828467C
S3150800541000F0EAF80546307800F0010085B130B9A9
S315080054207178726820462B4602F022F870B94EF65B
S31508005430F050CEF200000068C00706D000BE04E0B7
S3150800544018B97178204602F005F80025284670BD7F
S3150800545070B50D4609782B8A6C8A06464FF000000F
S3150800546032B3A34218BF70BD880740F2FF1058BF79
S315080054703F20104001F00101084318D169783046F1
S3150800548001F0ABFF98B12878C00708D16978304693
S315080054900022002301F0ECFF08B1012070BD4EF692
S315080054A0F050CEF200000068C00700D000BE002011
S315080054B070BDC378B0F804C003F00303032B6FF381
S315080054C0DF2C14D0022B22D0012B4DD140F2FF3015
S315080054D0022908BF4FF4806060452CD24EF6F05082
S315080054E0CEF200000068C0073ED000BE3CE0402077
S315080054F0022908BF4FF4806060451CD24EF6F05072
S31508005500CEF200000068C0072ED000BE2CE00229AB
