S01D000062696E2F6F70656E626C745F73746D3332663230372E7372656394
S315080000000000022055020008A5020008A502000803
S31508000010A5020008A5020008A502000800000000C5
S31508000020000000000000000000000000A502000813
S31508000030A502000800000000A5020008E921000842
S31508000040A5020008A5020008A5020008A5020008E6
S31508000050A5020008A5020008A5020008A5020008D6
S31508000060A5020008A5020008A5020008A5020008C6
S31508000070A5020008A5020008A5020008A5020008B6
S31508000080A5020008A5020008A5020008A5020008A6
S31508000090A5020008A5020008A5020008A502000896
S315080000A0A5020008A5020008A5020008A502000886
S315080000B0A5020008A5020008A5020008A502000876
S315080000C0A5020008A5020008A5020008A502000866
S315080000D0A5020008A5020008A5020008A502000856
S315080000E0A5020008A5020008A5020008A502000846
S315080000F0A5020008A5020008A5020008A502000836
S31508000100A5020008A5020008A5020008A502000825
S31508000110A5020008A5020008A5020008A502000815
S31508000120A5020008A5020008A5020008A502000805
S31508000130A5020008A5020008A5020008A5020008F5
S31508000140A5020008A5020008A5020008A5020008E5
S31508000150A5020008A5020008A5020008A5020008D5
S31508000160A5020008A5020008A5020008A5020008C5
S31508000170A5020008A5020008A50200080000000064
S30908000180A5020008BE
S3150800018453B94AB9002908BF00281CBF4FF0FF31EC
S315080001944FF0FF3000F00CB8ADF1080C6DE904CE51
S315080001A407F008FADDF804E0DDE9022304B0704735
S315080001B4704700BF034613F8012B002AFBD1181A0F
S315080001C4013870470348044B834202D0034B03B1FA
S315080001D4184770479400002094000020000000008F
S315080001E40548064B1B1AD90F01EBA301491002D087
S315080001F4034B03B11847704794000020940000206D
S315080002040000000010B5064C237843B9FFF7DAFF5F
S31508000214044B13B10448AFF300800123237010BDC7
S3150800022498000020000000000079000808B5054B76
S315080002341BB105490548AFF30080BDE80840FFF740
S31508000244CFBF00BF000000009C0000200079000812
S31508000254DFF834D00D480E490E4A002302E0D4587C
S31508000264C4500433C4188C42F9D30B4A0B4C0023EC
S3150800027401E013600432A242FBD301F041FC07F00B
S315080002840BFB01F063FE70470000022040000020CB
S3150800029494000020E07B00089800002060480020B5
S315080002A4FEE700000C4B0D4A59680D4811F4800FFF
S315080002B408BF104659685A6801F03F01B0FBF1F0CF
S315080002C45B68C2F3881202FB00F0C3F301430133EF
S315080002D45B00B0FBF3F07047003802400024F400DA
S315080002E400127A0010B5144B04469B6803F00C03FD
S315080002F4042B1ED0082B1AD1FFF7D4FF03460E4A47
S31508000304236091680D48C1F30311415C0C48CB4046
S3150800031463609168C1F38221415C23FA01F1A1600B
S315080003249268C2F34232825CD340E36010BD054B47
S31508000334E5E7054BE3E700BF003802402C790008DF
S31508000344247900080024F40000127A000B68002BB4
S3150800035400F009812DE9F04F002201264FF0030829
S31508000364884F894C85B006FA02F919EA030E00F09B
S31508000374CF804B684FEA420C03F0030303F1FF3ABC
S3150800038408FA0CF5BAF1010F6FEA050516D8836861
S3150800039403EA050ACB6803FA0CF343EA0A03836003
S315080003A44B68D0F804A0C3F3001393402AEA09095A
S315080003B443EA090343604B6803F00303032B2BD07A
S315080003C4C36803EA05098B6803FA0CF343EA0903CD
S315080003D4C3604B6803F00303022B1DD14FEAD2090D
S315080003E400EB8909D9F820A0D1F810B0CDF804A0FB
S315080003F44FF00F0A02F007039B000BFA03FB0AFAF5
S3150800040403F3DDF804A02AEA030A4BEA0A03C9F847
S3150800041420304B6803F0030303FA0CF3D0F800C04A
S315080004240CEA05052B4303604B6813F4403F6ED072
S3150800043400234FF00F0903937B6C02F0030C43F47B
S3150800044480437B647B6C4FEA8C0C03F480430393F0
S31508000454039B22F0030303F1804303F59C339D6851
S3150800046409FA0CF925EA0905DFF82091484527D049
S3150800047409F5806948455AD0DFF8149148455DD096
S31508000484DFF8109148454BD0DFF80C91484563D006
S31508000494DFF80891484567D0DFF80491484554D0F9
S315080004A4DFF80091484566D0DFF8FC9048450CBF54
S315080004B44FF008094FF0090909FA0CFC45EA0C053E
S315080004C46FEA0E0C9D604B68A568DB0254BF0CEA04
S315080004D405054EEA0505A5604B68E5689B0254BF09
S315080004E40CEA05054EEA0505E5604B6865689B0355
S315080004F454BF0CEA05054EEA050565604D68236890
S31508000504ED0354BF0CEA03034EEA030323600B68A6
S31508000514013233FA02F57FF426AF05B0BDE8F08F51
S315080005244FF0030909FA0CFC45EA0C05C8E74FF035
S31508000534010909FA0CFC45EA0C05C1E74FF0020962
S3150800054409FA0CFC45EA0C05BAE74FF0060909FA5C
S315080005540CFC45EA0C05B3E74FF0040909FA0CFC50
S3150800056445EA0C05ACE770474FF0050909FA0CFC97
S3150800057445EA0C05A4E74FF0070909FA0CFC45EA15
S315080005840C059DE700380240003C0140000002408B
S3150800059400080240000C0240001002400014024009
S315080005A400180240001C024000200240002900F006
S315080005B4A3802DE9F04F002301274FF00F094FF0D0
S315080005C4030A504E07FA03F212EA010E72D023F018
S315080005D4030505F18045DFF830B105F59C3503F0D0
S315080005E40304D5F808C0A40009FA04F8584508EA2B
S315080005F40C0C26D00BF5806B584561D0DFF80CB18E
S31508000604584560D0DFF808B1584566D0DFF804B11C
S31508000614584567D0DFF800B1584559D0DFF8FCB023
S31508000624584564D0DFF8F8B0584566D0DFF8F4B01A
S3150800063458450CBF4FF0080B4FF0090B0BFA04F49E
S3150800064400E00024A44513D1346824EA0E04346077
S31508000654746824EA0E047460F46824EA0E04F460E8
S31508000664B46824EA0E04B460AC6824EA0804AC60EE
S3150800067404685D000AFA05F524EA05044FEAD30C72
S31508000684046000EB8C0C03F00704DCF820E0A400FB
S3150800069409FA04F42EEA0404CCF82040C46824EACF
S315080006A40504C460446824EA02024260826822EAB5
S315080006B405028260013331FA03F283D1BDE8F08F73
S315080006C407FA04F4BEE74FF0020B0BFA04F4B9E791
S315080006D44FF0050B0BFA04F4B4E74FF0030B0BFACF
S315080006E404F4AFE74FF0040B0BFA04F4AAE74FF04F
S315080006F4060B0BFA04F4A5E770474FF0070B0BFA41
S3150800070404F49FE7003C0140000002400008024050
S31508000714000C024000100240001402400018024077
S31508000724001C0240002002400369194214BF01203C
S315080007340020704702B9090481617047022988BFFD
S315080007444FF4407110B40F4B98BF09021C69F82284
S3150800075424F440741C611C6921431961196921F048
S31508000764F801196192FAA2F2B2FA82F21969904072
S31508000774084340F0020018611A6942F480321A618B
S3150800078410BC7047003C0240144B1A6891050FD5FB
S315080007941A6822F400721A601A6842F400621A602F
S315080007A41A6822F400621A601A6842F400721A601F
S315080007B40A4B1A6852050FD51A6822F480621A6021
S315080007C41A6842F480521A601A6822F480521A602F
S315080007D41A6842F480621A60704700BF003C0240FF
S315080007E42DE9F8432D4F3B7E012B38D001230446CF
S315080007F44CF2503088463B7600F014F9064648BB5E
S315080008044FF0FF33C8F800302368012B2BD0D4E906
S3150800081402532B44AB421BD9DFF8849005E001351B
S31508000824D4E902231344AB4212D92846217CFFF7A4
S3150800083485FF4CF2503000F0F5F8D9F8103023F063
S31508000844FA03C9F810300028E9D00646C8F800505B
S31508000854FFF79AFF00233B763046BDE8F883022665
S315080008643046BDE8F8830E4D23692A691B0222F433
S3150800087440722A612A699BB242F004022A612A69F3
S315080008844CF25030134343F480332B6100F0CAF81A
S315080008942B69064623F004032B61D9E7B40000202C
S315080008A4003C024010B54FF0FF320024074B1A6291
S315080008B41C625A625C621A611C615A615C619A61C3
S315080008C49C6101F039FC204610BD00BF0038024087
S315080008D438B54FF47A730D4A054611780C4AB3FBBA
S315080008E4F1F31268B2FBF3F001F0EEF808B90F2D34
S315080008F401D9012038BD0446024629464FF0FF3087
S3150800090401F0A6F8034B20461D6038BD40000020C0
S31508000914480000204400002008B50B4B03201A6841
S3150800092442F400721A601A6842F480621A601A68FD
S3150800093442F480721A6001F079F80020FFF7C8FFC4
S3150800094401F05AFB002008BD003C024038B50446B5
S3150800095402F022F9631C054602D0044B1B781C449A
S3150800096402F01AF9401BA042FAD338BD4000002011
S315080009741B4BDA68D10606D510201A49CA6942F013
S315080009840802CA61D860164BDA68920606D5202092
S315080009941449CA6942F00402CA61D860104BDA687D
S315080009A4500606D540200F49CA6942F00202CA61B8
S315080009B4D8600B4BDA68110606D580200949CA693E
S315080009C442F00102CA61D860054BDA68920706D577
S315080009D402200449CA6942F01002CA61D860704705
S315080009E4003C0240B4000020064B1A69002A01DBC9
S315080009F4002070470449054A59605A601869C00FAF
S31508000A04704700BF003C024023016745AB89EFCD20
S31508000A14034A0020136943F000431361704700BF7B
S31508000A24003C02400022144B70B50446DA6102F019
S31508000A34B3F80546114EF368D90305D5631C0FD1DF
S31508000A440E4AD368D803FCD40C4BDA68D20744BFE1
S31508000A540122DA60094BD86810F0F20008D170BD9B
S31508000A6424B102F099F8401BA042E4D9032070BDD2
S31508000A74FFF77EFF012070BDB4000020003C024051
S31508000A842DE9F041304F97F818C0BCF1010F32D068
S31508000A941C46012380464CF250300E4615463B76DA
S31508000AA4FFF7C0FF18B100233B76BDE8F081274B5A
S31508000AB4B8F1000F22D0B8F1010F35D01A69B8F190
S31508000AC4020F22F440721A611A6924D042F4407261
S31508000AD41A611A6942F001021A613560BFF36F8F11
S31508000AE474604CF25030FFF79DFF184A136923F0DF
S31508000AF401031361D7E70220BDE8F0811969EAB258
S31508000B0421F44071196119691961196941F00101E2
S31508000B1419613270E5E742F400721A611A6942F003
S31508000B2401021A613560DCE71969AAB221F4407139
S31508000B341961196941F480711961196941F0010152
S31508000B4419613280CDE700BFB4000020003C0240A2
S31508000B54F8B502F021F8374C0546236843F001033B
S31508000B64236004E002F018F8401B022860D82368C2
S31508000B749907F7D5236841F2883743F08003236041
S31508000B8402F00AF8002305462A4EA36004E002F0A0
S31508000B9403F8401BB8424BD8B36813F00C0FF6D1D0
S31508000BA401F0FAFF3368044623F45023214D3360D9
S31508000BB404E001F0F1FF001B642839D82B689A0376
S31508000BC4F7D401F0E9FF2B68064623F08073194C25
S31508000BD42B6004E001F0E0FF801B642828D8236812
S31508000BE49B01F7D4144B134E636001F0D5FF2368B9
S31508000BF4054623F08063236004E001F0CDFF401B23
S31508000C04022815D8336813F00063F6D14FF0FF3085
S31508000C140A4A0B49C6F88420F3600A4A70670A4BE5
S31508000C2408681360FFF754FE003818BF0120F8BDA2
S31508000C340320F8BD003802401030000400300020BC
S31508000C4444000020480000200024F400002800F096
S31508000C54B0812DE9F04103680446DD0782B021D549
S31508000C64A0498A6802F00C02042A00F0E8808A681F
S31508000C7402F00C02082A00F0DE802379994DAB7045
S31508000C846368002B00F0C88001F086FF064605E07D
S31508000C9401F082FF801B642800F2FD802B689B0309
S31508000CA4F6D5236899072DD58E4B9A6812F00C0F42
S31508000CB400F098809A6802F00C02082A00F08E80E8
S31508000CC4E368002B00F0FD800122874B854E1A60ED
S31508000CD401F062FF054605E001F05EFF401B0228AD
S31508000CE400F2D98033689F07F6D5F822316892FA5C
S31508000CF4A2F2B2FA82F2236921F0F80193400B4377
S31508000D04336023681A0754D45D0733D5754A136CC0
S31508000D1413F0805340F08D8001250193136C43F042
S31508000D2480531364136C03F080530193019B6F4E35
S31508000D34336843F4807333603368D80540F19B8085
S31508000D44237A684E86F87030A368002B00F0A780D3
S31508000D5401F022FF41F28838074605E001F01CFF3E
S31508000D64C01B404500F29780336F9A07F6D5002DCD
S31508000D7440F0E880A369C3B15A4DAA6802F00C0290
S31508000D84082A00F0B5800022022B574B1A6600F099
S31508000D94DF8001F001FF044604E001F0FDFE001BBC
S31508000DA4642878D82B689B01F7D4002002B0BDE8E4
S31508000DB4F0816369FBB101224B4B4A4EC3F8802E7E
S31508000DC401F0EAFE054604E001F0E6FE401B0228AF
S31508000DD461D8736F9B07F7D5236895E75B685A0252
S31508000DE43FF56EAF3F4B1B689B0732D5E368012B73
S31508000DF42FD00120DAE73C4A3A4EC2F8803E01F089
S31508000E04CBFE054604E001F0C7FE401B022842D883
S31508000E14736F9F07F7D4DFE701F0BEFE064604E0CA
S31508000E2401F0BAFE801B642835D82B689F03F7D4D3
S31508000E3437E700257BE74A6851027FF51EAF294A42
S31508000E44126892037FF52EAF6268002A7FF42AAFF0
S31508000E54CFE72448F822016892FAA2F2B2FA82F29B
S31508000E64236921F0F80193400B43036023681A07AA
S31508000E747FF54AAF9DE7336843F48073336001F026
S31508000E848BFE07463368D9053FF55AAF01F084FE51
S31508000E94C01B0228F6D9032002B0BDE8F08101F090
S31508000EA47BFE41F28838074604E001F075FEC01B54
S31508000EB44045F0D8336F9B07F7D4002D3FF45AAF5B
S31508000EC440E0094A074E136001F066FE054604E051
S31508000ED401F062FE401B0228DDD833689907F7D46F
S31508000EE423680FE7003802400000474200700040BC
S31508000EF4012B3FF47EAF6B68E26903F480019142EB
S31508000F047FF477AF226A03F03F0191427FF471AF11
S31508000F1447F6C072616A1A40B2EB811F7FF469AF63
S31508000F24A26A03F440315208013AB1EB024F7FF446
S31508000F3460AFE26A03F07063B3EB026F14BF01207B
S31508000F44002033E71C4A136C23F08053136411E71B
S31508000F5401F022FE064604E001F01EFE801B64280A
S31508000F6499D82B689901F7D40120D4E907316A681E
S31508000F740B4312490A40616A134343EA8113D4E9CD
S31508000F840A21C24043EA0163013A0D4943EA02438E
S31508000F946B60086601F000FE074D044605E001F0A3
S31508000FA4FBFD001B64283FF676AF2B689A01F6D53D
S31508000FB4FBE60120704700BF003802400080BCF001
S31508000FC40000474208B516498B6803F00C03042B46
S31508000FD41BD0082B01D0134808BD4A684B6802F099
S31508000FE43F0213F48003496811D10E48C1F38811EE
S31508000FF4A1FB0001FFF7C4F8094B5B68C3F301437F
S3150800100401335B00B0FBF3F008BD074808BD06488A
S31508001014C1F388110023A1FB0001FFF7B1F8EBE740
S31508001024003802400024F40000127A00002800F078
S315080010348F802DE9F0414A4A044613680D4603F0A9
S315080010440F038B4209D2CBB21370136803F00F0354
S315080010548B4202D00120BDE8F0812368990716D592
S315080010645A0705D53F4A936843F4E05393602368C7
S315080010741B0704D53B4A936843F460439360394A93
S31508001084A168936823F0F0030B4393602368DF0792
S3150800109420D56268334B012A1B685BD0022A54D0D8
S315080010A49907D7D52F4E41F28838B36823F003033E
S315080010B41343B36001F070FD074604E001F06CFDCC
S315080010C4C01B404549D8B368626803F00C03B3EB08
S315080010D4820FF3D1224A136803F00F03AB4206D9F1
S315080010E4EBB21370136803F00F03AB42B2D1236853
S315080010F45A0707D51B4AE168936823F4E0530B4360
S31508001104936023681B0707D5164A2169936823F455
S31508001114604343EAC1039360FFF754FF114BF02180
S315080011249A68034691FAA1F1B1FA81F10E4D02F0DB
S31508001134F002CA40AA5C0D480D4CD34000682360EF
S31508001144FFF7C6FB0020BDE8F0819801AAD481E721
S31508001154012070479E03A5D47CE703207BE700BFE4
S31508001164003C0240003802402C7900084400002064
S3150800117448000020014B1868704700BF480000204B
S3150800118470B50446002977D1D4E902031843E26905
S315080011942168B2FA82F20D683C4B52092B4003438C
S315080011A443EA822343F400730B60236801201D6815
S315080011B4FFF7CCFB4022236801201D600025236825
S315080011C45A6023685E68FFF7C1FB4FF641712368CE
S315080011D401205E6023689D602368DD602268936948
S315080011E40B4043F08003936123689E69FFF7AEFBC7
S315080011F4236801209E612368DD612368DD69FFF7A2
S31508001204A5FB2268224BD5612268012002F580528B
S3150800121491690B4043F0087343F004039361236810
S3150800122403F580539D69FFF791FB2368194A03F573
S3150800123480539D612368012003F580531A6023684F
S3150800124403F580531D68FFF781FB236803F5805374
S315080012541D60A369012B08D1226802F58052D3695F
S3150800126443F4803343F04003D36162690A4B91889F
S31508001274196412685A6470BD4FF480424FF40063CF
S315080012844FF49040C4E9022381E700BF0F8120FF91
S31508001294233FDEF88020C10200800240F0B50446F0
S315080012A490F84500012838D001200225E16284F827
S315080012B4445084F8450023B38C464FF0000E4FF48F
S315080012C480165F1E01EB4315CCF80060CCF80820A5
S315080012D4E0690CF1200328B9DCF8000040F440006A
S315080012E4CCF8000077458EBF184608460CF1200353
S315080012F4AB42CCF80C000EF1010E9C4602F2F452F5
S31508001304E2D1002201252368104603F580531961AA
S3150800131484F8445084F84520F0BD0220F0BD00BF8F
S315080013242DE9F041064690F84500012836D00120FB
S315080013340224B16286F8444086F845000BB38C460D
S315080013444FF0000E4FF0004744F2F45003F1FF3813
S3150800135401EB4315C6450CF1200332BF1C460C4667
S315080013640CF12003AB42CCF80820CCF80070CCF87A
S315080013740400CCF80C400EF1010E9C4602F2F4521D
S31508001384E8D1002201243368104603F58053D96056
S3150800139486F8444086F84520BDE8F0810220BDE879
S315080013A4F08100BF90F84520012A00F088800346A2
S315080013B40122022083F8452083F84400002947D0F7
S315080013C430B5DC6A2268002A71DB40F2F452914295
S315080013D448D93C48A0FB010C4FEA9C2C02FB1C1282
S315080013E4002A3CD00CF1010C374A01F2F45102FBF5
S315080013F40C1122684FF0000E22F04052226040F28F
S31508001404F454D86AC1F30C0102680CF1FF3542F0B2
S3150800141480520260DA6A5460D86A0EF1010E0268D4
S31508001424F44542F000420260DA6AD268DA6229D0E8
S315080014341068754520F040501060DA6A5460EBD1A4
S31508001444D86A026842F000520260DA6A5160E3E739
S3150800145483F844200022012083F845207047BCF114
S31508001464010FC1D12268C1F30C0142F04052226037
S31508001474DA6A5160D96A0A6842F000420A60DA6A8E
S31508001484D268DA621A6802F580525169490706D5A4
S315080014940420002150611A6802F580525160002226
S315080014A4012183F8452083F84410104630BD1222E2
S315080014B483F84420002283F84520012030BD022009
S315080014C4704700BF0BB002AC0CFAFFFF90F845203A
S315080014D4012A44D003460221012010B49A6A83F8EB
S315080014E4450083F84410116800290BDB116811F4D0
S315080014F4807110D11468A4052BD5C3E90C2198630F
S31508001504D2689A620122002183F8442083F84510A0
S31508001514104610BC7047996B00240144814208BFE9
S3150800152410464FF0010C996308BF1A635A63116891
S3150800153418BF186BC1F30D410439D9638168204675
S315080015441964D26883F844C09A6283F8454010BC8B
S315080015547047996B01319963D2689A62D2E702207F
S31508001564704700BF90F84430822B33D070B50446D8
S31508001574154682220068238A84F844200269890170
S31508001584DB0201F4F8619BB20B4302F01C0213431D
S3150800159443F00103036101F0FFFA064604E02168FB
S315080015A40B6913F001030DD001F0F6FA831BB3F5AA
S315080015B4803FF4D30122002384F8442084F845307C
S315080015C4032070BD01264A69184692B22A6084F837
S315080015D4446070BD0220704738B590F84430422BF9
S315080015E431D004464225238A00688901DB0284F83F
S315080015F4445001F4F8619BB20B43016992B242610B
S3150800160401F01C021343216843F003030B6101F044
S31508001614C3FA054604E023681B6913F001030DD0D9
S3150800162401F0BAFA431BB3F5803FF4D30122002331
S3150800163484F8442084F84530032038BD012284F810
S315080016444420184638BD022038BD00BF0023F0B533
S3150800165483B00093002800F0878090F8443004464D
S3150800166403F0FF02002B6CD00021694A0191516CEA
S31508001674684B41F480415164526C02F480420192F1
S31508001684019A5A6822F400025A605A68216A0A437F
S315080016945A60236803F580531A6842F001021A60F7
S315080016A401F07AFA054605E001F076FA401BB0F532
S315080016B4FA7F3CD8236803F580521268D007F3D41E
S315080016C41D69FFF757FD544B544A0344934225F0CA
S315080016D41C054DD245F0080523684FF400421D61E8
S315080016E400212046FFF778FF0546B0BBFF20FFF729
S315080016F42DF96168002943D001F04EFA41F2883782
S31508001704064602E0009B590720D46A460121204672
S31508001714FFF728FF01F040FA831BBB42F2D90121E7
S315080017242046FFF72DFD012384F8443002E0032305
S3150800173484F8443003250023284684F8453003B04A
S31508001744F0BD80F8452000F071FA8DE74FF4805219
S3150800175400212046FFF740FF98B301212046FFF7F2
S315080017640FFD012384F844300125284603B0F0BD53
S315080017742B4B2C4A034493421BD845F00C05ABE784
S31508001784D4E902325B0843EAD202204692B2FFF752
S3150800179423FF0028E1D140F6FF70FFF7D7F820466B
S315080017A40021FFF7EDFC0123284684F8443003B0F2
S315080017B4F0BD1D4B1D4A0344934228BF45F004055A
S315080017C48AE701F0E9F941F28837064602E0009B08
S315080017D49A060AD46A4601212046FFF7C3FE01F099
S315080017E4DBF9801BB842F2D999E76A4610212046EC
S315080017F4FFF7B8FE0028B0D1009AC2F38003DB02D3
S31508001804E360930756BF4FF48043A060A360C6E71E
S31508001814003802400038014000D3CEFEC0E1E4009F
S3150800182440F1E9FD3F787D0100796CFC005A6202BB
S3150800183490F84530012B70D010B5024600234FF0BE
S31508001844010E4FF0020C86B0006882F844C082F894
S3150800185445E002930368324C43F0080303603149B8
S3150800186423681068A1FB031301685B0A02910393BA
S3150800187400BF039B591E0391002BF9D102981168E6
S315080018840860106801930368264943F0040303605B
S3150800189423681068A1FB031301685B0A019104938A
S315080018A400BF049B591E0491002BF9D101981168B5
S315080018B408601168009301F580518869236840F42B
S315080018C48010184C8861A4FB034311685B0A01F570
S315080018D4805189690091059300BF059B591E05919E
S315080018E4002BF9D11168009801F5805188611168B7
S315080018F4012401F58051886940F400508861116813
S3150800190401F58051886940F002008861184682F81A
S31508001914453082F8444006B010BD0220704700BF27
S3150800192448000020D34D6210C3689B0401D50120EA
S31508001934704730B50D4604464B68C968C2680B4300
S31508001944296922F416420B43A96922F00C020B43B7
S31508001954134385B0C3600369AA6823F44053134349
S31508001964036143696A6923F4407313434361684610
S31508001974FEF7B8FC294B9C4218D0294B9C420ED042
S31508001984284B9C420BD003F54C439C420ED0A3F53E
S3150800199448439C4203D003F580639C4203D1029BCF
S315080019A40BB12A6822B9012005B030BD039BF7E7BD
S315080019B4A96903EB8303B1F5004F03EB830314D042
S315080019C49200B3FBF2F364201749A1FB03525209B0
S315080019D400FB12331B013233A1FB0313120102EB82
S315080019E453139BB2A3600020DEE75200B3FBF2F365
S315080019F464200D4AA2FB0351490900FB1133DB009D
S31508001A043233A2FB0323C3F342121B0902EB01126E
S31508001A1403F4F87313449BB2A360E4E7001001408F
S31508001A2400440040004800401F85EB514FF6FF0C68
S31508001A3406490302CA6803F4E06302EA0C02134384
S31508001A4443F0BF6343F40033CB60704700ED00E016
S31508001A5400B51B4BDB68C3F30223C3F1070EBEF1C3
S31508001A64040F03F1040C28BF4FF0040EBCF1060F53
S31508001A741CD9A3F1030C4FF0FF3303FA0CF322EA43
S31508001A8403024FF0FF3303FA0EF321EA030303FAC2
S31508001A940CF313431B010028DBB20ADB00F1604098
S31508001AA400F5614080F800335DF804FB0022944693
S31508001AB4E7E7044A00F00F00024413765DF804FBD6
S31508001AC400ED00E0FCEC00E00138B0F1807F01D3C2
S31508001AD4012070474FF0E02300224FF0F00C072155
S31508001AE410B4044C586184F823C09A6119611046ED
S31508001AF410BC704700ED00E0704700BF704700BF98
S31508001B04704700BF00487047D87A000800487047F5
S31508001B14B87A000800487047947A0008012906D163
S31508001B241378C3F34113022B03D000207047012016
S31508001B3470475378012BF8D19388072BF5D11146B2
S31508001B449E23014A03F01CBEF479000870B5314A95
S31508001B5484B0137853BB304D01242B462F490DF11D
S31508001B64040ED1F8106A0196D1F8146A0296D1F8CF
S31508001B74181A1470039105F118041EF8011B023390
S31508001B8401F00F029F294FEA111C8CBF0CF1370193
S31508001B940CF13001092A8CBF3732303203F8021CA3
S31508001BA403F8012CA342E8D100232B7658B94FF445
S31508001BB4417C1B4B1B4D1B681B886B801948A5F879
S31508001BC400C004B070BD032822D8154B154D53F830
S31508001BD420402046FEF7EEFAC0B21F28864628BFE4
S31508001BE44FF01F0E0EF1010C5FFA8CFC4FEA4C0CF9
S31508001BF44CF4407C0028E1D029460023621E0133B8
S31508001C0412F8010FDBB29E4521F8020FF7D8D5E783
S31508001C140020D6E7D40000205C0000200070FF1FD7
S31508001C244C000020D800002000F092BFF0B5002434
S31508001C34414B02688FB09A42CDE90844CDE90A447B
S31508001C440C9401D00FB0F0BD0194A3F590431A6B20
S31508001C54032642F000721A631A6B0B2502F000720F
S31508001C640192019A02941A6B344842F080621A630C
S31508001C741A6B022702F080620292029A03941A6B84
S31508001C8442F000621A631A6B02F000620392039A26
S31508001C9404941A6B42F004021A631A6B02F00402E3
S31508001CA40492049A05941A6B42F001021A631A6B99
S31508001CB402F001020592059A06941A6B42F0020292
S31508001CC41A631A6B02F002020692069A07941A6BB2
S31508001CD442F040021A631B6B322203F04003079357
S31508001CE40223079908A9CDE90823CDE90B65FEF770
S31508001CF42DFB862308A91248CDE90837CDE90B65DB
S31508001D040A94FEF723FB4FF4005308A90D48CDE9BE
S31508001D140837CDE90A460C95FEF718FB4FF420530D
S31508001D24094808A9CDE90A4609970C950893FEF7C8
S31508001D340DFB0FB0F0BD00BF008002400008024052
S31508001D4400000240000402400018024038B54FF46F
S31508001D54804101250022154C44F25B5C4FF4006077
S31508001D64C4E901514FF40001114BC4E90622228249
S31508001D74104AA3F804C063611A600F4BE06020465A
S31508001D8423602162FFF762FC042320460B4A0C49B0
S31508001D94FFF784FA042320460A4A0B49FFF7C0FAD8
S31508001DA42046BDE83840FFF743BD00BFC0310020D8
S31508001DB4180100200800276900800240200100203D
S31508001DC4C0300020F018002040310020034A044B9C
S31508001DD41168928819609A80704700BF180100201C
S31508001DE464440020064B1A7802705A7842709A782E
S31508001DF48270DA78C2701A7902715B794371704716
S31508001E041801002070B5104D2846FFF75FFB10B186
S31508001E140026304670BD0446AE8F296C32460B4800
S31508001E2405F05EFD2A6B136843F0004313602B68C4
S31508001E34AC6303F580535A691206EAD580225A61BF
S31508001E449C60304670BD00BFC0310020203E002093
S31508001E5470B5134EF56A00F07BFE00F1FA0405E04E
S31508001E6400F022FA00F074FEA0420ED82B68002B6C
S31508001E74F6DB0C4AF36A14880B492246986805F07F
S31508001E842FFD21460648FFF78DFA336803F580537C
S31508001E945A69920603D52021002259615A6070BDF9
S31508001EA4C0310020143E0020203E0020014B18803B
S31508001EB4704700BF1032002010B500F049FE0D4CE3
S31508001EC4236898420ED30C4B1A7862B100228021FB
S31508001ED40A481A70FEF72EFC00F03AFE084B1B88D7
S31508001EE40344236010BD0122802104481A70FEF7BA
S31508001EF421FCF1E70C3200200832002000040240DD
S31508001F0410320020002280210148FEF713BC00BFCE
S31508001F14000402404FF4005108B50548FEF704FCD6
S31508001F24012803D0FFF7EEFF012008BD002008BDF5
S31508001F34000802406420FFF7B9BF00BFFFF7BCBF23
S31508001F44704700BF704700BF704700BF002480B5C4
S31508001F5492B08DF80340FEF7DFFC04234FF48002A9
S31508001F6402210E93C02301260527CDE90C120F93EF
S31508001F740422082306A8CDE90667CDE90944CDE974
S31508001F840244CDE90444CDE91023089401940B9442
S31508001F94FEF75CFE00BB02210F2400224FF4A05377
S31508001FA44FF48055CDE9014101A80321CDE9032366
S31508001FB40595FFF73BF8A0B900F016F900F076F995
S31508001FC400200DF1030100F043F99DF80330012BBD
S31508001FD40CD000F07BF9FCE79321064800F05EF983
S31508001FE4D9E7A221034800F059F9E5E700F06CFAAD
S31508001FF4EFE700BF60790008F0B50025012291B02B
S31508002004484C0195236C802643F080532364236C43
S31508002014454F03F080530193019B0295636C384640
S3150800202443F480436364636C0AA903F4804302930C
S31508002034029B0395236B13432363236B1340039378
S31508002044039B0495236B43F002032363236B03F07A
S3150800205402030493049B0595236B43F0040323634B
S31508002064236B03F004030593059B0695236B43F042
S3150800207408032363236B03F008030693069B07955B
S31508002084236B43F040032363236B03F04003079356
S31508002094079B0895236C43F480232364236C0B92D3
S315080020A403F480230893089B0A96CDE90C55FEF79A
S315080020B44DF92A4631463846FEF73CFB4FF40052A2
S315080020C400230AA91948CDE90A23022703260C95F1
S315080020D4FEF73CF94FF4407307220AA91448CDE9E0
S315080020E40A370E92CDE90C56FEF730F90A224FF458
S315080020F4C05310480AA90A93CDE90C560B970E92B9
S31508002104FEF724F9636B43F0800363630995636CF4
S3150800211443F480436364636C03F480430993099B23
S3150800212411B0F0BD00380240000402400008024025
S31508002134000C02400000024038B5274CFEF708FDA3
S31508002144002220468021FEF7F5FA20468021FEF774
S315080021542DFAA4F580644FF400512048FEF726FAB8
S3150800216420464FF40061FEF721FA20464FF48051C9
S3150800217404F56054FEF71AFA636B194D23F08003CD
S3150800218463634FF480712846FEF710FA4FF4007122
S315080021942846FEF70BFA236C23F480232364236B67
S315080021A423F040032363236B23F008032363236B81
S315080021B423F004032363236B23F002032363236BB3
S315080021C423F001032363236C23F080532364636C95
S315080021D423F48043636438BD0004024000080240C7
S315080021E4000C0240704700BF70B5164D164B2A689E
S315080021F4EC1C9A4214D005F13B06134B38220021F5
S3150800220412482B6005F040FB40F29923224612F847
S31508002214011F0B4496429BB2F9D15B42AB8770BD52
S31508002224224640F2992305F13B0612F8011F0B4496
S31508002234B2429BB2F9D1AA8F5B429BB29A42DCD1D5
S3150800224470BD00BF00000020A2E742CE04000020B3
S3150800225410B5104C104B22689A4201D0002010BDCC
S3150800226440F29923E21C04F13B0E12F801CF6344B1
S3150800227472459BB2F9D1A28F5B429BB29A42EDD1C9
S315080022843728EBD821B10444237901200B7010BDFB
S31508002294084610BD00000020A2E742CE08B500F0AB
S315080022A403F8FCE7FFF746BEFFF748BE08B500F09B
S315080022B44BFFFFF7F7FF00F0C9FB01F04FF800F0FA
S315080022C45FF8BDE8084000F02FB800BF08B5FFF76F
S315080022D4EBFF00F019FC00F063F8BDE8084000F0D5
S315080022E401B800BF10B500F0E7F8012803D00B4C7D
S315080022F42378012B00D010BD00F02AFC084B094AAC
S315080023041B681268134403F5FA739842F3D300233F
S315080023142370BDE8104000F019BF00BF1C3200202E
S315080023241432002018320020012208B5044B1A7012
S3150800233400F00EFC034B1860BDE80840FFF7D2BF57
S315080023441C32002018320020014B1860704700BF69
S3150800235414320020014B1868704700BF143200205D
S3150800236408B5054B1B78012B00D008BD00F0F0FB1F
S31508002374024B186008BD00BF1C320020183200202A
S3150800238410B500F003FA00F02BFC0023034C23706D
S3150800239400F012FF0323237010BD00BF7500002050
S315080023A400B583B020480DF1070100F073FC01283D
S315080023B410D01D480DF1070100F06EFF012818D052
S315080023C419480DF1070100F009F9012820D003B0D6
S315080023D45DF804FB0022154B9DF8071012481A7085
S315080023E400F0F2F910480DF1070100F055FF012835
S315080023F4E6D103220D4B9DF807100B481A7000F01E
S31508002404E3F909480DF1070100F0E8F80128DED1DF
S315080024140422064B9DF8071003481A7000F0D4F9F5
S3150800242403B05DF804FB00BF2032002075000020CD
S3150800243400F0F6BE70B5114E054633780C463BB12E
S31508002444032B0BD0042B10D0BDE8704000F0B4B9B0
S31508002454C9B200F0E5FB3378032BF3D12846E1B281
S3150800246400F0ECFE3378042BEED12846E1B200F0F6
S315080024748DF8BDE8704000F09FB900BF75000020D4
S31508002484054B1B78022B04D0032B0CBF3F2081205D
S3150800249470470820704700BF75000020054B1B785D
S315080024A4022B04D0032B0CBF3F2081207047082041
S315080024B4704700BF7500002008B500F073F90038AE
S315080024C418BF012008BD00BF08B500F051F8042262
S315080024D4024B1A70BDE80840FFF742BF750000209A
S315080024E438B5FFF733FC00F033FB1A4B00F5FA70E6
S315080024F4186042F2107400F02BFB174B2044186046
S3150800250401F032F80023154A1549164D4EF6030014
S315080025140B602B60136001F077F8FFF757FC12483D
S31508002524FFF760FC0621104802F034F902F098FA25
S31508002534FFF710FF42F20F73984203D901220B4B9F
S315080025441A7038BD2046FFF7FFFE0122074B1A70A2
S3150800255438BD00BFB0320020AC32002070440020E1
S315080025646C44002074440020A4320020A1320020C8
S315080025740021044B044A1B78117003B17047FFF716
S31508002584AFBF00BFA132002076000020114B1B7894
S31508002594012B00D0704730B40F4B1C68E5692562DF
S315080025A4A9B14A1E92B2431E104404F1230213F839
S315080025B401CF834202F801CFF9D1043101231D4426
S315080025C4A4F8A610E56184F8A83030BC7047042145
S315080025D4F4E700BFA13200200C3E0020F8B5394BC1
S315080025E41D78012D01D00020F8BDFFF70BFC364CF1
S315080025F4002839D100F0ACFA344A354D1368354E03
S3150800260498421CD303F5FA73022013602E6001F076
S315080026140DF823882BB101F03BFFFFF719FC0023C3
S3150800262423802D4B2D4A05201A6000F0FFFF2388CE
S315080026342BB101F02DFFFFF70BFC0023238000F0DC
S3150800264487FA274A1368984228D203202E6000F096
S31508002654EDFF2388002BC6D001F01AFFFFF7F8FB1D
S31508002664002323800020F8BD1E4E20804FF400600E
S31508002674B78901F0DDFD874217D040F60600B58913
S3150800268401F0D6FD8542B5D101F0AEFE2388002BB4
S31508002694B0D0FFF7DDFB00232380ABE703F51C531B
S315080026A41033136001F078FECFE7284600F0BEFF2A
S315080026B42388002B9ED001F0EBFEFFF7C9FB00230D
S315080026C4238097E7A1320020143E0020B032002070
S315080026D40C3E0020603D0020583D0020183D002097
S315080026E4AC320020203E002038B5244D244A2B78ED
S315080026F4146813F0400229D1D80719D584F8A920FB
S315080027041A0703D594F8A820012A27D09B0724D5AD
S315080027141C4B1988852920D894F8A930EBB91A4B8B
S3150800272404391868C9B20430BDE8384000F04CB81A
S315080027345907E5D594F8A920012AE1D1B4F8A610D9
S3150800274404F1200001F078FD2B78D9E70023012253
S31508002754A4F8A630E261A4F8A83038BD0020B4F87D
S31508002764A61084F8A8000029D0D084F8A92004F17A
S31508002774200001F061FD2B78C8E700BF103E002059
S315080027840C3E0020143E00201C3E00200022044B70
S31508002794C3F88820A3F88620C3F88120704700BFB1
S315080027A4B4320020034B93F88100003818BF012087
S315080027B4704700BFB43200200022024B83F88420FD
S315080027C4704700BFB4320020F8B50378FF2B40D019
S315080027D49B4C94F88120012A5FD1C93B0546352BC9
S315080027E45CD8DFE813F005015B005B007B005B0047
S315080027F45B007E0084007500A2005B005B005B0042
S315080028045B005B005B005B005B005B005B005B00DE
S315080028145B005B005B005B005B005B005B005B00CE
S315080028245B005B005B005B005B005B005B005B00BE
S315080028345B005B005B005B005B00AD00C800DF006B
S31508002844E7005B005B005B00ED005B001D01F50023
S31508002854FF0041F2FF0200230121794C2280A37074
S31508002864A4F88110FFF70CFEE070FFF717FE20713D
S31508002874FFF714FE082340F20112D8406071E28083
S31508002884A4F8863000F06AFD94F88430012B10D041
S31508002894B4F98630002B00F3C680F8BD42F2FE0276
S315080028A40223228094F88420A4F88630012A40F072
S315080028B4BA80022341F2FE0219462280A4F8863021
S315080028C4012384F884305E48BDE8F840FFF7B2BDBA
S315080028D44168D4F8880000F045FD20B943F2FE1299
S315080028E4DEE700F033FCFF2323700123DAE7FFF762
S315080028F4C7FD6B780138984240F397800122FF237D
S31508002904A4F8862069782370002900F09180D4F809
S315080029148800AA1C00F024FD0028DFD06A78D4F8C1
S3150800292488301344C4F88830AEE7FF230025238093
S31508002934A570FFF7A5FD0723A580E070A571B1E78B
S31508002944FF234768D4F888602370002F76D00025C3
S31508002954374416F8013B1D44FFF7A6FCB742EDB20F
S31508002964F7D10023012225716371E380A4F80120BD
S31508002974E370082396E7FFF783FD6B78834254D206
S315080029846968C4F888106A782E4800F001FCFF21AB
S315080029946A78D4F8883021701344C4F888306B7880
S315080029A401337FE7FFF76CFD6A7890423DD9D4F886
S315080029B48810E9E7FF2342682370C4F8882094E75F
S315080029C4FF2207232049C4E90023C4F88810D0E766
S315080029D40022FF2194F882000623A070E270218069
S315080029E4A2805FE70022FF23A4F8812023707CE7F6
S315080029F4D4F88860FFF744FD01466A1C304601395D
S31508002A0400F0AEFC00283FF469AFFF232370FFF7FC
S31508002A1437FDD4F88830421E1344C4F8883064E776
S31508002A244FF0FE023CE799B24AE742F2FE2237E744
S31508002A3400F09EFC00283FF451AF25E73D4690E799
S31508002A44B4320020B5320020EC7A000870B4184A73
S31508002A5483B0536C012643F001035364516C4FF65B
S31508002A64FF7501F001010191019912489168124C10
S31508002A7403689068C1F34232A25C0024D34010F480
S31508002A84604F0E4A18BF5B005B09A2FB03230C4A7E
S31508002A94DB09013B1660D5629362536909483343DF
S31508002AA4536104600849536A0B8003B070BC7047CD
S31508002AB4003802404800002024790008C55A7C0AD8
S31508002AC400000140443300204033002010B44FF086
S31508002AD4E02200214FF00074094B586A40F00100C7
S31508002AE45862586A20F001005862586C20F00100B8
S31508002AF45864044B1161516191615C6010BC704764
S31508002B040038024000ED00E00D4B0E485B6A018870
S31508002B145B1A9BB2632B12D90B4A10B4A2FB03238C
S31508002B245A090A4C02EB820202EB820201EB820189
S31508002B342268018002EB5312226010BC704770476A
S31508002B4400000140403300201F85EB514433002028
S31508002B5430B40D4B0D495B6A0A880D4C9B1A9BB21F
S31508002B64632B20680DD90B4DA5FB035300EB5310BB
S31508002B745B0903EB830303EB830302EB8302206005
S31508002B840A8030BC704700BF000001404033002073
S31508002B94443300201F85EB5130B40D4B0D495B6A55
S31508002BA40A880D4C9B1A9BB2632B20680DD90B4DD2
S31508002BB4A5FB035300EB53105B0903EB830303EBF9
S31508002BC4830302EB830220600A8030BC704700BF8F
S31508002BD40000014040330020443300201F85EB5198
S31508002BE44FF46140D0B500230C2600270B4C88B05F
S31508002BF4E268694622F40052E26000902046CDE974
S31508002C04013303930693CDE90467FEF78DFEE36863
S31508002C1443F40053E36008B0D0BD00BF0048004049
S31508002C248129F8B50E4607462BD8184D6E60FFF76E
S31508002C348FFF00F10A0405E0FFF736FBFFF788FF6C
S31508002C44844202D32B681A06F6D5CEB1731E9BB2FC
S31508002C540E4D7E1E1F44FFF727FB16F8013F6B60D7
S31508002C64FFF776FF00F10A0405E0FFF71DFBFFF7FF
S31508002C746FFF844202D32B681B06F6D5BE42EAD1FF
S31508002C84F8BD7E210248FFF709FBCEE7004800405D
S31508002C9468790008F8B51F4E34782CB91E4B1A68A3
S31508002CA4920613D40020F8BD0D461B491B4F0C6829
S31508002CB43A7814F020041AD1FFF74AFF184B1B6818
S31508002CC4C8339842EED900203470ECE75B6815499E
S31508002CD4DBB25A1ED2B2802A0B70E3D8FFF738FF4C
S31508002CE401230F4A0D4910600C703370DAE74C68FB
S31508002CF40C49531C0A4454700A78DBB29A423B7056
S31508002D04D0D1013100F044FA00223B7832702B709E
S31508002D140120F8BDD4330020004800404833002081
S31508002D244C330020503300202DE9F8438046002414
S31508002D34FDF75AFE08F1040906E0E3590434B342E0
S31508002D4413D1B4F5007F15D0D8F8007059F804608B
S31508002D54E519FFF7A9FA2946324600230220FDF7AA
S31508002D648FFE05460028E8D00025FDF751FE2846C3
S31508002D74BDE8F8830125FDF74BFE2846BDE8F88330
S31508002D8470B5114D0C46A84219D0104B99420CD176
S31508002D942B689C4207D028464FF40072214640F817
S31508002DA4044B00F0F5F9284670BD0646FFF7BCFF4C
S31508002DB410B1C4F3080323B10025284670BD044E98
S31508002DC4F7E73546E4E700BFD8330020008000085B
S31508002DD4DC3500202DE9F84306460068984621F4B8
S31508002DE4FF79431C0C46154629F0010931D0814563
S31508002DF424D10434241A3444371DA84405E015F8AC
S31508002E04012B454504F8012B15D0FFF74DFAE21BB3
S31508002E14B2F5007FF3D33168304601F50071FFF748
S31508002E24AFFF064690B1071D3C4615F8012B4545EC
S31508002E3404F8012BE9D10120BDE8F8833046494658
S31508002E44FFF79EFF064608B10068D2E70020BDE8F2
S31508002E54F883374647F8049B38464FF400724946C8
S31508002E6400F096F93068C2E74FF0FF330249034A87
S31508002E740B601360704700BFDC350020D833002090
S31508002E842A4B2DE9F0471B1A91464A1E9A4202D943
S31508002E940020BDE8F087264F06468846BA463C46D3
S31508002EA4002504E001350A2D04F10C04F0D0FFF7DF
S31508002EB4FBF923689E42F5D3626813449E42F1D215
S31508002EC405EB45050AEB85052B7AFF2BE0D0741E26
S31508002ED40025444404E001350A2D07F10C07D7D030
S31508002EE4FFF7E2F93B689C42F5D37A6813449C429F
S31508002EF4F1D205EB45050AEB850A9AF80830FF2B4B
S31508002F04C6D00C4B26F4FF7222F001029A423146CF
S31508002F1443464A4604D0BDE8F0470748FFF75ABF78
S31508002F240648BDE8F047FFF755BF00BFFFFF0F0887
S31508002F34F47A000800800008DC350020D833002025
S31508002F442DE9F0474D4B4A1E1B1A9A4288B004D9FC
S31508002F540024204608B0BDE8F087494E0446884652
S31508002F6400273546FFF7A0F92B689C4203D36A6805
S31508002F7413449C4251D301370A2F05F10C05F1D1AC
S31508002F84FF27013C4FF000093D4D444406E009F192
S31508002F940109B9F10A0F05F10C05D9D0FFF784F92F
S31508002FA42B689C42F3D36A6813449C42EFD209EB1C
S31508002FB4490906EB8909FF2F99F80880C8D0B8F1A2
S31508002FC4FF0FC5D00024B8450194C2D3012FC0D938
S31508002FD4B8F10B0FBDD8012202232A4DCDE90523EA
S31508002FE40294FDF701FDF8B232460023117A0C3239
S31508002FF4814218D001330A2BF8D1FFF755F901A9F4
S3150800300402A80497FDF7ECFBB0BB0137F8B280457C
S31508003014EAD20124FDF7FCFC9BE707EB470706EB1E
S3150800302487073F7AADE703EB430306EB830256F8BB
S315080030342340D2F804A044EA0A039B0704D04FF4B9
S315080030442A712846FFF72AF95FEA9A0ADDD04FF073
S31508003054000904EB8A0A08E0236809F10109013327
S3150800306404F10404C9D15445CFD05FFA89F3002B7F
S31508003074F2D1FFF719F9EFE70024CBE7FFFF0F08B2
S31508003084F47A00089079000810B5124C82B02368C7
S3150800309401331BD0D4E90131D4E903200B4413448A
S315080030A40344D4E905211344E2690B4413445B42FF
S315080030B40193FFF7F9F8FFF7F7F8042320460649C2
S315080030C40DEB0302FFF786FE02B010BD012002B025
S315080030D410BD00BFD8330020848100080A4A9168CD
S315080030E4D2E90030D2F80CC003440B446344D2E955
S315080030F404100B4491690344D2F884210B44D34247
S315080031040CBF0120002070470080000808B50A4853
S31508003114036801330BD109480368013301D101203F
S3150800312408BDFFF701FE003818BF012008BDFFF7E8
S31508003134FBFD0028EFD108BDD8330020DC3500207C
S31508003144004870470080000800F01CB910B500F06C
S315080031540BF9B0B1FEF7DEFE98B1FFF769F9FDF792
S31508003164A1FBFFF7B3FC00F001F9084B20F060401F
S3150800317420F07F00986000F0F9F8446800F004F93C
S31508003184A047BDE81040FFF79FB900BF00ED00E077
S3150800319482B170B50C46551EADB20D440135461ABA
S315080031A422461278A3191A700134FFF77DF8AC4247
S315080031B4F6D170BD704700BF10B54FF0A04416484D
S315080031C482B00460FEF798FC4FF0010C134A01A97B
S315080031D45368002043F002035360A36B43F40013BF
S315080031E4A363A36B23F40023A363A36B23F48023B1
S315080031F4A363ADF804C002F0D9FBFFF7ABF8B0F54A
S31508003204FA6F01D302B010BD4FF4FA6002B0BDE8FC
S315080032141040FFF799B800BF28380020000800506E
S3150800322408B502F0B9FB4FF0A04303480360BDE8B4
S315080032340840FEF763BC00BF2838002010B53F29B4
S3150800324482B004468DF807101ED8012200200DF11D
S31508003254070101F01BFE012803D09F210D48FFF743
S315080032641DF8214600209DF8072001F00FFE9DF861
S315080032740730834203D0A2210648FFF70FF800203F
S3150800328401F010FE02B010BD9B210248FFF706F8B4
S31508003294DBE700BFB87900082DE9F8430746264E50
S315080032A400200D4603F0DCFD00214FF0FF3002F04C
S315080032B4E7FB347834B9204601F0D4FD60BB00201E
S315080032C4BDE8F883DFF87480002098F8004001F020
S315080032D4C9FD0028F3D0DFF86890611C012200209C
S315080032E4494401F0C9FD01280446E8D198F800309C
S315080032F499F800200133DBB29A4288F80030DED10F
S31508003304384609F10101FFF743FF002298F8003017
S31508003314204632702B70D3E7094D012229462046F0
S3150800332401F0AAFD0128CAD12B78013B3E2BC6D849
S31508003334024B30701C70C2E724380020E0370020A6
S31508003344E43700200120FEF7FBBD00BF0020FEF78E
S31508003354F7BD00BFFEF7F6BDFEF7F6BDFFF784BD61
S31508003364FFF78EBDFFF7ECBDFFF7B8BEFFF7E8BE63
S3150800337408B5FFF789FE00B908BDBDE80840FFF7A0
S31508003384C5BE00BF72B6704762B6704700B502F193
S31508003394FF3E8E447145034614D28C46BCF80000A1
S315080033A40CF1020C40BA80B203449BB283423CBF80
S315080033B401339BB2E645F1D81846023A22F00102D7
S315080033C4023211448E4501D05DF804FB9EF80020B4
S315080033D403EB022398B2B0EB022F3CBF013080B254
S315080033E45DF804FB08B5114B188A03F1180140BAB5
S315080033F480B2A0F114020E3892B280B203F1200C06
S3150800340431F8023F5BBA9BB2184480B298423CBF7B
S31508003414013080B26145F3D10549FFF7B7FF10B112
S3150800342440BA80B208BD4FF6FF7008BD203E0020A2
S31508003434423E002030B5224B22491D685FFA80FEC1
S31508003444AB7AEA7A03EB1023DBB26C7A95F808C0F8
S315080034540244D2B2B3EB102F4C7081F800C0CA7084
S315080034648B7019D20134E4B24C702CB90CF1010CEE
S315080034745FFA8CFC81F800C0724502DA0133DBB2CC
S315080034848B7000216CF3070164F30F2163F3174172
S3150800349462F31F61A96030BD7245F2DA0133DBB20B
S315080034A48B70002BEDD10134E4B24C70002CE8D1BA
S315080034B40CF1010C5FFA8CFC81F800C0E1E700BF4F
S315080034C40C3E0020083D002010B5C278184C0A446A
S315080034D4D2B2E27083785FFA81FE03EB1123DBB282
S315080034E4A37090F801C0B3EB112F84F801C00078DB
S315080034F420700CD20CF1010C5FFA8CF1617009B9D9
S3150800350401302070724501DA0133A37010BD72458B
S31508003514FCDA0133DBB2A370002BF7D10CF1010CF2
S315080035245FFA8CF36370002BF0D10130207010BD64
S31508003534083D002000200B4A02F1140132F8023F2C
S315080035445BBA9BB2184480B298423CBF013080B241
S315080035549142F3D110B140BA80B270474FF6FF706A
S31508003564704700BF2C3E00204FF4806C00230122D4
S31508003574064910B40648074CA1F800C0064923803A
S3150800358443768B80054B1A7010BC70470C3D00209F
S31508003594603D00205C3D0020183D0020063D0020CB
S315080035A4F0B40646154D164F2A88BC88013292B2E5
S315080035B4B2F5FA4F92FA92FC2ABF4FF0100C1FFA92
S315080035C48CFC4FF480526445F0D000200D4B2A80C1
S315080035D418701CB101221A70F0BC7047A7F804C011
S315080035E4F98046B1328873883A807B8040233B72DF
S315080035F40348F0BC70473E60F8E700BF0C3D002066
S31508003604183D0020063D00204FF0000C054B064AE5
S31508003614198882F800C011B1012313707047188005
S31508003624704700BF5C3D0020063D00202DE9F04FA1
S31508003634964F0428D7F8009085B000F097809449EF
S31508003644944B954A03281960116015D0022800F096
S31508003654CD80052800F08581A1F1360411F8281CCF
S31508003664452900F02B818D4E8D4D00232B80002398
S31508003674337005B0BDE8F08F99F8191001F00F0101
S315080036840329F0D1B9F810100029ECD10821834E8A
S31508003694834D3170DFF80CA2FFF726F87D4B7E4A7E
S315080036A4317811F0200040F0CA81CC0600F1D181AE
S315080036B4BAF80040002C40F0DB81126889F81B40F8
S315080036C41A6033789A07D0D528231022764CDFF867
S315080036D4DC812B8084F82F20502384F82E3006238F
S315080036E499F80810D8F8002084F82A1099F80910CF
S315080036F484F82B1099F80A1084F82C1099F80B10F2
S3150800370484F82D1099F80C1084F8261099F80D10E1
S3150800371484F8271099F80E1084F8281099F80F10D1
S31508003724E37584F82910B9F804306384B9F80630C7
S31508003734C4F81A20A384B9F80030E383B9F8023030
S31508003744238499F81930D8064CBF002340F606237B
S315080037542386002240212B88A2865BBA2382A17580
S315080037646286FFF73FFEC04360862AE04B4E4C4D07
S31508003774DFF830A1BAF80030002B3FF476AF03F136
S315080037841C02494C92B22A8052BA2282484A083309
S3150800379412685BBA117A0027E3841123A175278579
S315080037A4E375938841496384D3880D68A384C4F870
S315080037B41A5013883749E383538804F1360008609E
S315080037C42384002245203B49A2820B88E0810133E9
S315080037D49BB20B805BBA63822283FFF7ABFE00239E
S315080037E4C0433370208305B0BDE8F08F3248C178F2
S315080037F40131C9B2C17031B981780131C9B2817058
S31508003804002900F0D180002099F81910244DDFF81A
S3150800381494A001F0FD04052C2880AAF8000000F005
S31508003824B780002900F09B80B9F81000002800F042
S31508003834C68099F81A00441E89F81A40002840F0F0
S315080038448E8099F81B00082800F022814C1E012C52
S3150800385440F21B810446042800F1010028BF042411
S3150800386489F81B00032001F00F01A04089F81A000B
S31508003874481E072873D8DFE810F0DD00D000B8002A
S31508003884AE007200AE007200AE0000BF0C3E00200F
S31508003894563E00201C3E0020183E0020103E002004
S315080038A4143E0020123E0020203E002074440020CE
S315080038B4583D0020143D0020103D0020218A854DE6
S315080038C449BA28881FFA81FB584548D3267D29809A
S315080038D4617D06F03F060E4341D1DFF8FC81B8F856
S315080038E40010B8F80200D8F80090014389B269BB01
S315080038F4FFF720FE4FF6FF7C6045784B784A2ED1B9
S3150800390494F817A0BAF1060F00F0F680BAF1110F71
S3150800391400F05C81BAF1010F21D194F82230082B0A
S315080039241DD14FF6F6720021A38C6E4E934288BFC2
S315080039340933D4F81A2098BF08339BB284F82210A6
S31508003944A384C4F81E20C4F81A9090E6E08B1FFAE4
S3150800395489F1884203D1218CB1EB194FC8D0614E45
S3150800396483E661480068808800283FF47CAE0C39F9
S31508003974002019600823DFF874A1564D594E1160CA
S3150800398433703860AAF80000288000F01FFFF1E6BB
S3150800399499F81A30534E0133DBB2782B89F81A306A
S315080039A408BF89F8190060E641780131C9B2417047
S315080039B400297FF428AF01780131017023E701F06B
S315080039C40F010329CBD10821464E3170FEF78CFE30
S315080039D4424B434A64E6434E454CDFF8FC801123C8
S315080039E484F82F3028232B8076E604213D4E317047
S315080039F4FEF77AFEBAF80010384B394A12681A608C
S31508003A0400293FF45EAEB9F8100000283FF459AE19
S31508003A1400F1280318229BB258E6354CDFF8B88023
S31508003A242C22344B2F4EC4F8363084F82F106023DA
S31508003A342A8052E62E4CDFF8A0801221F0E70022F5
S31508003A4414232B4CDFF89080AAF8002089F8192053
S31508003A54C6E7012204211123254CDFF87C80AAF845
S31508003A64000089F81B0089F81910A9F81020B7E78F
S31508003A7411F0010119D1B9F81000B0B11268AAF809
S31508003A84000089F81B101A60C2E705287FF4E2AE25
S31508003A9400228023134E89F819203370144CFEF73C
S31508003AA423FEDFF8348014239AE7B9F812108C42FF
S31508003AB407D81268A9F810401A60002389F81B3041
S31508003AC4A1E70020AAF80010A9F8101089F81B002D
S31508003AD494E700BF143E0020744400201C3E0020D6
S31508003AE4183E0020103E0020583D0020123E0020BB
S31508003AF4203E00200204060A0190FFF773FC019990
S31508003B04B14B88427FF42BAFDFF8C09294F82F208C
S31508003B1499F81910019231B1B4F824E0B9F804C03F
S31508003B24E64500F0C580019B03F03F03022B11D143
S31508003B344FF0000CA64BDFF89CA21A88A38CDFF87A
S31508003B4498B29A42AAF800308BF800C07ED00123B6
S31508003B548BF80030A14E019B5F073FF586AD2823FD
S31508003B6441F2504294F82910D4F82A002B80E38CA9
S31508003B74994FE285013194F82820C9B2C4F8260081
S31508003B84D8B2638584F82D1084F82C20387071B95E
S31508003B940132D2B284F82C204AB9C3F3072301337D
S31508003BA4DBB284F82B3013B9013084F82A00A28CCE
S31508003BB4638C6284628BD8F80010E283A28BA38498
S31508003BC42284844AC4F81A101380C2E5DFF810C2A6
S31508003BD48449BCF80460ABF11C0BA5F800B0C1F825
S31508003BE400C016B1A08CB04203D07F4B7B4E0B604D
S31508003BF43BE5BCF8060028B1668C864202D0B0F5CF
S31508003C048A4FF2D1BCF80000BCF80260D8B14FF66E
S31508003C14FF7C00EA060EE64506D0B4F81AC08445C9
S31508003C24E3D1A08BB042E0D1002102246F48DFF82B
S31508003C34C0A16A4E1860106034703960AAF8001082
S31508003C4400F0C4FD96E5002EE7D1EDE749B1072952
S31508003C5404D00123614E8BF8003006E501228BF867
S31508003C640020A9F8043003230120A9F81A30614B6F
S31508003C74C7F800901B68A9F81000C9F80C30638CC3
S31508003C84A9F80630D4F81A30C9F800305A4BC9F8DE
S31508003C941630D4F82630C9F80830FFF7CBFB94F869
S31508003CA42E3003F0F002502A55D8DFF82091C4E6E6
S31508003CB4B4F822E0B9F806C0E6457FF434AFB4F8A0
S31508003CC41AE0B9F800C0E6457FF42DAFB4F81CE055
S31508003CD4B9F802C0E6457FF426AF4FF0000C019A06
S31508003CE43E4E12F00400C7F8009086F800C0029011
S31508003CF440F0A68094F82EC0ABF1140E4FEA1C1CB3
S31508003D044FEA8C0C01F00F00DFF8CCB0AEEB0C0ECA
S31508003D141FFA8EFE0228A5F800E08BF800C003906F
S31508003D2472D0BEF1000F40F09280019A900740F0DD
S31508003D348E80019AD20670D40398013807283FF674
S31508003D4494ACDFE810F0CE009E0082016E01EE010D
S31508003D54650191002F011A090023053A92008BF890
S31508003D640030964204EB060148DA91F8360000283A
S31508003D7444D0012824D0022891F8371005D0002908
S31508003D843CD00E44F6B20123EBE70429F7D10BB174
S31508003D948BF8006040F20A62264496F8381096F8C2
S31508003DA4393043EA01239342AAF8003028BF134660
S31508003DB4002263F30F0263F31F42C9F8122074E763
S31508003DC40136F6B2DFE700BF1C3E0020603D002046
S31508003DD45C3D0020043D0020063D0020103E0020E6
S31508003DE4183D0020583D0020583D00204A3E00203A
S31508003DF4123E0020103D002000040301002B3FF46E
S31508003E0454AF8BF8006050E7019A02F03F0CBCF1FE
S31508003E14120F86D1019AD20633D5B9F810000028B4
S31508003E2440F0CD800398023806283FF61EACDFE83A
S31508003E3410F01F000C01F8007801EF001B00B90010
S31508003E44202389F819C03370FEF74EFC0DE4B4F844
S31508003E5426E0B9F808C0E64506D1B4F828E0B9F86A
S31508003E640AC0E6453FF465AF1023DFF8D092B7E5FC
S31508003E743178C90705D594F82F1001F03F011229A6
S31508003E840AD020233370FEF72FFC00223B685A76AB
S31508003E9494F82F3001935EE694F82E1001F0F000A2
S31508003EA450285ED9080900210538029F80008BF83E
S31508003EB40010874204EB070C6FDA9CF836E0BEF173
S31508003EC4000F6AD0BEF1010F64D0BEF1020F9CF850
S31508003ED437C026D0BCF1000F5FD06744FFB201217A
S31508003EE4E7E73178C8077FF5C0AB032189F81910CD
S31508003EF44021317000212888A9F8101060B90021E2
S31508003F04DFF83CA2AAF80010FEF7EEFB8D4B8E4AAA
S31508003F14DFF82892FFF7C4BB42213170FFF78AFA0B
S31508003F24EDE7BCF1040FD5D1029709B18BF80070FF
S31508003F3440F20A670299DFF814C2214491F838005E
S31508003F4491F8391041EA0021B9424FF00000ACF863
S31508003F54001028BF394661F30F0061F31F40C9F802
S31508003F641200D4F826100120C9F80810032189F88C
S31508003F741910FFF75FFA00214220DFF8C4A1A9F857
S31508003F84101029803070AAF80010FEF7ADFB6E4AAF
S31508003F946C4BBDE70137FFB2A1E70029E1D08BF8E6
S31508003FA40070DEE73378DB077FF55FAB002210236A
S31508003FB489F819203370FEF797FBFFF756BB0146BD
S31508003FC46348FFF781FA634994F82AC008785D4B79
S31508003FD4844500F0C18099F8191001F00F000138E2
S31508003FE407283FF642AB0FF2080C5CF820F000BF36
S31508003FF4E73E0008753E00084F40000827400008C1
S3150800400427410008154000086D3E0008A93F00082E
S315080040143378DC077FF529AB0723A9F81930FFF7AE
S3150800402424BB288808B1FFF705FA94F82F303278AC
S3150800403413F0010302F0010261D1002A58D12B883A
S31508004044002B7FF411AFFFF710BB94F82F00C207BB
S3150800405422D5CF0620D4B9F81030002B7FF405AB4F
S315080040642888013080B2FFF7E5F933782A8843F0C7
S315080040741001317012B143F012033370FEF734FBAA
S315080040840123A9F81030082389F81930002389F880
S315080040941B30DFF8A890A2E4820608D5A78E2888E4
S315080040A47FBABFB2C01B28801868384418602888AD
S315080040B438B1CB0605D4317841F002013170FFF7E7
S315080040C4B9F9248EDFF884A061BAB9F81400AAF8FD
S315080040D4001089B2814200D80CB9AAF80000BAF8CF
S315080040E40010A9F8121031788F073FF4BEAA06E724
S315080040F40522A9F8103089F81920FFF7B6BA32B1A3
S3150800410400234FF0070A89F81A30A9F8103089F8FD
S3150800411419A00120FFF78EF910233370FEF7E4FA8D
S31508004124A2E6288800287BD194F82F30D9077FF592
S315080041349CAA0723A9F81930EBE700BF603D0020C5
S31508004144123E00201C3E0020183E0020043D00209C
S315080041546C3D0020083D002094F82BC0487884451F
S315080041647FF439AF94F82CC0887884457FF433AF4C
S31508004174C87894F82DC0096884457FF42CAFC9F82B
S315080041840C1099F81B1031BB99F81A1099F818E015
S3150800419499F816000A46AEEB0101A1EBD00101EB32
S315080041A4000C49B20CF0FF0C002989F816C04FEA36
S315080041B4D00004DA1146A0EB0E00014449B299F87E
S315080041C41700A0EB90000144C9B201EBDC0C89F896
S315080041D4171089F818C001213170002199F81800C0
S315080041E4A9F8101099F8191089F81A0001F00F00A7
S315080041F4013807283FF639AA0FF2040C5CF820F0B8
S31508004204EF3E0008753E00084F40000827400008A6
S3150800421427410008154000086D3E0008A93F00081C
S31508004224FFF708F994F82F30DF077FF508AF80E722
S3150800423440BA80B2704700BF0A1E0ADD054B06491C
S315080042441B680A80834204D0014692B2184603F0DA
S3150800425447BB7047183E0020123E00204FF0000C62
S315080042642DE9F047444C454EE64665466246E04627
S31508004274B4F81C90B4F81EA0414B86F800C008E0B8
S3150800428408290A464FF001085FFA81FC03F10C037A
S315080042941FD033F8020C511C0028F1D01F88002FB8
S315080042A4EED04845ECD15745EAD1B8F1000F01D014
S315080042B486F800C0334D3449344BD4F816000978CF
S315080042C4AC8802EB420203EB820358601C819972A4
S315080042D443E00023DFF8B4801F46C44641460888F5
S315080042E4DAB2013208B94888C8B30133082B4FF04B
S315080042F401075FFA82FE01F10C01F0D100231F4683
S315080043041846214ADFF88890DFF888E0117889F89A
S3150800431400308EF8003098F80A2008F10C088A1A3A
S31508004324824202DD0127DDB2D0B20133082BF2D175
S31508004334FFB105EB450389F800008EF800500CEB35
S31508004344830335701A460F4EE569D4F81600B48807
S3150800435442F8045B586094809972BDE8F0870FB1FF
S3150800436486F800E0084A03EB430311780CEB830351
S31508004374E8E73D46054BE4E7203E00207B44002061
S3150800438482440020363E00207944002080440020E0
S31508004394784400207A440020012130B500250F4BCB
S315080043A40F4A93F800E00F4C8E445FFA8EFE83F8AA
S315080043B400E01388B2F802C0481C43EA0C039BB217
S315080043C42BB1937AAEEB0303772BC8BF1560217024
S315080043D4C1B2092902F10C02EBD130BD794400209F
S315080043E4804400207B440020F8B5254C2388292BDB
S315080043F43BD90026234DAB8A2680B3F5807F08D0A7
S31508004404B3F5007F04D1204BE98C1A8891422FD04A
S31508004414F8BD1D4FEA8C3B889A42F9D12A8D7B88D0
S315080044249A42F5D1FFF71AFF022308226B756B8BA4
S315080044342A73AB84D5F81620144B2A621A689B880B
S31508004444C5F81620C5F806202A6A6B836B812A608C
S315080044542A230622E9693868C5F82610A98C2E7518
S31508004464E861A9806A732380F8BD00232380F8BD18
S315080044742A8D5B889A42CBD1BDE8F840FFF7EEBE99
S31508004484143E0020203E002074440020644400208A
S315080044944FF6FF712DE9F047464CE28B208CD4F891
S315080044A41E5002408A427FD04349444A4E880F88A8
S315080044B42B0C118852881FFA85FC7340134087EA2F
S315080044C40C020A401A434FF0000E3CD100203C4B24
S315080044D4DFF8F0A01D60DFF8F08003464FEA1549BF
S315080044E48AF8000007E0CBB2082B4FF0010008F168
S315080044F40C082DD09E4638F8022C591C6245F2D178
S31508004504B8F800204A45EED108B18AF800E003EB72
S3150800451443032E4A9B0004339918D0588B8820608D
S31508004524A380082300212A4823730388294A0E33C3
S3150800453415686173928899B2274BC4F806500180AE
S315080045449A80BDE8F087254B1D681FFA85FCBDE7F0
S31508004554C4F8265040F20645214A2A21E260002280
S3150800456465824FF0FF35A7838AF80030194F237404
S315080045741C4BE68322623E689A8022756274BA8866
S31508004584DFF864C060751248C4F80660C4F816609B
S3150800459423F8162C23F8062C1633CCF8003025609D
S315080045A4A5800180BDE8F087104B18689B882060B9
S315080045B4A380B6E7203E0020744400206C44002003
S315080045C47C4400207B440020824400208044002050
S315080045D4143E002064440020263E00207044002037
S315080045E408060001403E00201C3E0020E079000831
S315080045F410B541600446FDF717FB206010BD00BFE7
S3150800460410B50446FDF710FBD4E90023801A984236
S31508004614B4BF0020012010BDF8B540F2011C0446C1
S315080046240025194A194BA4F800C003CB1E789369D0
S31508004634174FC4F80300A3703B68C4F80710E36077
S31508004644E67225616561A561D2E9051604F11C00C7
S31508004654324603F045F906F11C002946C6F1100254
S31508004664204403F011F94022294604F12C0003F0F2
S315080046740BF98022294604F16C0003F005F9054B71
S315080046841868C4F8EC00F8BDE0440020187900085E
S3150800469474440020E879000870B5104D104E2C6853
S315080046A42046FFF7B9FF40F232410420FF220D4BA2
S315080046B4A4F8F910596ADB6984F8F4002868C4F880
S315080046C4FB10C4F8F06004F58071C4F8F53084F87A
S315080046D4FF20091ABDE87040FFF7AEBD1C3E002056
S315080046E435010336E044002038B5274B1C68237887
S315080046F4022B01D0002038BD2379AD2BFAD163797A
S31508004704DE2BF7D1A379122BF4D1E379232BF1D13C
S315080047141E4D04F11C00D5E9051203F0A5F800287E
S31508004724E8D11B4A23691288F034224494426B6206
S315080047340ED3DFE7032B23D0062B1DD0012B02D182
S31508004744D4F80230AB62637802331C44A242D2D94D
S315080047542378332B08D0EDD9362B09D0FF2BCAD0B2
S31508004764352BF0D1A078EEE7D4F802302B62EAE7CD
S31508004774D4F80230EB61E6E7D4F80230EB62E2E7FC
S31508004784D4F802302B63DEE71C3E0020E044002008
S31508004794143E002070B5002206460D464FF0FF333E
S315080047A482B0094C4FF4864101A8C4E90565A27094
S315080047B40193FEF7F5FE606010B14FF488438380D9
S315080047C40023238002B070BDE044002070B59B4CE2
S315080047D42388B3F5937F57D8B3F5877F40F2C18012
S315080047E46FF487721344172B0DD8DFE803F03235BC
S315080047F40C0C0C0C0C0C0C0C0C0C0C0C0C0C0C0CE7
S315080048040C0C0C0C0F120023238070BD4FF4937309
S3150800481423808B4D2B78980740F1DB80FFF764FFE4
S31508004824052800F0E18042F2107223699342EADC1B
S31508004834A27803F57A73032A236100F0D780FFF779
S315080048442BFF80482169FFF7D3FE40F22513238006
S3150800485470BD4FF488732380794D2B789E0740F1F9
S31508004864A380FFF741FF022800F0E6804EF65F2298
S3150800487423699342DCBF5B002361A378022B78D1BA
S315080048844FF47A732361DAE76FF4AA7C63449AB225
S31508004894162AB8D8162BB6D801A252F823F000BFA8
S315080048A443490008494900080B4800080B48000812
S315080048B40B4800080B4800080B4800080B4800087A
S315080048C40B4800080B4800080B4800080B4800086A
S315080048D40B4800080B4800080B4800080B4800085A
S315080048E40B4800080B4800080B4800080B4800084A
S315080048F40B480008014900080749000840F26B13F1
S3150800490423804F4D2B789A0759D5FFF7EDFE0528D6
S315080049146AD042F21072236993423FF774AFA278C1
S3150800492403F57A73032A236160D0FFF7B5FE454879
S315080049342169FFF75DFE4FF4B573238070BD4FF40C
S31508004944AB7323803F48FFF75BFE00283FF45DAF57
S3150800495402204FF47A7100223B4BA07021611A6041
S31508004964E3E7002B7FF44FAF01224FF47A73A2706A
S315080049742361364E35682846FFF74EFEFF23344A30
S315080049843449306885F8F830C5F8F020C5F8F410CD
S31508004994F935291AFFF750FC2A482169FFF728FE3A
S315080049A440F20F13238070BD2648FFF729FE00281E
S315080049B43FF42BAF2B789D077FF558AF51E7214875
S315080049C4FFF71EFE00283FF420AF2B789B07A0D5DF
S315080049D49BE71C48FFF714FE00283FF416AF2B7814
S315080049E499077FF520AF19E70323A370606AA26AC3
S315080049F41549194B08601A60218E184B628E208C53
S31508004A0419805A80FFF714FC0546608CFFF710FCE2
S31508004A1401464FF47A732D042943490803FB01F12F
S31508004A240029B8BF6FF0004106482161FFF7E0FD91
S31508004A3440F25513238070BDA07021E7E04400209E
S31508004A44103E0020E8440020744400201C3E002048
S31508004A5435010137030103066C4400207044002025
S31508004A640022014B1A6070477444002003780246FA
S31508004A7413F0010013D11378C3F380015B070DD437
S31508004A84137813F0010008D113785B0706D413785A
S31508004A94012043F00403137070470846704700204A
S31508004AA4704700BF02780346C2F38000520700D459
S31508004AB470471A7812F0010204D1197862F3820158
S31508004AC4197070470020704700B5C378B0F804E041
S31508004AD403F00303022BCEF30A0C15D0032B04D0E0
S31508004AE4012B28D000205DF804FB022914BF4023BB
S31508004AF44FF4806363451CD24FF0E023D3F8F03DAE
S31508004B04DA07EFD500BEEDE702291DD012B1BCF5D0
S31508004B14007F21D0BCF1200F1AD81EF4FF6FEBD00A
S31508004B24104BACF1080C1FFA8CFC23FA0CF3DB07C8
S31508004B34E2D50120D7E7022940F2FF3308BF4FF434
S31508004B4480636345F5D2D7E7BCF5007FF1D0D3E798
S31508004B54BCF1400FEDD0CFE7002240234271037128
S31508004B64E7E700BF010100010A44914205D37047F3
S31508004B7491F800C061448A4220D991F801C0BCF179
S31508004B84050FF5D100B591F802C00CF00F0E00EB35
S31508004B944E0E4FEADC1C0EF80C3091F800C0614446
S31508004BA48A4209D991F801C0BCF1050FEBD091F8F6
S31508004BB400C061448A42F5D85DF804FB704700BF1B
S31508004BC430B58E4683B0009390F800C004466EF361
S31508004BD4000C0123BDF81C20069900F808CBBDF883
S31508004BE4245000F05BFC0120089B6580636003B0D9
S31508004BF430BD00BF0120704738B50C4691F800C097
S31508004C04098A638A1CF0020F89B29BB20CBF4FF063
S31508004C14400E4FF4007E994208D13AB10EF1FF3E98
S31508004C241EEA020F02D11CF0010F01D0002038BD84
S31508004C346178054601F052FC0028F7D0237813F072
S31508004C44010307D04FF0E023D3F8F03DDB07EDD599
S31508004C5400BEEBE71A462846617801F05BFC00289B
S31508004C64F0D038BD70B501F10805064628460C464D
S31508004C7400F02EFC10B12378D80701D5002070BDAA
S31508004C843046617801F02AFC0028F7D02846628865
S31508004C94616800F083FC2378054648B1D9070ED528
S31508004CA44FF0E023D3F8F03DDA07E7D500BEE5E791
S31508004CB4DB07E3D43046617801F01EFCDEE70346E1
S31508004CC462683046617801F025FC0028E8D0284659
S31508004CD470BD00BF2DE9F04163B11D468B890646B8
S31508004CE40C46904653B90B78D90703D4617801F07A
S31508004CF4F5FBF8B900252846BDE8F08101F1080757
S31508004D0438461146AAB200F0C7FC2378054613F0C4
S31508004D14020F38460CBF40274FF4007700F0D8FB43
S31508004D24B84202D2A389BB42E5D221463046FFF7F0
S31508004D3499FFE0E7638841469D4228BF1D4660689F
S31508004D442A4602F0CDFD2378DA0707D54FF0E0238B
S31508004D54D3F8F03DDB07CDD500BECBE761783DB18E
S31508004D6462683046ABB201F0D5FB0028C3D1EDE743
S31508004D742A46F6E7F8B58A890C4605460B788AB9B1
S31508004D84DF071FD4497801F0A9FBD8B122786388D4
S31508004D94D6073AD54FF0E023D3F8F03DDA0711D514
S31508004DA400BE0FE001F1080713F0020F38460CBFE6
S31508004DB440264FF4007600F09BFB864202D82378FF
S31508004DC4D80701D50020F8BD2846617801F086FB8E
S31508004DD40028F7D0384600F08BFB864221D8237882
S31508004DE46288D907D6D47642304080B2904228BF2A
S31508004DF4104661780646E0B162683346284601F0F3
S31508004E0489FB0028C6D03046F8BD61783BB1626894
S31508004E14284601F07FFB0028BCD06088F8BD1A46F6
S31508004E24F6E72378DB07CDD42846617801F064FBDE
S31508004E34C8E70246E1E700BF38B50C460546114601
S31508004E4404F108009AB200F0A9FB034621461C4661
S31508004E542846FFF78FFF204638BD00BF704700BFBE
S31508004E64704700BF08B10020704708B5014800F034
S31508004E742FFB08BDF445002008B1002070471346EF
S31508004E840A460149FFF7D8BFEC450020134608B186
S31508004E94002070470A469BB20149FFF71BBF00BFB3
S31508004EA49845002008B1002070470149FFF7DABE8B
S31508004EB49845002070B5124C84B0AC2200212046D7
S31508004EC402F0E2FC402500230E4E04F16C0219465A
S31508004ED4CDE90265CDE9002504F158001A46FFF725
S31508004EE46FFE002304F118012E440091012219468D
S31508004EF4CDE902650195201DFFF762FE04B070BD79
S31508004F04944500201445002010B5054C2046FFF7AB
S31508004F1471FEA4F15400FFF76DFE012010BD00BF19
S31508004F24EC45002038B5074C0025204600F8605BA0
S31508004F3400F0BEFB04F10C0084F8595000F0B8FBED
S31508004F44657138BD944500204B79FF2B01D00020AC
S31508004F5470472DE9F041DFF8E0800C4698F859309F
S31508004F64097813B10020BDE8F08198F80530002BC4
S31508004F74F8D1A378A6186518AE4288F8003013D974
S31508004F84635C07462B449E420ED36B78042B0BD0E6
S31508004F940B2B09D0052B0BD02B781D44AE4203D915
S31508004FA42B782B449E42F0D2281B80B2BDE8F081B0
S31508004FB42946384601F06EFAE0B1AB78DA0921D110
S31508004FC498F85920002AE7D188F85930AB8898F818
S31508004FD45820C3F30A03A3F50073B3FA83F35B09F2
S31508004FE463F341023846154988F85820FFF7C2FE8C
S31508004FF40028D1D14FF0E023D3F8F03DDB07B1D533
S3150800500400BEAFE798F80520002AC5D188F8053010
S31508005014AB8898F80420C3F30A03A3F50073B3FA1C
S3150800502483F35B0963F341023846054988F804208B
S31508005034FFF718FEB0E700BF94450020EC450020B2
S315080050449845002070B51B4D064695F859206C798D
S315080050548A4282B005D08C424FF0000018D002B0C4
S3150800506470BDB5F864209CB25AB90020124922468C
S31508005074FFF7F4FE30461149FFF77CFE012002B023
S3150800508470BD2246E96D05F1600000F005FBECE70A
S3150800509499B20193FFF7E4FE3046291DFFF7E2FDB6
S315080050A4019B0028EAD11A463046291DFFF7A4FDBC
S315080050B4E4E700BF9445002014450020EC45002091
S315080050C42DE9F04782B0BDF828C0B0F804E0A3EB98
S315080050D40C05ADB263453CBF05EB4E05ADB20646BD
S315080050E40F469DF82C80002D3BD0AE453DD3954206
S315080050F428BF1546E64505D8ACEB0E0C1FFA8CFC02
S31508005104E645F9D9F288AEEB0C03A5EB0E0EC2F30D
S315080051140E029BB2E6440EFB02FE02FB03F9D6F826
S3150800512400A0B8F1010F02FB0CA11FFA8EF41FFAB6
S3150800513489F925D19D422ED802FB05F39AB2C3F309
S315080051448D03581E80B2002B00F08580013001EBD8
S31508005154800051F8043B81423B60FAD112F0030205
S3150800516470D1284602B0BDE8F0879E4594BFA3EBEC
S315080051740E0373441FFA83FC7546A0F80AC0B6E703
S315080051849D4251D8384605FB02F202F0A9FB28468F
S3150800519402B0BDE8F08729F0030C4FEA9C02531EBF
S315080051A41FFA8CFC9BB252B1013301EB83000B4608
S315080051B453F8042B83423A60FAD1D6F800A019F0C2
S315080051C403091DD0C9F10406B6B2A64228BF26466D
S315080051D40023A4EB060E4A46614401A801931FFA6C
S315080051E48EF402F07DFB01AB5FFA86F803EB090047
S315080051F426B15146424602F073FBC244019B3B600A
S31508005204002CAED0A1084B1EE2B29BB229B30133DF
S315080052140AEB83015AF8043B51453B60FAD112F074
S3150800522403029ED000230FE04A46384602F058FB94
S315080052342246316807EB090002F052FB284602B001
S31508005244BDE8F0870023014601A8019302F048FB54
S31508005254019B3B6085E7084680E75146E2E700BFC5
S315080052642DE9F04F0546884601894789C079B5F87E
S3150800527404E0C00985B089B2BFB20DD1B94236BFC0
S31508005284C7EB4E00C81B401880B270456FD3002682
S31508005294304605B0BDE8F08F724548D3002B40F080
S315080052A48D807646E988A2EB0E02C1F30E0101FB56
S315080052B40288002EECD006EB07091FFA89F9774510
S315080052C4BC4605D3ACEB0E0C1FFA8CFCF445F9D29C
S315080052D4EA88AEEB0C0BA6EB0E04C2F30E021FFA19
S315080052E48BFB644402FB04F402FB0BFA2968012BCA
S315080052F402FB0C10A4B21FFA8AFA40D0B34566D34F
S31508005304414606FB02F202F0EBFAAA88B9454FEACF
S31508005314420302D3B9EB420F03DBA9EB03031FFADB
S3150800532483F93046A5F8089005B0BDE8F08FB94270
S3150800533436BFC7EB4E00C81B401880B24FEA4E046E
S315080053441044A0423CDB07EB0E091FFA89F9A9EBC6
S31508005354020189B28F4202D88C4200F39780091B56
S315080053648FB202EB070916461FFA89F9A7E7AEEBCF
S315080053740006B6B2964228BF16460F4699E7B345C5
S3150800538430D306FB02F2C2F38D014B1E92B29BB2D6
S3150800539400297ED0013300EB8301D8F8003040F8A9
S315080053A4043B8842F9D112F00302AED0D8F8003093
S315080053B4084603A9039302F093FAA6E7764678E724
S315080053C401EB02090F4616461FFA89F977E7524692
S315080053D4414602F085FA2246286808EB0A0102F0DB
S315080053E47FFA92E72AF0030C4FEA9C02531E1FFA2F
S315080053F48CFC9BB24AB1013300EB83010346D8F80F
S31508005404002043F8042B8B42F9D11AF0030A3AD048
S31508005414CAF104039BB2A34228BF2346D8F8002046
S3150800542403A9039260445246E41A5FFA83FB019384
S3150800543402F056FA03AB03EB0A01019BD5F800A068
S31508005444A4B223B150465A4602F04AFADA44002C6A
S315080054543FF45BAFA1084B1EE2B29BB2D9B101334C
S315080054640AEB8300D8F800304AF8043B8245F9D1A0
S3150800547412F003023FF449AFD8F8003003A90393A6
S3150800548402F02EFA41E7D5F800A0E0E70F461646E3
S3150800549415E7014687E75046EEE700BF00B5B2F5C3
S315080054A4004F9DF804E010D8C3F30E03844643EA7C
S315080054B4CE334FF0000E01608280C380ACF80AE058
S315080054C4ACF808E001205DF804FB00205DF804FB55
S315080054D4038942899BB292B28088934236BFC2EB53
S315080054E440029B1A9B189BB2984228BF18467047DD
