S01900006F70656E626C745F73746D3332663330332E7372656303
S3150800000000A0002071050008090500080B05000876
S315080000100D0500080F05000811050008000000007E
S3150800002000000000000000000000000013050008A2
S315080000301505000800000000170500081905000846
S31508000040C1050008C1050008C1050008C10500086A
S31508000050C1050008C1050008C1050008C10500085A
S31508000060C1050008C1050008C1050008C10500084A
S31508000070C1050008C1050008C1050008C10500083A
S31508000080C1050008C1050008C1050008C10500082A
S31508000090C1050008C1050008C1050008C10500081A
S315080000A0C1050008C1050008C1050008C10500080A
S315080000B0C1050008C1050008C1050008C1050008FA
S315080000C0C1050008C1050008C1050008C1050008EA
S315080000D0C1050008C1050008C1050008C1050008DA
S315080000E0C1050008C1050008C1050008C1050008CA
S315080000F0C1050008C1050008C1050008C1050008BA
S31508000100000000000000000000000000C105000813
S31508000110C1050008C1050008C1050008C105000899
S31508000120C1050008C1050008C1050008C105000889
S31508000130C1050008C1050008000000000000000015
S31508000140C1050008C1050008C10500080000000037
S315080001500000000000000000000000000000000091
S315080001600000000000000000C1050008C1050008E5
S31508000170C1050008000000000000000000000000A3
S30D0800018000000000C10500089B
S3150800018810B5054C237833B9044B13B10448AFF3BB
S3150800019800800123237010BD5000002000000000D5
S315080001A8343C000808B5034B1BB103490348AFF3B1
S315080001B8008008BD0000000054000020343C0008F8
S315080001C8034613F8012B002AFBD1181A0138704781
S315080001D801F016BA01F023BA08B54FF090431B6927
S315080001E8DB0703D400F050F8012008BD0020FCE71F
S315080001F830B5012887B013D04FF480540123CDE9D0
S3150800020801430025032301A94FF09040CDE9035384
S3150800021800F0A2FB2A4621464FF0904000F0DAFC8F
S3150800022807B030BD70477047642000F003B800F087
S3150800023807B80000014B1880704700BF74000020FB
S3150800024810B50D4C01F0C8F8236898420ED30B4B2D
S315080002580B4A18784FF4807148B9012018709161D3
S3150800026801F0BAF8074B1B880344236010BD002029
S3150800027818709162F4E700BF700000206C00002037
S315080002880010004874000020024B4FF480729A62EE
S31508000298704700BF00100048054B5A69024382B0F0
S315080002A85A615B6903400193019B02B0704700BF1E
S315080002B800100240264A136823F0070343F0020396
S315080002C810B51360136803F00703022BFAD1214C03
S315080002D8236843F480232360236843F48033236028
S315080002E823689A03FCD5636823F4741343F4E81364
S315080002F86360E36A23F00F03E362236843F08073BD
S31508000308236023689B01FCD5636823F0F0036360C8
S31508000318636823F4E06343F480636360636823F4E3
S3150800032860536360636823F0030343F00203636062
S31508000338636803F00C03082BFAD1074800F0A8FDF8
S31508000348002000F04DF9636823F48003636010BD4C
S31508000358002002400010024000A24A04BFB500F07F
S3150800036863F9FFF7A7FF1022002102A803F024FC6F
S315080003784FF48000FFF790FF124D4FF40030FFF757
S315080003888BFF4FF480774FF40010FFF785FF0024A2
S31508000398AF620223012669464FF090400493CDE9DF
S315080003A8006400F085FC69462846CDE90076CDE963
S315080003B80244049400F07CFCFFF70AFFFFF70AFFE3
S315080003C8FCE700BF001000480B4B9A6942F001028F
S315080003D882B09A619A6902F001020092009ADA6973
S315080003E842F08052DA61DB6903F080530193019B7E
S315080003F8072002B000F036B90010024010B50446CE
S3150800040888B01422002103A803F0D6FB2268134BF0
S315080004189A4220D1124C636943F4003363616369D5
S3150800042803F400330193019B4FF4C0520223CDE92C
S31508000438032303210E23CDE906134FF0904003A9A1
S3150800044800F08AFAE36943F40003E361E36903F415
S3150800045800030293029B08B010BD00BF005C004071
S31508000468001002400268074B9A420AD1064AD36925
S3150800047823F40003D3614FF4C0514FF0904000F0C5
S315080004882FBB7047005C00400010024010B588B0CA
S31508000498194C00230793626942F400326261626963
S315080004A802F4003201924FF09040019A4FF48052BC
S315080004B8826202A902920122CDE90323CDE9053316
S315080004C800F0F6FB00F0A0FC0C484FF4807383623A
S315080004D800F086FB636923F400136361636923F4F8
S315080004E880036361E36923F08053E361A36923F01A
S315080004F80103A36108B010BD0010024000100048AF
S315080005087047FEE7FEE7FEE7FEE770477047704765
S3150800051800F09CB800B589B0002311490793D1F8B3
S31508000528882042F47002C1F888200E4A516941F4BD
S3150800053800315161526902F4003201924FF090403D
S31508000548019A4FF48052826202A902920122CDE9E9
S315080005580323CDE9053300F0ABFB09B05DF804FBCE
S3150800056800ED00E000100240DFF834D00D480E49CF
S315080005780E4A002302E0D458C4500433C4188C42E7
S31508000588F9D30B4A0B4C002301E013600432A2424C
S31508000598FBD3FFF7BFFF03F017FBFFF7DFFEFEE706
S315080005A800A00020000000204C000020E03D0008C4
S315080005B850000020480C0020FEE7000010B5074B45
S315080005C84FF0FF3200241A611C61DA60DC609A6217
S315080005D89C62FFF75BFF204610BD00BF0010024073
S315080005E838B50E4B1A784FF47A73B3FBF2F30C4A04
S315080005F805461068B0FBF3F000F078F8044658B9D9
S315080006080F2D09D8024629464FF0FF3000F03CF86E
S31508000618044B20461D6038BD0120FCE70400002075
S315080006280000002008000020074A08B5136843F0B0
S3150800063810031360032000F015F80020FFF7D0FF19
S31508000648FFF7C2FE002008BD00200240034A044BFB
S3150800065811681B780B441360704700BF78000020A8
S31508000668040000200749CA6822F4E062030212045B
S3150800067803F4E063120C134343F0BF6343F40033F7
S31508000688CB60704700ED00E0164B30B5DC68C4F364
S315080006980224C4F10703251D042B28BF0423062DAD
S315080006A84FF0FF358CBF033C002405FA03F321EA13
S315080006B80303A54022EA0502A340002843EA0203E9
S315080006C8ACBF00F16040084A4FEA0313B8BF00F010
S315080006D80F00DBB2AABF00F56140135480F8003357
S315080006E830BD00BF00ED00E014ED00E00138B0F1C0
S315080006F8807F0BD24FF0E023054A5861F02182F833
S3150800070823100020072298611A6170470120704754
S3150800071800ED00E00B4AD36813F0100305D00A4928
S31508000728CB6943F00203CB611023D268520706D57A
S315080007380549CA6942F00102CA6143F00403014A3D
S31508000748D36070470020024080000020064B1869D5
S3150800075810F0800007D0054A5A6002F188325A60BC
S315080007681869C0F3C0107047002002402301674586
S31508000778034A136943F0800313610020704700BFDA
S315080007880020024070B5054600F02EFE0F4C0646BE
S31508000798E368D9070FD4E3689A0644BF2023E360C1
S315080007A8E368DB0603D4E06810F0040007D0FFF717
S315080007B8B1FF012003E0681CEAD00DB9032070BD1B
S315080007C800F012FE801BA842E2D9F7E70020024093
S315080007D82DE9F84FDFF894A01F469AF81830012B30
S315080007E80546884691463FD001234CF250308AF890
S315080007F81830FFF7C7FF90BB012D03D0022D14BF91
S31508000808042502250026DFF868B033463401C4F10A
S315080008182001A4F1200207FA01F129FA04F4CAF81A
S315080008281C300C4327FA02F21443DBF81020A4B252
S3150800083842F00102CBF810204CF2503028F8164046
S31508000848FFF7A0FFDBF8102022F00102CBF81020F2
S3150800085828B90136F2B295424FF00003D6D80023DC
S315080008688AF81830BDE8F88F0220FBE780000020D8
S3150800087800200240064B0022DA61064B1A6942F04C
S3150800088804021A611A6942F040021A61704700BFE9
S315080008988000002000200240064B0022DA61064B41
S315080008A81A6942F002021A6158611A6942F040024E
S315080008B81A61704780000020002002402DE9F041A7
S315080008C8DFF8908098F81830012B05460F463DD07A
S315080008D8012488F818400368A3424CF2503014D112
S315080008E8FFF750FF28B10120002388F81830BDE823
S315080008F8F0814CF25030FFF7BDFFFFF743FF144A6B
S31508000908136923F004031361EEE7FFF73BFF00289A
S31508000918E9D14FF0FF333B6020466E680C4CD5E9A9
S31508000928013203EBC223B342DED93046FFF7B4FFE0
S315080009384CF25030FFF726FF236923F002032361A0
S3150800094808B13E60D0E706F50066E8E70220CEE77C
S3150800095800200240800000202DE9F74FDFF87C913F
S315080009685C4C00230A6832FA03F502D103B0BDE8E5
S31508000978F08F012505FA03F818EA020200F0A080AC
S315080009884E68032706F003054FEA430E07FA0EFCDE
S315080009986F1E012F6FEA0C0C34D8876807EA0C0A11
S315080009A8CF6807FA0EF747EA0A078760476827EA0B
S315080009B80808C6F300179F4047EA08074760C7684C
S315080009C807EA0C088F6807FA0EF747EA0807022DA0
S315080009D8C76019D14FEAD30800EB880803F0070A5D
S315080009E8D8F820704FEA8A0A4FF00F0B0BFA0AFB61
S315080009F827EA0B0B0F6907FA0AF747EA0B07C8F83D
S31508000A08207001E0032DDAD1076805FA0EF507EA22
S31508000A180C073D4316F4403F056051D0D9F81850E5
S31508000A2845F00105C9F81850D9F8185023F00307F6
S31508000A3807F1804705F0010507F58037019503F0AA
S31508000A48030C019DBD684FEA8C0C4FF00F0E0EFA89
S31508000A580CFEB0F1904F25EA0E0E33D01E4DA84273
S31508000A6832D005F58065A84230D005F58065A842DC
S31508000A782ED005F58065A84214BF0525042505FA74
S31508000A880CF545EA0E05BD60A568D74316F4801F20
S31508000A980CBF3D401543A560E56816F4001F0CBF5A
S31508000AA83D401543E560656816F4003F0CBF3D40B8
S31508000AB8154365602568F60354BF3D401543256010
S31508000AC801334FE70025DAE70125D8E70225D6E7F7
S31508000AD80325D4E70004014000040048001002403A
S31508000AE82DE9F04F394C00234FF0010A4FF00F0853
S31508000AF84FF0030B31FA03F201D1BDE8F08F0AFA79
S31508000B0803FC1CEA010657D023F0030505F18045C6
S31508000B1805F5803503F00307AA68BF0008FA07F940
S31508000B28B0F1904F09EA020E48D0294A904247D0B8
S31508000B3802F58062904245D002F58062904243D021
S31508000B4802F58062904214BF05220422BA40724513
S31508000B5813D1226822EA06022260626822EA06029D
S31508000B686260E26822EA0602E260A26822EA0602EF
S31508000B78A260AA6822EA0902AA6005685A000BFA5E
S31508000B8802F2DE0825EA020500EB8606056003F090
S31508000B980705376AAD0008FA05F527EA0507376233
S31508000BA8C56825EA0205C560456825EA0C05456055
S31508000BB8856825EA0202826001339BE70022C5E7B9
S31508000BC80122C3E70222C1E70322BFE70004014066
S31508000BD8000400480AB181617047816270470000C5
S31508000BE8B0F1904F0AD12C4B9A6A42F400329A62B5
S31508000BF89A6A22F400329A6200207047274B984274
S31508000C080BD103F1784303F503339A6A42F4802239
S31508000C189A629A6A22F48022EDE7214B98420BD110
S31508000C2803F1784303F502339A6A42F400229A627A
S31508000C389A6A22F40022DEE71A4B98420BD103F18E
S31508000C48784303F501339A6A42F480129A629A6ADB
S31508000C5822F48012CFE7144B98420BD103F178435C
S31508000C6803F500339A6A42F400129A629A6A22F4E1
S31508000C780012C0E70D4B98420BD103F1784303F5F0
S31508000C88FE339A6A42F480029A629A6A22F48002C9
S31508000C98B1E70120704700BF001002400004004871
S31508000CA800080048000C00480010004800140048D6
S31508000CB82DE9F04F02460D6895FAA5F44FF0010C98
S31508000CC8B4FA84F403266FEA050E35FA04F001D15E
S31508000CD8BDE8F08F0CFA04F32B406FD04868471E1E
S31508000CE8012F1ED8D2F8088093FAA3F7B7FA87F720
S31508000CF893FAA3F97F0006FA07F728EA0708B9FA64
S31508000D0889F98F684FEA490907FA09F748EA070788
S31508000D18976057680EEA0708CF686F4348EA0707D7
S31508000D285760D2F80C8093FAA3F7B7FA87F793FABD
S31508000D38A3F97F0006FA07F728EA0708B9FA89F92E
S31508000D480F694FEA490907FA09F748EA070702281F
S31508000D58D7601FD193FAA3F7B7FA87F7072FD1F801
S31508000D6814902DDC176A93FAA3FABAFA8AFA93FA50
S31508000D78A3F84FF00F0BB8FA88F84FEA8A0A0BFA65
S31508000D880AFA4FEA880827EA0A0709FA08F847EA2A
S31508000D9808071762D2F8008093FAA3F7B7FA87F715
S31508000DA893FAA3F3B3FA83F37F0006FA07F75B000F
S31508000DB828EA0708984048EA00001060013484E7E2
S31508000DC8576A4FEA132898FAA8FABAFA8AFA98FADA
S31508000DD8A8F84FEA8A0BB8FA88F84FF00F0A0AFA01
S31508000DE80BFA4FEA880827EA0A0709FA08F947EAC8
S31508000DF809075762CEE70000024B1868C0F340009F
S31508000E08704700BF0010024007B51F4A136843F031
S31508000E1801031360FFF7F0FF0128FBD1136823F0DD
S31508000E28F80343F0800313604FF0FF3301930199E9
S31508000E38164B0B400193019B5360536813F00C0F34
S31508000E48FBD113680193019B23F0847323F4803341
S31508000E580193019B1360106810F00070FBD11368AA
S31508000E6823F4802313604FF41F035060D062106385
S31508000E780193019B93609060536A43F080735362B1
S31508000E8803B05DF804FB00BF001002400CC0FFF871
S31508000E98014B1860704700BF0000002000487047E3
S31508000EA8913D000800487047713D000800487047A2
S31508000EB8503D00080B46012B11460ED11378C3F393
S31508000EC84113022B0BD15378012B08D19388072B92
S31508000ED805D1044A9E2301F06BBE01207047002005
S31508000EE8704700BFB23C0008F0B528490B7885B0B2
S31508000EF823BB274AD2F8AC470194D2F8B0470294E4
S31508000F08D2F8B427039201220A70224901AE0F4685
S31508000F1816F8015B05F00F022C099F2D8CBF373494
S31508000F2830340133092A8CBF373230320C2B0C7017
S31508000F384A7001F10201EBD100233B7670B9164BD2
S31508000F481B681A88154B5A8001230133DBB21348EC
S31508000F585B0043F44073038005B0F0BD032813D83B
S31508000F680D4B53F820402046FFF72AF9C3B21F2B2A
S31508000F7828BF1F23094A2046E1188842E5D010F8F9
S31508000F88014B22F8024FF8E70020E5E7A000002009
S31508000F9800F0FF1F1C0000200C000020A200002003
S31508000FA872B6704762B67047FFF7FABF10B500F019
S31508000FB88DF9C8B1FFF710F9B0B100F05FFBFFF77C
S31508000FC8FDFA00F0D1F900F083F9084B20F06040EB
S31508000FD820F07F00986000F07BF94468FFF7E2FF8D
S31508000FE82346BDE81040184710BD00BF00ED00E0D5
S31508000FF8F8B506460F4615460024AC4200D1F8BD9A
S315080010083B5D335500F065FB0134F6E72DE9F843F7
S315080010180646FFF79BFB002506F10409D6F800806B
S3150800102859F8057005EB080400F053FB21463A46C3
S3150800103800230220FFF7CCFB044668B955F80830A8
S31508001048BB4204D10435B5F5007FE7D10124FFF783
S315080010588FFB2046BDE8F8830024F8E738B5104B1F
S31508001068984204460D4608D00E4A914216D0FFF714
S31508001078CDFF18B90024204638BD0B4CC5F3080324
S31508001088002BF7D123689D42F5D020464FF400720D
S3150800109840F8045B2946FFF7ABFFECE71C46F1E787
S315080010A8E400002000400008E80200202DE9F0418D
S315080010B81F46036821F4FF78013304460D46164691
S315080010C828F0010806D140F8048B4FF4007241460F
S315080010D8FFF78EFF2368434505D020464146FFF7AC
S315080010E8BDFF0446E8B123680435ED1A254437449C
S315080010F800F0EFFA231DEB1AB3F5007F08D3216831
S31508001108204601F50071FFF7A9FF044648B1051DF9
S3150800111816F8013B05F8013BBE42E9D10120BDE8B6
S31508001128F0810020FBE70000034A4FF0FF33136005
S31508001138024A1360704700BFE8020020E400002056
S3150800114830B40E4D4C1E0B46291A8C4212D80C4C3C
S31508001158A0420FD3411E1944A9420BD820F4FF71A7
S3150800116821F00101A142014630BC0CBF05480648DA
S31508001178FFF79CBF002030BC704700BFFFFF03087D
S3150800118800400008E4000020E802002030B51D4DA4
S3150800119885B04A1E2B1A00249A42009420D81A4A67
S315080011A820F4FF6323F00703934219D3421E0A4427
S315080011B8AA4215D80144C91AC1F3CF25C1F30A01B1
S315080011C809B10135ADB20024CDE9014301230393E2
S315080011D8FFF7BCFAA3B29D4205D80124FFF7C8FA5F
S315080011E8204605B030BD00F074FA694601A8FFF735
S315080011F865FB013420B9029B03F500630293E9E70E
S315080012080024EBE7FFFF03080040000807B50F486E
S315080012180368013317D0D0E901321344C2680C4970
S315080012281344026913444269134482691344C26920
S3150800123813445B42019304230DEB0302FFF736FFC1
S3150800124803B05DF804FB0120FAE700BFE4000020BC
S31508001258884100080A4AD2E900310B4491680B44D0
S31508001268D1680B4411690B4451690B449169D2F84A
S3150800127888210B44D3420CBF01200020704700BFC9
S31508001288004000080A4808B50368013305D109482B
S315080012980368013306D1012008BDFFF7B7FE002809
S315080012A8F5D1F9E7FFF7B2FE003818BF0120F3E7D2
S315080012B8E4000020E80200200048704700400008C3
S315080012C8FFF732BFFFF73CBFFFF760BFFFF7C2BFA4
S315080012D8FFF7F2BF08B5FFF799FF18B1BDE8084050
S315080012E8FFF7D0BF08BD0000194B1A49DA6942F062
S315080012F8010282B0DA61DA6902F001020192019A02
S315080013085A685B68C2F3022213F4E06F8A5C1249D2
S31508001318096821FA02F14FF0804214BF022301231B
S31508001328012010604B434FF6FF700C49B3FBF1F3ED
S31508001338013BD0629362536943F001035361084B3A
S31508001348526A00211960074B1A8002B0704700BF1D
S31508001358001002404C3C000800000020A08601004E
S31508001368F0040020EC0400200B4B1A6942F0010235
S315080013781A611A6922F001021A61DA6922F0010271
S31508001388DA614FF0E02300221A615A619A614FF038
S315080013980072C3F8042D7047001002400C484FF03D
S315080013A8804302885B6A9B1A9BB2632B10B50DD9DA
S315080013B8084C6421B3FBF1F32168194403EB830352
S315080013C803EB830302EB83022160028010BD00BF92
S315080013D8EC040020F004002008B5FFF7DFFF014BF6
S315080013E8186808BDF004002008B5FFF7D7FF014BB9
S315080013F8186808BDF004002010B50446002000F05F
S31508001408CDFA38B101222146002000F0D1FA431E50
S315080014185842584110BD000007B50D480D4B0360EA
S31508001428FEF7ECFF012301A90020ADF8043000F00F
S3150800143835FE00F0C5F8B0F5FA6F06D24FF4FA6033
S3150800144803B05DF804EB00F0B5B803B05DF804FB2B
S3150800145838050020005C004008B500F015FE034872
S31508001468034B0360BDE80840FEF7FCBF38050020BB
S31508001478005C004013B53F2904468DF8071003D9C8
S3150800148811488D2100F070F801220DF1070100209E
S3150800149800F098FA012803D00B48912100F064F867
S315080014A89DF807202146002000F08CFA9DF80730A1
S315080014B8834203D00448942100F056F8002000F02F
S315080014C88BFA02B010BD00BF743C00082DE9F8433A
S315080014D81D4F1E4D804600200E4601F05BFE00217A
S315080014E84FF0FF3001F01CF83C787CB92846FFF726
S315080014F883FF012806D12B78013B3E2B9EBF144B50
S3150800150838701C7000242046BDE8F883DFF8409040
S3150800151899F8000001302844FFF76EFF01280446B1
S31508001528F0D199F800302A780133DBB29A4289F863
S315080015380030E7D1691C4046FFF75AFD00233B7087
S3150800154899F800303370DEE735050020F5040020E9
S31508001558F40400200120FEF74BBE0020FEF748BE23
S31508001568FEF760BEFEF75FBE08B500F0B2F8FCE706
S3150800157810B500F0A5F8012814D00B4C2378012BD8
S3150800158810D1FFF729FF094B094A1B68126813444B
S3150800159803F5FA73984205D300232370BDE8104073
S315080015A8FFF704BD10BD00BF140800200C08002072
S315080015B810080020014B1860704700BF0C0800206F
S315080015C8014B1868704700BF0C08002008B5044B83
S315080015D81B78012B03D1FFF7FFFE024B186008BDE5
S315080015E8140800201008002008B5044B01221A70B8
S315080015F8FFF7ECFFBDE80840FFF7BABF140800205C
S3150800160808B5FFF7D1FC00F062F8FFF76DFEFFF7A3
S3150800161857FE00F00FF8BDE80840FFF7E5BF08B524
S3150800162800F057F8FFF7BAFE00F010F8BDE80840D2
S31508001638FFF79EBF08B500F05BF8FFF7EDFE024B13
S3150800164803221A7008BD00BF3500002007B50948EF
S315080016580DF10701FFF73AFF012807D1064B9DF858
S315080016680710044803221A7000F062F803B05DF800
S3150800167804FB00BF1508002035000020FFF7ECBE64
S3150800168808B5054B1B78032B02D1C9B2FFF7F2FE42
S31508001698BDE8084000F044B835000020064B1B7822
S315080016A8022B05D006D9042B14BF3F20812070478A
S315080016B8082070478120704735000020FFF7EEBFE5
S315080016C808B500F023F8003818BF012008BDFEF752
S315080016D8ABBDFEF7ACBD0000034BFE221A70022212
S315080016E85870A3F8442070475408002000687047CB
S315080016F8054B00229A64A3F8442083F83F20A3F8F0
S31508001708402083F84220704754080020034B93F87A
S315080017183F00003818BF0120704700BF5408002052
S31508001728024B002283F84220704700BF5408002065
S31508001738F8B50378954CFF2B054630D101220023CE
S3150800174884F83F2041F2FF0284F84030A3702280D3
S31508001758FFF7A4FFE070FFF7B1FF2071FFF7AEFFB0
S3150800176840F20113000AE38008236071A4F84430A4
S31508001778FFF7A6FD94F84230012B02D11020FFF797
S31508001788ABFFB4F94410002940F3FE80012384F81E
S315080017984230BDE8F8407D4889B2FFF771BF94F832
S315080017A83F20012A40F0F080D22B1DD8C82B01D83B
S315080017B8202043E0C93B092BFAD801A252F823F0A6
S315080017C8FB180008B9170008B91700080D1900080A
S315080017D8B9170008B91700088B1900082319000853
S315080017E8751900085F19000803F10D02D2B20B2A11
S315080017F8DED8F33B0B2BDBD801A252F823F000BF47
S31508001808911800086918000839180008811800088E
S31508001818B9170008B9170008B9170008C518000845
S31508001828B9170008D3180008D7180008EB180008D5
S31508001838FFF734FF6A78904203D82220FFF74CFF57
S3150800184898E7A16C5248FFF7D3FBFF236A78237001
S31508001858A36C1344A3646B780133A4F8443089E76E
S31508001868FFF71CFF6B788342E7D2281DFFF73EFF78
S31508001878A0646A780146E5E7FF23281D2370FFF769
S3150800188835FFA0640123E8E7281DFF232370FFF727
S315080018982DFFA66C00258719BE4208D10023012210
S315080018A825716371E380627063800823D5E716F8AB
S315080018B8013B1D44EDB2FFF70CFFEDE7354BA3647A
S315080018C8FF220723C4E90023EFE70020B6E7FF2332
S315080018D8238094F84030A3700023E370A38006237E
S315080018E8BBE7002384F83F3084F84030FF23237091
S315080018F8C8E7A66CFFF7D2FE6A1C411E3046FFF7FA
S31508001908E1FC08B9312099E7FF232370FFF7C6FEE3
S31508001918A36C01380344A364B4E7FFF7BFFE6B78EA
S315080019280138984289DDFF2323700123A4F844303F
S31508001938697829B9FFF7CEFC00287FF41BAFE1E7E1
S31508001948A06CAA1CFFF7BEFC0028DBD06A78A36C3B
S315080019581344A3640EE7FF2300252380A570FFF729
S315080019689DFEA580E070A571072376E70430FFF78A
S31508001978BDFEA36C01461846FFF7A6FC0028B5D19C
S31508001988C0E7FFF713FBB1E7F8BD00BF540800200E
S3150800199855080020A33D00087047704708B518B9D0
S315080019A8024800F096F908BD0020FCE780090020E7
S315080019B8134618B90A46024902F0EEB800207047DD
S315080019C87809002020B993B20A46024902F034B8C9
S315080019D8002070472409002010B9024901F0F6BF13
S315080019E800207047240900207FB5124C124EAC22FD
S315080019F80021204602F0E0F804F16C034025009324
S31508001A080023CDE901561A461946039504F15800EC
S31508001A1801F092FF04F1180300932E440023CDE940
S31508001A280156039501221946201D01F085FF04B0C9
S31508001A3870BD00BF20090020A008002010B5054C7D
S31508001A48204601F08FFFA4F1540001F08BFF012016
S31508001A5810BD00BF7809002038B5074C2046002578
S31508001A6800F8605B00F027FA04F10C0084F8595076
S31508001A7800F021FA657138BD200900202DE9F041EA
S31508001A884B79FF2B80460E4627D12E4D0C7895F8B4
S31508001A98593013BB6B7903BB8B782B708F180C44A2
S31508001AA8BC4206D2237823449F4202D36378042B88
S31508001AB803D1A01B80B2BDE8F0810B2BF9D0052B0A
S31508001AC822D12146404600F077FC40B94FF0E02382
S31508001AD8D3F8F03DD80700D500BE0020EBE7A37879
S31508001AE8DA0914D06A797AB96B71A3882A79C3F3A3
S31508001AF80A03A3F500714B424B4163F341021249AD
S31508001B082A71404601F062FF23781C44C8E795F815
S31508001B185920002AF8D185F85930A3880B49C3F308
S31508001B280A03A3F500725342534195F858204046D4
S31508001B3863F3410285F8582001F0D0FF0028E3D165
S31508001B48C4E700BF200900202409002078090020DE
S31508001B5870B5184D1C4695F859308B42064614D16F
S31508001B68B5F86430A4B22BB1E96D224605F16000D8
S31508001B7800F02CF9104900202246FFF70DFF0F49FF
S31508001B88304601F0ABFF012070BD6B798B420FD14F
S31508001B98A1B20020FFF701FF291D304601F016FF04
S31508001BA80028F0D12246291D304601F0DDFEEAE775
S31508001BB80020E9E720090020A0080020780900206D
S31508001BC80A4492B291424FEA400001D8824201DBA8
S31508001BD8121A92B21046704738B50546D41A0846FE
S31508001BE8A988A4B29A423CBF04EB4104A4B2B4B192
S31508001BF8A14205D2914294BF521A521893B26B81E8
S31508001C08994209D9EA882968C2F30E0202FB031128
S31508001C1801F0FEFF012038BD5B1A9BB2F0E72046AB
S31508001C28F9E72DE9F047BDF8204086881D1BADB2B7
S31508001C38A3423CBF05EB4605ADB207468846F5B153
S31508001C48AE4206D29E4294BF9B1B9B199CB2448106
S31508001C583546954228BF1546A64213D9FA883968E3
S31508001C68A6EB04091FFA89F9C2F30E0A4D4552462E
S31508001C780AFB041109D86A43404601F0C9FF2846F9
S31508001C88BDE8F087A41BA4B2E6E719FB0AF91FFA10
S31508001C9889F94A464046AE1B01F0BAFFA21912FB5B
S31508001CA80AF2396892B208EB0900E6E7B2F5004F7E
S31508001CB80DD882809DF800200160C3F30E0343EA1D
S31508001CC8C233C38000234381038101207047002063
S31508001CD8704702468088138952899BB292B293420A
S31508001CE836BFC2EB40029B1A9B189BB2984228BF84
S31508001CF81846704703894289818892B29BB29342F3
S31508001D0836BFC2EB41029B1A9B189BB299428CBFFD
S31508001D1800200120704703894189828889B29BB2CD
S31508001D288B4236BFC1EB42015B1A5B189BB29A42DB
S31508001D3886BFD01A80B2002070470289438910B539
S31508001D489BB2044692B2FFF747FF618903460246EB
S31508001D5889B2A088FFF734FF6081184610BD37B5E9
S31508001D6803894589ADB2044600959BB2FFF759FF2A
S31508001D7861890346024689B2A088FFF721FF608178
S31508001D88184603B030BD70B5058904460E46ADB28F
S31508001D98FFF7B0FF10B1E079C00913D0A388284629
S31508001DA8834210D9E2882368C2F30E02314602FB41
S31508001DB8003001F02DFFA08801222946FFF700FF11
S31508001DC82081012070BDC01A80B2E9E72DE9F84FD5
S31508001DD8074688461446002A31D0C37906894189B8
S31508001DE88588DB09B6B289B22CD18E4235BFC1EBDC
S31508001DF84503711A9B198BB238BF9BB2AB4256D2B0
S31508001E08EB1A9BB29A4228BF1C46B146A94537D257
S31508001E18FA883868A5EB090A1FFA8AFAC2F30E0B7C
S31508001E28A2455A460BFB09002FD36243414601F0E7
S31508001E38EFFEB88822463146FFF7C2FE38812046AB
S31508001E48BDE8F88FAA4209D39DB3C388541BC3F3C8
S31508001E580E0303FB04880E462C46D6E78E424FEA45
S31508001E68450236BF531A731A9B199BB223449342E9
S31508001E78CBDB2A1B92B22846FFF7A2FE0646C4E722
S31508001E88A9EB05091FFA89F9C0E71AFB0BFA1FFA25
S31508001E988AFA52464146651B01F0BAFE09EB050265
S31508001EA812FB0BF2386892B208EB0A01BFE7002466
S31508001EB8C5E72C46C3E70023438103810120704701
S31508001EC80A46018908B589B203468088FFF778FE6D
S31508001ED8188108BD0A46418908B589B2034680882B
S31508001EE8FFF76EFE588108BD70B504894389858851
S31508001EF8A4B29BB29C4236BFC3EB4502E21A12193A
S31508001F0892B2954205D2A54209D8631B9BB2438172
S31508001F182A46B2B9C1E900220020886070BD2B198B
S31508001F289BB243812A469D420ED90068A34200EB1C
S31508001F3803064E600BD200230A804B80ECE7641B2D
S31508001F48A4B2A542FBD9EEE75B1B9BB2EBE7521B93
S31508001F58EC1A13440C804B80DFE70389428970B575
S31508001F689BB292B28588934236BFC2EB45049C1A47
S31508001F78E418A4B2A54207D80023C1E90033002013
S31508001F88886070BD5B1B9BB29D42FBD995420AD9F6
S31508001F9800689A4200EB03064E6007D9D21A002356
S31508001FA80A804B80EBE7521B92B2EFE7ED1A1B1B30
S31508001FB80D804B80E4E700002DE9F0411A4E1B4FCF
S31508001FC8DFF878800546002431784B1CE2B2DBB28C
S31508001FD8934210D834220021154801F0EDFD10224D
S31508001FE8FF21144801F0E8FDBDE8F0411248102227
S31508001FF8FF2101F0E1BD91420DD9D8F8003024211E
S3150800200801FB02334BB94FF0E023D3F8F03DDB0769
S3150800201808D4BDE8F081F6D13B46DB6828469847E0
S315080020280134D1E700BEF4E7900A0020AC3D000869
S31508002038990A00209D0A0020AD0A0020940A00206B
S3150800204870B50C4605461646486900F0E3FD63690F
S31508002058324628460121BDE870401847034A034618
S3150800206810780BB101F034B801F037B848000020F1
S3150800207870477047002070470020704770477047C0
S31508002088034600201870704708B5034B1878FFF701
S31508002098F6FF012008BD00BF480000202DE9F84FCB
S315080020A8DFF8BC8098F80030FF2B05460E4646D167
S315080020B849B94FF0E023D3F8F03DDB0700D500BE59
S315080020C80020BDE8F88F342200211F481F4FDFF88B
S315080020D8949001F071FD1E4B1E4800241C70FFF7F2
S315080020E8EAFE1D4B1D4A1A603846FFF7C9FF3B78BA
S315080020F8C9F80000FF2BDCD0DFF86CA04FF0240BE2
S315080021080CE091421DD9D9F800300BFB0233002B9D
S31508002118CFD05B680134002BCBD0984739784B1C55
S31508002128E2B2DBB29342ECD83146284688F800502A
S3150800213800F0D4FF0028BCD0284600F0C9FF0120CB
S31508002148BFE7B6D15346E4E7990A0020900A00206B
S31508002158980A00203C000020CC09002038000020FE
S3150800216848000020940A0020AC3D00082DE9F043F9
S315080021784378023B85B004460E46052B16D8DFE899
S3150800218813F00600B1002A003200C800CD00844BBF
S315080021981A7822F001021A701A78002122F002022F
S315080021A81A7059701A7861F382021A707D4B1F6883
S315080021B816B93B68304698472146381DFFF7E3FDB0
S315080021C8054616B93B6801209847002D77D06178EF
S315080021D8207832469AE0724B1A78D70776D51A7855
S315080021E842F00402E1E76E4A1378DD076ED51378E4
S315080021F823F004031370D9E791426AD9D9F8003055
S31508002208242101FB0233002B65D1013539784B1C93
S31508002218EAB2DBB29342EFD8614D2B7858072CD532
S315080022282B7823F004032B700023CDF80630CDF85D
S315080022380A30ADF80E3023788DF8043005238DF86A
S315080022480530584BD3F800801EB9D8F80030304608
S31508002258984701A908F10400FFF795FD07461EB936
S31508002268D8F8003001209847002F42D14FF0E023D4
S31508002278D3F8F03DD90700D500BEEB78DA0725D59F
S315080022880023CDF80630CDF80A30ADF80E3023789D
S315080022988DF8043003238DF8053063680293414BA3
S315080022A81D6816B92B683046984701A9281DFFF7F7
S315080022B86AFD044616B92B68012098470CBB4FF0EF
S315080022C8E023D3F8F03DDB0700D500BE05B0BDE82E
S315080022D8F0839AD143461B6A002B96D0616820780A
S315080022E8984792E7304FDFF8CC80DFF8C49000258E
S315080022F88CE79DF805109DF804003246FFF7B8FEEE
S31508002308BBE79DF805109DF804003246FFF7B0FEB6
S31508002318DCE7264A13780133DBB26BE7017911F05B
S315080023280F033FF443AF1E4D1F4A4FEA430C05EB14
S31508002338430303EBD11312781B7D93424FEAD1105E
S3150800234829D21B4A126803EBC30312EB83033FF433
S315080023582DAFDF69002F3FF429AF6544054462793C
S3150800236895F8243023F0010385F8243095F82430AD
S3150800237823F0040385F824302078A3682035B84765
S315080023880028A3D12B7943F001032B712B7943F04D
S3150800239804032B710AE77FF409AF064BD9E700BF98
S315080023A8990A0020CC090020900A0020980A0020E3
S315080023B8940A0020AC3D000838B58A780D4B12F00F
S315080023C808021D780C4608D04FF0E023D3F8F03DF4
S315080023D8DB0700D500BE002038BD074B2046997894
S315080023E801F054FA0028EFD021462846BDE83840BF
S315080023F801F012B948000020990A0020CB0901F01B
S315080024080F020448243303EB42030021184401F061
S3150800241811BA00BF990A0020CB0901F00F02044837
S31508002428243303EB42030021184401F01EBA00BF07
S31508002438990A002070B5134C134801F00F0604EBEF
S31508002448460404EBD114203425790078ED0708D51D
S315080024584FF0E023D3F8F03DDB0700D500BE002097
S3150800246870BD257945F00105257101F05DF900284B
S31508002478F6D1227960F300022271227960F382028A
S315080024882271E5E7990A00204800002010B50C4B90
S3150800249818780C4601F064F90A4904F00F0301EBB1
S315080024A8430101EBD41191F8243043F0020381F873
S315080024B8243091F8243043F0010381F8243010BD04
S315080024C848000020990A002010B50C4B18780C46CD
S315080024D801F076F90A4904F00F0301EB430101EB11
S315080024E8D41191F8243023F0020381F8243091F8A6
S315080024F8243023F0010381F8243010BD4800002059
S31508002508990A0020054B01F00F0203EB420303EB7F
S31508002518D11191F82400C0F340007047990A0020A9
S315080025282DE9F04F984B1B78FF2B87B03DD0974F76
S31508002538974B1D682C46002054F8043B98472046BC
S3150800254803A9FFF7FAFB2B6804460120984764B3EA
S315080025589DF80D30013B072B00F2D282DFE813F015
S3150800256808001200C802B002BA021B007102C102B2
S315080025789DF80C00FFF720FD00F044FB9DF810308D
S31508002588BB70D5E79DF80C00FFF716FD00F03AFB7F
S31508002598FEF7E3FFCCE77F4A13784BB94FF0E02301
S315080025A8D3F8F03DDC0700D500BE07B0BDE8F08FCC
S315080025B81378013BDBB21370137803F0FF00002B86
S315080025C8B6D1724C9DF80C50237843F0010323705A
S315080025D894F8243060F3000384F8243094F82430FF
S315080025E860F3820384F8243094F8253060F30003F6
S315080025F884F8253094F8253060F3820384F825306A
S3150800260800F008FB9DF8102002F06003602B07D144
S315080026184FF0E023D3F8F03DDD072CD500BE2AE0BD
S31508002628402B0BD15C4800F0F5FA04AA012128468C
S31508002638FEF740FC00287FF47BAF1CE002F01F027F
S31508002648012A00F07E81022A00F0AC81002ADFD137
S31508002658202B22D19DF814300F2B0CD82344197936
S315080026684E4B1B78994211D24D4B1B6801EBC101A1
S3150800267813EB81010CD19DF80C00002101F070F8CC
S315080026889DF80C00802101F06BF851E7F3D1454914
S3150800269804AA2846FFF7D4FCCCE7002BB8D19DF846
S315080026A81130092BB4D801A252F823F029290008B9
S315080026B817290008192600080329000819260008FA
S315080026C8DD2600085928000819260008F7260008F4
S315080026D80127000804A800F0A3FA9DF81210284656
S315080026E801F038F8237843F00203237020E763786B
S315080026F88DF80A3001231DE19DF8126063789E4221
S3150800270813D063786BB10021284600F031FD2846BE
S3150800271800F0EAFF94F802802846FFF74DFC84F893
S315080027280280667036B9FEF718FF04A9284600F035
S315080027382DFAFDE6701EC0B2FEF7B4FB10B1437859
S31508002748022B08D04FF0E023D3F8F03DD9077DD403
S31508002758002363705CE7C379C3F38012C3F340139D
S315080027681B0143EA4213227822F0300213432370EE
S315080027784388C31800F109060093009BB34213D88F
S31508002788FEF7E8FED1E700BF48000020990A0020B6
S31508002798CC090020980A0020BD0E0008900A0020DF
S315080027A8940A0020AC3D000873780B2B03BF3278D7
S315080027B8F378B61801237278042AC3D1009AA2EBD3
S315080027C8060A1FFA8AFA4FF0000BB74A11784A1C0C
S315080027D85FFA8BF8D2B24245B4D9414515D9B34AFE
S315080027E81268242101FB0822002AABD0D2F81090DF
S315080027F80193524631462846C8470828019B814610
S3150800280821D982451FD300210CE09BD1A84AEDE7C0
S31508002818B078024454FA82F201311079FF2891D12E
S3150800282882F80480CAB29342F2D843463146A14890
S315080028384A4601F06FF89C4B1B780133DBB24345D7
S315080028484E449AD87EE70BF1010BBEE700BE7FE738
S31508002858BDF812301A0AD8B2531E0E2B3FF60BAF24
S3150800286801A151F823F000BFAD280008CF280008B9
S31508002878E92800087F2600087F260008FD280008A2
S31508002888CF2800087F2600087F2600087F2600082C
S315080028987F2600087F2600087F2600087F2600086E
S315080028A8C5280008FEF7FAFA024600283FF4B0AE33
S315080028B8122304A9284600F07BF9BBE6FEF7F6FAC8
S315080028C8024640B9D7E6022A07D1FEF7EBFA0246CE
S315080028D800283FF49DAE5388EBE7FFF7CDFBEFE7FB
S315080028E8BDF81410FEF700FB024600283FF4C3AEF5
S315080028F80378DEE7FFF7BEFBF6E7BDF81230012BD3
S315080029087FF4B9AE237843F0080323700DE7BDF8C2
S315080029181230012B7FF4AFAE237823F00803F4E7CF
S315080029282378C3F340129B0803F002031343ADF858
S315080029380A3002230DF10A0204A9284600F038F9DC
S31508002948F6E59DF814300F2B3FF695AE2344197912
S31508002958554B1B7899421ED2544B1B6801EBC10193
S3150800296813EB81013FF487AE04AA2846FFF768FBF4
S3150800297800287FF4DDAD9DF8103013F060047FF46D
S315080029887AAE00F047F99DF811300A2B07D00B2BC1
S315080029983FF4CBAE6FE67FF46EAE4549E4E78DF8B3
S315080029A80A40A7E69DF814100A073FF531AE01F06C
S315080029B80F0204EB42023C4802EBD1120078127D62
S315080029C8824215D23948066802EBC20206EB82062D
S315080029D8ABB99DF8113003F0FD02012A15D0002B7A
S315080029E87FF416AE2846FFF78DFDADF80A00A0E776
S315080029F800F08F80002B7FF43EAE0026E9E7002E14
S31508002A083FF439AE04AA314643E6BDF8122022B986
S31508002A18012B284612D1FFF757FD002E3FF488AD43
S31508002A28314604AA2846FFF70BFB002000F0F2F807
S31508002A3894F82530DE073FF57BAD76E6FFF726FDE9
S31508002A48EBE79DF8101001F00F0407EB440202EBC0
S31508002A58D11292F8243023F0010382F8243092F830
S31508002A68243023F0040382F824303CB9059B9DF8EA
S31508002A7811209DF80C0000F0E1F859E5137D0A4A83
S31508002A881278934218D2094A126803EBC30312EB69
S31508002A9883033FF483AD9C699DF81120059B9DF837
S31508002AA80C00A04744E500BF900A0020940A0020BD
S31508002AB8AC3D0008AD0A00207FF470AD174BEAE775
S31508002AC83B78D8077FF534AD3878C0F3C000FEF7F1
S31508002AD847FD2DE53B78D9077FF52AADFEF742FD78
S31508002AE826E5049B002B3FF423AD059898471FE578
S31508002AF8FB78DA077FF51CAD0498FFF7BAFA17E5ED
S31508002B084FF0E023D3F8F03DDB077FF511AD00BEA3
S31508002B180EE5024E002B7FF475AF5AE7AC3D000868
S31508002B28144B9989DA8970B58C1AA4B2054693F9B3
S31508002B380000402C28BF402400280FDA914213D001
S31508002B489968A1B10C48224601F062F880210A4A20
S31508002B5823462846BDE87040FFF76CBC91424FF003
S31508002B680001F4D10A46F3E780210022F0E7084677
S31508002B7870BD00BF100B0020D00A0020C9430023EF
S31508002B881A4601F08001FFF755BC000030B4074C1F
S31508002B9805460B4608684968224603C20022C4E966
S31508002BA802222846197830BCFFF7E8BF100B002028
S31508002BB8F8B5134E0C46054608684968B2603746A4
S31508002BC803C70021F181E1888B4228BF0B46B381F0
S31508002BD889B14BB142B94FF0E023D3F8F03DDB0792
S31508002BE800D500BE002005E02846FFF799FF002813
S31508002BF8F1D00120F8BD21782846FFF7BFFFF6E790
S31508002C08100B002002481422002100F0D5BF00BF8F
S31508002C18100B0020014B1861704700BF100B0020ED
S31508002C2810B50246044C00685168234603C30023BE
S31508002C38C4E9023310BD00BF100B002070B5284C3C
S31508002C481E462378C909B1EBD31F054613D03EB1F2
S31508002C584FF0E023D3F8F03DDB073FD4002070BDE2
S31508002C68214600F0C3FC23691BB1224603212846E6
S31508002C7898470120F3E794F90030A068002B05DB94
S31508002C880028EBD01749324600F0C2FFA268E3894C
S31508002C9832443344A260E2889BB29A42E38101D067
S31508002CA83F2E17D8236933B921782846FFF766FFD8
S31508002CB80028DED1CCE70221094A2846984701466A
S31508002CC80028F1D1284600F04BFD8021284600F05F
S31508002CD847FDCEE72846FFF723FFE9E700BEBDE72D
S31508002CE8100B0020D00A00201E4AF0B5C40900F0CF
S31508002CF80F050023164604F1020C84F0010E12F89B
S31508002D080C70D8B237B157788F421DD11778AF42B1
S31508002D181AD1F0BD012904D106EB83077744BF7899
S31508002D2897B91778FF2F01D0AF420DD15778FF2FE3
S31508002D3808D106F8235006EB830301225970234469
S31508002D489A70E6E78F42F4D00133082B02F10402A1
S31508002D58D5D14FF0E023D3F8F03DDB0700D500BE08
S31508002D680020D6E7270B0020400000F180405308D2
S31508002D7800F5C040F0B50D4606461C46013C06D28D
S31508002D88D20744BF11F8132020F82320F0BD35F8E0
S31508002D98027B26F8047BF1E7490001F180415308D4
S31508002DA801F5C041F0B506460D461C46013C06D25B
S31508002DB8D20744BF31F8232000F81320F0BD35F8B0
S31508002DC8047B26F8027BF1E73E280E498BBF1F30A5
S31508002DD80130C0F34713C0F3470308888CBF202285
S31508002DE8022203FB02039BB2B3F5007F0B8008D9C6
S31508002DF84FF0E023D3F8F03DDB0700D500BE4FF6C9
S31508002E08FF707047240B00201F4A38B50023A2F824
S31508002E184C301E4AFF211D460133082B117051708C
S31508002E289570D57002F10402F6D10021184B40249A
S31508002E3808461C80FFF758FF8020FFF755FF154BFB
S31508002E4820469D739D779C819C83FFF7BDFF85B2BD
S31508002E582046FFF7B9FF10490B4A0D8180B2088052
S31508002E68138823F4786323F00F035B045B0C83F45D
S31508002E78085383F020034FF48050888113808023F9
S31508002E88A2F84C3038BD00BF005C0040270B002074
S31508002E98240B0020480B0020006000402DE9F04F65
S31508002EA8438904898289D0F804B0E41AA4B2944202
S31508002EB828BF14464F4A32F821801FFA88F808F4C2
S31508002EC8C0628BB048F40047B2F5806F47F08007B8
S31508002ED8019208BFC7F3801A4FEA410218BF4FF09C
S31508002EE8000A894604920AEB4102434931F83250EE
S31508002EF80646ADB2BBF1000F73D0002C49D007A91E
S31508002F085846FEF7F1FFBDF81C10BDF81E20A14271
S31508002F1828BF2146631A9BB2934228BF1346CA188C
S31508002F28984693B221F00100029301F0010382B298
S31508002F380899039320B128460592FFF715FF059AC5
S31508002F48039B1544A8B2099DC3B18A5CADF81A203B
S31508002F58B8F1000F09D015F8011B08F1FF3342EA4A
S31508002F680122ADF81A201FFA83F802220DF11A0178
S31508002F780390FFF7F9FE0398023080B2B8F1000F04
S31508002F8803D042462946FFF7EFFE02995846FEF750
S31508002F98A1FF738923447381049B5344DB0003F11F
S31508002FA8804303F5C043C4F309049A8802F47C42B3
S31508002FB822439A80019BB3F5806F08BF012387F0E7
S31508002FC8300708BFF37327F4E0470A4B27F0400792
S31508002FD823F82970BFF34F8FBFF36F8F0BB0BDE887
S31508002FE8F08F002CD5D00168224619442846FFF7E9
S31508002FF8BBFECEE7005C004000600040324A38B5A8
S315080030080B4601EB400102EB0111012B897B06D126
S3150800301802EB40101030FFF741FF012038BD2B4C5A
S3150800302802EB401034F8215002898089ADB225F4A4
S315080030388044824224F0700405F4C06528BF02461D
S3150800304844F40044B5F5806F44F080044FEA011053
S3150800305822D13E2A89BF1F3201320123C2F3471201
S3150800306898BFC2F34702D21ADB0343EA82239BB20C
S3150800307800F18040002B00F5C04008BF4FF400431C
S3150800308883808381114B84F4405423F82140BFF38D
S315080030984F8FBFF36F8FC0E73E2A89BF1F320132B1
S315080030A80123C2F3471298BFC2F34702D21ADB03B9
S315080030B843EA82239BB2002B00F1804008BF4FF4F5
S315080030C8004300F5C040DCE7480B0020005C0040E0
S315080030D8BFF34F8FBFF36F8F704770471FB504460E
S315080030E800230193019BC72B34D9204A0323A2F84E
S315080030F8403000230293029BC72B2FD9B2F84030E1
S3150800310823F002031B041B0CA2F840300023039388
S31508003118039BC72B26D9154B0022A3F84020A3F8F2
S315080031285020A3F844201A809A801A819A811A8214
S315080031389A821A839A83B3F8402092B242F45D427F
S31508003148A3F84020FFF760FE2046FEF797FF012008
S3150800315804B010BD00BF019B0133C2E700BF029B44
S315080031680133C7E700BF039B0133D0E7005C004083
S31508003178074AB2F8403029B19BB243F40073A2F863
S315080031884030704723F400731B041B0CF7E700BF95
S31508003198005C00402DE9F04F8E4BB3F844209705A4
S315080031A88FB01FFA82FB10D54FF6FF52A3F84420BA
S315080031B8B3F848304FF44072C3F30A0301210BA849
S315080031C8ADF82C200C93FEF7D1FF1BF4806F814ACB
S315080031D813D04FF6FF33A2F84430FFF715FE4FF425
S315080031E88073ADF82C30012100230BA88DF83030F8
S315080031F8FEF7BCFF0FB0BDE8F08F1BF4805F1BD04D
S31508003208B2F8403023F004031B041B0CA2F8403024
S31508003218B2F8403023F008031B041B0CA2F8403010
S315080032284EF6FF73A2F8443001214FF4A0630BA8A9
S31508003238ADF82C30FEF79AFF1BF4006F1AD0654BD1
S31508003248B3F8402092B242F00802A3F84020B3F837
S31508003258402092B242F00402A3F840204FF2FF72CF
S31508003268A3F8442001214FF480630BA8ADF82C304D
S31508003278FEF77CFF1BF4807F16D057490A78012A87
S315080032880BD15448B0F8403023F010031B041B0C2C
S31508003298A0F84030013A0A7001E0002AFAD14D4BED
S315080032A84FF6FF62A3F84420DFF830A1494BB3F87C
S315080032B844301A040FD41BF4804F9BD04FF0E023F8
S315080032C8D3F8F03DDB0700D500BE424B4BF6FF723C
S315080032D8A3F844208EE73F4BB3F8447007F00F076E
S315080032E8BC0004F1804404F5B84423889AB21E0445
S315080032F8029227D5150575D53B0103F1804303F5D9
S31508003308C0439D891989C5F3090589B21DB12A469D
S3150800331809A8FFF741FD238823F070031B051B0D39
S3150800332843F08003082D238047D1DDE909014FF4CE
S31508003338C063ADF82C300EAB03E9030001210BA8D6
S31508003348FEF714FF029B1906B0D52388234823F4F1
S31508003358E14323F070031B041B0C43F4004323804A
S31508003368218801F00F028BB201F4C061B1F5806FB4
S315080033784FEA421114D14418E57F002D96D083F000
S315080033884003C3F3801303EB4703DB0003F18043D1
S3150800339803F5C0430025E5779C8804F47C449C80A3
S315080033A84318598B1B8B8B4200F00D8100EB42109A
S315080033B839461030FFF772FD78E74FF0E023D3F867
S315080033C8F03DD80700D500BE054B4FF480529A81C8
S315080033D8B8E700BF005C0040260B0020480B002019
S315080033E800600040238823F070031B051B0D43F07B
S315080033F88003238023889AB203F00F0903F4C06375
S31508003408B3F5806F049304BF134683F4804303928D
S3150800341808BFC3F38033744A18BF012303EB470375
S3150800342802EBC301B1F8048032F833500AEB4913AA
S31508003438C8F3090859680091ADB24FEA491200293C
S3150800344800F08480B8F1000F32D00BA90098FEF777
S3150800345884FDBDF82C30BDF82E20434528BF4346C9
S31508003468A8EB0306B6B2964228BF16469A1992B230
S31508003478069223F0010291B201910C99059103F085
S31508003488010332B1019A059807932946FFF784FC88
S31508003498079B019A1544ADB2002B42D10D981EB16F
S315080034A832462946FFF778FC06990098FEF708FD84
S315080034B80AEB49134FEA491559899A89414489B249
S315080034C89045598102D31B8999424BD33E2A8BBF13
S315080034D81F320132012300238CBFC2F34712C2F3FD
S315080034E84702D21ADB0343EA82233A019BB202F166
S315080034F88042002B02F5C04208BF4FF400435544EA
S31508003508938100264FF4E0630D910BA80121ADF8CD
S315080035182C308DF830908DF83160FEF727FEAE60B6
S3150800352810E72946022209A8FFF736FC059A0199E9
S31508003538BDF82430535402350D98ADB21B0A002E37
S31508003548B2D0013E00F8013BB6B2A8E7B8F1000FC1
S31508003558AED05AF802005B89424629461844FFF756
S315080035681BFCA5E70498B0F5806F1ED05B1A9BB2C2
S31508003578934228BF13463E2B8BBF1F3301330122C4
S3150800358800228CBFC3F34713C3F347039B1AD2031E
S3150800359842EA83233A019BB202F18042002B02F5E4
S315080035A8C04208BF4FF400439381039B23F480432A
S315080035B823F0700343F4004343F0800383F4405335
S315080035C89BB22380BEE64FF4E061ADF82C1062F09A
S315080035D87F020D93012100230BA88DF830208DF862
S315080035E83130FEF7C3FD61E6006000400B785B06E4
S315080035F809D14B78052B06D14B88054A63F07F031A
S31508003608DBB2A2F84C30034B4FF480529A817047CC
S31508003618005C0040006000402DE9F8430F468E78AC
S31508003628B1F80490C978304601F00301FFF75CFB4E
S315080036380728044609D94FF0E023D3F8F03DDB07FD
S3150800364800D500BE0020BDE8F883244B33F82030A7
S3150800365823F4786306F00F0823F00F0348F40045AF
S315080036685B045B0C45F080051D43FB7803F00303F8
S31508003678022B03D0032BDED145F4C065C9F30A092A
S315080036884846FFF7A1FBF60986F00103144A03EB3F
S31508003698440380B222F83300124B06EB480803EBC2
S315080036A80813012EA3F80C909C7314BF0C2204224D
S315080036B84FF0020303FA02F383EA0503074A0CBF2D
S315080036C823F4E04323F070039BB222F82430BFF3B7
S315080036D84F8FBFF36F8F0120B5E700BF005C00402E
S315080036E800600040480B002010B50C4B0C4C01221A
S315080036F80021FF2024F822100132082A187158716F
S315080037089971D97103F10403F4D1BFF34F8FBFF34D
S315080037186F8F044BC0221A8010BD00BF270B0020EC
S31508003728005C0040240B002001F00F0070B4440030
S31508003738074D04EBD114260105EB0414AA510022FF
S31508003748626023816281C90970BCFFF757BC00BF54
S31508003758480B002000231A468021FFF7E5BF000022
S3150800376801F00F03144A5B0003EBD11302EB0313B2
S31508003778C909987B114B33F820309BB214BF23F440
S31508003788E04323F4804348F2800215BF23F0400340
S3150800379823F070031A431A4314BF04210C2101238A
S315080037A88B405340054A9BB222F82030BFF34F8F0F
S315080037B8BFF36F8F704700BF480B0020005C0040BE
S315080037C801F00F035B00C80903EBD111174B03EB94
S315080037D8011310B59C7B164B33F82420012848F6AC
S315080037E8BF7392B24BF68F7114BF4FF480431946D4
S315080037F842F4004208BF402342F080020B431340BC
S3150800380803F4C062B2F5806F06D0012814BF0C21F4
S31508003818042102228A405340054A9BB222F82430E2
S31508003828BFF34F8FBFF36F8F10BD00BF480B002043
S31508003838005C00400378024613F0010011D11378A2
S31508003848C3F380015B070FD4137813F001000AD17C
S3150800385813785B0708D4137843F004031370012020
S315080038687047002070470846704702780346C2F337
S315080038788000520709D51A7812F0010104D11A787E
S3150800388861F382021A7070470020704730B5C47811
S31508003898858804F00304022CC5F30A030CD0032C0C
S315080038A831D0012C14D1022940F2FF3208BF4FF457
S315080038B880629A4216D204E002290BD1B3F5007F3A
S315080038C810D04FF0E023D3F8F03DDA0700D500BE54
S315080038D8002030BD42B1B3F5007F05D140230371FE
S315080038E8002343710120F4E7202B0AD815F4FF6F4B
S315080038F8E7D0074A083B9BB222FA03F3DB07F1D461
S31508003908DFE7402BDCE7022918BF4022CEE700BFD5
S315080039180101000130B50A44914200D330BD4C7804
S31508003928052C06D18C7804F00F0500EB4505E4094B
S315080039382B550C782144EFE713B5027861F300029A
S315080039480446049900F8082B0093BDF814200123AF
S31508003958FEF7ACF9069B6360BDF81C30638001204E
S3150800396802B010BD01207047F8B50F780E8A0C46CC
S31508003978498A17F0020FB6B289B20CBF40234FF432
S3150800398800738E42054601D00020F8BD002AFBD0F8
S31508003998013B1342F8D1FA07F6D46178FEF72EFDF3
S315080039A80028F1D0237813F0010307D04FF0E0235D
S315080039B8D3F8F03DDB07E7D500BEE5E761781A4698
S315080039C82846FEF737FD0028DFD1EFE770B501F185
S315080039D80805064628460C46FEF77BF9B8B123784B
S315080039E8D80714D461783046FEF708FD78B128461A
S315080039F862886168FEF7B3F923780546A8B1D9073E
S31508003A0807D54FF0E023D3F8F03DDA070BD40020AA
S31508003A1870BD0346626861783046FEF70BFD0028DC
S31508003A28EFD02846F4E700BEF1E7DB07EFD4617864
S31508003A383046FEF7F1FCEAE72DE9F04107460C4661
S31508003A4890461E46D3B18B8953BB0B78D90715D434
S31508003A586178FEF7D3FC88B165886068B54228BFE7
S31508003A6835462A46414600F0D3F82378DA0707D5BB
S31508003A784FF0E023D3F8F03DDB070FD4002508E024
S31508003A8861784DB16268ABB23846FEF7D3FC0028B8
S31508003A98EED02846BDE8F0812A46F4E700BEEDE7F1
S31508003AA801F10803B2B2414618461E46FEF78EF9DA
S31508003AB82378054613F0020F30460CBF4FF040082E
S31508003AC84FF40078FEF705F9404502D2A389434525
S31508003AD8DFD221463846FFF779FFDAE78A89F8B54B
S31508003AE80B7806460C46F2B9DF070ED44978FEF776
S31508003AF885FC50B122786388D50708D54FF0E023AE
S31508003B08D3F8F03DDA0700D500BE0020F8BD617885
S31508003B183BB162683046FEF78DFC0028EED0608817
S31508003B28F4E71A46F6E701F1080713F0020F3846D4
S31508003B380CBF40254FF40075FEF7EDF88542E4D82A
S31508003B482378D807E1D461783046FEF757FC002871
S31508003B58DBD03846FEF7DFF88542237815D8D9072B
S31508003B686288CBD46D420540ADB2954228BF15464A
S31508003B78617845B162682B463046FEF75BFC00283B
S31508003B88BCD02846C2E72A46F5E7DB07BDD46178E4
S31508003B983046FEF741FCB8E770B50C4606461146AE
S31508003BA804F108009AB2FEF7DAF8214605463046C7
S31508003BB8FFF794FF284670BD02440346934200D196
S31508003BC8704703F8011BF9E770B50D4D0D4C641BDA
S31508003BD8A4100026A64209D10B4D0C4C00F026F875
S31508003BE8641BA4100026A64205D170BD55F8043BEF
S31508003BF898470136EEE755F8043B98470136F2E749
S31508003C08D83D0008D83D0008D83D0008DC3D000826
S31508003C180A44914200F1FF3300D1704710B511F8F4
S31508003C28014B03F8014F9142F9D110BDF8B500BF11
S31508003C38F8BC08BC9E467047F8B500BFF8BC08BC77
S30908003C489E467047CF
S31508003C4C00000000010203044F70656E424C5420BC
S31508003C5C557365720057696E5553422042756C6BE5
S31508003C6C2044657669636500433A2F576F726B2F4C
S31508003C7C736F6674776172652F4F70656E424C541C
S31508003C8C2F5461726765742F536F757263652F4174
S31508003C9C524D434D345F53544D333246332F75735F
S31508003CAC622E630009040A000000000003069E0049
S31508003CBC1400030057494E555342000000000000FB
S31508003CCC0000000080000400010028004400650084
S31508003CDC760069006300650049006E007400650093
S31508003CEC72006600610063006500470055004900D4
S31508003CFC440000004E007B003800300037003900C5
S31508003D0C39003900430033002D00450034004500C6
S31508003D1C30002D0034003000450041002D003800DD
S31508003D2C3100380038002D003400380045003800C2
S31508003D3C350032004200350034004600320042009D
S31508003D4C7D000000050F2100011C100500DF60DD59
S31508003D5CD88945C74C9CD2659D9E648A9F000003F2
S31508003D6C069E00010009022000010100804B09048F
S31508003D7C000002FF000000070501024000000705CD
S31508003D8C81024000001201010200000040501DACE7
S31508003D9C600001010203014F70656E424C5400002D
S31508003DAC00000000F1190008451A0008611A0008FD
S31508003DBC851A0008BD0E0008591B000800000000F3
S30908003DCC00000000E5
S30D08003DD0F8C3FF7F01000000A3
S30908003DD8AD01000823
S30908003DDC8901000843
S31508003DE000127A000100000010000000B03C000834
S31508003DF0543C0008613C00081C0000203031323376
S31508003E0034353637383941424344454600000000C8
S31508003E10000000000005000065200008D009002009
S31108003E2010000C0000000000FF0000006D
S705080005717C
