S01D000062696E2F6F70656E626C745F73746D3332663330332E7372656397
S3150800000000A00020250200087502000875020008F5
S315080000107502000875020008750200080000000055
S315080000200000000000000000000000007502000843
S315080000307502000800000000750200084D0E000851
S3150800004075020008750200087502000875020008A6
S315080000507502000875020008750200087502000896
S315080000607502000875020008750200087502000886
S315080000707502000875020008750200087502000876
S315080000807502000875020008750200087502000866
S315080000907502000875020008750200087502000856
S315080000A07502000875020008750200087502000846
S315080000B07502000875020008750200087502000836
S315080000C07502000875020008750200087502000826
S315080000D07502000875020008750200087502000816
S315080000E07502000875020008750200087502000806
S315080000F075020008750200087502000875020008F6
S315080001000000000000000000000000007502000862
S3150800011075020008750200087502000875020008D5
S3150800012075020008750200087502000875020008C5
S3150800013075020008750200080000000000000000B3
S315080001407502000875020008750200080000000024
S315080001500000000000000000000000000000000091
S315080001600000000000000000750200087502000883
S3150800017075020008000000000000000000000000F2
S30D080001800000000075020008EA
S31508000188034613F8012B002AFBD1181A01387047C1
S315080001980348044B834202D0034B03B11847704700
S315080001A85000002050000020000000000548064BBB
S315080001B81B1AD90F01EBA301491002D0034B03B14F
S315080001C81847704750000020500000200000000023
S315080001D810B5064C237843B9FFF7DAFF044B13B179
S315080001E80448AFF300800123237010BD5000002097
S315080001F800000000D43A000808B5054B1BB10549AC
S315080002080548AFF30080BDE80840FFF7CFBF00BF39
S315080002180000000054000020D43A0008DFF834D063
S315080002280D480E490E4A002302E0D458C450043338
S31508000238C4188C42F9D30B4A0B4C002301E013600F
S315080002480432A242FBD300F07FFC03F00DFC00F059
S3150800025813FDFEE700A00020000000205000002043
S31508000268703C000850000020400C0020FEE7000003
S315080002780749CA6822F4E0620302120403F4E06339
S31508000288120C134343F0BF6343F40033CB60704743
S3150800029800ED00E030B5164BDC68C4F30224C4F15F
S315080002A80703251D042B28BF0423062D4FF0FF3509
S315080002B88CBF033C002405FA03F321EA0303A5408F
S315080002C822EA0502A340002843EA0203ACBF00F16C
S315080002D86040084A4FEA0313B8BF00F00F00DBB2C4
S315080002E8AABF00F56140135480F8003330BD00BF3B
S315080002F800ED00E014ED00E00138B0F1807F0BD284
S315080003084FF0E023054A5861F02182F823100020AF
S31508000318072298611A6170470120704700ED00E0CE
S315080003282DE9F74FDFF884C15E4C00234FF001082A
S315080003384FF00F0E0A6832FA03F502D103B0BDE88A
S31508000348F08F08FA03F919EA020200F0A1800325DA
S315080003585F0005FA07F64D6805F00305013D012D0E
S315080003686FEA060611D8856805EA060ACD68BD400B
S3150800037845EA0A058560456825EA09094D68C5F309
S3150800038800159D4045EA090545604D6805F00305D1
S31508000398032D21D0C56805EA06098D68BD4045EADA
S315080003A80905C5604D6805F00305022D14D14FEA05
S315080003B8D30900EB890903F0070AD9F820504FEA50
S315080003C88A0A0EFA0AFB25EA0B0B0D6905FA0AF5DD
S315080003D845EA0B05C9F8205005682E404D6805F012
S315080003E80305BD40354305604D6815F4403F4FD0B9
S315080003F8DCF8185045F00105CCF81850DCF8185008
S3150800040823F0030606F1804605F0010506F5803651
S31508000418019503F00309019DB7684FEA89090EFAA1
S3150800042809F5B0F1904F27EA050733D01E4DA842C3
S3150800043832D005F58065A84230D005F58065A84212
S315080004482ED005F58065A84214BF0525042505FAAA
S3150800045809F53D43B5604D68A768D643ED0254BF14
S3150800046837401743A7604D68E768AD0254BF374061
S315080004781743E7604D686768AD0354BF37401743AD
S3150800048867604D682768ED0354BF374017432760F0
S3150800049801334FE70025DAE70125D8E70225D6E72D
S315080004A80325D4E700040140000400480010024070
S315080004B80AB181617047816270470000024B18686B
S315080004C8C0F34000704700BF0010024007B51F4A36
S315080004D8136843F001031360FFF7F0FF0128FBD107
S315080004E8136823F0F80343F0800313604FF0FF33D3
S315080004F801930199164B0B400193019B536053686E
S3150800050813F00C0FFBD113680193019B23F0847336
S3150800051823F480330193019B1360106810F0007070
S31508000528FBD1136823F4802313604FF41F0350602C
S31508000538D06210630193019B93609060536A43F0FD
S315080005488073536203B05DF804FB00BF00100240D5
S315080005580CC0FFF810B5074B4FF0FF3200241A619C
S315080005681C61DA60DC609A629C6200F031FC204605
S3150800057810BD00BF0010024038B50E4B1A784FF46C
S315080005887A73B3FBF2F30C4A05461068B0FBF3F02E
S31508000598FFF7B2FE044658B90F2D09D80246294670
S315080005A84FF0FF30FFF776FE044B20461D6038BD36
S315080005B80120FCE700000020340000200400002089
S315080005C808B5074A136843F0100313600320FFF7BA
S315080005D84FFE0020FFF7D0FF00F0ACFB002008BD57
S315080005E800200240064B0022DA61064B1A6942F0DF
S315080005F804021A611A6942F040021A61704700BF7C
S315080006087000002000200240064B0022DA61064BE3
S315080006181A6942F002021A6158611A6942F04002E0
S315080006281A61704770000020002002402DE9F04149
S31508000638DFF8908098F81830012B05460F463DD00C
S31508000648012488F818400368A3424CF2503014D1A4
S3150800065800F07AF928B10120002388F81830BDE897
S31508000668F0814CF25030FFF7BDFF00F06DF9144ADF
S31508000678136923F004031361EEE700F065F900280F
S31508000688E9D14FF0FF333B6020466E680C4CD5E93C
S31508000698013203EBC223B342DED93046FFF7B4FF73
S315080006A84CF2503000F050F9236923F00203236115
S315080006B808B13E60D0E706F50066E8E70220CEE70F
S315080006C8002002407000002070477047B0F1904F34
S315080006D80AD12C4B9A6A42F400329A629A6A22F430
S315080006E800329A6200207047274B98420BD103F1D3
S315080006F8784303F503339A6A42F480229A629A6A1F
S3150800070822F48022EDE7214B98420BD103F1784376
S3150800071803F502339A6A42F400229A629A6A22F424
S315080007280022DEE71A4B98420BD103F1784303F50A
S3150800073801339A6A42F480129A629A6A22F48012FB
S31508000748CFE7144B98420BD103F1784303F50033EE
S315080007589A6A42F400129A629A6A22F40012C0E768
S315080007680D4B98420BD103F1784303F5FE339A6A89
S3150800077842F480029A629A6A22F48002B1E701205A
S31508000788704700BF001002400004004800080048EF
S31508000798000C004800100048001400482DE9F043F2
S315080007A802460C6894FAA4F44FF00109B4FA84F4E2
S315080007B803250B6833FA04F001D1BDE8F08309FA7A
S315080007C804F003406CD04868013801281ED8976899
S315080007D893FAA3F0B0FA80F093FAA3FC400005FA5E
S315080007E800F027EA0000BCFA8CFC8F684FEA4C0C2C
S315080007F807FA0CF7384390600F685068CE6820EA05
S31508000808070006FB07FC40EA0C005060D76893FA15
S31508000818A3F0B0FA80F093FAA3FC400005FA00F0BA
S3150800082827EA0000BCFA8CFC0F694FEA4C0C07FA59
S315080008380CF73843D060486802281ED193FAA3F00B
S31508000848B0FA80F007284F692CDCD2F820C093FA52
S31508000858A3FEBEFA8EFE93FAA3F04FF00F08B0FA7D
S3150800086880F04FEA8E0E08FA0EFE80002CEA0E0C6F
S3150800087807FA00F04CEA00001062176893FAA3F02A
S31508000888B0FA80F093FAA3F3400005FA00F027EAD5
S315080008980000B3FA83F34F685B009F403843106043
S315080008A8013486E7D2F824C0180A90FAA0FEBEFAE0
S315080008B88EFE90FAA0F04FF00F08B0FA80F04FEAD3
S315080008C88E0E08FA0EFE80002CEA0E0C87404CEABB
S315080008D807075762D1E700000B4AD36813F01003DD
S315080008E805D00A49CB6943F00203CB611023D268C5
S315080008F8520706D50549CA6942F00102CA6143F09A
S315080009080403014AD36070470020024070000020A3
S31508000918064B186910F0800007D0054A5A6002F19C
S3150800092888325A601869C0F3C01070470020024020
S3150800093823016745034A136943F0800313610020BE
S31508000948704700BF0020024070B5054600F014FD48
S315080009580F4C0646E368D9070FD4E3689A0644BFDE
S315080009682023E360E368DB0603D4E06810F004009C
S3150800097807D0FFF7B1FF012003E0681CEAD00DB9DC
S31508000988032070BD00F0F8FC801BA842E2D9F7E7FF
S31508000998002002402DE9F84FDFF894A01F469AF880
S315080009A81830012B0546884691463FD001234CF25C
S315080009B850308AF81830FFF7C7FF90BB012D03D0CF
S315080009C8022D14BF042502250026DFF868B0334631
S315080009D83401C4F12001A4F1200207FA01F129FA29
S315080009E804F4CAF81C300C4327FA02F21443DBF85D
S315080009F81020A4B242F00102CBF810204CF2503075
S31508000A0828F81640FFF7A0FFDBF8102022F00102AD
S31508000A18CBF8102028B90136F2B295424FF00003F8
S31508000A28D6D800238AF81830BDE8F88F0220FBE7E5
S31508000A387000002000200240014B1860704700BF74
S31508000A483400002000487047193C000800487047E1
S31508000A58F93B000800487047D83B00080B46012BAD
S31508000A6811460ED11378C3F34113022B0BD15378D1
S31508000A78012B08D19388072B05D1044A9E2301F038
S31508000A88F7BB012070470020704700BF3A3B0008B3
S31508000A98F0B528490B7885B023BB274AD2F8AC4766
S31508000AA80194D2F8B0470294D2F8B42703920122E7
S31508000AB80A70224901AE0F4616F8015B05F00F02C7
S31508000AC82C099F2D8CBF373430340133092A8CBF43
S31508000AD8373230320C2B0C704A7001F10201EBD117
S31508000AE800233B7670B9164B1B681A88154B5A8033
S31508000AF801230133DBB213485B0043F440730380D8
S31508000B0805B0F0BD032813D80D4B53F820402046EE
S31508000B18FFF736FBC3B21F2B28BF1F23094A2046F7
S31508000B28E1188842E5D010F8014B22F8024FF8E799
S31508000B380020E5E79000002000F0FF1F18000020BD
S31508000B48080000209200002000B589B0182200216C
S31508000B5802A802F081FF0F4AD2F8883043F47003DE
S31508000B68C2F888300C4B5A6942F400325A615B69FC
S31508000B7803F4003301934FF09040019B4FF48053E0
S31508000B88836202A9029301230393FFF707FE09B0BC
S31508000B985DF804FB00ED00E000100240014B1880E8
S31508000BA8704700BFD800002010B50D4C00F0DCFBDC
S31508000BB8236898420ED30B4B0B4A18784FF480716A
S31508000BC848B901201870916100F0CEFB074B1B88C5
S31508000BD80344236010BD002018709162F4E700BF33
S31508000BE8D4000020D200002000100048D8000020B9
S31508000BF8024B4FF480729A62704700BF0010004893
S31508000C0808B54FF090431B69DB0703D4FFF7F0FFDD
S31508000C18012008BD0020FCE730B5012887B013D0AD
S31508000C284FF480540123CDE901430025032301A984
S31508000C384FF09040CDE90353FFF772FB2A46214649
S31508000C484FF09040FFF734FC07B030BD7047704747
S31508000C586420FFF7A3BFFFF7A7BF0000054B5A6933
S31508000C68024382B05A615B6903400193019B02B053
S31508000C78704700BF0010024008B5FFF7A1FC294AD3
S31508000C88136823F0070343F002031360136803F09D
S31508000C980703022B03D02448692100F0D4F8234B14
S31508000CA81A6842F480221A601A6842F480321A6076
S31508000CB81A689103FCD55A6822F4741242F4E812A9
S31508000CC85A60DA6A22F00F02DA621A6842F080720B
S31508000CD81A601A689201FCD55A6822F0F0025A601E
S31508000CE85A6822F4E06242F480625A605A6822F42A
S31508000CF860525A605A6822F0030242F002025A60A9
S31508000D085A6802F00C02082AFAD15A68084822F4E6
S31508000D1880025A60FFF790FE00F09DF800F0AAF8E6
S31508000D28FCE700BF002002400C3B00080010024008
S31508000D3800A24A04F0B52449244E8B6943F00103FE
S31508000D4889B08B618B6903F0010301934FF4800026
S31508000D58019BFFF783FF4FF40030FFF77FFF4FF43F
S31508000D680010FFF77BFFCB6943F40003CB61CB691F
S31508000D7803F40003002400934FF48077012502A9A1
S31508000D883046009B0694CDE90275CDE90444FFF781
S31508000D9805FDB76202A9CDE902544FF09040022535
S31508000DA80695FFF7FBFC4FF4C053CDE9023503233C
S31508000DB8CDE9043402A90E234FF090400694079310
S31508000DC8FFF7ECFC09B0F0BD00100240001000481F
S31508000DD87FB518220021684602F03EFE4FF400301F
S31508000DE8FFF73CFF4FF090404FF48053836201228F
S31508000DF8694600930023CDE90123CDE90333FFF7BC
S31508000E08CDFCFFF763FB0D484FF480738362FFF749
S31508000E185DFC0B4BDA6922F40002DA615A6922F49E
S31508000E2800125A615A6922F480025A619A6922F0B4
S31508000E3801029A6107B05DF804FB00BF001000487C
S31508000E4800100240704708B500F003F8FCE7FFF702
S31508000E58FFBEFFF700BF08B500F0F0FBFFF7F7FF86
S31508000E6800F00AFA00F0D4FC00F058F8BDE808408B
S31508000E7800F048B808B5FFF7ECFF00F057FA00F09D
S31508000E8859F8BDE8084000F001B8000010B500F0B0
S31508000E988BF8012814D00B4C2378012B10D100F0BD
S31508000EA863FA094B094A1B681268134403F5FA736F
S31508000EB8984205D300232370BDE8104000F0C0BB54
S31508000EC810BD00BFE4000020DC000020E000002080
S31508000ED8014B1860704700BFDC000020014B1868FA
S31508000EE8704700BFDC00002008B5044B1B78012BAF
S31508000EF803D100F039FA024B186008BDE400002057
S31508000F08E000002008B5044B01221A70FFF7ECFF31
S31508000F18BDE80840FFF7BABFE400002008B500F0AE
S31508000F2857F800F0CDFB024B03221A7008BD00BF24
S31508000F383800002007B509480DF1070100F01AFC2A
S31508000F48012807D1064B9DF80710044803221A7092
S31508000F5800F05EF803B05DF804FB00BFE50000206A
S31508000F683800002000F0CCBB08B5054B1B78032BCE
S31508000F7802D1C9B200F0D2FBBDE8084000F040B87B
S31508000F8838000020064B1B78022B05D006D9042BFF
S31508000F9814BF3F208120704708207047812070477A
S31508000FA838000020FFF7EEBF08B500F01FF8003834
S31508000FB818BF012008BD0000034BFE221A70022242
S31508000FC85870A3F844207047240100200068704729
S31508000FD8054B00229A64A3F8442083F83F20A3F817
S31508000FE8402083F84220704724010020034B93F8D9
S31508000FF83F00003818BF0120704700BF24010020B1
S31508001008024B002283F84220704700BF24010020C3
S31508001018F8B50378954CFF2B054630D101220023F5
S3150800102884F83F2041F2FF0284F84030A3702280FA
S31508001038FFF7A8FFE070FFF7B5FF2071FFF7B2FFCB
S3150800104840F20113000AE38008236071A4F84430CB
S3150800105800F0DEFB94F84230012B02D11020FFF78E
S31508001068ABFFB4F94410002940F3FE80012384F845
S315080010784230BDE8F8407D4889B2FFF775BF94F855
S315080010883F20012A40F0F080D22B1DD8C82B01D862
S31508001098202043E0C93B092BFAD801A252F823F0CD
S315080010A8DB1100089910000899100008ED110008CE
S315080010B899100008991000086B1200080312000816
S315080010C8551200083F12000803F10D02D2B20B2A86
S315080010D8DED8F33B0B2BDBD801A252F823F000BF6E
S315080010E87111000849110008191100086111000852
S315080010F8991000089910000899100008A511000809
S3150800110899100008B3110008B7110008CB11000898
S31508001118FFF738FF6A78904203D82220FFF74CFF7A
S3150800112898E7A16C524800F0ADFAFF236A78237055
S31508001138A36C1344A3646B780133A4F8443089E795
S31508001148FFF720FF6B788342E7D2281DFFF73EFF9B
S31508001158A0646A780146E5E7FF23281D2370FFF790
S3150800116835FFA0640123E8E7281DFF232370FFF74E
S315080011782DFFA66C00258719BE4208D10023012237
S3150800118825716371E380627063800823D5E716F8D2
S31508001198013B1D44EDB2FFF75CFEEDE7354BA36452
S315080011A8FF220723C4E90023EFE70020B6E7FF2359
S315080011B8238094F84030A3700023E370A3800623A5
S315080011C8BBE7002384F83F3084F84030FF232370B8
S315080011D8C8E7A66CFFF7D6FE6A1C411E304600F023
S315080011E819FB08B9312099E7FF232370FFF7CAFED0
S315080011F8A36C01380344A364B4E7FFF7C3FE6B780E
S315080012080138984289DDFF2323700123A4F8443066
S31508001218697829B900F006FB00287FF41BAFE1E7D7
S31508001228A06CAA1C00F0F6FA0028DBD06A78A36C32
S315080012381344A3640EE7FF2300252380A570FFF750
S31508001248A1FEA580E070A571072376E70430FFF7AD
S31508001258BDFEA36C0146184600F0DEFA0028B5D193
S31508001268C0E700F0EDF9B1E7F8BD00BF240100209A
S3150800127825010020333C0008194B1A49DA6942F05F
S31508001288010282B0DA61DA6902F001020192019A72
S315080012985A685B68C2F3022213F4E06F8A5C124943
S315080012A8096821FA02F14FF0804214BF022301238C
S315080012B8012010604B434FF6FF700C49B3FBF1F35E
S315080012C8013BD0629362536943F001035361084BAB
S315080012D800211960526A074B1A8002B0704700BF8E
S315080012E8001002402B3C000834000020A0860100AC
S315080012F874010020700100200B4B1A6942F00102A4
S315080013081A611A6922F001021A61DA6922F00102E1
S31508001318DA614FF0E02300221A615A619A614FF0A8
S315080013280072C3F8042D70470010024010B50C4827
S315080013384FF0804302885B6A9B1A9BB2632B0DD9D0
S31508001348084C6421B3FBF1F32168194403EB8303C2
S3150800135803EB830302EB83022160028010BD00BF02
S31508001368700100207401002008B5FFF7DFFF014B64
S31508001378186808BD7401002008B5FFF7D7FF014BA8
S31508001388186808BD740100202DE9F8430646FFF7DA
S31508001398BFFA002506F10409D6F8008059F8057041
S315080013A805EB0804FFF755FD21463A4600230220B7
S315080013B8FFF7F0FA044668B955F80830BB4204D175
S315080013C80435B5F5007FE7D10124FFF7B3FA2046BF
S315080013D8BDE8F8830024F8E738B5104B9842044668
S315080013E80D4608D00E4A914216D0FFF7CDFF18B918
S315080013F80024204638BD0B4CC5F30803002BF7D14B
S3150800140823689D42F5D020464FF4007240F8045BE5
S31508001418294600F037F9ECE71C46EDE77801002085
S31508001428004000087C0300202DE9F0411F460368A8
S3150800143821F4FF78013304460D46164628F00108BC
S3150800144806D140F8048B4FF40072414600F01AF9A9
S315080014582368434505D020464146FFF7BDFF0446A5
S31508001468E8B123680435ED1A25443744FFF7F1FC3B
S31508001478231DEB1AB3F5007F08D32168204601F52A
S315080014880071FFF7A9FF044648B1051D16F8013B88
S3150800149805F8013BBE42E9D10120BDE8F0810020EC
S315080014A8FBE70000034A4FF0FF331360024A136054
S315080014B8704700BF7C0300207801002030B40E4D29
S315080014C84C1E0B46291A8C4212D80C4CA0420FD334
S315080014D8411E1944A9420BD820F4FF7121F00101D5
S315080014E8A142014630BC0CBF05480648FFF79CBF19
S315080014F8002030BC704700BFFFFF03080040000803
S31508001508780100207C03002030B51D4D85B04A1EA1
S315080015182B1A00249A42009420D81A4A20F4FF630A
S3150800152823F00703934219D3421E0A44AA4215D840
S315080015380144C91AC1F3CF25C1F30A0109B1013516
S31508001548ADB20024CDE9014301230393FFF7E0F97F
S31508001558A3B29D4205D80124FFF7ECF9204605B049
S3150800156830BDFFF776FC694601A8FFF75FF8013436
S3150800157820B9029B03F500630293E9E70024EBE729
S31508001588FFFF03080040000807B50F480368013342
S3150800159817D0D0E901321344C2680C4913440269CA
S315080015A813444269134482691344C26913445B426B
S315080015B8019304230DEB0302FFF736FF03B05DF82A
S315080015C804FB0120FAE700BF7801002088410008DB
S315080015D80A4AD2E900310B4491680B44D1680B4496
S315080015E811690B4451690B449169D2F888210B4457
S315080015F8D3420CBF01200020704700BF00400008F6
S3150800160808B50A480368013305D109480368013350
S3150800161806D1012008BDFFF7B7FE0028F5D1F9E77E
S31508001628FFF7B2FE003818BF0120F3E7780100205B
S315080016387C030020004870470040000800F0FBB80B
S3150800164810B500F0EBF8C8B1FFF7DAFAB0B1FFF752
S3150800165889FCFEF77FFFFFF74FFE00F0E1F8084B1D
S3150800166820F0604020F07F00986000F0D9F84468C0
S3150800167800F0E3F82346BDE81040184710BD00BF40
S3150800168800ED00E0F8B506460F4615460024AC42BC
S3150800169800D1F8BD3B5D3355FFF7DBFB0134F6E7B0
S315080016A810B50446002000F08FFA38B10122214609
S315080016B8002000F093FA431E5842584110BD000016
S315080016C807B50D480D4B0360FEF7FEFF012301A978
S315080016D80020ADF8043000F0DBFEFFF7FFFBB0F59D
S315080016E8FA6F06D24FF4FA6003B05DF804EBFFF719
S315080016F8EFBB03B05DF804FBC4050020005C00409E
S3150800170808B500F0BBFE0348034B0360BDE8084074
S31508001718FEF7DBBFC4050020005C004013B53F296F
S3150800172804468DF8071003D911488D21FFF78BFB5E
S3150800173801220DF10701002000F05AFA012803D00A
S315080017480B489121FFF77FFB9DF8072021460020CB
S3150800175800F04EFA9DF80730834203D004489421D6
S31508001768FFF771FB002000F04DFA02B010BD00BF6C
S31508001778133B00082DE9F8431D4F1E4D80460020EF
S315080017880E4601F019FE00214FF0FF3001F0BEF8B1
S315080017983C787CB92846FFF783FF012806D12B78C1
S315080017A8013B3E2B9EBF144B38701C700024204604
S315080017B8BDE8F883DFF8409099F80000013028441E
S315080017C8FFF76EFF01280446F0D199F800302A7809
S315080017D80133DBB29A4289F80030E7D1691C4046E2
S315080017E8FFF750FF00233B7099F800303370DEE7A7
S315080017F8C105002081050020800500200120FFF78B
S315080018080BBA0020FFF708BAFFF720BAFFF71FBA86
S31508001818FFF748BEFFF752BEFFF776BEFFF7D8BEFA
S31508001828FFF708BF08B5FFF7AFFE18B1BDE80840CF
S31508001838FFF7E6BE08BD72B6704762B6704703780A
S31508001848024613F0010011D11378C3F380015B0730
S315080018580FD4137813F001000AD113785B0708D45C
S31508001868137843F00403137001207047002070476B
S315080018780846704702780346C2F38000520709D51E
S315080018881A7812F0010104D11A7861F382021A70E3
S31508001898704700207047000030B5C478858804F082
S315080018A80304022CC5F30A030CD0032C31D0012CEF
S315080018B814D1022940F2FF3208BF4FF480629A42D7
S315080018C816D204E002290BD1B3F5007F10D04FF0E9
S315080018D8E023D3F8F03DDA0700D500BE002030BD76
S315080018E842B1B3F5007F05D1402303710023437144
S315080018F80120F4E7202B0AD815F4FF6FE7D0074A2A
S31508001908083B9BB222FA03F3DB07F1D4DFE7402B47
S31508001918DCE7022918BF4022CEE700BF0101000113
S3150800192830B50A44914200D330BD4C78052C06D10F
S315080019388C7804F00F0500EB4505E4092B550C785F
S315080019482144EFE713B5027861F3000204460499C7
S3150800195800F8082B0093BDF81420012300F0BCFA00
S31508001968069B6360BDF81C306380012002B010BD79
S3150800197801207047F8B50C460F780E8A498A17F081
S31508001988020FB6B289B20CBF40234FF400738E42D9
S31508001998054601D00020F8BD002AFBD0013B1342BA
S315080019A8F8D1FA07F6D4617800F01EFF0028F1D0BE
S315080019B8237813F0010307D04FF0E023D3F8F03D5E
S315080019C8DB07E7D500BEE5E761781A46284600F042
S315080019D827FF0028DFD1EFE770B501F108050646AD
S315080019E828460C4600F08BFAB8B12378D80714D4E1
S315080019F86178304600F0F8FE78B128466288616852
S31508001A0800F0C3FA23780546A8B1D90707D54FF0D9
S31508001A18E023D3F8F03DDA070BD4002070BD03465F
S31508001A2862686178304600F0FBFE0028EFD0284649
S31508001A38F4E700BEF1E7DB07EFD46178304600F03B
S31508001A48E1FEEAE72DE9F04107460C4690461E46B0
S31508001A58D3B18B8953BB0B78D90715D4617800F0B5
S31508001A68C3FE88B165886068B54228BF35462A46E8
S31508001A78414602F01DF82378DA0707D54FF0E02328
S31508001A88D3F8F03DDB070FD4002508E061784DB19F
S31508001A986268ABB2384600F0C3FE0028EED0284686
S31508001AA8BDE8F0812A46F4E700BEEDE701F1080330
S31508001AB8B2B2414618461E4600F09EFA23780546F5
S31508001AC813F0020F30460CBF4FF040084FF4007869
S31508001AD800F015FA404502D2A3894345DFD22146CC
S31508001AE83846FFF779FFDAE7F8B58A890B780646A4
S31508001AF80C46F2B9DF070ED4497800F075FE50B1E6
S31508001B0822786388D50708D54FF0E023D3F8F03D47
S31508001B18DA0700D500BE0020F8BD61783BB16268D7
S31508001B28304600F07DFE0028EED06088F4E71A46B5
S31508001B38F6E701F1080713F0020F38460CBF4025EF
S31508001B484FF4007500F0FDF98542E4D82378D807E4
S31508001B58E1D46178304600F047FE0028DBD03846E5
S31508001B6800F0EFF98542237815D8D9076288CBD4CF
S31508001B786D420540ADB2954228BF1546617845B114
S31508001B8862682B46304600F04BFE0028BCD0284633
S31508001B98C2E72A46F5E7DB07BDD46178304600F088
S31508001BA831FEB8E770B50C460646114604F108003A
S31508001BB89AB200F0EAF9214605463046FFF794FF3F
S31508001BC8284670BD7047704708B518B9024800F02E
S31508001BD896F908BD0020FCE778090020134618B9CD
S31508001BE80A460249FFF7DEBF002070477009002041
S31508001BF820B993B20A460249FFF724BF0020704766
S31508001C081C09002010B90249FFF7E6BE00207047F4
S31508001C181C0900207FB5124C124EAC220021204622
S31508001C2801F01AFF04F16C03402500930023CDE95F
S31508001C3801561A461946039504F15800FFF782FE1D
S31508001C4804F1180300932E440023CDE901560395A1
S31508001C5801221946201DFFF775FE04B070BD00BFA6
S31508001C68180900209808002010B5054C2046FFF7EB
S31508001C787FFEA4F15400FFF77BFE012010BD00BFCC
S31508001C887009002038B5074C2046002500F8605B27
S31508001C9800F026FA04F10C0084F8595000F020FAEE
S31508001CA8657138BD180900202DE9F0414B79FF2BDD
S31508001CB880460E4627D12E4D0C7895F8593013BB19
S31508001CC86B7903BB8B782B708F180C44BC4206D2F1
S31508001CD8237823449F4202D36378042B03D1A01B9D
S31508001CE880B2BDE8F0810B2BF9D0052B22D121460D
S31508001CF8404600F057FD40B94FF0E023D3F8F03DD1
S31508001D08D80700D500BE0020EBE7A378DA0914D077
S31508001D186A797AB96B71A3882A79C3F30A03A3F592
S31508001D2800714B424B4163F3410212492A714046FE
S31508001D38FFF752FE23781C44C8E795F85920002A6D
S31508001D48F8D185F85930A3880B49C3F30A03A3F5D4
S31508001D5800725342534195F85820404663F34102AE
S31508001D6885F85820FFF7C0FE0028E3D1C4E700BF6E
S31508001D78180900201C0900207009002070B5184DA4
S31508001D881C4695F859308B42064614D1B5F8643086
S31508001D98A4B22BB1E96D224605F1600000F02CF9D2
S31508001DA8104900202246FFF70DFF0F493046FFF776
S31508001DB89BFE012070BD6B798B420FD1A1B2002022
S31508001DC8FFF701FF291D3046FFF706FE0028F0D168
S31508001DD82246291D3046FFF7CDFDEAE70020E9E748
S31508001DE81809002098080020700900200A4492B2B1
S31508001DF891424FEA400001D8824201DB121A92B298
S31508001E081046704738B50546D41A0846A988A4B2B4
S31508001E189A423CBF04EB4104A4B2B4B1A14205D22C
S31508001E28914294BF521A521893B26B81994209D9B2
S31508001E38EA882968C2F30E0202FB031101F038FE8C
S31508001E48012038BD5B1A9BB2F0E72046F9E72DE971
S31508001E58F047BDF8204086881D1BADB2A3423CBF9B
S31508001E6805EB4605ADB207468846F5B1AE4206D239
S31508001E789E4294BF9B1B9B199CB24481354695424A
S31508001E8828BF1546A64213D9FA883968A6EB040965
S31508001E981FFA89F9C2F30E0A4D4552460AFB041180
S31508001EA809D86A43404601F003FE2846BDE8F0878C
S31508001EB8A41BA4B2E6E719FB0AF91FFA89F94A46E8
S31508001EC84046AE1B01F0F4FDA21912FB0AF2396866
S31508001ED892B208EB0900E6E7B2F5004F0DD8828002
S31508001EE89DF800200160C3F30E0343EAC233C3809A
S31508001EF8002343810381012070470020704702466A
S31508001F088088138952899BB292B2934236BFC2EB34
S31508001F1840029B1A9B189BB2984228BF18467047DE
S31508001F2803894289818892B29BB2934236BFC2EB33
S31508001F3841029B1A9B189BB299428CBF002001202C
S31508001F48704703894189828889B29BB28B4236BF1A
S31508001F58C1EB42015B1A5B189BB29A4286BFD01A3C
S31508001F6880B20020704710B50289438904469BB29F
S31508001F7892B2FFF747FF61890346024689B2A088ED
S31508001F88FFF734FF6081184610BD37B503894589C0
S31508001F98ADB2044600959BB2FFF759FF618903461F
S31508001FA8024689B2A088FFF721FF6081184603B068
S31508001FB830BD70B5058904460E46ADB2FFF7B0FFC9
S31508001FC810B1E079C00913D0A3882846834210D9EE
S31508001FD8E2882368C2F30E02314602FB003001F09C
S31508001FE867FDA08801222946FFF700FF2081012006
S31508001FF870BDC01A80B2E9E72DE9F84F074688464A
S315080020081546DAB1C37906894189B0F80490DB091F
S31508002018B6B289B215D18E4239BFC1EB4904A419A3
S31508002028711A8CB238BFA4B24C4536BFA9EB040462
S315080020380024A4B2A24228BF254605BB2846BDE807
S31508002048F88F4A4509D3C388A2EB0905C3F30E03DB
S3150800205803FB05880E464D46EFE78E424FEA4902CE
S3150800206836BF531A731A9B199BB22B44934206DB45
S31508002078A9EB050292B24846FFF7B8FE064634466B
S315080020884C4517D2FA883868A9EB040A1FFA8AFA5F
S31508002098C2F30E0BAA455A460BFB04000ED36A4335
S315080020A8414601F005FDB8882A463146FFF79EFEE7
S315080020B83881C3E7A4EB0904A4B2E1E71AFB0BFAD3
S315080020C81FFA8AFA5246414601F0F2FCA5EB0903C3
S315080020D8E21812FB0BF2386892B208EB0A01E0E73D
S315080020E80023438103810120704708B50A46018900
S315080020F8034689B28088FFF779FE188108BD08B5B6
S315080021080A464189034689B28088FFF76FFE5881D7
S3150800211808BD30B5048943898588A4B29BB29C4218
S3150800212836BFC3EB4502E21A121992B2954206D295
S31508002138A54294BF631B2B199BB243812A4632B921
S31508002148C1E9002200238B6030BD641BA4B2A542F6
S31508002158FBD99D4208D90568A3421D444D6006D29D
S3150800216800230A804B80EDE75B1B9BB2F1E7848866
S31508002178121BE51A13440D804B800368E3E70389AD
S31508002188428970B59BB292B28488934236BFC2EB35
S3150800219844059D1AED18ADB2AC4207D80023C1E92B
S315080021A8003300238B6070BD1B1B9BB29C42FBD976
S315080021B8944209D906689A421E444E6007D9D21A2B
S315080021C800230A804B80ECE7121B92B2F0E782885C
S315080021D8A41A641BD61A23440E804B800368E1E7C9
S315080021E870B5144B9989DA898C1AA4B2054693F9FD
S315080021F80000402C28BF402400280FDA914213D04B
S315080022089968A1B10C48224601F052FC80210A4A75
S3150800221823462846BDE8704000F002BB91424FF0BD
S315080022280001F4D10A46F3E780210022F0E70846C0
S3150800223870BD00BF040A0020C4090020C943002352
S315080022481A4601F0800100F0EBBA000030B4074CDA
S3150800225805460B4608684968224603C20022C4E9AF
S3150800226802222846197830BCFFF7E8BF040A00207E
S31508002278F8B5144E0C46054608684968B2603746EC
S3150800228803C70021F181E1888B4228BF0B46B38139
S31508002298E18889B14BB142B94FF0E023D3F8F03D54
S315080022A8DB0700D500BE002005E02846FFF798FFA3
S315080022B80028F1D00120F8BD21782846FFF7BEFF8F
S315080022C8F6E700BF040A002002481422002101F09C
S315080022D8C3BB00BF040A0020014B1861704700BF42
S315080022E8040A002010B50246044C006851682346C3
S315080022F803C30023C4E9023310BD00BF040A002043
S3150800230870B5284C1E462378C909B1EBD31F054674
S3150800231813D03EB14FF0E023D3F8F03DDB073FD4A6
S31508002328002070BD214601F075FA23691BB12246C3
S315080023380321284698470120F3E794F90030A06856
S31508002348002B05DB0028EBD01749324601F0B0FB15
S31508002358A268E38932443344A260E2889BB29A426F
S31508002368E38101D03F2E17D8236933B92178284647
S31508002378FFF764FF0028DED1CCE70221094A284680
S31508002388984701460028F1D1284601F0FDFA802130
S31508002398284601F0F9FACEE72846FFF721FFE9E7CC
S315080023A800BEBDE7040A0020C40900202DE9F04153
S315080023B81A4E1B4FDFF878800546002431784B1CE7
S315080023C8E2B2DBB2934210D834220021154801F054
S315080023D843FB1022FF21144801F03EFBBDE8F041FB
S315080023E812481022FF2101F037BB91420DD9D8F8BF
S315080023F80030242101FB02334BB94FF0E023D3F810
S31508002408F03DDB0708D4BDE8F081F6D13B46DB682A
S31508002418284698470134D1E700BEF4E7DC0A0020CD
S315080024283C3C0008E50A0020E90A0020F90A0020D1
S31508002438E00A002070B50C46054616464869FFF7B7
S315080024484BFF6369324628460121BDE870401847A4
S31508002458034A034610780BB100F04CBF00F04FBF93
S315080024684C000020704770470020704700207047CE
S3150800247870477047034600201870704708B5034B25
S315080024881878FFF7F6FF012008BD00BF4C000020AA
S315080024982DE9F84FDFF8BC8098F80030FF2B054681
S315080024A80E4646D149B94FF0E023D3F8F03DDB078D
S315080024B800D500BE0020BDE8F88F342200211F4849
S315080024C81F4FDFF8949001F0C7FA1E4B1E480024E8
S315080024D81C70FFF705FE1D4B1D4A1A603846FFF7A4
S315080024E8C9FF3B78C9F80000FF2BDCD0DFF86CA0E1
S315080024F84FF0240B0CE091421DD9D9F800300BFB9C
S315080025080233002BCFD05B680134002BCBD0984719
S3150800251839784B1CE2B2DBB29342ECD831462846EE
S3150800252888F8005000F0ECFE0028BCD0284600F0D9
S31508002538E1FE0120BFE7B6D15346E4E7E50A0020E5
S31508002548DC0A0020E40A002040000020180A0020BF
S315080025583C0000204C000020E00A00203C3C000813
S315080025682DE9F0434378023B85B004460E46052B11
S3150800257816D8DFE813F00600B1002A003200C800B2
S31508002588CD00824B1A7822F001021A701A780021B7
S3150800259822F002021A7059701A7861F382021A70C8
S315080025A87B4B1F6816B93B68304698472146381D45
S315080025B8FFF7FFFC054616B93B6801209847002D2A
S315080025C877D06178207832469AE0704B1A78D70720
S315080025D876D51A7842F00402E1E76C4A1378DD07E3
S315080025E86ED5137823F004031370D9E791426AD994
S315080025F8D9F80030242101FB0233002B65D10135B7
S3150800260839784B1CEAB2DBB29342EFD85F4D2B7888
S3150800261858072CD52B7823F004032B700023CDF804
S315080026280630CDF80A30ADF80E3023788DF8043028
S3150800263805238DF80530564BD3F800801EB9D8F80F
S3150800264800303046984701A908F10400FFF7B1FCA5
S3150800265807461EB9D8F8003001209847002F42D1FE
S315080026684FF0E023D3F8F03DD90700D500BEEB7844
S31508002678DA0725D50023CDF80630CDF80A30ADF8A7
S315080026880E3023788DF8043003238DF805306368F7
S3150800269802933F4B1D6816B92B683046984701A91F
S315080026A8281DFFF786FC044616B92B6801209847AB
S315080026B80CBB4FF0E023D3F8F03DDB0700D500BE8E
S315080026C805B0BDE8F0839AD143461B6A002B96D01D
S315080026D861682078984792E72E4FDFF8C480DFF8BC
S315080026E8BC9000258CE79DF805109DF80400324635
S315080026F8FFF7B8FEBBE79DF805109DF804003246BB
S31508002708FFF7B0FEDCE7244A13780133DBB26BE740
S31508002718017911F00F033FF443AF1C4D1D4A5F00C2
S3150800272805EB430303EBD11312781B7D93424FEA5B
S31508002738D11026D2194A126803EBC30312EB830396
S315080027483FF42EAFDA69002A3FF42AAF3D44054420
S3150800275820352A7922F001022A712A7922F0040200
S315080027682A71DF696279A3682078B8470028A7D153
S315080027782B7943F001032B712B7943F004032B7152
S315080027880EE77FF40DAF064BDCE700BFE50A00202D
S31508002798180A0020DC0A0020E40A0020E00A0020C3
S315080027A83C3C000838B58A780D4B12F008021D78AB
S315080027B80C4608D04FF0E023D3F8F03DDB0700D5E8
S315080027C800BE002038BD074B20469978FFF764F805
S315080027D80028EFD021462846BDE8384001F030B831
S315080027E84C000020E50A0020CB0901F00F02044836
S315080027F8243303EB420300211844FFF720B800BF2F
S31508002808E50A0020CB0901F00F020448243303EB3C
S31508002818420300211844FFF72DB800BFE50A002037
S3150800282870B5134C134801F00F0604EB460404EB85
S31508002838D114203425790078ED0708D54FF0E02320
S31508002848D3F8F03DDB0700D500BE002070BD25791A
S3150800285845F00105257101F07BF80028F6D12279A3
S3150800286860F300022271227960F382022271E5E799
S31508002878E50A00204C00002010B50C4B18780C46C9
S3150800288801F082F80A4904F00F0301EB430101EB52
S31508002898D41191F8243043F0020381F8243091F8D2
S315080028A8243043F0010381F8243010BD4C00002081
S315080028B8E50A002010B50C4B18780C4601F092F87A
S315080028C80A4904F00F0301EB430101EBD41191F80F
S315080028D8243023F0020381F8243091F8243023F0B9
S315080028E8010381F8243010BD4C000020E50A0020B9
S315080028F8054B01F00F0203EB420303EBD11191F8E4
S315080029082400C0F340007047E50A00202DE9F04F7F
S31508002918984B1B78FF2B87B03DD0974F974B1D6870
S315080029282C46002054F8043B9847204603A9FFF78D
S315080029381AFB2B6804460120984764B39DF80D30A6
S31508002948013B072B00F2D282DFE813F008001200D9
S31508002958C802B002BA021B007102C1029DF80C0037
S31508002968FFF724FDFFF7B0FC9DF81030BB70D5E7DC
S315080029789DF80C00FFF71AFDFFF7A6FCFEF741FFC6
S31508002988CCE77F4A13784BB94FF0E023D3F8F03DEC
S31508002998DC0700D500BE07B0BDE8F08F1378013B09
S315080029A8DBB21370137803F0FF00002BB6D1724C14
S315080029B89DF80C50237843F00103237094F82430CB
S315080029C860F3000384F8243094F8243060F3820313
S315080029D884F8243094F8253060F3000384F8253009
S315080029E894F8253060F3820384F82530FFF774FCE1
S315080029F89DF8102002F06003602B07D14FF0E02302
S31508002A08D3F8F03DDD072CD500BE2AE0402B0BD1C4
S31508002A185C48FFF761FC04AA01212846FEF71EF860
S31508002A2800287FF47BAF1CE002F01F02012A00F0A1
S31508002A387E81022A00F0AC81002ADFD1202B22D120
S31508002A489DF814300F2B0CD8234419794E4B1B7854
S31508002A58994211D24D4B1B6801EBC10113EB810159
S31508002A680CD19DF80C00002100F08EFF9DF80C0093
S31508002A78802100F089FF51E7F3D1454904AA284681
S31508002A88FFF7D8FCCCE7002BB8D19DF81130092BF5
S31508002A98B4D801A252F823F0152D0008032D000812
S31508002AA8052A0008EF2C0008052A0008C92A000884
S31508002AB8452C0008052A0008E32A0008ED2A00081C
S31508002AC804A8FFF70FFC9DF81210284600F056FFD9
S31508002AD8237843F00203237020E763788DF80A30D9
S31508002AE801231DE19DF8126063789E4213D063782E
S31508002AF86BB10021284600F04DFC284600F008FF77
S31508002B0894F802802846FFF751FC84F8028066701C
S31508002B1836B9FEF776FE04A92846FFF797FBFDE6C1
S31508002B28701EC0B2FDF792FF10B14378022B08D089
S31508002B384FF0E023D3F8F03DD9077DD4002363701E
S31508002B485CE7C379C3F38012C3F340131B0143EA56
S31508002B584213227822F03002134323704388C3189D
S31508002B6800F109060093009BB34213D8FEF746FE08
S31508002B78D1E700BF4C000020E50A0020180A00200B
S31508002B88E40A0020650A0008DC0A0020E00A00209A
S31508002B983C3C000873780B2B03BF3278F378B618D9
S31508002BA801237278042AC3D1009AA2EB060A1FFAEF
S31508002BB88AFA4FF0000BB74A11784A1C5FFA8BF865
S31508002BC8D2B24245B4D9414515D9B34A1268242127
S31508002BD801FB0822002AABD0D2F81090019352467E
S31508002BE831462846C8470828019B814621D9824587
S31508002BF81FD300210CE09BD1A84AEDE7B078024420
S31508002C0854FA82F201311079FF2891D182F80480AA
S31508002C18CAB29A42F2D343463146A1484A46FEF713
S31508002C287FFE9C4B1B780133DBB243454E449AD84A
S31508002C387EE70BF1010BBEE700BE7FE7BDF8123051
S31508002C481A0AD8B2531E0E2B3FF60BAF01A151F83C
S31508002C5823F000BF992C0008BB2C0008D52C0008C7
S31508002C686B2A00086B2A0008E92C0008BB2C000808
S31508002C786B2A00086B2A00086B2A00086B2A0008CA
S31508002C886B2A00086B2A00086B2A0008B12C000872
S31508002C98FDF7D8FE024600283FF4B0AE122304A971
S31508002CA82846FFF7E5FABBE6FDF7D4FE024640B923
S31508002CB8D7E6022A07D1FDF7C9FE024600283FF4DF
S31508002CC89DAE5388EBE7FFF7D1FBEFE7BDF8141085
S31508002CD8FDF7DEFE024600283FF4C3AE0378DEE7BA
S31508002CE8FFF7C2FBF6E7BDF81230012B7FF4B9AE41
S31508002CF8237843F0080323700DE7BDF81230012B3B
S31508002D087FF4AFAE237823F00803F4E72378C3F3F8
S31508002D1840129B0803F002031343ADF80A30022356
S31508002D280DF10A0204A92846FFF7A2FAF6E59DF866
S31508002D3814300F2B3FF695AE23441979554B1B785B
S31508002D4899421ED2544B1B6801EBC10113EB810152
S31508002D583FF487AE04AA2846FFF76CFB00287FF4E1
S31508002D68DDAD9DF8103013F060047FF47AAEFFF7F6
S31508002D78B3FA9DF811300A2B07D00B2B3FF4CBAECC
S31508002D886FE67FF46EAE4549E4E78DF80A40A7E694
S31508002D989DF814100A073FF531AE01F00F0204EB4F
S31508002DA842023C4802EBD1120078127D824215D2C3
S31508002DB83948066802EBC20206EB8206ABB99DF8EB
S31508002DC8113003F0FD02012A15D0002B7FF416AE48
S31508002DD82846FFF78DFDADF80A00A0E700F08F80BA
S31508002DE8002B7FF43EAE0026E9E7002E3FF439AE05
S31508002DF804AA314643E6BDF8122022B9012B284613
S31508002E0812D1FFF757FD002E3FF488AD314604AAC4
S31508002E182846FFF70FFB0020FFF75EFA94F82530DF
S31508002E28DE073FF57BAD76E6FFF726FDEBE79DF86F
S31508002E38101001F00F0407EB440202EBD11292F8C6
S31508002E48243023F0010382F8243092F8243023F042
S31508002E58040382F824303CB9059B9DF811209DF897
S31508002E680C00FFF74DFA59E5137D0A4A1278934282
S31508002E7818D2094A126803EBC30312EB83033FF41B
S31508002E8883AD9C699DF81120059B9DF80C00A04709
S31508002E9844E500BFDC0A0020E00A00203C3C0008A4
S31508002EA8F90A00207FF470AD174BEAE73B78D80794
S31508002EB87FF534AD3878C0F3C000FEF7A5FC2DE5DC
S31508002EC83B78D9077FF52AADFEF7A0FC26E5049BD3
S31508002ED8002B3FF423AD059898471FE5FB78DA07DA
S31508002EE87FF51CAD0498FFF7BEFA17E54FF0E02307
S31508002EF8D3F8F03DDB077FF511AD00BE0EE5024EAF
S31508002F08002B7FF475AF5AE73C3C00081E4AF0B51B
S31508002F18C40900F00F050023164604F1020C84F0D4
S31508002F28010E12F80C70D8B237B157788F421DD1F6
S31508002F381778AF421AD1F0BD012904D106EB8307E9
S31508002F487744BF7897B91778FF2F01D0AF420DD1CC
S31508002F585778FF2F08D106F8235006EB830301227A
S31508002F68597023449A70E6E78F42F4D00133082B48
S31508002F7802F10402D5D14FF0E023D3F8F03DDB0780
S31508002F8800D500BE0020D6E71D0B0020400000F142
S31508002F988040530800F5C040F0B50D4606461C4665
S31508002FA8013C06D2D20744BF11F8132020F8232083
S31508002FB8F0BD35F8027B26F8047BF1E7490001F1F4
S31508002FC88041530801F5C041F0B506460D461C4632
S31508002FD8013C06D2D20744BF31F8232000F8132053
S31508002FE8F0BD35F8047B26F8027BF1E73E280E4942
S31508002FF88BBF1F300130C0F34713C0F34703088857
S315080030088CBF2022022203FB02039BB2B3F5007F82
S315080030180B8008D94FF0E023D3F8F03DDB0700D53D
S3150800302800BE4FF6FF7070471A0B00201F4A38B5C6
S315080030380023A2F84C301E4AFF211D460133082BEF
S31508003048117051709570D57002F10402F6D10021FD
S31508003058184B402408461C80FFF758FF8020FFF7C6
S3150800306855FF154B20469D739D779C819C83FFF7DA
S31508003078BDFF85B22046FFF7B9FF10490B4A0D81F7
S3150800308880B20880138823F4786323F00F035B045F
S315080030985B0C83F4085383F020034FF4805088812F
S315080030A813808023A2F84C3038BD00BF005C00406E
S315080030B81D0B00201A0B0020400B00200060004062
S315080030C82DE9F04F438904898289D0F804B0E41AB7
S315080030D8A4B2944228BF14464F4A32F821801FFAF0
S315080030E888F808F4C0628BB048F40047B2F5806FD8
S315080030F847F08007019208BFC7F3801A4FEA4102D2
S3150800310818BF4FF0000A049289460AEB4102434960
S3150800311831F832500646ADB2BBF1000F73D0002C19
S3150800312849D007A95846FEF7F4FFBDF81C10BDF8A4
S315080031381E20A14228BF2146631A9BB2934228BF84
S315080031481346CA18984693B221F00100029301F073
S31508003158010382B20899039320B128460592FFF71E
S3150800316815FF059A039B1544A8B2099DC3B18A5C45
S31508003178ADF81A20B8F1000F09D015F8011B08F1A7
S31508003188FF3342EA0122ADF81A201FFA83F8022211
S315080031980DF11A010390FFF7F9FE0398023080B281
S315080031A8B8F1000F03D042462946FFF7EFFE029909
S315080031B85846FEF7A4FF738923447381049B534436
S315080031C8DB0003F1804303F5C043C4F309049A8876
S315080031D802F47C4222439A80019BB3F5806F08BFAC
S315080031E8012387F0300708BFF37327F4E0470A4B33
S315080031F827F0400723F82970BFF34F8FBFF36F8F67
S315080032080BB0BDE8F08F002CD5D0016822461944CA
S315080032182846FFF7BBFECEE7005C0040006000408A
S3150800322838B5324A0B4601EB400102EB0111012B76
S31508003238897B06D102EB40101030FFF741FF0120C9
S3150800324838BD2B4C02EB401034F82150028980898E
S31508003258ADB225F48044824224F0700405F4C065B2
S3150800326828BF024644F40044B5F5806F44F080044C
S315080032784FEA011022D13E2A89BF1F3201320123A3
S31508003288C2F3471298BFC2F34702D21ADB0343EACE
S3150800329882239BB200F18040002B00F5C04008BF8E
S315080032A84FF4004383808381114B84F4405423F8F8
S315080032B82140BFF34F8FBFF36F8FC0E73E2A89BF00
S315080032C81F3201320123C2F3471298BFC2F34702DD
S315080032D8D21ADB0343EA82239BB2002B00F1804013
S315080032E808BF4FF4004300F5C040DCE7400B002058
S315080032F8005C0040BFF34F8FBFF36F8F704770476E
S315080033081FB5044600230193019BC72B34D9204ACD
S315080033180323A2F8403000230293029BC72B2FD918
S31508003328B2F8403023F002031B041B0CA2F8403005
S3150800333800230393039BC72B26D9154B0022A3F812
S315080033484020A3F85020A3F844201A809A801A81AE
S315080033589A811A829A821A839A83B3F8402092B27B
S3150800336842F45D42A3F84020FFF760FE2046FFF7C7
S315080033787FF8012004B010BD00BF019B0133C2E7E6
S3150800338800BF029B0133C7E700BF039B0133D0E7A1
S31508003398005C0040074AB2F8403029B19BB243F4B2
S315080033A80073A2F84030704723F400731B041B0C03
S315080033B8F7E700BF005C00402DE9F04F8E4BB3F8E5
S315080033C8442097058FB01FFA82FB10D54FF6FF5297
S315080033D8A3F84420B3F848304FF44072C3F30A03FD
S315080033E801210BA8ADF82C200C93FFF7B9F81BF4AC
S315080033F8806F814A13D04FF6FF33A2F84430FFF79F
S3150800340815FE4FF48073ADF82C30012100230BA864
S315080034188DF83030FFF7A4F80FB0BDE8F08F1BF42D
S31508003428805F1BD0B2F8403023F004031B041B0C42
S31508003438A2F84030B2F8403023F008031B041B0CEE
S31508003448A2F840304EF6FF73A2F8443001214FF433
S31508003458A0630BA8ADF82C30FFF782F81BF4006FB1
S315080034681AD0654BB3F8402092B242F00802A3F886
S315080034784020B3F8402092B242F00402A3F8402054
S315080034884FF2FF72A3F8442001214FF480630BA87A
S31508003498ADF82C30FFF764F81BF4807F16D057492F
S315080034A80A78012A0BD15448B0F8403023F01003A3
S315080034B81B041B0CA0F84030013A0A7001E0002AE8
S315080034C8FAD14D4B4FF6FF62A3F84420DFF830A136
S315080034D8494BB3F844301A040FD41BF4804F9BD0D9
S315080034E84FF0E023D3F8F03DDB0700D500BE424B8A
S315080034F84BF6FF72A3F844208EE73F4BB3F84470A7
S3150800350807F00F07BC0004F1804404F5B844238883
S315080035189AB21E04029227D5150575D53B0103F103
S31508003528804303F5C0439D891989C5F3090589B2FE
S315080035381DB12A4609A8FFF741FD238823F0700321
S315080035481B051B0D43F08003082D238047D1DDE9B1
S3150800355809014FF4C063ADF82C300EAB03E903003C
S3150800356801210BA8FEF7FCFF029B1906B0D5238894
S31508003578234823F4E14323F070031B041B0C43F48C
S3150800358800432380218801F00F028BB201F4C06141
S31508003598B1F5806F4FEA421114D14418E57F002D22
S315080035A896D083F04003C3F3801303EB4703DB008D
S315080035B803F1804303F5C0430025E5779C8804F4A6
S315080035C87C449C804318598B1B8B8B4200F00F81D7
S315080035D800EB421039461030FFF772FD78E74FF0D6
S315080035E8E023D3F8F03DD80700D500BE054B4FF4C5
S315080035F880529A81B8E700BF005C00401C0B002087
S31508003608400B002000600040238823F070031B0548
S315080036181B0D43F08003238023889AB203F00F0911
S3150800362803F4C063B3F5806F049304BF134683F4A9
S315080036388043039208BFC3F38033754A18BF012332
S3150800364803EB470302EBC301B1F8048032F83350A1
S315080036580AEB4913C8F3090859680091ADB24FEA4D
S315080036684912002900F08680B8F1000F32D00BA95C
S315080036780098FEF784FDBDF82C30BDF82E2043458A
S3150800368828BF4346A8EB0306B6B2964228BF164695
S315080036989A1992B2069223F0010291B201910C99F5
S315080036A8059103F0010332B1019A05980793294653
S315080036B8FFF784FC079B019A1544ADB2002B44D149
S315080036C80D981EB132462946FFF778FC06990098E8
S315080036D8FEF70BFD0AEB49134FEA491158899A89EF
S315080036E8404480B29045588102D31B8998424DD3ED
S315080036F83E2A8BBF1F320132012300238CBFC2F337
S315080037084712C2F34702D21ADB0343EA82233A0175
S315080037189BB202F18042002B02F5C04208BF4FF463
S3150800372800430AEB010593816B898DF830904FF4B5
S31508003738E062002601210BA8ADF82C200D938DF820
S315080037483160FEF70DFFAE600EE72946022209A88A
S31508003758FFF734FC059A0199BDF82430535402350D
S315080037680D98ADB2002EB1D01B0A013E00F8013BF8
S31508003778B6B2A6E7B8F1000FACD05AF802005B89D2
S31508003788424629461844FFF719FCA3E70499B1F5F8
S31508003798806F1ED01B1A9BB2934228BF13463E2B36
S315080037A88BBF1F330133012200228CBFC3F3471393
S315080037B8C3F347039B1AD20342EA83233A019BB20F
S315080037C802F18042002B02F5C04208BF4FF40043BD
S315080037D89381039B23F4804323F0700343F4004347
S315080037E843F0800383F440539BB22380BCE64FF42E
S315080037F8E061ADF82C1062F07F020D9301210023D9
S315080038080BA88DF830208DF83130FEF7A9FE5FE653
S31508003818006000400B785B0609D14B78052B06D16A
S315080038284B88054A63F07F03DBB2A2F84C30034B9A
S315080038384FF480529A817047005C0040006000404F
S315080038482DE9F8430F468E78B1F80490C9783046C2
S3150800385801F00301FFF75AFB0728044609D94FF078
S31508003868E023D3F8F03DDB0700D500BE0020BDE80D
S31508003878F883244B33F8203023F4786306F00F08CE
S3150800388823F00F0348F400455B045B0C45F08005FC
S315080038981D43FB7803F00303022B03D0032BDED169
S315080038A845F4C065C9F30A094846FFF79FFBF609B8
S315080038B886F00103144A03EB440380B222F8330066
S315080038C8124B06EB480803EB0813012EA3F80C90D5
S315080038D89C7314BF0C2204224FF0020303FA02F366
S315080038E883EA0503074A0CBF23F4E04323F0700371
S315080038F89BB222F82430BFF34F8FBFF36F8F012096
S31508003908B5E700BF005C004000600040400B00209F
S3150800391810B50C4B0C4C01220021FF2024F822106C
S315080039280132082A187158719971D97103F104037B
S31508003938F4D1BFF34F8FBFF36F8F044BC0221A80A1
S3150800394810BD00BF1D0B0020005C00401A0B0020AC
S3150800395801F00F0070B44400074D04EBD11426019A
S3150800396805EB0414AA51002262602381628170BCA7
S31508003978C909FFF755BC00BF400B002000231A46AB
S315080039888021FFF7E5BF000001F00F0310B55B00C3
S31508003998CA0903EBD111114B03EB01131049987BA4
S315080039A831F820309BB2012A48F6BF7443F4004325
S315080039B84BF68F7243F0800308BF224603EA0203D8
S315080039C814BF0C2404240122A24053409BB221F8B8
S315080039D82030BFF34F8FBFF36F8F10BD400B002009
S315080039E8005C004001F00F0310B55B00C80903EB43
S315080039F8D111174B03EB011301289C7B154B33F8A0
S31508003A08242048F6BF7392B24BF68F7114BF4FF451
S31508003A188043194642F4004208BF402342F0800218
S31508003A280B43134003F4C062B2F5806F06D0012831
S31508003A3814BF0C21042102228A405340054A9BB22E
S31508003A4822F82430BFF34F8FBFF36F8F10BD00BF26
S31508003A58400B0020005C004002440346934200D114
S31508003A68704703F8011BF9E770B50D4D0D4C641B3B
S31508003A78A4100026A64209D10B4D0C4C00F026F8D6
S31508003A88641BA4100026A64205D170BD55F8043B50
S31508003A9898470136EEE755F8043B98470136F2E7AA
S31508003AA8683C0008683C0008683C00086C3C00084C
S31508003AB80A44914200F1FF3300D1704710B511F856
S31508003AC8014B03F8014F9142F9D110BDF8B500BF73
S31508003AD8F8BC08BC9E467047F8B500BFF8BC08BCD9
S30908003AE89E46704731
S31508003AEC4F70656E424C5420557365720057696E5B
S31508003AFC5553422042756C6B2044657669636500A4
S31508003B0C6D61696E2E63002E2E2F2E2E2F2E2E2FC4
S31508003B1C536F757263652F41524D434D345F535441
S31508003B2C4D333246332F7573622E630009040A002F
S31508003B3C0000000003069E001400030057494E556A
S31508003B4C5342000000000000000000008000040042
S31508003B5C01002800440065007600690063006500D2
S31508003B6C49006E007400650072006600610063000F
S31508003B7C6500470055004900440000004E007B00D4
S31508003B8C380030003700390039003900430033005B
S31508003B9C2D0045003400450030002D00340030005F
S31508003BAC450041002D0038003100380038002D0042
S31508003BBC3400380045003800350032004200350024
S31508003BCC34004600320042007D000000050F21003B
S31508003BDC011C100500DF60DDD88945C74C9CD265F1
S31508003BEC9D9E648A9F000003069E00010009022020
S31508003BFC00010100804B0904000002FF00000007C9
S31508003C0C050102400000070581024000001201016F
S31508003C1C0200000040501DAC6000010102030100C7
S31508003C2C000000010203044F70656E424C540000FC
S31508003C3C000000001D1C0008711C00088D1C0008E3
S31508003C4CB11C0008650A0008851D00080000000064
S30908003C5C0000000056
S30D08003C6028C5FF7F01000000E2
S30908003C68010200083F
S30908003C6CD901000864
S31508003C700100000010000000383B0008EC3A00087C
S31508003C80F93A000818000020303132333435363717
S31508003C903839414243444546000000000000000010
S31508003CA00000000000127A000500000059240008F0
S31508003CB01C0A002010000C0000000000FF00000095
S70508000225CB
