S01900006F70656E626C745F73746D3332663230372E7372656300
S31508000000305800203D7A0008557A0008597A0008C9
S315080000105D7A0008617A0008657A00080000000029
S31508000020000000000000000000000000697A0008D7
S315080000306D7A000800000000717A0008654900081A
S31508000040757A0008797A00087D7A0008817A0008AE
S31508000050857A0008897A00088D7A0008917A00085E
S31508000060957A0008997A00089D7A0008A17A00080E
S31508000070A57A0008A97A0008AD7A0008B17A0008BE
S31508000080B57A0008B97A0008BD7A0008C17A00086E
S31508000090C57A0008C97A0008CD7A0008D17A00081E
S315080000A0D57A0008D97A0008DD7A0008E17A0008CE
S315080000B0E57A0008E97A0008ED7A0008F17A00087E
S315080000C0F57A0008F97A0008FD7A0008017B00082D
S315080000D0057B0008097B00080D7B0008117B0008DA
S315080000E0157B0008197B00081D7B0008217B00088A
S315080000F0257B0008297B00082D7B0008317B00083A
S31508000100357B0008397B00083D7B0008417B0008E9
S31508000110457B0008497B00084D7B0008517B000899
S31508000120557B0008597B00085D7B0008617B000849
S31508000130657B0008697B00086D7B0008717B0008F9
S31508000140757B0008797B00087D7B0008817B0008A9
S31508000150857B0008897B00088D7B0008917B000859
S31508000160957B0008997B00089D7B0008A17B000809
S31508000170A57B0008A97B0008AD7B000800000000ED
S31508000180B17B000880B5DFF87809807801F091F92D
S31508000190012002BDDFF868098078FF2801D0012018
S315080001A07047002070470000F8B505460C46FFF773
S315080001B0F1FF002801D00120F2BD002C06D1DFF89E
S315080001C044090068C0075AD500BE58E000222C2111
S315080001D0DFF8280901F062FDDFF824690020307095
S315080001E006F1100002F03FF806F10C00B060701C32
S315080001F002F03EF870607078401CB0F5807F06DB30
S31508000200DFF800090068C00739D500BE37E00027C7
S3150800021001E080477F1C717838464A1CC0B2D2B2CA
S3150800022090421FD200203A460B46D2B29A4207D2D3
S3150800023070683946C9B201EBC10200EB820005E0DD
S31508000240791AC9B2002901D1DFF8BC08002802D002
S3150800025040680028DDD1DFF8AC080068C0070ED575
S3150800026000BE0CE0B5702146284601F0A7F8002824
S3150800027007D1DFF890080068C00700D500BE002047
S31508000280F2BD284601F0EFF80120F2BD70B504462C
S31508000290002503E02046C96888476D1CDFF860081A
S315080002A042782946531CC9B2DBB299421CD20021B6
S315080002B02B461646DBB2B34207D240682946C9B276
S315080002C001EBC10200EB820105E0AA1AD2B2002AAC
S315080002D001D1DFF834180029DCD1DFF828080068D6
S315080002E0C00715D500BE70BDDFF8104800222C21C6
S315080002F0204601F0D3FCFF221021201D01F0CEFC80
S31508000300FF220C2104F11400BDE8704001F0C6BCC0
S3150800031070BD80B5FFF7BAFFBDE8014002F03BB8F3
S315080003207FB5FFF737FF0028DFF8D45715D17FBD13
S315080003309DF80100401E072800F2D580DFE800F08E
S31508000340041CC9ABB82363C19DF80000FFF7E1FFA1
S315080003509DF80400DFF8A4178870AC6800202168AF
S3150800036088476946201D01F044FF0646012021689A
S315080003708847002EDCD17FBD9DF80000FFF7C9FF36
S3150800038002F02FF9E9E72878002835D02878401EAA
S31508000390287028780028E0D1DFF86007017841F056
S315080003A00101017090F8201001F0FE0180F820107C
S315080003B090F8201001F0FB0180F8201090F8211029
S315080003C001F0FE0180F8211090F8211001F0FB01E0
S315080003D080F8211001A99DF8000000F09BF800287C
S315080003E0BBD100219DF8000001F02AF980219DF873
S315080003F0000001F025F9B0E7DFF8000A0068C00739
S3150800040095D500BE7FBD9DF8041001F00F000A4681
S31508000410DFF8E83603EB400313EBD21420342678D2
S3150800042006F0FE06267013EBD2142034267806F062
S31508000430FB062670002807D1029B9DF805209DF82B
S31508000440000001F0BBFF88E713EBD210007D002403
S315080004506A7803461646B34205D26A6800EBC003BB
S3150800046012EB830405E0801AC0B2002801D1DFF838
S315080004709846002C07D0029B9DF805209DF80000A1
S31508000480A469A04769E7DFF874090068C0077FF523
S315080004904EAF00BE7FBDDFF864060178C9077FF559
S315080004A05CAF0078C00800F0010002F09DF854E740
S315080004B0DFF848060078C0077FF54FAF02F096F8D8
S315080004C04BE7019800283FF448AF029801998847FE
S315080004D043E7DFF82806C078C0077FF53EAF0198E6
S315080004E002F087F839E7DFF814090068C0077FF5D6
S315080004F034AF00BE31E770B504460D461646686946
S3150800050001F04EFF3246012120466B69BDE8704076
S31508000510184700002DE9FC4105460E46002001F06B
S315080005203FFF3078C0F34111022907DDDFF8CC0818
S315080005300068C00700D500BE002062E009D1DFF8D8
S31508000540280A01F02DFF32460121284602F08EF8CE
S3150800055057E010F01F0105D0022900F02681C0F0EF
S31508000560DC809DE1C0F34111012924D1307910289E
S3150800057001D3002045E0DFF8F419085C0021DFF814
S315080005808025537804461F46BC4205D2516800EBC5
S31508000590C00201EB820105E0C01AC0B2002801D1F1
S315080005A0DFF86415002901D100202AE032462846E2
S315080005B0FFF7A1FF25E0C0F34110002807D0DFF8B8
S315080005C03C080068C00700D500BE002019E0707816
S315080005D0092800F29A80DFE800F08373986398058B
S315080005E05B981622304601F0DEFE7188C9B22846AD
S315080005F000F03BFFDFF80405017841F002010170C5
S315080006000120BDE8F681DFF8F40440788DF8000093
S3150800061001236A463146284601F07EFEF0E77788D0
S31508000620DFF8D84460783946C9B288422BD060785A
S3150800063000280DD00021284600F04AFF284600F081
S315080006407AFF94F802802846FFF720FE84F8028095
S3150800065067703846C0B2002802D101F0C2FF12E026
S315080006603946C9B2284600F023F9002809D10020E6
S315080006706070DFF888070068C00700D500BE002054
S31508000680BFE701F0ABFF3146284601F0FEFDB7E7AC
S315080006903146284600F0B8F90028B1D10020B0E765
S315080006A0708801280AD1DFF85404017841F008015E
S315080006B001703146284601F0E8FDA1E70020A0E7D1
S315080006C07088012801D000209BE7DFF83004017804
S315080006D001F0F70101703146284601F0D6FD8FE793
S315080006E0DFF8180401780846400900F00100C90837
S315080006F001F0010140EA4100ADF8000002236A4614
S315080007003146284601F008FE7AE7DFF8F006006869
S31508000710C00700D500BE002073E73079102801D342
S3150800072000206EE7DFF844180B5C0021DFF8D003E1
S3150800073042781C461746BC4205D2406803EBC30103
S3150800074000EB810105E09A1AD2B2002A01D1DFF83E
S31508000750B813002901D1002053E732462846FFF78F
S31508000760CAFE00287FF44CAF3078C0F34110002849
S3150800077001D0002045E7002001F012FE70780A2813
S3150800078002D00B280AD00EE000208DF800000123C5
S315080007906A463146284601F0BFFD31E7314628460C
S315080007A001F073FD2CE700202BE7B18801F00F025A
S315080007B0062A07D3DFF844060068C00700D500BE3E
S315080007C000201EE7DFF8347307EB42020B46DBB264
S315080007D002EBD31292F814C00024DFF824235378CE
S315080007E0E6469846C64505D252680CEBCC0312EB92
S315080007F0830405E0ACEB0303DBB2002B00D1C24C4B
S31508000800C0F34110002809D0002C01D10020F8E6D9
S31508000810324621462846FFF76EFEF2E67278100049
S3150800082004D0012813D0032811D031E0C9B22846D4
S3150800083000F08CFB401E8041C043C00FADF800009D
S3150800084002236A463146284601F066FDD8E67088D6
S31508000850002808D1012AC9B2284602D100F05CFB5B
S3150800086001E000F03FFB002C3FF4CAAE32462146B9
S315080008702846FFF740FE002001F092FD97F8210078
S31508000880C0073FF5BDAE3146284601F0FEFCB7E687
S31508000890DFF868050068C00700D500BE0020B0E68E
S315080008A0DFF858050068C00700D500BE0020A8E696
S315080008B02DE9F84F0446481EC0B201F0D3FE0028C1
S315080008C002D04178022907D0DFF830050068C00752
S315080008D040F1958000BE92E0884DC2795209297888
S315080008E062F304112970C279920962F345112970DD
S315080008F000F1090641884718DFF804B2BE4280F0C5
S3150800090080804FF0010870780B2803D196F8038091
S31508000910307806447078042804D1A7EB06094FF00E
S31508000920000A14E0DFF8D4040068C00767D500BEE3
S3150800093065E04A4692B2314620461B69984709281F
S3150800094003D3494689B2814227DA0AF1010A9BF89C
S3150800095001005146421CC9B2D2B2914241D200238B
S3150800096051460246C9B2914208D2DBF80400514604
S31508000970C9B201EBC10210EB820305E0AAEB000045
S31508000980C0B2002800D1604B002BD2D1DFF86C042E
S315080009900068C00733D500BE31E0002241468046D4
S315080009A003E02B1D03F800A0521C1046C0B2884273
S315080009B00DDAB0781018C0B22B1D1B5CFF2BF0D0D7
S315080009C0DFF838040068C00719D500BE17E053469B
S315080009D0DBB240460246314605F1140001F045FFF8
S315080009E046449BF80100401C5FFA8AFAC0B2824569
S315080009F084D3DFF808040068C00700D500BE0020CD
S31508000A0000E00120BDE8F28F38B504460D46688837
S31508000A100146090A0A46012A0AD0022A2DD0032AC3
S31508000A204AD0062A59D0072A27D00F2A15D063E0BC
S31508000A3001F016FE0246002A07D1DFF8C003006857
S31508000A40C00700D500BE002032BD12232946204625
S31508000A5001B0BDE8304001F05FBC01F005FE00289A
S31508000A6001D1002032BD811C0B880246294620464A
S31508000A7001B0BDE8304001F04FBC0229C0B20BD12D
S31508000A8001F0F0FD00280DD1DFF870030068C007FB
S31508000A9000D500BE002032BD02F071F8002801D151
S31508000AA0002032BD811C0B8802462946204601B02B
S31508000AB0BDE8304001F030BCA988C0B201F0FBFDAA
S31508000AC0002801D1002032BD037802462946204677
S31508000AD001B0BDE8304001F01FBC02F052F8002812
S31508000AE001D1002032BD037802462946204601B0CE
S31508000AF0BDE8304001F010BC002032BDA047002000
S31508000B005C010020F0ED00E0507900082DE9FF4770
S31508000B1004460E4600276078801E052800F22181CB
S31508000B20DFE810F00600300018002400CA00D100E3
S31508000B30DFF83C04017801F0FE010170017801F04C
S31508000B40FD01017039464170017801F0FB01017021
S31508000B50012707E1DFF818040178C90740F1028187
S31508000B60017841F0040101700127FBE0DFF8000479
S31508000B700178C90740F1F680017801F0FB010170A0
S31508000B800127EFE0B846DFF8EC531EE0A8EB0101B9
S31508000B90C9B200290FD1DFF8E0030CE03846424617
S31508000BA00B46D2B29A42F1D268684146C9B201EB05
S31508000BB0C10200EB8200002805D0026A002A02D092
S31508000BC061682078904708F10108697840464A1C10
S31508000BD0C0B2D2B29042E1D3DFF8948398F800000D
S31508000BE0C0F38000002834D098F8000000F0FB001D
S31508000BF088F8000068460FF28C3191E80C1080E8FE
S31508000C000C1020788DF80000D5F80890300003D134
S31508000C103846D9F800108847694609F1040001F0FA
S31508000C20FBFA8246300003D10120D9F80010884724
S31508000C30BAF1000F06D1DFF844030068C00708D5EB
S31508000C4000BE06E032469DF801109DF8000001F04E
S31508000C509AFF98F80300C00740F1848068460FF2AF
S31508000C60303191E80C1080E80C1020788DF80000DF
S31508000C7060680190AD68300002D138462968884717
S31508000C806946281D01F0C8FA8046300002D10120C5
S31508000C9029688847B8F1000F06D1DFF8E002006836
S31508000CA0C0075FD500BE5DE032469DF801109DF88D
S31508000CB0000001F068FF55E0DFF8B8020178491C2A
S31508000CC0017001274EE0217901F00F0088460127BF
S31508000CD0002847D0DFF8982202EB400909EBD81024
S31508000CE0027D0025DFF88C02437894469E46F4453B
S31508000CF005D2406802EBC20310EB830505E0D21A61
S31508000D00D2B2002A01D1DFF87052002D2AD0E86944
S31508000D10002827D009EBD8102030027802F0FE020E
S31508000D20027009EBD8102030027802F0FB0202703C
S31508000D30A36862792078ED69A847002800D00027C3
S31508000D4038000FD009EBD8102030017841F00101A6
S31508000D50017009EBD8102030017841F004010170C8
S31508000D6000E00127002F1FD0DFF808028568300051
S31508000D7002D10020296888472146281D01F04CFA2F
S31508000D800746300002D1012029688847002F06D17E
S31508000D90DFF8E8010068C00706D500BE04E0324661
S31508000DA06178207801F0EFFEBDE8FF87DFF8C4110F
S31508000DB089780028084601D000F055BB00F054BBDE
S31508000DC010B5DFF8BC41002805D16068002802D1BB
S31508000DD00020216888476068401C606010BDDFF805
S31508000DE0A0215168002908D0491E5160002804D165
S31508000DF0002902D10120116808477047F0ED00E08C
S31508000E0038B50D465B488478A87800F00F000628A8
S31508000E1005DB5A480068C0070ED500BE0CE0002264
S31508000E2053488178284601F0CDFC002806D153485E
S31508000E300068C00700D500BE002032BD29462046FE
S31508000E40BDE8344000F05EBB08460021484A00F081
S31508000E500F0302EB430202EBD010203001F080BCF6
S31508000E6008460021424A00F00F0302EB430202EB58
S31508000E70D010203001F091BC70B501F00F000C467F
S31508000E80E4093B4D05EB400505EB040090F820000E
S31508000E90C0071ED428192030067846F001060670C9
S31508000EA03448807800F094FB002818D1281920309F
S31508000EB0017801F0FE01017028192030017801F04F
S31508000EC0FB0101702D480068C00700D500BE002050
S31508000ED070BD2A480068C007F9D500BEF7E70120AB
S31508000EE070BD000038B501F00F040D462148807822
S31508000EF000F0A6FB1E4800EB440010EBD51120318C
S31508000F000A7842F002020A7000EBD5102030017808
S31508000F1041F00101017031BD38B501F00F040D46ED
S31508000F201448807800F0A0FB114800EB440010EB51
S31508000F30D51120310A7802F0FD020A7000EBD510AF
S31508000F402030017801F0FE01017031BD084801F03A
S31508000F500F0200EB420000EBD11090F82000400889
S31508000F6000F00100704700006D260008A447002025
S31508000F70A04700205C01002050790008F0ED00E051
S31508000F8078010020000500000000000000000000B5
S31508000F9000030000000000000000000070B40446D2
S31508000FA0022C00DB0020DFF8645B00012B5805EB00
S31508000FB00414257A01F00F00A84206DBDFF8500B6F
S31508000FC00068C0073DD500BE3BE0D21C9208C9099F
S31508000FD016D1C2F30D02AA185200103292B2586AFC
S31508000FE090423DD2DFF82C0B8088904206DADFF873
S31508000FF0200B0068C00724D500BE22E05A622FE005
S31508001000617ADFF8104B00290BD0A5798D4206D3FB
S31508001010DFF8FC0A0068C00713D500BE11E06D1C96
S31508001020A5719968090600D45200A1880D465E6A22
S31508001030B618B54207D2DFF8D80A0068C00700D547
S3150800104000BE00200DE0891AA18089B241EA02415A
S31508001050002801D1996203E003EB8000C0F8001173
S31508001060012070BC704701460A46022A00DB0021AF
S31508001070DFF8983A0901595803EB0212137A5B0014
S3150800108030334B628B6CDFF88C3AD26892089A80C0
S315080010909A8842EA0242CA65402280217EE7000019
S315080010A0D0B40246012A00DD0020DFF8602A0001DC
S315080010B012588C7804F00F03E409DFF89C0B00EB58
S315080010C0431000EB04168888C0F30A00708102F604
S315080010D008073868C0F34100002808D14FF0010C12
S315080010E08879401E0CFA00FC86F80CC001E0887965
S315080010F0307300BF18A000687689C00A56EAC02077
S31508001100C9780E4606F0030666F3934040F400409D
S3150800111001F00301012901D040F08050012C04D1CF
S3150800112063F3995001D1002100E0012102EB41212E
S3150800113001EB431101F510610860012C01D1002073
S3150800114000E0102079690122C31802FA03F30B4361
S315080011507B61D0BC704700000000000010B4034655
S31508001160022B00DB00200FF60C3300011B5801F0A0
S315080011700F00C909012901D1002400E0012403EB6D
S31508001180442404EB401404F51064002A02D04FF4FA
S31508001190001200E00022012921681FD1C90F216829
S315080011A004D10A4342F0006222600FE041F0006178
S315080011B02160A1684906FCD521680A4342F08042AD
S315080011C02260A1688907FCD50221A160800140F050
S315080011D02000186118698006FCD420E0C90F01D0E8
S315080011E0002803D120680243226018E0D3F80408D7
S315080011F040F40070C3F8040858690006FCD5206856
S31508001200024342F080422260A0688007FCD5022093
S31508001210A060D3F8040840F48060C3F8040810BC42
S3150800122070472DE9F84F0246022A00DB00200FF628
S315080012304422000115580E4615EB461202F51067B2
S31508001240DFF8182A02EB4618D7F810904FEAD94962
S31508001250C9F3090900239A460C461DE01346D8F837
S3150800126000202146284601F0F9FDD8F80000584428
S31508001270C8F80000009B0DE0D8F8040093465B44CC
S3150800128000930028EAD005EB063101F5805100F0FD
S31508001290C1FF009B0AF1010A504680B248450EDAA2
S315080012A03A69B8F80A0092B2824200D90246B86989
S315080012B0DFF8AC1901EA800110468142DCD21846F3
S315080012C080B2BDE8F28F2DE9F0410C4601460B4687
S315080012D0012B00DD00210FF69C1309015D582146FC
S315080012E01346DFF8746906EB411606EB0316174634
S315080012F0012F01D1002700E0012705EB472707EB5F
S31508001300411101F5106721000FD1DFF808C83CF834
S3150800131013E071468846B8F1400F00D34021AEEB82
S31508001320010E2CF813E001230EE03189738903EBD3
S31508001330010CACF1010CBCFBF3F39C461FFA8CFCC8
S31508001340BCF1000F00D101230FF6481CDCF800C0E1
S3150800135061F3120C9BB263F3DC4CC7F810C0D7F8E4
S3150800136000C04CF0806C4CF0004CCCF38143012B50
S315080013700AD1D5F80838C3F30023002B02D04CF065
S31508001380805C01E04CF0005CAB6CC7F800C0012A39
S3150800139012D1002910D02146FFF743FF21000BD0B8
S315080013A03189081A002807DD05F60800C16A0122F6
S315080013B002FA04F40C43C462BDE8F08170B5044631
S315080013C00146022900DB00200FF6A80100010D588E
S315080013D000220821DFF83C0700F060FC01212846BE
S315080013E001F0A1FC0646A86C00223146204601F011
S315080013F0A7FC002807D1DFF818070068C00700D542
S3150800140000BE002070BDD5F8000880088000002EB8
S3150800141007D0A96CC1F38111022904D140F4804098
S3150800142001E040F0030040F00400C5F8000820463B
S3150800143000F03FF80220E96860F35E71E960286809
S3150800144020F0100040F0C0002860A969DFF81408F1
S315080014500143A961A86840F08000A860204600F012
S3150800146019F8012070BD7047704702461346022BD3
S3150800147000DB00220FF2FC7312019A58D2F80038EA
S3150800148023F4FE6343EA0113C2F8003800231A4620
S3150800149080219DE00146022900DB00200FF2D4716D
S315080014A000010858D0F8041821F00201C0F8041801
S315080014B070470146022900DB00200FF2B8710001CF
S315080014C00858D0F8041841F00201C0F8041870470B
S315080014D00246022A00DB00200FF29872000110581B
S315080014E0DFF83026D171002906D0082141618169CB
S315080014F041F0080181617047816921F00801816125
S315080015007047000038B504460D46AA88C2F30A0299
S31508001510A978FFF743FD002807D1DFF84C070068D4
S31508001520C00700D500BE002032BD29462046FFF779
S31508001530B7FD012032BDF8B504462246012800DD74
S3150800154000220FF2307112018D5801EB0010067A55
S315080015500020FFF735FC0020DFF8B81588714FF03A
S315080015600110C5F81C0801211AE07802284400EB8E
S31508001570411000F510631868C00F03D0186840F0D2
S3150800158090401860DFF8D00600EB41107A4200EB75
S315080015900210002242837F1C012FE6DD491CC9B2D6
S315080015A0B14201DA0027F7E74FF484602861286919
S315080015B08006FCD4102028612869C006FCD4204681
S315080015C0FFF751FD0020BDE8F240FFF708BC000018
S315080015D02DE9F04704460D4616461F4605F00F0846
S315080015E0ED09A946DFF87006414600EB411000EB0D
S315080015F0091A0020FFF7E4FBBAF80A00002801D10F
S31508001600002417E0CAF800600020CAF80400AAF807
S3150800161008709AF80C008AF80D004046002803D195
S31508001620DFF8F00420F819702A4641462046FFF7ED
S315080016304AFE01240020FFF7D2FB2046BDE8F087CA
S3150800164038B50C4605462946022900DB0025012245
S315080016502146FFF783FD14F00F0F04D10FF2146033
S315080016602D014059806C31BD0246022A00DB00205C
S315080016700FF20062000110580A46D20982F00102F0
S3150800168000EB422001F00F0100EB411000F510605D
S31508001690016821F400110160016841F08051016080
S315080016A0704770B504460146022900DB00200FF298
S315080016B0C45100010D58AE6CB60A06F00F06761C2A
S315080016C00022C021DFF8900500F0E8FADFF84404AC
S315080016D00021C180084609E005EB4011D1F8002B2E
S315080016E042F00062C1F8002B401CC0B2B042F3DBE6
S315080016F000210BE005F5106202EB40121068C00FDE
S3150800170003D0106840F090401060491C0846C0B2EB
S31508001710B042EFDB05F500604FF00111C161092108
S31508001720416101614FF48460286128698006FCD410
S31508001730102028612869C006FCD42046FFF793FCD0
S3150800174005F50060016821F4FE610160D5F800091D
S3150800175080088000C5F8000905F53061086880082A
S3150800176080000860D5F80009C5F80009086808600F
S31508001770DFF8E404402242814283A86C086940F0FD
S31508001780C0400861A86940F4E010A86170BDE0B5E2
S3150800179001460A46012A00DD00210FF2D842090156
S315080017A05158D1F80818490811F0030102D0022946
S315080017B002D003E0022102E0012100E000218DF8B9
S315080017C0000001208DF801008DF8041001466846D6
S315080017D0FFF79CF907BDF8B50146022900DB002092
S315080017E00FF2904100010B58196A01F00F0413EB30
S315080017F0441202F530650A46520C02F00F02022A1C
S3150800180010D0042A09D0062A31D1C2484FF4805193
S315080018105A5882605958C160F1BD286940F0C040E5
S315080018202861F1BDC1F30A16DFF82C1411EB441731
S31508001830300010D078680028324604D003F580516D
S3150800184000F00FFD07E03968184601F0E7FA386836
S315080018503146084438607889864208D22869398929
S31508001860081A3881002C02D10020AA490880F1BD47
S315080018701FB50446C2F3C000002821D02046014601
S31508001880012900DD00200FF2EC3100010858D0F8DC
S315080018900009C00F04D0002280212046FFF75EFC15
S315080018A08DF8004006208DF801000822DFF8BC13E9
S315080018B001A801F015FB01216846FFF727F91FBDAE
S315080018C048F221000240012A1FD1080009D1914897
S315080018D00088002805D0002211462046FFF7F3FCB1
S315080018E01FBD8DF8004007208DF801008DF8041003
S315080018F0DFF8640300EB41100089029000208DF8A0
S31508001900050001216846FFF701F91FBD2DE9FF41D2
S3150800191004460D4690460146012900DD00200FF2D7
S31508001920543100010E58284616EB401101F5106790
S31508001930C94901EB401000F110015FEAC8701DD5D6
S31508001940280009D173484088002805D001220021C3
S315080019502046FFF7B8FC11E08DF8004007208DF807
S31508001960010045F080008DF80400088902900020E7
S315080019708DF8050001216846FFF7C8F8C8F3C010BE
S31508001980002814D0D6F83408E840C0070FD52946F1
S315080019902046FFF746FC3869400308D1D6F83408D4
S315080019A0012101FA05F520EA0505C6F83458BDE80F
S315080019B0FF8100002DE9F04704460D46014601293E
S315080019C000DD0020ABA100010E58B06CB76CBF0A51
S315080019D007F00F077F1C2846012802D14FF00008A0
S315080019E001E04FF0100801D1002000E0012006EBCD
S315080019F0402000F510694FF0000A17E0FFF738FF9E
S31508001A0012E0D6F818180AEB0802D140C9070BD518
S31508001A1009EB401082688260284601285146C9B2FF
S31508001A202046EBD1FFF772FF0AF1010A5046C0B211
S31508001A30B842E6DBBDE8F0872DE9FE4305460146D8
S31508001A40012900DD002000BF8AA100010E58D6F842
S31508001A500808C0F30024B76CBF0A07F00F077F1CFD
S31508001A604FF000081EE048F0800900224946284643
S31508001A70FFF774FB8DF8005007208DF801008DF8EC
S31508001A8004900020029001208DF805000146684662
S31508001A90FFF73CF802E042F000520A6008F101083C
S31508001AA05FFA88F8B8452FDA16EB481000F510618A
S31508001AB00A681046C00FF1D0C2F381400128EDD163
S31508001AC0C2F30040A042E9D1634800EB481000F198
S31508001AD01003587B0028C6D0401E58736EA00068B5
S31508001AE0B3F808C06CF312005B899C44ACF1010C96
S31508001AF0BCFBF3F3C3F3090363F3DC400861002C72
S31508001B00C9D042F08052C8E7BDE8F783741C0008C4
S31508001B10F0ED00E0EC470020FEB504460146012939
S31508001B2000DD002053A100010D58AE696869064022
S31508001B30F0040BD54FF4805068610120FFF740F997
S31508001B402046FFF7AEFD0120FFF749F9B0040CD592
S31508001B504FF4005068614FF400606861A86940F46A
S31508001B600060A8612046FFF712FE30050FD54FF436
S31508001B7000606861A86920F40060A8618DF80040DB
S31508001B8004208DF8010001216846FEF7BFFF002EEC
S31508001B900FD54FF000406861A86940F40060A8615D
S31508001BA08DF8004005208DF8010001216846FEF7F2
S31508001BB0ADFF70070CD56F68780708D58DF800401B
S31508001BC002208DF8010001216846FEF79FFF6F602D
S31508001BD030071BD508206861A86940F40060A86131
S31508001BE0D5F80808C0F30D212148C079002803D18B
S31508001BF0A86920F00800A8618DF8004003208DF838
S31508001C000100019101216846FEF780FFF0060DD517
S31508001C10A86920F01000A8612046FFF7DCFD686976
S31508001C20C006F9D4A86940F01000A861300303D5AE
S31508001C3000212046FFF7BEFE700303D5012120468A
S31508001C40FFF7B8FEF00205D54FF48010686120460C
S31508001C50FFF7F2FEF7BD0000C4420020D442002080
S31508001C60FCFF030004300080F0ED00E0F44700209C
S31508001C70EC4700200000005043000000040000006C
S31508001C8000050000000004404D00000006000000AA
S31508001C9000100000000000000000000062F30F22A0
S31508001CA062F31F4200B500BF1300964694461039EA
S31508001CB028BFA0E80C50FAD85FEA417C28BF0CC0C0
S31508001CC048BF40F8042BC90728BF20F8022B48BF95
S31508001CD000F8012B00BD30B4144648F20105AC42A9
S31508001CE001DB002010E0029C01608280C18863F35A
S31508001CF00E01C180C17901F07F0141EAC411C171A9
S31508001D00002141810181012030BC70471CB5134672
S31508001D109B0802E00C6840F8044B1C46631EA4B2FC
S31508001D20002CF7D112F0030204D009680091694625
S31508001D3001F0C6F813BD1CB504461046800802E03B
S31508001D4051F8043B23600346581E9BB2002BF7D17B
S31508001D5012F0030206D000200090684601F0B0F8A1
S31508001D600098206013BD18B41346C488C4F30E0443
S31508001D70224600686343184418BC01F0A1B82DE94F
S31508001D80F84307460D460898B988C91A89B2B7F8BC
S31508001D9006C0CCF30E0CE6460EFB01F4A4B2561AA6
S31508001DA00CFB06F6D7F800800EFB03F39844C0B286
S31508001DB0002802D0012815D05BE0914206DB0EFB15
S31508001DC002F22946404601F07BF852E022462946AF
S31508001DD0404601F075F8B6B232462919386801F05E
S31508001DE06FF846E01046814207DB0CFB02F292B21E
S31508001DF029464046FFF78AFF3BE04FF6FC7909EA99
S31508001E0004094A4629464046FFF780FF08EB0901C0
S31508001E1004F00304200022D0C0F10400324692B236
S31508001E2080B2824200D902461046C0B2361A2868E5
S31508001E3000906B4603E013F8010B01F8010B2046EE
S31508001E40441EC0B20028F6D1386811464A1EC9B2E7
S31508001E50002905D013F8011B00F8011BF5E73868BF
S31508001E60314689B2002904D0324692B22946FFF794
S31508001E704DFFBDE8F18318B40B461146C488C4F378
S31508001E800E042246006861430144184618BC01F056
S31508001E9017B82DE9F84307460D460898B988C91AB0
S31508001EA089B2B7F806C0CCF30E0CE6460EFB01F471
S31508001EB0A4B2561A0CFB06F6D7F800800EFB03F3FD
S31508001EC09844C0B2002802D0012815D05EE091429D
S31508001ED006DB0EFB02F24146284600F0F1FF55E00C
S31508001EE022464146284600F0EBFFB6B2324639682C
S31508001EF0281900F0E5FF49E01046814207DB0CFB94
S31508001F0002F292B241462846FFF715FF3EE04FF629
S31508001F10FC7909EA04094A4641462846FFF70BFFB9
S31508001F2008EB090104F00304200025D0C0F10400E1
S31508001F30324692B280B2824200D902461046C0B2F8
S31508001F40361A00200090684603E011F8013B00F8B5
S31508001F50013B23465C1EDBB2002BF6D1396803E051
S31508001F6011F8013B00F8013B13465A1EDBB2002B61
S31508001F70F6D10098286000E03968304680B200281B
S31508001F8004D0324692B22846FFF7D5FEBDE8F18363
S31508001F90521813469BB28B4205D3114689B20346A3
S31508001FA0B1EB430F03DBC0EBC03102EB4102104635
S31508001FB080B2704770B514461D46AC4201D3D41A98
S31508001FC003E08488C3EB44041419A4B2002C01D19D
S31508001FD0002070BD85882E46A64208DA13462C4690
S31508001FE0A34201D3521B00E0AA18428113462A468F
S31508001FF000E09B1A1C46A4B2AC42FAD21A4692B228
S31508002000FFF739FF012070BDF8B5069C1D46264628
S31508002010B6B2B54201D31D1B03E08588C4EB45055E
S315080020205D192E46B6B2002E01D10020F2BD868873
S315080020303746AC461FFA8CFC674509D21C4635461E
S31508002040AC4201D39B1B00E0F31843811C468588EC
S31508002050ADB2954200D91546324600E0A41A234689
S315080020609BB2B342FAD29DF81C20009223469BB23B
S315080020702A46FFF70EFF2846F2BD2DE9FC41044625
S315080020800F4690461D464046002801D100205CE0D8
S3150800209026896189A388E079C00914D130460A46A1
S315080020A0904201D3711A02E0C1EB4301711889B25B
S315080020B01846814201DA591A00E0002189B288459A
S315080020C029D9884627E040461A4690420DD328006B
S315080020D008D11846A8EB0008E088C0F30E0000FBFC
S315080020E008F8474498460E4615E030460A46904298
S315080020F001D3721A02E0C1EB4302B21892B240460B
S3150800210082181846B2EB400F05DBA3EB080292B221
S31508002110FFF73EFF06464046002815D03346A088FE
S31508002120024600E01B1A194689B29142FAD2009576
S315080021309BB2424639462046FFF721FE42463146C3
S31508002140A088FFF725FF20814046BDE8F6813EB509
S31508002150044660890193009023892046FFF754FFBF
S3150800216005462A466189A088FFF712FF608128463E
S315080021703EBD10B4014648890A8989881346044633
S31508002180A34201D3101A02E0C0EB4100101880B236
S31508002190884200D9084610BC704710B441890289A4
S315080021A0838810460C46A04201D3511A02E0C1EBBF
S315080021B04301511889B299428041C043C00F10BCEF
S315080021C0704710B4014648890A8989881346044627
S315080021D0A34201D3101A02E0C0EB4100101880B2E6
S315080021E00A46904201DA081A00E0002080B210BCC4
S315080021F0704738B5044663892289FFF7DBFE054632
S315080022002A466189A088FFF7C3FE6081284632BD49
S3150800221000239CE701239AE770B504460D462689F4
S31508002220FFF7BBFF002804D0E079C00901D10020E0
S3150800223070BD3246A088034600E0121A114689B2DC
S315080022409942FAD292B229462046FFF78CFD01221E
S315080022503146A088FFF79CFE2081012070BD00232F
S315080022600BE7012309E7002141810181012070471D
S31508002270002101700846704700231A460978C909E3
S3150800228081F00101C901FEF7F7BD70B504460D4698
S315080022907A4E3046082200F013FE0020B060F06047
S315080022A029462046BDE87040E6E7F8B50446734E71
S315080022B0B589F0892D1AADB2402D00D940250027E1
S315080022C03078C0091AD08027280017D02A00B168AC
S315080022D001D100200EE0002902D14FF0FF3009E0BD
S315080022E0412A02D34FF0FF3004E006F1140000F053
S315080022F0E7FD0020002801D00020F2BD280002D00A
S3150800230006F1140200E000222B463946204601B0A9
S31508002310BDE8F040FEF7B0BD2DE9F04105460E4692
S3150800232014461F46DFF854814046082200F0C8FDCF
S31508002330C8F808400020A8F80E00F088874200D99F
S315080023400746A8F80C70F088002814D0002F07D08C
S31508002350002C05D14A480068C00717D500BE15E00D
S315080023602846FFF7A2FF002812D145480068C00793
S315080023700CD500BE0AE031462846FFF77DFF002847
S3150800238006D13F480068C00700D500BE002000E01F
S315080023900120BDE8F081002214213848FFF77EBCF1
S315080023A036490861704710B50146344C2046082264
S315080023B000F086FD0020A060E06010BD70B50546FF
S315080023C01C462E4E3078C009C909814214D0002C0B
S315080023D005D02B480068C0074DD500BE4BE03146F6
S315080023E0284600F0C0FD3369002B03D0324603218E
S315080023F028469847012070BD002807D1B0680028F4
S3150800240039D0224606F1140100F05AFDF089201849
S31508002410F081B1682144B160F18880B2814201D06F
S31508002420402C1ED201203369002B03D032460221EC
S315080024302846984700280BD031462846FFF71CFF48
S315080024400028D7D10E480068C00714D500BE12E090
S3150800245000212846FFF7F4F880212846FFF7F0F810
S31508002460C8E72846FFF721FF0028C3D104480068BB
S31508002470C00700D500BE002070BD000068460020D9
S31508002480F0ED00E010B548484FF0A044046000F0B5
S315080024906BFD4648016841F002010160A06B40F4FB
S315080024A00010A063A06B20F40020A063A06B20F4AA
S315080024B08020A0634EA10020FDF776FE00F096FD71
S315080024C0B0F5FA6F05D24FF4FA60BDE8104000F097
S315080024D08ABD10BD80B5FDF755FE33484FF0A041C3
S315080024E00160BDE8024000F08FBD13B504460846FA
S315080024F0402803DB9B212E4800F087FD012201A915
S31508002500002000F0A9FD012803D09F21284800F0EB
S315080025107CFD9DF804202146002000F09DFD9DF8D5
S315080025200410884203D0A221214800F06EFD002045
S3150800253000F09DFD13BD70B505460E460020FFF759
S31508002540EBFA00214FF0FF30FDF7EAFE194C6078F0
S3150800255000280FD1201D00F02FF8012808D1207976
S31508002560002805D0402803DA01206070002020707A
S31508002570002070BD601D2178084400F01DF8012870
S31508002580F6D12278521C227010462179C0B28842B0
S31508002590EED1D2B2611D284600F0D4FE002060704C
S315080025A020783070012070BDB4380020040800502F
S315080025B090780008BC46002038B505460024204619
S315080025C000F039FD002807D001222946204600F0F0
S315080025D039FD012800D10124204632BD012000F032
S315080025E0D8BE002000F0D5BE00F0D4BE00F0D3BEA1
S315080025F001007047FFB40021474A107800282DD102
S315080026004648036801934368029380680390012053
S315080026101070084600E0401C0C281BD201AB1C5C5D
S3150800262023461B098DF800306B4604F00F045C70D6
S31508002630002401E0373506E0022CECD21D5D2E465B
S315080026400A2EF7D23035161D0F46FFB2F555491C2E
S31508002650641CF1E70020121DC9B25054FFBC704734
S3150800266032A0704736A070472D4870477CB504469F
S315080026701546012901D0012076BD2878C0F34110FE
S31508002680022816D16878012813D1A88807280ED100
S31508002690244E022206F10801684600F011FCBDF836
S315080026A00030324629462046FFF736FE76BD002022
S315080026B076BD002076BD38B50546FFF79BFF280096
S315080026C007D119480222016C801C00F0F9FB012190
S315080026D01AE0042801D3002032BD134C04F140004F
S315080026E050F82550284600F057FE0146C9B21F2962
S315080026F000DD1F210020A31C04E02A5C23F810201B
S31508002700401CC0B28842F8DB07484900891C41F4DE
S315080027104071018032BD0000EC000020107AFF1FD6
S315080027202C7900085C7700080C01002012010102D0
S3150800273000000040501DAC600001010203010000CA
S3150800274009022000010100804B0904000002FF0075
S31508002750000007050102400000070581024000004D
S3150800276001460878C0070ED40878C0F38000002810
S3150800277009D10878C00708D40878800800F0010055
S3150800278080F0010002E0002070470020020003D01C
S315080027900A7842F004020A70704701460878C0F3C6
S315080027A08000002805D0087800F0010080F00100BC
S315080027B000E00020020003D00A7802F0FB020A704B
S315080027C07047000010B48388C3F30A03C47804F082
S315080027D00304012C04D046D3032C36D010D342E090
S315080027E0022902D14FF4806001E040F2FF3098429E
S315080027F019DADFF864030068C00734D500BE32E092
S31508002800022909D1B3F5007F0DD0DFF84C03006823
S31508002810C00728D500BE26E0002A07D0B3F5007FFA
S3150800282004D140218180012010BC7047082BFAD0C2
S31508002830102BF8D0202BF6D0402BF4D0DFF8180355
S315080028400068C0070FD500BE0DE0022902D14FF47B
S31508002850806000E040209842E5DADFF8FC02006874
S31508002860C00700D500BE0020DEE730B40A440BE0FE
S315080028704C78052C06D18C7804F00F0500EB45053D
S31508002880E4092B550C7821449142F1D330BC7047AA
S31508002890F8B505460698079A089E099C2F7807F00A
S315080028A0FE07394329700093012392B2014605F1C8
S315080028B00800FFF710FA6E606C800120F2BD012057
S315080028C07047000070B504460D462878810702D582
S315080028D04FF4007100E040212B8A6E8AB34220D162
S315080028E0002A1ED0491E0A421BD1C00704D46978A3
S315080028F02046FEF7A9FA00E00020002811D0287823
S31508002900C00706D400231A4669782046FEF7B4FAAB
S3150800291000E00020002806D18F480068C00700D5CF
S3150800292000BE002070BD012070BD000070B50446D1
S315080029300D4605F10800FFF71CFC002801D1002010
S3150800294070BD2878C00704D469782046FEF77CFA5B
S3150800295000E00020002801D1002070BD6A8869685F
S3150800296005F10800FFF754FC0600287818D0C007C0
S315080029700AD4300001D06A6800E00022334669783C
S315080029802046FEF779FA00E00020002806D17248B2
S315080029900068C00700D500BE002070BD304670BD77
S315080029A0C00703D469782046FEF75AFA002070BD9E
S315080029B0F8B505460E4617461C002FD0B0890028E4
S315080029C030D13078C00704D471782846FEF73CFA2F
S315080029D000E00020002821D07088844200D90446EF
S315080029E022463946706800F06BFA23463078C007ED
S315080029F00CD4184680B2002801D0726800E0002284
S31508002A009BB271782846FEF737FA00E000200028C6
S31508002A1006D151480068C00700D500BE0020F2BDA7
S31508002A202046F2BD224692B2394606F10800FFF763
S31508002A3016FC04463078800702D54FF4007700E08C
S31508002A40402706F10800FFF794FB3946884202D270
S31508002A50B089B84203D231462846FFF767FF2046B9
S31508002A60F2BD0000F8B505460C462178A089002875
S31508002A7025D1C80704D461782846FEF7E5F900E0B1
S31508002A800020002801D10020F2BD63882078C00705
S31508002A9009D4180001D0626800E00022617828464F
S31508002AA0FEF7EAF900E00020002806D12A48006867
S31508002AB0C00700D500BE0020F2BD6088F2BD8807B9
S31508002AC002D54FF4007700E0402704F10800FFF72D
S31508002AD078FB3946884201D20020F2BD2078C0072B
S31508002AE004D461782846FEF7AFF900E000200028F4
S31508002AF001D10020F2BD04F10800FFF762FB06468B
S31508002B0021783A4690421ED36288781E86439642BA
S31508002B1000D91646C8070AD4300001D0626800E01A
S31508002B200022334661782846FEF7A6F900E0002021
S31508002B30002806D108480068C00700D500BE002056
S31508002B40F2BD3046F2BDC80703D461782846FEF7C1
S31508002B5087F90020F2BD0000F0ED00E070B50446EC
S31508002B600D4611461A4692B205F10800FFF750FBCA
S31508002B70064629462046FFF775FF304670BD0020F9
S31508002B8070470020704770470029816B0BD141F4CC
S31508002B90803181639049884208D19048016821F0C4
S31508002BA080410160704721F48031816370470029B4
S31508002BB035D18B4909688B4A914201D3062128E011
S31508002BC0894A914201D3072123E0884A914201D3D9
S31508002BD008211EE0864A914201D3092119E0854A57
S31508002BE0914201D30A2114E0834A914201D30B2171
S31508002BF00FE0824A914201D30C210AE0804A9142B1
S31508002C0001D30D2105E07F4A914201D30E2100E050
S31508002C100F21C26822F4705242EA8122C2607047CC
S31508002C2001690029FCD5016C026942F001020261C2
S31508002C3089B244F20A22914203D20169C907FCD437
S31508002C4008E001698900FCD501694908490041F095
S31508002C500051016101690029FCD5704738B5044661
S31508002C60E56845F04005E5600021FFF78DFF204641
S31508002C70FFF7D6FF052060F38D25E5600021204685
S31508002C80BDE8344093E7F8B50446E568A66C206DC0
S31508002C90C0F38130002801D0102700E0082725F06E
S31508002CA04005C6F38110022804D15748054045F06F
S31508002CB0100509E025F010053846102802D145F020
S31508002CC0080501E025F00805E5603046C0F38111E6
S31508002CD02046FFF759FF2046FFF7A2FF25F4705557
S31508002CE0102F01D1052000E0092045EA8025E5607E
S31508002CF0C6F381112046BDE8F44058E7006C000C85
S31508002D000004424988420CD04149884209D04149C9
S31508002D10884206D040480068C00700D500BE00209B
S31508002D20704701207047012901D100207047806C47
S31508002D30C0F38110401E8041C043C00F7047000099
S31508002D4070B50C4615460146022900DB002000BF77
S31508002D5053A100010E583046FFF7D0FF002806D1D0
S31508002D602D480068C00700D500BE002070BDB068B9
S31508002D7040084000B060002C304602D0FFF783FFC1
S31508002D8001E0FFF76BFFF06840F00700F060D6F847
S31508002D90000E00090001C6F8000E4FF48460306189
S31508002DA030698006FCD4102030613069C006FCD436
S31508002DB04FF0FF30706170600020B061002D04D0C4
S31508002DC0B06840F02600B06003E0B06940F010003B
S31508002DD0B061012070BD0000000004405038024078
S31508002DE0E80000200048E801E09DA30100366E01D6
S31508002DF040A44C01002D3101A0491A018073060137
S31508002E000024F400C0E1E40077FFC5FF0000544F3A
S31508002E100000315500003255F0ED00E010B41346BD
S31508002E209B0804E000F58054246841F8044B1C46CE
S31508002E30631EA4B2002CF5D112F003020CD000F5E3
S31508002E40805000680870012A02DD03461B0A4B7091
S31508002E50022A01DD000C887010BC704710B400EB24
S31508002E60013000F580501946890802E052F8044BF3
S31508002E7004600C46611EA4B2002CF7D113F00303BC
S31508002E800BD01178012B02DD547841EA0421022B7C
S31508002E9002DD927841EA0241016010BC70470000E9
S31508002EA00000005043000000040000000005000078
S31508002EB0000004404D00000006000000001000005D
S31508002EC062B38B0708D0521E11F8013B00F8013B8C
S31508002ED000F024808B07F6D1830740F0208000BFDE
S31508002EE0103A07D330B4B1E83810103AA0E83810D1
S31508002EF0F9D230BC530724BFB1E80810A0E808107F
S31508002F0044BF51F8043B40F8043BD20724BF31F8CC
S31508002F10022B20F8022B44BF0B7803707047121F50
S31508002F2017D35B0009D151F8043B20F8023B1B0C70
S31508002F30121F20F8023BF6D20BE051F8043B00F8CA
S31508002F40013B1B0A20F8023B1B0C121F00F8013B31
S31508002F50F3D238BF121D521E24BF11F8013B00F8E8
S31508002F60013BF8D870477047704730B501688468E8
S31508002F704218416802EB5103C90703D54C4401E0E6
S31508002F80491C08D19A4218BF12F9011B01D10C300D
S31508002F9030BD12F8015B002904F8015BF0D4491E24
S31508002FA0F7D5EFE780B501201649087000F021F83B
S31508002FB0BDE8014010B500F07DFA012812D0114C89
S31508002FC0207801280ED100F001FBA26861688A18F2
S31508002FD002F5FA72904205D300202070BDE8104031
S31508002FE000F084B910BD07498860704705488068B5
S31508002FF0704710B5034C2078012802D100F0E6FA94
S31508003000606010BDFC470020704780B500F0FDFAEF
S31508003010FCE70904002801D000207047AC4991F864
S315080030205900002805D14879401E8041C043C00F89
S31508003030704701207047002801D000207047A54836
S31508003040FFF797B81346002801D0002070470A46B4
S31508003050A1490020FFF782BD1346002801D00020B1
S3150800306070479BB20A469D490020FFF7A1BC00287D
S3150800307001D00020704799490020FFF757BC1FB5BB
S31508003080934C0022AC212046FEF708FE002021E0E2
S315080030904020039004F1AC0002904020019004F116
S315080030A06C00009000231A46114604F15800FFF7F9
S315080030B0EFFB4020039004F1EC00029040200190C1
S315080030C004F118000090002301221946201DFFF77D
S315080030D0DFFB01200028DBD01FBD10B500207C4C8B
S315080030E007E004F15800FFF7EAFB201DFFF7E7FBAE
S315080030F001200028F5D0012010BD10B50020744C21
S3150800310012E0002201212046FEF7C8FD04F1600006
S31508003110FFF7A9F8002084F8590004F10C00FFF71E
S31508003120A2F80020607101200028EAD010BD000036
S315080031302DE9F04105460E4617467079FF2876D1E7
S31508003140307806EB00080024204600E0012000281D
S3150800315005D12046FFF75EFF0028F7D15C4C002C0E
S3150800316065D0B078207034E098F800104144884261
S315080031708041C043C00F00285BD098F8010004289E
S3150800318057D00B2855D0052820D141462846FDF7AB
S3150800319037FE002823D098F802201046C00926D00A
S315080031A06079002812D16271B8F80400C0F30A00E9
S315080031B0B0F5007F19D10120217901F0FD0141EA1E
S315080031C040012171211D2846FFF7B0FB98F8000041
S315080031D08044384630448045C6D30020CBE7404873
S315080031E00068C00723D500BE21E00020E4E704F10B
S315080031F0580148780028E9D14A70B8F80400C0F3A5
S315080032000A00B0F5007F01D1012000E000200A780D
S3150800321002F0FD0242EA40020A702846FFF722FC45
S315080032200028D3D12E480068C00700D500BE00206C
S3150800323003E0A8EB0606304680B2BDE8F081F8B593
S3150800324004461D4600200B4600E00120020008D176
S315080032501F4A164692F85970BB4202D052799342D9
S31508003260F3D1002801D00020F2BD084696F859206F
S31508003270904217D106F15C010889002806D02A4633
S3150800328092B2096806F16000FEF7E9FF2A4692B293
S315080032901449002000F0BBF906F158012046FFF753
S315080032A0E1FB12E0707981420FD1294689B20020EC
S315080032B000F0AEF9311D2046FFF738FB002804D18F
S315080032C02A46311D2046FFF7FDFA0120F2BD00000F
S315080032D098410020F8410020F04100209C41002040
S315080032E0F0ED00E04442002000F093B910B500F07C
S315080032F09AF9002803D1BDE8104000F0E4B800F0C0
S3150800330033F8002803D1BDE8104000F0DCB800F01F
S3150800331096F800F0AFF900F02DF900F086F90749A4
S3150800332008400749086000F080F9001D046800F0AD
S3150800333072F9A047BDE8104000F0C5B880FFFF1F2E
S3150800334008ED00E070B504460D46164605E015F88A
S31508003350010B04F8010B00F058F93046461E80B2FE
S315080033600028F4D170BD000080B54FF4005105481F
S3150800337000F0E9FA012801D1002002BD00F02BFB7C
S31508003380012002BD00080240642000F003BB00F0E3
S3150800339004BB70477047704700F10103810704D0EA
S315080033A010F8011B820781B1FAD10268A2F1013136
S315080033B0914311F0803104BF50F8042FF6E709BA9B
S315080033C0B1FA81F100EBD100401CC01A7047000029
S315080033D010B500F009FB00F02EFD404C00202070CF
S315080033E0FFF750F80320207010BD1CB53B4C69460A
S315080033F0201D00F058FD012806D1002020709DF8F8
S315080034000010201D00F00EFB6946201DFFF793F8FB
S31508003410012806D1032020709DF80010201D00F019
S3150800342001FB6946201D00F00EFE012806D1042086
S3150800343020709DF80010201D00F0F4FA13BDFFF768
S3150800344049B870B504460D46244E3078002803D195
S31508003450C9B2204600F00AFD3078032804D129466F
S31508003460C9B22046FFF741F83078042804D1294626
S31508003470C9B2204600F0C7FDBDE8704000F0CCBADE
S3150800348016480078022802D0032802D003E0082054
S3150800349070473F20704781207047104800780228FF
S315080034A002D0032802D003E0082070473F20704767
S315080034B08120704710B5002400F0A5FA002800D036
S315080034C00124204610BD80B500F095FD042003496F
S315080034D00870BDE80140FFF78CBD000040000020E1
S315080034E081B03D490A6802430A60096808400090AD
S315080034F0009801B0704738490A6822EA0000086057
S31508003500704736490A6810430860704733490A68A5
S3150800351022EA0000086070473148006800F46040FD
S31508003520704710B50120FFF7DBFFFFF7F5FF2D49C0
S315080035300C682D49400B085CC440FFF7EDFF0028D6
S3150800354001D1012000E00220284901220A604FF635
S31508003550FF72CA6244432648B4FBF0F0401E8862F4
S31508003560486940F001004861224800224260496AE1
S31508003570018010BD80B50120FFF7C3FF0120FFF7CA
S31508003580C5FF0120FFF7B7FF1B4800210160416016
S3150800359081604FF000701949086001BD184800683D
S315080035A014490A88801A80B2642800D2704710B479
S315080035B06423B0FBF3F34C68184680B204194C60D8
S315080035C0642000FB03220A8010BC704780B5FFF711
S315080035D0E5FF0848406802BD4438024024380240E6
S315080035E008380240E80000204C7A00080000014034
S315080035F0A08601001048002010E000E004ED00E07D
S3150800360024000140E2E7FFF7BFBEFFF7C0BE7047E0
S31508003610704772B6704762B6704700F0F9BD00F0A1
S3150800362000BE00F028BE00F061BE00F08CBE80B57A
S3150800363000F03EFE002801D1002002BDBDE8014091
S3150800364000F06ABE80B51548016841F40071016052
S31508003650016841F480610160016841F4807101608C
S31508003660032000F0E7FF002000F0FEFF01F07AF8E3
S31508003670002002BD80B50A484FF0FF3101610022E3
S31508003680026141614261016002604160426081609D
S315080036901146816001F00BF9002002BD003C024092
S315080036A010380240F8B502460B46002428E00921E6
S315080036B003E0AC498A42FAD10821B140294347F8C8
S315080036C02C10A94DA968C64331405F68FF0200D592
S315080036D00143A960E96831405F68BF0200D501432C
S315080036E0E960696831405F68BF0300D501436960D6
S315080036F0296831405E68F60300D501432960641CD9
S3150800370018680146E14000F097800121A140084071
S31508003710F5D065000326AE40F6435F6807F0030C54
S31508003720BCF1010F03D007F00307022F10D19768E9
S315080037303740D3F80CC00CFA05FC4CEA070797602B
S3150800374057688F435968C1F30011A1400F4357606A
S31508003750197901F00301032905D0D16831409F6822
S31508003760AF403943D160197901F00301022915D117
S315080037702146C90802EB8107396A4FEA840C0CF026
S315080037801C0C4FF00F0E0EFA0CFE21EA0E01D3F8B0
S3150800379010E00EFA0CFC4CEA01013962116831405E
S315080037A01E7906F0030606FA05F5294311605968DD
S315080037B011F4403FA3D0002100916C490D6845F4EF
S315080037C080450D60096801F4804100910099A4467E
S315080037D04FEA9C0C664F57F82C50A60006F00C06CC
S315080037E00F21B1408D4363498A4201D1002164E724
S315080037F061498A4201D101215FE760498A4201D1C4
S3150800380002215AE75E498A4201D1032155E75D49FB
S315080038108A4201D1042150E75B498A4201D1052138
S315080038204BE75A498A4201D1062146E758498A4256
S315080038307FF43FAF072140E7F1BD2DE9F0470A467F
S31508003840002301464FF00F093BE0092403E0454CED
S31508003850A142FAD10824B440A74213D1C043424C2E
S31508003860266806402660666806406660E668064082
S31508003870E660A6683040A0605EF82C0020EA0808DA
S315080038804EF82C80032658008640F64308683040D8
S3150800389008601846C00801EB8000046A05F01C059C
S315080038A009FA05F524EA05050562C8683040C860C6
S315080038B0486820EA0A0AC1F804A0886806408E60AB
S315080038C05B1C1046D8403CD04FF0010A0AFA03FAAE
S315080038D01AEA0200F4D09C464FEA9C0CDFF890E006
S315080038E05EF82C709D0005F00C0609FA06F808EA41
S315080038F00707204CA14201D10024ACE71E4CA14287
S3150800390001D10124A7E71D4CA14201D10224A2E757
S315080039101B4CA14201D103249DE71A4CA14201D1B7
S31508003920042498E7184CA14201D1052493E7174CC3
S31508003930A14201D106248EE7154CA14287D107245E
S3150800394089E7BDE8F087006901400846401E8041C6
S31508003950C043C00F7047002A01D08161704709042F
S315080039608161704700200240003C01404438024013
S3150800397008380140000002400004024000080240E6
S31508003980000C0240001002400014024000180240D9
S31508003990001C024012494880704710B5FFF716FE12
S315080039A00F4C6168884215D30E482178002906D144
S315080039B0012121700A468021FFF7CDFF05E000218D
S315080039C021700A468021FFF7C6FFFFF7FFFD6188D1
S315080039D00818606010BD002280210248FFF7BBBFAF
S315080039E00848002000040240DFF8040400F18101C1
S315080039F000220A70C0F88820CA70A0F886201046EF
S31508003A00887048707047DFF8E80390F88100401E18
S31508003A108041C043C00F70470020DFF8D41381F8F7
S31508003A208400704738B5DFF8C84304F1810501788A
S31508003A30FF2913D100F09FF8E878012802D1102059
S31508003A4000F07BF8B4F986100846012805DB01204A
S31508003A50E8702046BDE8344054E031BD2978012994
S31508003A60FBD10178C92934D0CC2941D0CF293CD003
S31508003A70D02931D0D12935D0D22930D0F1293AD020
S31508003A80F32917D0F4290FD0F5290AD0F6290ED034
S31508003A90FA2912D0FC2913D0FD2914D0FE2915D0F5
S31508003AA02CE000F0C6F8C7E700F0E3F8C4E700F03A
S31508003AB0B3F8C1E700F001F9BEE700F09BF8BBE7F1
S31508003AC000F096F8B8E700F084F8B5E700F074F867
S31508003AD0B2E700F01DF9AFE700F03AF9ACE700F0FD
S31508003AE006F9A9E700F063F9A6E700F076F9A3E777
S31508003AF000F080F9A0E700F07FF99DE7202000F0AC
S31508003B001CF899E789B2FFF79CBCF8B504460D4640
S31508003B101646002704E02078C719641CFFF775FDD0
S31508003B202846451E0028F6D1FFB237600120F2BDAF
S31508003B300020AF4981F882007047AD49FE220A701D
S31508003B4048700220A1F886007047014608784A782E
S31508003B5040EA02208A7840EA0240C97840EA0160D1
S31508003B60704708700246120A4A700246120C8A709A
S31508003B70000EC870704710B5FFF7DAFF9C4C01209D
S31508003B8084F88100FF202070102060700020A0704B
S31508003B90FFF776FCE070FFF780FC2071FFF77DFCED
S31508003BA0000A60710120A071E0710820A4F886005F
S31508003BB0BDE81040FFF731BD10B58D4C002084F8E4
S31508003BC08100FFF7B5FFFF2020700120A4F88600CA
S31508003BD010BD8748FF2101700021417000F1820164
S31508003BE00A7882700022C270828006208880704718
S31508003BF00020A2E710B57E4CFF2020707FA0C4F8F5
S31508003C008800002060706080211D0720FFF7A9FF4B
S31508003C100820A4F8860010BD10B5754CFF21217048
S31508003C20001DFFF792FFC4F888000120A4F886005B
S31508003C3010BD38B50446FFF723FC6278401E1146CE
S31508003C40884203DA2220BDE8324076E7684DD5F887
S31508003C508810681CFFF776FBFF202870D5F88810B7
S31508003C6060784118C5F888106078401CA5F8860069
S31508003C7031BD38B50446FFF703FC401E617888421B
S31508003C8003DA2220BDE8324057E7594D201DFFF7D9
S31508003C905CFFC5F8880062780146681CFFF752FB8E
S31508003CA0FF202870D5F8881060784118C5F8881064
S31508003CB06078401CA5F8860031BD1CB5002100912E
S31508003CC04B4CFF212170001DFFF73FFF01466A4656
S31508003CD0D4F88800FFF719FF6070211D0098FFF7D8
S31508003CE040FF002060800820A4F8860013BD10B5A8
S31508003CF03F4CFF20207000206070A070FFF7C0FBCB
S31508003D00E0700020A080A0710720A4F8860010BDEE
S31508003D1038B50546FFF7B4FB0146354C6A1C491E03
S31508003D20D4F88800FFF77BFC002803D13120BDE8D2
S31508003D30324002E7FF202070FFF7A2FBD4F8881074
S31508003D40401E4018C4F888000120A4F8860031BD3A
S31508003D5038B50446FFF794FB801E6178884203DA7B
S31508003D602220BDE83240E8E6214DFF2028700120D8
S31508003D70A5F886006178002907D1FFF758FC0028C6
S31508003D8014D13120BDE83240D7E6A21CD5F8880008
S31508003D90FFF745FC002803D13120BDE83240CCE6C8
S31508003DA0D5F8881060784118C5F8881031BD10B567
S31508003DB0001DFFF7CAFE0E4C0146D4F88800FFF72F
S31508003DC030FC002803D13120BDE81040B5E6FF20BD
S31508003DD020700120A4F8860010BD80B5FFF786FA8A
S31508003DE00348FF2101700121A0F8861001BD0000DB
S31508003DF07C4500203120A0E620209EE64F70656EA7
S31508003E00424C5400C16841F40051C1607047C16812
S31508003E1021F40051C16070470068400900F00100B4
S31508003E2070470068C00900F0010070474068C0B2DA
S31508003E3070474160704718B587B04F4C2046FFF76A
S31508003E40E6FF4FF461400090002001900290039035
S31508003E500C2004900020059006906946204600F044
S31508003E60CCFD2046FFF7CEFF08B010BD70B504465E
S31508003E700D462846822803DB7E214048FFF7C5F811
S31508003E80284600F062F8002607E0FFF7BEFB30463A
S31508003E9080B2205C00F059F8761C3046294680B27C
S31508003EA08842F2D370BDF8B505460E46344C6078A4
S31508003EB0002812D1201D00F036F8012831D12079CA
S31508003EC000282ED082282CDAFFF780FBC4F8880059
S31508003ED0002020700120607023E02778601D394695
S31508003EE0084400F020F8012812D17F1C27703846B4
S31508003EF02179C0B2884214D1FFB23A46611D2846DC
S31508003F00FFF720FA00206070207830700120F2BD9B
S31508003F10FFF75CFBD4F88810C831814201D2002033
S31508003F2060700020F2BD70B50546134E3046FFF7A7
S31508003F3073FF040003D03046FFF778FF2870204649
S31508003F40401E8041C043C00F70BD38B501460A4CBB
S31508003F502046FFF76EFFFFF739FB05460A35204670
S31508003F60FFF75FFF002805D1FFF74FFBFFF72EFB92
S31508003F708542F4D231BD0000004800405078000860
S31508003F80F044002038B5964C6078002832D100F00D
S31508003F9024FEFFF71BFB00F5FA70606042F210750D
S31508003FA0FFF714FB2818A06000F058FF8D48002181
S31508003FB0018041808C48018041808C480180418085
S31508003FC04EF6030000F0B9FF00F043FE04F10C00C2
S31508003FD000F04EFE062104F10C0001F0A0FE01F0EF
S31508003FE0B9FEFFF703F8A84202D22846FEF7FBFF00
S31508003FF00120207031BD7A480021417000780028E0
S3150800400000D1BFE77047764A1278012A00D0704778
S3150800401030B4774A12681C3213685360002304E0F0
S31508004020C45CD5182C725B1C9BB20C46A342F7DB0A
S3150800403002F18A00091D0180012181701068401C67
S31508004040106030BC704780B565480078012801D1FA
S3150800405000F049F8002002BD70B56548006800F117
S315080040601C0404F18A05634E3078410606D5012002
S31508004070206000202880A870E87070BDC00701D5B0
S315080040800020E8703078400706D5E878012803D183
S315080040902988201D01F020FC307800070DD5A87866
S315080040A001280AD10020A8702888002805D00120F8
S315080040B0E8702988201D01F00FFC3078800711D59B
S315080040C04D4801880846001F82280BDAE878002840
S315080040D008D1091FC9B249480068001DBDE87040EB
S315080040E0FFF7A0BC70BD38B500F0D0FD424C0028E3
S315080040F025D020804FF4006001F0E8FB404DA989E7
S3150800410081420CD1012000F03FFF2088002816D0FC
S3150800411001F040FF00F0E0FD002020800FE040F6AF
S31508004120060001F0D3FBA989814208D101F0D4FE2B
S315080041302088002803D000F0CFFD00202080FFF75C
S3150800414045FA274D696888422AD301F5FA716960EC
S3150800415000200FE02B4826490860022000F014FFD3
S315080041602088002805D001F015FF00F0B5FD0020D5
S31508004170208001200028EDD000200FE022482349A6
S315080041800860052000F000FF2088002805D001F00F
S3150800419001FF00F0A1FD0020208001200028EDD0BD
S315080041A0FFF714FAA968884205D301F51C511031A6
S315080041B0A96001F005FE00200FE012480C490860CE
S315080041C0032000F0E1FE2088002805D001F0E2FE79
S315080041D000F082FD0020208001200028EDD031BDAE
S315080041E0C8000020804700202C48002028480020CE
S315080041F0984700207C4700208447002090470020ED
S315080042007032002044440020004700209C470020CC
S315080042104FF0FF30DFF868130860DFF868130860AE
S31508004220704770B504460D461646DFF85C03001B5A
S31508004230691E88420AD3204600F087F9FF2805D070
S315080042402819401E00F081F9FF2801D1002070BD11
S31508004250600A4002DFF8341388422B46324621466C
S3150800426004D1DFF82003BDE870409DE0DFF81003B5
S31508004270BDE8704098E070B504460D46C248001B7C
S31508004280691E88420ED3204600F05FF906462C19AF
S31508004290641E204600F059F93146FF2902D001462E
S315080042A0FF2901D1002070BD3046BDE8704010E1FD
S315080042B080B5B44A106810F1010F01D1012002BD82
S315080042C0516890684118D0684118106941185069BA
S315080042D0411890694118D0694118C943491C009191
S315080042E06A460421AA48FFF79CFF02BDA74A11683F
S315080042F05068411890684118D068411810694118EB
S315080043005069411890694118A14800684118084643
S31508004310401E8041C00F704780B59A48016811F168
S31508004320010F03D000F07DF8002808D094480168F2
S3150800433011F1010F05D000F074F8002801D1002012
S3150800434002BD012002BD9148704780B5CA0501D05B
S31508004350002002BD02688A4201D1012002BD016027
S315080043604FF40072001DFEF7EDFF012002BD38B5BF
S3150800437004460D468348844208D1814C2946204686
S31508004380FFF7E3FF00280DD1002032BD7F498D429B
S3150800439001D10446F2E7204600F043F80028EDD1A3
S315080043A0002032BD204632BD2DE9F04104460E46B6
S315080043B017461D464FEA56284FEA4828206810F146
S315080043C0010F05D141462046FFF7BFFF002823D03D
S315080043D02068404505D041462046FFF7C8FF04003F
S315080043E01AD02068361AA019061DFFF70EF9201DE7
S315080043F0301AB0F5007F08D3216801F50071204610
S31508004400FFF7B5FF040007D0261D17F8010B06F8BD
S31508004410010B6D1EE9D101E0002000E00120BDE896
S31508004420F0812DE9F0410546012601F098FE0027A6
S3150800443000E07F1C802F15D2D5F8008008EB87088E
S3150800444005EB87004468FFF7E0F82246002341465B
S31508004450022001F049FE002803D1D8F80000A04246
S31508004460E7D0002601F089FE3046BDE8F081F8B5B0
S3150800447000242346474A064601E05B1CDBB20A2BAA
S3150800448025D203EB430102EB81010D7AB542F4D143
S315080044900D684E6815F0030F02D116F0030F05D00C
S315080044A040F2A92102F17800FEF7AFFD01240027AA
S315080044B001E02D1D7F1CB7EB960F08D2380601D1F7
S315080044C0FFF7A3F8286810F1010FF2D00024204660
S315080044D0F2BD70B586B004460D4601260020009050
S315080044E028462146884200D200262046012802D9BD
S315080044F028460C2800D300263046012822D1002061
S315080045000190022005900120049001F028FE00E0A9
S31508004510641C28462146C9B2884211D32046C0B237
S31508004520FFF7A5FF0028F3D1FFF76FF82046C0B2C2
S315080045300390694601A801F0CDFE0028E8D00026C0
S3150800454001F01BFE304606B070BD70B50446FF2567
S31508004550002601E0761CF6B20A2E0ED2FFF755F8B1
S315080045600C4806EB460100EB810002689442F1D341
S3150800457041688A189442EDD2057A284670BD000033
S31508004580903D0020943F0020FFFF0F0800800008A0
S3150800459084810008A47600082F490A6860F30A2275
S315080045A040F2FA5060F31F420A6070472A480068D2
S315080045B0C0F3022070470901020002D4274881543B
S315080045C07047274802F00F02104400F8041C704791
S315080045D010B400F00700C0F10703052B00D304232D
S315080045E0041D072C01D2002000E0C01E012404FA95
S315080045F003F35B1E1940814004FA00F0401E104088
S31508004600084310BC704738B50446641EB4F1807F71
S315080046100AD2144D6C600F214FF0FF30FFF7CBFF25
S315080046200020A86007202860B4F1807F8041C0433D
S31508004630C00F32BDB0E770B504460D461646FFF703
S31508004640B5FF32462946FFF7C3FF01462046BDE8B7
S315080046507040B0E7D7E700000CED00E000E400E0AA
S3150800466018ED00E010E000E038B504460E4D4FF4B2
S315080046707A702978B0FBF1F00C490968B1FBF0F0C3
S31508004680FFF7E8FF002801D0012032BD102C08D220
S31508004690002221464FF0FF30FFF7CDFFAC60002027
S315080046A032BD012032BD00BFDC000020E80000203A
S315080046B080B500208DF8000000F011F801F0BCFE6E
S315080046C001F01EFF6946002001F0CAFE9DF80000B1
S315080046D0012801D1FEF7F7FE01F021FFFCE780B5BE
S315080046E0FEF7B0FFBDE8014000B591B030210022C9
S315080046F005A801F01FFF14210022684601F01AFFE1
S31508004700012005900520069002200B904FF48000AA
S315080047100C9004200D90C0200E9004200F900820C5
S31508004720109005A801F0AFFF002803D09021874814
S31508004730FEF76BFC0F2000900220019000200290EB
S315080047404FF4A05003904FF480500490032168461C
S3150800475002F010F9002803D09F217C48FEF755FC8B
S3150800476011B000BD38B586B000200590784C206998
S3150800477040F080502061206900F08050059005982F
S3150800478000200590606940F480406061606900F42B
S3150800479080400590059800200590206840F00100AB
S315080047A02060206800F0010005900598002005901B
S315080047B0206840F002002060206800F002000590A2
S315080047C0059800200590206840F0040020602068C5
S315080047D000F004000590059800200590206840F038
S315080047E008002060206800F0080005900598002061
S315080047F00590206840F040002060206800F04000E6
S315080048000590059800200590206940F480202061D5
S31508004810206900F4802005900598802000900120EA
S3150800482001900020029003904A4D69462846FEF7FB
S3150800483039FF002280212846FFF78DF84FF40050F3
S31508004840009000200190029069464348FEF72AFF2F
S315080048504FF440700090022001900020029003203F
S3150800486003900720049069463C48FEF71BFF4FF467
S31508004870C05000900220019000200290032003906F
S315080048800A20049069463648FEF70CFF606840F037
S315080048908000606000200590606940F48040606197
S315080048A0606900F480400590059807B030BD38B5BA
S315080048B001F074FE274C002280212046FFF74BF8B2
S315080048C080212046FEF7B9FF4FF400512248FEF733
S315080048D0B4FF234C4FF400612046FEF7AEFF4FF4B9
S315080048E080512046FEF7A9FF194C606820F0800029
S315080048F060601A4D4FF480712846FEF79EFF4FF40C
S3150800490000712846FEF799FF206920F4802020616F
S31508004910206820F040002060206820F00800206011
S31508004920206820F004002060206820F00200206043
S315080049302068400840002060206920F080502061EF
S31508004940606920F48040606131BD0000FC77000892
S31508004950303802400004024000080240000C0240C1
S315080049600000024070470000C068400B00F00100DC
S315080049707047026922F44052114301617047426947
S3150800498022F4407211434161704710B419246143FF
S315080049906FF06304B2F5004F17D15B00B1FBF3F17A
S315080049A06422B1FBF2F204FB0214E40032346421FF
S315080049B0B4FBF1F14B0003F4F87303EB021301F0B7
S315080049C00701C91889B2816015E09B00B1FBF3F1B4
S315080049D06422B1FBF2F204FB02142401323464218E
S315080049E0B4FBF1F101F0F00303EB021301F00F0140
S315080049F0C91889B2816010BC7047F8B584B00546FD
S31508004A000E4601270024FFF7AFFF00283CD1E968CE
S31508004A102548014070680143F06801433069014345
S31508004A20B0690143E960B1682846FFF7A2FF7169DA
S31508004A302846FFF7A4FF684602F098F8144885420E
S31508004A400CD01448854201D1029C12E012488542D6
S31508004A5001D1029C0DE01148854201D1039C08E072
S31508004A600F48854201D1029C03E00E48854200D1D9
S31508004A70029C002C08D03368002B05D00027B269A9
S31508004A8021462846FFF781FF384605B0F0BD0000ED
S31508004A900010014000440040004800400014014056
S31508004AA0004C004000500040F369FFFF10B586B087
S31508004AB00446002214216846FDF7F0F820689E494E
S31508004AC0884240F08880002005909C48016841F0A3
S31508004AD000710160016801F00071059105990021D6
S31508004AE00591016841F080610160016801F080610B
S31508004AF00591059900210591016841F00061016061
S31508004B00016801F000610591059900210591016888
S31508004B1041F004010160016801F00401059105995D
S31508004B2000210591016841F001010160016801F069
S31508004B3001010591059900210591016841F00201DD
S31508004B400160016801F002010591059900210591AE
S31508004B50016841F040010160006800F040000590DE
S31508004B600598322000900220019000200290032030
S31508004B7003900B20049069467148FEF793FD862042
S31508004B8000900220019000200290032003900B2041
S31508004B90049069466B48FEF785FD4FF40050009077
S31508004BA00220019000200290032003900B2004901D
S31508004BB069466548FEF776FD4FF4205000900220BE
S31508004BC0019000200290032003900B200490694670
S31508004BD05E48FEF767FD06B010BD10B55C4C0820B0
S31508004BE02070002060702720A0706920E0705B208C
S31508004BF02071452060715048A0600120E0604FF4A4
S31508004C00804020614FF40060606100202083E461E9
S31508004C10206260624FF40000A06204F1080002F00E
S31508004C2009F8042304F5C95204F1D00104F1080077
S31508004C3002F0E9F8042304F5A87204F1500104F11E
S31508004C40080002F019F904F10800BDE8104002F066
S31508004C5085BA40483E490A7802704A7842708A788E
S31508004C608270CA78C2700A790271497941717047AF
S31508004C7037490A7802704A7842708A788270CA7808
S31508004C80C2700A79027149794171704738B50024B2
S31508004C902F4D05F1080002F0A6F900281AD1B5F83B
S31508004CA044402246A96C2C48FEF70AF9A86B01680D
S31508004CB041F00041016000202864A86841F214010F
S31508004CC04258120606D5802242500020A96841F2B1
S31508004CD008028850204632BDF8B500241C4D6E6B7C
S31508004CE0FEF774FC0746FA373068002806D5FEF743
S31508004CF08CFCFEF76BFC8742F6D20124002C0CD103
S31508004D001648048822461449686B8068FEF7D8F866
S31508004D10214605F1080002F0E9F8A86841F21401F5
S31508004D204258920606D5202242500020A96841F230
S31508004D3004028850F1BD000000800240303802406D
S31508004D400008024000000240000402400018024029
S31508004D508001002018480020703200208447002077
S31508004D60F0B4C2788A18874BDA710E46847814EB49
S31508004D7016249C7145785D71007818712746FFB234
S31508004D80B7EB162F06DA6D1C5D71EDB2002D01D159
S31508004D90401C1871D2B201F0FF018A420DDA641C78
S31508004DA09C71E4B2002C08D15879401C5871C0B2E5
S31508004DB0002802D11879401C1871F0BC704710B44D
S31508004DC00A44521E0AE00C784B7803EB04231818A1
S31508004DD00446A4B29C4200D2401C891C9142F2D3DC
S31508004DE008D1097810EB0120024692B2B2EB012FE6
S31508004DF000D2401C80B210BC704780B51422DFF880
S31508004E00F41A0020FFF7DBFF010002D14FF6FF700E
S31508004E1002BDBDE8024000F059BD38B5DFF8D84AF2
S31508004E20217C627C02EB0122A2F11405082204F11E
S31508004E301A01401980B2FFF7C2FF2A4692B204F15E
S31508004E402201FFF7BCFF010002D14FF6FF7032BD09
S31508004E50BDE8324000F03ABD0620DEE749490020A9
S31508004E60487203E00020888201204872487A0028A8
S31508004E70F8D000204872DFF8842A03E00020507634
S31508004E8001204872487A0028F8D04FF480600883D9
S31508004E9000204872DFF8682A03E00020908001208D
S31508004EA04872487A0028F8D07047F8B504460E4686
S31508004EB0344F388B401C388380B2B0F5FA4F02DB8A
S31508004EC04FF4805038830020787209E0DFF8300A02
S31508004ED08588388B00F0FAFC8542EAD00120787282
S31508004EE0787A0028F2D0002528467872DFF8101A5A
S31508004EF001E001207872787A002803D18888002892
S31508004F00F7D10D46002D01D10020F2BD388B0146A0
S31508004F10090A41EA0021A980EE80002C05D1002269
S31508004F2004212846FCF7BAFE03E02088288060881A
S31508004F306880402028722846F2BDDFF8C82900217B
S31508004F40517201E001215172517A002903D1918AE7
S31508004F500029F7D19082704738B50146DFF8A44991
S31508004F60656A05F10800FFF7FBFE2079287260796B
S31508004F70616A4872A079616A8872E079616AC87262
S31508004F8031BD000074470020F8B5DFF878596C6A1F
S31508004F900146042900F03481DFF85C6906F1360120
S31508004FA0E9612962014603290BD1607E00F00F00F2
S31508004FB0032802D1208A002871D00020288228726E
S31508004FC0F1BD022970D1E878401CE870C0B200280B
S31508004FD00ED1A878401CA870C0B2002808D16878FD
S31508004FE0401C6870C0B2002802D12878401C28707E
S31508004FF000202861607E072801D0052808D1A07EF8
S31508005000401CA076C0B27828D7D100206076D4E7B5
S315080050100028D2D0218A00293DD0A07E411EA17643
S315080050200028CAD1E07E06F12207082806D0617E4C
S31508005030022901D001290AD1052808D10020607665
S3150800504080202872FFF708F814207873BCE301461D
S31508005050042900DD0420032101FA00F0A076E07E91
S31508005060401CE076607E00F00F00401E0728A4D89A
S31508005070DFE810F02E0209000C00050308000503FE
S315080050800800050399E70020787325E204202872B2
S31508005090FEF7E2FF59E300F00F0003288DD1082040
S315080050A02872FEF7D9FF22E3052811D1A86A80885D
S315080050B000283FF482AF0020686206F12A00E86102
S315080050C02862002028610820287200F042FE97E036
S315080050D0B07B45287FF471AF317C707C00EB0120F2
S315080050E0298A8142FFF669AF2882307D10F03F0F8A
S315080050F07FF463AF707D00287FF45FAFAC89002C26
S3150800510002D1E889002808D0F08BA0427FF455AF79
S31508005110308CE98988427FF450AF4FF6FF77FFF766
S315080051206CFEB8427FF449AFF07D06280AD1FFF736
S3150800513093FEB8427FF441AFDFF8C027144606F164
S3150800514022078CE0112806D1288A1C382882DFF825
S31508005150B027AA621FE001287FF42FAF06F12200CC
S31508005160017808297FF429AF0021017041884FF69C
S31508005170F772914202DB0931418001E00831418032
S31508005180708BF083B08B30847483E889B0839AE39C
S3150800519003F14000A862AB6A02F140008342BFF403
S315080051A00CAF98880028F3D006F122014C88844277
S315080051B0EED1D888002805D00988814202D0B0F5FA
S315080051C08A4FE5D11888002802D1598800290BD0C2
S315080051D0B84202D15988B94206D0718B8142D7D1DB
S315080051E0B08B59888842D3D1002068620220287281
S315080051F006F12A00E86128620020688200F0A9FD0D
S31508005200688A00283FF4D9AE00F11C022A82DFF82A
S31508005210E81613469BB21B0A0B744A74AB6A1A7AD1
S315080052208A751122CA75083001F122020446A4B211
S31508005230240A44EA002494800020D08098881080AC
S31508005240D8885080A8894883E88988831888C883BD
S315080052505888088401F13600E86120E3AC34A2429C
S31508005260C0F0AE80607E0028F8D07888A188884291
S31508005270F4D13888E1888842F0D1708B2188884239
S31508005280ECD1B08B61888842E8D16C620020287224
S31508005290787B410700F13381397B090989006972F6
S315080052A02A8A511A14392982627E02F00F02022ACA
S315080052B004D1024602F03F02122A19D089B2002907
S315080052C002D110F0030F13D03979227A914240F0B7
S315080052D079827979627A914240F07482B979A27AB0
S315080052E0914240F06F82F979E27A914240F06A82FF
S315080052F0C0063ED5218A00293BD004F10C00FFF7F1
S315080053002FFD2879397A814233D1797A6A7991429F
S315080053102FD1B97AAA7991422BD1F97AEA799142B1
S3150800532027D1207368796073A879A073E879E07348
S31508005330E07E002817D1A17D94F9182094F91A0067
S31508005340121A0846A2EBD00252B25118A1751000E3
S3150800535000D54042E17D4018A0EB9100E075A17DA3
S3150800536000EBD100207601202872207EA07600204E
S315080053702082607E00F00F01491E07293FF61DAE08
S31508005380DFE811F00900C4005D01060256026F024B
S315080053902002FB0111E6287AC0077FF50EAE03202E
S315080053A060764020287200202082288A002800F093
S315080053B09A81297A41F002012972FFF7CDFD92E11F
S315080053C0787B00F03F00022840F0FC8079886983EA
S315080053D00020687201E001206872687A002840F0AF
S315080053E0F180A88A8142F6D100200AE0072906D171
S315080053F0002803D0817E937E994200D2104601216F
S315080054006972697A002903D1517E0029EED11046C6
S3150800541004003FF4D2AD6C620320A076207600200B
S31508005420A0750420E0750020E0767888A08038888A
S31508005430E080708B2080B08B6080012060762878B1
S31508005440207368786073A878A073E878E073012001
S315080054502082F879E072B879A07278796072387922
S3150800546020720120FFF778FD3A7B104600F0F00025
S3150800547051282DDB0020687201E05B1C6B726B7A89
S31508005480184611460909491FB0EB810F20DA304446
S3150800549000F136073878A872002819D00128ECD010
S315080054A07978022801D1042904D0002910D0CB1814
S315080054B06B72E4E7B878F97841EA0021698308460F
S315080054C040F20B62904201DB40F20A616182A182DE
S315080054D0102006F12201487306F12200417B41F0B3
S315080054E00201417302210175042141750621817566
S315080054F00A21C1752C212982602101736AE10020E5
