S01A000064656D6F70726F675F73746D3332663732332E7372656393
S315080100000000042035090108090901080B0901083E
S315080100100D0901080F09010811090108000000006E
S31508010020000000000000000000000000130901089C
S315080100301509010800000000170901081909010836
S315080100408509010885090108850901088509010845
S315080100508509010885090108850901088509010835
S315080100608509010885090108850901088509010825
S315080100708509010885090108850901088509010815
S315080100808509010885090108850901088509010805
S3150801009085090108850901088509010885090108F5
S315080100A085090108850901088509010885090108E5
S315080100B085090108850901088509010885090108D5
S315080100C085090108850901088509010885090108C5
S315080100D085090108850901088509010885090108B5
S315080100E085090108850901088509010885090108A5
S315080100F08509010885090108850901088509010895
S315080101008509010885090108850901088509010884
S315080101108509010885090108850901088509010874
S315080101208509010885090108850901088509010864
S315080101308509010800000000000000000000000019
S315080101400000000000000000000000008509010809
S315080101508509010885090108850901088509010834
S315080101608509010885090108850901088509010824
S315080101708509010885090108000000000000000042
S315080101808509010885090108850901088509010804
S31508010190850901088509010800000000850901088B
S315080101A000000000000000000000000085090108A9
S315080101B08509010885090108000000000000000002
S315080101C00000000000000000000000000000000020
S315080101D00000000000000000000000008509010879
S309080101E0EE11AA550E
S315080101E410B5054C237833B9044B13B10448AFF35E
S315080101F400800123237010BD0C00002000000000BC
S31508010204EC1F010808B5034B1BB103490348AFF3B7
S31508010214008008BD0000000010000020EC1F010842
S3150801022453B94AB9002908BF00281CBF4FF0FF314A
S315080102344FF0FF3000F088B9ADF1080C6DE904CE32
S3150801024400F006F8DDF804E0DDE9022304B070479E
S315080102542DE9F047089D8E4604468846002B4AD167
S315080102648A42174662D9B2FA82F64EB1C6F120031A
S3150801027401FA06F820FA03F3B74043EA0808B4403A
S315080102844FEA174E1FFA87FCB8FBFEF1230C0EFB47
S31508010294118843EA084301FB0CF29A4209D9FB186F
S315080102A401F1FF3080F0EA809A4240F2E780023990
S315080102B43B449A1AA3B2B2FBFEF00EFB102243EAA0
S315080102C4024300FB0CFC9C4509D9FB1800F1FF32DB
S315080102D480F0D6809C4540F2D3803B44023840EAFC
S315080102E40140A3EB0C0300211DB1F3400022C5E92B
S315080102F40032BDE8F0878B4205D90DB1C5E9000185
S3150801030400210846F5E7B3FA83F1002946D1734576
S3150801031402D3824200F20581841A6EEB030201209C
S315080103249046002DE5D0C5E90048E2E7002A00F029
S315080103349080B2FA82F6002E40F0A4808A1A030C41
S315080103444FEA174E80B2BCB20121B2FBFEFC0EFB8A
S315080103541C2243EA024304FB0CF29A4207D9FB180E
S315080103640CF1FF3802D29A4200F2E080C4469B1A85
S31508010374B3FBFEF20EFB123340EA034302FB04F419
S315080103849C4207D9FB1802F1FF3002D29C4200F2C3
S31508010394CA8002461B1B42EA0C40A5E7C1F12006A6
S315080103A48B4022FA06F71F430EFA01F420FA06F3E4
S315080103B42EFA06FE4FEA1749234300FA01F81FFAF3
S315080103C487FCBEFBF9F01C0C09FB10EE44EA0E444B
S315080103D400FB0CFEA64502FA01F209D93C1900F103
S315080103E4FF3A80F09C80A64540F2998002383C4445
S315080103F4A4EB0E041FFA83FEB4FBF9F309FB1344B9
S315080104044EEA044403FB0CFCA44508D93C1903F140
S31508010414FF3E80F08280A4457FD9023B3C4443EAEF
S315080104240040A4EB0C04A0FB02EC64457346E146C8
S3150801043462D35FD05DB1B8EB030264EB090404FA35
S3150801044406F622FA01F31E43CC40C5E900640021ED
S315080104544FE7B1FBF2FC010C41EA0E4180B240EAD6
S3150801046401423B4638463C46B846BE462026B1FBC1
S31508010474F7F1A2EB080241EA0C4166E7014618E7DF
S3150801048410462CE7C6F120022EFA02F3B740B14012
S3150801049420FA02F24FEA174E0A43B3FBFEF8BCB23E
S315080104A40EFB1833110C41EA034108FB04F9B04069
S315080104B489454FEA104380B23ED9791808F1FF3CC1
S315080104C401D289451FD8A1EB0901B1FBFEF909FB44
S315080104D404F80EFB191192B242EA0142424529D2A5
S315080104E4BA1809F1FF31C4D24245C2D2A9F10201AF
S315080104F43A44BEE7F0459DD2BEEB02036CEB070C0A
S315080105040138E14696E7A7EB09094944A8F1020C23
S31508010514B1FBFEF909FB04F8DBE773467FE75046AE
S3150801052466E70846FDE63B44023A33E7ACF1020CBA
S315080105343B441CE749469CE7A1EB0901C446B1FBC8
S31508010544FEF909FB04F8C4E7704700BF08B500F0D3
S31508010554CBF800F099F800F03FF808BD08B500F0AB
S315080105649DF800F08DF808BDBFF34F8F0549CA6899
S3150801057402F4E062044B1343CB60BFF34F8F00BF11
S31508010584FDE700BF00ED00E00400FA0508B50948D7
S31508010594094B03604FF46143436000238360C360DE
S315080105A403610C2242618361C3610362436201F000
S315080105B4BEFC08BDB80000200014014008B5014678
S315080105C400230122034801F0F3FB08B1002008BD0A
S315080105D40120FCE7B800002008B5FFF7D7FF08BDDE
S315080105E408B5FFF7C1FF000008B5214B1B78B3B95D
S315080105F42048FFF7E3FF012800D008BD1D4B1B78EF
S31508010604013BDBB2802BF8D800F06FF81A4B18605F
S31508010614174B01221A70194B00221A70EDE7174B72
S315080106241B78013313481844FFF7C8FF012813D16F
S31508010634124A13780133DBB213700E4A12789342C5
S31508010644DBD10B4A002111700A4A5278FF2AD4D108
S31508010654022BD2D1FFF7C4FF00F047F8064B1B68FB
S3150801066464339842C9D9024B00221A70C5E700BF00
S31508010674B4000020300000202C00002028000020AF
S3150801068408B5FFF7B1FF08BD08B5002202210248E3
S3150801069400F018FB08BD00BF0004024010B500F0C5
S315080106A424F80E4B1B68C31AB3F5FA7F0CD3044618
S315080106B40B4B1B784BB90122094B1A7002210948C5
S315080106C400F000FB054B1C6010BD0022044B1A7098
S315080106D40221044800F0F6FAF4E700BF44010020B9
S315080106E44001002000040240704708B500F088F96B
S315080106F408BD0000014A024B9A60704700000108D0
S3150801070400ED00E030B589B00024039404940594FF
S3150801071406940794164B1A6B42F080021A631A6BF5
S3150801072402F080020092009A1A6B42F004021A63DC
S315080107341A6B02F004020192019A1A6B42F0020240
S315080107441A631B6B03F002030293029B094D2246AB
S315080107540221284600F0B6FA0223039301230493DF
S315080107640594069403A9284600F0B8F909B030BDE2
S31508010774003802400004024072B6FEE700B595B09F
S315080107843022002108A801F003FC002303930493F3
S31508010794059306930793234B1A6C42F080521A6405
S315080107A41B6C03F080530193019B1F4B1A6842F497
S315080107B440421A601B6803F440430293029B0123D7
S315080107C408934FF4A023099302230E934FF480024E
S315080107D40F92192210924FF4D87211921293092387
S315080107E4139308A800F0B2FAB0B900F071FAA8B9DF
S315080107F40F23039302230493002305934FF4A05371
S3150801080406934FF480530793072103A800F00CFDC0
S3150801081430B915B05DF804FBFFF7AEFFFFF7ACFF7F
S31508010824FFF7AAFF003802400070004008B5FFF739
S3150801083461FF00F0CDF8FFF7A1FFFFF763FFFFF7AC
S3150801084485FEFFF78BFEFCE782B00A4B1A6C42F071
S3150801085480521A641A6C02F080520092009A5A6CF9
S3150801086442F480425A645B6C03F480430193019B0E
S3150801087402B070470038024010B5A8B004460021FA
S3150801088423912491259126912791802203A801F089
S315080108947FFB2268184B9A4201D028B010BD4FF449
S315080108A40063039303A800F09BFD08BB134B5A6C22
S315080108B442F020025A645A6C02F020020192019A0B
S315080108C41A6B42F004021A631B6B03F004030293C6
S315080108D4029BC023239302232493002325930323F2
S315080108E426930823279323A9054800F0F7F8D4E7A4
S315080108F4FFF742FFDAE700BF00140140003802405F
S3150801090400080240FEE7FEE7FEE7FEE7FEE770475A
S315080109147047704708B500F067F808BD034AD2F86E
S31508010924883043F47003C2F88830704700ED00E05C
S31508010934DFF834D0FFF7F2FF0C480D490D4A0023BE
S3150801094402E0D458C4500433C4188C42F9D30A4A71
S315080109540A4C002301E013600432A242FBD301F0DE
S315080109641FFBFFF763FF7047000004200000002007
S315080109740C0000202C2001080C0000204C0100204A
S31508010984FEE7000010B504460E4B1A784FF47A7345
S31508010994B3FBF2F30C4A1068B0FBF3F000F08AF8E3
S315080109A468B90F2C01D901200AE0002221464FF02B
S315080109B4FF3000F06FF8054B1C60002000E00120B1
S315080109C410BD00BF0400002000000020080000201C
S315080109D408B5032000F04CF80020FFF7D3FFFFF712
S315080109E433FF002008BD0000034A1168034B1B7836
S315080109F40B441360704700BF48010020040000201F
S31508010A04014B1868704700BF48010020002804DB21
S31508010A140901C9B2044B1954704700F00F000901C2
S31508010A24C9B2024B1954704700E400E014ED00E022
S31508010A3400B500F00700C0F1070CBCF1040F28BF8C
S31508010A444FF0040C031D062B0FD9C31E4FF0FF3EAE
S31508010A540EFA0CF021EA000199400EFA03FE22EA85
S31508010A640E0241EA02005DF804FB0023EEE70000EA
S31508010A740649CB6823F4E0631B041B0C000200F44B
S31508010A84E0600343024A1A43CA60704700ED00E076
S31508010A940000FA0510B50446054BD868C0F30220D0
S31508010AA4FFF7C6FF01462046FFF7B0FF10BD00BF9A
S31508010AB400ED00E00138B0F1807F0BD24FF0E0235E
S31508010AC45861054AF02182F823100020986107220B
S31508010AD41A6170470120704700ED00E000230F2BCF
S31508010AE400F2E78070B582B065E085684FEA430E87
S31508010AF4032404FA0EF425EA0405CC6804FA0EF470
S31508010B042C438460446824EA02044A68C2F3001246
S31508010B149A40224342605CE0DC08083450F82420F9
S31508010B2403F00705AD004FF00F0E0EFA05FE22EA93
S31508010B340E0E0A69AA4042EA0E0240F824205CE035
S31508010B44072200E0002202FA0EF22A430234594D22
S31508010B5445F82420584A94686FEA0C0224EA0C05DD
S31508010B644E6816F4801F01D04CEA0405524CA56060
S31508010B74E46802EA04054E6816F4001F01D04CEA3B
S31508010B8404054D4CE560646802EA04054E6816F4EA
S31508010B94003F01D04CEA0405474C656024682240AD
S31508010BA44D6815F4803F01D04CEA0402424C226098
S31508010BB401330F2B7BD801229A400C6804EA020CF4
S31508010BC432EA0404F4D14C6804F00304013C012C10
S31508010BD48BD94A6802F00302032A09D0C4685D0066
S31508010BE40322AA4024EA02048A68AA402243C2606C
S31508010BF44A6802F00302022A8ED004684FEA430EB9
S31508010C04032202FA0EF224EA02044A6802F00302F3
S31508010C1402FA0EF2224302604A6812F4403FC7D030
S31508010C24264A546C44F480445464526C02F4804257
S31508010C340192019A9C08A51C1E4A52F8255003F0F4
S31508010C44030E4FEA8E0E0F2202FA0EF225EA020568
S31508010C541B4A90423FF476AF02F5806290421AD05D
S31508010C6402F58062904218D002F58062904216D04D
S31508010C7402F58062904214D002F58062904212D045
S31508010C8402F58062904210D002F5806290423FF4E8
S31508010C9457AF082257E7012255E7022253E70322F1
S31508010CA451E704224FE705224DE706224BE702B036
S31508010CB470BD704700380140003C014000380240CD
S31508010CC4000002400AB181617047090481617047D5
S31508010CD410B582B01B4B1A6C42F080521A641B6C15
S31508010CE403F080530193019B174A136843F4803335
S31508010CF41360FFF785FE0446134B5B6813F4803FC4
S31508010D0408D1FFF77DFE001BB0F57A7FF4D90320DD
S31508010D1402B010BD0C4A136843F400331360FFF79D
S31508010D246FFE0446084B5B6813F4003F07D1FFF7CF
S31508010D3467FE001BB0F57A7FF4D90320E8E70020A3
S31508010D44E6E700BF0038024000700040002800F0C2
S31508010D54FF8170B582B00446036813F0010F29D0E8
S31508010D64954B9B6803F00C03042B1AD0924B9B6892
S31508010D7403F00C03082B0FD06368B3F5803F40D00A
S31508010D84002B54D18C4B1A6822F480321A601A68E3
S31508010D9422F480221A6039E0874B5B6813F4800FCA
S31508010DA4EAD0854B1B6813F4003F03D06368002B14
S31508010DB400F0D081236813F0020F74D07E4B9B6830
S31508010DC413F00C0F5ED07C4B9B6803F00C03082BC5
S31508010DD453D0E368002B00F08980774A136843F0FF
S31508010DE401031360FFF70CFE0546734B1B6813F0EA
S31508010DF4020F72D1FFF704FE401B0228F5D903201E
S31508010E04ADE16D4A136843F48033136063682BB309
S31508010E14FFF7F6FD0546684B1B6813F4003FC9D175
S31508010E24FFF7EEFD401B6428F5D9032097E1B3F5D6
S31508010E34A02F09D0604B1A6822F480321A601A6806
S31508010E4422F480221A60E1E75B4B1A6842F4802295
S31508010E541A601A6842F480321A60D7E7FFF7D0FDA0
S31508010E640546554B1B6813F4003FA3D0FFF7C8FD8D
S31508010E74401B6428F5D9032071E14F4B5B6813F4D1
S31508010E84800FA6D14C4B1B6813F0020F03D0E368FD
S31508010E94012B40F06181484A136823F0F80321695C
S31508010EA443EAC1031360236813F0080F46D0636944
S31508010EB483B3414A536F43F001035367FFF7A0FD18
S31508010EC405463D4B5B6F13F0020F37D1FFF798FDCB
S31508010ED4401B0228F5D9032041E1374A136823F058
S31508010EE4F803216943EAC1031360DCE7324A13684C
S31508010EF423F001031360FFF783FD05462E4B1B6898
S31508010F0413F0020FCFD0FFF77BFD401B0228F5D95A
S31508010F14032024E1284A536F23F001035367FFF79B
S31508010F246FFD0546244B5B6F13F0020F06D0FFF7DE
S31508010F3467FD401B0228F5D9032010E1236813F045
S31508010F44040F7DD01C4B1B6C13F0805F1ED11A4B0A
S31508010F541A6C42F080521A641B6C03F08053019395
S31508010F64019B0125154B1B6813F4807F10D0A368D8
S31508010F74012B25D0002B3BD10F4B1A6F22F001020E
S31508010F841A671A6F22F004021A671EE00025E9E7B8
S31508010F940A4A136843F480731360FFF731FD064662
S31508010FA4064B1B6813F4807FE1D1FFF729FD801BEB
S31508010FB46428F5D90320D2E00038024000700040C5
S31508010FC46E4A136F43F001031367A36833B3FFF73C
S31508010FD417FD0646694B1B6F13F0020F2FD1FFF756
S31508010FE40FFD801B41F288339842F3D90320B6E0FA
S31508010FF4052B09D0614B1A6F22F001021A671A6F81
S3150801100422F004021A67E0E75C4B1A6F42F0040205
S315080110141A671A6F42F001021A67D6E7FFF7F0FC5E
S315080110240646564B1B6F13F0020F08D0FFF7E8FC70
S31508011034801B41F288339842F3D903208FE0FDB926
S31508011044A369002B00F08A804C4A926802F00C02CC
S31508011054082A58D0022B19D0484A136823F08073FA
S315080110641360FFF7CDFC0446444B1B6813F0007F5D
S3150801107447D0FFF7C5FC001B0228F5D903206EE00B
S315080110843E4A136C23F080531364D9E73B4A136829
S3150801109423F080731360FFF7B3FC0546374B1B68CF
S315080110A413F0007F06D0FFF7ABFC401B0228F5D9E5
S315080110B4032054E0E369226A1343626A43EA82130A
S315080110C4A26A5208013A43EA0243E26A43EA02631C
S315080110D443F00053294A5360136843F0807313603D
S315080110E4FFF78EFC0446254B1B6813F0007F06D1D7
S315080110F4FFF786FC001B0228F5D903202FE0002000
S315080111042DE000202BE01D4A5268012B29D002F458
S315080111148003E1698B4226D102F03F03216A8B429F
S3150801112423D1616A47F6C0731340B3EB811F1ED1FD
S3150801113402F44031A36A5B08013BB1EB034F18D1B2
S3150801114402F07062E36AB2EB036F14D1002006E081
S3150801115401207047012002E0012000E0002002B0CE
S3150801116470BD0120FBE70120F9E70120F7E701201B
S31508011174F5E70120F3E70120F1E700BF0038024053
S3150801118408B5264B9B6803F00C03042B41D0082BA6
S3150801119441D1224B5A6802F03F025B6813F4800F6F
S315080111A412D01E4B5968C1F388111D480023A1FBAF
S315080111B40001FFF735F8194B5B68C3F301430133A3
S315080111C45B00B0FBF3F008BD144B5868C0F38810F4
S315080111D44FEA401CBCEB000C6EEB0E0E4FEA8E1365
S315080111E443EA9C634FEA8C11B1EB0C0163EB0E03E2
S315080111F4DB0043EA5173C90011EB000C43F1000308
S31508011204990200234FEA8C2041EA9C51FFF708F81A
S31508011214D1E70348D7E70348D5E700BF00380240BA
S3150801122440787D010024F400002800F0A08070B500
S315080112340D460446524B1B6803F00F038B420BD22F
S315080112444F4A136823F00F030B431360136803F023
S315080112540F038B4240F08D80236813F0020F17D0D9
S3150801126413F0040F04D0474A936843F4E053936098
S31508011274236813F0080F04D0424A936843F4604381
S315080112849360404A936823F0F003A1680B43936083
S31508011294236813F0010F31D06368012B20D0022B88
S315080112A425D0384A126812F0020F64D035498A6883
S315080112B422F0030213438B60FFF7A2FB0646314B68
S315080112C49B6803F00C036268B3EB820F16D0FFF731
S315080112D497FB801B41F288339842F0D9032045E0F5
S315080112E4284A126812F4003FE0D101203EE0254A5B
S315080112F4126812F0007FD9D1012037E0204B1B6810
S3150801130403F00F03AB420AD91D4A136823F00F03EE
S315080113142B431360136803F00F03AB422DD12368E3
S3150801132413F0040F06D0174A936823F4E053E168CF
S315080113340B439360236813F0080F07D0114A936887
S3150801134423F46043216943EAC1039360FFF718FF55
S315080113540C4B9B68C3F303130B4AD35CD8400B4B62
S3150801136418600B4B1868FFF70DFB002070BD0120B0
S3150801137470470120FAE70120F8E70120F6E700BFE4
S31508011384003C0240003802400C20010800000020FD
S3150801139408000020014B1868704700BF00000020B0
S315080113A408B5FFF7F7FF044B9B68C3F38223034A87
S315080113B4D35CD84008BD00BF0038024004200108A8
S315080113C408B5FFF7E7FF044B9B68C3F34233034AA7
S315080113D4D35CD84008BD00BF003802400420010888
S315080113E4F0B583B00446066816F001060DD0AB4B7A
S315080113F49A6822F400029A609A68C16A0A439A6052
S31508011404C36A002B00F023810026256815F40025FC
S3150801141411D0A24AD2F88C3023F44013616B0B43E2
S31508011424C2F88C30636BB3F5801F00F01281002B70
S3150801143400F011810025236813F4801F0FD0974A01
S31508011444D2F88C3023F44003A16B0B43C2F88C30D9
S31508011454A36BB3F5800F00F0008103B90125236856
S3150801146413F0200F40F0FB80236813F0100F0CD003
S315080114748A4BD3F88C2022F08072C3F88C20D3F8D7
S315080114848C20216B0A43C3F88C20236813F4804FFC
S3150801149408D0824AD2F8903023F44033E16D0B43E5
S315080114A4C2F89030236813F4004F08D07B4AD2F867
S315080114B4903023F44023216E0B43C2F890302368FD
S315080114C413F4803F08D0754AD2F8903023F44013B8
S315080114D4616E0B43C2F89030236813F0400F08D0AD
S315080114E46E4AD2F8903023F00303E16B0B43C2F83A
S315080114F49030236813F0800F08D0684AD2F89030E8
S3150801150423F00C03216C0B43C2F89030236813F4BF
S31508011514807F08D0614AD2F8903023F03003616C99
S315080115240B43C2F89030236813F4007F08D05B4A52
S31508011534D2F8903023F0C003A16C0B43C2F8903063
S31508011544236813F4806F08D0544AD2F8903023F4F0
S315080115544073E16C0B43C2F89030236813F4006FAF
S3150801156408D04E4AD2F8903023F44063216D0B43D8
S31508011574C2F89030236813F4805F08D0474AD2F83A
S31508011584903023F44053616D0B43C2F890302368BD
S3150801159413F4005F08D0414AD2F8903023F440434B
S315080115A4A16D0B43C2F89030236813F4001F0DD0C4
S315080115B43A4AD2F8903023F00063616F0B43C2F8BC
S315080115C49030636FB3F1006F00F0B480236813F4AD
S315080115D4802F08D0314AD2F8903023F04073E16E57
S315080115E40B43C2F89030236813F4000F08D02B4A32
S315080115F4D2F8903023F08053A16F0B43C2F8903090
S31508011604236813F0806F08D0244AD2F8903023F067
S315080116140053E16F0B43C2F8903026B9236813F0DF
S31508011624007F00F0E4801D4A136823F08063136089
S31508011634FFF7E6F90646194B1B6813F0006F7BD0D2
S31508011644FFF7DEF9801B6428F5D90320D2E00126C9
S31508011654DBE60126EBE60125EDE60126FDE60F4B61
S315080116641A6C42F080521A641B6C03F0805301937E
S31508011674019B0B4A136843F480731360FFF7C0F99F
S315080116840746074B1B6813F4807F0BD1FFF7B8F99C
S31508011694C01B6428F5D90320ACE000BF003802401A
S315080116A400700040854B1B6F13F4407315D0A26A72
S315080116B402F440729A4210D0804B1A6F22F4407297
S315080116C4196F41F480311967196F21F4803119674B
S315080116D41A671B6F13F0010F12D1A36A03F4407240
S315080116E4B2F5407F1DD0754A936823F4F8139360C5
S315080116F472490B6FA26AC2F30B0213430B67B3E673
S31508011704FFF77EF907466D4B1B6F13F0020FE4D101
S31508011714FFF776F9C01B41F288339842F3D90320BF
S3150801172468E06648826822F4F812654919400A4352
S315080117348260DDE7012549E7236813F0010F0ED01E
S31508011744E36A63B95D4AD2F88430616803F0706369
S3150801175443EA8113A16843EA0173C2F88430236812
S3150801176413F4002F03D0626BB2F5801F06D013F46D
S31508011774801F19D0A36BB3F5800F15D14F4AD2F840
S3150801178484106068E3681B0643EA801301F0E041AC
S315080117940B43C2F88430D2F88C3023F01F03E16975
S315080117A401390B43C2F88C30236813F0007F0AD041
S315080117B46268E3681B0643EA8213A26843EA027372
S315080117C43E4AC2F884303D4A136843F08063136085
S315080117D4FFF716F90646394B1B6813F0006F06D155
S315080117E4FFF70EF9801B6428F5D9032002E0012DC1
S315080117F402D0002003B0F0BD304A136823F08053A9
S315080118041360FFF7FDF805462C4B1B6813F0005FC0
S3150801181406D0FFF7F5F8401B6428F5D90320E9E754
S31508011824236813F4002F01D0626B22B113F4801FCD
S3150801183418D0A36BB3B9214AD2F88830216903F4C5
S31508011844403343EA8113616943EA0163C2F8883084
S31508011854D2F88C3023F4F853216A013943EA012377
S31508011864C2F88C30236813F4001F03D0636FB3F1F5
S31508011874006F13D0114A136843F080531360FFF7BE
S31508011884BFF804460D4B1B6813F0005F14D1FFF72C
S31508011894B7F8001B6428F5D90320ABE70749D1F843
S315080118A488202069A3691B0443EA801302F0706245
S315080118B41343C1F88830DDE700209BE7003802406E
S315080118C4FFFCFF0F026852E8003F23F4907342E8D5
S315080118D400310029F6D1026802F1080353E8003FF2
S315080118E423F00103083242E800310029F3D1036EDB
S315080118F4012B06D02023C0F88030002303668366B3
S315080119047047026852E8003F23F0100342E80031A9
S315080119140029F6D1EEE7000010B50446836802698A
S31508011924134342691343C269134301680868914A18
S3150801193402401A430A602268536823F44053E16853
S315080119440B435360A269236A1A4321688B6823F4FB
S31508011954306313438B602368874A934218D0874AB6
S3150801196493423AD0864A93424FD0864A93425ED0EE
S31508011974854A93426DD0854A93427FD0844A9342DD
S3150801198400F09180834A934200F0A28010230BE071
S31508011994814BD3F8903003F00303032B1BD8DFE8FC
S315080119A403F00216AB180123E069B0F5004F00F005
S315080119B4D780082B00F23881DFE813F014012701D8
S315080119C4120136012A013601360136012D01042395
S315080119D4EAE70823E8E71023E6E76F4BD3F89030E4
S315080119E403F00C030C2B0ED8DFE803F0070D0D0DDD
S315080119F4090D0D0D880D0D0D0B000023D4E70423E5
S31508011A04D2E70823D0E71023CEE7634BD3F8903007
S31508011A1403F03003202B73D005D8002B72D0102B7A
S31508011A2472D10423C0E7302B70D10823BCE75A4B83
S31508011A34D3F8903003F0C003802B69D005D8002B66
S31508011A4468D0402B68D10423AEE7C02B66D108239E
S31508011A54AAE7514BD3F8903003F44073B3F5007FEA
S31508011A645ED006D8002B5DD0B3F5807F5CD1042304
S31508011A749AE7B3F5407F59D1082395E7464BD3F83E
S31508011A84903003F44063B3F5006F51D006D8002BA8
S31508011A9450D0B3F5806F4FD1042385E7B3F5406F72
S31508011AA44CD1082380E73C4BD3F8903003F44053D8
S31508011AB4B3F5005F44D006D8002B43D0B3F5805F55
S31508011AC442D1042370E7B3F5405F3FD108236BE79E
S31508011AD4314BD3F8903003F44043B3F5004F37D074
S31508011AE405D8BBB3B3F5804F36D104235CE7B3F508
S31508011AF4404F33D1082357E7022355E7022353E717
S31508011B04022351E700234FE710234DE710234BE740
S31508011B14022349E7002347E7102345E7102343E750
S31508011B24022341E700233FE710233DE710233BE760
S31508011B34022339E7012337E7102335E7102333E76F
S31508011B44022331E700232FE710232DE710232BE780
S31508011B54022329E7002327E7102325E7102323E790
S31508011B64082B5BD8DFE803F01A343A5A375A5A5A1B
S31508011B741E0000BFF369FFEF001001400044004056
S31508011B8400480040004C0040005000400014014049
S31508011B9400780040007C004000380240FFF700FC52
S31508011BA400283DD06268530803EB4003B3FBF2F304
S31508011BB4A3F110014FF6EF72914233D89AB222F08B
S31508011BC40F02C3F3420313432268D360002030E0B3
S31508011BD4FFF7F6FBE4E7FFF7D3FAE1E71748E1E78E
S31508011BE4164802E0FFF7DCFB00B3636800EB530019
S31508011BF4B0FBF3F0A0F110024FF6EF739A4217D82F
S31508011C04236880B2D860002013E0FFF7D9FBEBE71D
S31508011C14FFF7B6FAE8E74FF40040E6E7012008E0E3
S31508011C24002006E0012004E0012002E0002000E093
S31508011C3401200023A366E36610BD00BF0024F40057
S31508011C44436A13F0080F06D00268536823F4004365
S31508011C54416B0B435360436A13F0010F06D00268C4
S31508011C64536823F40033816A0B435360436A13F0C0
S31508011C74020F06D00268536823F48033C16A0B4302
S31508011C845360436A13F0040F06D00268536823F4B9
S31508011C948023016B0B435360436A13F0100F06D07C
S31508011CA40268936823F48053816B0B439360436AF8
S31508011CB413F0200F06D00268936823F40053C16B0E
S31508011CC40B439360436A13F0400F0AD002685368C2
S31508011CD423F48013016C0B435360036CB3F5801F23
S31508011CE40BD0436A13F0800F06D00268536823F4B5
S31508011CF40023816C0B43536070470268536823F4CD
S31508011D04C003416C0B435360EBE72DE9F8430546E1
S31508011D140E4617469946DDF820802B68DC6936EAB3
S31508011D2404040CBF01240024BC423AD1B8F1FF3F94
S31508011D34F3D0FEF765FEA0EB0900404534D8B8F1A7
S31508011D44000F33D02B681A6812F0040FE5D0B6F1E8
S31508011D54400218BF0122802EDFD0002ADDD0DA69BD
S31508011D6412F0080F11D1DA6912F4006FD5D04FF4C5
S31508011D7400621A622846FFF7A5FD2023C5F88430B8
S31508011D84002385F8783003200CE008241C622846D1
S31508011D94FFF798FDC5F88440002385F878300120BB
S31508011DA400E00020BDE8F8830320FBE70320F9E7F8
S31508011DB42DE9F04383B01E46D0F88030202B7ED11E
S31508011DC404460D469046002A18BF002901D1012070
S31508011DD476E00023C0F884302222C0F88020036606
S31508011DE4FEF70EFE0746A4F85880A4F85A80A3689D
S31508011DF4B3F5805F06D0A3B9226972B9FF22A4F8A4
S31508011E045C2014E0226922B940F2FF12A4F85C208E
S31508011E140DE0FF22A4F85C2009E07F22A4F85C20E7
S31508011E2405E0B3F1805F0AD00022A4F85C20B4F877
S31508011E345C80B3F5805F0CD04FF0000924E0226979
S31508011E441AB97F22A4F85C20F1E73F22A4F85C20A2
S31508011E54EDE7236913B14FF0000915E0A9460025FA
S31508011E6412E02023C4F88030032029E023685A6A43
S31508011E745FFA88F3134005F8013BB4F85A2092B285
S31508011E84013A92B2A4F85A20B4F85A309BB28BB1EB
S31508011E9400963B46002220212046FFF736FF0028FC
S31508011EA4DFD1002DE2D123685B6A08EA030329F826
S31508011EB4023BE2E72023C4F88030002000E0022038
S31508011EC403B0BDE8F08310B582B004460023C0F818
S31508011ED48430FEF795FD23681B6813F0080F0AD1B1
S31508011EE42023E367C4F8803000202066606684F8FE
S31508011EF4780002B010BD6FF07E43009303460022BA
S31508011F044FF400112046FFF700FF0028E8D02268A5
S31508011F1452E8003F23F0800342E800310029F6D154
S31508011F242023E367002384F878300320E1E768B3C4
S31508011F3410B50446C36F03B32423E3672268136801
S31508011F4423F001031360636AE3B92046FFF7E4FC4F
S31508011F54012811D02268536823F4904353602268F8
S31508011F64936823F02A0393602268136843F00103F4
S31508011F7413602046FFF7A7FF10BD80F87830FEF7F7
S31508011F847BFCD9E72046FFF75BFEDEE701207047B5
S31508011F9402440346934200D1704703F8011BF9E74B
S31508011FA470B50D4D0D4C641BA4100026A64209D12B
S31508011FB40B4D0C4C00F018F8641BA4100026A6421D
S31508011FC405D170BD55F8043B98470136EEE755F837
S31508011FD4043B98470136F2E7242001082420010826
S31508011FE42420010828200108F8B500BFF8BC08BC5C
S31508011FF49E467047F8B500BFF8BC08BC9E467047B4
S3150801200400000000010203040000000000000000B3
S30D0801201401020304060708098D
S30D0801201C38E2FF7F0100000014
S309080120240902010895
S30908012028E5010108B6
S3110801202C0024F400010000001000000070
S70508010935B3
