S01900006F70656E626C745F73746D3332633037312E7372656304
S3150800000000600020410B0008210B0008230B0008A4
S3150800001000000000000000000000000000000000D2
S31508000020000000000000000000000000250B00088A
S315080000300000000000000000270B0008290B00083C
S31508000040910B0008910B0008910B0008910B000812
S31508000050910B0008910B0008910B0008910B000802
S31508000060910B0008910B0008910B0008910B0008F2
S31508000070910B0008910B0008910B0008910B0008E2
S31508000080910B00080000000000000000910B00081A
S3150800009000000000910B0008910B0008910B000866
S315080000A0910B0008910B0008910B0008910B0008B2
S315080000B0910B00080000000000000000000000008E
S315080000C010B5064C2378002B07D1054B002B02D020
S315080000D0044800E000BF0123237010BD94000020EF
S315080000E000000000D85A0008044B10B5002B03D0B6
S315080000F00349044800E000BF10BDC04600000000E8
S3150800010098000020D85A00080023C25C0133002A50
S31508000110FBD1581E70470000002243088B4274D357
S3150800012003098B425FD3030A8B4244D3030B8B42EA
S3150800013028D3030C8B420DD3FF22090212BA030CF3
S315080001408B4202D31212090265D0030B8B4219D3D4
S3150800015000E0090AC30B8B4201D3CB03C01A5241F4
S31508000160830B8B4201D38B03C01A5241430B8B423C
S3150800017001D34B03C01A5241030B8B4201D30B0325
S31508000180C01A5241C30A8B4201D3CB02C01A52414C
S31508000190830A8B4201D38B02C01A5241430A8B420F
S315080001A001D34B02C01A5241030A8B4201D30B02F8
S315080001B0C01A5241CDD2C3098B4201D3CB01C01A12
S315080001C0524183098B4201D38B01C01A524143091C
S315080001D08B4201D34B01C01A524103098B4201D30A
S315080001E00B01C01A5241C3088B4201D3CB00C01A77
S315080001F0524183088B4201D38B00C01A52414308EF
S315080002008B4201D34B00C01A5241411A00D2014613
S31508000210524110467047FFE701B5002000F006F886
S3150800022002BDC0460029F7D076E770477047C0463A
S3150800023010B501F045FB00F0DDF810BD10B501F072
S315080002404DFB00F003F910BD70470000034B1B6916
S315080002509B0401D4012070470020FCE700080050E9
S3150800026010B5064B1B699B0401D4002010BD00F095
S31508000270DBF800F03DF80120F8E7C046000800501A
S3150800028010B5642000F006F810BD10B500F008F8A7
S3150800029010BD0000014B18807047C046B80000200A
S315080002A010B501F0F1FA0F4B1B68984211D30E4BAB
S315080002B01B78002B0ED10C4B01221A70A023DB05EC
S315080002C01F329A6101F0E0FA084B1B881B18054A91
S315080002D0136010BD044B00221A70A023DB052032E0
S315080002E09A62EFE7B4000020B0000020B8000020B2
S315080002F0A023DB0520229A62704710B5040000206F
S3150800030001F0F8FD002801D1002010BD01222100CE
S31508000310002001F0FFFD012801D00020F5E70120AB
S31508000320F3E770477047000030B583B004006B46AA
S31508000330D971CBB23F2B10D86B46DD1D012229009F
S31508000340002001F0FDFD2A782100002001F0F8FDCB
S31508000350002001F00BFE03B030BD0248852101F0F4
S315080003609FFAE9E7005B000870B506000D001D4B13
S315080003701C78002C13D11C48FFF7BFFF012801D0B9
S31508000380200070BD184B1B78013BDBB23E2BF7D81B
S31508000390144B01221A70154B00221A70F0E7134B02
S315080003A018780130104BC018FFF7A7FF0400012882
S315080003B001D00024E4E70D4B1A780132D2B21A7044
S315080003C0094B1B789A4201D00024D9E70849300026
S315080003D000F038FF034B00221A70044B1B782B7071
S315080003E0CEE7C046FC000020BC000020BA00002072
S315080003F0BD00002080B50A4FBD440A4B029302A8EF
S3150800040000F030FB01236A4613710023537101A9DA
S31508000410002003F071FCBA239B009D4480BDC046B2
S3150800042018FDFFFF005C004080B5064FBD4403F091
S315080004304FFC054B0093684600F034FBB8239B003D
S315080004409D4480BD20FDFFFF005C004010B50020E4
S3150800045004F01AFF01200021404204F099F800F048
S31508000460EFF810BD10B501F07BF9C303DB0B802054
S315080004708002C01A400A80B210BD002805D104299E
S3150800048005D0072902D1192000E000207047322044
S31508000490FCE70000F8B504000D0016001F00002850
S315080004A004D00824200002F035FAF8BDFFF7DAFF79
S315080004B0A8422ED980239B009F422CD8002FF1D02A
S315080004C001F04EF96D02451901F04AF9A84209D022
S315080004D000218F420ED968180378DBB2FF2B04D1AE
S315080004E00131F6E701F02CF9F2E7791A01F030F953
S315080004F0002812D00A4B9D4208D032003900280045
S3150800050001F022F90128CDD00324CBE701F09CFAAB
S31508000510F3E70824C6E70824C4E70424C2E7C0466C
S315080005200082000810B501F01FF9012803D0032046
S3150800053002F0F0F910BD0020FAE770B50E001500BC
S315080005401C00002802D00024200070BDFFF78AFF97
S31508000550B04201D80024F7E701F002F976028119C2
S3150800056080239B009C4200D31C002200280000F038
S3150800057069FEE9E7704710B500F042FE10BD10B5F8
S3150800058001F0F2F80400012802D00024200010BD72
S3150800059000F036FEFAE710B501F0E2F8C303DB0B0C
S315080005A080208002C01A400A80B210BDF0B5CE463F
S315080005B000B582B00400019116001D001F4B5F783C
S315080005C0012F08D000240027012F2DD0380002B0B3
S315080005D080BCB946F0BDDB68834201D90027F5E740
S315080005E0C31A9946FFF7D7FF814501D30027EDE7E0
S315080005F001F0B6F8114BDB68E41A64022418019B73
S315080006009C4664442200002100E00131A942DBD265
S3150800061050180378DBB2FF2BF7D0691A01F098F867
S315080006200028D1D10700D1E732002900200001F0C7
S315080006308BF80028CAD10700C8E7C0460001002089
S3150800064010B5074B1B7C012B00D010BD044B0022B4
S315080006505A705A609A60DA601A74FFF790FFF4E7E6
S3150800066000010020F0B589B00C0006A9104B0A005D
S3150800067021CB21C202AD0F4B2A00C1CBC1C21B78C8
S3150800068013700D4B019320000830082200F0DAFDA4
S31508000690200010300D22290000F0D4FD2000203063
S315080006A0042201A900F0CEFD242009B0F0BDC04601
S315080006B0105B0008185B0008312E300010B5064B99
S315080006C01B78012B01D0012010BD00233A220221FC
S315080006D002F0C0F9F8E7C0461401002080239B0009
S315080006E013800623FF330B6070470000002B04D0ED
S315080006F0002A04D0044B00221A7001207047024BCE
S3150800070001221A70F9E7C04614010020F8B51F0047
S31508000710069E82235B00994220D84B029B189B19A0
S31508000720114883421DD84D02104BED18AD18002410
S3150800073007E03A19002313700135FF22224208D038
S315080007400134B44208D20A4A9542F2D22B783B5574
S31508000750F2E701F079F9F3E73000F8BD01204042ED
S31508000760FBE701204042F8E7000A0200C85B0008E0
S31508000770C865000801207047F8B50D0017001C0071
S3150800078082235B00994200D9B5E04B029B18069A72
S315080007909A185C4B9A4200D9B0E0069E032911D0FC
S315080007A0042970D9584B1B78002B60D1564B5B68CF
S315080007B0002B59D0544BDB68002B55D0524B0122E5
S315080007C01A7054E0504B1B78002B06D14E4B9B6891
S315080007D0002B04D04C4B02221A70002226E04A4B0A
S315080007E001221A70F9E7484B5B78002B4BD18A7EB9
S315080007F0CB7E1B021343022B45D9087F4A7F120280
S315080008000243887F00041043CA7F120602433AD087
S3150800081002333D49CB604A6000238B6001224A704F
S315080008200B7400F08DFF2EE00132D2B20F2A2AD8BF
S3150800083051016118C87A2028F6D10B7A422BF3D1D8
S315080008404B7A492BF0D18B7A4E2BEDD12E4B1B7858
S31508000850012BC8D0022B16D12B4B5B78012B12D15A
S31508000860294B01221A740EE0274B02221A70264BD6
S315080008701B78022B09D0244B5B78012B17D0224B0F
S315080008801B78012B2AD03000F8BD1F4B5B78002B54
S31508000890F1D11D4B9B68002BEDD11B4BDD6000226F
S315080008A09A60012159701A7400F04AFFE3E7069B23
S315080008B0220039002800FFF779FE012807D0124BDD
S315080008C000225A705A609A60DA601A74D7E70E4A9C
S315080008D0936806998C4663449360D0E70A4B5B7825
S315080008E0012BD0D1084B9A685B689A42CBD3064B4A
S315080008F001221A74C7E701267642C4E70126764222
S31508000900C1E7C046000A020000010020012040425B
S315080009107047000070B58AB01822002104A805F0B7
S31508000920A5F8184B596B042211435963596B0A40B1
S315080009300392039A5A6B20252A435A635A6B2A4014
S315080009400292029A5A6B012422435A635B6B234034
S315080009500193019BA026F605B56280239B010493AB
S31508000960089404A9084800F0FFFA049505940023A2
S3150800097006930793089304A9300000F0F5FA0AB025
S3150800098070BDC046001002400008005072B6FEE76F
S3150800099010B51D4A136807218B4306390B431360AC
S315080009A01A4A116880235B020B43136001E0012990
S315080009B009D0164B1A6880239B02110019401A4267
S315080009C0F5D00121F3E7114A936811490B4093606A
S315080009D0936807218B4306390B4393600B4B9A6840
S315080009E038231340082BF9D1084A936809490B4064
S315080009F09360094800F04EFB032000F0DFF800285A
S31508000A0000D110BDFFF7C2FF0020024000100240CF
S31508000A10FFF0FFFFFF8FFFFF006CDC0210B500F050
S31508000A20F9F8FFF7B5FFFFF775FFFFF701FCFFF7CA
S31508000A3005FCFCE782B00A4B196C012211431964C4
S31508000A40196C0A400092009ADA6B802149050A431C
S31508000A50DA63DB6B0B400193019B02B07047C0461B
S31508000A600010024082B002680B4B9A4201D002B0D5
S31508000A7070470A4B996D0A4A1140802252010A436F
S31508000A809A65DA6B802189010A43DA63DB6B0B40CE
S31508000A900193019BEBE7C046005C00400010024052
S31508000AA0FFEFFFFF0268054B9A4200D07047044AE1
S31508000AB0D36B04490B40D363F8E7C046005C00409B
S31508000AC000100240FFDFFFFF70B500F0A9FAA0256D
S31508000AD0ED052024AC620E4800F0F8F90D4800F048
S31508000AE0F5F9280000F0F2F90B4B5A6BA2435A634A
S31508000AF05A6B04218A435A635A6B03398A435A63E9
S31508000B00DA6B06480240DA631A6C8A431A6470BDC7
S31508000B10001400500008005000100240FFFFFFEFCD
S31508000B20FEE7FEE77047704710B500F07FF810BD86
S31508000B30024B802212059A607047C04600ED00E01D
S31508000B400D488546FFF7F4FF002103E00B4B5B5881
S31508000B50435004310A480B4B42189A42F6D30A4AC4
S31508000B6002E0002313600432084B9A42F9D304F0DA
S31508000B7085FFFFF753FFFEE7006000206C6C000856
S31508000B800000002094000020940000202C0E002075
S31508000B90FEE7000010B5084B01214942D962002240
S31508000BA0DA6219631A6399629A6259625A62FFF79E
S31508000BB08BFF002010BDC0460010024010B504008F
S31508000BC0114B1978002901D1012010BDFA208000A7
S31508000BD0FFF7A2FA01000D4B1868FFF79DFA00F01F
S31508000BE081F800280DD1032C01D90120EDE7013049
S31508000BF000222100404200F071F8054B1C600020DD
S31508000C00E3E70120E1E7C0460400002000000020D9
S31508000C100800002010B50320FFF7D0FF041E02D0FD
S31508000C200124200010BDFFF705FFFAE7034B1B78E8
S31508000C30034A11685B1813607047C0460400002019
S31508000C401801002070B5002811DB8308134DC03346
S31508000C509B005C5903221040C000FC3216008640F7
S31508000C60B44389010A40824022435A5170BD0F237A
S31508000C700340083B9B0806339B00094A9446634495
S31508000C805C6803221040C000FC3215008540AC4366
S31508000C9089010A40824022435A60E7E700E100E002
S31508000CA000ED00E0013880235B0498420FD2094A20
S31508000CB050600948036A1B021B0AC02109060B4338
S31508000CC003620023936007331360002070470120F6
S31508000CD0FCE7C04610E000E000ED00E010B5FFF7C5
S31508000CE0B1FF10BD10B5FFF7DDFF10BD30B5054CDF
S31508000CF061690125294361610260BFF36F8F436013
S31508000D0030BDC04600200240084B5B69002B01DB62
S31508000D1000207047054B064A9A60064A9A605B6946
S31508000D20002B01DB0020F4E70120F2E70020024057
S31508000D3023016745AB89EFCD064B59698022120618
S31508000D400A435A615B69002B01DB012070470020CA
S31508000D50FCE7C0460020024070B5050000F09CFD87
S31508000D604419114B1B69DB0305D500F095FDA0421C
S31508000D70F7D3032070BD0C4A13690C490B40136165
S31508000D8003D00B4A53600120F4E700F085FD4519AE
S31508000D90054B1B695B0305D500F07EFDA842F7D31A
S31508000DA00320E7E70020E5E700200240FAC3000039
S31508000DB01C010020F8B507000C0015001E00144B96
S31508000DC01B78012B22D0124B01221A7000225A607E
S31508000DD0FA208000FFF7C0FF00280DD1012F0FD0A1
S31508000DE02900200004F084FEFA208000FFF7B4FFF3
S31508000DF0084A5369BB435361054B00221A70F8BD74
S31508000E002A0033002000FFF771FFEDE70220F6E71E
S31508000E101C01002000200240024A5169024B0B4384
S31508000E20536170470020024004000100044A5369D8
S31508000E3004490B40C0001843034B034353617047F2
S31508000E400020024007FEFFFF0200010070B5050002
S31508000E500E001C4B1B78012B32D01A4B01221A703C
S31508000E6000225A60FA208000FFF776FF002823D177
S31508000E702B68042B13D001235B4233606C686B68C4
S31508000E80AA689B18A34212D92000FFF7CFFFFA20C1
S31508000E908000FFF761FF002808D10134EFE7FFF76C
S31508000EA0BBFFFA208000FFF757FF05E03460064ACB
S31508000EB0536902218B435361024B00221A7070BD9D
S31508000EC00220FCE71C01002000200240A023DB05CD
S31508000ED098420DD01F4B984214D01F4B98421BD0F6
S31508000EE01E4B984222D01E4B984229D0012008E07A
S31508000EF01C4B5A6A01210A435A625A6A8A435A6241
S31508000F0000207047174B5A6A02210A435A625A6AE6
S31508000F108A435A620020F4E7124B5A6A04210A43AC
S31508000F205A625A6A8A435A620020EAE70D4B5A6A9D
S31508000F3008210A435A625A6A8A435A620020E0E73D
S31508000F40084B5A6A20210A435A625A6A8A435A62E5
S31508000F500020D6E70004005000080050000C00509E
S31508000F600014005000100240F0B5002216E00B698C
S31508000F709C46C4682B006B435E00F618F743B443DF
S31508000F8066465E433443C4604C68022C25D04D68DF
S31508000F9004683C406B432343036001320C6823001A
S31508000FA0D3403AD00123934025001D401C42F4D07B
S31508000FB04B68013B012BDAD88F6883682C006C4399
S31508000FC066003619B3437C4323438360CC68436881
S31508000FD0AB436C4323434360C9E7FF2D0DD84C69E7
S31508000FE0A446066A1C006C436C4325012D1BAE43C0
S31508000FF065466C4334430462C9E74C69A446466AAD
S315080010002D0A2C006C436C436C4325012D1BAE4303
S3150800101065466C4334434462B9E70020F0BD0000DE
S315080010201A4A116880235B000B43136001E0012B09
S3150800103009D0164B19688022D2000B0013401142C2
S31508001040F5D00123F3E7114A506811490840802179
S31508001050C90101435160002191600131FF311160DE
S3150800106001E0002809D0094A116880229202080086
S3150800107010401142F5D01800F3E7044B80225200C5
S315080010801A6000229A61013A1A62704700100240FB
S31508001090FF80FFFF014B18607047C0460000002024
S315080010A030B585B01B4B1878002830D11A4B1B6811
S315080010B001931A4B1B680293194B1B680393154B34
S315080010C001221A700400010012E03732D2B2154D1F
S315080010D06A540131C9B20133DBB2012B06D86A461C
S315080010E0D25C092AF1D83032D2B2F0E70134E4B240
S315080010F00B2C09D801AB1A5D13096D462B700F230B
S3150800110013406B700300E8E7064B00225A5405B0FB
S3150800111030BDC046340100205075FF1F5475FF1FAF
S315080011205875FF1F280000200048704734670008DC
S3150800113000487047C0660008004870479C6600086B
S3150800114010B51400012919D113785B069B0F022BE1
S3150800115001D0002013E05378012B01D000200EE0C7
S31508001160127963791B021343072B01D0002006E08E
S31508001170034AA733210003F037FB00E0012010BD26
S31508001180EC65000870B50400FFF78AFF002C0DD047
S31508001190062C24D8134BA400E4582000FEF7B4FF0D
S315080011A0C0B21F2800D91F2000230DE00D4B196877
S315080011B00D48022204F086FC012007E05A1CE55C73
S315080011C00A4B5100CD52D3B29842F7D801304300AA
S315080011D09BB20648C02292001343038070BD0020CC
S315080011E0FCE7C0460C0000203A0100203801002028
S315080011F072B6704762B6704710B5FFF7F9FF10BDB3
S3150800120010B500F0A9FA002800D110BDFFF728F89C
S315080012100028FAD000F08AFBFFF7BCFC00F0F4FACD
S3150800122000F09EFA054B1840054B986000F098FAB6
S315080012304468FFF7DFFFA047E7E7C04680FFFF1FC8
S3150800124000ED00E070B508E04D1C461C0B780370F5
S3150800125000F0FAFB300029002200541EA4B2002A2E
S31508001260F2D170BD70B50500002401E00134E4B286
S315080012702F2C14D800F0E8FB0A4A63001B199B00C0
S315080012809B58AB42F2D860000019800012185268C9
S315080012909B18AB42EAD9034B1B18187A70BDFF207E
S315080012A0FCE7C0464867000870B50500002401E061
S315080012B00134E4B22F2C0FD800F0C6FB084B6200AD
S315080012C0121992009B181B7AAB42F1D1044A6300AB
S315080012D01B199B00985870BD01204042FBE7C04689
S315080012E04867000870B50500002401E00134E4B23F
S315080012F02F2C10D800F0A8FB084B62001219920098
S315080013009B181B7AAB42F1D1044B6200121992006A
S315080013109B18586870BD0020FCE7C046486700085F
S3150800132010B5CB050BD103688B4201D1012007E02C
S3150800133002C080229200FFF785FF012000E000200E
S3150800134010BD0000F8B5CE46474680B58146006810
S31508001350FFF788FFFF2806D1002398464046C0BC01
S31508001360B946B046F8BDFFF7CFFC154B80221202EE
S315080013701A61002500E001353F2D18D84B461C6838
S31508001380EB00E4184B445E689F6800F05DFB320092
S315080013903B0021000120FFF70DFD8046002809D1FA
S315080013A022686368B24207D1BB42E4D004E0012355
S315080013B0984601E000239846FFF7BEFCCEE7C046F4
S315080013C00020024070B504000D000E4B984212D062
S315080013D00D4B994208D10B4C29002000FFF7A0FFBE
S315080013E000280CD0200070BDFFF7ACFF012804D1FF
S315080013F0002CF1D1F6E7054CEEE70024F2E70024CD
S31508001400F0E7C04678010020008000087C03002031
S31508001410F0B5C64600B505000C0016001F004B0ABD
S315080014205B0298460368013307D02B6843450AD107
S315080014302B68E41A2C19043414E04146FFF770FFB0
S31508001440002822D0F1E741462800FFF7BBFF051E1A
S31508001450EED1002019E03378237001340136013FBC
S31508001460002F11D000F0F0FA291D611A80239B0085
S315080014709942F0D329689C4661442800FFF7A2FFE9
S31508001480051E05D0041DE6E7012080BCB846F0BD60
S315080014900020FAE710B5040080231B0598420CD3F8
S315080014A0F8231B069C4664440D4B1B880D4A934241
S315080014B008D0002B0CD09B0206E00B480B4900F025
S315080014C0EFF9EDE780239B029C4204D2E00A10BDA7
S315080014D080239B02F8E70448054900F0E1F9F5E79F
S315080014E0A075FF1FFFFF0000885B00089D03000032
S315080014F09E03000070B584B00C0000230393884255
S315080015003BD80F283DD93F2901D9002436E0FFF7FB
S31508001510CBFE05002000FFF7C7FE06002000FFF7F8
S31508001520E1FE3618013E761B0136F60AB6B20223EC
S315080015300093013B0293FFF7E7FB134B802212024D
S315080015401A610024B44212D22800FFF7A3FF0190C3
S3150800155000F07AFA03A96846FFF778FC00280AD152
S3150800156080231B019C4665440134A4B2EAE70124A2
S31508001570FFF7E2FB02E00024FAE70024200004B0AB
S3150800158070BD0024FAE7C04600200240034B012242
S3150800159052421A60024B1A607047C0467C0300200C
S315080015A07801002070B504000D0016004A1E124B83
S315080015B01B1A9A4201D9002070BDFFF753FEFF2877
S315080015C011D028190138FFF74DFEFF280BD0630A02
S315080015D05B020A4A934208D009482B0032002100D0
S315080015E0FFF716FFE8E70020E6E706482B0032007B
S315080015F02100FFF70DFFDFE7FFFF01080080000865
S315080016007C03002078010020F8B506000C004A1E6D
S315080016100C4B1B1A9A4201D90020F8BDFFF722FE8F
S315080016200500A0190138FFF71DFEFF2D08D0FF2879
S3150800163001D10020F1E701002800FFF75BFFECE786
S315080016400020EAE7FFFF010800B583B000230193F5
S31508001650124B1B68013302D1012003B000BD0F4AAB
S315080016605368019391685B180193D1685B180193DD
S3150800167011695B18019351695B18019391695B18AD
S315080016800193D2699B180193DA4301925B42019355
S3150800169001AA04210248FFF785FFDEE7780100204A
S315080016A0C08000080E4B1B680E4A12689B180E4A2B
S315080016B01268D2180D4B1B689B180D4A1268D2186F
S315080016C00C4B1B689B180C4A1268D2180B4B1B68EC
S315080016D09B18002B01D1012070470020FCE7C0466B
S315080016E00080000804800008088000080C800008B4
S315080016F0108000081480000818800008C0800008C0
S3150800170010B50B4B1B68013305D10A4B1B68013317
S3150800171007D1012010BD0648FFF714FE0028F9D0AE
S31508001720F3E70448FFF70EFE0028F3D00120F1E79F
S31508001730780100207C0300200048704700800008DC
S3150800174010B5FFF723FF10BD10B5FFF72BFF10BD2F
S3150800175010B5FFF759FF10BD10B5FFF7A3FF10BD71
S3150800176010B5FFF7E9FF10BD10B5FFF76DFF0028AC
S3150800177000D110BDFFF7C4FFFBE7000030B583B00A
S31508001780194B1A6C802109010A431A641A6C0A401B
S315080017900192019A154A10689968090B07220A40AE
S315080017A01349920051581F220A40D0409A68E023F4
S315080017B0DB011A4216D1012358430E4C0125256038
S315080017C00D4BE3620D49FEF7A7FC0138A062636979
S315080017D02B4363610A4B00221A60626A094B1A801E
S315080017E003B030BD0223E7E70010024000000020E6
S315080017F0C8650008002C0140FFFF0000A086010014
S3150800180084050020800500200B4B196B80221201ED
S315080018100A431A631A6B09490A401A631A6C0A4082
S315080018201A64074B00221A605A609A60054B802298
S3150800183092045A607047C04600100240FFF7FFFF47
S3150800184010E000E000ED00E010B50C4B586A80B2DD
S315080018500B4B1C88001B80B263280DD96421FEF748
S315080018605BFC83B207490A68D2180A6064205843A9
S3150800187080B2034B24181C8010BDC046002C0140C2
S31508001880800500208405002010B5FFF7DDFF014B19
S31508001890186810BD8405002010B5FFF7F5FF10BDC8
S315080018A010B500F0D1F8FCE710B5FEF7CDFCFEF751
S315080018B0CDFC002800D010BDFFF7A2FCFBE770475F
S315080018C010B5FFF799FC00F0BBF8FFF757FFFFF7D5
S315080018D037FF00F01DF8FFF7E7FF10BD10B500F061
S315080018E0B3F8FFF7B1FF00F08FF8FFF7E8FF10BD78
S315080018F010B5FFF7C9FF014B186010BDC8050020D9
S3150800190010B5024B1870FFF7F3FF10BDCC05002089
S3150800191010B50020FFF7F4FF00F0B8F9FEF701FD57
S31508001920014B04221A7010BD4100002010B500209A
S31508001930FFF7E6FFFEF7F6FC10BD000010B5064BF4
S315080019401B78042B04D000F0BDF9FFF7D1FF10BDBA
S31508001950C9B2FEF7E9FCF6E741000020084B1A7801
S31508001960052A09D89300074AD3589F46812070470D
S315080019703F20FCE73F20FAE73F20F8E70820F6E794
S315080019804100002088690008084B1A78052A09D8FA
S315080019909300074AD3589F46812070473F20FCE7AB
S315080019A03F20FAE73F20F8E70820F6E74100002045
S315080019B0A069000810B500F07BF9002800D00120C6
S315080019C010BD000010B5FFF7F5FF012802D000246E
S315080019D0200010BD094B1C78012C01D00024F7E724
S315080019E0FFF752FF064B1B68C01A064B984201D8F0
S315080019F00024EDE70020FFF783FFE9E7CC05002088
S31508001A00C80500208713000000B583B00A486B4656
S31508001A10D91DFEF7A9FC012803D0FFF7D3FF03B0B1
S31508001A2000BD064B04221A70FFF76AFF6B46D97988
S31508001A30014800F0E5F9F0E788050020410000209C
S31508001A4010B5FEF71DFC10BD10B5FEF71EFC10BD47
S31508001A50024B4022002199547047C046D005002009
S31508001A60034BFE221A705970BA3A022199527047EE
S31508001A70D005002010B5064C3F230022E254FFF79C
S31508001A80E7FFFF232370BB3B0122E25210BDC0468D
S31508001A90D0050020074BFF221A7000225A704021F9
S31508001AA0595C9970DA701A715A7144320621995242
S31508001AB07047C046D005002010B500780021FFF712
S31508001AC0CFFF10BD10B500783121FFF7C9FF10BD53
S31508001AD010B500782021FFF7C3FF10BD70B5084C7C
S31508001AE0FF23237000256570A570FFF737FFE070A8
S31508001AF025716571A57144230722E25270BDC0465F
S31508001B00D005002070B50600FFF7A2FF0F4C01258F
S31508001B103F23E55472780D33E254B3332370002320
S31508001B20637010226270A370FFF718FFE070FFF76A
S31508001B302BFF2071FFF728FF000A6071A571E57178
S31508001B4044230822E252FFF7FBFD70BDD0050020B2
S31508001B5070B50400FFF702FF627890420FD90A4D6C
S31508001B60A96C681CFFF76EFBFF232B70AB6C6278C1
S31508001B709B18AB64637801334422AB5270BD20785E
S31508001B802221FFF76DFFF9E7D0050020F8B505001B
S31508001B901700002406E02B781C19E4B20135FFF77C
S31508001BA053FF31004E1E0029F5D13C600120F8BDD7
S31508001BB070B504000E4B9D6CFFF7D0FE411E621CEB
S31508001BC02800FFF7C1FD00280CD0094CFF2323701D
S31508001BD0FFF7C4FEA36C01381B18A3644423012233
S31508001BE0E25270BD20783121FFF73AFFF9E7C04687
S31508001BF0D005002010B50400FFF7B0FE0138637861
S31508001C00984215DD144BFF221A70BB3A01219952EE
S31508001C106178002911D0104B986CA21CFFF794FD2F
S31508001C20002813D00C4A936C61785B18936410BD36
S31508001C3020782221FFF714FFF9E7FFF795FD002822
S31508001C40F5D120783121FFF70BFFF0E72078312115
S31508001C50FFF706FFEBE7C046D005002010B5FFF7F3
S31508001C60CFFA064C3F230022E254FFF7F1FEFF238A
S31508001C702370BB3B0122E25210BDC046D0050020AE
S31508001C8010B589B2FFF75AFE10BD0000074B0022B7
S31508001C903F215A549A6403315A5402315A52002148
S31508001CA041329954013A99547047C046D0050020EC
S31508001CB0034B3F22985C002800D001207047C0469D
S31508001CC0D0050020024B4222002199547047C04695
S31508001CD0D0050020027843781B021A4383781B0438
S31508001CE01343C078000618437047000070B5040017
S31508001CF0FFF734FE6378984214D9201DFFF7EAFFF0
S31508001D0001000B4DA8646278681CFFF79BFAFF2355
S31508001D102B70AB6C62789B18AB64637801334422F2
S31508001D20AB5270BD20782221FFF79AFEF9E7C0462C
S31508001D30D005002010B5054CFF2323700430FFF7AB
S31508001D40C9FFA06444230122E25210BDD005002039
S31508001D5070B504000B4B9D6C0430FFF7BBFF010008
S31508001D602800FFF7F5FC002806D0064BFF221A705C
S31508001D70BB3A0121995270BD20783121FFF770FED8
S31508001D80F9E7C046D00500200870030A4B70030C1B
S31508001D908B70000EC870704730B583B0002501956A
S31508001DA00B4CFF2323700430FFF794FF0100A06C4F
S31508001DB001AAFFF7EBFE6070211D0198FFF7E4FF0B
S31508001DC0A570E57044230822E25203B030BDC04630
S31508001DD0D005002010B5084CFF232370074BA364D9
S31508001DE000236370A370E370211D0720FFF7CCFF63
S31508001DF044230822E25210BDD0050020906A00084C
S31508001E0010B504000078FF280DD0344B3F229B5CA8
S31508001E10012B15D103003733DAB2352A4DD8930092
S31508001E202F4AD3589F462000FFF76CFE2B4B4222C1
S31508001E309B5C012B45D0294B4422995E002945DC41
S31508001E4010BD2000FFF784FEF0E72000FFF74EFFE5
S31508001E50ECE72000FFF76EFFE8E72000FFF79CFF9E
S31508001E60E4E72000FFF7B6FFE0E72000FFF724FECF
S31508001E70DCE72000FFF70EFED8E72000FFF7FAFDA3
S31508001E80D4E72000FFF794FED0E72000FFF7B2FE64
S31508001E90CCE72000FFF722FEC8E72000FFF758FF2F
S31508001EA0C4E72000FFF7DAFEC0E72000FFF70AFEC6
S31508001EB0BCE72000FFF70CFEB8E72021FFF7D0FDAE
S31508001EC0B4E720781021FFF7CBFDB4E70348422397
S31508001ED0433AC254FFF7D4FEB2E7C046D005002005
S31508001EE0B869000870477047704770477047704771
S31508001EF07047000010B5031E01D0002010BDB420A5
S31508001F0058432030024BC018083001F043FCF5E76F
S31508001F10B006002010B50C00002801D0002010BD26
S31508001F20B421484301001831044BC9180831C05C74
S31508001F301300220003F078FDF1E7C046B006002042
S31508001F4010B50C00002801D0002010BDB42148436C
S31508001F5001000831044BC9180431C05C1300220083
S31508001F6003F0A3FCF1E7C046B006002010B5002830
S31508001F7001D0002010BDB423434319000831034A99
S31508001F8089180431985C03F059FCF3E7B006002081
S31508001F90F0B5CE46474680B585B02848B42200211C
S31508001FA003F064FD0025002D04D005B0C0BCB94679
S31508001FB0B046F0BD214EB4246C433319FF22DA72C1
S31508001FC0E12252025A6000221A725A7208329A7232
S31508001FD0230070339B190433EA00914651190A010C
S31508001FE0174988464244200018308019083040278F
S31508001FF0039702920197009300230022002103F021
S31508002000CCFB21003031891904314B465A1913018A
S31508002010403343441A000B4B1B785B07DB0F08342D
S31508002020A01904300397029201970091012200211A
S3150800203003F0B3FB0135EDB2B5E7C046B0060020A4
S31508002040200600204400002070B50025002D01D090
S31508002050012070BDB4246C4320001830064E801948
S31508002060083003F0B6FB0834A019043003F0B1FBBE
S315080020700135EDB2EAE7C046B0060020F8B50025FE
S31508002080002D00D0F8BDB4246C430C4FE619042289
S315080020900021300003F0EAFC094B19784907C90FFB
S315080020A01034E019043001F0F9FB32002132002324
S315080020B0137073730135EDB2E2E7C046B00600202F
S315080020C044000020F0B5DE46574680B583B0009040
S315080020D00C004B79022B00D0DDE08B79022B00D067
S315080020E0DFE00027002F10D0FF27002F00D0DAE00E
S315080020F00197734BB42179430098C854A0785B18AC
S315080021005870A6182578651912E06D4BB4217943E5
S315080021105B1821331B78002BE7D0694BB421794330
S315080021205B185B7B002BE0D00137FFB2DAE71D00B6
S31508002130B54206D22B78EB189E4202D36A78242A37
S31508002140F5D06B78052B05D06B78042B13D0281B9C
S3150800215080B2A1E02900009801F062FF002800D1B2
S31508002160A3E0A978564BB422019842439B1899706C
S315080021702B78ED18E8E76B790A2BE8D12B0038E0C5
S31508002180B333019A5343190008314D4A891804316B
S315080021908B46D2185073534618795B791B02034352
S315080021A05B055B0D474884466344584243415B00E0
S315080021B0107B0221884303431373434B1B789B0709
S315080021C004D55946009803F039FB0FE0B420019B6B
S315080021D0584310303A4BC018043001F05AFB05E05A
S315080021E05946009803F0B6FB002866D00137FFB2BF
S315080021F053462A79BA424BD9B34249D21A789246FB
S315080022009A44564544D353465B78052B4FD15346DB
S31508002210DA7803231340022B4BD15146009801F07C
S31508002220FFFE002847D053469878C309012BA7D04C
S31508002230B423019A534319001831214A8C46944411
S3150800224008218B46E344D2181300213318705346ED
S3150800225019795B791B020B435B055B0D19498C46A3
S31508002260634459424B4118325B00117A022081437C
S315080022700B431372144B1B78DB07B1D4B230019BA6
S31508002280584320300E4BC018083001F002FBA7E770
S315080022901D785D195BE7002003B0C0BCBB46B2469B
S315080022A0F0BD0020F8E70020F6E70020F4E700205C
S315080022B0F2E70020F0E70020EEE70020ECE7C04652
S315080022C0B006002000FEFFFF44000020F8B5140009
S315080022D0127860231340202B00D082E00025002DC1
S315080022E00ED0002D00D07EE06378222B3CD017D884
S315080022F0202B1FD0212B11D101292ED0012071E0CE
S31508002300B4266E43394BF6187278277963791B021F
S315080023103B439A42E5D00135EDB2E0E7002061E0A3
S31508002320232B05D101294ED0032951D0012059E08C
S31508002330002057E0012903D0032908D0012051E0E5
S31508002340321D0723210002F04FFA01204AE0311D11
S315080023502800FFF7CCFD012044E0321D07232100A9
S3150800236002F042FA01203DE0012903D0032906D0F4
S31508002370012037E0210002F023FA012032E0A2789A
S31508002380E3781B0213430124210019400C005A0864
S3150800239001271740F370164B1B785B070DD54B4288
S315080023A05941C9B23000143001F078FA3A002100D8
S315080023B02800FFF79BFD012014E0300014300021AF
S315080023C001F06CFAF2E7210002F0FAF9012009E0BF
S315080023D0A378E178090219432800FFF789FD01204F
S315080023E000E00020F8BD0020FCE7C046B00600204B
S315080023F044000020F0B5DE464F464646C0B582B0DA
S3150800240001900D0099460024002C2ED0FF24002CA4
S3150800241000D09CE02700B4226243110018314D4BCE
S31508002420C91808208046884411000831C9180431A3
S315080024308B469B1821331B78AB4233D0454BB422CD
S315080024407A439B185B7BAB4200D16BE0414BB422CD
S315080024507A439B189B78AB4200D173E0012002B007
S31508002460E0BCBB46B146A846F0BD2200394BB421B4
S3150800247061435B1821331B789D42C8D0354BB42184
S3150800248061435B185B7B9D42C1D0324BB4214A4302
S315080024909B189B789D4202D00134E4B2B4E7002D24
S315080024A0FAD0B4E743469B89002B08D1294BB422BE
S315080024B07A439B18DB7AFF2B24D000260CE0254BA9
S315080024C010009A18516A4A4692B22030C01808304D
S315080024D001F0DAF9EAE701364E4513D21D4BB4226C
S315080024E07A439B18D97A5B6A9B5D9942F3D1434636
S315080024F01A8A92B25B8A9BB29A42ECD02000FFF706
S31508002500F2FCE8E743461A8A92B25B8A9BB29A4281
S3150800251004D14146019803F01DFA8FE72000FFF722
S31508002520E1FCF6E72000FFF7DFFC5946019803F0C7
S3150800253085F9002800D089E74A465946019803F0EC
S315080025404AF983E72000FFF7D0FC012087E700203F
S3150800255085E7C046B0060020034B02229A70002287
S31508002560DA701A717047C0466409002030B583B026
S31508002570069C6D462B706C70230AAB70240CEC70AD
S315080025802A7100236A466B71063302F02DF903B0EF
S3150800259030BD000030B583B004001500012905D010
S315080025A0032919D00124200003B030BD144B1B7930
S315080025B0002B0AD100200522114BDB780090290058
S315080025C02000FFF7D3FF0400EDE70D4B58780331E1
S315080025D0FDF753FF0422EFE7094B1C79002C04D1C1
S315080025E0074B05229A700124DDE71800042383703F
S315080025F00389044AC1884078FDF74CFFD3E7C046F3
S31508002600640900206407002030B583B00400150073
S31508002610012905D0032919D00124200003B030BDB3
S31508002620124B1B79002B0AD1002002220F4BDB78B4
S31508002630009029002000FFF799FF0400EDE70B4BF7
S3150800264058780631FDF719FF0722EFE7074B1C7983
S31508002650002C04D1054B02229A700124DDE70722DB
S315080026609A705878FDF75EFFD7E7C04664090020E0
S3150800267010B5034B00221A705A70FFF76DFF10BD94
S315080026806409002010B50020FFF7F2FF10BD0120F5
S315080026907047000030B58D788B79012B24D1CB7922
S315080026A0022B23D10020002305E00133DBB20C788E
S315080026B0201880B209198C79012C0CD1CC79022CFE
S315080026C009D1904214D28C78AC4213D1CC789C4272
S315080026D0EBD0002009E04B78212B0DD1093080B2D0
S315080026E08A78064B1A7000E0002030BD0020FCE70F
S315080026F00020FAE70020F8E70020F6E76409002042
S3150800270070B582B00500140012781F231340012B00
S3150800271000D0E4E05F331800104013421ED16378FE
S315080027200A2B10D00B2B00D0DCE0012901D00120A8
S31508002730D6E0A278724B5A70FFF70EFF21002800E8
S3150800274002F03EF8CCE0012901D00120C8E06D4A2C
S3150800275001232100280002F047F8C1E0202800D014
S31508002760C2E06378062B00D9C0E09B00664AD358BE
S315080027709F46012903D0032907D00120B0E0210094
S31508002780280002F01DF80120AAE0FDF7F4FE01205A
S31508002790A6E0012901D00120A2E0FFF7DDFE210015
S315080027A0280002F00DF801209AE0012901D0012045
S315080027B096E0564A01232100280002F015F8012068
S315080027C08EE0012903D0032909D0012088E0FFF70C
S315080027D0C3FE2100280001F0F3FF012080E0484BEA
S315080027E05878FDF7C7FE01207AE0012901D00120BB
S315080027F076E0434B1B789B0700D479E0A279E3790E
S315080028001B02134380229200934201D9002067E0FD
S31508002810A278E178090211433D4A39484078160002
S31508002820FDF78BFE030032002100280001F0DCFFD3
S3150800283056E0012901D0012052E0314B1B78DB0715
S3150800284058D52F4B9B78022B01D0052B54D1A27952
S31508002850E3791B0213438022920093424ED8284BF9
S3150800286001221A71A178E27812020A43DA80A17964
S31508002870E27912020A431A81A279E3791B02134309
S3150800288008D01F4A03219170214A2100280001F02F
S31508002890ABFF25E01A4B06229A702100280001F0AA
S315080028A08FFF1DE0164B9A78032A05D0062A08D012
S315080028B001290BD0012013E022002800FFF76AFE49
S315080028C00EE022002800FFF79FFE09E00C4BDB789C
S315080028D00021009121002800FFF748FE00E00020B3
S315080028E002B070BD0020FBE70020F9E70020F7E7FB
S315080028F00020F5E70020F3E70020F1E70020EFE7E6
S315080029006409002065090020986A00086609002005
S31508002910640700200E4B00221A71002812D19B78FA
S31508002920042B09D0072B11D1094B1B785B0707D558
S315080029300622074B9A7009E0054B03329A7005E0A8
S315080029400822F6E7024B0A229A70D8707047C046EA
S315080029506409002000233822835403634363013249
S3150800296083540132835401328354704770B504008E
S31508002970C57F2E23C15C280001F03CFC002823D12A
S31508002980227A637A1B021343A27A12041A43E37A61
S315080029901B061343626B934202D9217BC90914D1E2
S315080029A0E67F9B1AA36238230322E25421002031D2
S315080029B0094D0A32280003F085F82E23E15C213BF5
S315080029C02A00300001F098FB70BD2E23E15C280038
S315080029D001F0DCFB0120F7E77009002030B5827DA5
S315080029E0C37D1B0213435CBAA4B2017A427A12026F
S315080029F00A43817A09041143C27A12060A4303D1AB
S31508002A00002B16D1002030BDC17B282907D02A29E2
S31508002A100AD0002B0FD0A2420FD30020F3E7057B84
S31508002A20ED09F4D10220EEE7017BC909F1D00220B5
S31508002A30E9E70220E7E70120E5E70220E3E7704738
S31508002A407047704770470120704701207047122071
S31508002A507047000010B50448392401553A214254FC
S31508002A603B228354012010BD700B002070B5040072
S31508002A70C57F0300203319738368426B9B1A28228B
S31508002A808354190A01328154190C013281541B0EE0
S31508002A90013283543823293AC2540133C35C002BCC
S31508002AA022D0227A637A1B021343A27A12041A43AB
S31508002AB0E37A1B06134316D02823E25C0133E35C52
S31508002AC01B0213432A22A25C12041A432B23E35C3B
S31508002AD01B06134307D0237BDB090BD02E23E15CAF
S31508002AE0280001F053FB70BD407B1E320521FFF71D
S31508002AF0B1FFD6E72F23E15C280001F047FBF2E798
S31508002B0010B584B00400C07F002912DC4B1C18D015
S31508002B10002914D12E23E25C01AB187007215970E5
S31508002B201A71002203925A710021180001F046F921
S31508002B3005E08BB2084A2E21615C01F0DDFA04B08B
S31508002B4010BD607B00233A220221FFF783FF012193
S31508002B502000FFF78BFFF2E770090020F0B5C646A4
S31508002B6000B582B00400827DC37D1B02134359BAA7
S31508002B7089B2002B0FD0037A427A12021A43837A5B
S31508002B801B041343C57A2D061D432800FDF7C4FA16
S31508002B9086B2002E03D102B080BCB846F0BD637C75
S31508002BA0A27C12021A43E37C1B041343277D3F06CB
S31508002BB01F433FBA636B984631001800FDF7ACFA1D
S31508002BC0C71931004046FDF72DFB0A004346ED1AAA
S31508002BD080239B009D4200D91D003C230121E1541E
S31508002BE0607B074B00953900FDF790FD0100831CBB
S31508002BF0D1D03C230022E2542000FFF781FFCAE728
S31508002C007009002010B50400407BFDF7B3FD0028CD
S31508002C1018D0227A637A1B021343A27A12041A4343
S31508002C20E37A1B061343626B9B1A80229200934237
S31508002C3000D913009BB2094A2F21615CE07F01F09D
S31508002C405BFA10BD607B002327220721FFF702FFEE
S31508002C5001212000FFF70AFFF3E7C04670090020AC
S31508002C6030B585B00400002A13DB8A4226D28D1AB5
S31508002C70002A1DDCE27F2F23E35C01A802700722ED
S31508002C8042700371856000234371002101F096F8B4
S31508002C9001E0013201D005B030BD407B00233A2265
S31508002CA00221FFF7D7FE01212000FFF7DFFEF2E73A
S31508002CB0094881182A0002F0C7FEDBE7436B5B1858
S31508002CC04363026B934203D338230222C254E2E7DA
S31508002CD0FFF798FFDFE7C04670090020F0B5C64643
S31508002CE000B582B004000D00827DC37D1B0213432C
S31508002CF059BA89B2002B0ED0037A427A12021A43C5
S31508002D00837A1B041343C07A00061843FDF704FAB6
S31508002D1087B2002F03D102B080BCB846F0BD637CF1
S31508002D20A27C12021A43E37C1B041343267D360653
S31508002D301E4336BA636B984639001800FDF7ECF95E
S31508002D40861939004046FDF76DFA0A003C23012131
S31508002D50E154607B074B00953100FDF70DFD02003D
S31508002D60831CD8D03C230021E15429002000FFF71A
S31508002D7077FFD0E770090020F0B5C64600B588B0E1
S31508002D80050014001E000B78252B00D938E19B009E
S31508002D90A24AD3589F46FDF791FC002800D036E199
S31508002DA09F4B39229B5C002B02D00126764229E1F3
S31508002DB0013202212800FFF74DFE0126764221E165
S31508002DC00B791909DA07D20F9B07DB0FFDF78EFC83
S31508002DD0002800D01DE1924B39229B5C002B02D0C3
S31508002DE0012676420EE1013202212800FFF732FE63
S31508002DF00126764206E10B794A791900FFF725FE86
S31508002E00002800D007E1864B39229B5C002B02D0B4
S31508002E1001267642F6E0013202212800FFF71AFE63
S31508002E2001267642EEE06B469F1D3A0002A9FDF7A1
S31508002E3055FC3A88029B002B01D0002A0FD1784B0B
S31508002E4039229B5C002B02D001267642DAE0013259
S31508002E5002212800FFF7FEFD01267642D2E0013B5B
S31508002E601BBA039312BA0492002C08D0072E06D96F
S31508002E70082203A9200002F025FE0826C2E0002643
S31508002E80C0E00C22002103A802F0F0FD08236A46E0
S31508002E90D373063B1375063202A92800FDF71EFCFC
S31508002EA0029B002B04D06A4606321288002A0FD1EC
S31508002EB05B4B39229B5C002B02D001267642A1E0AF
S31508002EC0013202212800FFF7C5FD0126764299E066
S31508002ED01BBA03A9049352BA4A81002C07D00B2EB9
S31508002EE005D90C22200002F0EDFD0C268AE000260A
S31508002EF088E024220021200002F0B8FD62788023B1
S31508002F005B42134363700223A370E3780F22934353
S31508002F1002221343E3701F23237132002100280085
S31508002F20FDF7A0FB061E6DD12100083122001032E4
S31508002F30230020332800FFF782FD243662E003AF22
S31508002F4003233B7000227A70BB787F218B43BB70CA
S31508002F50DBB288460B40BB70FA70FDF70BFC012309
S31508002F604340DBB2DB01BA7841460A401343BB70E3
S31508002F70002C08D0032E06D904223900200002F0BE
S31508002F80A1FD04263EE000263CE003AF1222002104
S31508002F90380002F06BFD3B787F229343702213437F
S31508002FA03B70DAB280235B4213433B700A23FB7102
S31508002FB01B4B39229A5C0F211140BA780F208243A5
S31508002FC00A43BA703A229A5C3A733B229B5C7B733B
S31508002FD0002C13D0112E11D9293A3900200002F0FD
S31508002FE071FDB2B221002800FFF731FD060000236B
S31508002FF0002200212800FFF72DFD03E0002601E04E
S3150800300001267642300008B080BCB846F0BD0026DE
S31508003010F8E70026F6E70026F4E7C046B46A000893
S31508003020700B002010B503484022002102F01EFD57
S3150800303010BDC046700B002010B503484022002181
S3150800304002F014FD10BDC046700B002010B582B00A
S315080030504B79082B2AD18B79062B2AD1CB79502B81
S3150800306029D1162A01D8002021E08C78134B2D226D
S315080030709C54D8770A7889181A002E3201922F3371
S3150800308000930223022200F0E5FF002801D1002068
S315080030900DE00A4BD87F382200219954084A2F316F
S315080030A0595C1F2301F028F8172000E0002002B021
S315080030B010BD0020FBE70020F9E7C046700B002092
S315080030C070090020F0B583B005001400012900D06E
S315080030D095E012787F231340022B17D06023134004
S315080030E0202B00D08EE06378FE2B6AD0FF2B00D011
S315080030F08AE0A278E3781B02134300D086E0A2791F
S31508003100E3791B02134353D0002079E06378012B3F
S31508003110E4D1A178E3781B020B43DFD121793C4B3C
S3150800312038229A5C042A26D0394B2E201C5C8C4205
S3150800313024D0374B2F201C5C8C4221D1002A1FD16A
S315080031402100280001F014F806002100280001F0EB
S3150800315051F8002E14D1002812D12D4BD87F3822D1
S31508003160002199542B4A2F31595C1F2300F0C4FFC4
S31508003170002845D004E001F009F801E0022A01D050
S3150800318001203DE0D87F9A68596B521A9A62382214
S31508003190032199541F4A20331100E0CBE0C11B7864
S315080031A00B700D23210000F0A7FF0028E8D127E0C7
S315080031B01748FFF7CFFB2100280001F001FB01208B
S315080031C01EE0A278E3781B02134305D1A279E379BE
S315080031D01B021343012B01D0002011E0FFF733FC3B
S315080031E06B46D8710028F7D06B46DA1D0138107087
S315080031F001232100280001F0F7FA012000E0012050
S3150800320003B0F0BD0020FBE70020F9E70020F7E750
S31508003210700B002070090020F8B504009E4A38207B
S31508003220125C012A00D1BDE0032A00D1FAE0002A87
S3150800323000D0FCE0984A0938105C884200D027E1A3
S31508003240964A12681F2B02D1954B9A420FD0924D7F
S3150800325038230422EA540A3BE95C200000F096FF72
S315080032602F23E95C200000F091FF0020E5E08A4A60
S315080032708A4B1100E0CBE0C1E0CBE0C11D680D60D0
S315080032809D888D809B798B71864B13625368536238
S31508003290002191622C23D1540C330125D55495680D
S315080032A015635163D67B282E10D02A2E0ED0002DFA
S315080032B030D0794B1B7BDB092CD180239B009D42A8
S315080032C01ED975480121FFF7D1FBB0E07248FFF718
S315080032D085FB011E07D1002D0DD0282E07D06E487C
S315080032E0FFF790FCA3E06C48FFF7C0FB9FE06A4835
S315080032F0FFF734FC9BE0684B38220221995496E08C
S31508003300ABB2664A0100200000F0F6FE002800D0A5
S315080033108DE092E08023614A634908000F38407BBC
S315080033209B00FFF729FD00280ADB002822D15A4B0B
S315080033309B68002B19D1584B38220221995476E004
S31508003340554B39229B5C002B06D00028EDDA5248F3
S315080033500121FFF78BFB6AE04F48038E4F4A0100B5
S315080033600F31407BFDF7D2FAEFE74B480121FFF713
S315080033707DFB5CE0484B9B68002B04D14648012145
S31508003380FFF774FB53E0834200D9030042490B63FD
S315080033909BB2424A2E20095C200000F0ADFE0028B0
S315080033A045D14AE080229200934200D972E03A4A17
S315080033B0D27B282A12D02A2A20D0374A516BC9181C
S315080033C05163137BDB091ED0334B5A6B1B6B9A4236
S315080033D02DD3314B38220221995428E02E494A6BC5
S315080033E0D3184B630A6B934204D30B00382202218D
S315080033F099541CE02848FFF7B1FB18E02648190045
S31508003400FFF76CFC13E01000138E244A01000F31FD
S31508003410407BFDF77BFA0028D6DA1F480121FFF723
S3150800342025FBD1E71C4A2E20125C8A4206D01A4B8D
S3150800343038229B5C022B27D00120F8BD0D2BF6D134
S31508003440154BDB7B282B08D02A2B18D016490B00E6
S315080034500F3B587BFFF7F6FA03E00F4B587BFFF755
S31508003460EFFA0D4BD87F3822002199540B4A2F3199
S31508003470595C1F2300F040FE0028D8D1DDE7064B33
S31508003480587BFFF7DEFAECE70348FFF76FFAD4E755
S315080034900120D2E70020D0E7700B00207009002039
S315080034A055534243555342537F0B002003008A1855
S315080034B090B2814202D85A00904203DB5B009BB26D
S315080034C0C01A80B2704770B505000800AC889A42E9
S315080034D00BD3D11A89B200291ED08C4210D294423D
S315080034E009D8121B93B26B810AE0D11A89B2660019
S315080034F0891989B2EFE7A21893B2F4E71B1B9BB2AE
S315080035009C42FBD92968EA885204520C5343C918CD
S3150800351002F0D8FA012070BD0020FCE7F8B5CE46C7
S31508003520474680B505008C4608A909788488E01ABC
S3150800353080B21C1B1419A4B2EF887F047E0C070006
S315080035407743BFB27443A4B2A1462C68A04673431E
S315080035504344002906D1904208D3724319006046B5
S3150800356002F0B0FAC0BCB946B046F8BD3A00190038
S315080035706446200002F0A6FA2968E0194A4602F0D5
S31508003580A1FAEFE7F0B5C64600B582B01E0008AB53
S315080035901B8809AC277884889E420FD3F51AADB2EA
S315080035A0002D1FD0AC4205D2B44210D8331B9BB2B3
S315080035B04381250095420FD315000DE0F51AADB2EB
S315080035C0A8466500AC4645466544ADB2E8E7A61987
S315080035D0B3B2EDE71B1B9BB29C42FBD900972A00AE
S315080035E0FFF79CFF280002B080BCB846F0BD30B596
S315080035F083B004001D0003899BB2408901950090A1
S315080036002000FFF7BFFF0500618989B2A0882A005C
S31508003610FFF74CFF6081280003B030BDF8B5CE46F1
S31508003620474680B505008C4608A90878AC88E11A93
S3150800363089B21C1B1419A4B2EF887F047E0C0F00F4
S315080036407743BFB27443A4B2A1462C68A04673431D
S315080036504344002806D1914208D3724361461800B4
S3150800366002F030FAC0BCB946B046F8BD3A00644626
S315080036702100180002F026FA2868E1194A4602F0E5
S3150800368021FAEFE7F0B585B006000391171E0293FD
S315080036905DD00489A4B2418989B2C379DB0918D1FE
S315080036A083888C420FD3611A89B28B4253D95B1A2D
S315080036B09BB23A1C9F4200D91A1C95B2002D47D0DE
S315080036C0B288230033E0611A89B25A00891889B290
S315080036D0EBE7858895420ED8029B002B21D1531B18
S315080036E0C7887F047F0C5F43039B9C46BC446346A4
S315080036F003930C00E2E78C420DD3631A9BB2DB19E5
S315080037006A0093420FDBEA1B92B22800FFF7CEFE4F
S3150800371004003D00D2E7631A9BB26A009B189BB26D
S31508003720EDE70C00CAE73D00C8E79B1A9BB29A4230
S31508003730FBD9029A00922A0003993000FFF76EFF20
S31508003740B0882A002100FFF7B1FE308100E015009D
S31508003750280005B0F0BD0025FAE730B503AC24789B
S3150800376080252D02AA4213D8016082805B045B0C77
S31508003770C288D20BD2031343C380E401C2797F23E4
S3150800378013402343C371002343810381012030BDC5
S315080037900020FCE7818803899BB2428992B2934252
S315080037A007D39B1A9BB2081C994200D9181C80B2F1
S315080037B070479B1A9BB24A009B189BB2F3E7818815
S315080037C003899BB2428992B2934206D39B1A9BB253
S315080037D000208B424041C0B270479B1A9BB24A00F8
S315080037E09B189BB2F4E7828803899BB2418989B208
S315080037F08B4206D35B1A9BB29A4208D9D01A80B27A
S3150800380070475B1A9BB251005B189BB2F4E7002025
S31508003810F6E770B50400028992B243899BB2FFF7B6
S3150800382052FE0500618989B2A0882A00FFF73EFE8C
S315080038306081280070BD10B50023FFF7D8FE10BDC3
S3150800384070B504000E000589ADB2FFF7B8FF002871
S3150800385002D0E079C00916D0A2882B0001E09B1A95
S315080038609BB29A42FBD92068E2885204520C534311
S31508003870C018310002F026F9A08801222900FFF7B6
S3150800388015FE2081012070BD10B50023FFF7FAFE52
S3150800389010BD00234381038101207047C379DB09EA
S315080038A08B4205D0C901C2797F2313400B43C371EC
S315080038B00120704710B504000A00018989B2808882
S315080038C0FFF7F4FD208110BD10B504000A004189F8
S315080038D089B28088FFF7EAFD608110BD70B504895A
S315080038E0A4B243899BB282889C4211D3E51AADB231
S315080038F0AA4205D2A24211D8A31A9BB24381150047
S31508003900002D10D100230B804B804B608B6070BD5F
S31508003910E51AADB25600AD19ADB2E9E713199BB277
S31508003920ECE7A41AA4B2A242FBD901E09B1A9BB207
S315080039309A42FBD90268D2184A60A34204D20D8083
S3150800394000234B808B60E2E78288D41A0C809B1A8E
S31508003950ED184D8003688B60D9E770B503899BB273
S31508003960428992B2858893420DD39C1AA4B2A54285
S3150800397003D92C1BA4B2002C0DD100230B804B803D
S315080039804B608B6070BD9C1AA4B26E00A419A4B2D9
S31508003990EDE75B1B9BB29D42FBD901E0521B92B23D
S315080039A09542FBD90568ED184D609A4205D9D21A99
S315080039B00A8000234B808B60E4E78288D51A0D8045
S315080039C09B1AE4184C8003688B60DBE770B505002A
S315080039D000240DE0E31ADBB2022B2BD8DA00D31849
S315080039E09B00154A9B18DB68280098470134E4B207
S315080039F0124B1B78DA1CD2B2A2420AD9A342E9D9E1
S31508003A000F4B1B68E200121992009B18002BEAD193
S31508003A1010E00C4C34220021200002F027F8201D6B
S31508003A201022FF2102F022F8200014301022FF2174
S31508003A3002F01CF870BDC046F86B0008740C002034
S31508003A40780C0020800C002010B5002804D0054B07
S31508003A50187801F069FA10BD024B187801F069FA76
S31508003A60F9E7C0465800002010B5FFF7AFFF00F091
S31508003A70EFFE10BD70B505000C001600486900F091
S31508003A80F1FE6369320001212800984770BD0000E5
S31508003A90F0B5DE4657464E464546E0B583B0804605
S31508003AA00139C8B2FDF744FB002800D187E0437806
S31508003AB09A46022B00D084E0C5796C110122484B46
S31508003AC01440240119781026B14321431970AD1109
S31508003AD02A405201C9B22024A1430A431A7007009A
S31508003AE009378278C3781B021343C618B74264D2D3
S31508003AF07B780B2B09D001239B467B78042B68D156
S31508003B00F31B9BB29946002438E0FB789B463B782A
S31508003B10FF18F2E7E31ADBB2022B5ED8DD00ED18D8
S31508003B20AD00304BED1839E02A692F4B9A4242D145
S31508003B30D34640E02A49CB181C710132D2B29345CC
S31508003B4009D9BB789B18DBB22549C9180979FF2919
S31508003B50F0D0002036E025482300019D2A003900D0
S31508003B6001F008FEAC466744214B1B780333DBB2F1
S31508003B70A342BBD8002025E00134E4B21C4B1B78D5
S31508003B80DA1CD2B2A242EFD9A342C3D9194B1D6897
S31508003B90E3001B199B00ED18002D1CD02B694A4623
S31508003BA039004046984701900828E5D98145E3D36E
S31508003BB05B46012BB8D00022C1E7012002E00020B5
S31508003BC000E0002003B0F0BCBB46B246A946A046BA
S31508003BD0F0BD0020F6E70020F4E70020F2E7C04633
S31508003BE0800C0020F86B0008C5200008940C002003
S31508003BF0740C0020780C002070477047002070472E
S31508003C000020704770B505000C00CB7888780F2B1C
S31508003C1047D89A0029498A589746FDF785FA021E19
S31508003C2041D012232100280000F0DEFD3AE0FDF71E
S31508003C3083FA021E39D08178C3781B020B43210010
S31508003C40280000F0D1FD2DE0022B0CD0FFF7D8FF9D
S31508003C50021E2CD09178D3781B020B432100280032
S31508003C6000F0C2FD1EE0FDF763FA021EF2D1002045
S31508003C7018E02379617909021943FDF783FA021ED0
S31508003C8017D003782100280000F0AEFD0AE0FFF700
S31508003C90B5FF021E0FD003782100280000F0A4FD0E
S31508003CA000E0002070BD0020FCE70020FAE70020B5
S31508003CB0F8E70020F6E70020F4E7C0464C6B00085A
S31508003CC0704770477047704700230370002070479D
S31508003CD010B5034B187801F067FA012010BDC046ED
S31508003CE058000020034B1878FF38431E9841C0B28D
S31508003CF07047C04658000020F8B506000D00FFF7CB
S31508003D00F1FF071E43D1002D41D02448342200215B
S31508003D1001F0ACFE224B00221A70224C2000FFF75D
S31508003D20B8FD214B043C1C60204C2000FFF7CCFF5B
S31508003D301F4B18602378FC2B29D800240EE0E31AC1
S31508003D40DBB2022B23D8DA00D3189B00194A9B183A
S31508003D505B68002B1BD098470134E4B2134B1B78E1
S31508003D60DA1CD2B2A2420AD9A342E8D9104B1B6880
S31508003D70E200121992009B18002BE9D107E00E4BBE
S31508003D801E702900300001F023FA071E01D1380001
S31508003D90F8BD300001F0C8F8F9E7C046800C0020ED
S31508003DA07C0C00204C000020B00B0020740C002076
S31508003DB0780C0020F86B000858000020F0B5C646BD
S31508003DC000B584B005000E004378072B12D89B0077
S31508003DD08C4AD3589F468C4B1A7801218A431A700D
S31508003DE01A7801318A431A7000225A701A780231F9
S31508003DF08A431A70854B1F68002E02D13B68002043
S31508003E009847381D2900FFF71BFD0400002E02D134
S31508003E103B6801209847002C00D0EDE004B080BC38
S31508003E20B846F0BD784B1B78DB07F7D5764A13788A
S31508003E3004210B431370DDE7734B1B78DB07EDD5C5
S31508003E40714A137804218B431370D3E7E31ADBB264
S31508003E50022B0AD8DA00D3189B006D4A9B181B6AF6
S31508003E60002B02D02878696898470134E4B2694B78
S31508003E701B78DA1CD2B2A2420CD9A342E6D9664B09
S31508003E801B68E200121992009B18002BE7D1ECE799
S31508003E900024ECE75C4B1B785B0721D55A4A13785C
S31508003EA004218B4313700C22002101A801F0DEFDCA
S31508003EB02B786A46137105235371544B1F68002EDD
S31508003EC002D13B6800209847381D01A9FFF7B8FCC6
S31508003ED00400002E02D13B6801209847002C2AD105
S31508003EE0494BDB78DB0799D50C22002101A801F0A4
S31508003EF0BDFD2B786A461371032353716B680293D1
S31508003F00424B1D68002E02D12B6800209847281DB9
S31508003F1001A9FFF795FC0400002E02D12B680120A9
S31508003F209847002C00D179E701AB18785978320008
S31508003F30FFF762FE72E701AB187859783200FFF78F
S31508003F405BFECDE7354A13780133DBB2137051E7D0
S31508003F5001790F231C000C40CF090B4200D149E719
S31508003F60294B62009B18DB191B7D2A4A127893425B
S31508003F7008D2294A1268D800C3189B00D218002A0A
S31508003F800AD137E79B1ADBB2022B00D932E7DA00EF
S31508003F90D21892001E4BD218D369002B00D129E7FC
S31508003FA0194B60001B18DB192020804698444346AD
S31508003FB018790123984343461871187904239843BE
S31508003FC043461871D369984628786A79AB68C0471A
S31508003FD001235840C0B2002800D11FE70A4B6400ED
S31508003FE01B19DB1920331A7901210A431A711A7928
S31508003FF004210A431A71FDE6287869783200FFF72A
S31508004000FBFD0BE78C6B0008800C0020B00B002032
S31508004010F86B0008740C0020780C00207C0C00203B
S3150800402070B50C00094B1D788B781B0701D500204D
S3150800403070BD074B99780022200001F043FB002849
S31508004040F6D02100280001F0F5F9F1E75800002024
S31508004050800C0020F8B5CE46474680B581460C0050
S3150800406017001E00089B9846002504E0099A13705D
S315080040702378E4180135AF4214DD6378052B16D191
S31508004080E1788907890FB14213D121004846FFF725
S31508004090C7FF002807D0A378DA09012AE6D04246E6
S315080040A01370E5E70120C0BCB946B046F8BD00204C
S315080040B0F9E70020F7E7000010B50F200840C90906
S315080040C0400040182030034BC0180430002101F08E
S315080040D0CBFA10BD800C002010B50F200840C90986
S315080040E0400040182030034BC0180430002101F06E
S315080040F0D8FA10BD800C0020F8B5CE46474680B5E4
S31508004100194800780F250D40CE09184C6F00E419A0
S31508004110A41920342479E40704D50020C0BCB94684
S31508004120B046F8BD114CE419A4192027B946A14494
S315080041304C4624790127BC4667463C4327004C4633
S31508004140277101F00BFA0028E8D1084B6D005B19BE
S315080041509B1920331A7901218A431A711A79033176
S315080041608A431A71DAE7C04658000020800C0020FE
S315080041700F220A40C909044B52009B185B182033CA
S315080041801879C007C00F7047800C002070B50A4B1D
S3150800419018780F240C40CD0901F0FEF9074A64008F
S315080041A013195B1920331A7902210A431A711A79ED
S315080041B001210A431A7170BD58000020800C0020A6
S315080041C070B50A4B18780F240C40CD0901F012FA85
S315080041D0074A640013195B1920331A7902218A43A6
S315080041E01A711A7901398A431A7170BD580000206C
S315080041F0800C00200F220A40C909044B52009B1864
S315080042005B18203318798007C00F7047800C002090
S31508004210F0B5C64600B582B005000C00002000F0D7
S3150800422021FB227860231340602B00D185E1402BC7
S3150800423018D02278D206D20E012A00D1CDE0022A61
S3150800424000D10FE1002A00D07DE1202B14D0002BED
S3150800425000D07EE16378092B00D97CE19B00C64A31
S31508004260D3589F46C54800F0FDFA220001212800D0
S31508004270FCF766FF060061E123790F2B00D964E19C
S31508004280BF4AD3181B79BF4A1278934209D2BE4A4D
S315080042901168DA00D3189B00C91800290BD100262B
S315080042A04CE19B1ADBB2022B00D950E1D900C918A0
S315080042B08900B64BC91822002800FFF7DBFB060069
S315080042C03CE1200000F0D4FAA178280001F05CF95E
S315080042D0AB4A137802210B43137001262EE1A84B33
S315080042E05B786A460632137001232100280000F025
S315080042F07BFA012622E1A678A14B5B78DBB2B342B2
S3150800430009D09F4B5B78002B0BD19D4B5E70002E1E
S3150800431017D1FFF7D6FC2100280000F051FA012634
S315080043200CE10021280000F09BFF280001F0F8F8B6
S31508004330934FBB7898462800FFF748FB4346BB7067
S31508004340E3E731002800FFF7A3FB061E03D18C4BD9
S3150800435000225A70F2E0FFF7B3FCDCE721002800E0
S31508004360FFF750FC0600E9E0A278E3781B02134346
S31508004370012B01D00026E1E0814A137808210B437E
S3150800438013702100280000F01BFA0126D6E0A27857
S31508004390E3781B021343012B01D00026CEE0784AAE
S315080043A0137808218B4313702100280000F008FABF
S315080043B00126C3E0724B1A785109920801230B4073
S315080043C002210A4013436A4606321380022321005B
S315080043D0280000F009FA0126B0E023790F2B00D94E
S315080043E0BBE0674AD3181B79664A1278934223D2F0
S315080043F0654A1168DA00D3189B00C918002900D14C
S31508004400ADE022002800FFF735FB061E00D095E038
S31508004410237860221A4200D090E0002000F022FAA9
S3150800442063780A2B13D00B2B00D087E021002800D5
S3150800443000F0C6F9012681E09B1ADBB2022B00D9EF
S315080044408FE0D900C9188900504BC918D9E76B46BF
S315080044509A1D0023137001332100280000F0C4F9C7
S3150800446001266BE021790F200840CE090A0700D5FE
S3150800447079E0434A400012189219127D41480078A3
S31508004480824210D240480668D00082189200B618B8
S31508004490002B14D0002E68D0220031002800FFF728
S315080044A0E9FA06004AE0121AD2B2022A05D8D00062
S315080044B082189200354E9619EAE70026E8E76378EF
S315080044C0012B15D0032B13D0002B50D12800FFF752
S315080044D091FE00280AD001236A4606321380022379
S315080044E02100280000F080F9012627E00023F3E7E1
S315080044F0A078E2781202024304D1012B19D02800D1
S31508004500FFF744FE002E34D0220031002800FFF7C2
S31508004510B1FA002000F0A6F9194B25229B5CDB07AF
S31508004520DE0F002B0AD12100280000F049F90126E8
S3150800453004E02800FFF744FEE4E70026300002B056
S3150800454080BCB846F0BD0026F8E70026F6E7002648
S31508004550F4E70026F2E70026F0E70026EEE7002655
S31508004560ECE70026EAE70026E8E70026E6E7002665
S31508004570E4E70126E2E7C046AC6B000841110008F3
S31508004580800C0020740C0020780C0020F86B0008C2
S3150800459030B585B0FFF7A6FB002808D105B030BDB9
S315080045A001AC2078FFF760FA22795B4B9A705B4B77
S315080045B01D682C0008CC0020984701A92000FFF7A9
S315080045C028F904002B6801209847002CE6D001AB97
S315080045D05B78082BEBD89B00514AD3589F4601AB12
S315080045E01878FFF741FAFFF76CFBE0E74D4B1B78AD
S315080045F0002BD3D04B4A1378013BDBB213701378E8
S31508004600002BD4D1444B1A78012401210A431A708D
S315080046102422995CA1439954995C042081439954B6
S315080046200132995CA1439954995C8143995401AB31
S31508004630187802A9FFF7ECFD0028B8D101AC20785C
S31508004640002100F0A9FF2078802100F0A5FFAEE741
S3150800465001AB19790F220A40CC092F4B50001B18C1
S315080046601B19203318790125A843187118790335C1
S31508004670A8431871002A18D0274B52009B181B19FB
S315080046801B7D294A1278934216D2284A1268D80006
S31508004690C3189B00D318002B00D17FE79C6901A89B
S315080046A04279039B0078A04781E701A84279039BDA
S315080046B0007800F0EBF87AE79B1ADBB2022B00D9F8
S315080046C06CE7DA00D3189B00194A9B18E6E7124BE9
S315080046D01B78DB0700D46AE70F4B18780007C00F72
S315080046E0FFF7F0FA63E70C4B1B78DB0700D45EE7AD
S315080046F0FFF7E9FA5BE7029B002B00D157E703981F
S31508004700984754E7044BDB78DB0700D44FE7029859
S31508004710FFF773FA4BE7C046800C0020B00B002069
S31508004720D46B00087C0C0020740C0020780C002048
S31508004730F86B000810B50023CB56002B05DB80214B
S3150800474000230022FFF7D8FC10BD0021F8E700007F
S31508004750F8B50500184B9F89DE89BB1B9BB21C1C4C
S31508004760402B00D94024A4B2134B1B785BB2002B14
S3150800477008DB0021B74219D0104A23002800FFF7AA
S31508004780BBFCF8BDB7420DD00B4B9968002C0BD07B
S3150800479000290DD0402C0DD80848220001F092F9C6
S315080047A08021E7E78021E5E78021E3E70022E4E7C7
S315080047B00020E6E70020E4E7F40C0020B40C002013
S315080047C070B506000D00074C0822200001F07AF9A2
S315080047D00023A360E381A38129003000FFF7AAFF25
S315080047E070BDC046F40C0020F0B5C64600B580463C
S315080047F00C0016001D00154B08221F00180001F0BA
S3150800480061F9BE600023FB81A379E17909021943A6
S315080048100B1CA94200D92B1C99B20C4A9381A27988
S31508004820E3791B02134309D0002901D0002E0AD0D0
S315080048304046FFF78DFF80BCB846F0BD21004046D4
S31508004840FFF778FFF7E70020F5E7C046F40C0020ED
S3150800485010B503481422002101F008F910BDC0461E
S31508004860F40C0020014B18617047C046F40C002078
S3150800487010B50100044C0822200001F023F900239A
S31508004880A360E381A38110BDF40C002070B5050078
S315080048901C00C909274B1B78DB098B4210D0002C5A
S315080048A001D0002070BD234C210000F0A9FD23692A
S315080048B0002B03D01F4A0321280098470120F1E75F
S315080048C01C4B1B785BB2002B07DB1A4B9868002839
S315080048D02ED01949220001F0F5F8164AD389A1B25B
S315080048E05B189BB2D381916809199160D28893426B
S315080048F001D03F2C18D80F4B1B69002B05D00D4A49
S31508004900022128009847002804D00A492800FFF702
S3150800491011FFC7E70021280000F03EFE802128008D
S3150800492000F03AFE0120BDE72800FFF711FFB9E7BE
S315080049300020B7E7F40C0020B40C002010B53E2880
S3150800494016D91F304009C0B2202242430C4C208899
S3150800495083189BB22380002903D0190408439B18A7
S315080049602380074B1A8880231B019A4205D810BD5D
S3150800497001304008C0B20222E7E70248F7E7C0461E
S31508004980080D0020FFFF0000F0B50F260640C509F8
S31508004990002019E0204BFB5CB34225D13AE0012206
S315080049A06A40D2B21C4BA700DB199B189B78002BD8
S315080049B008D11DE0184BA2009B185B78FF2B1FD06F
S315080049C08B421DD00130C0B2072822D80400124BF2
S315080049D082009B185B199A78002A05D00E4B87002F
S315080049E0DB195B788B42D5D0002AEBD10129D6D0CA
S315080049F0094BA200D35CFF2BDCD0B342E2D1D9E746
S31508004A00054BA400E6541B1959705B1901229A70CC
S31508004A1000E00020F0BDC0460C0D002070B5002156
S31508004A200020FFF7B1FF00218020FFF7ADFF184BEC
S31508004A304021998100229A7399839A770021402010
S31508004A40FFF77CFF84B200214020FFF777FF81B291
S31508004A50104A53681B0C1B040325AC4323435360BD
S31508004A601068000C0004A943084310600A4C21682A
S31508004A700A4B194080239B000B4309495940536848
S31508004A801B041B0C8020400503435360216070BD46
S31508004A902C0D002000980040005C0040707000F863
S31508004AA02020000010B50C4B0022DA6409E00B4BFD
S31508004AB09400FF21E1541B19597000219970D9708F
S31508004AC00132072AF3D9064B40221A80FFF7A6FFC0
S31508004AD0014B8022DA6410BD005C00400C0D0020FA
S31508004AE0080D002070B5002A18D09308134C041935
S31508004AF00CE008784B781B020343887800041843B7
S31508004B00CB781B06034308C404312B005D1E002B1B
S31508004B10EFD1032006001640104201D1012070BDD6
S31508004B200022B24207D20878D500A84003430132D2
S31508004B3092B20131F5E72360F0E7C04600980040DD
S31508004B4030B5002A20D09308104CA446614409E0E9
S31508004B5008C903701D0A45701D0C85701B0EC370AD
S31508004B60043023005C1E002BF2D103331C001440D2
S31508004B70134209D00A68631E9BB2002C04D0027047
S31508004B80120A1C000130F6E7012030BD00980040EB
S31508004B9030B587B00500C300174A944663445C687D
S31508004BA0240CA405A40D596889B2220004A8FFF7AD
S31508004BB0C7FF124AAD00AB5811490B4080210B4381
S31508004BC0AB50082C09D00C494B681B041B0C8022DF
S31508004BD0520513434B6007B030BD00236A46137174
S31508004BE00633537104AA02AB03CA03C3012101A801
S31508004BF0FFF7E4F8EFE7C04600980040005C004085
S31508004C008F0FFF07F0B5D6464F464646C0B584B067
S31508004C1081460F00141E06D1012004B0E0BCBA4636
S31508004C20B146A846F0BD01AD2900FEF796FE2A88D2
S31508004C30131CA24200D9231C9EB2A21B92B201A940
S31508004C404988141C8A4200D90C1CA4B2321993B2A2
S31508004C5098460322330093439A461640029D1A004B
S31508004C6039002800FFF76CFF55445744BFB2002EA1
S31508004C7009D1039822003900FFF762FF41464846EA
S31508004C80FEF718FEC8E7042239006846FFF758FF02
S31508004C900437BFB2002307E0009A2A70009A120A66
S31508004CA0009201339BB20135B342F5D3039809E06C
S31508004CB0009A0270009D2D0A009501339BB2013CB3
S31508004CC0A4B20130032BD5D8002CF1D1D2E70000CD
S31508004CD0F0B5C64600B584B005008200574BD358D8
S31508004CE09846574C1C430F231C40C027FF004346D9
S31508004CF01F408023DB009F4252D00121514A6B009E
S31508004D005B189B009E58360CB605B60D995889B2A5
S31508004D104D4B62019B185868002848D03200FFF7AF
S31508004D2071FF494B62019B185A89921992B25A81AE
S31508004D309B89B34205D844496001091809898A4202
S31508004D4044D33E2B3DD91F335A09D2B20123D21A76
S31508004D50DB03920213431BB29BB2002B01D18023C3
S31508004D601B02ED00374A944665446A681B04120420
S31508004D70120C13436B60344D6301ED186B8901A85F
S31508004D80002606700722427004718360467101216D
S31508004D90FFF714F86E812E8104B080BCB846F0BDCA
S31508004DA043469B0B0122534001211940A6E7264B97
S31508004DB06201D0589B185B89C0183200FFF7C0FE05
S31508004DC0AFE701335A08D2B20023C0E78020C000FB
S31508004DD0874220D0891A89B21A1C8B4200D90A1C2C
S31508004DE093B23E2B24D91F335A09D2B20123D21AC1
S31508004DF0DB03920213431BB29BB2002B01D1802323
S31508004E001B02E9000F4A944661444A681B041204CF
S31508004E10120C13434B600D4B42461A401300084AC6
S31508004E201A43C0239B015340AD00044AAB50B3E775
S31508004E3001335A08D2B20023D9E7C046005C0040C5
S31508004E4080800000009800402C0D00208FBFFF07CF
S31508004E50F0B5D6464F464646C0B584B007000D00A5
S31508004E60141E06D1012004B0E0BCBA46B146A846D5
S31508004E70F0BD01AE3100FEF731FD3288131CA242A7
S31508004E8000D9231C9BB2E21A92B201A94988141CC4
S31508004E908A4200D90C1CA4B21A1992B2904603226F
S31508004EA0190091438A4603261E40029B99460A002A
S31508004EB019002800FFF716FE5544ADB2494651447D
S31508004EC0002E01D1039E25E00023009308E00A780E
S31508004ED0D800824000981043009001339BB20131FC
S31508004EE0B342F4D3039E0AE03178DA009140009A7F
S31508004EF00A43009201339BB2013CA4B20136032B4C
S31508004F0001D8002CF0D1042269462800FFF7EAFDF3
S31508004F100435ADB2220031002800FFF7E3FD414613
S31508004F203800FEF7D1FC9DE7BFF34F8FBFF36F8FB5
S31508004F3070477047F8B5CE46474680B505000E005F
S31508004F40038941895B1A9BB282891C1C934200D94A
S31508004F50141CA4B2B300254A9B58254F1F43C022F0
S31508004F60D200134098468023DB0098452FD00023B3
S31508004F7099467200D21892001E4BD3589BB26868A5
S31508004F80002828D022001900FFF762FF6B891B1939
S31508004F906B81184973004B449B005A5816480240C7
S31508004FA024041648044022435A5030235F40802385
S31508004FB0DB00984516D0124B1F40B6000B4BF75036
S31508004FC00020FFF7B1FFC0BCB946B046F8BDBB0923
S31508004FD001221340CCE72A68511822001800FFF76F
S31508004FE081FDD3E70123EB73E5E7C046005C00408B
S31508004FF08080000000980040FFFF00FC0000FF03CF
S31508005000BF8FFF0770B584B001008200214BD258CC
S31508005010214B13430F2003405C0110341F4820180E
S31508005020C024E40014408025ED00AC420BD01B4A96
S315080050305C011219148B528B94421BD089B2FFF76C
S3150800504079FF04B070BD154C5D016419E47F002C2E
S31508005050F7D0124C64190025E577920901246240BD
S3150800506014400F4D4A001219920054590D4E3440FF
S315080050705451DCE7802149420B4301A80021017005
S31508005080072444700371826041710131FEF796FE70
S31508005090D7E7C046005C0040808000002C0D002049
S315080050A000980040FFFF00FC70B50B004800801810
S315080050B0000138494018817B012A3ED08800364CC9
S315080050C004593648044036482043324C5B009A1847
S315080050D01201A4182289A489131CA24200D9231CF0
S315080050E09BB2C022D20002408024E400A24227D00C
S315080050F03E2B4AD91F335B09DBB201229B1AD20326
S315080051009B0213431BB29BB2002B01D180231B02C7
S31508005110CC00244A9446644462681B041204120CA8
S3150800512013436360C0239B01434089001A4A8B508E
S315080051300020FFF7F9FE012070BDFFF7FBFEFAE736
S315080051403E2B1DD91F335B09DBB201229B1AD20302
S315080051509B0213431BB29BB2002B01D180231B0277
S31508005160104DCC0062591B041204120C1A436251EA
S31508005170AC46644462681204120C13436360D1E7B8
S3150800518001335B08DBB20022E0E701335B08DBB2E0
S315080051900022B3E72C0D0020005C00408FBFFF07FC
S315080051A08080000000980040024A936D02490B4037
S315080051B093657047005C0040FF7FFFFF034A916DCF
S315080051C080231B020B4393657047C046005C004072
S315080051D010B584B004000023019303E0C046019B88
S315080051E001330193019BC72BF8D91C4B03221A6480
S315080051F00023029303E0C046029B01330293029BFD
S31508005200C72BF8D9154A136C02218B431364002364
S31508005210039303E0C046039B01330393039BC72B09
S31508005220F8D90E4B00221A645A64002304E0990048
S315080052300A4A002088500133072BF8D9074A116C0F
S31508005240DD231B020B4313642000FFF72BFC200011
S31508005250FFF7B4FF012004B010BDC046005C004053
S31508005260002906D0064A116C80239B000B43136461
S315080052707047034A136C03490B401364F8E7C046AA
S31508005280005C0040FFFDFFFF70B584B00400524B80
S315080052905E6CB30514D4730523D4F30431D43305F3
S315080052A044D4F30569D54D4B1B78012B52D0002BFE
S315080052B002D04A4A013B1370474B494A5A645CE09C
S315080052C0454B484A5A649B6C5B055B0D0022694650
S315080052D00A7103324A710293012101A8FEF76EFD95
S315080052E0D9E73D4B404A5A642000FFF7DBFB01A88B
S315080052F0002303700122427003710121FEF75EFD4F
S3150800530068E0354B1A6C04218A431A641A6C043116
S315080053108A431A64354A5A6400236A461371053368
S315080053205371073901A8FEF749FDB8E72A4B1A6CED
S3150800533008210A431A641A6C04390A431A642C4A67
S315080053405A6400236A4613715171033901A8FEF79E
S3150800535035FDA6E720490A6C102082430A64A6E7B1
S31508005360019B013B0193019B002BF9D12B0513D51A
S315080053702000FFF70DFC2D061AD4174B5B6C1B0497
S3150800538023D5154B5A6C0F241440A200D5582B046C
S31508005390F1D514230193E6E70F4AA1008B58154867
S315080053A00340802003438B502000FFF791FCE2E77F
S315080053B00949A0004258104B1A4080231B02134388
S315080053C043502000FFF71EFED7E7760402D5024BAE
S315080053D00A4A5A6404B070BD005C00400A0D0020F9
S315080053E0FFFEFFFFFFFDFFFFFFFBFFFFFFEFFFFFD6
S315080053F0FFF7FFFF8F0FFF070F8FFF07FFBFFFFFA7
S315080054000B785B0602D14B78052B08D007494B6809
S315080054101B041B0C8022520513434B6070478A7885
S31508005420853B1343DBB2024AD364EFE7009800409A
S31508005430005C0040F8B5CE46474680B50D00887832
S315080054400F260640C7090A794B791B0213435B05E9
S315080054505B0D9846C9788907890FFFF795FA040006
S3150800546007284ED88300294A9958294B1940802382
S315080054705B423343DBB28022120213431943894647
S31508005480EB789B079B0F022B06D0032B3BD1C0233F
S31508005490DB000A001A43914600214046FFF74EFA00
S315080054A082B2781E1B4963001B1A9B005858000CD1
S315080054B000040325AA4310435850174B7600F619E3
S315080054C036019B1942469A819C73012F14D00C22EF
S315080054D0022393404A465340012F0FD0702293432C
S315080054E01A00A30009495A500020FFF71DFD0120A4
S315080054F0C0BCB946B046F8BD0422E9E7074A1A40D7
