S31508000000881200202902000831020008330200087D
S31508000010350200083702000839020008000000000F
S315080000200000000000000000000000003B0200087D
S315080000303D020008000000003F020008DD1100082C
S31508000040430200084302000843020008430200086E
S31508000050430200084302000843020008430200085E
S31508000060430200084302000843020008430200084E
S31508000070430200084302000843020008430200083E
S31508000080430200084302000843020008430200082E
S31508000090430200084302000843020008430200081E
S315080000A0430200084302000843020008430200080E
S315080000B043020008430200084302000843020008FE
S315080000C043020008430200084302000843020008EE
S315080000D043020008430200084302000843020008DE
S315080000E043020008430200084302000843020008CE
S315080000F043020008430200084302000843020008BE
S315080001000000000000000000000000004302000894
S31508000110430200084302000843020008430200089D
S31508000120430200084302000843020008430200088D
S315080001304302000843020008000000000000000017
S3150800014043020008430200084302000800000000BA
S315080001500000000000000000000000000000000091
S3150800016000000000000000004302000843020008E7
S315080001704302000800000000000000000000000024
S31508000180000000004302000800F002F800F03CF806
S315080001900AA090E8000C82448344AAF10107DA45D4
S315080001A001D100F031F8AFF2090EBAE80F0013F0EA
S315080001B0010F18BFFB1A43F00103184788390000DE
S315080001C0A8390000103A24BF78C878C1FAD852076F
S315080001D024BF30C830C144BF04680C6070470000B3
S315080001E00023002400250026103A28BF78C1FBD832
S315080001F0520728BF30C148BF0B6070471FB503F0D0
S31508000200DBFB1FBD10B510BD00F009F91146FFF75D
S31508000210F5FF02F06DF900F027F903B4FFF7F2FFD6
S3150800022003BC00F02FF90000094880470948004739
S31508000230FEE7FEE7FEE7FEE7FEE7FEE7FEE7FEE788
S31508000240FEE7FEE704480549054A064B70470000E5
S31508000250E111000889010008880C00208812002096
S31508000260880E0020880E0020B2F120030AD5C2F1BC
S31508000270200320FA02F001FA03F340EA030021FA08
S3150800028002F1704721FA03F04FF00001704710B5EC
S31508000290431C02E010F8011B71B18107FAD14FF037
S315080002A0013202C88C1A8C4314EAC211F9D0C01A5A
S315080002B00A0603D0C01E10BDC01A10BD0A0401D01C
S315080002C0801E10BD0902FCD0401E10BD032A40F254
S315080002D0308010F0030C00F0158011F8013BBCF1DA
S315080002E0020F624498BF11F801CB00F8013B38BFF2
S315080002F011F8013BA2F1040298BF00F801CB38BF00
S3150800030000F8013B11F0030300F05780083AC0F0EB
S31508000310088051F8043B083A51F804CBA0E80810C5
S31508000320F5E7121D5CBF51F8043B40F8043BAFF3F8
S315080003300080D20724BF11F8013B11F801CB48BF52
S3150800034011F8012B24BF00F8013B00F801CB48BF88
S3150800035000F8012B704702F0FF0343EA032242EA42
S31508000360024200F002B84FF0000200B51346944668
S315080003709646203922BFA0E80C50A0E80C50B1F1EF
S315080003802001BFF4F7AF090728BFA0E80C5048BF03
S315080003900CC05DF804EB890028BF40F8042B08BFA1
S315080003A0704748BF20F8022B11F0804F18BF00F89D
S315080003B0012B704770477047704710B5203AC0F058
S315080003C00B80B1E81850A0E81850B1E81850A0E81A
S315080003D01850203ABFF4F5AF5FEA027C24BFB1E8B3
S315080003E01850A0E8185044BF18C918C0BDE81040F6
S315080003F05FEA827C24BF51F8043B40F8043B08BFFF
S315080004007047D20728BF31F8023B48BF11F8012BC5
S3150800041028BF20F8023B48BF00F8012B70477546F5
S3150800042000F02CF8AE4605006946534620F0070052
S31508000430854618B020B5FFF705FFBDE820404FF008
S3150800044000064FF000074FF000084FF0000BAC46CF
S31508000450ACE8C009ACE8C009ACE8C009ACE8C0091A
S3150800046021F007018D46704710B50446AFF30080AA
S315080004702046BDE81040FFF7D0BE00000048704790
S315080004805000002001491820ABBEFEE726000200F6
S31508000490704700F090F8FCE710B500F05FF8012807
S315080004A00CD0184C2078012808D100F0C3FED4E9F6
S315080004B00112114401F5FA71884200D210BD0020DC
S315080004C02070BDE8104000F08FB800BF0D484068A6
S315080004D0704700BF80B50B480121017000F004F891
S315080004E0BDE88040FFF7D8BF10B5064C2078012834
S315080004F002D100F09FFEA06010BD00BF0149486010
S31508000500704700BFB800002080B500F058F800F02A
S315080005104DF800F095FE00F0F3FD00F015F8BDE883
S315080005208040FFF7D7BF80B500F045F800F0E2FE3F
S3150800053000F01CF8BDE88040FFF7AEBF00F00EBF24
S315080005403F2070473F20704780B500F0A5FF00F0B8
S315080005500FFF15480121017080BD00BF80B500F06E
S31508000560A3FF002818BF012080BD00001CB50E4C53
S315080005700DF10701601C00F02BFF012807D10120AF
S315080005809DF8071004F8010B204600F095FF1CBDE6
S3150800059080B5054A1278012A02D1C9B200F050FF87
S315080005A0BDE8804001F0AAB8C4000020AFF300807F
S315080005B0642000F077BDAFF3008000F077BDAFF39D
S315080005C0008072B6704762B6704770B514460D461D
S315080005D00646200408BF70BD15F8010B013C06F855
S315080005E0010BFFF7E8FFF4E710B500F08BFDB8B193
S315080005F000F01CF8A0B1FFF7A1FF00F0C5F900F064
S315080006005BFE00F07BFD074908400749086000F0DB
S3150800061075FD4468FFF7D7FF2046BDE81040004740
S3150800062010BD00BF80FFFF1F08ED00E080B505483C
S315080006300068C0071CBF002080BD00F02BFD01200C
S3150800064080BD00BF100000481A480021C1610C484F
S31508000650016841F004010160016841F04001016050
S31508000660704700BF13490022CA6105490A6842F06B
S3150800067002020A604860086840F040000860704757
S31508000680102002401F480168C90601D4002105E070
S31508000690E849CA6942F00202CA6110210268520793
S315080006A006D5E44A41F00401D36943F00103D36156
S315080006B00160704740080020F8B5124E044600F065
S315080006C0EFFA0546671C3068C00709D0002FFAD034
S315080006D024B100F0E5FA401BA042F4D90320F8BD86
S315080006E03068800644BF202030603068C00604D4D5
S315080006F0306840075CBF0020F8BDFFF7C3FF012044
S31508000700F8BD00BF0C2002402DE9F843814640F2AF
S31508000710FF101C461546884621EA0007D9F800004E
S31508000720411C06D14846394600F08EF848B3D9F838
S315080007300000B84206D04846394600F095F800B39E
S3150800074007688146A8EB07004844071DA7EB090080
S31508000750061FFFF730FFB6F5007F09D3D9F800006A
S3150800076000F50071484600F07FF850B18146071D34
S3150800077015F8010B013C07F8010BE7D10120BDE88C
S31508000780F8830020BDE8F88380B57D48006801300D
S3150800079003D07B4800F0B6F848B1594800680130E4
S315080007A003D0574800F0AEF808B1012080BD0020FC
S315080007B080BD00BFF0B585B04F4A00244D1E049495
S315080007C0131A9D4233D840F2FF734C4C20EA0303B8
S315080007D0A34201D200242AE005440024954226D8E3
S315080007E06FF3DF20CDE90143084401214205039157
S315080007F04FEAD02218BF01EBD02297B200F06EF96B
S3150800080001AD04AEA0B287420CD9FFF7D4FE284644
S31508000810314600F0CBF838B90298013400F500608B
S315080008200290EFE7012400E0002400F005F92046D5
S3150800083005B0F0BD3148704751484FF0FF310160AF
S315080008402F480160704700BF80B5CA051CBF00204D
S3150800085080BD02688A4204D002C04FF40072FFF7D6
S31508000860B4FE012080BD000070B5454D0C46A84277
S315080008700AD006462148844207D0304600F042F89E
S31508000880354610B9002070BD1D4D28462146FFF794
S31508000890DBFF002818BF284670BD00BFF0B5174813
S315080008A090E8FE00D0F888011144194421442944EF
S315080008B0314439440844B0FA80F04009F0BD00BF1D
S315080008C0B0B50B4601460C485D1E441AA54205D82C
S315080008D00A4CA14202D30D44854201D90020B0BD7D
S315080008E040F2FF1021EA0000A0420CBF2448044849
S315080008F0BDE8B040FFF708BFFFFF03080040000847
S31508000900380400202DE9F843814600F0E7F809F19C
S31508000910040800240025B4F5007F13D058F80460B5
S31508000920D9F800002718FFF746FE02203946324656
S31508000930002300F089F830B938680434B042EAD0A8
S31508000940002500E0012500F077F82846BDE8F88381
S315080009507CB50B480168013104BF01207CBD061D2A
S31508000960C0697ECE114419442144294431440844BF
S31508000970042140420190034801AAFFF7A1FF7CBD6C
S315080009803C0600208841000880B507484FF0FF3133
S3150800099000224160426001600260C161C26100F0EC
S315080009A0B1F9002080BD00BF0C1002402DE9F041CE
S315080009B0DFF820810546D8F81800012804BF022070
S315080009C0BDE8F08101202E680C46C8F8180000F032
S315080009D09DFB012E0AD150B9FFF736FE00F096FBB3
S315080009E03D490A6822F004020A6001E028B10120A4
S315080009F00021C8F81810BDE8F0814FF0FF30364FD7
S31508000A002060012069680E46AA6801EBC2218E4261
S31508000A10EED23046FFF726FE00F078FB396821F063
S31508000A200201396020B9696806F500660020EBE71F
S31508000A302660DDE7400800202748016841F080016C
S31508000A4001600020704700BF2DE9F84FDFF8848069
S31508000A508146D8F81800012804BF0220BDE8F88F9F
S31508000A6001209A4693460E46C8F818004CF25030B4
S31508000A70FFF722FE40BBB9F1020F4F46164C18BFCE
S31508000A800427B9F1010F08BF4F4600255FFA85F91B
S31508000A9000204F4518D9C8F81C004FEA09125146DC
S31508000AA0206840F0010020605846FFF7DDFB26F875
S31508000AB019004CF25030FFF7FFFD21680135002878
S31508000AC021F001012160E1D00021C8F81810BDE825
S31508000AD0F88F00BF40080020102002400648C16871
S31508000AE009065CBF0020704704490160044901609B
S31508000AF0C068C0F3C0107047042002402301674550
S31508000B00AB89EFCD2DE9FC4FC04A05245E4F4FF067
S31508000B10000B4FF001094FF00008904200F13842EF
S31508000B2008BF04244FEAB223042B38BF4FEAB22485
S31508000B30009400220C6834FA02F308BFBDE8FC8F63
S31508000B4009FA02F314EA030A00F098804E6806F0E0
S31508000B500304651E012D1ED80325D0F808C0D1F858
S31508000B600CE005FA08F90EFA08F52CEA090C4FEA22
S31508000B70420E45EA0C058560C6F3001505FA02FC27
S31508000B80456825EA030343EA0C036FEA090C4FF0AC
S31508000B90010943600AE00323C64603FA08F3032C57
S31508000BA06FEA030C02D1C64603241DE0C3688D68AC
S31508000BB003EA0C0305FA0EF52B43022CC36013D186
S31508000BC06FF003050BF01C030F2405EA52059C4041
S31508000BD005442E6A26EA04040E6906FA03F323433B
S31508000BE02B624E6806F0030404FA0EF3046804EA5E
S31508000BF00C04234316F4403F03603FD0814C22F097
S31508000C0003053D44236843F00103236023680F244A
S31508000C1003F0010301930BF00C03019E9C401C4E4C
S31508000C20B446AE5926EA0404009E06FA03F32343A3
S31508000C3045F80C30BB684D6843EA0A04EE0258BF13
S31508000C4023EA0A04114BBC60AE029C461B6843EAC1
S31508000C500A0458BF23EA0A04CCF80040AE037B68AE
S31508000C6043EA0A0458BF23EA0A047C60ED033B689A
S31508000C7043EA0A0458BF23EA0A043C600BF1040B52
S31508000C8008F10208013255E7000401400C0401404E
S31508000C9008FCFFFF1823002A08BF2823C150704705
S31508000CA000F0C8BA80B50748016841F01001016034
S31508000CB0032000F0D5F8002000F006F800F056F8FA
S31508000CC0002080BD0020024070B50D4E04464FF44A
S31508000CD07A717068B1FBF0F0ED490968B1FBF0F084
S31508000CE000F0D0F801250F2C08D838B94FF0FF309E
S31508000CF021460022002500F08DF83460284670BD94
S31508000D000000002010B586B000244FF4003005948A
S31508000D1000F0CCF814484FF4805101600120049487
S31508000D20CDE90244CDE9001069464FF0904000F045
S31508000D30FDF800F067F935484FF48071816200F0DC
S31508000D40C3F86048816821F400018160016821F4D4
S31508000D5000110160016821F480010160416821F0F9
S31508000D600101416006B010BD280000482DE9F04396
S31508000D7087B0244C244D206840F00100206020688C
S31508000D8000F00100009000984FF48000A8474FF447
S31508000D900030A8474FF40010A847606800264FF0B7
S31508000DA001084FF480776D46DFF86490294640F4D1
S31508000DB0000060606068154C00F400000690049618
S31508000DC0CDE90266CDF80480009706982046C84704
S31508000DD0A76202244FF090402946CDE90086049484
S31508000DE0C8470E202946CDE9036605900320CDE9BC
S31508000DF001404FF4C05000904FF09040C84707B0EC
S31508000E00BDE8F08318100240AD0E00080010004837
S31508000E102D0F0008F0B5184B4FF0FF361C68C4F3C9
S31508000E200224E51E84F0070438BF002506FA05F7F4
S31508000E30BA43042C28BF042406FA04F4A14300F09C
S31508000E400F04A940043C11432344044A09010C3306
S31508000E50B0F1FF3FC8BF83181970F0BD00E400E089
S31508000E6005494FF6FF030A681A4060F30A22034849
S31508000E7010430860704700BF0CED00E00000FA055B
S31508000E8070477047411E0020B0EB116F1CBF012050
S31508000E907047044AF023516003490B70072190609C
S31508000EA01160704710E000E023ED00E081B0DF49F3
S31508000EB00A6802430A60096808400090009801B071
S31508000EC0704700BF1410024000F138404FEAB020C6
S31508000ED0052884BF012070470D4A07A151F8201044
S31508000EE01368194311600BA151F8200011680840D6
S31508000EF010600020704700BF0000020000000400D8
S31508000F00000008000000100000002000000040005B
S31508000F1028100240FFFFFDFFFFFFFBFFFFFFF7FF63
S31508000F20FFFFEFFFFFFFDFFFFFFFBFFF2DE9F04FDA
S31508000F300D684FF0010895FAA5F2B2FA82F235FA71
S31508000F4002F35BD008FA02F315EA030E54D0D1F87F
S31508000F500490A9F10103022B1AD29EFAAEF4D1E944
S31508000F60023AD0F808C0B4FA84F4660003FA06FB1D
S31508000F700323B3402CEA03070AFB05FC47EA0B07E1
S31508000F808760476827EA050545EA0C05456006E0D7
S31508000F909EFAAEF3B3FA83F403236600B3400D69F1
S31508000FA0C768DB43B5401F403D43B9F1020FC56032
S31508000FB01BD14FEA1E275FFA8EF597FAA7F7002D81
S31508000FC008BFB7FA87F44F69A40007FA04FC0F278D
S31508000FD0002D4FF0200507FA04F408BF24254759C9
S31508000FE027EA040444EA0C044451D1E90054B44005
S31508000FF006683340234303600132A0E70020BDE8BA
S31508001000F08F000081B01D48016841F001010160C0
S3150800101001688907FCD50168102262F3C7010160DF
S315080010204FF0FF3100911649009A1140009100993E
S315080010304160416811F00C0FFBD10168009111491C
S31508001040009A114000910099016001688901FCD459
S3150800105001684FF41F0221F48021016000214160DC
S31508001060C16201630092009A82608160416A41F020
S3150800107080714162002001B0704700BF0010024035
S315080010800CC0FFF8FFFFF6FE87490860704700BFEF
S315080010904800002002484FF480710160704700BF85
S315080010A0281000480D494880704700BF10B500F069
S315080010B0C1F80A4C616888420FD3207880F0010194
S315080010C000284FF480702170054918BF1031086058
S315080010D000F0B0F861880844606010BDB0000020D8
S315080010E01810004880B5FFF733FC18B1BDE88040FA
S315080010F0FFF74ABB002080BDFFF75CBBFFF79ABB32
S31508001100FFF79ABBFFF7CABBFFF7DABB4CF25030C2
S31508001110FFF7D2BAFF203070201D00F0BBB9487027
S3150800112002F0FD00B2886FF3DF22A2F50072B2FA70
S3150800113082F2520940EA42000870284670470020A9
S31508001140C1E900008860F0BD5846DBF80000C0071A
S315080011507047BFF34F8FBFF36F8F704790F830100B
S3150800116001F0FD0180F8301090F8301001F0FE0112
S3150800117080F830107047BFF34F8FBFF36F8FB0BD45
S31508001180DBF800005946C007704701F00F0004EB72
S31508001190400000EBD11414F8300FC00770472078D0
S315080011A000F0FE002070207800F0FB0020707047E9
S315080011B09DF800009DF80110424601F0E7BD7C68E5
S315080011C08DF801002878B8F1000F8DF800007047F7
S315080011D04168012008474168002008477047000019
S315080011E080B588B00020104906900A6842F470025B
S315080011F00A600E490A6842F400320A604FF48052C7
S31508001200096801F400310791079909490A600590B0
S31508001210CDE903000120CDE9012001A94FF0904056
S31508001220FFF784FE08B080BD88ED00E01410024088
S315080012302800004880B500F05DF83748406880BD52
S3150800124018B518480124816941F001018161816955
S3150800125001F00101009100991349096802680368C1
S315080012604FF08040046011484FF6FF74C2F3022223
S315080012708461022413F4E06F0D4B08BF01249A5CC5
S31508001280D1400C4A6143B1FBF2F1002201394161B8
S31508001290016841F0010101601F494A600069088040
S315080012A018BD00BF0410024048000020140000408A
S315080012B0D4390008A08601000B48016841F00101F5
S315080012C00160016821F001010160C16821F0010196
S315080012D0C1600648002101604160816004484FF002
S315080012E000710160704700BF1010024010E000E076
S315080012F004ED00E00848094A01881268521A92B2B9
S31508001300642A08D36423B2FBF3F212FB03110180AB
S3150800131041681144416070470401002024000040E0
S31508001320012818D0FEB50320049000200390012060
S3150800133002904FF48050019001A94FF09040FFF7BA
S31508001340E1FB4FF090404FF480510022FFF7A2FCDA
S3150800135006B0BDE8804070477047000080B501F0D0
S315080013600DFD0F480F490160BDE88040FFF788BDB5
S31508001370E0B50B480B490160FFF783FD002069467D
S31508001380019001200090002001F006FDFFF79EF86D
S3150800139000097C2803D84FF4FA60FFF7AFF88CBD34
S315080013A064080020005C0040704710B50446002021
S315080013B002F0B4F848B100202146012202F0B8F83C
S315080013C00138B0FA80F0400910BD002010BD0000B9
S315080013D0F8B5054600200C4600F0E0FC4FF0FF305B
S315080013E0002101F045FD154F7878B8B138783844B2
S315080013F00330FFF7DAFF01281CD13878B9780026C0
S315080014000130C2B238708A4215D1F91C2846FFF756
S31508001410DCF838787E70012620700CE0B81CFFF7DF
S31508001420C4FF012806D1B87801383E289CBF4FF47E
S315080014308070388000263046F8BD00BF0C010020B9
S315080014401CB5044640298DF8071003D310488D2192
S31508001450FFF71FF80DF107010020012202F074F8CA
S31508001460012803D00A489121FFF713F89DF80720B1
S315080014700020214602F068F89DF80710884203D03C
S3150800148003489421FFF705F8002002F06BF81CBD0D
S31508001490123B0008006870479B480021A0F84410DA
S315080014A08164C0F83F107047974890F83F000028BD
S315080014B018BF0120704700BFF8B504460078FF281A
S315080014C026D1914C0120A4F83F000020A07041F2DB
S315080014D0FF002080FFF734F8E070FFF733F820713B
S315080014E0FFF730F80821000AA4F8441040F2011169
S315080014F06071E180FFF704FE834890F842100129E5
S3150800150028D1022141F2FE02A0F84410028025E00B
S315080015107D4E96F83F10012928D1A0F1F1010D2939
S3150800152025D8DFE801F04141074752654141416945
S3150800153041737885FFF7EEFDB76C04460025002C4D
S3150800154000F07A8017F8010B013C2844C5B2FFF772
S3150800155032F8F4E7B0F94410012907DB012289B211
S3150800156080F84220BDE8F840FFF712B8F8BDC93840
S31508001570092819D8DFE800F0051818B818186D7585
S31508001580818EB56CFEF7DCFF411E621C2846FFF70C
S31508001590BBFD002800F08B80FF203070FEF7D0FFDF
S315080015A0B16C0844013825E00220A6F8440042F24E
S315080015B0FE009EE06578FEF7C3FFA84246D9201DC7
S315080015C0FFF768FF0146B06405E06578FEF7B8FFE7
S315080015D0A8423BD9B16C6278701CFEF7F6FF6078BA
S315080015E0B16C0844B064FF2030706078013062E066
S315080015F0FFF790FDB0644BE03F480821A6F8441079
S315080016000721B064FF20C6E9000175E70220A6F8A5
S315080016104400FE206DE0FF2030800620A6F8440036
S3150800162000207071A6F8030096F84000B07063E7D2
S315080016300020A6F83F000EE0012100203571A6F82B
S3150800164001100821F071A6F805002CE042F2FE20F0
S315080016502FE0FEF7C9FF0120A6F84400FF203070EE
S315080016604AE76578FEF76CFF0238A84226DA0220B8
S31508001670A6F8440042F2FE203BE0B56C201DFFF7B9
S3150800168009FF01462846FFF737FD80B1FF20307075
S31508001690012010E00024FF20B4703080FEF750FFD0
S315080016A00721B471B480F070A6F8441024E743F219
S315080016B0FE1030800220A6F844001DE70120A6F897
S315080016C04400FF206178307049B1B06CA21CFFF766
S315080016D01BFD48B16078B16C0844B0640CE7FFF7AD
S315080016E001FD00287FF408AF0220A6F8440043F263
S315080016F0FE10308000E700BF3A3B00080248002190
S3150800170080F84210704700BF3C0B002070B5D41A11
S31508001710858838BF04EB4504260417D0A6B2AE4226
S3150800172005D92B46954298BF5B42134443815A1B01
S315080017309EB2AE421346FAD2C288036808466FF3D1
S31508001740DF3202FB06331946FEF7C0FDA0B20028B9
S3150800175018BF012070BD2DE9F8438846089914463C
S31508001760064680885A1A38BF02EB400215042BD069
S3150800177095B2854206D901469842024698BF494223
S31508001780194471810B46091A9DB28542FAD2F78827
S3150800179031686FF3DF3707FB051195B2A54238BFED
S315080017A01446A2B2C51AA8B282420FD907FB05F998
S315080017B040461FFA89F2FEF789FD611B18FA89F07F
S315080017C079438AB2316803E0002403E07A4340464D
S315080017D0FEF77CFDA0B2BDE8F88311448AB28A42BE
S315080017E002D1B2EB400F01D3A1EB400188B270479A
S315080017F02DE9F041164DDFF80C8504460026002732
S315080018006878411CC9B28F420DD2874203D2A868B4
S31508001810A8B1304401E0404611D1C1682046884746
S3150800182024360137ECE705F10C003421FEF79BFD61
S3150800183005F110002021FF22FEF78DFD03E0BA48CE
S315080018400068C00701D1BDE8F08100BEBDE8F0819F
S31508001850C801002070B5134D0446E889A9890E1AF7
S31508001860B0B2402828BF402695F90000B0F1FF3FE6
S3150800187001DD002109E0300406D0A96881B105F12F
S315080018801400B2B2FEF722FD8021B3B220461A46F2
S31508001890002B18BF05F11402BDE8704001F044BFE3
S315080018A0002070BD50010020704770470878400638
S315080018B0074807D14A78052A04D14988012262F3E4
S315080018C0DF1101804FF48051A0F8C013704700BFA4
S315080018D04C5C004070B501224FF40050B2EBD11FAA
S315080018E008BF2020CB0901F00F015C1E18BF012498
S315080018F00326E400251D0634A24006FA05F548F637
S315080019008F742A4348F280052243644C04EB411144
S3150800191001EB0311564B897B33F821402C432240B7
S3150800192004F4C064B4F5806F18BF424023F8212040
S31508001930FFF70FFC70BD00BFB0B50A4A7948002111
S315080019404FF6FF7300241C2C05D00519A152043448
S31508001950C5F80630F7E7BFF34F8FC021BFF36F8F87
S315080019600180B0BD045C00402DE9F0478E78C87848
S315080019700F468C8800F00301304600F091F80828DD
S3150800198013D23B4A054647F2700106F00F0832F8B3
S3150800199020000840F978404401F0030102290AD0E2
S315080019A0032936D148F2806107E0D8480068C007A5
S315080019B034D000BE32E048F28001F60940EA010957
S315080019C06FF3DF2402EB0510924686F0010100EB67
S315080019D0C107204600F0F6FBA7F800044FF68F7003
S315080019E04FF40051002E18BF48F6FF7018BF20218B
S315080019F081EA090108402AF82500284800EB481022
S31508001A0000EB0610857384810120FFF7A2FBBDE871
S31508001A10F087BE480068C00700D000BE0020BDE8B9
S31508001A20F08700BFB0B51D4C012001F00F034FF43D
S31508001A30805248F28005B0EBD11F4FEAD1110B480E
S31508001A4008BF102204EB431304BF48F6BF70CFF655
S31508001A50FF7003EB0111064B897B33F821402C43B9
S31508001A602040504023F82100FFF785BB8FBFFFFFBA
S31508001A70005C0040B0B5094C01F00F00C9090D0122
S31508001A8004EB4014625104EB0112002454811381C3
S31508001A90546000F08FFC0120B0BD00BF880B002009
S31508001AA0F0B501241F4A4FEAD01C00F00F0584EA5E
S31508001AB0D01402EBD013144400200433261D082842
S31508001AC01ED013F8204044B102EB8007FC788C4204
S31508001AD014D1BC78AC4211D121E0012902D116F803
S31508001AE020405CB902EB8007BC78FF2C18BFAC42DB
S31508001AF004D1FC78FF2C18BF8C4208D00130DEE7F1
S31508001B0082480068C00700D000BE002007E0F970D0
S31508001B100CEB02010122BD7001EB80010A71C0B213
S31508001B20F0BD00BFA4010020F0ED00E02DE9FE4362
S31508001B300546407888460238052800F29680DFE890
S31508001B4000F0030F29323C416D48017B01F0FE018C
S31508001B500173017B01F0FD0101730021417327E048
S31508001B60674FDFF8A091002600247878411CC9B297
S31508001B708C423DD2844203D2B86840B1304401E079
S31508001B80484604D1026A12B1696828789047243613
S31508001B900134EAE75A48017BC90700F0AF80017BA8
S31508001BA041F0040107E05648017BC90700F0A6800A
S31508001BB0017B01F0FB01017357E0514801780131BF
S31508001BC0017052E0297911F00F004ED04C4ACB092A
S31508001BD002EB4000C618537896F82000834228D9AD
S31508001BE09268002A41D000EBC00002EB800422E094
S31508001BF0387B400761D5387B00F0FB00387300203E
S31508001C00CDE901000520FFF7DAFA02D13E48FFF7D1
S31508001C10E2FA201D694600F065FF0646B8F1000F96
S31508001C2002D13948FFF7D4FA002E41D0FFF7C0FA9F
S31508001C3043E01AD1334CE069B8B116F8300F00F01A
S31508001C40FE003070307800F0FB003070AB68287802
S31508001C506A79E469A047002850D1307840F001003D
S31508001C603070307840F0040030702548B8F1000F25
S31508001C70446802D12448FFF7AEFA201D294600F031
S31508001C8031FF0646B8F1000F02D11F48FFF7A0FA48
S31508001C903EB128786978424603B0BDE8F04301F0C2
S31508001CA075B81A480068C00728D000BEBDE8FE838C
S31508001CB016480068C00700D000BEF87BC0071DD0D4
S31508001CC00320FFF77CFA6868019002D10E48FFF7F7
S31508001CD082FA201D694600F005FF0546B8F1000F97
S31508001CE002D10948FFF774FA1DB1FFF761FABDE89A
S31508001CF0FE8306480068C00700D000BEBDE8FE8324
S31508001D00C8010020DC39000834000020F0ED00E0AE
S31508001D101FB50446002003900398C82803D200BFC5
S31508001D2003980130F7E71948032101800021029141
S31508001D300299C82903D200BF02990131F7E7018841
S31508001D4021F002010180002101910199C82903D2DD
S31508001D5000BF01990131F7E70021002201800182C5
S31508001D608180082A05D000EB8203013223F8401C43
S31508001D70F7E7018841F45D41018000F067FB2046E2
S31508001D80FFF792FD012004B010BD00BF405C004083
S31508001D9070477046FFF7DDF9864670472DE9F04F24
S31508001DA08FB0B94D4BF6FF74B5F84460B00510D541
S31508001DB004F578500121A5F84400B5F848006FF3FA
S31508001DC0DF200D904FF44070ADF830000CA8FFF7F7
S31508001DD0ADFE700500F1D081F00417D5B5F84000C6
S31508001DE0012120F00400A5F84000B5F8400020F0D5
S31508001DF00800A5F8400004F54050A5F844004FF443
S31508001E00A060ADF830000CA8FFF790FE300517D596
S31508001E10B5F84000012140F00800A5F84000B5F8E3
S31508001E20400040F00400A5F8400004F56050A5F80D
S31508001E3044004FF48060ADF830000CA8FFF776FE3A
S31508001E40F00510D5DD48017849B1012905D1B5F865
S31508001E50402022F01002A5F840200139017004F54F
S31508001E607C50A5F8440004F58040DFF860B640F6DB
S31508001E700F7A002701960FFA80F8CDF80C80B5F98D
S31508001E804400404500F38981B5F8440000F00F0688
S31508001E9035F826905FEA094040F12A815FEA095041
S31508001EA050D435F8260000EA0A00803025F82600C6
S31508001EB035F8261005EB061501F4C06001F00F028F
S31508001EC00790B0F5806F4FF0010008BF20EA913007
S31508001ED005EBC000B0F80474B0F800440891594600
S31508001EE00BEB421B0992DBF804006FF39F270028CF
S31508001EF054D0002F00F08680CDE905050CA900F026
S31508001F0093FDBDF830A040F2FE302146BA4588BFA1
S31508001F10BA460AEA00080D98BDF8325042460490BF
S31508001F2000F070F9A7EB0A0081B2A94238BF05464E
S31508001F3008EB04015FEACA703AD10E98DDF80C8006
S31508001F402A4652E005EB0610B0F80C44B0F808141F
S31508001F500AA86FF39F24224600F054F935F82600A4
S31508001F6000EA0A008030082C25F826000CD1DDE9A5
S31508001F700A01CDE90D014FF4C0600121ADF830002A
S31508001F800CA8FFF7D3FDB3E09D480068C00700D052
S31508001F9000BE8B484FF480510180A9E050013A46B3
S31508001FA00858BBF80A100844214600F02BF929E026
S31508001FB0029189B20AA8022200F024F9BDF8280085
S31508001FC004992A4601F80800030ADDF80C80012165
S31508001FD00E98140407D0012905D800F8013B013AE8
S31508001FE001310023F5E70299023189B292B205EB75
S31508001FF00A0400F007F90598A1B200F0A6FC069DB0
S3150800200040F60F7A5C4634F80A0FC11960882180B9
S3150800201087423BD3BBF808208BB29A4236D9079B36
S31508002020B3F5806F21D0511A4FF0FF338AB282423E
S3150800203038BF084681B200F11F02013040083E2928
S3150800204088BF5009C2B288BF53FA80F290023E296F
S315080020504FF4004188BF41EA8220010404BF48F2D8
S315080020600000CFF6FF70A5F80C04089943F60F7028
S31508002070514DDFF858B4002708404BF2800148401C
S3150800208025F8260034E000BF005C0040421C00F141
S315080020901F014FF0FF33002752083E2888BF4A0920
S315080020A0D1B288BF53FA82F18A023E284FF4004023
S315080020B088BF40EA81220121100404BF48F20002C9
S315080020C0CFF6FF72A5F80C248DF8357020880E908F
S315080020D009988DF834004FF4E060ADF830000CA88C
S315080020E0FFF724FDABF80870DFF8E0B3F54D27805D
S315080020F05FEA09607FF5C3AE35F8260000EA0A00F4
S3150800210000F5004025F8260035F8262002F00F00D5
S3150800211002F4C0630BEB4011B3F5806F13D10B4685
S3150800212013F81F4F002C3FF4AAAE1F70012323EAB1
S31508002130921205EB061303EBC202B2F8043403F459
S315080021407C43A2F804340A8B4B8B9A420ED14FF487
S31508002150E06180300E928DF83570ADF830108DF84C
S3150800216034000CA80121FFF7E1FC88E601F1100014
S31508002170314600F069F882E604F57050A5F8440087
S3150800218000F064F9002001210D904FF48070ADF83D
S3150800219030000CA8FFF7CAFC0BE00198400408D5EC
S315080021A017480068C00700D000BE4BF6FF70A5F8B8
S315080021B044000FB0BDE8F08F005C004060080020C6
S315080021C00C600040421C00F11F01BF4B52083E281C
S315080021D088BF4A09D1B24FF0020288BF2022188868
S315080021E011FB0201198089B2B1F5007F06D90448AE
S315080021F00068C00700D000BE4FF6FF70704700BFEA
S31508002200F0ED00E010B572B18F4B03EB41015308B6
S315080022102BB131F8044B013B20F8024BF8E7D20703
S315080022201CBF0988017010BD0020802100220023F0
S31508002230FFF720BC0348028822F4007261F34922A2
S3150800224002807047405C00402DE9F04F8BB00C4689
S315080022504389018986894FF000098246C91A8AB2DC
S31508002260B242794A38BF0E46A2F5806838F824701B
S3150800227007F4C065B5F5806F08BFC7F3801921015B
S3150800228041EAC90131F802B0406848B331045BD06D
S3150800229003A981E8B00108A9019000F095FBBDF8F3
S315080022A02040B0B2844288BF3446099F4FF6FE707C
S315080022B0BDF8228004EA00025846394600F068F85C
S315080022C0301B81B2414538BF804608EB04000290B6
S315080022D024F00100E10700EB0B0509D10A9924E077
S315080022E0DAF80010B2B25846194400F051F82AE05C
S315080022F080B208210024385C0A9F621C012A0AD889
S315080023005FEA084307D03B5DA8F1010814468B40F5
S3150800231008311843F1E7ADF81E00A8B20DF11E0109
S31508002320022200F035F839190235A8B21FFA88F2E8
S3150800233000F02EF8029881B2019800F0FDFA0DF12E
S315080023400C0898E8B001404ABAF80A00B5F5806F5B
S3150800235030446FF39F26AAF80A0002EB041000EB3C
S31508002360C900818801F47C413144818004BF012081
S315080023708AF80F0048F2B00140F63F7038404840EE
S3150800238028F82400FEF7E5FE0BB0BDE8F08F00BF85
S3150800239010B572B12C4B03EB400053082BB131F842
S315080023A0024B013B20F8044BF8E7D2071CBF09781B
S315080023B0018010BDB0B50A464449012A01EB401018
S315080023C0D1B200EB0110817B03D1BDE8B040FFF725
S315080023D03BBF028983899A4238BF134603F11F001F
S315080023E05A1C52083E2B88BF42094FF0FF30D4B220
S315080023F088BF50FA82F4A0024FF400423E2B124BDB
S3150800240088BF42EA8420020404BF48F20000CFF6DF
S31508002410FF70A3F5806242EA8104258843F60F74AB
S315080024202C4005F4C065B5F5806F04BF03EB0115B4
S31508002430A88003EB011398814BF28000604022F8D4
S315080024402100FEF798BE00BF00600040F8B51D4D9C
S315080024501D4900204FF6FF72A5F84C00082805D044
S3150800246001EB80030130C3F80220F7E7402400207F
S3150800247000270C800021FFF713FB8020002180260F
S31508002480FFF70EFB11488777848387738481402082
S31508002490FFF798FE04464020FFF794FEA5F8084487
S315080024A0A5F800040A494FF4805228880A8047F2A2
S315080024B07001084042F2202148402880A5F84C6067
S315080024C0F8BD00BF005C0040A4010020880B002076
S315080024D00C60004070B50646486914460D4601F082
S315080024E055F86B69304601212246BDE87040184709
S315080024F0FEF7D8FB27480222016862F30201016051
S31508002500006800F00700022803D023A06921FDF720
S31508002510C0FF2448016841F480210160016841F444
S315080025208031016001688903FCD5416821F4741182
S3150800253001F5E8114160C16A21F00F01C162016825
S3150800254041F08071016001688901FCD54168042267
S3150800255021F0F0014160416862F30A2102224160DC
S31508002560416821F460514160416862F301014160AC
S31508002570416801F00C010829FAD1416821F480016B
S3150800258041600948FEF780FDFDF7BEFFFDF7CBFF6A
S31508002590FCE700BF002002402E2E2F6D61696E2ECB
S315080025A0630000000010024000A24A040978802255
S315080025B0002322EA0101002201F0B6B8B0B50A44A8
S315080025C0914228BFB0BD4C78052C06D18C7804F012
S315080025D00F05E40900EB45052B550C782144EFE778
S315080025E00178C9070ED1017849070BD40178C907C4
S315080025F008D10178490705D4017841F00401017032
S3150800260001207047002070470178490708D50178EE
S31508002610C90705D1017801F0FB0101700120704757
S3150800262000207047012070471CB50446007800F06A
S31508002630FE000844DDE904122070009304F1080046
S31508002640012300F090F906986060079860800120E1
S315080026501CBD70B5164605460C4601F108009AB22F
S31508002660314600F020FA06462846214600F002F8D0
S31508002670304670BDF8B505460C460878898909B311
S3150800268004F1080680074FF40077304658BF402704
S3150800269000F01AFA874249D82078C00746D16178EF
S315080026A0284600F0DDFF002840D0304600F00CFA3E
S315080026B0874216D92078C00738D16178284601F0B4
S315080026C00DF833E0C00731D16178284600F0C8FF1D
S315080026D060B32078C00718D16388617873B16268DF
S315080026E00DE0794266880840B04238BF0646207831
S315080026F0C00716D1617876B162680DE000222846D7
S3150800270001F012F808B1668811E08A480068C00727
S315080027100CD000BE0AE000222846334601F004F831
S3150800272028B984480068C00700D000BE0026304695
S31508002730F8BD00BF2DE9F843002B46D080468889AE
S315080027401D4617460E46D0B106F10804AAB2394608
S31508002750204600F0EEF9814630784FF40075800780
S3150800276058BF4025204600F015F9854202D9B089A0
S3150800277085422CD94046314600F02CF827E03078BF
S31508002780C00722D17178404600F06AFFE8B1B6F872
S3150800279002903946A94588BFA94670684A46FDF79A
S315080027A095FD3078C0070BD15FEA0940717814BFF0
S315080027B0726800221FFA89F3404600F0B5FF30B967
S315080027C05C480068C00700D000BE4FF000094846C4
S315080027D0BDE8F88370B501F1080504460E4628469B
S315080027E000F0D8F820B33078C00721D17178204698
S315080027F000F036FFE0B172887168284600F053F998
S315080028000546307800F001006DB130B9726871780C
S3150800281020462B4600F088FF58B946480068C0078E
S3150800282006D000BE04E018B97178204600F056FFBD
S315080028300025284670BD00BF70B50D460B8A0446B4
S31508002840097800206E8A12B3B34220D1880701F0B6
S31508002850010140F2FF1058BF3F201040084315D130
S315080028606978204600F0FCFE80B12878C00708D1B8
S31508002870697820460022002300F056FF08B101209F
S3150800288070BD2C480068C00700D000BE002070BD8F
S3150800289010B5C37803F003048388032C6FF3DF2392
S315080028A011D0022C1CD0012C41D140F2FF30022954
S315080028B008BF4FF48060984223D2F1480068C007E9
S315080028C035D000BE33E04020022908BF4FF48060AF
S315080028D0984216D2EA480068C00728D000BE26E00B
S315080028E0022908D1B3F5007F0BD0E5480068C00778
S315080028F01DD000BE1BE0B3F5007F04D11AB14021FC
S315080029008180012010BDA3F1080081B2400340EA8E
S31508002910D10081B2082905D2C0B28B2121FA00F074
S31508002920C007EED1D6480068C00700D000BE002018
S3150800293010BD00BFF0ED00E010B50A460446418917
S315080029408088FEF74AFF608110BD10B50A46044626
S3150800295001898088FEF741FF208110BD0021418151
S31508002960018101207047B2F5004F0DD8B0B5049C1F
S315080029706FF3DF330025458182800160058164F3AA
S31508002980CF33C380BDE8B0400020B2F5004F98BFF2
S3150800299001207047018942898088891A38BF01EB6E
S315080029A040018AB2824228BF014688B2704701892F
S315080029B04289891A828838BF01EB4201002089B210
S315080029C0914228BF01207047F0B50589448982885D
S315080029D02B1B38BF03EB42039EB2964206D9134619
S315080029E0AA4298BF5B425C19134644811E0413D061
S315080029F0AF1AAEB296423D46FAD22546A41AAFB2EF
S31508002A009742FAD20068BE4210FA85F44C6005D99E
S31508002A1000200B80886005E0FEF791BB8860501B9C
S31508002A200880181A4880F0BDF0B50689448982885E
S31508002A30331B38BF03EB42039BB29A421D4688BF3D
S31508002A4015469A4217D9A5EB030C3546B61AAFB206
S31508002A509742FAD22646A41AB3B29342FAD200682B
S31508002A60BB4210FA85F44C6007D90020886048807C
S31508002A70701B0880F0BDFEF762BB8860501B08809B
S31508002A80ACEB00004880F0BDB0B502894389044626
S31508002A90FEF73CFE0546A08861892A46FEF79DFE9C
S31508002AA060812846B0BDBCB50446038940890090BC
S31508002AB02046FEF750FE0546A08861892A46FEF79D
S31508002AC08CFE60812846BCBD018942898088891AA6
S31508002AD038BF01EB40018AB2904288BF0246501ABD
S31508002AE080B2704770B505890E460446FFF75FFF4A
S31508002AF030B1B4F90600B0F1FF3F01DD002616E05B
S31508002B00A1882A46531A90B288421A46FAD2E2880F
S31508002B1021686FF3DF3202FB00103146FDF7D6FB62
S31508002B20A088294601220126FEF757FE2081304655
S31508002B3070BD2DE9F84F002A57D0B0F80890B0F9C3
S31508002B4006A088468688418915460446BAF1000FCC
S31508002B500ED4B9EB010038BF00EB460080B28642BE
S31508002B60014688BF3146081A81B2A9421BD91DE021
S31508002B70AE4210D9B9EB010038BF00EB460015FA92
S31508002B8080F0B0EB460F11D3701B82B23046FEF7C9
S31508002B9024FE81460AE05246A81B89466FF3DF32B7
S31508002BA000FB02883046010405461ED04A461146F7
S31508002BB0921B88B2B042FAD22268771A6FF3DF3ACC
S31508002BC0AEB2B9B200FB0A208E4210D907FB0AFB47
S31508002BD041461FFA8BF2FDF779FBE81B18FA8BF1D1
S31508002BE000FB0AF082B2206804E000250AE006FB32
S31508002BF00AF24146FDF76AFBA08849463246FEF7C7
S31508002C00ECFD2081A8B2BDE8F88F0000B0B50A68CF
S31508002C101A4C00254B6884E82C00E560BDE8B040F6
S31508002C20FFF7C4BCF8B50C684D68144E0027C6E912
S31508002C300045F781B260CC889C4298BF2346B38191
S31508002C403CB17AB973B187480068C00714D000BE92
S31508002C5012E0FFF7ABFC40B982480068C0070BD00A
S31508002C6000BE09E0FEF7F6FD08B10120F8BD7D4873
S31508002C700068C00700D000BE0020F8BD5001002043
S31508002C80F0ED00E000487047003A00080048704739
S31508002C90343A000800487047223A00080020704776
S31508002CA0002070472DE9FF41DFF8C48098F800102E
S31508002CB081BB3049304D0DF1040C0DF1020300269D
S31508002CC00A6801924A6802920122896888F80020F7
S31508002CD0039100210C2919D01CF8017007F00F0484
S31508002CE08DF803403C0900278DF80240022F0BD0CF
S31508002CF0DC5D37220A2C38BF3022224455FA86F486
S31508002D00013701362274F1E70131E3E755FA86F116
S31508002D1000220A74B0B103281CD8174951F820506C
S31508002D202846FDF7B4FA10F0E00F18BF1F2008F187
S31508002D300401C0B2024682B115F8013B013A21F8F6
S31508002D40023BF8E70C4800680088A8F804004FF42E
S31508002D50417007E04FF0000806E0022101EB400051
S31508002D6040F4407028F8020F404604B0BDE8F081F0
S31508002D7008020020ACF7FF1F0800002080B537487E
S31508002D800078FEF792FD012080BD00BF7047012044
S31508002D90FEF7C6BAFEF708BB2DE9F047DFF8DCA94F
S31508002DA080469AF80000FF2802D00120BDE8F08787
S31508002DB00D4669B32A4F342107F10C00FDF7D3FA03
S31508002DC0002038700AF10800FFF7C8FD0AF1040070
S31508002DD07860781C00F0D0FBB8607878FF2823D09C
S31508002DE0DFF8F49600240026411CC9B28E4221D28F
S31508002DF0C0B2864203D2B86880B1204401E0484692
S31508002E000CD1406850B18047787824340136EBE716
S31508002E10EE480068C0071DD000BE1BE0EB480068FE
S31508002E20C00717D000BE15E0E8480068C00711D0F3
S31508002E3000BE0FE0404629468AF80080FEF768FF84
S31508002E4018B14046FEF7A5FFAFE7E0480068C0079F
S31508002E5000D000BE0020BDE8F08700BF3400002087
S31508002E60C8010020F0ED00E07047FEF775BA0000D3
S31508002E702DE9F04F89B0DFF8049999F80000FF288A
S31508002E8000F0268305ACD14FDFF8DC8804F1040A8C
S31508002E90D9F80410D8F8046000208847301D214668
S31508002EA0FFF7F2FDD9F80410064601208847002EE0
S31508002EB000F00E839DF81500013807280DD8DFE8C5
S31508002EC000F004111820293070979DF8140000F0BE
S31508002ED057FC069888F80E00DAE73868C007D7D096
S31508002EE000BED5E79DF8140000F04AFC00F0F8FA99
S31508002EF0CEE798F80F00C007CAD00698FFF7B4FFC8
S31508002F00C6E798F80C00C107C2D0C0F3C000FFF7A7
S31508002F10ACFFBDE798F80C00C007B9D0FFF73AFF39
S31508002F20B6E798F80000002800F0C98298F8000073
S31508002F30013888F8000098F800000028A8D198F809
S31508002F400C00BB4640F0010088F80C0098F83000E9
S31508002F5000F0FE0088F8300098F8300000F0FB001A
S31508002F6088F8300098F8310000F0FE0088F8310043
S31508002F7098F8310000F0FB0088F8310000209DF831
S31508002F80147000F003FB9DF81800C0F341110229E4
S31508002F9049D0032955D1FEF7D7F800F04C8100BE79
S31508002FA049E19DF8181011F00F0008EB400000EBFE
S31508002FB0D11292F8303003F0FE0382F8303092F8DE
S31508002FC0303003F0FB0382F8303018D0CA091044B9
S31508002FD098F8012090F82000824218D9D8F80820DD
S31508002FE0002A00F0718200EBC00002EB800012E0BC
S31508002FF0069900293FF44CAF0798884748E7079B8E
S315080030009DF814009DF8192000F0CEFA40E7DFF885
S31508003010C80440F059828569079B9DF814009DF8FD
S315080030201920A84734E7DFF8B40400F0AFFA3846A9
S315080030300121524600F058FA002800F0FC805F464D
S3150800304026E700F01F0102291DD0012942D00029D8
S3150800305055D100F06000202857D19DF81C000F2894
S3150800306000F2E980404498F80110007C814240F261
S315080030709680D8F80810002900F0DD8000EBC00023
S3150800308001EB80018EE0BDF81C1001F00F02082A42
S315080030904FD2C9B208EB4206DFF83C544FEAD11CBE
S315080030A0664496F8203098F801609E424FF0000674
S315080030B003EBC30308BF2E46D8F8085088BF05EBB4
S315080030C0830610F0600F57D0002E00F0B480384603
S315080030D0314668E09DF81C000F2800F2AC80404499
S315080030E098F80110007C814229D9D8F808100029DF
S315080030F000F0A18000EBC00001EB800123E0FEF7A1
S3150800310023F800F0988000BE95E09DF8190009287C
S3150800311056D8DFE800F0054C555D55687755A5AFDC
S3150800312098F80C00022101EA9001C0F34010084407
S315080031304AE1FEF709F800F07E8000BE7BE0DFF882
S31508003140981340F0788038465246FFF7C3F90028AE
S315080031507FF475AF9DF8180010F0600F40F06B8093
S31508003160002000F013FA9DF819000B2800F057818B
S315080031700A2860D1002075E09DF81900032818BFB9
S31508003180012840F01981BDF81A20002A40F02F8145
S31508003190012840F02981002000F06EFA27E1DFF8C7
S315080031A0381348D138465246FFF794F944E7BDF834
S315080031B01A0001283FD198F80C0000F0F7000FE03C
S315080031C0FDF7C2FF37D000BE35E000BFF0ED00E0E6
S315080031D0BDF81A0001282ED198F80C0040F0080016
S315080031E088F80C001BE1504600F0D4F99DF81A1037
S315080031F03846FFF719F898F80C0040F0020088F8EE
S315080032000C001CE7BDF81A004FF0FF3101EB102146
S315080032100E2910D8DFE811F01A00080113010F0073
S315080032200F00190121010F000F000F000F000F00FA
S315080032300F000F0027019DF814000021FEF7F2FB8E
S315080032409DF814008021FEF7EDFBF8E6FFF722FD56
S31508003250002800F0218102463846514612230BE128
S3150800326098F80D008DF82200384651460DF12202D5
S315080032700123B0E098F80D009DF81A60B04200F0FE
S31508003280CE8098F80D0068B138460021FEF7D2FFC7
S315080032903846FEF751FB98F80E503846FEF7A8FA5E
S315080032A088F80E50002E88F80D6000F0B680701E63
S315080032B0C0B2FFF7EBFC002800F0AA80417802298B
S315080032C040F0A680C1792022102302EA510203EABF
S315080032D0510198F80C3003F0CF031944114488F8CB
S315080032E00C104188421800F109010192914280F0C0
S315080032F0DE8048780B2805D10878CB7801440293FC
S31508003300487801E001230293042840F0D380501A3C
S315080033104FF0000C0025039182B298F80130581C32
S31508003320C6B2B5423ED29D4206D2D8F80800002859
S3150800333000F0A580604402E0674840F0A080036979
S315080033403846CDF810C0164698473246092802D3A3
S315080033500646824206D2DDF810C0039901350CF103
S31508003360240CDAE703990020AC46029BC2B29A42C3
S315080033700CD28A78024458FA82F313F8102FFF2ADF
S3150800338040F0908083F800C00130EEE708F1200095
S315080033905FFA8CF33246FFF711F9039998F80100A2
S315080033A031440130C0B2EAB28242019A9ED3FDF797
S315080033B0E7FE68D000BE66E080B908EB42006044CC
S315080033C090F83000C0F34000ADF822003846514668
S315080033D00DF122020223FFF725FC30E6FDF7B4FEC5
S315080033E03FF429AF00BE26E7002000F083F9002E3F
S315080033F03FF425AE384631465246FFF76BF80020B3
S3150800340000F0C4F898F83100C0077FF418AE06E05B
S31508003410FDF7B6FE37D000BE35E000F061F8384655
S315080034205146FFF7F3FB0AE6C0B2FFF72FFC024648
S31508003430F8B9FDF789FE3FF4FEAE00BEFBE6BDF81F
S315080034401C10C0B2FFF72EFC01E0FFF727FC00288E
S315080034503FF4F1AE037802460CE0C0B2FFF720FC59
S31508003460024630B9E7E6FFF70DFC00283FF4E3AE65
S315080034700246538838465146FFF7D4FBDCE5FDF78C
S315080034807FFE00D000BE002088F80D000868C0073F
S315080034903FF4D1AE00BECEE6FDF756FE3FF4CBAE06
S315080034A000BEC8E6FDF76CFEEDD000BEEBE7FFF701
S315080034B06EFCB4E7FDF764FEE5D000BEE3E73868C6
S315080034C0C00705D000BE03E03868C00700D000BEBC
S315080034D009B0BDE8F08F00BFDC390008E934000800
S315080034E00020FDF71DBF000001291CBF0120704701
S315080034F0117801F0600140290BD15178012908D1D2
S315080035009188072905D1044B11461A469E23FFF7D1
S3150800351089BB0020704700BF543A000808B1002054
S31508003520704780B5BF486030FFF734FA80BD00BFEA
S3150800353008B100207047E84813460A4600F15801CA
S315080035400020FFF786B800BF08B10020704710B505
S31508003550E1480C4693B22246011D0020BDE8104002
S31508003560FFF7E8B808B100207047EB48011D0020B6
S31508003570FFF730B970477047002101700020704787
S3150800358080B536481421FCF7EEFE80BD3349086144
S31508003590704700BF01684068304A0023C2E900103E
S315080035A0C2E90233704700BF70B52C4D04461E466B
S315080035B095F90000414049B2B1F1FF3F27DD0028E7
S315080035C007D4A86800283DD005F114013246FCF757
S315080035D07DFEA968E88931443044A960E988E88114
S315080035E080B2814218BF3F2E23D82B6923B11B4ACC
S315080035F020460221984738B318492046FEF7D6FFD9
S3150800360050BBB6480068C0071CD000BE1AE02EB1F1
S31508003610B2480068C00715D000BE13E02046294608
S31508003620FEF744F92B69BBB10C4A2046032198479B
S3150800363012E02046FEF70EF970B9A8480068C007E0
S3150800364000D000BE002070BD20460021FEF7EAF932
S3150800365020468021FEF7E6F9012070BD50010020C2
S31508003660414A01F00F0002EB400000EBD1100021A7
S315080036703030FEF7B5BF00BF10B540480C4600789D
S31508003680FEF728F9384904F00F0001EB400000EB7B
S31508003690D410FDF763FD10BDB0B5887800070FD4C8
S315080036A036480C46002205782F48817B2046FFF7CE
S315080036B0EFF858B128462146BDE8B040FEF754B9A0
S315080036C086480068C00706D000BE04E08348006844
S315080036D0C00700D000BE0020B0BD00BF224A01F0DE
S315080036E00F0002EB400000EBD11000213030FEF74E
S315080036F08BBF00BF10B521480C460078FEF792F93B
S31508003700194904F00F0001EB400000EBD41090F8C3
S31508003710301041F0020180F8301090F8301041F076
S31508003720010180F8301010BDB0B50F4CFDF72DFD26
S315080037300AD112480078257845F001052570FEF76C
S3150800374099F938B10120B0BD64480068C00708D0AF
S3150800375000BE06E0FDF723FD60480068C00700D0FC
S3150800376000BE0020B0BD00BFC801002001460348C6
S31508003770007809B1FEF70DBBFEF70ABB340000203E
S3150800378080B5FEF735F8BDE88040FFF7F9BE0000C2
S3150800379070B5874C00200121AC25C90704BF01205C
S315080037A070BD00FB054606F15800FEF73BFF301DCD
S315080037B0FEF738FF01200021EFE700BF2DE9FF479C
S315080037C0DFF8EC91AC214FF0AC084846FCF7CBFD8E
S315080037D0DFF8E0A1002401254026E80708BFBDE878
S315080037E0FF870AEBC41704FB089400210022002374
S315080037F00396002504F16C008DE8C10004F1580019
S31508003800FEF712FF07F1400004F118010122002318
S31508003810CDE90016CDE90206201D00210124FEF798
S3150800382003FFDAE78C0300202DE9F04105464879C5
S31508003830FF2808D1DFF878810C4698F8050098F833
S315080038405910084303D0002080B2BDE8F0812078E3
S31508003850A178A718261888F80010BE422ED230780C
S315080038603044B8422AD87078052804D0042825D0D0
S315080038700B2820D122E028463146FFF70DFFF8B184
S3150800388096F90200B0F1FF3F0BDD98F8591091B98F
S31508003890414611F8582FFDF742FCFEF7EBFE50B9EA
S315080038A014E098F8051031B9414611F8042FFDF7D0
S315080038B036FCFEF78FFF30780644CEE7301BC3E7A9
S315080038C006480068C007BED000BEBCE703480068CB
S315080038D0C007B8D000BEB6E78C030020F0ED00E0C4
S315080038E0F8B5334D00200126AC24F10708BFF8BD12
S315080038F000FB045700FB04F100266E5407F1600034
S31508003900FFF72CF807F10C0087F85960FFF726F83F
S315080039107E710120E9E700BF8C0300202DE9F04104
S31508003920804623481D4600230127AC22FE0721D0E6
S31508003930DEB216FB020393F859708F421DD05C79EC
S31508003940012300278C42F1D1AC2216FB02004279F2
S315080039508A422AD1071DA9B23046FFF70CFE404617
S315080039603946FEF737FF00BB404639462A46FEF77A
S3150800397063FF1AE00020BDE8F081AC2116FB0100C8
S31508003980B0F8641000F1580721B1C16D6030AAB2D1
S31508003990FFF7CFF80748AAB200EBC6113046FFF783
S315080039A0E9FD40463946FEF765FE0120BDE8F0818F
S315080039B08C0300200C030020F1EE100A4FF6FF716D
S315080039C0C0F2C03120EA010040F04070E1EE100A72
S315080039D0704709040000000001020304000000000B
S315080039E0BD37000891370008E13800082938000873
S315080039F0E93400081D390008000000000000000036
S31508003A00050F2100011C100500DF60DDD88945C7B8
S31508003A104C9CD2659D9E648A9F000003069E000109
S31508003A2000001201010200000040501DAC600001B8
S31508003A300102030109022000010100804B0904006C
S31508003A400002FF000000070501024000000705818B
S31508003A50024000000A000000000003069E00140051
S31508003A60030057494E55534200000000000000006D
S31508003A70000080000400010028004400650076006C
S31508003A8069006300650049006E00740065007200F5
S31508003A906600610063006500470055004900440060
S31508003AA000004E007B00380030003700390039002E
S31508003AB03900430033002D0045003400450030002E
S31508003AC02D0034003000450041002D00380031003B
S31508003AD0380038002D00340038004500380035001D
S31508003AE032004200350034004600320042007D00B4
S31508003AF0000057696E5553422042756C6B20446529
S31508003B0076696365004F70656E424C54205573653F
S31508003B1072002E2E2F2E2E2F2E2E2F2E2E2F536F37
S31508003B20757263652F41524D434D345F53544D337F
S31508003B303246332F7573622E63004F70656E424CA2
S31508003B4054000000683B00080000002050000000F8
S31508003B50C4010008B83B00085000002038120000D5
S31508003B60E00100080000000010000000010000004D
S31508003B70D2390008053B0008F23A00081800002070
S31508003B803031323334353637383941424344454685
S31508003B90000000000000000000000000FF00000018
S31508003BA06D3700084A02002010000C0000000000D3
S30D08003BB000127A000000000073
S7050800018968
