S02000006F70656E626C745F6F6C696D65785F73746D3332683130332E737265630F
S31508000000281400204D3B0008913B0008953B00084A
S31508000010993B00089D3B0008A13B00080000000032
S31508000020000000000000000000000000A53B0008DA
S31508000030A93B000800000000AD3B00080134000899
S31508000040B13B0008B53B0008B93B0008BD3B0008BA
S31508000050C13B0008C53B0008C93B0008CD3B00086A
S31508000060D13B0008D53B0008D93B0008DD3B00081A
S31508000070E13B0008E53B0008E93B0008ED3B0008CA
S31508000080F13B0008F53B0008F93B0008FD3B00087A
S31508000090013C0008053C0008093C00080D3C000826
S315080000A0113C0008153C0008193C00081D3C0008D6
S315080000B0213C0008253C0008293C00082D3C000886
S315080000C0313C0008353C0008393C00083D3C000836
S315080000D0413C0008453C0008493C00084D3C0008E6
S315080000E0513C0008553C0008593C000800F0010046
S315080000F0704780B5DFF8941A887800F01DFE012055
S3150800010002BD00002DE9F041DFF8806A0546B078A7
S31508000110FF280C465DD1002C06D1DFF8740A016869
S31508000120CA0751D500BE4FE03421DFF8000800F0B9
S3150800013021FE0020307006F1100000F09DFF06F148
S315080001400C00B060701C01F026F870607078401CD6
S31508000150B0F5807F06DBDFF8380A0168CA0733D5B1
S3150800016000BE31E00027DFF82C8A07E04046002869
S315080001701CBF4068002813D080477F1C7078421C3B
S31508000180F9B2D2B2914212D2814205D2706801EB1D
S31508000190C10200EB8200EAE7381AC0B20028E5D0AF
S315080001A0DFF8EC090168CA070ED500BE0CE0B57089
S315080001B02146284600F0FAFF002807D1DFF8D009C3
S315080001C00168CA0700D500BE00F0A6BD284600F0A3
S315080001D0E7FF0120BDE8F081F8B504460025DFF801
S315080001E0B469DFF8A87906E03146002915D0C96850
S315080001F0204688476D1C7878421CE9B2D2B29142F3
S3150800020012D2814205D2786801EBC10200EB820165
S31508000210EBE7281AC0B20028E6D0DFF874090168AF
S31508000220CA0714D500BEF1BDDFF8004734212046C1
S3150800023000F0A0FDFF221021201D01F07FFD04F132
S315080002401400BDE8F840FF22102101F077BDF1BD8A
S31508000250F0B5DFF83859A878FF2883B018D103B06D
S31508000260F0BD9DF80110491E072900F2CD80DFE890
S3150800027001F0041FC1A3B02862B99DF80000FFF77A
S31508000280ABFF01F0FDFD9DF80400DFF8A0168870AD
S315080002900020AC68216888476946201D00F02FFEBB
S315080002A00646216801208847002EDAD103B0F0BD42
S315080002B09DF80000FFF790FF01F0E2FD01F0EEFE69
S315080002C0E6E7287800282ED029784A1E2A7028784A
S315080002D00028DDD1DFF85406017841F0010100F865
S315080002E0241B027802F0FE020270017801F0FB017D
S315080002F00170427802F0FE024270417801F0FB017B
S31508000300417001A99DF8000000F094F80028BFD1BB
S315080003109DF80000002101F079FC9DF8000080217D
S3150800032001F074FCB4E7DFF85C090168CA0796D5E2
S3150800033000BE03B0F0BD9DF80410DFF8F03501F0FB
S315080003400F0003EB400303EBD11414F8246F06F0F7
S31508000350FE062670277807F0FB07277038B9029B38
S315080003609DF805209DF8000001F09CFD90E703EB41
S31508000370D1106A78007D904205D26A6800EBC00306
S3150800038002EB83040EE0801AC0B2002808D0DFF81A
S31508000390F4080168CA077FF562AF00BE03B0F0BD76
S315080003A0DFF8F047002CF2D0029B9DF805209DF857
S315080003B00000A469A0476BE7DFF870050178CA0753
S315080003C07FF566AF0078C00800F0010001F069FE0D
S315080003D05EE7DFF858050178CA077FF559AF01F0DF
S315080003E062FE55E7019800283FF452AF029801993A
S315080003F088474DE7DFF83405C178C8077FF548AF69
S31508000400019801F054FE43E7DFF878080168CA0747
S315080004107FF53EAF00BE3BE770B50D4604466869FA
S31508000420164601F031FD6B6932462046BDE870403C
S31508000430012118472DE9FC4180460E46002001F0AF
S3150800044023FD3078C0F34111022906DDDFF83408B0
S315080004500168CA0741D500BE3FE00AD1DFF8A40803
S3150800046001F012FD32460121404601F027FEBDE8A3
S31508000470F68110F01F0105D0022900F0EF80C0F0C8
S31508000480BA8051E1C0F3411101291CD130791028F5
S3150800049023D2DFF87418085CDFF8F0164A78904221
S315080004A005D2496800EBC00201EB820104E0801A1C
S315080004B0C0B290B9DFF8DC1679B132464046FFF78C
S315080004C0ABFFBDE8F681C0F34110002808D0DFF87D
S315080004D0B4070168CA0700D500BE0020BDE8F6814A
S315080004E07078092800F27F80DFE800F06E647D5A94
S315080004F07D05527D1622304601F0C9FC7188C9B2C5
S31508000500404600F0A7FEDFF82404017841F0020116
S3150800051001700120BDE8F681DFF8101448788DF8DF
S31508000520000001236A463146404601F067FCF0E7C1
S315080005307788DFF8F8436178FAB2914223D0607879
S3150800054058B10021404600F077FE404601F0FAF91E
S31508000550A5784046FFF740FEA5706770F8B210B957
S3150800056001F09CFD0FE0F9B2404600F0E5F80028DE
S3150800057007D1DFF8101760700A68D007ADD500BE3E
S31508000580ABE701F088FD3146404601F0F5FBC0E7D0
S315080005903146404600F07CF90028BAD1BDE8F6811C
S315080005A07088012899D1DFF88403017841F00801A1
S315080005B00170E8E7708801288FD1DFF870030178A9
S315080005C001F0F7010170DEE7DFF8600301784809FA
S315080005D000F00100C1F3C00109B140F00200ADF816
S315080005E0000002239EE7DFF89C060168CA077FF52C
S315080005F074AF00BE71E730791028BFF46EAFDFF82C
S3150800060008170A5CDFF8840541788A4205D24068F3
S3150800061002EBC20100EB810106E0511AC9B20029BA
S315080006207FF45BAFDFF86C1500293FF456AF32460E
S315080006304046FFF7F1FE00287FF46BAF3078C0F331
S31508000640411000287FF449AF01F01EFC71780A2991
S3150800065002D00B2997D040E7002060E7B18801F067
S315080006600F02082A07D3DFF81C060168CA077FF5B8
S3150800067034AF00BE31E7AD4F07EB42020B0602EB83
S31508000680D373DFF808251D7D537800249D4205D2D3
S31508000690526805EBC50302EB830404E0EB1ADBB2F0
S315080006A00BB9DFF8F044C0F3411028B1002C3FF431
S315080006B014AF3246214601E77278100004D0012AA9
S315080006C018BF032A0CD027E0C9B2404600F00EFB3B
S315080006D0401E8041C043C00FADF80000022321E749
S315080006E0708840B9012AC9B2404602D100F0E5FA3D
S315080006F001E000F0C9FA002C3FF40BAF3246214660
S315080007004046FFF789FE002001F0BEFB97F825005A
S31508000710C1073FF5FEAE36E7DFF868050168CA0788
S315080007207FF5DBAE00BED8E6DFF858050168CA07D4
S315080007307FF5D3AE00BED0E62DE9F84F8146481EB8
S31508000740C0B201F0B7FC002802D04178022907D0D0
S31508000750DFF830050168CA0740F1938000BE90E0D3
S315080007607249C3790A78DFF82CA4DFF820745B098C
S3150800077002F0EF0203F0010342EA03120A7002F0E4
S31508000780DF02C3799B0903F0010342EA43120A70A8
S3150800079000F109054188084400900098854273D203
S315080007A0687801240B2802D1EC7828780544697802
S315080007B0042907D10098401BC84600261FFA80FB6B
S315080007C0814614E0DFF8BC040168CA0759D500BEA3
S315080007D057E05346002B1CD01B691FFA89F229469D
S315080007E040469847092801D3834519DA761C787854
S315080007F0421CF1B2D2B2914236D2814205D2786811
S3150800080001EBC10200EB8203E4E7301AC0B200280C
S31508000810DFD0DFF870040168CA0732D500BE30E0C1
S31508000820C14600218046012C404815DBAA788A1863
S31508000830D2B2031D13F802C0BCF1FF0F05D19E54B6
S31508000840491CCAB2A242F1DB06E0DFF838040168A7
S31508000850CA0716D500BE14E0F3B24246294614303C
S3150800086001F044FD454400E0C1467878401CF6B2E4
S31508000870C0B2864291D3DFF80C140868C20700D5C7
S3150800088000BE0020BDE8F28F0120BDE8F28F00000F
S3150800089038B50D4604466888010A01290AD0022996
S315080008A01DD003292FD0062932D0072917D00F29A2
S315080008B00ED039E001F0FCFB0246002A06D1DFF82B
S315080008C0C4030168CA072FD500BE2DE0122324E011
S315080008D001F0F2FB002828D0811C0B881CE00229B5
S315080008E0C0B20AD101F0E6FB002809D1DFF894036B
S315080008F00168CA0718D500BE16E001F047FEA0B188
S31508000900811C0B8808E0A988C0B201F0F8FB01E059
S3150800091001F03EFE48B1037802462946204601B05A
S31508000920BDE8304001F06ABA002032BD900B0020C5
S315080009302DE9F043044683B06078801E05280E46EC
S3150800094000F2F880DFE800F00327131DAFB4DFF8E4
S31508000950BC03017801F0FE0101700021027802F063
S31508000960FD0202704170027802F0FB02E1E0DFF856
S315080009709C030178CA0740F1FB80017841F0040125
S3150800098094E0DFF888030178CA0740F1F18001781E
S3150800099001F0FB018AE00027DFF8F8817B4D14E0BF
S315080009A0381AC0B280B9404606E08142F8D2686873
S315080009B001EBC10200EB820000281CBF026A002A74
S315080009C002D06168207890477F1C6878421CF9B28B
S315080009D0D2B29142E9D3DFF834733878C0F3800095
S315080009E098B397F800C00FF238310CF0FB0C87F873
S315080009F000C0684691E80C4080E80C402078D5F89D
S31508000A0008808DF80000300003D1D8F800100020C7
S31508000A108847694608F1040000F094FA81463000D8
S31508000A2003D1D8F8001001208847B9F1000F05D185
S31508000A3057480168CA0708D500BE06E09DF80110A8
S31508000A409DF80000324601F0A5FDF878C00740F190
S31508000A508F800FF2D82191E88C00684680E88C00D8
S31508000A6020788DF800006068AC680190300002D1EB
S31508000A702168002088476946201D00F063FA05466C
S31508000A80300002D1216801208847002D05D1404851
S31508000A900168CA076CD500BE6AE09DF801109DF88A
S31508000AA00000324662E039480178491C017041E08D
S31508000AB0217901F00F00CF0900283BD0DFF84C223E
S31508000AC002EB400808EB0700027D304843789A425B
S31508000AD005D2406802EBC20300EB830503E0D21A95
S31508000AE0D2B23ABB2B4D002D1CBFE869002821D095
S31508000AF008EB070010F8242F02F0FE02027008EB3C
S31508000B00070010F8243F03F0FB0303706279A3681B
S31508000B102078ED69A84758BB08EB070010F8241F92
S31508000B2041F00101017008EB070010F8242F42F08C
S31508000B300402027015498D68300002D12968002028
S31508000B4088472146281D00F0FDF90746300002D1E6
S31508000B50296801208847002F05D10D480168CA0772
S31508000B6006D500BE04E061782078324601F012FD11
S31508000B7003B0BDE8F083DFF89811897800280846A5
S31508000B8018BF00F00DBB00F010BB0000C400002029
S31508000B90F0ED00E0983A000838B55D4884780D46CF
S31508000BA0A87800F00F00082805DB5A480168CC072A
S31508000BB00ED500BE0CE0554B99780022284601F068
S31508000BC045FB002806D153480168CA0700D500BE70
S31508000BD0002032BD29462046BDE8344000F04EBE0E
S31508000BE030B44A4A084600F00F0302EB430404EB0C
S31508000BF0D01505F1240030BC002101F0FDBA30B44F
S31508000C00424A084600F00F0302EB430404EBD015F2
S31508000C1005F1240030BC002101F007BBF8B501F04E
S31508000C200F003A4DCC0905EB400505EB040090F89A
S31508000C302460F0071DD42819354F10F8246F46F0A4
S31508000C4001060670B87800F0CFFFC0B9281910F869
S31508000C50241F01F0FE01017028192430027802F0E1
S31508000C60FB0202702B480168CA0700D500BE0020A7
S31508000C70F2BD28480168CA07F9D500BEF7E7012082
S31508000C80F2BD0000F0ED00E038B5214A907801F099
S31508000C900F04CD0900F0BAFF1C4901EB44004319C3
S31508000CA003F1240128440A7842F002020A7010F877
S31508000CB0241F41F00101017031BD38B5144A9078FE
S31508000CC001F00F04CD0900F0C6FF104901EB4400FE
S31508000CD0431903F1240128440A7802F0FD020A7038
S31508000CE010F8241F01F0FE01017031BD074801F01C
S31508000CF00F0200EB420303EBD11191F824004008E0
S31508000D00FFF7F4B9BD200008940B0020900B0020D3
S31508000D10C4000020F0ED00E00020BDE8F0810000EE
S31508000D2000050000000000000000000000030000AD
S31508000D300000000000000000704730B501688468B4
S31508000D404218416802EB5103C90703D54C4401E038
S31508000D50491C08D19A4218BF12F9011B01D10C305F
S31508000D6030BD12F8015B002904F8015BF0D4491E76
S31508000D70F7D5EFE7002200F0E5BF30B448F20105E9
S31508000D80AA42A8BF002011DA029C016082800022D4
S31508000D90C18863F30E01C180C17901F07F0141EA80
S31508000DA0C411C171002141810281012030BC704704
S31508000DB0521893B28B4203D391B2B1EB400F03DBC7
S31508000DC0C0EBC03102EB410290B2704738B50C4611
S31508000DD09A422FBFD11A8188C3EB4101511889B2B3
S31508000DE009B9002032BD85888D4207DAAA422CBF90
S31508000DF0521BAA184281134600E05B1B99B2A9420E
S31508000E00FBD2C1880068C1F30E019BB20A464B4368
S31508000E10C118204601F0C0FB012032BD2DE9F04182
S31508000E200546069886B2B3422FBF1E1AAF88C0EB96
S31508000E3047069E19B4B214B90020BDE8F081AC8803
S31508000E40B7B2BC4206D2A3422CBF1B1BE3186B8168
S31508000E5018462646B6B2964202D9164600E0001B48
S31508000E6083B2A342FBD2EA88A4EB000CA6EB0C04DF
S31508000E70C2F30E08079B424608FB04F81FFA8CF7D4
S31508000E802C6880B257435043BFB22044DBB29BB9AB
S31508000E900C461FFA8CF1B14203D301467243204631
S31508000EA008E001463A46204601F076FB29681FFA13
S31508000EB088F2E01901F070FB3046BDE8F081014682
S31508000EC048890A89898882422EBF101AC0EB4100D8
S31508000ED0101880B2884288BF08467047014648897C
S31508000EE00A89898882422EBF101AC0EB4100101861
S31508000EF080B28842B4BF081A002080B2704738B55D
S31508000F00044663892289FFF761FF61890546A0883F
S31508000F102A46FFF74DFF6081284632BD3EB5044696
S31508000F20002560890195009020462389FFF776FF02
S31508000F3061890546A0882A46FFF73AFF608103B013
S31508000F40284630BD70B50446258960892389A2885C
S31508000F5083422EBF181AC0EB4200181880B290427E
S31508000F6002D3E079C00916D0284600E0801A83B279
S31508000F709342FBD2E388266880B2C3F30E03584334
S31508000F801A46304401F008FBA08801222946FFF7DB
S31508000F900FFF2081012070BD2DE9F843140008BF1A
S31508000FA0002066D0054689462F896B89E879AE8880
S31508000FB0C00914D19F422EBFFB1AC3EB4603FB1888
S31508000FC09BB2B342B4BFF31A002399B28C4203D33F
S31508000FD01C46A0B200284BD0A98838461EE0B44269
S31508000FE008D3E888A41BC0F30E004443A144344642
S31508000FF01F46EEE79F422EBFF91AC3EB4601791842
S3150800100089B261183046B1EB400FE5DB321B92B26C
S315080010101946FFF7CDFE0746DEE7401A83B28B4234
S31508001020FBD2EE88091AC6F30E0632468BB2534334
S315080010301FFA83F8631A5E432B6880B2504318443C
S3150800104089B2A3B2994203D3A1B24A43494607E0FB
S315080010504246494601F0A0FA2868B2B209EB0801EF
S3150800106001F09AFAA888A2B23946FFF7A1FE2881AC
S31508001070204680B2BDE8F283002141810022028128
S315080010800120704703898288C9181FFA81FC9C458C
S3150800109003D38BB2B3EB420F03DBC2EBC23301EBD4
S315080010A043010181704743898288C9181FFA81FC68
S315080010B09C4503D38BB2B3EB420F03DBC2EBC233BF
S315080010C001EB430141817047F0B40389448985885F
S315080010D0A3422EBF1A1BC4EB45029A1892B2954238
S315080010E005DAAB422CBF5C1BEC1844812A462AB9A8
S315080010F0002008804A80486019E05B1B9FB2AF4217
S31508001100FBD200E0641BA6B2AE42FBD20568A4B2CD
S315080011109BB225449C424D6003DA14460022002007
S3150800112003E0838800681C1B121B0C804A802FE092
S31508001130F0B4038944898588A3422EBF1E1BC4EBDD
S3150800114045069E19B6B2AE42B4BFAA1B002292B299
S315080011502AB9002008804A80486019E05B1B9FB2C4
S31508001160AF42FBD29BB200E0641BA6B2AE42FBD2F2
S315080011700568A4B21D44A3424D6003DAE31A0022AF
S31508001180002003E084880068E31AD21A0B804A809C
S315080011908860F0BC70470021017000207047090480
S315080011A0BFF34F8FBFF36F8F7047704738B504464C
S315080011B0002002E000BF0098401C00900099C82952
S315080011C0F8D3DFF84C1B032008800022009203E0C6
S315080011D000BF0098401C00900098C828F8D30A88D9
S315080011E04FF6FD7002400A800021009103E000BF1F
S315080011F00098401C00900098C828F8D3DFF8100B18
S315080012000180002202820023DFF8081B83800A80FF
S315080012108B8000250D818A810B828A820B838A83C3
S31508001220018841F45D410180204600F018F8204607
S3150800123001F005FA012032BDDFF8D42A21B1108861
S3150800124040F400701080704711884FF6FF50014037
S315080012501180704700230022802100F0C5BC38B5F4
S31508001260DFF8B84A00202080FF21DFF8B40A0170B1
S3150800127041700171417101724172017341730174C8
S3150800128041740175417501764176017741770022EF
S31508001290002140234280C2804281C2814282C282AA
S315080012A04283C1830384002000F098FA002180203D
S315080012B000F094FADFF86C0A4021818100228183CC
S315080012C0827382770021402000F060FA05460021EB
S315080012D0402000F05BFADFF8501ADFF8382A0D8153
S315080012E0088047F27000138803404FF4805583F452
S315080012F008538D8183F0200313808021218031BD1E
S315080013000000000030B50446DFF81C0A00EB0410A4
S3150800131085B085890189C5F309052A4603A800F021
S31508001320DEFCDFF8F01931F8242040F68F70024011
S3150800133042F0800221F82420082D11D106218DF8CB
S315080013400110002003A98DF80000D1E9002301A8A7
S315080013500121C0E900236846FFF7EAFA05B030BD67
S31508001360DFF8C8090168CA0700D500BEDFF8C0194A
S315080013704FF48050088005B030BD00002DE9F84FC5
S31508001380DFF88C198AB0044688880290820511D540
S315080013904FF6FF500A468880002011898DF80C0008
S315080013A0C1F30A01032204918DF80D20012103A837
S315080013B0FFF7BEFA0298420513D5DFF854194FF61F
S315080013C0FF3088802046FFF74AFF00208DF800008E
S315080013D001218DF804008DF801106846FFF7A8FA78
S315080013E0BCE1C10418D5DFF8282913884FF6FB702D
S315080013F0034013804FF6F77114880C4014804EF69C
S31508001400FF739380002005218DF80C008DF80D10D0
S3150800141003A80121FFF78CFA0298020516D5DFF812
S31508001420F008018841F0080101804FF2FF71028837
S3150800143042F0040202808180002004218DF80C000D
S315080014408DF80D1003A80121FFF772FA0298C1055D
S315080014501CD5DFF8C4281078012809D1DFF8B08830
S31508001460B8F800304FF6EF7144460B40238001E090
S31508001470002801D0401E10704FF6FF61DFF8902853
S31508001480918003E04146104600F088FADFF88008AC
S3150800149081880A0440F15681B0F80480DFF8749810
S315080014A008F00F0839F8280003900146080440F1AF
S315080014B0FD80080503D54046FFF724FFF6E039F816
S315080014C0281040F68F70014041F0800129F8281055
S315080014D039F828A04AF4004040F0800A0AF00F00C4
S315080014E00AF4C0610990B1F5806F0CBF012400248D
S315080014F04FEA9A3000F00100204080F00100DFF842
S315080015002818C00001EB0817DFF818183A1895884C
S31508001510385AADF80400C5F30905099801EB4016D9
S31508001520706800285FD0002D089064D004A9FFF7E2
S31508001530FFFDBDF81000AB46834588BF8346BDF85E
S315080015401210A5EB0B0080B2884288BF0846ADF89A
S3150800155000004FF6FE7200EB0B0102EA0B02ADF833
S315080015600610ADF802200598BDF80220BDF8041053
S31508001570079000F0B4FBBDF80400BDF80210091886
S315080015805FEACB7058BF069822D588B2DFF898274D
S3150800159002EB4002891C13880798BDF80220835481
S315080015A00698BDF800201B0A4FF0010C1FFA82FEB0
S315080015B0BEF1000F0AD000F8013B0CF1010C002324
S315080015C0521E1FFA8CFEBEF1010FEFDDADF80020AA
S315080015D0BDF8002089B200F082FBBDF80610089815
S315080015E0FFF750FD07E030687389BDF804102A46F6
S315080015F0184400F074FB708928187081B1898D42EF
S315080016002BD370893189884227D2002C1CD10A46EF
S315080016107189B089521A92B2824288BF02463F2A1D
S3150800162004DB02F11F000121400902E0501C0021E1
S315080016304008C0B2401A800240EAC13081B200298F
S3150800164008BF4FF40040B8814BF68F7000EA0A00D5
S3150800165080F4405A29F828A028E0B0893F28014696
S3150800166003DB1F310120490902E0491C0020490813
S31508001670C9B2091A890241EAC03188B208B94FF4D9
S315080016800041B981072271898DF811200020099A35
S315080016908DF8100006918DF815008DF8142001219B
S315080016A004A8FFF745F900207081308103980106E8
S315080016B07FF5ECAE39F8281048F60F70014041F472
S315080016C0004129F8281039F82830DFF8580603F0C1
S315080016D00F0103F4C06400EB4110B4F5806F00F10C
S315080016E0100218D1D07B00283FF4D0AE00249B0905
S315080016F0D47303F00103DFF8300683F0010300EB2F
S31508001700081000EBC30400EBC300B4F8049009F416
S315080017107C49A0F804905389108998427FF4B2AEA8
S3150800172041F0800100228DF810108DF80C20072456
S3150800173005938DF811208DF80D40012103A8FFF7B8
S31508001740F7F8A3E602994A0408D5DFF8E0150B680E
S31508001750DA0700D500BE4BF6FF7181800BB0BDE8F5
S31508001760F08F087810F07F0F04BF4878052806D157
S315080017704888DFF8A815C0B240F0800008804FF40A
S315080017808050DFF8AC2510807047000010B43F2861
S31508001790024603DB1F322020520902E0521C0220B7
S315080017A05208DFF87C351C8CD2B242432046141905
S315080017B019B1A1B240EA014014191C8440F2012271
S315080017C0198C914207D3DFF864050168CA0700D56A
S315080017D000BE4FF6FF7010BC70470000F0B400F072
S315080017E00F040B46C209DFF8385582F001000021C4
S315080017F0AE182F18B07818B195F801C09C4506D0D8
S31508001800012B0CBF4FF0010C4FF0000C04E095F8CB
S3150800181000C0A445F4D125E078B9BCF1000F06D183
S315080018202878FF2807D16878FF280DD10EE0B87808
S315080018300028F5D001E0A042F5D0491C3F1D2D1D1A
S31508001840361D0829D6DB10E09842F6D1DFF8D00419
S3150800185000F82140441C00EB810004F821301044B4
S3150800186001228270C8B2F0BC7047DFF8C004016874
S31508001870CA0700D500BEF0BC002070472DE9F84F16
S315080018800E46F178B078C50901F00301B78800F073
S315080018900F04FFF7A3FF8046B8F1080FA146C7F368
S315080018A00A0706DBDFF884040168CA0737D500BED5
S315080018B035E0DFF860A4DFF87C043AF82810014028
S315080018C00C43F17801F0030144F40044022944F082
S315080018D0800403D003291CD144F4C064DFF848040B
S315080018E000EB081600213846FFF750FF85F0010B7C
S315080018F026F83B00DFF82C0400EB491101EB051034
S31508001900878180F80E80280014BF20204FF40050ED
S3150800191008E0DFF818040168CA0700D500BE0020F1
S31508001920BDE8F28F4440002D14BF24F4E04424F0AF
S3150800193070042AF82840BFF34F8FBFF36F8F01203A
S31508001940BDE8F28FDFF8F023DFF8D4030023FF2188
S3150800195013809C4601714171A0F806C0A2F804C024
S31508001960017241724381138101734173C38193816B
S31508001970017441744382138201754175C38293824F
S31508001980017641764383138301774177C383BFF397
S315080019904F8FBFF36F8FC021018470472DE9F34F36
S315080019A0074687B079893E89B889761AB6B28642DB
S315080019B088BF0646BDF82080DFF8580330F828B0FF
S315080019C04BF4004040F0800B0BF4C060B0F5806F1C
S315080019D007D14FEA9B1000F0010001244FEAC00925
S315080019E001E00024A146DFF840A30AEB081232F80A
S315080019F00900ADF804007868002862D00690300027
S31508001A0066D0069803A9FFF75FFBBDF80C003546BC
S31508001A10854288BF0546BDF80E10701B80B2884205
S31508001A2088BF0846ADF8060041194FF6FE720498BD
S31508001A30ADF80A102A40ADF8082000900146BDF816
S31508001A400820BDF8040000F037F9BDF80410BDF809
S31508001A5008004118ADF80410E907059858BF00902A
S31508001A6022D50099BDF80820895C00900122BDF8AE
S31508001A70060083B263B1009B5B1C0093D5005B1E16
S31508001A80521C1B78AB401943401E93B2012BF0DD64
S31508001A90ADF80600BDF804000AEB40021180BDF857
S31508001AA00400801CADF80400BDF806200099BDF8B6
S31508001AB0040000F001F9BDF80A100698FFF7F3FADA
S31508001AC006E038680144BDF80400324600F0F4F830
S31508001AD07889301878818BF03002BDF820000AEB3F
S31508001AE0001000EB090148448988890A61F38F26AA
S31508001AF086800CB10121F97348F6BF70854900EA62
S31508001B00020B21F828B0BFF34F8FBFF36F8F09B0D0
S31508001B10BDE8F08F70B5834800EB411101EB021068
S31508001B20012A817B02D1FFF739FF5BE0794A32F857
S31508001B3021404BF68F7323408489008943F4004380
S31508001B4043F08003A04288BF204603F4C064B4F57E
S31508001B50806F06D13F280ADB00F11F0601257609AA
S31508001B6008E03F2826DB1F300125400925E0461CF2
S31508001B7000257608F6B2761BB60246EAC536B5B231
S31508001B800DB94FF40046684D05EB01143F28A680B1
S31508001B9003DB1F300125400902E0401C00254008F0
S31508001BA0C0B2401B800240EAC53085B28DB94FF4F9
S31508001BB000400EE0401C00254008C0B2401B8002D1
S31508001BC040EAC53085B20DB94FF40040564D05EBD5
S31508001BD00114A08183F4405322F82130BFF34F8FBC
S31508001BE0BFF36F8F012070BDB8B401F00F044D4DDF
S31508001BF0C90905EB441707EB01152A6000226A603C
S31508001C006A812B810A462146B8BC83E7C80910B405
S31508001C10444A404B01F00F0102EB411101EB00145D
S31508001C20A27B33F8224044F4004444F0800404D0F4
S31508001C3048F6BF700440102004E04BF68F710C4044
S31508001C404FF48050444023F82240BFF34F8FBFF330
S31508001C506F8F10BC704730B4C809324A01F00F01C3
S31508001C6002EB411101EB00142A4AA17B32F821301C
S31508001C7043F4004343F0800307BF4FF440544FF446
S31508001C808045302440252C4344F40F4444F08F0407
S31508001C90234003F4C064B4F5806F05D0002814BF50
S31508001CA020204FF40050434022F82130BFF34F8FD5
S31508001CB0BFF36F8F30BC704713000ED01A4B03EB7F
S31508001CC04003500805D031F802CB23F804CB401E58
S31508001CD0F9D1D00744BF097819800120704713004D
S31508001CE013D0114B03EB4103510805D033F804CB4D
S31508001CF020F802CB491EF9D112F0010205D0198845
S31508001D0000F8011B090A521EFAD10120704700008B
S31508001D10405C0040005C0040E60B00204C5C004044
S31508001D20C40B0020EC08002000600040F0ED00E045
S31508001D300C6000407070FFFF045C004062F30F22E5
S31508001D4062F31F4200B500BF130096469446103949
S31508001D5028BFA0E80C50FAD85FEA417C28BF0CC01F
S31508001D6048BF40F8042BC90728BF20F8022B48BFF4
S31508001D7000F8012B00BD0000F8B50446794E0D4663
S31508001D803046082200F008FC00272046B760F760B6
S31508001D900023297801B0BDE8F040C90981F00101A6
S31508001DA00022C901FEF73ABFF8B56E4EB48905465A
S31508001DB0F089241AA4B2402C88BF40243078002722
S31508001DC0C0090ED0802784B12200B1680AD009B1B3
S31508001DD0412A01D30020F2BD06F1140000F0DCFB15
S31508001DE000E014B106F1140200E000222346394649
S31508001DF0284601B0BDE8F040FEF710BF2DE9F843CC
S31508001E0080461446574D0E461F462846082200F0BF
S31508001E10C3FBAC604FF00009A5F80E90F088874226
S31508001E2088BF0746AF81F08898B13FB1002C05D12D
S31508001E304D480168CA071DD500BE1BE04046FFF79E
S31508001E40B3FF002819D148480168CA0712D500BE51
S31508001E5010E03178C90981F0010100230022C90187
S31508001E604046FEF7DBFE002807D13F480168CA074F
S31508001E7000D500BE0020BDE8F2830120BDE8F2834C
S31508001E8014213848FEF776BF36490861704738B5D9
S31508001E900146344C2046082200F07EFB0025A5604A
S31508001EA0E56031BD70B52F4E05463078C009C909C1
S31508001EB081421C4613D0002C05D02B480168CA075E
S31508001EC04ED500BE4CE031462846FFF74AFC33693A
S31508001ED01BB13246032128469847012070BD38B900
S31508001EE0B06800283CD0224606F1140100F054FBE5
S31508001EF0F089B168F2882018F081214480B28242C4
S31508001F00B16001D0402C21D2336923B13246022177
S31508001F102846984788B13178C90981F0010100231C
S31508001F200022C9012846FEF779FE0028D5D10E48B9
S31508001F300168CA0714D500BE12E000212846FFF73B
S31508001F4065FE80212846FFF761FEC6E72846FFF7AB
S31508001F502BFF0028C1D104480168CA0700D500BE76
S31508001F60002070BDAC0A0020F0ED00E080B53D48C9
S31508001F703D49016000F064FB4CA10020FEF7C2F861
S31508001F8000F085FBB0F5FA6F05D2BDE802404FF4C4
S31508001F90FA6000F079BB01BD80B5FEF7AAF83148B2
S31508001FA031490160BDE8024000F076BB13B540290F
S31508001FB0044603DB8D212D4800F06FFB012201A9A1
S31508001FC0002000F07EFB012803D09121274800F06D
S31508001FD064FB9DF804202146002000F072FB9DF862
S31508001FE00410884203D09421204800F056FB0020B4
S31508001FF000F06FFB13BD70B505460E460020FFF7CF
S31508002000BDF900214FF0FF30FEF722F9184C607831
S3150800201070B9201D00F02EF8012807D1207928B1C3
S31508002020402803DA0120002160702170002070BD6D
S315080020302178601D084400F01DF80128F6D12278A1
S315080020402179521CD0B288422270EFD1D2B2611DDA
S31508002050284600F05FFC002021786070317001206E
S3150800206070BD0000E0000020005C0040D839000880
S315080020704C0B002038B50446002000F013FB002561
S3150800208038B101222146002000F013FB012808BFC1
S315080020900125284632BD012000F04ABC002000F088
S315080020A047BC00F04EBC00F04DBC00000100704774
S315080020B044A0704748A070473E4870471CB50129A0
S315080020C0144601D0012016BD2178C1F34111022919
S315080020D001BF61780129A18807290ED1364A02F184
S315080020E008010B788DF800304B788DF801302146C1
S315080020F0BDF80030FFF782FE16BD002016BDF0B50C
S315080021002E4C217883B0002229BB2D490B680093F9
S3150800211001234D68019589682370029100231DF8F3
S3150800212003100D0901F00F010A2D34BF303537357C
S31508002130261DD7B2521CF5550A2934BF303137311E
S31508002140251DD6B2521C5B1CA9550C2BE7D3231DA3
S31508002150D2B20021995401000FD1206E027804F101
S3150800216022010A7042784A700221891C41F44071A2
S31508002170218404F1200003B0F0BD042828BF002004
S31508002180F9D204F1600151F82050284600F0F0FB1E
S31508002190C1B22029A8BF1F2101DA002908DD04F1F0
S315080021A02002084615F8013B5380921C401EF9D1BF
S315080021B04900DAE7743A0008E038000854000020BD
S315080021C0E8F7FF1F1201010200000040501DAC6035
S315080021D0000101020301000009022000010100803C
S315080021E04B0904000002FF00000007050102400039
S315080021F0000705810240000001460878C20712D48C
S315080022000878C0F3800070B90878C2070BD408783C
S31508002210800800F0010090F0010003D00B7843F02D
S3150800222004030B7070470020704701460878C0F316
S31508002230800000281EBF087800F0010090F0010019
S3150800224003D00B7803F0FB030B70704790F803C0BC
S3150800225083880CF0030CBCF1010FC3F30A0305D005
S3150800226042D3BCF1030F33D00FD33DE002290CBF94
S315080022704FF4806040F2FF30984218D2DFF8E80247
S315080022800168CA0730D500BE2EE0022909D1B3F588
S31508002290007F0CD0DFF8D0020168CA0724D500BE3B
S315080022A022E032B1B3F5007F03D1402181800120BD
S315080022B07047082B18BF102BF9D0202B18BF402BBE
S315080022C0F5D0DFF8A4020168CA070DD500BE0BE0F9
S315080022D002290CBF4FF4806040209842E7D2A248FA
S315080022E00168CA0700D500BE0020704770B40A44CA
S315080022F00BE04C78052C06D18C7804F00F0500EB22
S315080023004506E40933550C7821449142F1D370BC53
S315080023107047F8B505462F780698079A089E099CCF
S3150800232007F0FE073943297000930146012392B24C
S3150800233005F10800FEF721FD6E606C800120F2BDF4
S31508002340012070470000000070B50D460446287845
S3150800235081074CBF40F2FF113F212B8A6E8AB34298
S315080023601AD1CAB10A4217D1C20715D469782046CC
S31508002370FEF736FC00280FD02878C10707D46978FD
S31508002380002300222046FEF749FC002806D176489D
S315080023900168CA0700D500BE002070BD012070BDC7
S315080023A070B504460D4605F10800FEF788FD50B3E2
S315080023B02878C10726D469782046FEF711FC08B3A9
S315080023C06A88696805F10800FEF7A8FD06462878B8
S315080023D0002E11D0C00707D46A68697833462046AC
S315080023E0FEF71CFC002805D15F480168CA0709D515
S315080023F000BE07E0304670BDC00703D469782046A2
S31508002400FEF7FDFB002070BDF8B51C0005460E461C
S31508002410174626D0B08930BB3178CA0721D47178DF
S315080024202846FEF7DDFBE0B17088844288BF044683
S3150800243070682246394600F0AFF83078C1070BD4E9
S31508002440A0B2002814BF726800227178A3B2284689
S31508002450FEF7E4FB002820D143480168CA0700D5E7
S3150800246000BE0020F2BDA2B2394606F10800FEF70A
S3150800247093FD0446307881074CBF4FF40077402718
S3150800248006F10800FEF71BFDB84202D2B089B84231
S3150800249003D231462846FFF783FF2046F2BD0000E7
S315080024A0F8B50D460446A889F0B92978CA0758D45C
S315080024B069782046FEF794FB002852D028786B8866
S315080024C0C10709D4180014BF6A6800226978204633
S315080024D0FEF7A4FB002805D123480168CA0740D5A2
S315080024E000BE3EE06888F2BD287881074CBF4FF4ED
S315080024F00077402705F10800FEF7F0FCB84230D314
S315080025002878C1072DD469782046FEF769FB40B3C1
S3150800251005F10800FEF7E2FC2978B84206461AD308
S315080025206A88781E8643964288BF1646C9070AD423
S31508002530300014BF6A680022697833462046FEF7E1
S315080025406DFB002805D108480168CA0709D500BEF1
S3150800255007E03046F2BDC80703D469782046FEF77F
S315080025604EFB0020F2BD0000F0ED00E070B50D4610
S31508002570044611469AB205F10800FEF7CFFC064656
S3150800258029462046FFF78CFF304670BD002070476D
S31508002590002070477047000062B38B0708D0521EB0
S315080025A011F8013B00F8013B00F024808B07F6D1B7
S315080025B0830740F0208000BF103A07D330B4B1E853
S315080025C03810103AA0E83810F9D230BC530724BFA7
S315080025D0B1E80810A0E8081044BF51F8043B40F8D9
S315080025E0043BD20724BF31F8022B20F8022B44BF44
S315080025F00B7803707047121F17D35B0009D151F887
S31508002600043B20F8023B1B0C121F20F8023BF6D2B3
S315080026100BE051F8043B00F8013B1B0A20F8023B8B
S315080026201B0C121F00F8013BF3D238BF121D521EB5
S3150800263024BF11F8013B00F8013BF8D870477047F2
S315080026407047000010B5134C0120207000F00CFAFA
S315080026506060BDE8104010B500F080FA012812D07D
S315080026600C4C207801280ED100F0FEF9A2686168AA
S315080026708A1802F5FA72904205D300202070BDE848
S31508002680104000F027B910BD02498860704701481C
S3150800269080687047080C0020704780B500F068FA1B
S315080026A0FCE70000002804BF8548FEF708BC0020A8
S315080026B07047134608B1002070470A468149FFF75C
S315080026C055BF08B10020704793B20A467E49FFF706
S315080026D09BBE002804BF7C49FFF762BE00207047F6
S315080026E010B5764C84B0AC212046FEF743FB402259
S315080026F004F1AC0304F16C01039202930192009178
S3150800270000230022002104F15800FFF702FE4020B2
S3150800271004F1EC0104F1180303900291019000936F
S31508002720012200230021201DFFF7F3FD04B010BD90
S3150800273010B5624C04F15800FFF702FE201DFFF7A2
S31508002740FFFD012010BD10B55C4C01212046FEF7A7
S3150800275011FB04F16000FEF78FFC002084F8590095
S3150800276004F10C00FEF788FC0020607110BD000023
S315080027702DE9F8430D4680466879FF285FD14F4F0B
S31508002780297807F158046E186078002804BF78790C
S31508002790002854D1A878387005EB020919E0B078FA
S315080027A0C0092FD0787990B9B0787871B188C1F31B
S315080027B00A01B1F5007F14BF002002203A7902F021
S315080027C0FD0210433871391D4046FFF7E9FD32789E
S315080027D016444E4536D230783044814532D3707827
S315080027E0042818BF0B282DD00528F0D131464046BD
S315080027F0FEF7D2F90028D2D134480168CA071ED597
S3150800280000BE1CE060780028E1D1B0786070B1881D
S31508002810C1F30A01B1F5007F0CBF02200020217820
S3150800282001F0FD010843207021464046FFF738FEB7
S315080028300028CCD125480168CA0700D500BE00206B
S31508002840BDE8F283751BA8B2BDE8F28370B51B4ECE
S3150800285096F85920044670791D46914218BF814260
S3150800286001D0002070BD914215D106F15C0108899E
S3150800287028B10968AAB206F16000FEF78DFBAAB274
S3150800288006F1AC01002000F075F906F15801204662
S31508002890FFF706FE0FE081420DD1A9B2002000F035
S315080028A06AF9311D2046FFF77BFD20B92A46311DFE
S315080028B02046FFF749FD012070BD0000C007002033
S315080028C02008002018080020C4070020F0ED00E0CA
S315080028D000F052B910B500F059F9A8B100F033F874
S315080028E090B100F00AF900F06FF900F08EF800F0E8
S315080028F04FF90649064A0840106000F049F950F8B1
S31508002900044F00F03BF9A04710BD000080FFFF1FF1
S3150800291008ED00E070B5140005460E4607D016F817
S31508002920010B05F8010B00F023F9641EF7D170BD01
S3150800293001280A494FF4006201D14A6070470A60CB
S3150800294070477047704780B505480068C10701D4CD
S31508002950002002BD00F065F9012002BD10100140FB
S3150800296008080140642000F041B900F042B90000AF
S3150800297000F10103810704D010F8011B820781B119
S31508002980FAD10268A2F10131914311F0803104BFF6
S3150800299050F8042FF6E709BAB1FA81F100EBD10035
S315080029A0401CC01A704700003D483E4B81B0416943
S315080029B041F400614161416901F400610091009AA6
S315080029C0026839490968C2F3C2229A5C0068D14094
S315080029D010F4605F0CBF01200220344A41430123F2
S315080029E0334813604FF6FF7CB1FBF0F0C2F82CC0F9
S315080029F0401E90620021506940F0010050612D4848
S31508002A004160526A028001B070472B48016841F460
S31508002A10006101600023026822F40062026000225D
S31508002A20C16821F40061C160002124480160426048
S31508002A3083604FF0007022490860704721481D4A9C
S31508002A4000681388C01A80B2642800D2704730B470
S31508002A506421B0FBF1F45568A0B24519556001FB35
S31508002A600433138030BC704730B41648114A0068E6
S31508002A701388C01A80B2642809D36421B0FBF1F424
S31508002A805568A0B2451901FB04335560138030BC64
S31508002A905068704780B5FFF7D1FF0648406802BD09
S31508002AA004100240883B000850000020002C01401A
S31508002AB0A08601001C0C00200C10024010E000E06B
S31508002AC004ED00E0242C014080B500F0B3F8FFF7D0
S31508002AD04DFA21490320087001BD1CB51E4C6946F4
S31508002AE0201DFFF788FA012806D103202070201D33
S31508002AF09DF8001000F0B8F813BDFFF74DBA80B581
S31508002B00154A1378032B04BFC9B2FFF74FFABDE87D
S31508002B10014000F0A3B800000F490878042808D837
S31508002B20DFE800F005050307050008207047812047
S31508002B3070473F207047000007490878042808D8DE
S31508002B40DFE800F005050307050008207047812027
S31508002B5070473F20704700000000002010B500F0C5
S31508002B6075F8002400B10124204610BDFFF7FABE0F
S31508002B70FFF7FBBE7047704772B6704762B670477C
S31508002B8000F0CEB900F0D3B900F0EBB900F040BAC6
S31508002B9000F068BA80B500F01DFA18B1BDE801402A
S31508002BA000F04BBA02BD000080B50E48016841F03E
S31508002BB010010160032000F0E5FA002000F030FB68
S31508002BC000F096FB002002BD80B507484FF0FF31A4
S31508002BD041600022426001600021016000F0DFFBD5
S31508002BE0002002BD002002400C1002400F49488018
S31508002BF0704710B5FFF738FF0C4C616888420FD351
S31508002C0020780B494FF48052002807BF01204A60FC
S31508002C1000200A602070FFF727FF618808186060A7
S31508002C2010BD03494FF4805008607047140C00200B
S31508002C3010100140AD4800F13F01443000220A70EF
S31508002C404260CA7002808A704A707047A74890F836
S31508002C503F10481E8041C043C00F7047A34900205B
S31508002C6081F84200704700002DE9F84304469F4D5D
S31508002C702078FF2805F1440605F13F071BD10020FF
S31508002C80012178703970FF22102000212A7068709F
S31508002C90A970FFF741FFE870FFF74EFF2871FFF7AD
S31508002CA04BFF000A68710120A871E871082030807E
S31508002CB0FFF766FFB9E03978012940F01481C92881
S31508002CC000F08C80CC2800F0F580CF2800F0ED804D
S31508002CD0D02800F09B80D12800F0DB80D22800F0B5
S31508002CE0CB80F12800F0EB80F3283AD0F4281AD0EC
S31508002CF0F5280AD0F6282ED0FA284ED0FC2859D026
S31508002D00FD285BD0FE2863D0DDE0FFF705FF61787C
S31508002D10401E884204DAFE20222228706A7069E082
S31508002D200A4671680BE0FFF7F7FE6178401E884295
S31508002D30F1DB201D00F0DCF8014671606278681C42
S31508002D40FFF7E8FDFF202870716860784118716008
S31508002D506078401C68E0FF202870201D00F0C8F845
S31508002D6051E0FF2028704FF00009201D00F0C0F840
S31508002D700400D6F8048006D018F8010B8144FFF742
S31508002D80F7FE641EF8D101206870291D5FFA89F0E4
S31508002D9000F0BAF8002068800AE0FF2028700022B8
S31508002DA05DA1716007206A706A8028716A71EA807D
S31508002DB0082039E0FE20287000211AE0FF2028703C
S31508002DC000217878A8706970E970A98006202BE040
S31508002DD00020FF22387078702A7015E0FFF79CFEF5
S31508002DE0411E7068621CFFF7CDFE28B9FE202870C8
S31508002DF031216970022017E0FF202870FFF78CFE4A
S31508002E007168401E4018706001200DE0FFF784FECF
S31508002E106178801E884212DAFE202222022128705A
S31508002E206A703180B6F900003080F87801284ED1F2
S31508002E30FE21102002232970687033804BE0FF21A1
S31508002E40012229703280607820B9FFF7A3FE002896
S31508002E50E8D105E001467068A21CFFF793FE30B979
S31508002E60FE2031210222287069703280DAE7716803
S31508002E70607841187160D5E7FF21002029706870D5
S31508002E80A870FFF749FEE8700020A880A8710720FF
S31508002E90CAE7201D00F02CF801467068FFF774FE9B
S31508002EA00028A3D0FF202870AEE7FFF713FDFF2008
S31508002EB02870A9E7FE213120297068709AE7FE205C
S31508002EC02870202195E7FE202870202191E7B6F981
S31508002ED00000002807DD0121F97028463188BDE881
S31508002EE0F443FFF70CBEBDE8F1830000000B002099
S31508002EF0014608784A788B78C97840EA022040EA81
S31508002F00034040EA016070470870020A030C000E8D
S31508002F104A708B70C87070474F70656E424C54008B
S31508002F206249634A4FF0FF3008601060704730B45A
S31508002F300B4660490C1A5D1EAC4224BF5E4CA0428B
S31508002F4003D31D186D1E8D4202D930BC0020704770
S31508002F50410A4902A14201460CBF5548534830BCB4
S31508002F60AEE078B585B0002300930125514B1A1AB7
S31508002F704C1EA24221BF820A92024F4EB24203D38E
S31508002F800818411E994202D9002006B070BD801A61
S31508002F908401240C80051CBF641CA4B20021019185
S31508002FA00392049500F0A8FA012C0EDBFFF7E0FD6A
S31508002FB0694601A800F010FB30B9039800F5806057
S31508002FC0641E0390F2D100E0002500F0A5FA284619
S31508002FD006B070BD80B53648016811F1010F01D100
S31508002FE0012002BD43688168C268CB180169D318FD
S31508002FF04269CB188169D318C269CB18D318DB4349
S315080030005B1C00936A4604232C4900F059F802BD5C
S31508003010294B1A68586899688218D8688A181969ED
S31508003020821858698A189969244B821818688A1868
S315080030308218501E8041C00F704780B51C48016831
S3150800304011F1010F02D000F079F838B1174801687C
S3150800305011F1010F04D000F071F808B9002002BD83
S31508003060012002BD1448704738B50446104884420A
S315080030700D4604D10D4CE8050CD0002032BD0E4992
S315080030808D4208BF0446F6D0204600F057F80028BF
S31508003090F1D132BD2068A84206D025604FF40072EF
S315080030A02946201DFFF736FC204632BDB80300200E
S315080030B0BC050020FFFF010800400008EC4000089E
S315080030C02DE9F04104460E46770A20687F0210F182
S315080030D0010F90461D4606D127604FF40072394607
S315080030E0201DFFF717FC2168B94205D0394620464E
S315080030F0FFF7BAFF04001BD02068361AA019061D70
S31508003100FFF736FD201D301AB0F5007F06D218F8F5
S31508003110011B06F8011B6D1EF2D10CE0216801F5B2
S3150800312000712046FFF7A0FF040018BF261DEED148
S315080031300020BDE8F0810120BDE8F0812DE9F843C3
S31508003140054600F0D9F90126002705F104082C6880
S3150800315058F8049BFFF70CFD04EB87044A46002346
S315080031602146022000F04EF930B92068484503D1BF
S315080031707F1C802FEBD300E0002600F0CDF9304607
S31508003180BDE8F28321490A6860F30A2240F2FA5040
S3150800319060F31F420A60704770B41C4C2568C5F37B
S315080031A00224C4F10703052B2FBF0F2501259D40D7
S315080031B06D1E261D072E34BF0024E41E2940A1409B
S315080031C0012303FA04F4641E224011430901020094
S315080031D003D40F48815470BC70470E4B02F00F029F
S315080031E01A4402F8041C70BC7047401EB0F1807F78
S315080031F001D3012070470849084A48600023F02097
S3150800320010708B6007200860002070470CED00E006
S3150800321000E400E018ED00E010E000E023ED00E037
S3150800322038B50D4D0D4B2A7804464FF47A71186857
S31508003230B1FBF2F2B0FBF2F0FFF7D7FF50B9102C52
S3150800324008D2002221464FF0FF30FFF7A5FFAC60F9
S31508003250002032BD012032BD44000020500000206D
S3150800326038B5FFF7A1FC5D480168022464F3020142
S315080032700160006800F00700022803D0652158485D
S31508003280FFF70BFA574D286840F480302860286805
S315080032908003FCD51D20696860F3154169602868BC
S315080032A040F08070286028688001FCD50420696891
S315080032B021F0F0016960696860F30A21696068684D
S315080032C020F460506860686864F3010068606868A4
S315080032D000F00C000828FAD1434800F0DFF96868C6
S315080032E020F48000686000F0DFF900F0ECF9FCE7F4
S315080032F010B53E483E4C86B0026842F001020260B4
S31508003300016801F0010105910599426842F0805271
S315080033104260416801F080510591059A036843F0BF
S3150800332004030360016801F004010591059A036826
S3150800333043F010030360016801F010010591059937
S31508003340426842F4000242600121406800F400002D
S315080033500590059A274801910090002102220391C1
S3150800336002926946204600F007FA01214FF480527E
S3150800337022610191002120480090022203910292C5
S315080033806946204600F0F8F940F201100421009041
S3150800339001916946194800F0EFF906B010BD80B5ED
S315080033A000F060FA124800F099F9144800F096F90E
S315080033B00E48416821F400014160026822F01002BB
S315080033C00260016821F004010160426822F080521F
S315080033D04260016849084900016001BD00200240B9
S315080033E0803900080010024000A24A041810024062
S315080033F000100140100010040800080400080140ED
S31508003400704700002DE9F84F0746DFF8B4010D466E
S31508003410017E90469946012908BF02206AD0DFF846
S31508003420A011DFF8A061012008764CF2513AFFF7A7
S3150800343031FB04463068C10706D5FFF72BFB001B96
S315080034405045F7D3032052E03068810644BF202058
S3150800345030603168C80608D43169C80705D43168B0
S31508003460480702D4012F04D106E000F085F80120B0
S315080034703DE0022F18BF0427002451490020C861E7
S315080034804046726842F0010272604946220100F025
S3150800349017FA28804CF2513BFFF7FCFA824630684F
S315080034A0C10707D5FFF7F6FAA0EB0A005845F6D389
S315080034B0032012E03068810644BF2020306031685E
S315080034C0C80607D43169C80704D43168480758BF05
S315080034D0002002D500F050F801207168490849001B
S315080034E00200716003D1641CAD1CBC42C5DB344AC2
S315080034F000211176BDE8F28F3449CA680020130608
S3150800350009D5334ADFF8CCC00A60C1F800C0C968DB
S315080035100A0648BF012070472B48016841F0800120
S31508003520FFE701600020704770B50446FFF7B2FA5E
S315080035300546244E3068C1070AD514F1010FF9D0A3
S3150800354024B1FFF7A7FA401B8442F3D2032070BDCB
S315080035503068810644BF202030603168C80605D42B
S315080035603169C80702D43168480703D500F004F862
S31508003570012070BD002070BD12490A680020D306DC
S3150800358005D50F48C26942F00202C26110200A68D6
S31508003590530706D50A4AD36943F00103D36140F0BD
S315080035A004000A69D30708D5054AD36943F004031A
S315080035B0D3610A69520852000A6108607047000020
S315080035C0E80B00200C200240102002400420024094
S315080035D023016745AB89EFCD2DE9F047DFF8B470D5
S315080035E00446387E01268946012808BF02204ED0A7
S315080035F03E764CF2503820680228404618D1FFF72C
S3150800360093FF002840D10021DFF88C40F96120683B
S3150800361040F0040020604046216841F040012160E6
S31508003620FFF782FF0646206820F0040020602BE0A2
S31508003630FFF77AFF40BB4FF0FF30C9F80000D4F817
S3150800364008A0DFF8545001E00AF5806AE068A1682E
S3150800365001EB80218A4517D20020F861296841F0DC
S3150800366002012960C5F804A0286840F040002860D7
S315080036704046FFF759FF0646286820F00200310049
S315080036802860E1D0C9F800A0002038763046BDE8A9
S31508003690F0870000E80B002010200240014908606E
S315080036A0704700005000002080B5FFF711F9FFF7BA
S315080036B05DFAFFF779F9FFF763FAFFF705FABDE850
S315080036C00140FEF7BFBF80B5FFF752FAFFF7B6F91C
S315080036D0FFF703FABDE80140FEF7BDBF014600202B
S315080036E01F4A914208D11F490B6843F004030B6037
S315080036F00A6822F004022FE01B4B994208D11949A7
S315080037000A6842F008020A600B6823F0080316E00C
S31508003710164A914208D113490B6843F010030B600F
S315080037200A6822F0100217E0114B994209D10D4997
S315080037300A6842F020020A600B6823F020030B6037
S3150800374070470C4A914209D106490B6843F0400379
S315080037500B600A6822F040020A6070470120704731
S31508003760000801400C100240000C01400010014006
S3150800377000140140001801402DE9F04F0F683F0280
S315080037803F0C97FAA7F2B2FA82FC03230F244FF0F4
S31508003790011540F2011602465EE0C0075AD5BCF193
S315080037A0080F23BF0CF1F80005FA00F040F0806E10
S315080037B006FA0CFE4868082810D1D1F81090D0688F
S315080037C04FEA1E2820EA080098FAA8F8B8FA88F8F6
S315080037D009FA08F949EA0009C2F80C9002EB1E60DA
S315080037E09EFAAEFEBEFA8EFED1F80490D0F800B06E
S315080037F04FEA8E0804FA08FA2BEA0A0A09FA08F9BF
S3150800380049EA0A09C0F80090D1F80490B9F1010F05
S3150800381018BFB9F1090F1DD1D1F80890D0F800B03A
S3150800382003FA08FA2BEA0A0A09FA08F949EA0A0918
S31508003830C0F800904FF0040AD1F80C90D0F800E0D8
S315080038400AFA08FA2EEA0A0E09FA08F848EA0E08E9
S31508003850C0F800800CF1010C37FA0CF09DD1BDE8D8
S31508003860F08F00001548016841F001010160016808
S315080038708907FCD54268920892004260416811F0B7
S315080038800C0FFBD1016821F0807101600168490EB7
S31508003890C907FBD4002242600023016821F45021A5
S315080038A001601021026861F3C70202608360416A01
S315080038B041F080714162002070470000001002400C
S315080038C0D2B2203A22BF21FA02F0002170472032F4
S315080038D0D141D04048409140D1404840704700000F
S315080038E00A000000000003069E0014000300574962
S315080038F04E55534200000000000000000000800002
S315080039000400010028004400650076006900630091
S31508003910650049006E00740065007200660061006B
S3150800392063006500470055004900440000004E004A
S315080039307B00380030003700390039003900430071
S3150800394033002D0045003400450030002D003400BA
S315080039503000450041002D0038003100380038009D
S315080039602D0034003800450038003500320042008A
S31508003970350034004600320042007D000000000099
S31508003980433A5C576F726B5C736F667477617265E6
S315080039905C4F70656E424C545C5461726765745C2A
S315080039A044656D6F5C41524D434D335F53544D33FF
S315080039B03246315F4F6C696D65785F53544D3332CB
S315080039C0483130335F4941525C426F6F745C6D61B8
S315080039D0696E2E6300000000433A5C576F726B5C99
S315080039E0736F6674776172655C4F70656E424C548E
S315080039F05C5461726765745C536F757263655C418C
S31508003A00524D434D335F53544D333246315C7573D3
S31508003A10622E630030B4002512E050F8042BD30759
S31508003A2044BF4A44521E091F042942F8045BFAD2CD
S31508003A3013468C0744BF15809B1CC90748BF1D70D9
S31508003A4050F8041B0029E8D130BC704710B5074967
S31508003A5079441831064C7C44163404E00A68081D7B
S31508003A60114488470146A142F8D110BDA0000000C4
S31508003A70BC000000050F2100011C100500DF60DDF9
S31508003A80D88945C74C9CD2659D9E648A9F000003D1
S31508003A90069E00010000000000000000E126000864
S31508003AA0312700084727000871270008BD200008AD
S31508003AB04D280008000000000000000000F00FF884
S31508003AC0002801D0FFF7C2FFAFF300800020AFF354
S31508003AD00080AFF30080FFF7C3FB00F002F8012077
S31508003AE0704700F001B8000000F000F807463846B5
S31508003AF000F002F8FBE7000080B5AFF30080024A49
S31508003B0011001820ABBEFBE72600020009FFFFFFE5
S31508003B10440B0000E0000020000000001FD2FFFF59
S31508003B204001000090000000000000204EF6A5505D
S31508003B30CFF6F560014603B4684680F30988AFF30B
S31508003B400080AFF30080FFF7B9FF00000248854602
S31508003B500248804702480047281400205D3C0008B8
S31508003B602D3B000857696E5553422042756C6B20F1
S31508003B7044657669636500004F70656E424C542053
S31508003B80557365720000000000000000010203047E
S31508003B90FFF7FEBFFFF7FEBFFFF7FEBFFFF7FEBF4B
S31508003BA0FFF7FEBFFFF7FEBFFFF7FEBFFFF7FEBF3B
S31508003BB0FFF7FEBFFFF7FEBFFFF7FEBFFFF7FEBF2B
S31508003BC0FFF7FEBFFFF7FEBFFFF7FEBFFFF7FEBF1B
S31508003BD0FFF7FEBFFFF7FEBFFFF7FEBFFFF7FEBF0B
S31508003BE0FFF7FEBFFFF7FEBFFFF7FEBFFFF7FEBFFB
S31508003BF0FFF7FEBFFFF7FEBFFFF7FEBFFFF7FEBFEB
S31508003C00FFF7FEBFFFF7FEBFFFF7FEBFFFF7FEBFDA
S31508003C10FFF7FEBFFFF7FEBFFFF7FEBFFFF7FEBFCA
S31508003C20FFF7FEBFFFF7FEBFFFF7FEBFFFF7FEBFBA
S31508003C30FFF7FEBFFFF7FEBFFFF7FEBFFFF7FEBFAA
S31508003C40FFF7FEBFFFF7FEBFFFF7FEBFFFF7FEBF9A
S31508003C50FFF7FEBFFFF7FEBFFFF7FEBF7047000086
S31508003C600005BD000001F9000010FC000124F4FB6A
S31508003C70000F303132333435363738394142434410
S31508003C804546B400129E110008783B0008643B00C4
S31508003C9008580000200000FFF7000A770B0008EC20
S30D08003CA009002010000CFB00CE
S70508003B2D8A
