S01F00006F70656E626C745F6F6C696D6578696E6F5F73746D33322E73726563C6
S31508000000901E0020117B0008557B0008597B0008CC
S315080000105D7B0008617B0008657B00080000000026
S31508000020000000000000000000000000697B0008D6
S315080000306D7B000800000000717B0008A96F0008AE
S31508000040757B0008797B00087D7B0008817B0008AA
S31508000050857B0008897B00088D7B0008917B00085A
S31508000060957B0008997B00089D7B0008A17B00080A
S31508000070A57B0008A97B0008AD7B0008B17B0008BA
S31508000080B57B0008B97B0008BD7B0008C17B00086A
S31508000090C57B0008C97B0008CD7B0008D17B00081A
S315080000A0D57B0008D97B0008DD7B0008E17B0008CA
S315080000B0E57B0008E97B0008ED7B0008F17B00087A
S315080000C0F57B0008F97B0008FD7B0008017C000829
S315080000D0057C0008097C00080D7C0008117C0008D6
S315080000E0157C0008197C00081D7C000841780078FA
S315080000F040EA01207047C178827842EA01224178B5
S3150800010041EA0221007840EA012070470170090A95
S31508000110417070470170090A4170090A8170090A1D
S31508000120C1707047002801D0002070470020704732
S31508000130002801D00020704700207047F8B5054612
S315080001402E6816F8014B2046FFF7ECFF00280AD068
S3150800015016F8017B3846FFF7EBFF00280CD020463F
S315080001603C4604EB0024002C09D040F2B511204689
S3150800017001F0DDFE040002D14FF0FF30F2BD2E6023
S315080001802046F2BD38B50D46144640F2B51101F0C9
S31508000190B1FEB0F5807F09DB012C01D8002032BD05
S315080001A00146091229706870022032BD002801D064
S315080001B0002C01D1002032BD2870012032BD38B58F
S315080001C004460025207900281CD00123226B04F15F
S315080001D03401607802F0F0F9002812D1284620711F
S315080001E0E269206B616A411A91420BD2E1780229D1
S315080001F008D10123121804F13401607802F0DCF901
S3150800020000E00125284632BD70B504460D46002695
S31508000210206B854211D02046FFF7D1FF06000CD18E
S3150800022001232A4604F13401607802F082F9002895
S3150800023002D04FF0FF3501262563304670BD38B52C
S315080002400446FFF7BCFF050039D1207803282ED1D4
S31508000250607901282BD100224FF4007104F1340093
S3150800026002F008FB4AF6552104F23220FFF74EFF4A
S31508000270144904F13400FFF74DFF134904F50670DD
S31508000280FFF748FF616904F50770FFF743FF216927
S3150800029004F50870FFF73EFF226A521C2263012309
S315080002A004F13401607802F087F9002060710022B9
S315080002B01146607802F0D2F9002800D001252846B8
S315080002C032BD00005252614172724161891E8269D3
S315080002D0921E914201D300207047C26A408901FBF1
S315080002E00021084670472DE9F0410C460568012CA7
S315080002F05AD9A869844257D24FF0FF362878012880
S3150800030004D051D303283BD028D34DE004EB54073F
S31508000310696A01EB57212846FFF776FF002844D182
S3150800032005F13400C7F3080110F801807F1C696ADB
S3150800033001EB57212846FFF767FF002835D14646C7
S3150800034005F13400C7F30807C05D46EA0026E00752
S3150800035001D5360929E0C6F30B0626E0696A01EBE2
S3150800036014212846FFF750FF00281ED105F1340056
S315080003706400C4F308042044FFF7B8FE064614E0F8
S31508000380696A01EBD4112846FFF73EFF00280CD115
S3150800039005F13400A400C4F308042044FFF7ABFEBB
S315080003A0064626F0704600E001263046BDE8F08194
S315080003B02DE9F04104460F4615460226012F71D94C
S315080003C0A06987426ED22078012804D06AD3032810
S315080003D04ED038D366E007EB5708616A01EB58211F
S315080003E02046FFF711FF06005CD104F13400C8F37C
S315080003F00801084408F10108F90705D5017801F054
S315080004000F0141EA051100E029460170012020711B
S31508000410616A01EB58212046FFF7F6FE060041D136
S3150800042004F13400C8F3080800EB0801F80701D501
S315080004302D0904E02D0A087865F3030005460D70BA
S31508000440012020712EE0616A01EB17212046FFF793
S31508000450DBFE060026D1294689B204F134007F0066
S31508000460C7F308073844FFF751FE0120207119E049
S31508000470616A01EBD7112046FFF7C6FE060011D1C7
S3150800048004F13400BF00C7F3080707443846FFF7EE
S3150800049032FE000F60F31F7529463846FFF73AFE0D
S315080004A0012020713046BDE8F081F8B505460E46B4
S315080004B011462F68012E2DD9B86986422AD20029FD
S315080004C006D04FF0FF323846FFF772FF010026D1FB
S315080004D031462846FFF707FF04001FD0012C19D024
S315080004E014F1010F18D0002231463846FFF760FF95
S315080004F0010014D17869B969891E884205D2401C61
S315080005007861787940F0010078712646B8698642A4
S31508000510DED303E00220F2BD0120F2BD0020F2BDC9
S315080005202DE9F04180460C00D8F8007007D13E69E5
S31508000530002E02D0B86986420ED301260CE0FFF7DA
S31508000540D2FE012801D8012062E010F1010F5FD028
S31508000550B96988425CD326467869002831D00025D7
S31508000560A64217D1751CB869854200D302252946CB
S315080005704046FFF7B8FE01284AD010F1010F47D0D0
S31508000580002807D03869012803D9B969884200D2FA
S3150800059006460025002D16D135466D1CB8698542DC
S315080005A002D30225012E0CD929464046FFF79BFEA9
S315080005B0002808D001282BD010F1010F28D0B54209
S315080005C0EBD1002024E04FF0FF3229463846FFF7EA
S315080005D0EFFE002806D1002C04D02A4621463846CC
S315080005E0FFF7E6FE00280CD13D617869B969891ED6
S315080005F0814201D3401E7861787940F00100787114
S3150800060005E0012802D14FF0FF3500E00125284614
S31508000610BDE8F08170B504460D46FFF7D0FD002809
S3150800062001D0012070BD29462046FFF74FFE05463A
S31508000630256300224FF4007104F1340002F01AF920
S31508000640002600E0761C6089864208D201237219CA
S3150800065004F13401607801F0AFFF0028F2D0608918
S31508000660864201D1002070BD012070BD2DE9F04100
S3150800067005460E462F68B6F5001F02D216F01F0F64
S3150800068001D002203FE02E61AC68002C03D13878F7
S31508000690032800DBBC6A002C09D130464009398999
S315080006A0884201D302202EE0B86AA8611CE0B7F898
S315080006B00A8006E0022C11D3B86984420ED2A6EB52
S315080006C04826B6EB482F21460AD32846FFF70BFEE5
S315080006D0044614F1010FEDD1012014E0022012E0C6
S315080006E03846FFF7F3FDA8616C61A869002801D1B7
S315080006F0022008E000EB5620A861C6F30806B819E0
S315080007003430E8610020BDE8F0812DE9F041064665
S315080007100C463768D6F8108008F12008B8F5001F8F
S3150800072001D30020B061B069002801D104204AE055
S315080007305FEAC8513ED1401CB0617169002905D1F4
S31508000740404640093989884234D312E07889401EE8
S3150800075010EA582F2ED13046FFF7C5FD0546012D64
S3150800076015D915F1010F1DD0B86985421CD3002C87
S3150800077003D10020B061042025E071693046FFF7F7
S31508000780CFFE050001D107201DE0012D01D1022071
S3150800079019E015F1010F05D029463846FFF73AFF4B
S315080007A0002801D001200EE0756129463846FFF77A
S315080007B08DFDB061C6F81080C8F3080807EB08007D
S315080007C03430F0610020BDE8F081F8B504460D46E6
S315080007D026680021FFF74AFF010017D10027A16903
S315080007E03046FFF711FD010010D1E1690978E529C6
S315080007F001D0002903D17F1CAF4201D106E00027B2
S3150800080001212046FFF781FF0100E8D001460429AF
S3150800081000D10720F2BD70B504460D4605F11A0051
S31508000820FFF764FC06462078032805D105F1140075
S31508000830FFF75CFC46EA0046304670BD70B50446D4
S315080008400D461646314689B205F11A00FFF75EFCD9
S315080008502078032806D1360C314605F11400BDE888
S31508000860704053E470BD00002DE9F84304460D4678
S3150800087005F11A00FFF73AFC002837D1287800F06E
S315080008803F00401E0D2646434FF0010900271EE093
S315080008904FF6FF70804529D118E000BF50A0C05D13
S315080008A02844FFF723FC804648460028F0D0B6F5D2
S315080008B0807F1BD2404601F04FFB814634F8160074
S315080008C001F04AFB761C814510D1C1467F1C0D2FCD
S315080008D0E3D32878400606D5B9F1000F03D034F8DB
S315080008E01600002802D10120BDE8F2830020FBE7AC
S315080008F02DE9F04104460D4605F11A00FFF7F6FB0F
S31508000900002831D1287820F04000401E0D264643A5
S3150800091001274FF0000816E04FF6FF71884223D1F1
S315080009200FE000BF2EA010F808002844FFF7DEFBF2
S315080009303900F1D0B6F5807F16D2074624F816702E
S31508000940761C08F10108B8F10D0FEAD3287840069D
S3150800095007D5002F05D0B6F5807F05D2002024F8EC
S3150800096016000120BDE8F0810020FBE72DE9F047DD
S3150800097006460C46154663730F20E0720020207366
S31508000980014604F11A00FFF7C1FB2846401E0D2751
S3150800099047434FF00008C1464FF6FF7A4046514696
S315080009A0884202D036F817807F1C41460CA010F802
S315080009B009002044FFF7AAFB4046002800D1D0468C
S315080009C009F10109B9F10D0FE8D3D04503D036F87E
S315080009D01700002801D145F040052570BDE8F087CD
S315080009E001030507090E10121416181C1E00000034
S315080009F0FEB5064615461C460B2201F075FF062C69
S31508000A0016D32888002813D035F8020B00211029A0
S31508000A10F7D22246044604F0010404EB42044008D7
S31508000A20E20303D584F4883484F02104491CEEE7F4
S31508000A3007256F4604F00F003030240901463A298D
S31508000A4000DBC01D78556D1E01D0002CF2D17E202A
S31508000A507855002401E00446641CAC4209D2305D96
S31508000A60202806D0FFF75EFB0028F5D0601CA842B8
S31508000A70F1D12046441C072D02D8795D6D1C00E093
S31508000A8020213154072CF4D9F7BD024600200B214A
S31508000A900346DBB25B0803EBC01312F8010BC01860
S31508000AA0491EF5D1C0B270472DE9F04704460D46F8
S31508000AB0042627684FF0FF08C146C246A1690029E7
S31508000AC035D03846FFF7A0FB060030D1E169087833
S31508000AD000282BD0C97A01F03F01A171E5282FD053
S31508000AE02E282DD021F02002082A27D10122AA4239
S31508000AF026D10F292CD1410607D5E16991F80DA019
S31508000B0000F0BF0081462169E1624946C9B28842C0
S31508000B1016D1E16950464A7B904211D1F868FFF731
S31508000B20E7FE00280CD0A9F101090AE004263000E6
S31508000B3001D00020A0613046BDE8F0870022D6E744
S31508000B40C14600212046FFF7E0FD0600B6D0EEE7D5
S31508000B505FFA89F9B9F1000F04D1E069FFF795FF4B
S31508000B608245E4D04FF0FF30E062E0E72DE9F04738
S31508000B70044625680021FFF779FD01005FD1FF26AD
S31508000B80B146B0464FF0FF37E762A1692846FFF73E
S31508000B903BFB8246002851D1E1690878002829D014
S31508000BA0C97A01F03F01A171E5283ED00A0701D5AF
S31508000BB00F293AD10F2922D194F82B10490636D499
S31508000BC0410607D5E16991F80D9000F0BF0080460F
S31508000BD02169E1624146C9B288420ED1E169487B82
S31508000BE081450AD1E868FFF73FFE002805D0A8F13D
S31508000BF001081CE04FF0040A20E0B04617E05FFA4F
S31508000C0088F8B8F1000F04D1E069FFF73EFF814587
S31508000C1014D094F82B00C00707D40B2204F1200146
S31508000C20E06901F0B5FE002808D0B046E762002169
S31508000C302046FFF76AFD82460028A6D05046BDE842
S31508000C40F0872DE9FE4305462E6895F82B0010F02F
S31508000C50A00F01D006208DE0002400E0641CF06897
S31508000C6030F814000028F9D10C2205F12001684655
S31508000C7001F04AFEE84698F80B00C00723D5402045
S31508000C8085F82B004FF0010901E009F10109B9F1D6
S31508000C90640F0BD24B46F268694605F12000FFF750
S31508000CA0A7FE2846FFF762FF0700EED0B9F1640FEA
S31508000CB001D107205EE03846C0B2042858D198F81A
S31508000CC00B0085F82B0098F80B00800705D50C3427
S31508000CD00D20B4FBF0F4641C00E0012421462846EC
S31508000CE0FFF773FD070028D1641E26D02969A4EBF7
S31508000CF0440001EB40112846FFF7B8FC07001CD159
S31508000D0005F12000FFF7C1FE0746A9693046FFF73F
S31508000D107BFA010010D13B462246D2B2E969F06857
S31508000D20FFF724FE0120307100212846FFF7EDFC6D
S31508000D30010001D1641EE8D10746380018D1A96917
S31508000D403046FFF761FA070012D100222021E86930
S31508000D5001F052FE0B2205F12001E86901F0C4FDFD
S31508000D6095F82B0000F01800E96908730120307126
S31508000D703846C0B2BDE8FE8370B5044625682669C4
S31508000D80E16A11F1010F01D1002001E0FFF76EFCC5
S31508000D90010017D1A1692846FFF736FA01000DD1DF
S31508000DA0E521E2691170012129712169B14205D253
S31508000DB000212046FFF7A9FC0100EBD001460429D3
S31508000DC000D1022070BD2DE9F84304460D46266879
S31508000DD00020A875A069002800F09080E06A10F14C
S31508000DE0010F2CD00027B846B94600E08146F068C6
S31508000DF030F8180000281AD008F1010849460029D9
S31508000E0004D1A0F55841B1F5006FEFD3C7F1FF0241
S31508000E1005F1160139444B4640EA0340FFF7B2F99B
S31508000E20002803D0C7194FF00009E0E70027B9F1F9
S31508000E30000F00D00027002005F11601C855002034
S31508000E40014605F1090612E0E269525C491C202AAE
S31508000E500DD0052A00D1E522092904D10C2802D291
S31508000E602E233354401C05F109031A54401C0B2940
S31508000E70EAD3002105F109021154A97D002929D1D7
S31508000E80002803D13F20A875012219E00022134645
S31508000E90082610E02E2800D11026A0F141011A29B3
S31508000EA004D2E169097B314200D0203005F11601F0
S31508000EB088545B1C521C05F10900C05C0028E9D166
S31508000EC0002005F116018854E069007B002801D14D
S31508000ED000206872E069C07A00F03F002872E06975
S31508000EE01C30FFF708F92860E0691630FFF7FEF8AE
S31508000EF0E880E0691830FFF7F9F8A880BDE8F183C3
S31508000F002DE9FE4F06460D46286800903068C768EA
S31508000F1000240DE0B8F17F0F05DC414682A001F000
S31508000F209FFD002846D1FF2C44D227F81480641C64
S31508000F306846FFF703F9804618F1010F3AD0B8F56D
S31508000F40803F03D3000C27F81400641C1FFA88F8A6
S31508000F50B8F1200F05DBB8F12F0F02D0B8F15C0FFE
S31508000F60D8D1B8F1200F05DA4FF004080EE0009842
S31508000F70401C0090009800782F28F8D05C28F6D0FE
S31508000F804FF00008202801D24FF004080098286086
S31508000F9000E0641E002C06D0B81E30F81400202885
S31508000FA0F7D02E28F5D0002027F81400002C01D001
S31508000FB0054602E006206FE06D1C37F8150020286C
S31508000FC0FAD0002D02D138882E2803D148F003081C
S31508000FD000E0641E002C04D0B81E30F814002E2839
S31508000FE0F7D120220B2106F1200001F043FC4FF037
S31508000FF00009CA464FF0080B0197274601E048F05A
S315080010000308019830F815406D1C002C1CD0202CC4
S31508001010F5D02E2C01D1BD42F1D1DA4501D2BD421F
S315080010203CD1BBF10B0F0DD0BD4201D048F00308EF
S31508001030AF4209D33D464FF0080A4FF00B0B4FEA73
S315080010408909DEE748F0030896F82000E52802D16A
S31508001050052086F82000BBF1080F01D14FEA89095F
S315080010604846C0B200F00C010C2903D000F003007A
S31508001070032801D148F002085FEA887009D45FEABC
S31508001080C97001D548F010085FEA497001D548F0E3
S31508001090080886F82B800020BDE8FE8F7F2C0EDD21
S315080010A048F0020840F2B511204600F023FF044636
S315080010B0200604D5DFF8E80A04F07F04045DB4F5D9
S315080010C0807F10DBABF10100824503D348F00308AB
S315080010D0DA4696E72046001206F1200101F80A00D2
S315080010E00AF1010A18E0002C05D0214611A001F0EA
S315080010F0B7FC002803D05F2448F003080CE0A4F1ED
S3150800110041001A2801D249F00209A4F161001A28FF
S3150800111002D249F00109203C06F1200000F80A40F5
S315080011200AF1010A6DE700002A3A3C3E7C223F7F1D
S31508001130000000002B2C3B3D5B5D000032B50446E9
S31508001140256802E00098401C0090009800782F2837
S31508001150F8D05C28F6D00020A060009800782028F7
S3150800116016D2802084F82B0000212046FFF77EFA4D
S3150800117032BD490720D4A079C0061CD52069C0F322
S315080011800800284400F134012846FFF744FBA06014
S3150800119069462046FFF7B4FE01000DD12046FFF749
S315080011A0E5FC94F82B100200E3D0042A04D1490781
S315080011B002D4052032BD052032BD01464FF0FF306E
S315080011C00A68130000D1704770B413F8014B202C3D
S315080011D001D33A2CF9D13A2C0FD1012415782E4691
S315080011E0303E0A2E04D2921C9A4201D12C46303C3B
S315080011F0002C03DC20460B6000E0002070BC704722
S3150800120070B50446002020714FF0FF302063204659
S31508001210FEF7FAFF002801D0042070BD04F2322040
S31508001220FEF764FF054604F134063078EB2803D050
S31508001230E92801D0E82842D14AF65520854208D146
S315080012405FF0080222A104F1860001F0A1FB002844
S3150800125033D004F13F00FEF749FF0146707B4A1E72
S3150800126011422CD1B1F5007F29D1002827D0411E83
S31508001270084224D104F14200FEF738FF00281ED0A8
S31508001280307C401E02281AD204F14500FEF72EFFD4
S31508001290002814D004F14700FEF728FF802806DA54
S315080012A004F15400FEF727FFB0F5803F07D304F199
S315080012B04A00FEF71BFF002801D0002070BD4AF641
S315080012C05520854201D1022070BD032070BD000063
S315080012D04641543332202020000000007FB50546E1
S315080012E00C460021FFF78CFF022802D025D8002CD7
S315080012F023D0002609E005EB061000F5FD70FEF781
S31508001300FAFE694641F82600761C032EF3D9002C0E
S3150800131001D0661E00E00026684650F8261000290F
S3150800132003D02846FFF76CFF00E00320002C04D109
S31508001330012802D9761C032EEED904B070BD2DE91A
S31508001340F0410E46154600213160FFF736FF0028AA
S3150800135001D50B2008E1DFF84C7807EB80004468DC
S31508001360002C01D10C20FFE0346005F0FE05207842
S3150800137000280AD0607801F0D4F8C10705D4002DFA
S3150800138001D040070ED40020EEE0002020706078DF
S3150800139001F02AF8C10701D50320E5E0002D03D0A6
S315080013A0400701D50A20DFE000212046FFF796FF17
S315080013B0042801D10120D7E0012800F29080D4F852
S315080013C0308004F13F00FEF791FEB0F5007F40F053
S315080013D0868004F14A00FEF789FE060004D104F16E
S315080013E05800FEF788FE0646E66104F14100C1781A
S315080013F0E170012901D0022971D14E43007860813C
S3150800140001006CD0411E084269D104F14500FEF77F
S315080014106DFE2081207A10F00F0F60D104F147008D
S31508001420FEF764FE050004D104F15400FEF763FEDE
S31508001430054604F14200FEF759FE00284FD032183F
S31508001440218902EB1112954249D3AD1A6189B5FB80
S31508001450F1F1002943D00025DFF84C37994200D234
S3150800146003254FF6F673994200D2022540F6F67325
S31508001470994200D20125002D31D0891CA161C4F8FA
S315080014802080404460624244E262032D10D104F198
S315080014905E00FEF72BFE002821D1208900281ED1E8
S315080014A004F16000FEF727FEA062A069800010E044
S315080014B02089002813D0606A3618A662A069022D12
S315080014C001D1400005E000EB400100F0010000EB0F
S315080014D05100E16900F2FF10B1EB502F01D20D2047
S315080014E042E04FF0FF306061206180206071032D7B
S315080014F031D104F16400FEF7F9FD01282BD108F17A
S31508001500010841462046FEF77FFE002823D1002029
S31508001510607104F23220FEF7E9FD4AF65521884249
S3150800152019D104F13400FEF7E6FDDFF8C018884249
S3150800153011D104F50670FEF7DEFDDFF8B41888420F
S3150800154009D104F50770FEF7D6FD606104F5087049
S31508001550FEF7D1FD206125703888401C3880E08070
S3150800156007F10800E0600020BDE8F08170B5044688
S315080015700D460926002C0FD0206800280CD00178CB
S31508001580002909D0A188C288914205D1407800F087
S31508001590C8FFC00700D40026300001D1206800E04B
S315080015A000202860304670BD13B582B01446084640
S315080015B000906846FFF701FE010001D50B201BE0ED
S315080015C0DFF8E00500EB81025068002802D000230E
S315080015D0536003700298002805D0417000200299D4
S315080015E0087002985060002C01D1002004E0002207
S315080015F002A903A8FFF7A3FE04B010BD2DE9F24126
S315080016008DB004461746002C01D10920DAE007F010
S315080016103F073A4669460DA8FFF791FE060040F0D7
S31508001620CC80009801900D9901A8FFF787FD060068
S3150800163004D19DF82F00000600D5062617F01C0FCA
S3150800164050D0300008D0042803D101A8FFF7F9FAD2
S31508001650064647F0080709E09DF80A0010F0110F42
S3150800166001D0072602E0780700D50826300046D1C3
S31508001670380744D5DFF87C57294608980E30FEF718
S3150800168049FD294608981630FEF744FDDDF8208006
S3150800169041460098FFF7BFF80546202088F80B005A
S315080016A0002208990098FFF7C9F8002108981C300D
S315080016B0FEF730FD012000990871002D1FD0009813
S315080016C0D0F830800022294601A8FEF7EEFE060073
S315080016D015D141460098FEF797FD06466D1E0098FF
S315080016E005610CE030000AD19DF80A00C10601D553
S315080016F0042604E0B90702D5C00700D5072630003E
S3150800170008D1380701D547F040070098006B2062DA
S3150800171008986062300050D108990098FFF77BF866
S31508001720A06008981C30FEF7E6FCE0600098206090
S315080017300098C088A080277400206074E06160610A
S3150800174002464FF4007104F1280001F093F8B80638
S3150800175033D5E068002830D06061009847897F0259
S31508001760A168E5680BE02046FEF7BDFD01460129A4
S3150800177000D8022611F1010F00D10126ED1B300019
S3150800178001D1AF42EFD3A161300016D1E80514D0DC
S315080017900098FEF79BFD002801D102260DE000EB1C
S315080017A05520E0610123024604F12801009840789B
S315080017B000F0BFFE002800D00126300001D000202E
S315080017C0206030460EB0BDE8F0812DE9FC47804622
S315080017D08A46154699460020C9F8000069464046DB
S315080017E0FFF7C4FE010040F0A88098F81100010038
S315080017F040F0A38098F81000C00701D407209CE0A9
S31508001800D8F80C40D8F81400241AAC4233D92C4620
S3150800181031E07D192646760A55D000984089F11997
S31508001820884201D2C71B3E4633462A46514600988F
S31508001830407800F07EFE00287AD198F8100000065D
S315080018400CD5D8F81C00451BB54207D24FF40072D8
S3150800185008F128010AEB452001F046F87602A41B98
S31508001860D9F800003018C9F80000B244D8F81400B6
S315080018703618C8F81460002C5ED0D8F81400C105D4
S3150800188044D100994F897F1E17EA502710D10028A6
S3150800189002D1D8F8080004E0D8F818104046FEF738
S315080018A022FD01280BD910F1010F41D0C8F8180004
S315080018B0D8F818100098FEF709FD0500A9D10220EE
S315080018C088F8110039E0D8F81C20AA421CD098F8EC
S315080018D0100000060ED5012308F12801009840786B
S315080018E000F06AFE002823D198F8100000F07F0067
S315080018F088F8100001232A4608F128010098407844
S3150800190000F017FE002813D1C8F81C50D8F81400A8
S31508001910C0F30800C0F5007126468C4200D90E4671
S31508001920324608F128010144504600F0DDFF96E7EB
S31508001930012088F8110000E00020BDE8F6872DE9AF
S31508001940FC4780468A46144699460020C9F8000096
S3150800195069464046FFF70AFE010040F0D78098F82E
S315080019601100010040F0D28098F81000800701D4D9
S315080019700720CBE0D8F81400211881422FD24FF067
S31508001980FF34241A2BE0C8F81C60D8F81400C0F3FA
S315080019900800C0F5007127468C4200D90F463A4622
S315080019A0514608F12803184400F09EFF98F81000E5
S315080019B040F0800088F81000E41BD9F800003818B9
S315080019C0C9F80000BA44D8F814003F18C8F81470CB
S315080019D0D8F80C00B84200D23846C8F80C00002CDB
S315080019E000F08D80D8F81400C105CED100994D8934
S315080019F06D1E15EA50251ED1002808D1D8F8080012
S31508001A00002809D100214046FEF78AFD04E0D8F8EF
S31508001A1018104046FEF784FD002870D001284FD0E4
S31508001A2010F1010F67D0C8F81800D8F80810002977
S31508001A3001D1C8F8080098F81000000610D501234F
S31508001A40D8F81C2008F128010098407800F0B4FD69
S31508001A50002850D198F8100000F07F0088F8100090
S31508001A60D8F818100098FEF731FC060028D0AE19F1
S31508001A7027467F0A28D0009840897919884201D2DA
S31508001A80451B2F463B46324651460098407800F0A3
S31508001A9093FD00282FD1D8F81C00861BBE420DD214
S31508001AA04FF400720AEB462108F1280000F01CFFEB
S31508001AB098F8100000F07F0088F810007F027BE796
S31508001AC0022088F8110021E0D8F81C00B0423FF443
S31508001AD05AAFD8F81400D8F80C108842BFF453AFA0
S31508001AE00123324608F128010098407800F021FDCC
S31508001AF000283FF448AF012088F8110006E098F85E
S31508001B00100040F0400088F810000020BDE8F68775
S31508001B1038B504466946FFF729FD01003ED1217C08
S31508001B204A063BD508060FD50123E26904F12801C8
S31508001B300098407800F040FD002801D0012032BD11
S31508001B40207C00F07F002074216A0098FEF75CFB79
S31508001B50010023D1656AE87A40F02000E872A2689D
S31508001B6029462068FEF76AFEE16805F11C00FEF7C3
S31508001B70D1FADFF8801205F11600FEF7CBFA00213C
S31508001B8005F11200FEF7C2FA0120009908710098C3
S31508001B90FEF755FB217C01F0BF01217432BD000020
S31508001BA098780008480A0020F6FFFF0F1CB504467F
S31508001BB0FFF7AEFF010007D169462046FFF7D6FCBE
S31508001BC0010001D10021216016BD2DE9FC41064620
S31508001BD00C466946FFF7CAFC070000D1777C380037
S31508001BE040F08880F068A04203D2317C890700D48F
S31508001BF004467069002529467161002C50D0009969
S31508001C00B1F80A804FEA482800280ED0401EB0FBDB
S31508001C10F8F1621EB2FBF8F28A4206D3A8F1010176
S31508001C2088437061241AB0690DE0B068002809D1AC
S31508001C3029463046FEF774FC01285ED010F1010FE4
S31508001C405ED0B060B06100280CD129E0FEF74BFBEE
S31508001C5010F1010F54D001284FD90099896988429B
S31508001C604BD2B061A0450ED2A4EB08047169414479
S31508001C707161317C890701463046E7D5FEF750FC8D
S31508001C800028E5D12C46716961187161E10507D014
S31508001C9001460098FEF71AFB05002ED005EB5425E1
S31508001CA07069F168814204D2F060307C40F04000EF
S31508001CB030747069C0051DD0F26995421AD0307C1F
S31508001CC000060CD5012306F128010098407800F09B
S31508001CD073FC002814D1307C00F07F003074012397
S31508001CE02A4606F128010098407800F022FC0028D0
S31508001CF006D1F5613846BDE8F68102207074FAE728
S31508001D0001207074F7E731B58CB00C46002269469D
S31508001D100CA8FFF714FB050011D10C996846FFF7CC
S31508001D200DFA05000BD19DF82B00000601D50625F6
S31508001D3005E0002C03D021466846FFF744F82846FC
S31508001D400DB030BD31B59AB00024022269461AA8F2
S31508001D50FFF7F5FA050046D1009801901A9901A8EF
S31508001D60FFF7ECF905003ED19DF82F00000601D5D6
S31508001D70062504E09DF80A00C00700D507252800B7
S31508001D801CD108990098FEF746FD04469DF80A00FE
S31508001D90C00613D500980D900F9400210DA8FEF7E4
S31508001DA065FC05000AD100210DA8FEF77DFE050099
S31508001DB000D107252846042800D10025280012D17D
S31508001DC001A8FEF7D9FF050007D1002C05D000228F
S31508001DD0214601A8FEF769FB0546280003D10098AD
S31508001DE0FEF72DFA054628461BB030BD5252614112
S31508001DF072724161000021542DE9FC4105460E46E8
S31508001E0017460024A846761EB44211DA6B4601220C
S31508001E1001A93846FFF7D9FC0098012808D19DF892
S31508001E2004000D28F0D008F8010B641C0A28EBD131
S31508001E30002088F80000002C00D105462846BDE899
S31508001E40F681F8B504460D4628460A2803D10D2121
S31508001E502046FFF7F6FF6668002E17D4A76804F138
S31508001E600C008555761C3C2E0DDB6B46324604F17C
S31508001E700C012068FFF763FD0098B04201D10026E7
S31508001E8001E04FF0FF3666607F1CA760F1BD1CB508
S31508001E9004466268002A0DD46B4604F10C012068DA
S31508001EA0FFF74DFD002805D160680099884201D1E9
S31508001EB0A06816BD4FF0FF3016BD38B504460D466E
S31508001EC000224C2100F0D6FC256031BD18B593B030
S31508001ED004466846FFF7F1FF04E014F8011B68465C
S31508001EE0FFF7AFFF20780028F7D16846FFF7CFFF46
S31508001EF014B010BD02460020802A01D2104614E014
S31508001F00B2F5803F11D240F2B51399420DD1334B49
S31508001F1000E0401C014689B2802903DA33F8111023
S31508001F208A42F6D1803000F0FF0080B27047024640
S31508001F3000201346802B01DA1046704740F2B5128E
S31508001F40914208D1B3F5807F05DA244800EB4300B7
S31508001F50A0F5807000887047B0F5803F00D37047C1
S31508001F6030B480B21E4BB0F5805F06DB03F5FA731A
S31508001F7003E0002901D103EB44031A88002A2AD07A
S31508001F80904228DB5C881B1D2146091204F0FF04D9
S31508001F90A518A842EDDA08291DD8DFE801F00509D9
S31508001FA00E10121416181A00801A33F8100012E0D0
S31508001FB0821A02F00102801A0DE010380BE0203870
S31508001FC009E0303807E01A3805E0083003E05038F1
S31508001FD001E0A0F5E35080B230BC7047F8760008FF
S31508001FE03473000881B0DFF868180A6802430A608B
S31508001FF0096808400090009801B0704781B0DFF882
S3150800200054180A6802430A60096808400090009854
S3150800201001B07047C1F30F2101617047C1F30F2169
S3150800202041617047016841F04001016070470168ED
S3150800203021F0400101607047806800F00100704798
S315080020408068400800F001007047007B7047017304
S3150800205070472DE9F84185B040F20441DFF8F807EA
S31508002060FFF7D8FFDFF8F44700940120019002201B
S31508002070029000200390DFF8E8576946284600F0EA
S3150800208087FD21462846FFF7C5FF0026DFF8D487D7
S315080020901EE000F037FE074664374046FFF7D0FFDC
S315080020A0002803D100F02EFE8742F6D2FF214046D3
S315080020B0FFF7CDFF00F026FE074664374046FFF7D8
S315080020C0BBFF002803D100F01DFE8742F6D2761C1E
S315080020D0092EDED9009409200190032002900020E1
S315080020E003906946284600F053FD06B0BDE8F08126
S315080020F030B58FB00820FFF781FF2020FFF77EFF5D
S315080021004FF48040FFF76EFF40F20444009401202C
S3150800211001900220029000200390DFF83C576946A0
S31508002120284600F035FD21462846FFF773FFDFF8FD
S3150800213038070090092001900320029000200390A0
S31508002140DFF81C476946204600F022FDDFF81C0729
S315080021500090042001906946204600F019FD0020F1
S3150800216005904FF482700690002007900890099019
S315080021704FF400700A9030200B9000200C900D90C0
S3150800218007200E90DFF8DC4605A9204600F0E0FDA2
S315080021902046FFF747FFFFF75CFF0FB030BD10B5CD
S315080021A08AB0DFF8C0462046FFF741FF00200090BE
S315080021B04FF48270019000200290039004904FF42F
S315080021C00070059000200690079008900720099057
S315080021D06946204600F0BCFD2046FFF723FF0AB0FB
S315080021E010BDDFF88C06017841F0010101707047D7
S315080021F0F8B5014600242546DFF868663046FFF73D
S3150800220026FF00F07FFD074632373046FFF714FFFA
S31508002210002806D100F0D0FD00F074FD8742F4D204
S315080022200125002D03D13046FFF70FFF044620464F
S31508002230F2BD10B50446FF20FFF7DAFF207010BD87
S3150800224038B500F05FFD044604F5FA74FF20FFF781
S31508002250CFFF054600F0B0FDFF2D03D000F052FD7C
S31508002260A042F3D3FF2D01D1012032BD002032BD9B
S3150800227080B540F20441DFF8E005FFF7CBFEFF200A
S31508002280BDE80240B4E780B540F20441DFF8C8056E
S31508002290FFF7C4FEFF20FFF7ABFFFFF7D1FF0028CB
S315080022A001D0012002BDFFF7E3FF002002BDF8B50B
S315080022B005460C4600F026FD06466436FF20FFF765
S315080022C097FF074600F078FDFF2F03D100F01AFDAF
S315080022D0B042F3D3FE2F01D00020F2BD2846FFF707
S315080022E0A8FF6D1C2846FFF7A4FF6D1C00F064FDCF
S315080022F0A41EF3D1FF20FFF77BFFFF20FFF778FF2F
S315080023000120F2BD38B505460C46FFF799FF0028AF
S315080023101CD02046FFF76CFFFD2C19D04FF4007433
S315080023202878FFF765FF6878FFF762FFAD1CA41EE3
S31508002330F6D1FF20FFF75CFFFF20FFF759FFFF20CC
S31508002340FFF756FF00F01F00052801D0002032BD18
S31508002350012032BD70B504460D46200608D504F0A6
S315080023607F0400213720FFF7F5FF0646022839DAF1
S31508002370FFF77EFFFFF787FF002801D1FF2070BD1A
S3150800238044F04000FFF734FF2846000EFFF730FF01
S315080023902846000CC0B2FFF72BFF2846000AC0B239
S315080023A0FFF726FF2846C0B2FFF722FF01202100CB
S315080023B000D19520082900D18720FFF719FF0C2C9A
S315080023C002D1FF20FFF714FF0A24FF20FFF710FFB2
S315080023D0064600F0F1FC300604D5641E2046C0B25D
S315080023E00028F2D1304670BD2DE9F843002801D007
S315080023F0012094E0DFF878442078800701D520781A
S315080024008DE0FFF775FE40F20441DFF84C04FFF754
S3150800241005FE002529460846FFF79CFF01286ED1D0
S3150800242000F070FC064606F57A764FF4D57108205A
S31508002430FFF790FF01283ED12F46E84605E0FF202A
S31508002440FFF7D6FE08F809007F1CB9465FFA89F936
S31508002450B9F1030FF3DD98F8020001284FD198F877
S315080024600300AA284BD100F04DFCB04206D24FF02B
S315080024708041A920FFF76EFF0028F4D100F042FC46
S31508002480B0423CD229463A20FFF764FF002836D1ED
S3150800249005E0FF20FFF7ACFE08F806006D1C2E4687
S315080024A0F6B2032EF5DD9DF80000400601D50C2591
S315080024B025E0042523E02946A920FFF74BFF02283B
S315080024C002DA0225A92704E001252F4601E000F0DB
S315080024D073FC00F017FCB04205D200213846FFF71E
S315080024E039FF0028F3D100F00DFCB04206D24FF4B4
S315080024F000711020FFF72EFF002800D0002528467F
S315080025006060FFF7B5FE002D06D0207800F0FE00CB
S315080025102070FFF744FE01E0FFF763FE2078BDE870
S31508002520F283002801D001207047DFF844030078C1
S31508002530704738B50D4611461C46002801D1002CB7
S3150800254001D1042032BDDFF828030278D20701D56D
S31508002550032032BD0079000700D44902012C0DD1B1
S315080025601120FFF7F7FE00281ED14FF40071284608
S31508002570FFF79DFE002817D0002415E01220FFF76C
S31508002580E9FE002810D14FF400712846FFF78FFEA8
S31508002590002805D005F5007500F00EFC641EF2D182
S315080025A000210C20FFF7D6FEFFF762FE2046401EEC
S315080025B08041C043C00F32BD70B50D4616461C4655
S315080025C0002801D1002C01D1042070BDA84801784B
S315080025D0C90701D5032070BD0178490701D5022036
S315080025E070BD4068010700D47602012C0DD1314632
S315080025F01820FFF7AFFE002827D1FE212846FFF74F
S3150800260081FE002821D000241FE010F0060F03D019
S3150800261021469720FFF79EFE31461920FFF79AFEBE
S31508002620002812D1FC212846FFF76CFE002805D0A9
S3150800263005F5007500F0C0FB641EF3D1FD210020EE
S31508002640FFF760FE002800D10124FFF711FE20469F
S31508002650401E8041C043C00F70BD00007FB51446C0
S31508002660002801D00420F1E0814D2878C00701D563
S315080026700320EBE001260E2900F2E480DFE801F0F2
S31508002680080FE246E2E2E2E2E2E2999DABB9CE0049
S31508002690FFF7F9FD002800F0D6800026D3E00021D8
S315080026A00920FFF757FE002840F0CD801021684624
S315080026B0FFF7FDFD002800F0C6806846C279017A5A
S315080026C0437A9DF80050AD09012D07D103EB01238C
S315080026D003EB02435B1C9B02236015E0890901EBAF
S315080026E08201827902F0030201EB8221491C4279B8
S315080026F002F00F02807A02EBD0125B0003F00603A9
S315080027009B18D81F8140216000269CE02879400745
S3150800271022D500218D20FFF71DFE002840F093806A
S31508002720FF20FFF765FD10216846FFF7C0FD00286A
S3150800273000F08980302503E0FF20FFF759FD6D1E64
S315080027402846C0B20028F7D110209DF80A100909BA
S3150800275088402060002676E000210920FFF7FAFD70
S31508002760002870D110216846FFF7A1FD00286AD01D
S315080027706846C17A807A2A7992070CD5400000F01B
S315080027807E0010EBD111491C9DF80D008009401EF2
S31508002790814021600BE0C0F38400401C0A46D20049
S315080027A002F0180212EB5111491C41432160002620
S315080027B049E068682070002645E000210920FFF7F7
S315080027C0C9FD00283FD110212046FFF770FD0028DB
S315080027D039D0002637E000210A20FFF7BBFD002884
S315080027E031D110212046FFF762FD00282BD00026A4
S315080027F029E000213A20FFF7ADFD002823D1002566
S3150800280006E0FF20FFF7F4FCA05500F0D5FA6D1C92
S315080028102E46F6B2042EF4DB002614E0287940078B
S3150800282011D500218D20FFF795FD00280BD1FF203B
S31508002830FFF7DEFC40212046FFF739FD002802D0CD
S31508002840002600E00426FFF713FD304604B070BDED
S315080028501C10024018100240001401408000800439
S31508002860000C014000380040A000A00440004004CD
S315080028704400002062F30F2262F31F4200B500BF36
S31508002880130096469446103928BFA0E80C50FAD88B
S315080028905FEA417C28BF0CC048BF40F8042BC90733
S315080028A028BF20F8022B48BF00F8012B00BD30B521
S315080028B0016884684218416802EB5103C90703D5C9
S315080028C04C4401E0491C08D19A4218BF12F9011B71
S315080028D001D10C3030BD12F8015B002904F8015B08
S315080028E0F0D4491EF7D5EFE762B38B0708D0521E1E
S315080028F011F8013B00F8013B00F024808B07F6D164
S31508002900830740F0208000BF103A07D330B4B1E8FF
S315080029103810103AA0E83810F9D230BC530724BF53
S31508002920B1E80810A0E8081044BF51F8043B40F885
S31508002930043BD20724BF31F8022B20F8022B44BFF0
S315080029400B7803707047121F17D35B0009D151F833
S31508002950043B20F8023B1B0C121F20F8023BF6D260
S315080029600BE051F8043B00F8013B1B0A20F8023B38
S315080029701B0C121F00F8013BF3D238BF121D521E62
S3150800298024BF11F8013B00F8013BF8D87047090449
S315080029900300002013F0030F09D0521E22BF13F8BC
S315080029A0010B11F801CBB0EB0C00F3D0704711F016
S315080029B0030F14D1121F22BF53F8040B51F804CB8E
S315080029C06045F7D0121D0AD200BA9CFA8CFCB0EB0F
S315080029D00C0038BF6FF0000088BF01207047521EF8
S315080029E022BF13F8010B11F801CBB0EB0C00F6D09F
S315080029F0521C08BF1046704762F30F2262F31F424B
S31508002A00401810F0030308D0C91A1FD3DB0748BFC4
S31508002A1000F8012D28BF20F8022D130030B4144603
S31508002A201546103928BF20E93C00FAD8490728BFBF
S31508002A3020E90C0048BF40F8042D890028BF20F87B
S31508002A40022D48BF00F8012D30BC7047C91818BFC1
S31508002A5000F8012DCB0728BF00F8012D70470000AC
S31508002A60C9B202788A421AB11CBF10F8012FF9E7D9
S31508002A7018BF00207047000010B400EB116091FAEF
S31508002A80A1F1B1FA81F1890003680F248C40A343B0
S31508002A908A401A43026010BC704710B400EB1160FC
S31508002AA091FAA1F1B1FA81F18900036803248C40F7
S31508002AB0A3438A401A43026010BC704710B400EB67
S31508002AC0116091FAA1F1B1FA81F189000368042431
S31508002AD08C40A3438A401A43026010BC7047C368FF
S31508002AE0090A8B4391FAA1F1B1FA81F18A401A4396
S31508002AF0C260704720490A681043086070471E493B
S31508002B000A6822EA00000860704710B500241B49CD
S31508002B10884206D10420FFF7EDFF0420FFF7EFFFF8
S31508002B2028E01749884206D10820FFF7E3FF082066
S31508002B30FFF7E5FF1EE01349884206D11020FFF78C
S31508002B40D9FF1020FFF7DBFF14E00F49884206D1B2
S31508002B502020FFF7CFFF2020FFF7D1FF0AE00B491F
S31508002B60884206D14020FFF7C5FF4020FFF7C7FF80
S31508002B7000E00124204610BD0C1002400008014068
S31508002B80000C0140001001400014014000180140EB
S31508002B902DE9F04104460D462E683602360C96FAA3
S31508002BA0A6F0B0FA80F72DE04FF0011807F1F8000B
S31508002BB008FA00F848F0806807E0C00721D5082F12
S31508002BC0F2D240F2011808FA07F86868082804D112
S31508002BD02A6941462046FFF782FF6A684146204631
S31508002BE0FFF74AFF6868012801D0092809D1AA68B1
S31508002BF041462046FFF751FFEA6841462046FFF75F
S31508002C005DFF7F1C3046F840D7D10020BDE8F08133
S31508002C1081B03F490A6802430A6009680840009083
S31508002C20009801B070473A490A6822EA000008602D
S31508002C30704738490A6810430860704735490A687A
S31508002C4022EA0000086070473348006800F46050C4
S31508002C50704710B54FF40060FFF7DAFFFFF7F4FF8F
S31508002C602E490C682E49C00A085CC440FFF7ECFFE1
S31508002C70002801D1012000E002202A4901220A6029
S31508002C804FF6FF72CA6244432748B4FBF0F0401E71
S31508002C908862486940F00100486124480022426081
S31508002CA0496A018010BD80B54FF40060FFF7C1FF87
S31508002CB04FF40060FFF7C2FF4FF40060FFF7B3FF61
S31508002CC01B4800210160416081604FF0007019497E
S31508002CD0086001BD1848006814490A88801A80B23D
S31508002CE0642800D2704710B46423B0FBF3F34C6831
S31508002CF0184680B204194C60642000FB03220A803F
S31508002D0010BC704780B5FFF7E5FF0848406802BD6C
S31508002D10181002400C10024004100240580000200F
S31508002D204C7B0008002C0140A0860100801600207C
S31508002D3010E000E004ED00E0242C0140E2E700008A
S31508002D400068800900F00100704789B20161704788
S31508002D5070B504460D460126FFF7F2FF002825D177
S31508002D602168134801402868014368680143A86838
S31508002D700143E86801432869014368690143A86972
S31508002D800143E8690143286A01432160606820F02D
S31508002D900400696940EA11406060286AB0F5005F7E
S31508002DA003D1696A2046FFF7D0FF0026304670BD7A
S31508002DB04000FFFF00F02DB800F02EB8806800EA4A
S31508002DC0112080B2C1F30F21884201D1012070473A
S31508002DD000207047C1F30F2101617047C1F30F212D
S31508002DE041617047394A3A490128104600D1F5E74A
S31508002DF0F0E77047704780B540F201113548FFF794
S31508002E00DDFF002801D1002002BD00F0A6F8012050
S31508002E1002BD642000F082B800F083B880B5C6B061
S31508002E204FF48C7100226846FFF7E6FD4FEA0D0164
S31508002E302EA0FEF768FF002808D10098002805D0C4
S31508002E409DF80800C00601D4012000E0002047B024
S31508002E5000BD000025A0704710B51F4C002084F85F
S31508002E6028020A221DA12046FEF7C8FB002802D127
S31508002E70012084F8280210BD80B5174890F828125A
S31508002E80012901D1FEF792FE18A0BDE80240FEF71F
S31508002E9059BF114890F82812012901D1FEF786BEBC
S31508002EA0704710B50C4C94F8281201290CD121460C
S31508002EB0FFF70CF8002807D5002084F828022046DA
S31508002EC0BDE81040FEF772BE10BD000000100140BC
S31508002ED010001004000801401C0800202F626F6FC4
S31508002EE0746C6F672E747874000000002F64656D2B
S31508002EF06F70726F675F6F6C696D6578696E6F5F0B
S31508002F0073746D33322E737265630000C1F30F213B
S31508002F1001617047C1F30F2141617047114948802B
S31508002F20704710B5FFF7EEFE0E4C6168884213D362
S31508002F300D4842F220012278002A04D1012222708B
S31508002F40FFF7E4FF03E000222270FFF7E3FFFFF735
S31508002F50D9FE61880818606010BD42F22001024857
S31508002F60D8E70000781600200008014080B5DFF891
S31508002F707009807800F0DEFE012002BDDFF86009E6
S31508002F808078FF2801D00120704700207047000094
S31508002F90F8B505460C46FFF7F1FF002801D00120D9
S31508002FA0F2BD002C06D1DFF83C090068C0075AD5E7
S31508002FB000BE58E000223421DFF82009FFF75AFC4A
S31508002FC0DFF81C690020307006F1100001F0B7F830
S31508002FD006F10C00B060701C01F04BF97060707857
S31508002FE0401CB0F5807F06DBDFF8F8080068C007EC
S31508002FF039D500BE37E0002701E080477F1C71788D
S3150800300038464A1CC0B2D2B290421FD200203A4675
S315080030100B46D2B29A4207D270683946C9B201EB5A
S31508003020C10200EB820005E0791AC9B2002901D174
S31508003030DFF8500B002802D040680028DDD1DFF801
S31508003040A4080068C0070ED500BE0CE0B57021467E
S31508003050284601F019F9002807D1DFF88808006822
S31508003060C00700D500BE0020F2BD284601F006F9CB
S315080030700120F2BD70B50446002503E02046C96864
S3150800308088476D1CDFF8580842782946531CC9B290
S31508003090DBB299421CD200212B461646DBB2B3425C
S315080030A007D240682946C9B201EBC10200EB82018A
S315080030B005E0AA1AD2B2002A01D1DFF8C81A0029F7
S315080030C0DCD1DFF820080068C00715D500BE70BD42
S315080030D0DFF80848002234212046FFF7CBFBFF2201
S315080030E01021201DFFF7C6FBFF22102104F1140052
S315080030F0BDE87040FFF7BEBB70BD80B5FFF7BAFFED
S31508003100BDE8014001F0ABBF7FB5FFF737FF0028E8
S31508003110DFF8CC5715D17FBD9DF80100401E072862
S3150800312000F2CE80DFE800F0041CC2A4B1235CBA2A
S315080031309DF80000FFF7E1FF9DF80400DFF89C17F3
S315080031408870AC680020216888476946201D00F011
S31508003150C0FF0646012021688847002EDCD17FBDC6
S315080031609DF80000FFF7C9FF02F08DF8E9E7287817
S3150800317000282ED02878401E287028780028E0D10C
S31508003180DFF85807017841F0010101702430017811
S3150800319001F0FE010170017801F0FB010170417830
S315080031A001F0FE014170417801F0FB01417001A96F
S315080031B09DF8000000F09AF80028C2D100219DF879
S315080031C0000001F011FD80219DF8000001F00CFDC2
S315080031D0B7E7DFF8C8090068C0079CD500BE7FBD01
S315080031E09DF8041001F00F000A46DFF8F03603EBED
S315080031F0400313EBD2142434267806F0FE06267014
S3150800320013EBD2142434267806F0FB062670002821
S3150800321007D1029B9DF805209DF8000001F032FFBA
S315080032208FE713EBD210007D00246A780346164612
S31508003230B34205D26A6800EBC00312EB830405E0CB
S31508003240801AC0B2002801D1DFF83849002C07D00F
S31508003250029B9DF805209DF80000A469A04770E729
S31508003260DFF838090068C0077FF555AF00BE7FBD97
S31508003270DFF868060178C9077FF563AF0078C008EC
S3150800328000F0010002F002F85BE7DFF8500600786C
S31508003290C0077FF556AF01F0FBFF52E701980028FB
S315080032A03FF44FAF0298019988474AE7DFF82C06A2
S315080032B0C078C0077FF545AF019801F0ECFF40E7FD
S315080032C0DFF8D8080068C0077FF53BAF00BE38E7CF
S315080032D070B504460D461646686901F0C5FE3246C5
S315080032E0012120466B69BDE8704018472DE9FC416D
S315080032F005460E46002001F0B7FE3078C0F34111AE
S31508003300022907DDDFF894080068C00700D500BE6B
S31508003310002062E009D1DFF8F00901F0A5FE324687
S315080033200121284601F0F4FF57E010F01F0105D0EF
S31508003330022900F02681C0F0DC809EE1C0F341112D
S31508003340012924D13079102801D3002045E0DFF87F
S31508003350BC19085C0021DFF88825537804461F4607
S31508003360BC4205D2516800EBC00201EB820105E0C0
S31508003370C01AC0B2002801D1DFF80818002901D107
S3150800338000202AE032462846FFF7A2FF25E0C0F3D0
S315080033904110002807D0DFF804080068C00700D5E8
S315080033A000BE002019E07078092800F29A80DFE84C
S315080033B000F08373986398055B981622304601F0EF
S315080033C056FE7188C9B2284600F0B2FFDFF80C0530
S315080033D0017841F0020101700120BDE8F681DFF8AD
S315080033E0FC0440788DF8000001236A4631462846D9
S315080033F001F0F6FDF0E77788DFF8E04460783946B3
S31508003400C9B288422BD0607800280DD00021284602
S3150800341000F07FFF284601F0B5FA94F802802846A6
S31508003420FFF728FE84F8028067703846C0B2002885
S3150800343002D101F028FF12E03946C9B2284600F049
S3150800344025F9002809D100206070DFF850070068C8
S31508003450C00700D500BE0020BFE701F011FF3146C6
S31508003460284601F076FDB7E73146284600F0BCF954
S315080034700028B1D10020B0E7708801280AD1DFF80A
S315080034805C04017841F0080101703146284601F0D4
S3150800349060FDA1E70020A0E77088012801D0002080
S315080034A09BE7DFF83804017801F0F701017031462F
S315080034B0284601F04EFD8FE7DFF82004017808461C
S315080034C0400900F00100C90801F0010140EA410085
S315080034D0ADF8000002236A463146284601F080FD11
S315080034E07AE7DFF8B8060068C00700D500BE0020F6
S315080034F073E73079102801D300206EE7DFF80C183F
S315080035000B5C0021DFF8D80342781C461746BC42FC
S3150800351005D2406803EBC30100EB810105E09A1A66
S31508003520D2B2002A01D1DFF85C16002901D10020A9
S3150800353053E732462846FFF7CBFE00287FF44CAF08
S315080035403078C0F34110002801D0002045E700205C
S3150800355001F08AFD70780A2802D00B280AD00EE0FE
S3150800356000208DF8000001236A463146284601F0FE
S3150800357037FD31E73146284601F0EBFC2CE7002001
S315080035802BE7B18801F00F02082A07D3DFF80C06EB
S315080035900068C00700D500BE00201EE7DFF83C73B0
S315080035A007EB42020B46DBB202EBD31292F814C0C9
S315080035B00024DFF82C235378E6469846C64505D2FC
S315080035C052680CEBCC0312EB830406E0ACEB030366
S315080035D0DBB2002B01D1DFF8AC45C0F3411000285F
S315080035E009D0002C01D10020F7E6324621462846AC
S315080035F0FFF76EFEF1E67278100004D0012813D0AA
S31508003600032811D031E0C9B2284600F06FFB401EEE
S315080036108041C043C00FADF8000002236A46314618
S31508003620284601F0DDFCD7E67088002808D1012A73
S31508003630C9B2284602D100F03FFB01E000F022FBA8
S31508003640002C3FF4C9AE324621462846FFF740FE15
S31508003650002001F009FD97F82500C0073FF5BCAE2C
S315080036603146284601F075FCB6E6DFF830050068F5
S31508003670C00700D500BE0020AFE6DFF820050068C9
S31508003680C00700D500BE0020A7E600002DE9F84FC8
S315080036900446481EC0B201F037FE002802D0417821
S315080036A0022907D0DFF8F4040068C00740F19680C5
S315080036B000BE93E0894DC2795209297862F3041154
S315080036C02970C279920962F34511297000F1090639
S315080036D041884718DFF808B2BE4280F081804FF073
S315080036E0010870780B2803D196F8038030780644D1
S315080036F07078042804D1A7EB06094FF0000A14E0F5
S31508003700DFF898040068C00768D500BE66E04A4638
S3150800371092B2314620461B699847092803D3494681
S3150800372089B2814228DA0AF1010A9BF8010051465A
S31508003730421CC9B2D2B2914242D200235146024635
S31508003740C9B2914208D2DBF804005146C9B201EB6E
S31508003750C10210EB820306E0AAEB0000C0B2002803
S3150800376001D1DFF82034002BD1D1DFF8300400680E
S31508003770C00733D500BE31E000224146804603E04B
S315080037802B1D03F800A0521C1046C0B288420DDA61
S31508003790B0781018C0B22B1D1B5CFF2BF0D0DFF8D9
S315080037A0FC030068C00719D500BE17E05346DBB214
S315080037B040460246314605F1140001F0A8FE46448B
S315080037C09BF80100401C5FFA8AFAC0B2824583D38F
S315080037D0DFF8C8030068C00700D500BE002000E077
S315080037E00120BDE8F28F000038B504460D4668880A
S315080037F00146090A0A46012A0AD0022A2DD0032AB6
S315080038004AD0062A59D0072A27D00F2A15D063E0AE
S3150800381001F078FD0246002A07D1DFF88003006828
S31508003820C00700D500BE002032BD12232946204617
S3150800383001B0BDE8304001F0D3BB01F067FD0028B8
S3150800384001D1002032BD811C0B880246294620463C
S3150800385001B0BDE8304001F0C3BB0229C0B20BD1AC
S3150800386001F052FD00280DD1DFF830030068C007CB
S3150800387000D500BE002032BD01F0D3FF002801D1DB
S31508003880002032BD811C0B8802462946204601B01D
S31508003890BDE8304001F0A4BBA988C0B201F05DFDC7
S315080038A0002801D1002032BD037802462946204669
S315080038B001B0BDE8304001F093BB01F0B4FF002829
S315080038C001D1002032BD037802462946204601B0C0
S315080038D0BDE8304001F084BB002032BDF41500205D
S315080038E0CC000020F0ED00E02DE9FF4704460E4627
S315080038F000276078801E052800F21F81DFE810F097
S315080039000600300018002400C900D000DFF80004C3
S31508003910017801F0FE010170017801F0FD010170E6
S3150800392039464170017801F0FB010170012705E174
S31508003930DFF8DC030178C90740F10081017841F01E
S31508003940040101700127F9E0DFF8C4030178C9070B
S3150800395040F1F480017801F0FB0101700127EDE0E8
S31508003960B846DFF8B0531DE0A8EB0101C9B200293B
S315080039700ED184480CE0384642460B46D2B29A42EB
S31508003980F2D268684146C9B201EBC10200EB820077
S31508003990002805D0026A002A02D06168207890477C
S315080039A008F10108697840464A1CC0B2D2B2904272
S315080039B0E1D3DFF85C8398F80000C0F380000028A4
S315080039C034D098F8000000F0FB0088F8000068463C
S315080039D00FF2483191E80C1080E80C1020788DF829
S315080039E00000D5F80890300003D13846D9F8001001
S315080039F08847694609F1040000F07CFB82463000DE
S31508003A0003D10120D9F800108847BAF1000F06D172
S31508003A10DFF804030068C00708D500BE06E0324692
S31508003A209DF801109DF8000001F0FFFE98F80300CC
S31508003A30C00740F1838068460FF2EC2191E80C102C
S31508003A4080E80C1020788DF8000060680190AD6859
S31508003A50300002D13846296888476946281D00F093
S31508003A6049FB8046300002D1012029688847B8F111
S31508003A70000F06D1DFF8A0020068C0075ED500BEB9
S31508003A805CE032469DF801109DF8000001F0CDFE7D
S31508003A9054E0DFF880020178491C017001274DE0E7
S31508003AA0217901F00F0088460127002846D0DFF863
S31508003AB0602202EB400909EBD810027D0025DFF8E9
S31508003AC05402437894469E46F44505D2406802EB74
S31508003AD0C20310EB830504E0D21AD2B2002A00D141
S31508003AE0284D002D2AD0E869002827D009EBD810E0
S31508003AF02430027802F0FE02027009EBD810243056
S31508003B00027802F0FB020270A36862792078ED69F8
S31508003B10A847002800D0002738000FD009EBD81096
S31508003B202430017841F00101017009EBD8102430E6
S31508003B30017841F00401017000E00127002F1FD031
S31508003B40DFF8D0018568300002D10020296888474F
S31508003B502146281D00F0CEFA0746300002D1012082
S31508003B6029688847002F06D1DFF8AC010068C0072E
S31508003B7006D500BE04E032466178207801F055FE8D
S31508003B80BDE8FF875C7A0008DFF888118978002885
S31508003B90084601D000F072BB00F075BBF0ED00E0FE
S31508003BA038B50D465B488478A87800F00F000828D9
S31508003BB005DB59480068C0070ED500BE0CE0002298
S31508003BC053488178284601F04FFC002806D1524810
S31508003BD00068C00700D500BE002032BD2946204631
S31508003BE0BDE8344000F05ABE08460021484A00F0B5
S31508003BF00F0302EB430202EBD010243001F002BCA3
S31508003C0008460021424A00F00F0302EB430202EB8A
S31508003C10D010243001F013BC70B501F00F000C462B
S31508003C20E4093B4D05EB400505EB040090F824003C
S31508003C30C0071ED428192430067846F001060670F7
S31508003C403448807800F0BCFF002818D128192430A1
S31508003C50017801F0FE01017028192430017801F07D
S31508003C60FB0101702C480068C00700D500BE002083
S31508003C7070BD29480068C007F9D500BEF7E70120DE
S31508003C8070BD000038B501F00F040D462148807854
S31508003C9000F0AAFF1E4800EB440010EBD5112431B2
S31508003CA00A7842F002020A7000EBD5102430017837
S31508003CB041F00101017031BD38B501F00F040D4620
S31508003CC01448807800F0C6FF114800EB440010EB5A
S31508003CD0D51124310A7802F0FD020A7000EBD510DE
S31508003CE02430017801F0FE01017031BD084801F069
S31508003CF00F0200EB420000EBD11090F824004008B8
S31508003D0000F001007047000011530008F815002064
S31508003D10F4150020CC000020F0ED00E000050000BE
S31508003D200000000000000000000300000000000082
S31508003D3000000000704730B4144648F20105AC4252
S31508003D4001DB002010E0029C01608280C18863F3D9
S31508003D500E01C180C17901F07F0141EAC411C17128
S31508003D60002141810181012030BC704718B41346F7
S31508003D70C488C4F30E04224600686343184418BC7A
S31508003D80FEF7B2BDF8B504460D460699B4F804C068
S31508003D90ACEB030CE688C6F30E06B6466746BFB21A
S31508003DA00EFB07F7BFB2A2EB0C00464320680EFBDA
S31508003DB003F31844C9B2002917D111461FFA8CFC1F
S31508003DC08C4506D30EFB02F22946BDE8F840FEF7FD
S31508003DD08BBD3A462946FEF787FDB6B23246E91943
S31508003DE02068BDE8F840FEF77FBDF1BD18B40B4664
S31508003DF01146C488C4F30E04224600686143014490
S31508003E00184618BCFEF770BDF8B504460D46069868
S31508003E10B4F804C0ACEB030CE688C6F30E06B64647
S31508003E206746BFB20EFB07F7BFB2A2EB0C014E43C3
S31508003E3021680EFB03F31944C0B2002817D11046B7
S31508003E401FFA8CFC844506D30EFB02F22846BDE811
S31508003E50F840FEF749BD3A462846FEF745FDB6B294
S31508003E6032462168E819BDE8F840FEF73DBDF1BDC8
S31508003E70521813469BB28B4205D3114689B20346A4
S31508003E80B1EB430F03DBC0EBC03102EB4102104636
S31508003E9080B2704770B514461D46AC4201D3D41A99
S31508003EA003E08488C3EB44041419A4B2002C01D19E
S31508003EB0002070BD85882E46A64208DA13462C4691
S31508003EC0A34201D3521B00E0AA18428113462A4690
S31508003ED000E09B1A1C46A4B2AC42FAD21A4692B229
S31508003EE0FFF784FF012070BDF8B5069C1D462646DF
S31508003EF0B6B2B54201D31D1B03E08588C4EB450560
S31508003F005D192E46B6B2002E01D10020F2BD868874
S31508003F103746AC461FFA8CFC674509D21C4635461F
S31508003F20AC4201D39B1B00E0F31843811C468588ED
S31508003F30ADB2954200D91546324600E0A41A23468A
S31508003F409BB2B342FAD29DF81C20009223469BB23C
S31508003F502A46FFF759FF2846F2BD2DE9FC410446DB
S31508003F600F4690461D464046002801D100205CE0D9
S31508003F7026896189A388E079C00914D130460A46A2
S31508003F80904201D3711A02E0C1EB4301711889B25C
S31508003F901846814201DA591A00E0002189B288459B
S31508003FA029D9884627E040461A4690420DD328006C
S31508003FB008D11846A8EB0008E088C0F30E0000FBFD
S31508003FC008F8474498460E4615E030460A46904299
S31508003FD001D3721A02E0C1EB4302B21892B240460C
S31508003FE082181846B2EB400F05DBA3EB080292B223
S31508003FF0FFF73EFF06464046002815D03346A08800
S31508004000024600E01B1A194689B29142FAD2009577
S315080040109BB2424639462046FFF7B4FE4246314631
S31508004020A088FFF725FF20814046BDE8F6813EB50A
S31508004030044660890193009023892046FFF754FFC0
S3150800404005462A466189A088FFF712FF608128463F
S315080040503EBD10B4014648890A8989881346044634
S31508004060A34201D3101A02E0C0EB4100101880B237
S31508004070884200D9084610BC704710B441890289A5
S31508004080838810460C46A04201D3511A02E0C1EBC0
S315080040904301511889B299428041C043C00F10BCF0
S315080040A0704710B4014648890A8989881346044628
S315080040B0A34201D3101A02E0C0EB4100101880B2E7
S315080040C00A46904201DA081A00E0002080B210BCC5
S315080040D0704738B5044663892289FFF7DBFE054633
S315080040E02A466189A088FFF7C3FE6081284632BD4B
S315080040F000239CE770B504460D462689FFF7BDFFE9
S31508004100002804D0E079C00901D1002070BD3246EC
S31508004110A088034600E0121A114689B29942FAD2DB
S3150800412092B229462046FFF721FE01223146A08891
S31508004130FFF79EFE2081012070BD00230DE70021B8
S31508004140418101810120704710B504460A4621893C
S31508004150A088FFF78DFE208110BD10B504460A46DB
S315080041606189A088FFF784FE608110BDF0B40389D9
S31508004170448985881A462646B24201D31A1B02E0AC
S31508004180C4EB45029A1892B22E46964208DA1A46A7
S315080041902C46A24201D31C1B00E0E4184481828805
S315080041A0002A05D1002008804880486088601FE002
S315080041B02F4600E05B1B1E46B6B2BE42FAD200E0AE
S315080041C0641B2646B6B2BE42FAD2A4B20568254496
S315080041D04D609BB29C4204DA0A80002048808860C1
S315080041E006E083881C1B0C80141B4C8000688860C2
S315080041F0F0BC7047F0B40389448985882A461E4670
S315080042002746BE4201D31E1B02E0C4EB42069E1996
S31508004210B6B21746BE4201DA921B00E0002292B2FD
S31508004220002A06D1002008804880486088601EE081
S315080042305B1B1E46B6B2BE42FAD29BB200E0641BB6
S315080042402646B6B2BE42FAD2A4B205681D444D60EF
S31508004250A34205DAE31A0B8000204880886006E04E
S315080042608488E31A0B80D31A4B8000688860F0BCF8
S31508004270704700210170084670470000BFF34F8F52
S31508004280BFF36F8F704770471CB504460020009037
S3150800429003E000BF0098401C00900098C828F8D397
S315080042A00320DFF8C41A08800020009003E000BF4E
S315080042B00098401C00900098C828F8D30A884FF642
S315080042C0FD7002400A800020009003E000BF0098BD
S315080042D0401C00900098C828F8D3084600210180A1
S315080042E0018281800846DFF8842A02E022F820103D
S315080042F0401C0828FAD3DFF8700A018841F45D41AA
S315080043000180204600F019F8204601F08FFA0120B6
S3150800431016BDDFF8542A002904D0108840F400702E
S315080043201080704711884FF6FF5001401180704782
S3150800433000231A46802100F043BC10B5DFF8344A42
S315080043400021218008E002EB8102FF2313705370DD
S3150800435000239370D370491CDFF81C2A0829F2D36E
S315080043604021118400F069FA8020208010BD1FB515
S31508004370DFF8F81931F8204044F4004444F080048A
S3150800438004F00F03DFF8F4191A4601EB421101F1A4
S31508004390100204F4C061B1F5806F13D1D17B0029F6
S315080043A02DD00021D173A40904F0010484F001047E
S315080043B0DFF8CC1901EB001101EBC4018C8804F479
S315080043C07C448C8011895489A14205D0014689B262
S315080043D0104600F0F5FA1FBD00208DF800000720F2
S315080043E08DF8010043F080038DF80430508902905F
S315080043F000208DF8050001216846FFF775FA1FBDF4
S315080044000000000030B585B00446DFF8740900EBFB
S3150800441004108589C5F3090501892A4603A800F011
S3150800442083FCDFF8481931F8242040F68F700240E3
S3150800443042F0800221F82420082D0FD100208DF8A3
S31508004440000006208DF80100082203A901A8FEF73E
S315080044505BFA01216846FFF747FA0AE0DFF8240904
S315080044600068C00700D500BE4FF48050DFF8181961
S31508004470088005B030BD2DE9FE4F0446DFF8EC583C
S3150800448035F824B04BF4004B4BF0800B0BF00F06BD
S315080044900BF4C060B0F5806F01D1012700E000275A
S315080044A0380006D05846800B00F0010080F0010065
S315080044B000E00120DFF8C81801EB041808EBC0017A
S315080044C0B1F80490C9F3090938F83010DFF8AC08D8
S315080044D0324600EB421ADAF8040000284A4602D0AF
S315080044E000F0C4FC06E0DAF80000BAF80A3018440E
S315080044F000F01AFCBAF80A004844AAF80A00BAF802
S315080045000C00814505D3BAF80A00BAF808108842A3
S3150800451030D3BAF80C0001463F2803DB01201F31CF
S31508004520490902E00020491C4908C9B2091A89024A
S3150800453041EAC031084680B2002801D14FF4004153
S31508004540A8F80C1000208DF8000007208DF801004F
S315080045508DF80460BAF80A00029000208DF805006C
S3150800456001216846FFF7C0F90020AAF80A00AAF850
S31508004570080027E0002F1DD1BAF80C20091A89B2C5
S31508004580914200D9114608463F2903DB01211F3015
S31508004590400902E00021401C4008C0B2401A8002CF
S315080045A040EAC130014689B2002901D14FF40040E2
S315080045B0A8F80C004BF68F7000EA0B0B8BF4405BE7
S315080045C025F824B0BDE8F78F2DE9FF410646DFF848
S315080045D09847A588A80510D54FF6FF50A0802089D2
S315080045E0C0F30A0000218DF8001003218DF8011090
S315080045F0019001216846FFF777F9680513D54FF64C
S31508004600FF30A0803046FFF798FE00208DF80000A6
S3150800461001208DF8010000208DF80400012168466C
S31508004620FFF762F97DE0E80416D521884FF6FB709E
S315080046300140218021884FF6F770014021804EF60F
S31508004640FF70A08000208DF8000005208DF801007D
S3150800465001216846FFF748F9280514D5208840F057
S3150800466008002080208840F0040020804FF2FF7068
S31508004670A08000208DF8000004208DF8010001219B
S315080046806846FFF731F9E8052CD5DFF8E4261078F7
S31508004690012804D123884FF6EF710B4023800028A8
S315080046A001D0401E10704FF6FF60A0801AE036F861
S315080046B0271040F68F70014041F0800126F8271038
S315080046C03846FFF7D8FE5FEA08600BD536F827109C
S315080046D048F60F70014041F4004126F82710384685
S315080046E0FFF745FEA088000410D5A78807F00F0736
S315080046F0DFF8786636F827805FEA0840E3D55FEA90
S315080047000850D4D53846FFF77DFEDCE7680408D59F
S31508004710DFF870060068C00700D500BE4BF6FF70CC
S31508004720A080BDE8FF81087810F07F0F09D148788E
S31508004730052806D14888C0B240F08000DFF8341654
S3150800474008804FF48050DFF8401608807047000054
S3150800475010B402463F2803DB20201F32520902E02C
S315080047600220521C5208D2B24243DFF80C361C8C87
S31508004770204614191C84002905D0214689B240EA2E
S31508004780014012191A84198C40F20122914207D36A
S31508004790DFF8F0050068C00700D500BE4FF6FF70C9
S315080047A010BC7047F0B402460B4602F00F04D2095B
S315080047B00020DFF8C4551DE0194601292BD1012731
S315080047C0B1188978002913D1002F05D082F001018C
S315080047D03144897800290BD115F82010FF2901D01A
S315080047E0A14205D17178FF2917D01F46B94214D0C6
S315080047F0401CC0B2082817DA05EB8006B11889787C
S315080048000029D9D071781F46B942D5D115F820109C
S31508004810A142D1D10FE00027D2E705F820407370F6
S3150800482001213244917006E0DFF858050068C00798
S3150800483000D500BE0020F0BC704710B50021084620
S31508004840FFF7B0FF00218020FFF7ACFFDFF82C054B
S315080048504021818100218173402181830021817754
S315080048604020FFF775FF044600214020FFF770FF40
S31508004870DFF80C150C810880DFF8F0241388DFF8C0
S315080048800C0503404FF48050888143F4007383F489
S31508004890005383F02003138010BD00002DE9F04774
S315080048A08A469AF8020000F00F094C460546ED09BB
S315080048B0BAF80460C6F30A069AF8031001F0030171
S315080048C0FFF770FF0746082F06DBDFF8B804006815
S315080048D0C00727D500BE25E0DFF8908438F82710F2
S315080048E0DFF8A804084049EA000949F4004949F0F4
S315080048F080099AF8030000F00300022803D0032871
S315080049000AD149F4C06900213046FFF721FF29463C
S31508004910012909D1002108E0DFF868040068C0070A
S3150800492000D500BE00202BE00121DFF8542402EB5D
S31508004930071222F83100DFF8440400EB4410294638
S3150800494000EB0110868187732846012801D10020D3
S3150800495000E008200221001D01FA00F080EA09099A
S31508004960012D02D129F4E04901E029F0700900205F
S31508004970FFF789FC28F827900020FFF77FFC012025
S31508004980BDE8F08738B50446FFF77DFC0120DFF85F
S31508004990E8530DE00021DFF8D42322F8201005EBB8
S315080049A08001FF220A704A7000228A70CA70401C71
S315080049B00828EFD32046FFF761FCC020288431BDC4
S315080049C02DE9F24F0446A089618925896D1AADB291
S315080049D0854200D90546BDF80060DFF8907337F8C0
S315080049E0268048F4004848F0800808F4C060B0F50E
S315080049F0806F02D14FF0010901E04FF000094846E7
S31508004A00002805D0C2464FEA9A1A0AF0010A01E0C0
S31508004A104FF0000ADFF868B30BEB0610524630F881
S31508004A203230606800282A4603D0194600F0B0F9EB
S31508004A3004E020680144184600F052F960892818F5
S31508004A406081BDF800000BEB001000EBCA008188FE
S31508004A50890A61F38F25858088F03008B9F1000F3F
S31508004A6001D00120E0730020FFF70DFC48F6BF7067
S31508004A7000EA080827F826800020BDE8F24FFFF76D
S31508004A80FDBBF8B5BD4800EB4110114600EB01101F
S31508004A90847B1146012903D12146FFF791FF8DE05A
S31508004AA0B24D35F8246046F4004646F0800601D13A
S31508004AB0002300E0082303211B1D01FA03F343F436
S31508004AC00F4343F08F031E4083890089984200D91B
S31508004AD01846864606F4C063B3F5806F234607D0AA
S31508004AE03F2843DB01200EF11F0E4FEA5E1E42E00F
S31508004AF03F2805DB01270EF11F0C4FEA5C1C04E07A
S31508004B0000270EF1010C4FEA5C0C5FFA8CFCACEB4B
S31508004B10070C4FEA8C2C4CEAC73C6746BFB2002FFD
S31508004B2001D14FF4004C964F07EB0313A3F804C0CA
S31508004B303F2805DB01200EF11F0E4FEA5E1E04E03A
S31508004B4000200EF1010E4FEA5E0E5FFA8EFEAEEB06
S31508004B50000E4FEA8E2E4EEAC03E704680B20028FE
S31508004B6001D14FF4004EA3F80CE017E000200EF137
S31508004B70010E4FEA5E0E5FFA8EFEAEEB000E4FEAAE
S31508004B808E2E4EEAC03E704680B2002801D14FF400
S31508004B90004E7B4800EB0310A0F80CE0012A01D177
S31508004BA0002000E00820001D81404E400020FFF74D
S31508004BB06AFB25F824600020FFF760FB0120F2BDA0
S31508004BC078B401F00F04C9096C4D264605EB461565
S31508004BD00E4605EB06152A6000226A602B816A815B
S31508004BE00A46214678BC4CE770B50846C009634AB0
S31508004BF001F00F0102EB4111024601EB02118C7B19
S31508004C005A4D35F8246046F4004646F080060146BB
S31508004C10012901D1002100E008210322091D02FA19
S31508004C2001F141F40F4141F08F010E40012801D1F5
S31508004C30002000E008200121001D01FA00F046408E
S31508004C400020FFF720FB25F824600020BDE870400F
S31508004C50FFF714BB70B50846C009484A01F00F01B2
S31508004C6002EB4111024601EB02118C7B3F4D35F8F0
S31508004C70246046F4004646F080060146012901D123
S31508004C80002100E008210246012A01D1002200E0A5
S31508004C9008220323091D03FA01F10123921D03FAD1
S31508004CA002F2114341F40F4141F08F010E4006F420
S31508004CB0C061B1F5806F09D0012801D1002000E05C
S31508004CC008200221001D01FA00F046400020FFF7E7
S31508004CD0DAFA25F824600020BDE87040FFF7CEBA5E
S31508004CE070B413001DD05B08254C04EB400403E0A8
S31508004CF031F8020B24F8040B1846431E0028F7D196
S31508004D0012F001020DD00020034605E011F8016BF0
S31508004D10DD00AE4030435B1C1D46ADB29542F5DB67
S31508004D202080012070BC704710B4130019D05B08AE
S31508004D30134C04EB410403E034F8041B20F8021B6F
S31508004D4019464B1E0029F7D112F0010209D0218815
S31508004D5002E000F8011B090A13465A1E9BB2002BF3
S31508004D60F7D1012010BC7047405C0040005C004051
S31508004D70881600204C5C004028160020501300209E
S31508004D8000600040F0ED00E00C6000407070FFFF2E
S31508004D902DE9FF470F46140001D1012063E00646BE
S31508004DA001A9FFF7E3F9BDF804002546854200D9B5
S31508004DB00546BDF80600641BA4B2844200D9044621
S31508004DC004EB05084FF6FE7909EA050905F0010521
S31508004DD0DDF808A04A4651463846FFF781FF4F449A
S31508004DE00AEB0901002D01D1039D2FE00020ADF843
S31508004DF000000BE0BDF8002011F801CBC3000CFA47
S31508004E0003FC4CEA0202ADF80020401C024692B2AE
S31508004E10AA42EFDB039D0AE0BDF8001015F8013B36
S31508004E20C20093401943ADF80010401C641E0146A9
S31508004E3089B2022903DA214689B20029ECD1022275
S31508004E406946384680B2FFF74BFFBF1C224692B22E
S31508004E502946384680B2FFF743FF414689B23046B5
S31508004E60FFF77BF9012004B0BDE8F0872DE9FF477D
S31508004E70140001D101205FE00F46064601A9FFF79D
S31508004E80B9F9BDF804002546854200D90546BDF89E
S31508004E900600641BA4B2844200D9044604EB050844
S31508004EA04FF6FE7A0AEA050A05F00105DDF80890CC
S31508004EB0524639464846FFF737FF5046814457441D
S31508004EC0002D01D103982BE00222394689B26846A3
S31508004ED0FFF72AFFBF1C002109E0BDF8000009F80A
S31508004EE0010BBDF80000000AADF80000491C084691
S31508004EF080B2A842F1DB03980AE0BDF8002000F86A
S31508004F00012BBDF80020120AADF80020491C641ECA
S31508004F100A4692B2022A03DA224692B2002AECD153
S31508004F20224692B2394689B2FFF7FEFE414689B259
S31508004F303046FFF709F9012004B0BDE8F087000004
S31508004F4000231A460978C90981F00101C901FEF74B
S31508004F5063BE70B504460D467A4E30460822FDF704
S31508004F60C3FC0020B060F06029462046BDE87040CA
S31508004F70E6E7F8B50446734EB589F0892D1AADB241
S31508004F80402D00D9402500273078C0091AD080273F
S31508004F90280017D02A00B16801D100200EE00029A8
S31508004FA002D14FF0FF3009E0412A02D34FF0FF301B
S31508004FB004E006F11400FDF797FC0020002801D054
S31508004FC00020F2BD280002D006F1140200E00022FB
S31508004FD02B463946204601B0BDE8F040FEF71CBE18
S31508004FE02DE9F04105460E4614461F46DFF8548162
S31508004FF040460822FDF778FCC8F808400020A8F8C3
S315080050000E00F088874200D90746A8F80C70F08889
S31508005010002814D0002F07D0002C05D14A48006874
S31508005020C00717D500BE15E02846FFF7A2FF0028DF
S3150800503012D145480068C0070CD500BE0AE03146C3
S315080050402846FFF77DFF002806D13F480068C007BD
S3150800505000D500BE002000E00120BDE8F081002256
S3150800506014213848FDF706BC36490861704710B563
S315080050700146344C20460822FDF736FC0020A06085
S31508005080E06010BD70B505461C462E4E3078C00946
S31508005090C909814214D0002C05D02B480068C007E6
S315080050A04DD500BE4BE031462846FFF73CFB336939
S315080050B0002B03D03246032128469847012070BDAD
S315080050C0002807D1B068002839D0224606F1140115
S315080050D0FDF70AFCF0892018F081B1682144B16017
S315080050E0F18880B2814201D0402C1ED2012033695A
S315080050F0002B03D0324602212846984700280BD0B9
S3150800510031462846FFF71CFF0028D7D10E4800680D
S31508005110C00714D500BE12E000212846FFF764FD3B
S3150800512080212846FFF760FDC8E72846FFF721FFDC
S315080051300028C3D104480068C00700D500BE002077
S3150800514070BD000010150020F0ED00E080B53F4866
S315080051503F49016000F06BFB4EA10020FDF718FFE8
S3150800516000F092FBB0F5FA6F05D24FF4FA60BDE88D
S31508005170024000F086BB01BD80B5FDF7F7FE334857
S3150800518033490160BDE8024000F08CBB13B5044604
S315080051900846402803DB8D212E4800F084FB0122B7
S315080051A001A9002000F0A6FB012803D09121294877
S315080051B000F079FB9DF804202146002000F09AFBB8
S315080051C09DF80410884203D09421224800F06BFB16
S315080051D0002000F09AFB13BD70B505460E46002068
S315080051E0FFF7F2F900214FF0FF30FDF78DFF1A4C5B
S315080051F0607800280FD1201D00F030F8012808D16A
S315080052002079002805D0402803DA012060700020A4
S315080052102070002070BD601D2178084400F01EF83B
S315080052200128F6D12278521C227010462179C0B284
S315080052308842EED1D2B2611D284600F0C7FC002094
S31508005240607020783070012070BD00004405002091
S31508005250005C00406C790008B015002038B505469A
S315080052600024204600F035FB002807D001222946F5
S31508005270204600F035FB012800D10124204632BD26
S315080052800120FDF7AFBD0020FDF7ACBDFDF7B1BDB0
S31508005290FDF7B0BD01007047FFB40021474A1078FA
S315080052A000282DD146480368019343680293806815
S315080052B0039001201070084600E0401C0C281BD201
S315080052C001AB1C5C23461B098DF800306B4604F0C5
S315080052D00F045C70002401E0373506E0022CECD29E
S315080052E01D5D2E460A2EF7D23035161D0F46FFB223
S315080052F0F555491C641CF1E70020121DC9B250542B
S31508005300FFBC704732A0704736A070472D487047DB
S315080053107CB504461546012901D0012076BD2878BA
S31508005320C0F34110022816D16878012813D1A8883D
S3150800533007280ED1244E022206F108016846FDF719
S31508005340D3FABDF80030324629462046FFF748FE14
S3150800535076BD002076BD002076BD38B50546FFF738
S315080053609BFF280007D119480222016C801CFDF713
S31508005370BBFA01211AE0042801D3002032BD134CE0
S3150800538004F1400050F82550284600F031FC01464B
S31508005390C9B21F2900DD1F210020A31C04E02A5CD6
S315080053A023F81020401CC0B28842F8DB07484900A1
S315080053B0891C41F44071018032BD00005C00002068
S315080053C0E8F7FF1F387A0008F87700087C00002005
S315080053D01201010200000040501DAC6000010102EC
S315080053E00301000009022000010100804B090400A6
S315080053F00002FF00000007050102400000070581C2
S315080054000240000001460878C0070ED40878C0F3A9
S315080054108000002809D10878C00708D408788008D1
S3150800542000F0010080F0010002E000207047002033
S31508005430020003D00A7842F004020A707047014657
S315080054400878C0F38000002805D0087800F001002D
S3150800545080F0010000E00020020003D00A7802F084
S31508005460FB020A707047000010B48388C3F30A036E
S31508005470C47804F00304012C04D046D3032C36D098
S3150800548010D342E0022902D14FF4806001E040F2D5
S31508005490FF30984219DADFF864030068C00734D58C
S315080054A000BE32E0022909D1B3F5007F0DD0DFF83E
S315080054B04C030068C00728D500BE26E0002A07D09E
S315080054C0B3F5007F04D140218180012010BC7047CC
S315080054D0082BFAD0102BF8D0202BF6D0402BF4D07E
S315080054E0DFF818030068C0070FD500BE0DE00229D3
S315080054F002D14FF4806000E040209842E5DADFF8F8
