S01900006F70656E626C745F73746D3332663330332E7372656303
S31508000000281400206D3C0008853C0008893C00083F
S315080000108D3C0008913C0008953C00080000000053
S31508000020000000000000000000000000993C0008E5
S315080000309D3C000800000000A13C00088F34000821
S31508000040A53C0008A93C0008AD3C0008B13C0008E6
S31508000050B53C0008B93C0008BD3C0008C13C000896
S31508000060C53C0008C93C0008CD3C0008D13C000846
S31508000070D53C0008D93C0008DD3C0008E13C0008F6
S31508000080E53C0008E93C0008ED3C0008F13C0008A6
S31508000090F53C0008F93C0008FD3C0008013D000855
S315080000A0053D0008093D00080D3D0008113D000802
S315080000B0153D0008193D00081D3D0008213D0008B2
S315080000C0253D0008293D00082D3D0008313D000862
S315080000D0353D0008393D00083D3D0008413D000812
S315080000E0453D0008493D00084D3D0008513D0008C2
S315080000F0553D0008593D00085D3D0008613D000872
S31508000100000000000000000000000000653D000837
S31508000110693D00086D3D0008713D0008753D000801
S31508000120793D00087D3D0008813D0008853D0008B1
S31508000130893D00088D3D0008000000000000000011
S31508000140913D0008953D0008993D00080000000013
S315080001500000000000000000000000000000000091
S3150800016000000000000000009D3D0008A13D0008B9
S31508000170A53D000800000000000000000000000087
S3150800018000000000A93D000800F00100704780B596
S31508000190DFF8E419887800F0CBFD012002BD0000E5
S315080001A02DE9F843DFF8D0698046B078FF280C4679
S315080001B058D1002CDFF8187A04D13868C2074CD514
S315080001C000BE4AE03421DFF8AC0900F0CFFD00207C
S315080001D0307006F1100000F051FF06F10C00B06017
S315080001E0701C00F0C8FF70607078401CB0F5807F06
S315080001F004DB3868C10730D500BE2EE00025DFF8DD
S315080002000C9A01E080476D1C7078421CE9B2D2B2A4
S31508000210914216D2814205D27068EBB224214B4333
S31508000220184404E0281AC0B2002805D14846002818
S315080002301CBF40680028E5D13868C1070DD500BE47
S315080002400BE086F802802146404600F09FFF002812
S3150800025005D13868C10700D500BE002003E0404636
S3150800026000F08EFF0120BDE8F2830000F8B50446D1
S315080002700025DFF89869DFF8007903E0C9682046A9
S3150800028088476D1C7878421CE9B2D2B2914213D2E3
S31508000290814205D27868EBB224214B43C11804E0A9
S315080002A0281AC0B2002802D131460029E6D100F04A
S315080002B05CFC14D500BEF1BDDFF8B84834212046F1
S315080002C000F054FDFF221021201D01F0F3FC04F17B
S315080002D01400BDE8F840FF22102101F0EBBCF1BD87
S315080002E080B5FFF7C3FFBDE8014001F07EBD000001
S315080002F07FB5DFF88458A878FF2817D17FBD9DF809
S315080003000110DFF8CC68DFF86C48491E072900F2AF
S31508000310B480DFE801F0041AAB949E2157A49DF837
S315080003200000FFF7DDFF9DF80400A0700020AC6810
S31508000330216888476946201D00F0EBFD06462168BE
S3150800034001208847002EDAD17FBD9DF80000FFF70F
S31508000350C7FF01F055FEE9E7287800282DD029784F
S315080003604A1E2A7028780028E0D1217841F0010138
S3150800037004F124002170027802F0FE02027001786E
S3150800038001F0FB010170427802F0FE0242704178EA
S3150800039001F0FB01417001A99DF8000000F080F80A
S315080003A00028C3D19DF80000002101F0E6FB9DF866
S315080003B00000802101F0E1FBB8E73068C1079DD550
S315080003C000BE7FBD9DF8041001F00F0004EB400449
S315080003D004EBD11212F8243F03F0FE03137092F8CF
S315080003E000C00CF0FB0C82F800C09DF80520029BAB
S315080003F020B99DF8000001F00BFD97E704EBD1103A
S3150800040090F814C06878844506D26868242414FBDA
S315080004100CFC00EB0C0406E0ACEB0000C0B20028B4
S3150800042008D1DFF86448002C04D09DF80000A469C0
S31508000430A0477BE73068C10700D500BE7FBD20789E
S31508000440C10705D52078C00800F0010001F0DBFDE2
S315080004506CE72078C107FBD501F0D7FD66E7019860
S315080004600028FBD00298019988475FE7E078C10722
S31508000470FBD5019801F0CDFD58E73068C107FBD5DB
S3150800048000BE53E770B50D4604466869164601F086
S31508000490B0FC6B6932462046BDE87040012118471A
S315080004A02DE9F84380460E46002001F0A2FC32787A
S315080004B0DFF81C57C2F34110022804DD2868C1077B
S315080004C040D500BE3EE009D1DFF83C0801F091FCBA
S315080004D032460121404601F0A3FD4DE0DFF898E6DB
S315080004E0DFF82817DEF80430DFF8887612F01F00E8
S315080004F04FF0240C05D0022800F0C680C0F09B807F
S315080005001DE1C2F34110012816D13079102819D2FD
S315080005103A1D105C9EF80120904204D21CFB00FC98
S3150800052003EB0C0102E0801AC0B258B951B1324649
S315080005304046FFF7A7FF1FE0002805D02868C10737
S3150800054000D500BE002017E07178387809296DD8E3
S31508000550DFE801F0605A6C536C054C6C141E30468B
S3150800056001F04AFC7188C9B2404600F062FE38784C
S3150800057040F0020038700120BDE8F28378788DF8E3
S31508000580000001236A463146404601F0F5FBF2E7D2
S3150800059074887978E2B2914223D0787868B10021DC
S315080005A0404600F038FE404601F092F997F802906E
S315080005B04046FFF75BFE87F802907C70E0B210B900
S315080005C001F01EFD0DE0E1B2404600F0BDF800283E
S315080005D005D178702968C807B4D500BEB2E701F01E
S315080005E00CFD3146404601F08CFBC4E731464046D7
S315080005F000F04EF90028BED1BEE771880129A1D1C5
S3150800060040F008003870ECE7718801299AD100F0AB
S31508000610F700F7E7410901F00101C0F3C00008B18E
S3150800062041F00201ADF800100223ABE72868C107C4
S3150800063000D500BE86E730791028FBD23A1D105C3B
S315080006409EF80120904204D21CFB00FC03EB0C012F
S3150800065003E0821AD2B2002AECD10029EAD0324647
S315080006604046FFF70FFF0028C5D13078C0F3411088
S31508000670002806D101F0BDFB71780A2902D00B29A2
S31508000680AFD05FE700207AE7B08800F00F04082CA7
S3150800069004D32868C10700D500BE53E707EB440416
S315080006A04FEA006904EBD97494F814909EF801E0B7
S315080006B00024F14504D21CFB09FC03EB0C0404E0FE
S315080006C0A9EB0E03DBB203B90C46C2F3411121B103
S315080006D0002CE2D0324621462AE77278110004D06F
S315080006E0012A18BF032A09D024E0C1B2404600F007
S315080006F0FFFA00B10120ADF8000095E7718841B90D
S31508000700012AC1B2404602D100F0D3FA01E000F056
S31508000710BDFA002C3FF42FAF324621464046FFF77C
S31508000720B1FE002001F065FB97F82500C1073FF5EB
S3150800073022AF56E72868C10700D500BE02E7286839
S31508000740C107FBD500BEFDE62DE9F84F8246481ED7
S31508000750C0B201F061FC0028DFF8745402D0417879
S31508000760022904D02868C10700D500BE8BE0DFF84F
S315080007700414C3790A78DFF894B4DFF8FC435B09FC
S3150800078002F0EF0203F0010342EA03120A7002F0D4
S31508000790DF02C3799B0903F0010342EA43120A7098
S315080007A000F10906418808440090009886426CD2F8
S315080007B070780B284FF0010903D196F8039030782A
S315080007C006447178042905D10098801BD046002775
S315080007D0824612E02868C10755D500BE53E01B695A
S315080007E01FFA8AF23146404698470146092903D33B
S315080007F01FFA8AF088421ADA7F1C6078421CF9B21E
S31508000800D2B2914234D2814205D26068FBB2242129
S315080008104B43034404E0381AC0B2002802D15B46B1
S31508000820002BDCD12868C1072DD500BE2BE0DFF8E8
S315080008304403C24600228846031D01E05F54521C49
S31508000840D1B249450CDAB1785118C9B213F801C0CA
S31508000850BCF1FF0FF2D02868C10714D500BE12E01C
S31508000860FBB242463146143001F0E9FC464400E04A
S31508000870C2466078401CFFB2C0B2874295D3296849
S31508000880C80700D500BE002000E00120BDE8F28FB1
S3150800089070B50D4604466888DFF83463010A0129F5
S315080008A00AD0022919D0032929D006292CD00729CC
S315080008B013D00F290CD032E001F0ACFB0246002A17
S315080008C004D13068C1072AD500BE28E0122320E0EB
S315080008D001F0A4FB002823D00EE00229C0B208D1FB
S315080008E001F09AFB002807D13068C10717D500BE6A
S315080008F015E001F0F3FD98B1811C0B8808E0A98882
S31508000900C0B201F0AEFB01E001F0EAFD40B10378A8
S31508000910024629462046BDE8704001F02DBA00205F
S3150800092070BD00002DE9FE4F04460D466078DFF8DD
S31508000930A062DFF8D872DFF84092DFF8D023801E75
S3150800094005284FF0240816D8DFE800F0031F0E1616
S31508000950A2A8117801F0FE0111700021107800F0AC
S31508000960FD00107051700BE01178C80706D5117894
S3150800097041F004011170CEE01078C10740F1E9801A
S31508000980107800F0FB001070C5E04FF0000A16E082
S31508000990AAEB0000C0B280B9384606E08142F7D219
S315080009A0D9F8040018FB01F1084400281CBF026AA4
S315080009B0002A02D06168207890470AF1010A99F85E
S315080009C00100421C5FFA8AF1D2B29142E6D3DFF8FF
S315080009D03C733878C0F3800080B397F800C00FF2F4
S315080009E038310CF0FB0C87F800C0684691E80C40DB
S315080009F080E80C402078D9F808808DF80000280097
S31508000A0003D1D8F8001000208847694608F1040089
S31508000A1000F09EFA8246280003D1D8F8001001207B
S31508000A208847BAF1000F04D13068C10706D500BE61
S31508000A3004E000F0A3F82A4601F054FDF878C00750
S31508000A4020D50FF2E02191E88C00684680E88C00FA
S31508000A5020788DF800006068D9F8084001902800D1
S31508000A6002D12168002088476946201D00F070FAE7
S31508000A700746280002D1216801208847002F04D1A3
S31508000A803068C10765D500BE63E000F077F85DE021
S31508000A9099F80000401C89F800003CE0217911F023
S31508000AA00F004FEAD11A36D002EB400B0BEB0A00C7
S31508000AB099F80120007D904206D2D9F8042018FB47
S31508000AC000F802EB080702E0801AC0B218BB002F34
S31508000AD01CBFF86900281ED00BEB0A0010F8242F5B
S31508000AE002F0FE0202700BEB0A0010F8243F03F036
S31508000AF0FB0303706279A3682078FF69B84740BB97
S31508000B000BEB0A0000F0CFF80BEB0A0010F8242FC5
S31508000B1042F0040202702800D9F8087002D1396838
S31508000B20002088472146381D00F012FA8046280022
S31508000B3002D1396801208847B8F1000F04D130681E
S31508000B40C10706D500BE04E0617820782A4601F080
S31508000B50C9FCBDE8F78FDFF8B81189780028084680
S31508000B6018BF00F00DBB00F010BB19480168CA0792
S31508000B70704700008C0B0020C40000209DF801106F
S31508000B809DF800007047000070B56148104E8478E3
S31508000B900D46A87800F00F00082804DB3068C10766
S31508000BA00DD500BE0BE0594B99780022284601F076
S31508000BB0FFFA002805D13068C10700D500BE00201D
S31508000BC070BD29462046BDE8704000F023BE0000EF
S31508000BD0F0ED00E038B500F00DF8BDE8344000212E
S31508000BE001F0BCBA38B500F005F8BDE8344000217C
S31508000BF001F0CDBA454A084600F00F0302EB43045C
S31508000C0004EBD01505F1240070470000703B00087E
S31508000C10F8B500F01CF80AD400F010F800F097FFB9
S31508000C2050B900F021F800D500BE0020F2BD3068AA
S31508000C30C107FAD500BEF8E70120F2BD281910F859
S31508000C40247F47F001070770314FB878704701F0E5
S31508000C500F002E4DCC0905EB400505EB04002D4E83
S31508000C6090F82470F8077047281910F8241F01F027
S31508000C70FE01017028192430027802F0FB02027086
S31508000C803068C10770470000703B000838B500F0AF
S31508000C9020F800F072FF00F022F842F002020A7013
S31508000CA000F001F831BD10F8241F41F00101017070
S31508000CB0704738B500F00DF800F07FFF00F00FF828
S31508000CC002F0FD020A7010F8241F01F0FE010170FF
S31508000CD031BD0F4A907801F00F04CD0970470B49D2
S31508000CE001EB4400431903F1240128440A787047AC
S31508000CF0064801F00F0200EB420303EBD11191F80D
S31508000D0024004008FFF740BA212000088C0B002079
S31508000D10C4000020F0ED00E000050000000000001F
S31508000D2000000000000300000000000000000000B2
S31508000D30704730B5016884684218416802EB510370
S31508000D40C90703D54C4401E0491C08D19A4218BF8B
S31508000D5012F9011B01D10C3030BD12F8015B0029D4
S31508000D6004F8015BF0D4491EF7D5EFE7002200F03E
S31508000D70A5BF30B548F20105AA4201DB002030BD07
S31508000D80039C016082800022C18863F30E01C18042
S31508000D90C17901F07F0141EAC411C1710021418185
S31508000DA00281012030BD521893B28B4203D391B20F
S31508000DB0B1EB400F03DB4FF6FE7110FB012290B238
S31508000DC0704738B50C469A422FBFD11A8188C3EBB3
S31508000DD04101511889B209B9002032BD85888D4272
S31508000DE007DAAA422CBF521BAA184281134600E012
S31508000DF05B1B99B2A942FBD2C1880068C1F30E01F8
S31508000E009BB20A464B43C118204601F06DFB0120F0
S31508000E1032BD2DE9F0410546069886B2B3422FBF8A
S31508000E201E1AAF88C0EB47069E19B4B20CB900204B
S31508000E303DE0AC88B7B2BC4206D2A3422CBF1B1B0E
S31508000E40E3186B8118462646B6B2964202D916466C
S31508000E5000E0001B83B2A342FBD2A4EB000CEC8893
S31508000E60079BA6EB0C0EC4F30E041EFB04F82246E1
S31508000E701FFA8CF72C6880B257435043BFB2204400
S31508000E80DBB29BB90C461FFA8CF1B14203D301467B
S31508000E907243204608E001463A46204601F024FB04
S31508000EA029681FFA88F2E01901F01EFB3046BDE8F2
S31508000EB0F081014648890A89898882422EBF101A1C
S31508000EC0C0EB4100101880B2884288BF08467047B8
S31508000ED0418902898388104688422EBF511AC1EB80
S31508000EE04301511889B299428041C043C00F7047E7
S31508000EF0014648890A89898882422EBF101AC0EBA2
S31508000F004100101880B28842B4BF081A002080B287
S31508000F10704738B5044663892289FFF752FF00F007
S31508000F2012F86081284632BD3EB504460025608920
S31508000F300195009020462389FFF76BFF00F003F820
S31508000F40608128463EBD61890546A0882A462AE76B
S31508000F5070B504460D462689FFF7BAFF10B1E07949
S31508000F60C00918D0A188304600E0401A82B28A42E9
S31508000F70FBD2E3882946256880B2C3F30E0358439B
S31508000F801A46284401F0B0FAA08801223146FFF734
S31508000F900AFF2081012070BD2DE9F843140008BF1F
S31508000FA0002068D0054688462F896B89E879AE887F
S31508000FB0F91AC00914D19F422EBF0B46C3EB46034C
S31508000FC0FB189BB2B342B4BFF31A002399B28C4202
S31508000FD003D31C46A0B200284CD0A98838461DE089
S31508000FE0B44208D3E888921BC0F30E0042439044EB
S31508000FF034461F46EEE79F423CBFC3EB46017918CD
S3150800100012FA81F0B0EB460FE7DB321B92B21946B3
S315080010103046FFF7C8FE0746DFE7401A83B28B4221
S31508001020FBD2EB88091AA4EB010C80B2C3F30E03BA
S315080010301CFB03F91A462B68504318448EB289B232
S31508001040A3B256439942B6B203D3A1B24A43414624
S3150800105008E03246414601F047FA28681FFA89F245
S3150800106008EB060101F040FAA888A2B23946FFF754
S315080010709AFE2881204680B2BDE8F283002141818C
S31508001080002202810120704710B504460A462189CC
S31508001090A088FFF788FE208110BD10B504460A46D1
S315080010A06189A088FFF77FFE608110BDF0B50389CE
S315080010B044898588A3422EBF1A1BC4EB45029A1899
S315080010C092B2954205DAAB422CBF5C1BEC18448100
S315080010D02A462AB9002008804A80486014E05B1B2B
S315080010E09FB2AF42FBD200F03EF89BB225449C4229
S315080010F04D6003DA14460022002003E08388006866
S315080011001C1B121B0C804A808860F0BDF0B5038951
S3150800111044898588A3422EBF1E1BC4EB45069E192B
S31508001120B6B2AE42B4BFAA1B002292B22AB90020B8
S3150800113008804A80486014E05B1B9FB2AF42FBD22E
S315080011409BB200F010F81D44A3424D6003DAE31A7F
S315080011500022002003E084880068E31AD21A0B8074
S315080011604A808860F0BD00E0641BA6B2AE42FBD29E
S315080011700568A4B270470021017000207047090471
S31508001180BFF34F8FBFF36F8F704770471CB5044688
S31508001190002002E000BF0098401C00900099C82972
S315080011A0F8D3DFF8E81A032008800022009203E04B
S315080011B000BF0098401C00900098C828F8D30A88F9
S315080011C04FF6FD7002400A800021009103E000BF3F
S315080011D00098401C00900098C828F8D3DFF8AC0A9D
S315080011E0018000220282002383800020DFF8A02AE3
S315080011F022F82010401C0828FAD3DFF8900A018844
S3150800120041F45D410180204600F018F8204601F0BF
S3150800121077F9012016BDDFF8742A21B1108840F449
S3150800122000701080704711884FF6FF5001401180FA
S31508001230704700230022802100F089BC70B5DFF8D2
S31508001240584ADFF8581A00202080FF220025002679
S3150800125001EB8003401C08281A705A709D70DE70D6
S31508001260F6D340220A840021002000F08DFA0021DE
S31508001270802000F089FADFF8280A402181818183DD
S31508001280857385770021402000F054FA0546002131
S31508001290402000F04FFADFF80C1ADFF8F4290D8128
S315080012A0088047F27000138803404FF4805583F492
S315080012B008538D8183F0200313808021218070BD1F
S315080012C00000000030B50446DFF8D80900EB04102A
S315080012D085B085890189C5F309052A4603A800F062
S315080012E0B5FCDFF8AC1931F8242040F68F700240BF
S315080012F042F0800221F82420082D0FD106218DF80E
S315080013000110002003A98DF80000D1E9002301A8E7
S315080013100121C0E9002300F0EDF908E000F02FFAFA
S3150800132000D500BEDFF880194FF48050088005B05C
S3150800133030BD00002DE9F04FDFF850598BB0044658
S31508001340A888049080050ED54FF6FF51A980002085
S3150800135029898DF80000C1F30A01032201918DF84D
S31508001360012000F0C6F90498410510D54FF6FF3064
S31508001370A8802046FFF762FF00208DF800000121B3
S315080013808DF804008DF8011000F0B4F9AEE1C1043F
S3150800139010D52A884FF6FB7002402A804FF6F7715F
S315080013A02B880B402B804EF6FF72AA800020052161
S315080013B000F0A3F9049801050ED5288840F0080026
S315080013C028804FF2FF72298841F004012980AA80FB
S315080013D00020042100F091F90498C10516D5DFF81C
S315080013E0B4281078012805D12B884FF6EF710B40E9
S315080013F02B8001E0002801D0401E10704FF6FF61D7
S31508001400A98003E04146104600F07BFAA88801044B
S3150800141040F16081B5F80480DFF87498DFF8841825
S3150800142008F00F0839F82800059001EB081205990D
S315080014300392080404D5080503D54046FFF742FF82
S3150800144004E139F8281040F68F70014041F0800118
S3150800145029F8281039F828A04AF4004040F0800AF4
S315080014600AF00F000AF4C0618DF80200B1F5806F2A
S315080014700CBF012400244FEA9A3000F001002040F6
S3150800148080F001000399DFF81828C00001448E880F
S315080014900399085AADF80000C6F309069DF802003C
S315080014A002EB4017786800286AD0002E0A906FD0A1
S315080014B006A9FFF72BFEBDF81800B346834588BF7B
S315080014C08346BDF81A10A6EB0B0080B2884288BF87
S315080014D00846ADF806004FF6FE7200EB0B0102EA6D
S315080014E00B02ADF80A10ADF808200798BDF80820D9
S315080014F0BDF80010099000F0A9FBBDF80010BDF872
S3150800150008004118ADF804105FEACB7158BF089B74
S3150800151029D5BDF804100222684600F097FBBDF8ED
S3150800152004000999BDF80820801CADF80400BDF830
S3150800153000008854BDF80000089BBDF80610000A94
S31508001540ADF8000001208AB25AB1BDF8002003F8B0
S31508001550012B491EBDF80020120A401EADF80020D6
S31508001560F1D1ADF80610BDF80620BDF804101846EE
S3150800157000F06CFBBDF80A100A98FFF785FD07E036
S3150800158038687B89BDF800103246184400F05EFBC7
S315080015907889301878814FF40041B88986422BD370
S315080015A07A893889824227D2002C1CD1024678894A
S315080015B0BB89121A92B29A4288BF1A463F2A104627
S315080015C003DB1F300122400902E0401C00224008CC
S315080015D0C0B2801A800240EAC23082B2002A08BF2E
S315080015E00846039988814BF68F7000EA0A0080F452
S315080015F0405A29F828A029E0B8893F28024603DB83
S315080016001F320120520902E0521C00205208D2B2B1
S31508001610121A920242EAC03290B200B90A460398F8
S315080016208281072279898DF8192000209DF80220E9
S315080016308DF8180008918DF81D008DF81C200121E1
S3150800164006A8FFF76FF9002078813881059801060A
S315080016503FD539F8281048F60F70014041F400418B
S3150800166029F8281039F82830DFF8340603F00F0176
S3150800167003F4C06400EB4110B4F5806F00F110026A
S3150800168013D1D07B002824D00024D4739B0903F0FF
S315080016900103039C83F0010304EBC304A088039CA5
S315080016A004EBC30300F47C40988053891089984260
S315080016B07FF4A8AE41F0800100228DF804108DF861
S315080016C00020072402938DF805208DF8014000F0CC
S315080016D010F89BE60498410408D5DFF8D00502689F
S315080016E0D10700D500BE4BF6FF70A8800BB0BDE849
S315080016F0F08F01216846FFF715B98DF800008DF8BF
S31508001700011068460121FFF70DB9087810F07F0F20
S3150800171004BF4878052806D14888DFF87C15C0B28A
S3150800172040F0800008804FF48050DFF87C25108058
S315080017307047000010B53F28024603DB1F32202001
S31508001740520902E0521C02205208DFF850351C8C60
S31508001750D2B212FB00F22046141919B1A1B240EA1E
S31508001760014014191C8440F20122198C914205D3B8
S3150800177000F005F800D500BE4FF6FF7010BDDFF883
S315080017802C050168CA077047F0B500F00F04C209B6
S315080017900B460020DFF80455AF1807EB800705EB6A
S315080017A08006B97831B17178994204BF15F82010CE
S315080017B0A14226D0012B14BF4FF0000C4FF0010CAC
S315080017C0B978A1B9BCF1000F06D082F001072F4401
S315080017D007EB8007B97851B915F82010FF2918BF0B
S315080017E0A14204D17178FF2918BF994203D0401C41
S315080017F00828D1DB07E005F8204032447370012140
S315080018009170C0B2F0BDFFF7BAFF00D500BE002048
S31508001810F0BD00002DE9F84F0C46A078E17800F0FD
S315080018200F09C60901F00301A788FFF7ADFF824635
S31508001830BAF1080FC7F30A07DFF8701404DB086863
S31508001840C10735D500BE33E0DFF84484DFF860040D
S3150800185038F82A2049F40045024045F0800515432A
S31508001860E27802F00302022A03D0032A1CD145F4C7
S31508001870C065DFF8300400EB0A1400213846FFF78C
S3150800188059FF86F0010B24F83B00DFF8140400EB3F
S31508001890491101EB0610878180F80EA0300014BFAD
S315080018A020204FF4005005E00868C10700D500BEA7
S315080018B000200BE04540002E14BF25F4E04525F036
S315080018C0700528F82A5000F0D5F80120BDE8F28FF7
S315080018D070B50121DFF8C443FF220026DFF8B053B4
S315080018E0002325F8213004EB8103491C08291A70C6
S315080018F05A709E70DE70F1D3FFF742FCC020208438
S3150800190070BD2DE9F34F054687B069892E89A889E8
S31508001910761AB6B2864288BF0646BDF820B0DFF80A
S31508001920700330F82B8048F4004040F0800808F433
S31508001930C060B0F5806F07D14FEA981000F001003B
S3150800194001244FEAC00901E00024A146D54800EB6E
S315080019500B1232F809A06868002864D00690300097
S3150800196067D0069803A9FFF7A1FBBDF80C00374618
S31508001970874288BF0746BDF80E10F01B80B2884222
S3150800198088BF0846ADF802004FF6FE72C1193A4004
S315080019900498ADF80A10ADF8082001900146BDF884
S315080019A00820504600F03CF9BDF808000599824425
S315080019B0F80758BF019129D50022019BBDF80800F8
S315080019C0ADF800201A5CBDF80200ADF800200191C0
S315080019D0012281B281B1019BBDF800105B1C019305
S315080019E0401E13F8017DD3009F403943ADF800101F
S315080019F0521C91B20129ECDDADF8020002226946BB
S31508001A001FFA8AF000F00CF90AF1020ABDF8022062
S31508001A1001991FFA8AF000F003F9BDF80A10069832
S31508001A20FFF73BFB05E0286801443246504600F0C4
S31508001A30F7F868899B4930186881BDF8200001EBE2
S31508001A40001000EB090248449188890A61F38F2641
S31508001A50868088F030020CB10121E97348F6BF7020
S31508001A608B4900EA020821F82B8000F003F809B038
S31508001A70BDE8F08F0020FFF783BB2DE9F0418848C9
S31508001A8000EB411101EB0210012A817B02D1FFF71D
S31508001A9038FF50E07E4A32F821404BF68F732340D8
S31508001AA08489008943F4004343F08003A04288BF39
S31508001AB0204600F11F046409451C03F4C067B7F506
S31508001AC0806F4FF4004609D13F28A7BF4FF0010C9D
S31508001AD0A6464FF0000C4FEA550E05E03F28AEBF6C
S31508001AE0012000206C081AE05FFA8EF7A7EB0C07B6
S31508001AF0BF0247EACC3E1FFA8EF7002F08BFB6464C
S31508001B00DFF8A08108EB01173F28A7F804E0AEBF6D
S31508001B10012000206C0800F011F8BC8105E000F0F7
S31508001B200DF8604D05EB0110848183F4405322F8CB
S31508001B302130FFF79FFF0120BDE8F081E4B2241AA7
S31508001B40A40244EAC034A0B200B934467047B0B51E
S31508001B5000F00AF82A6000226A606A812B810A4628
S31508001B602146BDE8B04088E701F00F044C4DC9098D
S31508001B7005EB441707EB0115704710B5C809484A25
S31508001B80434B00F046F8A27B33F8224044F4004465
S31508001B9044F0800404D048F6BF700440102004E0E6
S31508001BA04BF68F710C404FF48050444023F8224086
S31508001BB00020BDE81040FFF7E3BA38B5C809384A2F
S31508001BC000F027F8324AA17B32F8213043F400436B
S31508001BD043F0800307BF4FF440544FF48045302448
S31508001BE040252C4344F40F4444F08F04234003F467
S31508001BF0C064B4F5806F05D0002814BF20204FF4C8
S31508001C000050434022F821300020BDE83240FFF75B
S31508001C10B7BA01F00F0102EB411101EB001470474E
S31508001C2010B5130010D01F4C530804EB400403E012
S31508001C3031F8020B24F8040B1846431E0028F7D186
S31508001C40D00744BF09782180012010BD10B51300C4
S31508001C5019D0144C530804EB410403E034F8041B70
S31508001C6020F8021B19464B1E0029F7D112F0010273
S31508001C7009D0218802E000F8011B090A13465A1EFA
S31508001C809BB2002BF7D1012010BD0000405C00403C
S31508001C90005C0040200C00204C5C0040C00B00207B
S31508001CA0E8080020006000400C600040F0ED00E00D
S31508001CB07070FFFF62F30F2262F31F4200B500BF88
S31508001CC0130096469446103928BFA0E80C50FAD857
S31508001CD05FEA417C28BF0CC048BF40F8042BC907FF
S31508001CE028BF20F8022B48BF00F8012B00BD0000D2
S31508001CF00978C90981F0010100230022C901FEF70C
S31508001D0087BFF8B504466E4E0D463046082200F0E9
S31508001D10EBFB0027B760F76029462046BDE8F4408C
S31508001D20E6E7F8B5664EB4890546F089241AA4B2E2
S31508001D30402C88BF402430780027C0090ED0802761
S31508001D4084B12200B1680AD009B1412A01D3002022
S31508001D50F2BD06F1140000F0C7FB00E014B106F16D
S31508001D60140200E0002223463946284601B0BDE8A1
S31508001D70F040FEF74DBF00002DE9F84380461446B3
S31508001D804F4D0E461F462846082200F0ADFBAC60B4
S31508001D904FF00009A5F80E90F088874288BF0746DD
S31508001DA0AF81F088474D88B137B1002C04D1286837
S31508001DB0C10715D500BE13E04046FFF7B2FF00285D
S31508001DC010D12868C1070BD500BE09E03146404648
S31508001DD0FFF78EFF002805D12868C10700D500BE89
S31508001DE0002000E00120BDE8F28314213448FEF704
S31508001DF0BDBF33490861704738B50146304C2046A7
S31508001E00082200F071FB0025A560E56031BD0000E1
S31508001E10F8B52B4E2B4F05463078C009C9098142C3
S31508001E201C4612D0002C04D03868C10745D500BE20
S31508001E3043E031462846FFF768FC33691BB1324652
S31508001E400321284698470120F2BD30B9B068A0B3EF
S31508001E50224606F1140100F047FBF089B168F288C2
S31508001E602018F081214480B28242B16001D0402C12
S31508001E701AD2336923B1324602212846984750B10F
S31508001E8031462846FFF734FF0028DCD13868C107F9
S31508001E9013D500BE11E000212846FFF76EFE80210B
S31508001EA02846FFF76AFECEE72846FFF73AFF0028DE
S31508001EB0C9D13868C10700D500BE0020F2BD0000B0
S31508001EC0A80A0020F0ED00E080B500F01CF800F04C
S31508001ED018FB00BF4EA10020FEF762F900F037FBA1
S31508001EE0B0F5FA6F05D2BDE802404FF4FA6000F08B
S31508001EF02BBB01BD80B5FEF74AF900F004F8BDE832
S31508001F00024000F029BB304830490160704732B5BD
S31508001F10402905462E4C03DB8D21204600F01DFB8B
S31508001F2001226946002000F038FB012803D09121E0
S31508001F30204600F012FB9DF800202946002000F0FC
S31508001F402CFB9DF80010884203D09421204600F00F
S31508001F5004FB002000F029FB31BD70B505460E468E
S31508001F600020FFF7E7F900214FF0FF30FEF7C0F930
S31508001F70184C607870B9201D00F02EF8012807D19A
S31508001F80207928B1402803DA0120002160702170E9
S31508001F90002070BD2178601D084400F01DF8012856
S31508001FA0F6D122782179521CD0B288422270EFD11C
S31508001FB0D2B2611D284600F015FC00202178607019
S31508001FC03170012070BD0000E0000020005C004078
S31508001FD0B03A0008480B002038B50446002000F047
S31508001FE0CDFA002538B101222146002000F0CDFAAD
S31508001FF0012808BF0125284632BD012000F012BC81
S31508002000002000F00FBC00F029BC00F028BC00003E
S315080020100100704744A0704748A070473E48704783
S315080020201CB50129144601D0012016BD2178C1F33B
S315080020304111022901BF61780129A18807290ED11A
S31508002040364A02F108010B788DF800304B788DF886
S3150800205001302146BDF80030FFF78EFE16BD002080
S3150800206016BDF8B52E4C217884B0002239BB2D490F
S315080020700B68019301234D680295896803912370C3
S31508002080002101AD6D5C2E0905F00F058DF8015094
S315080020908DF8006000251DF805600A2E34BF30361D
S315080020A03736271DD3B2521C6D1CFE54022DF2D3AF
S315080020B0491C0C29E5D3231DD2B2002199540100ED
S315080020C008D1206E027804F122010A7042784A701B
S315080020D0022019E0042828BF00201BD204F1600161
S315080020E051F82050284600F0C1FBC0B22028A8BFEE
S315080020F01F20002104F1220303E06A5C23F8112063
S31508002100491C8142F9DB4000801C40F44070208461
S3150800211004F1200005B0F0BD4C3B00085C3900080E
S3150800212054000020ACF7FF1F120101020000004016
S31508002130501DAC60000101020301000009022000E5
S31508002140010100804B0904000002FF00000007059A
S315080021500102400000070581024000000146087898
S31508002160C20712D40878C0F3800070B90878C2078D
S315080021700BD40878800800F0010090F0010003D025
S315080021800B7843F004030B70704700207047014634
S315080021900878C0F3800000281EBF087800F0010008
S315080021A090F0010003D00B7803F0FB030B70704727
S315080021B070B5C6788388DFF8004306F00306012E5B
S315080021C0C3F30A034FF4806504D036D3032E2BD00D
S315080021D00BD332E0022918BF40F2FF359D4214D2D4
S315080021E02068C10729D500BE27E0022907D1B3F523
S315080021F0007F0AD02068C1071FD500BE1DE032B196
S31508002200B3F5007F03D140218180012070BD082BE2
S3150800221018BF102BF9D0202B18BF402BF5D02068FB
S31508002220C1070AD500BE08E0022918BF40259D420D
S31508002230EBD22068C10700D500BE002070BD70B57E
S315080022400A440BE04C78052C06D18C7804F00F056F
S3150800225000EB4506E40933550C7821449142F1D345
S3150800226070BDF8B505462F780698079A089E099C0A
S3150800227007F0FE073943297000930146012392B2FD
S3150800228005F10800FEF775FD6E606C800120F2BD51
S315080022900120704770B50D460446287881074CBF63
S315080022A040F2FF113F212B8A6E8AB34219D1C2B17F
S315080022B00A4216D1C20714D469782046FEF78AFC6A
S315080022C000280ED02878C10707D469780023002291
S315080022D02046FEF79DFC002805D100F03AF800D507
S315080022E000BE002070BD012070BD000070B5044618
S315080022F00D4605F10800FEF7DCFD48B32878C1074E
S3150800230025D469782046FEF765FC00B36A886968B3
S3150800231005F10800FEF708FE06462878002E10D0BC
S31508002320C00707D46A68697833462046FEF770FC0A
S31508002330002804D100F00DF809D500BE07E03046A4
S3150800234070BDC00703D469782046FEF74BFC002011
S3150800235070BD59480168CA0770470000F8B51C00E7
S3150800236005460E46174625D0B08928BB3178CA07D8
S3150800237020D471782846FEF72DFCD8B1708884429F
S3150800238088BF044670682246394600F0ADF83078B2
S31508002390C1070BD4A0B2002814BF72680022717856
S315080023A0A3B22846FEF734FC00281FD1FFF7D1FF59
S315080023B000D500BE0020F2BDA2B2394606F10800DB
S315080023C0FEF7EAFD0446307881074CBF4FF40077E4
S315080023D0402706F10800FEF76CFDB84202D2B08924
S315080023E0B84203D231462846FFF780FF2046F2BDA1
S315080023F02DE9F0410D468046A8892F4EE8B929787F
S31508002400CA0756D469784046FEF7E4FB002850D040
S3150800241028786B88C10709D4180014BF6A68002297
S3150800242069784046FEF7F4FB002804D13068C107F6
S315080024303FD500BE3DE068883CE0287881074CBF60
S315080024404FF40074402405F10800FEF751FDA04240
S315080024502FD32878C1072CD469784046FEF7BAFBF3
S3150800246038B305F10800FEF743FD2978A042074670
S3150800247019D36A88601E8743974288BF1746C907DB
S315080024800AD4380014BF6A68002269783B46404679
S31508002490FEF7BEFB002804D13068C10709D500BE87
S315080024A007E0384606E0C80703D469784046FEF7D1
S315080024B099FB0020BDE8F081F0ED00E070B50D460F
S315080024C0044611469AB205F10800FEF72DFD0646A8
S315080024D029462046FFF78CFF304670BD002070471E
S315080024E000207047704700004AB1000011F8013B10
S315080024F0521E00F8013B1CBF11F8013BF8E7704774
S315080025007047704710B5134C0120207000F017FA79
S315080025106060BDE8104010B500F076FA012812D0C8
S315080025200C4C207801280ED100F009FAA2686168DF
S315080025308A1802F5FA72904205D300202070BDE889
S31508002540104000F02FB910BD024988607047014855
S3150800255080687047E40B0020704780B500F05EFA8B
S31508002560FCE7000008B100207047884991F8590037
S31508002570002806BF4879002801207047002804BFB4
S315080025808348FEF796BC00207047134608B1002022
S3150800259070470A467F49FFF791BF08B10020704788
S315080025A093B20A467C49FFF7D9BE002804BF7A4988
S315080025B0FFF79CBE002070471FB5744CAC2120461F
S315080025C0FEF7D4FB402204F1AC0304F16C0103923C
S315080025D002930192009100230022002104F1580081
S315080025E0FFF73FFE402004F1EC0104F118030390C5
S315080025F0029101900093012200230021201DFFF77C
S3150800260030FE1FBD10B5614C04F15800FFF740FEBF
S31508002610201DFFF73DFE012010BD10B55B4C0121C2
S315080026202046FEF7A3FB04F16000FEF727FD002015
S3150800263084F8590004F10C00FEF720FD00206071B3
S3150800264010BD00002DE9F8430D4681466879FF283C
S31508002650904657D129786E180020FFF783FF002887
S3150800266050D14A4FA8783870A84407F1580416E0A4
S31508002670B078C0092CD0787978B9B078787100F03C
S3150800268047F814BF00200220397901F0FD010843FC
S315080026903871391D4846FFF729FE30780644464505
S315080026A032D23178314488452ED37078042818BF41
S315080026B00B2829D00528F0D131464846FEF764FA9A
S315080026C00028D5D135480168CA071BD500BE19E0D0
S315080026D060780028E1D1B078607000F019F80CBF76
S315080026E002200020217801F0FD01084320702146D0
S315080026F04846FFF77DFE0028CFD128480168CA075B
S3150800270000D500BE002001E0751BA8B2BDE8F28323
S31508002710B188C1F30A01B1F5007F704770B51B4E49
S3150800272096F85920044670791D46914218BF814291
S3150800273001D0002070BD914215D106F15C010889CF
S3150800274028B10968AAB206F16000FEF725FCAAB20C
S3150800275006F1AC01002000F063F906F158012046A5
S31508002760FFF746FE0FE081420DD1A9B2002000F026
S3150800277058F9311D2046FFF7B9FD20B92A46311D03
S315080027802046FFF787FD012070BD0000BC0700202A
S315080027901C08002014080020C0070020F0ED00E007
S315080027A000F040B910B500F047F9A8B100F02CF8D0
S315080027B090B100F0F8F800F05DF900F091F800F03B
S315080027C03DF90649064A0840106000F037F950F806
S315080027D0044F00F029F9A04710BD000080FFFF1F35
S315080027E008ED00E070B504460D46164605E015F8F6
S315080027F0010B04F8010B00F011F93046461E80B2B1
S315080028000028F4D170BD000080B505480068C107EE
S3150800281001D5002002BD00F05EF9012002BD0000CE
S3150800282010000048012800D1704700B585B04FF464
S315080028308050012100900191002203230292039304
S3150800284069464FF0904000F051F900224FF480514C
S315080028504FF0904000F016FA05B000BD704770477B
S31508002860642000F01DB900F01EB9000000F1010354
S3150800287010F8011B11B110F8011BFBE7C01A7047CD
S3150800288018B53348334B816941F00101816181698B
S3150800289001F001010091009A02682F490968C2F304
S315080028A002229A5C0068D14010F4E06F0CBF012048
S315080028B002204FF0804241430123284813604FF617
S315080028C0FF74B1FBF0F0D462401E9062002150699B
S315080028D040F00100506122484160526A028011BDF1
S315080028E02048016841F0010101600023026852088E
S315080028F0520002600022C16849084900C1600021EF
S3150800290019480160426083604FF0007017490860FB
S3150800291070471748124900680A88801A80B26428E6
S3150800292000D2704710B564234C68B0FBF3F36420FB
S3150800293014FA83F443434C609818088010BD80B598
S3150800294000E080B5FFF7E5FF0548406802BD0000D6
S31508002950041002407C3C000850000020A0860100BC
S31508002960180C00201010024010E000E004ED00E012
S315080029702400004080B500F099F9FFF7A5FA21492F
S315080029800320087001BD1CB51E4C6946201DFFF7C3
S31508002990E4FA012806D103202070201D9DF80010B6
S315080029A000F09CF913BDFFF7A5BA80B5154A137850
S315080029B0032B04BFC9B2FFF7AAFABDE8014000F02D
S315080029C087B900000F490878042808D8DFE800F01E
S315080029D005050307050008207047812070473F203A
S315080029E07047000007490878042808D8DFE800F08F
S315080029F005050307050008207047812070473F201A
S31508002A00704700000000002010B500F05BF90024B4
S31508002A1000B10124204610BDFFF722BFFFF723BFF0
S31508002A207047704772B6704762B6704700F09CBA36
S31508002A3000F0A1BA00F0BABA00F00FBB00F037BB3D
S31508002A4080B500F0ECFA18B1BDE8014000F01ABBF9
S31508002A5002BD000080B51048016841F01001016010
S31508002A60032000F0C6FB002000F006FC00F080FC06
S31508002A70002002BD80B509484FF0FF3141600022B1
S31508002A804260016000230360C1610021C16100F05A
S31508002A90B7FC002002BD0000002002400C100240D6
S31508002AA00F494880704710B5FFF749FF0C4C61681D
S31508002AB088420FD320780B494FF48072002807BF4D
S31508002AC001200A6000200A612070FFF738FF61883C
S31508002AD04018606010BD04494FF480700860704764
S31508002AE0100C002018100048281000482DE9F84F4F
S31508002AF00027674CDFF89C814FF00F0902460B460A
S31508002B002EE0654EB24214BF4FF0050E4FF0040E8C
S31508002B100EFA01F141EA050E604941F82CE0C64378
S31508002B20A1685D683140ED0248BF0143A160E168D4
S31508002B305D683140AD0248BF0143E16061685D6888
S31508002B403140AD0348BF01436160216806EA010CC4
S31508002B505968C90348BF40EA0C0CC4F800C07F1C7A
S31508002B60186830FA07F100F08B800121B940084057
S31508002B70F5D04FEA470C032505FA0CF56FEA050E62
S31508002B805D6805F00306012E1CBF05F00305022D3E
S31508002B9010D19568DE680EEA050506FA0CF6354387
S31508002BA09560556825EA01015D68C5F30015BD40C5
S31508002BB029435160B9001D7905F00305032D1ED080
S31508002BC0D5689E680EEA050506FA0CF63543D56003
S31508002BD01D7905F00305022D11D1FD0802EB8505C7
S31508002BE001F01C06D5F820B009FA06FA2BEA0A0BFA
S31508002BF0D3F810A00AFA06F646EA0B062E621568FE
S31508002C000EEA05061D7905F0030505FA0CF545EAF1
S31508002C10060CC2F800C05D6815F4403F9FD0D8F88E
S31508002C2000C01E4D4CF0010CC8F800C04FEA970CC6
S31508002C30D8F800E00EF0010ECDF800E001F00C0126
S31508002C40DDF800E055F82C5009FA01F6B543B2F163
S31508002C50904F08BF4FF0000E11D0114EB24208BF78
S31508002C604FF0010E0BD00F4EB24208BF4FF0020EC6
S31508002C7005D00D4EB2427FF444AF4FF0030E47E73E
S31508002C80BDE8F18F0AB18161704781627047000023
S31508002C9000040140181002400010004808000140D6
S31508002CA00004004800080048000C0048A14800F14C
S31508002CB03F01443000220A704260CA7002808A705E
S31508002CC04A7070479B4890F83F0000B10120704752
S31508002CD09849002081F84200704700002DE9F84322
S31508002CE00746FF253878934EFF2806F1440406F177
S31508002CF03F081BD10020012188F8010088F8001040
S31508002D00357010227270B070FFF75CFEF070FFF736
S31508002D1069FE3071FFF766FE000A70710120B07116
S31508002D20F07108202080FFF781FEA9E098F80010CE
S31508002D30012940F0B980C92806F1010900F081800F
S31508002D40CC2800F0E380CF2800F0DD80D02800F002
S31508002D508B80D12800F0CD80D22800F0BE80F128E3
S31508002D6000F0D680F32834D0F42817D0F5280AD0F6
S31508002D70F6282BD0FA2845D0FC284FD0FD284FD06E
S31508002D80FE2857D0C6E0FFF71DFE7978401E884218
S31508002D9001DA22206FE00A4661680CE0FFF712FEAE
S31508002DA07978401E884201DA222064E000F0B7F8FC
S31508002DB0014661607A784846FFF714FD3570606809
S31508002DC07978411861607878401C58E000F0A6F8D8
S31508002DD047E000F0A3F865680646002704E015F802
S31508002DE0010B3F18FFF71AFE3046461E0028F6D19B
S31508002DF0504E01207070311DF8B200F0A9F800207D
S31508002E00708009E03570002155A06060717071808E
S31508002E100720311D00F09CF8082030E000202AE049
S31508002E20357000207070F070B080062098F8011098
S31508002E30B17024E0002088F8000088F80100357099
S31508002E4010E0FFF7BFFD411E60687A1CFFF7F0FD32
S31508002E5008B931200FE03570FFF7B4FD6168401EF0
S31508002E604018606001200AE0FFF7ACFD7978801E03
S31508002E7088421BDA222000F054F8B4F900002080BA
S31508002E8098F80300012804BF102000F04AF8B4F9A6
S31508002E900000002808DD012288F8032081B23046A8
S31508002EA0BDE8F443FFF781BDBDE8F1833570012124
S31508002EB02180787828B9FFF7C3FD0028DDD13120B5
S31508002EC0D9E701466068BA1CFFF7B2FD0028F6D0BC
S31508002ED06068797841186160CFE7357000207070B6
S31508002EE0B070FFF76FFDF0700020B080B07107205A
S31508002EF0C5E700F014F801466068FFF79BFD002857
S31508002F009DD13120B7E7FFF74DFC98E73120B2E7AE
S31508002F102020B0E7202000F004F8AEE73570381D11
S31508002F200AE004494870FE2202200A70A1F844000B
S31508002F3070470000FC0A0020014608784A788B781A
S31508002F40C97840EA022040EA034040EA0160704737
S31508002F500870020A030C000E4A708B70C87070471E
S31508002F604F70656E424C54006749684A4FF0FF300F
S31508002F7008601060704738B50B4665490C1A5D1E27
S31508002F80AC4224BF634CA04203D31D186D1E8D426C
S31508002F9001D9002032BD410A4902A14201460CBFAF
S31508002FA05A48594801B0BDE83040B7E07FB500231C
S31508002FB000930124564B1A1A4D1EAA4221BFC20A73
S31508002FC0D202544EB24203D30818411E994201D97F
S31508002FD0002022E0801A45012D0C40051CBF6D1CFF
S31508002FE0ADB2002101910292039400F08CFA0026FA
S31508002FF004E0029800F500600290761CB0B2A84280
S3150800300008DAFFF70BFD694601A800F0E9FA00287F
S31508003010EFD0002400F087FA204604B070BD80B5D2
S315080030203A4B186810F1010F01D1012002BD5A6808
S315080030309868D968821818698A1859698218986927
S315080030408A18D96982188A18D243521C0092042118
S315080030506A463148FFF78FFF02BD2E4B1A6858683B
S3150800306099688218D8688A181969821858698A1856
S315080030709969294B821818688A188218501E804147
S31508003080C00F704780B52148016811F1010F02D0C1
S3150800309000F07EF838B11C48016811F1010F04D020
S315080030A000F076F808B9002002BD012002BD1948D3
S315080030B0704780B5CA0501D0002002BD02688A4261
S315080030C005D040F8041B4FF40072FFF78BFB012074
S315080030D002BD38B504460D4884420D4606D10A4C51
S315080030E029462046FFF7E5FF58B932BD09498D4202
S315080030F008BF0446F4D0204600F04AF80028EFD16D
S3150800310032BD204632BD0000B4030020B8050020B9
S31508003110FFFF030800400008884100082DE9F04138
S3150800312004460E462068770A10F1010F90461D46A0
S3150800313004D179022046FFF7BCFF20B32068B0EB24
S31508003140472F05D079022046FFF7C3FF04001AD09F
S315080031502068361AA019061DFFF760FC201D301AD4
S31508003160B0F5007F08D3216801F500712046FFF706
S31508003170B0FF040007D0261D18F8010B06F8010B4E
S315080031806D1EE9D101E0002000E00120BDE8F081D4
S315080031902DE9F041804600F0B6F90126002708EB34
S315080031A08700D8F800504468FFF738FC05EB870518
S315080031B0224600232946022000F06AF930B9286819
S315080031C0A04203D17F1C802FE9D300E0002600F03F
S315080031D0AAF93046BDE8F0810901020002D4214867
S315080031E081547047204B02F00F021A4402F8041C5F
S315080031F070471E490A6860F30A2240F2FA5060F3E3
S315080032001F420A60704770B5184B1C68C4F3022346
S315080032100124C3F10705052D2EBF0F2504FA05F570
S315080032206D1E1E1D072E34BF0023DB1E2940994044
S3150800323004FA03F3BDE870405B1E1A401143CBE75E
S31508003240401EB0F1807F01D3012070470849094A22
S3150800325048600023F02010708B600720086000206B
S315080032607047000000E400E018ED00E00CED00E017
S3150800327010E000E023ED00E038B50D4D0D4B2A783F
S3150800328004464FF47A711868B1FBF2F2B0FBF2F01B
S31508003290FFF7D6FF50B9102C08D2002221464FF06E
S315080032A0FF30FFF7B0FFAC60002032BD012032BD11
S315080032B044000020500000206B4981B00A68024390
S315080032C00A60096808400090009801B0704710B578
S315080032D0FFF7C0FB65480168022464F30201016038
S315080032E0006800F00700022803D066216048FFF74F
S315080032F034F96048016841F480210160026842F4AB
S315080033008032026001688903FCD5426822F474128F
S3150800331042F4E8124260C16A09090901C1620268F9
S3150800332042F08072026001688901FCD50421426876
S3150800333022F0F0024260426861F30A224260416864
S3150800334021F460514160416864F3010141604168BC
S3150800335001F00C010829FAD1416821F48001416085
S31508003360454800F0A7F900F0ABF900F0B8F9FCE71A
S3150800337030B5424C424D87B0216841F001012160C9
S31508003380206800F0010006904FF480000699FFF7C8
S3150800339093FF4FF40030FFF78FFF4FF40010FFF74D
S315080033A08BFF606840F4000060600121606800F4EB
S315080033B0000006900022069801914FF4807402924C
S315080033C00392049200946946284600F0E9F9AC6233
S315080033D001200021009001910222049200F052F887
S315080033E0022101914FF4C0500021039104910090ED
S315080033F00E2103220591029200F044F807B030BD71
S3150800340080B586B018210022684600F045FA4FF4C8
S315080034100030FFF751FF4FF090414FF4805088621B
S31508003420002100900122029103910491019200F07B
S3150800343029F800F03BFA12484FF48071816200F0D7
S3150800344059F90948816821F400018160026822F46B
S3150800345000120260016821F4800101604268520886
S315080034605200426007B000BD14100240002002401E
S31508003470583A00080010024000A24A0418100240F8
S315080034800010004869464FF0904000F089B970472F
S315080034902DE9F84F4C4E0746307E8B461446994622
S315080034A0012808BF02202CD0012030764CF2503A71
S315080034B0504600F04BF8010021D1012F08BF012129
S315080034C003D0022F0CBF0221042100253F4F884656
S315080034D000E06D1C454512DA204649462A0100F0EF
S315080034E02DFA81B20BEB450000F025F8504600F0A6
S315080034F02DF839684908490002003960E9D00021E9
S315080035003176BDE8F28F3349CA680020130600D425
S31508003510704710B5304A314C0A600C60C9680A0613
S3150800352048BF012010BD2948016841F08001FFE726
S3150800353001600020704710B5234B0022DA61234A48
S31508003540146844F001041460018010BD70B5044687
S31508003550FFF7F7F905461E4E3068C1070AD514F17C
S31508003560010FF9D024B1FFF7ECF9401B8442F3D2DE
S31508003570032070BD3068810644BF20203060316862
S31508003580C80602D43168480703D500F004F80120BC
S3150800359070BD002070BD10B50D4A0B491368002098
S315080035A0DC0604D5C86940F00200C861102013681B
S315080035B05C0705D5CB6943F00103CB6140F00400F5
S315080035C0106010BD00000000F00B00201020024023
S315080035D00C2002400420024023016745AB89EFCD49
S315080035E02DE9F047DFF8C4700446387E0126884680
S315080035F0012808BF02203AD03E764CF2503920689E
S31508003600DFF8AC50012848460DD1FFF79FFF58BB9D
S3150800361000F02FF84846FFF799FF0646286820F07D
S315080036200400286020E0FFF791FFE8B94FF0FF306B
S31508003630C8F80000D4F804A001E00AF5006AA068FA
S31508003640616801EBC0218A450ED2504600F01EF88B
S315080036504846FFF77BFF0646286820F0020031003F
S315080036602860EAD0C8F800A0002038763046BDE8C1
S31508003670F0870E490020C8610D48026842F004022E
S315080036800260016841F0400101607047074A002165
S31508003690D16107490B6843F002030B60486008686C
S315080036A040F040000860704700000000F00B002062
S315080036B010200240014908607047000050000020B1
S315080036C080B5FFF76DF8FFF7A7F9FFF7D9F8FFF709
S315080036D0ADF9FFF74FF9BDE80140FEF713BF80B516
S315080036E0FFF79CF9FFF715F9FFF74DF9BDE801401B
S315080036F0FEF711BF10B50021B0F1904F224A07D14D
S31508003700106840F400301060146824F400342AE08D
S315080037101E4B984207D1106840F480201060146848
S3150800372024F480241FE01A4B984207D1106840F40D
S3150800373000201060146824F4002414E0154B984205
S3150800374007D1106840F480101060146824F48014BF
S3150800375009E0114B984208D1106840F40010106037
S31508003760146824F4001414600CE00C4B984208D139
S31508003770106840F480001060136823F48003136017
S3150800378000E00121084610BD281002400004004848
S3150800379000080048000C00480010004800140048C3
S315080037A02DE9F0410246086890FAA0F0B0FA80F3D5
S315080037B00F246AE0000A90FAA0F0B0FA80F0D2F876
S315080037C024E0800004FA00F52EEA05050CFA00F05C
S315080037D040EA050CC2F824C04FE001209840284072
S315080037E052D090FAA0F5B5FA85F56E000327B740D2
S315080037F0D1F804C0FF43BCF1010F18BFBCF1020F9A
S3150800380019D1D1F808C0D2F808E007EA0E0E0CFA6A
S3150800381006FC4CEA0E0CC2F808C0D1F80080D2F8B3
S3150800382004C0D1F80CE02CEA080C0EFB08F848EAAC
S315080038300C08C2F80480D1F810C0D2F80CE007EAE8
S315080038400E0E0CFA06FC4CEA0E0CC2F80CC0D1F8A7
S3150800385004C0BCF1020F10D1D1F814C0082DA9D2AA
S31508003860D2F820E0A80004FA00F52EEA05050CFABD
S3150800387000F040EA050CC2F820C0486815682F40D9
S3150800388000FA06F63E4316605B1C0D6835FA03F02F
S31508003890A3D1BDE8F08100004018491C1CBFB1F156
S315080038A0010100F8012DF9D170470000DFF88010FA
S315080038B081B0086840F00100086008688007FCD5F8
S315080038C010200A6860F3C7020A604FF0FF330093BE
S315080038D0009ADFF8600002400092009A4A60486841
S315080038E010F00C0FFBD108680090009ADFF848002A
S315080038F002400092009A0A600868400EC007FBD48E
S3150800390000200A6822F480220A6048600022CA62FF
S3150800391000230B634FF41F0000900020009A8A6072
S3150800392088604A6A42F080724A6201B070470000B5
S31508003930001002400CC0FFF8FFFFF6FED2B2203A94
S3150800394022BF21FA02F0002170472032D141D0402F
S3150800395048409140D1404840704700000A000000A6
S31508003960000003069E001400030057494E555342B3
S3150800397000000000000000000000800004000100B4
S315080039802800440065007600690063006500490068
S315080039906E007400650072006600610063006500D1
S315080039A0470055004900440000004E007B003800DF
S315080039B030003700390039003900430033002D0044
S315080039C045003400450030002D0034003000450025
S315080039D041002D0038003100380038002D00340031
S315080039E03800450038003500320042003500340002
S315080039F04600320042007D000000000000B587B096
S31508003A001821002201A8FFF747FF1148016841F471
S31508003A10700101604FF090410E48026842F400328E
S31508003A2002600122006800F40030009000984FF40C
S31508003A3080508862002101900391049105910292B9
S31508003A4001A94FF09040FFF7ABFE07B000BD00009C
S31508003A5088ED00E014100240433A5C576F726B5CC5
S31508003A60736F6674776172655C4F70656E424C540D
S31508003A705C5461726765745C44656D6F5C41524D58
S31508003A80434D345F53544D333246335F4469736351
S31508003A906F766572795F4633303356435F494152D4
S31508003AA05C426F6F745C6D61696E2E630000000086
S31508003AB0433A5C576F726B5C736F667477617265B5
S31508003AC05C4F70656E424C545C5461726765745CF9
S31508003AD0536F757263655C41524D434D345F535461
S31508003AE04D333246335C7573622E630030B400255D
S31508003AF012E050F8042BD30744BF4A44521E091F4C
S31508003B00042942F8045BFAD213468C0744BF158091
S31508003B109B1CC90748BF1D7050F8041B0029E8D133
S31508003B2030BC704710B5074979441831064C7C44B7
S31508003B30163404E00A68081D114488470146A14264
S31508003B40F8D110BDC4000000E0000000050F2100F8
S31508003B50011C100500DF60DDD88945C74C9CD2657D
S31508003B609D9E648A9F000003069E000100000000D7
S31508003B7000000000B9250008052600081B260008D5
S31508003B8045260008212000081D270008000000001F
S31508003B90000000004EF68851CEF20001086840F495
S31508003BA070000860BFF34F8FBFF36F8F4FF001703F
S31508003BB0E1EE100A7047000000F00FF8002801D067
S31508003BC0FFF7B0FFAFF300800020AFF30080AFF33C
S31508003BD00080FFF77CFB00F002F80120704700F038
S31508003BE001B8000000F000F80746384600F002F871
S31508003BF0FBE7000080B5AFF30080024A11001820E9
S31508003C00ABBEFBE726000200E5FEFFFF440B000003
S31508003C10E0000020000000001BD1FFFF900100001B
S31508003C2090000000000000204EF6A550CFF6F56083
S31508003C30014603B4684680F30988AFF30080FFF7AE
S31508003C40A9FFFFF7B9FF000057696E555342204296
S31508003C50756C6B2044657669636500004F70656E08
S31508003C60424C542055736572000000000148804795
S31508003C7001480047FD390008293C000800000000FB
S31508003C8001020304FFF7FEBFFFF7FEBFFFF7FEBF03
S31508003C90FFF7FEBFFFF7FEBFFFF7FEBFFFF7FEBF4A
S31508003CA0FFF7FEBFFFF7FEBFFFF7FEBFFFF7FEBF3A
S31508003CB0FFF7FEBFFFF7FEBFFFF7FEBFFFF7FEBF2A
S31508003CC0FFF7FEBFFFF7FEBFFFF7FEBFFFF7FEBF1A
S31508003CD0FFF7FEBFFFF7FEBFFFF7FEBFFFF7FEBF0A
S31508003CE0FFF7FEBFFFF7FEBFFFF7FEBFFFF7FEBFFA
S31508003CF0FFF7FEBFFFF7FEBFFFF7FEBFFFF7FEBFEA
S31508003D00FFF7FEBFFFF7FEBFFFF7FEBFFFF7FEBFD9
S31508003D10FFF7FEBFFFF7FEBFFFF7FEBFFFF7FEBFC9
S31508003D20FFF7FEBFFFF7FEBFFFF7FEBFFFF7FEBFB9
S31508003D30FFF7FEBFFFF7FEBFFFF7FEBFFFF7FEBFA9
S31508003D40FFF7FEBFFFF7FEBFFFF7FEBFFFF7FEBF99
S31508003D50FFF7FEBFFFF7FEBFFFF7FEBFFFF7FEBF89
S31508003D60FFF7FEBFFFF7FEBFFFF7FEBFFFF7FEBF79
S31508003D70FFF7FEBFFFF7FEBFFFF7FEBFFFF7FEBF69
S31508003D80FFF7FEBFFFF7FEBFFFF7FEBFFFF7FEBF59
S31508003D90FFF7FEBFFFF7FEBFFFF7FEBFFFF7FEBF49
S31508003DA0FFF7FEBFFFF7FEBFFFF7FEBF0005BD002A
S31508003DB00001F9000010FC0001127AFB000F3031F7
S31508003DC03233343536373839414243444546B400F0
S31508003DD0127E1100085C3C0008483C0008580000A8
S31508003DE0200000FFF7000A570B0008E8090020101A
S30908003DF0000CFB00BA
S70508003C298D
