S31508000000C81F002029020008310200083302000830
S31508000010350200083702000839020008000000000F
S315080000200000000000000000000000003B0200087D
S315080000303D020008000000003F0200087523000882
S31508000040430200084302000843020008430200086E
S31508000050430200084302000843020008430200085E
S31508000060430200084302000843020008430200084E
S31508000070430200084302000843020008430200083E
S31508000080430200084302000843020008430200082E
S31508000090430200084302000843020008430200081E
S315080000A0430200084302000843020008430200080E
S315080000B043020008430200084302000843020008FE
S315080000C043020008430200084302000843020008EE
S315080000D043020008430200084302000843020008DE
S315080000E043020008430200084302000843020008CE
S315080000F043020008430200084302000843020008BE
S315080001000000000000000000000000004302000894
S31508000110430200084302000843020008430200089D
S31508000120430200084302000843020008430200088D
S315080001304302000843020008000000000000000017
S3150800014043020008430200084302000800000000BA
S315080001500000000000000000000000000000000091
S3150800016000000000000000004302000843020008E7
S315080001704302000800000000000000000000000024
S31508000180000000004302000800F002F800F03CF806
S315080001900AA090E8000C82448344AAF10107DA45D4
S315080001A001D100F031F8AFF2090EBAE80F0013F0EA
S315080001B0010F18BFFB1A43F00103184770580000D7
S315080001C090580000103A24BF78C878C1FAD8520768
S315080001D024BF30C830C144BF04680C6070470000B3
S315080001E00023002400250026103A28BF78C1FBD832
S315080001F0520728BF30C148BF0B6070471FB505F0CE
S3150800020034FB1FBD10B510BD00F0EEF81146FFF720
S31508000210F5FF03F091FE00F00CF903B4FFF7F2FFC7
S3150800022003BC00F013F90000094880470948004755
S31508000230FEE7FEE7FEE7FEE7FEE7FEE7FEE7FEE788
S31508000240FEE7FEE704480549054A064B70470000E5
S31508000250D523000889010008C80D0020C81F002002
S31508000260C80F0020C80F002010B5431C02E010F884
S31508000270011B71B18107FAD14FF0013202C88C1AFD
S315080002808C4314EAC211F9D0C01A0A0603D0C01E5C
S3150800029010BDC01A10BD0A0401D0801E10BD090287
S315080002A0FCD0401E10BD032A40F2308010F0030C2B
S315080002B000F0158011F8013BBCF1020F624498BFAB
S315080002C011F801CB00F8013B38BF11F8013BA2F148
S315080002D0040298BF00F801CB38BF00F8013B11F0C3
S315080002E0030300F04F80083AC0F0088051F8043B39
S315080002F0083A51F804CBA0E80810F5E7121D5CBFD0
S3150800030051F8043B40F8043BAFF30080D20724BF02
S3150800031011F8013B11F801CB48BF11F8012B24BF96
S3150800032000F8013B00F801CB48BF00F8012B7047E5
S315080003304FF0000200B5134694469646203922BF70
S31508000340A0E80C50A0E80C50B1F12001BFF4F7AFBB
S31508000350090728BFA0E80C5048BF0CC05DF804EB9D
S31508000360890028BF40F8042B08BF704748BF20F80B
S31508000370022B11F0804F18BF00F8012B7047704709
S315080003807047704710B5203AC0F00B80B1E8185096
S31508000390A0E81850B1E81850A0E81850203ABFF461
S315080003A0F5AF5FEA027C24BFB1E81850A0E8185000
S315080003B044BF18C918C0BDE810405FEA827C24BF54
S315080003C051F8043B40F8043B08BF7047D20728BFE2
S315080003D031F8023B48BF11F8012B28BF20F8023B31
S315080003E048BF00F8012B7047754600F02BF8AE465B
S315080003F005006946534620F00700854618B020B523
S31508000400FFF720FFBDE820404FF000064FF0000739
S315080004104FF000084FF0000BAC46ACE8C009ACE85A
S31508000420C009ACE8C009ACE8C00921F007018D464F
S31508000430704710B50446AFF300802046BDE810406B
S31508000440FFF7EBBE00487047480000200149182016
S31508000450ABBEFEE7260002007047000000F006FA71
S31508000460FCE7000010B500F08DF901281CD040F219
S31508000470C844C2F200042078012815D101F0D0FF43
S3150800048040F2C44140F2CC42C2F20001C2F200027C
S3150800049009681268114401F5FA71884238BF10BD1F
S315080004A00020207000F004FA10BD000040F2C4409D
S315080004B0C2F200000068704780B540F2C840C2F238
S315080004C000000121017000F003F8FFF7CBFF80BDA3
S315080004D080B540F2C840C2F200000078012818BF73
S315080004E080BD01F09DFF40F2CC41C2F200010860D8
S315080004F080BD000040F2C441C2F2000108607047A6
S3150800050080B500F0BBF900F0A7F901F093FF01F000
S31508000510E9FD00F023F901F0BDF8FFF7CDFF80BD36
S3150800052080B500F0A3F901F0DDFF00F033F9FFF71D
S3150800053099FF80BD2DE9F04784B08246684690460B
S31508000540894601F0DBFA029844F6D351C1F26201FA
S31508000550A0FB010145F6C40288094FF0000CC0F65D
S3150800056000024FF4FA734FF0FF3E002703E000BF86
S315080005700137122F1CD002EB470112F817504978A1
S315080005804C1914FB0336B0FBF6F404FB1606002ED2
S31508000590EED11EFA84F6BCEB962FAAF80040E7D1F6
S315080005A089F8005088F80010012004B0BDE8F087EB
S315080005B0002004B0BDE8F087B0B58CB000250DF179
S315080005C02E000DF12D010BAAADF82E508DF82D50E9
S315080005D08DF82C50FFF7AEFF18B921A0AF21FFF711
S315080005E03DFF9DF82D200023CFF6FF7340F6D80473
S315080005F046F2004003EB02429DF82C300021C2F27D
S315080006000004C4F20000CFF6F0714FF0807C01EBD5
S315080006100351BDF82E3084E829002046A583C4E995
S315080006200352C4E9051C00F0DBFC4CF6E04101204E
S31508000630CDE901154FF6E071089003910421099060
S315080006400E20CDE904150A9001A92046CDE90655E4
S3150800065000F0C0FB204600F04FFD0CB0B0BD00BF57
S315080006602E2E2F2E2E2F2E2E2F2E2E2F536F7572A7
S3150800067063652F41524D434D345F53544D333246D3
S31508000680332F63616E2E6300B0B588B0034640F61B
S31508000690D8000C46C2F2000001AA0021002500F08D
S315080006A00DFC50B9019840F26761884204D103985D
S315080006B0B0FA80F0450900E00025002D1CBF05981A
S315080006C02070284608B0B0BDB0B588B0024640F2E2
S315080006D0E17002900020CDE9040040F6D8000691AA
S315080006E0C2F2000002A901AB00F02AFB98B901F09A
S315080006F097FE40F6D80400F13205C2F2000400BFA6
S315080007000199204600F0E6FC28B100F0AFF801F0A8
S3150800071087FEA842F4D908B0B0BD000080B501F044
S3150800072059FF80BD40F21500C2F200000178812011
S31508000730022908BF0820032908BF3F207047000088
S3150800074040F21500C2F2000001788120022908BF94
S315080007500820032908BF3F207047000010B502F0A3
S315080007600DFAFFF729FF40F21504C2F20004022031
S31508000770207001F019FD0020207001F03BFF0320D6
S31508000780207010BD80B502F005FA002818BF0120B8
S3150800079080BD000010B582B040F2A800C2F2000089
S315080007A00DF10701FFF770FF40F215040128C2F2A8
S315080007B0000409D102209DF80710207040F2A80015
S315080007C0C2F2000002F0F0F940F2A800C2F20000FE
S315080007D00DF1070101F00EFD012809D100209DF851
S315080007E00710207040F2A800C2F2000002F0DCF9FF
S315080007F040F2A800C2F200000DF1070101F02EFF39
S31508000800012809D103209DF80710207040F2A8009E
S31508000810C2F2000002F0C8F902B010BD70B540F28D
S315080008201506C2F2000632780D46022A044603D19E
S31508000830E9B22046FFF748FF307818B9E9B22046F2
S3150800084001F050FD3078032803D1E9B2204601F0C3
S315080008505DFF02F01BFA70BD80B500F001F880BD9F
S3150800086080B5642001F0ECFB80BD000080B500F087
S3150800087001F880BD80B501F0E9FB80BD80B500F0C8
S3150800088001F880BD72B6704762B6704770B5002A27
S3150800089008BF70BD1446451E4E1E00BF16F8010F50
S315080008A0013C05F8010FFFF7E1FF2004F6D170BD02
S315080008B010B501F01BFCE0B100F01CF8002808BFD9
S315080008C010BDFFF72BFF00F045FC01F0F3FD01F02A
S315080008D005FC4FF68071C1F6FF7108404EF60851C7
S315080008E0CEF20001086001F0F9FB4468FFF7CCFF7F
S315080008F0A04710BD80B500F0F9FF18B101F09CFBC8
S31508000900012080BD002080BD40F64010C2F20000E4
S315080009100021C16142F21000C4F20200016841F0F0
S3150800092004010160016841F0400101607047000060
S3150800093040F64011C2F200010022CA6142F21001DB
S31508000940C4F202010A6842F002020A6048600868B6
S3150800095040F040000860704740F64012C2F20002BC
S315080009600023D36142F21002C4F20202136843F074
S31508000970010313600180704742F20C00C4F20200C2
S31508000980016840F64012C906C2F2000201D40021ED
S3150800099004E0D16941F00201D161102103685B07C7
S315080009A005D5D36941F0040143F00103D361016021
S315080009B070470000F0B581B042F20C060446C4F256
S315080009C0020600F0AFFC3168C90710D1306880060E
S315080009D044BF202030603068C0065CBF30685FEADC
S315080009E040700BD5FFF7C8FF012001B0F0BD0546E2
S315080009F0671C07D05CB9032001B0F0BD002001B028
S31508000A00F0BD00BF3068C007E0D0002FFAD000F074
S31508000A1089FC401BA042F5D9EDE700002DE9F0411D
S31508000A2006460068884640F2FF111C461546013006
S31508000A3028EA010704D13046394600F0ADF830B34C
S31508000A403068B84205D03046394600F0B7F8064651
S31508000A50E8B13068A8EB00003044071D06E000BF87
S31508000A6015F8010B013C07F8010B13D0FFF7FEFE42
S31508000A70B81B0438B0F5007FF2D3306800F5007172
S31508000A80304600F09BF810B10646071DE8E700203F
S31508000A90BDE8F0810120BDE8F081000080B540F294
S31508000AA0D460C2F200000068013006D040F2D4607B
S31508000AB0C2F2000000F0F4F878B140F2D040C2F279
S31508000AC000000068013006D040F2D040C2F20000B3
S31508000AD000F0E6F808B1012080BD002080BD0000C6
S31508000AE0F0B585B040F2FF724AF2000320EA02022E
S31508000AF0C0F6000300249A42049435D34FF6FF73D8
S31508000B00C0F603034F1E1E1AB7422DD80F18013F11
S31508000B109F424FF0000427D86FF3DF200844C50A28
S31508000B200121430518BF01EBD025CDE90142039108
S31508000B3000F0E0FBAEB296B1002701AC04AD00BFF1
S31508000B40FFF794FE2046294600F016FB48B902989E
S31508000B500137B9B200F500608E420290F0D8012440
S31508000B6000E0002400F062FB204605B0F0BD00005E
S31508000B704AF20000C0F600007047000040F2D0407C
S31508000B80C2F200004FF0FF31016040F2D460C2F2B9
S31508000B90000001607047000080B5CA051CBF002030
S31508000BA080BD02688A4204BF012080BD40F8041B4C
S31508000BB04FF40072FFF76AFE012080BDB0B5044607
S31508000BC040F2D460C2F2000084420D460BD04AF2CD
S31508000BD00000C0F6000085420AD140F2D464C2F291
S31508000BE00004054608E040F2D044C2F2000403E0DF
S31508000BF0204600F055F838B120462946FFF7CCFFC5
S31508000C00002818BF2046B0BD0020B0BDB0B54AF2D6
S31508000C100000C0F60000D0E900C2D0E90231624403
S31508000C20D0E904E41A441144856971442144D0F892
S31508000C30880129440844B0FA80F04009B0BD000094
S31508000C40B0B54AF2000CC0F6000C0B4601466045EA
S31508000C504FF0000038BFB0BD4FF6FF7EC0F6030E5A
S31508000C605C1EAEEB0105AC4218D858180138704521
S31508000C7084BF0020B0BD40F2FF1021EA00006045A5
S31508000C8006D140F2D460C2F20000FFF7C7FEB0BD3D
S31508000C9040F2D040C2F20000FFF7C0FEB0BD00002F
S31508000CA02DE9F04381B0814600F024FB09F10408E0
S31508000CB000240025D9F8000058F804602718FFF723
S31508000CC0D5FD022039463246002300F0B9FA48B964
S31508000CD03868B04205D10434B4F5007FEAD101255D
S31508000CE000E0002500F0A2FA284601B0BDE8F0832E
S31508000CF010B582B040F2D460C2F20000016800224A
S31508000D000131019218D0D0E901C2D0E90331624419
S31508000D10D0E905E41A441144C069714421440844E1
S31508000D20404201904AF28810C0F6000001AA042148
S31508000D30FFF786FF02B010BD012002B010BD00000B
S31508000D4010B590F820E0D0F800C0AEF1010EBEF163
S31508000D50010FDCF808E00ED81EF0E05F11D0CEF3E4
S31508000D60016E012000FA0EF018608B687BB14868A6
S31508000D7043EAC0030DE000F1240101204FF480226C
S31508000D8023E000F1240101204FF400121DE0086859
S31508000D904305D1E9030403430CEB0E10C0F8803178
S31508000DA0C0F88441097D012905D100F5C2710B6897
S31508000DB043F480730B605168C0F88C11126800F513
S31508000DC0C071C0F88821002001220B681A430A6006
S31508000DD010BD0000B0B5026890F82030013B012B29
S31508000DE027D8D2F80002012340F00100C2F8000219
S31508000DF0D1F814E0CC690EF01F0003FA00F0D2F81F
S31508000E001C326FEA000C8343012CC2F81C3216D040
S31508000E1064BBD2F80C3203EA0C03C2F80C32CB6876
S31508000E208C8844EA034302EBCE04C4F840320B46EE
S31508000E3014E0416A41F4802141620120B0BDD2F834
S31508000E400C320343C2F80C320B688C8844EA03431D
S31508000E5002EBCE04C4F8403201F10C038C681B88FF
S31508000E6043EA044302EBCE04C4F84432D2F804320F
S31508000E708D6943EA0004D1F810E0096A002D08BF1D
S31508000E8003EA0C04C2F80442D2F81432BEF1000F89
S31508000E9043EA000408BF03EA0C040129C2F8144215
S31508000EA004D1D2F81C120843C2F81C02D2F8000278
S31508000EB020F00100C2F800020020B0BD10B590F87D
S31508000EC02040013C012C0AD8046871B12469A407A2
S31508000ED00ED100F1240101204FF4001276E000F152
S31508000EE0240101204FF4802270E0E468A40771D041
S31508000EF0046804EB011CDCF8B0410CF5D87E14F04C
S31508000F0004049460DCF8B04119BFE4085460640D29
S31508000F101460DEF800400CF5DA7E04F00204D460B2
S31508000F20DCF8B44124075ABFDEF8004004F00F0489
S31508000F3008241461DEF800400029C4F307249461EC
S31508000F40DEF800404FEA14445461DCF8B8211A7000
S31508000F50026802EB0112D2F8B8214FEA12225A703F
S31508000F60026802EB0112D2F8B8214FEA12429A70CF
S31508000F70026802EB0112D2F8B8214FEA1262DA705F
S31508000F80026802EB0112D2F8BC211A71026802EB60
S31508000F900112D2F8BC214FEA12225A71026802EBFA
S31508000FA00112D2F8BC214FEA12429A71026802EB8A
S31508000FB00112D2F8BC214FEA1262DA71006814BF36
S31508000FC000F1100100F10C01002020220B681A43E1
S31508000FD00A6010BD00F1240101204FF40012F5E764
S31508000FE0B0B5C8B1044690F8200010B9204600F004
S31508000FF081F82068016841F00101016000F092F96A
S31508001000054600BF20684168C90707D100F08AF97C
S31508001010401B0B28F6D312E00120B0BD016821F071
S315080010200201016000F07EF9054600BF20684168AC
S3150800103089070DD500F076F9401B0B28F6D3606AB0
S31508001040052140F400306062012084F82010B0BD0C
S31508001050217E0268012922F0800208BF80320260E0
S31508001060617E0268012922F0400208BF4032026010
S31508001070A17E0268012922F0200208BF2032026000
S31508001080E17E0268012922F0100218BF10320260C0
S31508001090217F0268012922F0080208BF083202608F
S315080010A0617F0268012922F0040208BF0432026047
S315080010B0D4E901C2D4E9033561691A432A431143C5
S315080010C0ACF101021143C16100200121606284F87C
S315080010D02010B0BD90F82020013A012A84BF0020D4
S315080010E070470068806800EA8160B0EB816018BFCD
S315080010F00120704770470000B0B5044690F82000FC
S3150800110001281DD1022084F820002068016821F0FA
S315080011100101016000F006F9054600BF2068406835
S31508001120C00713D000F0FEF8401B0B28F6D3606A00
S3150800113040F400306062052084F820000120B0BD2C
S31508001140606A40F4002060620120B0BD0020606241
S31508001150B0BD000080B541F20C00C4F202004FF0A9
S31508001160FF3100224160426001600260C161C261D4
S3150800117000F018F9002080BD2DE9F04140F640182E
S31508001180C2F2000898F81820012A04BF0220BDE818
S31508001190F081054601202E6888F818004CF2503078
S315080011A00C46FFF707FC012E02D120B1012037E0DB
S315080011B080B1012034E0FFF7A7FB4CF25030FFF76F
S315080011C0F9FB42F21001C4F202010A6822F0040295
S315080011D00A6025E04FF0FF302060D5E9016006EB94
S315080011E0C020864219D242F21007C4F2020700BF95
S315080011F03046FFF79DFB4CF25030FFF7DBFB3968B2
S3150800120021F00201396050B9D5E9011206F50066E8
S3150800121001EBC2218E42EBD302E0012000E02660FA
S31508001220002188F81810BDE8F081000042F210018C
S31508001230C4F20201086840F0800200200A60704784
S315080012402DE9F04F81B01C4640F64013C2F2000368
S3150800125092461A7E012A03D1022001B0BDE8F08F1A
S315080012608146012018764CF250300E46FFF7A2FB55
S31508001270B0BB4D4642F21007B9F1020F18BF04255C
S31508001280C4F20207B9F1010F08BF4D4600214FF01D
S3150800129020096FF01F0B4FF0000800BF0A01A9EBE9
S315080012A0011304FA03F32AFA02F206EB41001A4381
S315080012B00BEB0111002958BF24FA01F291B2FFF78E
S315080012C04BFB4CF25030FFF775FB396821F00101F2
S315080012D0396028B908F101085FFA88F18D42DDD82E
S315080012E040F640120021C2F20002117601B0BDE8B4
S315080012F0F08F000042F20400C4F20200C168090639
S315080013005CBF0020704740F22311C4F267510160A8
S3150800131048F6AB11CCF6EF510160C068C0F3C010B7
S315080013207047000080B501F07BF880BD80B542F2B9
S315080013300000C4F20200016841F0100101600320B8
S3150800134000F016F90F2000F005F800F079F80020F3
S3150800135080BD0000B0B540F24102C2F2000240F280
S3150800136000011278C2F200014FF47A730968B3FBE0
S31508001370F2F20446B1FBF2F1084600F001F90F2C2F
S315080013804FF001050CD858B94FF0FF30214600221E
S31508001390002500F0DDF840F24400C2F200000460C7
S315080013A02846B0BD10B586B000244FF40020CDE91C
S315080013B00444CDE90244CDE9004400F0A1F900F067
S315080013C0E5FA4FF4805000900120CDE90104CDE9FB
S315080013D0034440F20044C4F6000404F580606946FC
S315080013E000F040FA00F01AFB04F5006000F01AFA63
S315080013F0204600F017FA4FF0904000F013FA4FF429
S31508001400802000F09DF94FF0007000F099F94FF434
S31508001410000000F095F94FF4801000F057F94FF4EA
S31508001420802000F053F94FF4003000F04FF94FF0E8
S31508001430805000F085F900F0C9F906B010BD00002B
S315080014402DE9F04186B00026CDE90466CDE90266AD
S31508001450CDE9006600F0C4F94FF0805000F084F939
S315080014604FF4003000F04CF94FF4802000F048F9B2
S315080014704FF4002000F044F94FF4801000F040F9D2
S315080014804FF4800000F03CF94FF4802000F06CF92E
S315080014904FF0007000F068F94FF4000000F064F9AE
S315080014A0E84601254FF090404146CDE9005604959F
S315080014B000F0D8F94FF090402021202700F02CFAB0
S315080014C04FF090404146CDE90075CDE90266049695
S315080014D000F0C8F900F05AFA4FF480508DE8610020
S315080014E040F20045C4F6000505F580604146CDE9A1
S315080014F0036600F0B7F94FF4406000900720022712
S3150800150003240590284641460197CDE902460496EC
S3150800151000F0A8F94FF44070CDE9000709200590BE
S3150800152028464146CDE90246049600F09BF94FF459
S31508001530C050CDE900070E2005904FF09040414677
S31508001540CDE90246049600F08DF906B0BDE8F081B3
S3150800155070B514460D46064601F0C4FB29462246D8
S3150800156000F098FD0146304601F0C4FB70BD00004E
S3150800157080B501F0D1FB80BD7047000070470000C0
S3150800158080B500F0DFFE80BD70B54FF00006B8B933
S315080015900D46A9B114469AB10020002600F058F865
S315080015A020440C280CD840F63016C2F200063068E3
S315080015B029462246FFF76AF930682044306001263A
S315080015C0304670BD10B500F091FD50B1012000F015
S315080015D053F80446002000F04FF8214600F004F8BE
S315080015E010BD012010BD00000A6803689A421CBF9E
S315080015F00020704749684068081AB0FA80F0400928
S315080016007047000080B520B109A0A221FEF726FF89
S3150800161080BD40F62410C2F200000021C0E9001186
S31508001620816040F63011C2F20001086080BD00BF3B
S315080016302E2E2F2E2E2F2E2E2F2E2E2F536F7572C7
S3150800164063652F696E666F7461626C652E63000050
S3150800165000281EBF0C2080B2704740F63010C2F238
S315080016600000006840F62411C2F20001884234BF27
S315080016700D20401A80B270474AF2002140F6241223
S31508001680C0F60001C2F20002002808BF114608464B
S315080016907047000080B540F6301040F62411C2F2BB
S315080016A00000C2F2000101600020FFF7ABFF80BD19
S315080016B080B5FFF73BFE00F05FFE40F60000C4F67B
S315080016C000004FF4805100F027F980BD41F2140163
S315080016D0C4F202010A6822EA0000086070470000A6
S315080016E081B041F21400C4F20200016841F40021FD
S315080016F00160006800F400200090009801B070476F
S3150800170081B041F21401C4F202010A6802430A6078
S31508001710096808400090009801B0704741F2280116
S31508001720C4F202010A6810430860704741F22801B2
S31508001730C4F202010A6822EA000008607047000045
S3150800174041F21C01C4F202010A6822EA000008609C
S315080017507047000041F21C00C4F20200016821F043
S31508001760010101607047000081B041F21C01C4F21A
S3150800177002010A6802430A60096808400090009856
S3150800178001B0704781B041F21C00C4F20200016842
S3150800179041F001010160006800F001000090009826
S315080017A001B0704741F21000C4F20200016841F02E
S315080017B0010101607047000041F21000C4F2020006
S315080017C0016821F0010101607047000041F218002C
S315080017D0C4F20200016821F00101016070470000AF
S315080017E081B041F21800C4F20200016841F001011B
S315080017F00160006800F001000090009801B0704791
S3150800180042F20000C4F20200006800F007007047C8
S3150800181042F20000C4F202000168022262F30201E9
S315080018200160704700F138404FEAB020052884BFB0
S315080018300120704710B505A151F820402046FFF752
S315080018406DFF2046FFF772FF002010BD0000020062
S31508001850000004000000080000001000000020003E
S31508001860000040002DE9F0410C46096891FAA1F202
S31508001870B2FA82F731FA07F235D005464FF0010879
S315080018800EE062692846314600F058F86268284634
S31508001890314600F083F82168013731FA07F022D083
S315080018A008FA07F011EA0006F5D060680138012841
S315080018B009D8A2682846314600F096F82168E268F9
S315080018C0284600F07BF822692846314600F07CF865
S315080018D060680228DAD13006D3D0626928463146D4
S315080018E000F01CF8D2E70020BDE8F0811020C4F60D
S315080018F00000006800F001007047000040F628006C
S31508001900C4F600004FF48051016070472820C4F6E1
S3150800191000002021016070478162704791FAA1F1A9
S31508001920B1FA81F1D0F820C089000F238B402CEA48
S31508001930030302FA01F1194301627047090A91FA91
S31508001940A1F1B1FA81F1D0F824C089000F238B40A8
S315080019502CEA030302FA01F11943416270470000B9
S3150800196040F61800C4F600004FF480510160704735
S3150800197040F61800C4F600004FF480510160704725
S315080019801820C4F6000020210160704740F61800B0
S31508001990C4F600004FF480510160704791FAA1F136
S315080019A0B1FA81F1D0F800C0490003238B402CEA34
S315080019B0030302FA01F119430160704743688B4338
S315080019C0514319434160704791FAA1F1B1FA81F187
S315080019D0D0F80CC0490003238B402CEA030302FA13
S315080019E001F11943C160704791FAA1F1B1FA81F189
S315080019F0D0F808C0490003238B402CEA030302FAF7
S31508001A0001F119438160704741F22400C4F20200D3
S31508001A10016841F0807101607047000010B582B01E
S31508001A2000F0A8F900F0B0F90128FBD141F2000452
S31508001A30C4F2020400F0B0F94FF0FF3001900198AB
S31508001A404CF20C01CFF6FF01084001900198606046
S31508001A5000F044F80028FBD120684FF6FF7101908A
S31508001A600198CFF6F661084001900198206000BF02
S31508001A7000F0D6F90028FBD100F060F900204FF4F9
S31508001A801F016060E062206301910199A160A06076
S31508001A90FFF7BAFF002002B010BD000041F20400B3
S31508001AA0C4F20200006800F0F000704741F204003A
S31508001AB0C4F20200006800F4E060704741F20400D6
S31508001AC0C4F20200006800F4E060704741F20400C6
S31508001AD0C4F20200006800F46050704741F2040046
S31508001AE0C4F20200006800F00C00704741F20400DE
S31508001AF0C4F20200006800F00C00704710B50446F6
S31508001B0000F026FB206000F0F9FA606000F004FBA4
S31508001B106168A060084600F00DFBE06010BD00009B
S31508001B20B0B50446B0F5401F12D14FF4401000F08E
S31508001B3065F8A0F540500321B1EB305F0DD04FEAB0
S31508001B403050022816D001281FD100F001FB22E0F0
S31508001B500025B4F5400F16D121E000F015F9054629
S31508001B6000281CBF41F20025C0F27A05B4F5400FE3
S31508001B7009D114E000F01AF9002818BF0120C5039E
S31508001B80B4F5400F0BD02846B0BD00F0E1FA00F0DE
S31508001B90B5FA00F0C1FA0546B4F5400FF3D14FF493
S31508001BA0400000F02BF8A0F540400321B1EBB05FF0
S31508001BB008D04FEAB05002280FD0012815D100F0FE
S31508001BC0C7FAB0BD00F0E0F841F20021C0F27A0190
S31508001BD0002818BF0D462846B0BD00F0E7F80028D3
S31508001BE018BF4FF400452846B0BD00F0B1FA00F022
S31508001BF085FA00F091FA05462846B0BD41F2300153
S31508001C00C4F202010968014041EA10207047000049
S31508001C10B0B5044608B1002523E0002000F082F89C
S31508001C20032806D002280ED0012813D100F090FA16
S31508001C3016E000F0A9F8054600281CBF41F2002569
S31508001C40C0F27A050DE000F0B1F8002818BF0120AF
S31508001C50C50306E000F07CFA00F050FA00F06AFAD4
S31508001C600546102C23D1102000F05CF800F17040D6
S31508001C700321B1EB304F08D04FEA3040022810D08C
S31508001C80012828D100F064FA2BE000F07DF841F233
S31508001C900021C0F27A01002818BF0D46122C23D164
S31508001CA007E000F083F8002818BF4FF40045122C0F
S31508001CB01AD1122000F036F800F16E400321B1EB7C
S31508001CC0B04F13D04FEAB04002281AD0012820D1CD
S31508001CD000F03EFAB0BD00F03BFA00F00FFA00F053
S31508001CE01BFA0546122CE4D02846B0BD00F04CF885
S31508001CF041F20021C0F27A01002818BF0D46284695
S31508001D00B0BD00F053F8002818BF4FF40045284628
S31508001D10B0BD00F01DFA00F0F1F900F0FDF9054636
S31508001D202846B0BD41F23001C4F202010968032217
S31508001D308240114041EA00607047000041F200000D
S31508001D40C4F20200016821F4802101607047000096
S31508001D5041F20000C4F20200016841F480310160DA
S31508001D607047000041F20000C4F202000068C0F3A8
S31508001D704040704741F20000C4F20200016841F099
S31508001D80010101607047000041F20000C4F2020040
S31508001D900068C0F34000704741F20000C4F2020038
S31508001DA00168102262F3C7010160704741F2200002
S31508001DB0C4F202000068C0F34000704741F2040014
S31508001DC0C4F20200016821F4741101F5E8110160FA
S31508001DD0816A21F00F0181627047000041F200001C
S31508001DE0C4F20200016841F080710160704700008A
S31508001DF041F20400C4F20200006800F48030704723
S31508001E0041F20400C4F20200006800F47010704742
S31508001E1041F22C00C4F20200006800F00F0070477F
S31508001E2041F20000C4F202000068C0F34060704747
S31508001E3041F20000C4F202000068C0F34060704737
S31508001E4041F20400C4F20200016821F0F0010160C9
S31508001E507047000041F20400C4F20200016804223F
S31508001E6062F30A210160704741F20400C4F20200DD
S31508001E70016821F4605101607047000041F20400D6
S31508001E80C4F202000168022262F301010160704790
S31508001E9041F23000C4F20200016821F440210160D9
S31508001EA07047000041F20400C4F20200016821F400
S31508001EB0800101607047000040F20001C2F2000193
S31508001EC00860704744F60000C4F20000016821F07B
S31508001ED0010101607047000044F60000C4F20000EA
S31508001EE0016841F0010101607047000070B50E46B7
S31508001EF0044600F06BF808B1012070BD206849F26D
S31508001F000C6120EA010CD6E90121D6E9033042EA40
S31508001F100C02B5691A43104328432060204600F096
S31508001F207FF87169204600F075F844F6FF30C4F270
S31508001F30000084424FF0000113DD44F60040C4F26D
S31508001F40000084421BD045F20000C4F2000084421F
S31508001F5018D043F60000C4F2010084421BD10020C9
S31508001F6016E044F20040C4F2000084420FD044F662
S31508001F700000C4F2000084420DD1122008E04FF49C
S31508001F80401001E04FF44000FFF7CAFD02E01020C0
S31508001F90FFF73EFE01460029AED03368002BABD0D2
S31508001FA0B269204600F01EF8002070BD44F61C00F9
S31508001FB0C4F200000068C0F34010704744F61C00E5
S31508001FC0C4F200000068C0F3C0107047006800F053
S31508001FD00100704744F62400C4F200000088C0B22D
S31508001FE070470000B2F5004F0CD15A0802EB4101C8
S31508001FF0B1FBF3F14FF6F0720A40C1F34201114406
S31508002000C160704701EB5301B1FBF3F189B2C160BE
S3150800201070470000826822F440721143816070475D
S31508002020426822F4405211434160704744F6280141
S31508002030C4F200010880704780B5FFF767FC80BDD1
S3150800204040F63411C2F200010880704710B500F05E
S31508002050E7F940F22C14C2F200042168884238BF1E
S3150800206010BD40F22910C2F20000017821B100210A
S315080020700170FFF74BFC03E001210170FFF780FCBC
S3150800208000F0CEF940F63411C2F20001098808447E
S31508002090206010BD00F0070080F00703042B28BF5E
S315080020A004234FF0FF3C03380CFA03F338BF002033
S315080020B0994381400CFA00F022EA00000843704771
S315080020C080B5FEF715FE00280CBF0020FEF7E6FCDB
S315080020D080BD000080B5FEF703FD80BD80B5FEF724
S315080020E047FD80BD80B5FEF749FD80BD80B5FEF78A
S315080020F08DFD80BD80B5FEF7A3FD80BD10B50446F5
S31508002100FFF7CCFC45F68601C0F30310C0F60001C4
S31508002110085C24FA00F010BD10B50446FFF7C6FCAB
S3150800212045F69601000AC0F60001085C24FA00F09C
S3150800213010BD000010B50446FFF7C8FC45F6960129
S31508002140C00AC0F60001085C24FA00F010BD0000C1
S3150800215080B5FFF7C3FC08281ABF41F20020C0F279
S315080021607A0000F001F880BD10B5FFF741FE40F691
S315080021700014C0F23D04B0F5803F04BF41F20024CC
S31508002180C0F27A04002804BF40F60014C0F23D04E9
S31508002190FFF73EFE0130B4FBF0F4FFF731FEC0F363
S315080021A083400230604310BD80B588B0FFF78AFED1
S315080021B04FF46140019000200C21CDE90200049003
S315080021C0CDE90510079044F60000C4F2000001A905
S315080021D0FFF78CFEFFF780FE08B080BD10B50446F9
S315080021E0FFF7E4FE20B1FFF7F5FE2070012010BDD1
S315080021F0002010BD2DE9F04381B040F2B418C2F2B8
S31508002200000898F800203AB340F2B519C2F200095E
S3150800221099F8004040F23017C2F200070646E01966
S3150800222001300D46FFF7DAFF012835D1601C3978F1
S31508002230C2B28A424FF0000489F8000039D189F801
S315080022400000791C3046FEF721FB99F8000088F853
S315080022500040287001242CE040F23015C2F2000537
S315080022602846FFF7BBFF01284FF0000421D1287844
S31508002270013880281DD800F0D3F840F2B811C2F210
S315080022800001086040F2B510C2F200000024047094
S31508002290012088F800000CE000F0C2F840F2B811FE
S315080022A0C2F2000109680024C831884288BF88F84C
S315080022B00040204601B0BDE8F083000010B5FFF7E6
S315080022C0B5FE00F0ADF800F10A0400BFFFF776FE90
S315080022D0002818BF10BDFEF7C9FA00F0A1F8A04201
S315080022E0F4D910BDB0B50C468229054603D30AA019
S315080022F07221FEF7B3F82046FFF7E0FF002C08BF6F
S31508002300B0BD013DFEF7B2FA15F8010FFFF7D6FF8B
S31508002310013CF7D1B0BD00BF2E2E2F2E2E2F2E2E0C
S315080023202F2E2E2F536F757263652F41524D434DD5
S31508002330345F53544D333246332F72733233322E51
S3150800234063000000B0B501380024B4EB106F1CBF61
S315080023500120B0BD4EF21005CEF2000568604FF0C0
S31508002360FF300F2100F0C6FC0720AC60286020462D
S31508002370B0BD00007047000080B5FFF749FA00BFFE
S31508002380FFF73EFA0228FBD1FFF7E2FCFFF7EAFC6B
S315080023900128FBD1FFF712FDFFF720FDFFF748FDE7
S315080023A00128FBD1FFF74CFDFFF754FDFFF75CFD55
S315080023B0FFF764FDFFF79AFB0828FBD14AF20020D5
S315080023C0C0F24A40FFF778FDFFF762FDFFF76AFDA6
S315080023D080BD000010B586B000244EF68850CDE9C1
S315080023E00444CDE90244CDE90044CEF20000016878
S315080023F041F470010160FFF773F9FFF7B1FA4FF482
S31508002400805000900120CDE9010440F60000C4F692
S3150800241000006946CDE90344FFF724FA06B010BD6B
S3150800242080B500F05FF840F63810C2F20000006888
S3150800243080BD000010B5FFF7A5F940F20000C2F212
S3150800244000000468FFF73AFB45F69601000AC0F655
S315080024500001085CC440FFF731FB0221002808BFD1
S31508002460012101FB04F045F6C5214009C0F67C218F
S31508002470A0FB01014FF08040012202601420C4F243
S3150800248000004FF6FF7282614FF0FF3202EBD11166
S3150800249041610168002241F00101016040F63811EE
S315080024A0C2F200010A60006940F62211C2F2000178
S315080024B0088010BD80B5FFF775F9FFF77DF9FFF7BE
S315080024C049F94EF21000CEF2000000210160416089
S315080024D081604EF60450CEF200004FF000710160A4
S315080024E080BD000080B5242040F6221EC4F20000FC
S315080024F0C2F2000E0268BEF80010521A92B2642A9E
S3150800250038BF80BD48F21F53C5F2EB1340F6381C9E
S31508002510A2FB0323C2F2000CDCF80020580902EBE8
S315080025205312642300FB0310CCF80020AEF8000019
S3150800253080BD0000B0B584B040F2BC10C2F2000005
S315080025400178C9BB4FF2AC71C1F6FF710A684FF04A
S31508002550000E01924A680DF1040C029289680DF189
S31508002560020303910121017040F22801C2F2000121
S31508002570002200BF1CF80E00040900F00F008DF8B9
S3150800258003004FF0FF308DF8024000BF1C18647836
S3150800259037250A2C38BF302501302C44D5B20128FE
S315080025A002F101024C55F1D10EF1010EBEF10C0FEC
S315080025B0E0D1D0B200220A5404B0B0BD80B50128DB
S315080025C002D1FFF79BF980BDFFF7D2F980BD000065
S315080025D07047000080B502F02BFC40F6641045F603
S315080025E00041C2F20000C4F200010160FEF7C4FF18
S315080025F080BD000080B582B040F6641045F6004103
S31508002600C2F20000C4F200010160FEF7B7FF012024
S31508002610ADF806000DF10601002002F029FCFDF7D1
S3150800262045FF00097C2803D84FF4FA60FDF762FFDE
S3150800263002B080BD7047000010B50446002002F0C5
S31508002640F5FD48B100202146012202F017FE0138A7
S31508002650B0FA80F0400910BD002010BD2DE9F04306
S3150800266081B0054600200C4601F064F84FF0FF30B3
S31508002670002102F09FFC40F2FD18C2F2000898F80B
S31508002680000028B340F2FE19C2F2000999F80000CA
S3150800269040F2BD17C2F2000738440130FFF7CCFFFD
S315080026A001282ED199F8000039780130C2B28A4241
S315080026B04FF0000689F8000024D1791C2846FEF759
S315080026C0E5F899F8000088F800600126207019E0FE
S315080026D040F2BD14C2F200042046FFF7ADFF012800
S315080026E04FF000060ED1207801383E280AD801207E
S315080026F088F8000040F2FE10C2F2000000260670BC
S3150800270000E00026304601B0BDE8F08310B582B07F
S31508002710044640298DF8071006D345F6FA10C0F688
S3150800272000008D21FDF79AFE0DF107010020012218
S3150800273002F0B8FD012806D045F6FA10C0F60000EA
S315080027409121FDF78BFE9DF807200020214602F017
S31508002750A9FD9DF80710884206D045F6FA10C0F67E
S3150800276000009421FDF77AFE002002F0AFFD02B0CA
S3150800277010BD0000B0B582B040F638450024C2F25C
S315080027800005FF2104300194297000F0F5F9D5F809
S315080027908810034601AA0846194600F0D7F9019899
S315080027A00121697000F08EFA08206C80A5F8860071
S315080027B002B0B0BD10B500F071FA40F63844C2F266
S315080027C00004012084F8810041F2FF0020800020E7
S315080027D0A070FDF7A7FFE070FDF7B2FF2071FDF7C7
S315080027E0AFFF000A607140F20110E0800820A4F8EB
S315080027F08600FFF777FC10BD10B540F63844C2F2E4
S315080028000004002084F8810000F048FAFF202070B8
S315080028100120A4F8860010BD10B540F63844C2F26F
S315080028200004FF20206045F62220C0F60000C4F808
S315080028308800072000F046FA0820A4F8860010BD94
S3150800284040F63840C2F20000FF2190F8822001804D
S315080028500021A0F80310417106218270A0F88610A5
S3150800286070470000B0B545780446FDF75BFF0238AF
S31508002870A84203DA222000F019FAB0BD40F638451E
S31508002880C2F200050120A5F886006178FF202870AD
S3150800289061B1D5F88800A21CFFF72CFC58B1607806
S315080028A0D5F888100844C5F88800B0BDFFF708FCBD
S315080028B0002818BFB0BD312000F0F8F9B0BD0000FF
S315080028C0B0B540F63845C2F20005D5F88840043060
S315080028D000F052F901462046FFF7FCFB28B1FF201D
S315080028E028700120A5F88600B0BD312000F0DEF979
S315080028F0B0BD000070B540F63846C2F20006D6F8FC
S3150800290088400546FDF70EFF411E6A1C2046FFF764
S31508002910F1FB68B1FF203070FDF704FFD6F8881088
S3150800292008440138C6F888000120A6F8860070BD5C
S31508002930312000F0BBF970BD80B5312000F0B6F942
S3150800294080BD000080B5FDF7B3FF40F63840C2F2FF
S315080029500000FF2101700121A0F8861080BD00004B
S31508002960B0B540F63844C2F20004FF2000252080A6
S31508002970A570FDF7D7FEE0700720A580A571A4F81D
S315080029808600B0BD10B540F63844C2F20004FF21F7
S315080029900430217000F0F0F8C4F888000120A4F88B
S315080029A0860010BDB0B545780446FDF7BBFEA842C3
S315080029B01AD9201D00F0E0F840F63845C2F20005A5
S315080029C0C5F8880062780146681CFDF75FFF6078E5
S315080029D0D5F888100844C5F888006078FF210130CA
S315080029E02970A5F88600B0BD222000F05FF9B0BDB9
S315080029F080B5002000F05AF980BD0000B0B54578D2
S31508002A000446FDF78FFEA84216D940F63845C2F2AD
S31508002A1000056278D5F88810681CFDF737FF6078DE
S31508002A20D5F888100844C5F888006078FF21013079
S31508002A302970A5F88600B0BD222000F037F9B0BD90
S31508002A4080B54178172902D100F006F880BD20200C
S31508002A5000F02CF980BD000080B58178082906D0E1
S31508002A60062907D0042908D100F04AF880BD00F0ED
S31508002A7009F880BD00F026F880BD202000F016F980
S31508002A8080BD0000B0B540F63845C2F2000540F6F4
S31508002A90FF0028800320A5F886000020FEF7D8FD51
S31508002AA004460120FEF7D4FD844207D1FEF78AFDCD
S31508002AB001280CBF01200020A870B0BD292000F015
S31508002AC0F5F8B0BDB0B5C5780446FDF72BFE043859
S31508002AD0A84210DBE278211D0020FEF755FD50B113
S31508002AE040F63840C2F2000040F2FF610180022140
S31508002AF0A0F88610B0BD222000F0D8F8B0BD0000BE
S31508002B0010B582B00120FEF7A3FDADF8060001203E
S31508002B10FEF7B2FD00900020FEF774FD40F638443B
S31508002B20C2F2000440F2FF402080A01C0DF106010D
S31508002B300222FDF7ABFE201D69460422FDF7A6FE1C
S31508002B400820A4F8860002B010BD0000F0B581B0D8
S31508002B50144669B10D460646002000BF16F8011B4B
S31508002B60013D4718FDF782FE002DF8B2F6D100E0C8
S31508002B700020206001B0F0BD0068704740F638407C
S31508002B80C2F200000021C0F88810A0F88610C0F82C
S31508002B908110704740F63840C2F2000090F8810074
S31508002BA0002818BF0120704710B5017840F6384450
S31508002BB0FF29C2F2000413D1FFF7FCFD94F8840044
S31508002BC0012802D1102000F071F8B4F98600012816
S31508002BD0B8BF10BD012184F8841000F079F826E00A
S31508002BE094F88120012A22D1C939352920D8DFE86D
S31508002BF001F01B1F1F231F1F26292C2F1F1F1F1FF6
S31508002C001F1F1F1F1F1F1F1F1F1F1F1F1F1F1F1FC6
S31508002C101F1F1F1F1F1F1F1F1F1F321F354A383B2D
S31508002C201F1F1F3E1F414447FFF764FEC6E710BD3E
S31508002C30202000F03BF8C1E7FFF77EFEBEE7FFF76E
S31508002C4081FEBBE7FFF70EFEB8E7FFF739FEB5E7EB
S31508002C50FFF786FEB2E7FFF7F3FEAFE7FFF78AFD59
S31508002C60ACE7FFF7CBFEA9E7FFF78CFEA6E7FFF771
S31508002C70D3FDA3E7FFF7BCFEA0E7FFF7E1FD9DE75D
S31508002C80FFF7BAFD9AE7FFF78DFE97E740F638405B
S31508002C90C2F20000002180F88410704740F63840E0
S31508002CA0C2F20000002180F88210704740F63841D1
S31508002CB0C2F20001FE22487002200A70A1F88600BE
S31508002CC07047000040F63841C2F20001486070477C
S31508002CD080B581B240F63840C2F20000FDF79EFD8D
S31508002CE080BD00004EF60C50CEF200000068C0F31E
S31508002CF0022070474EF6145300F00F02CEF200037E
S31508002D0009011A4400F16043B0F1FF3FC8BF03F55B
S31508002D1064421170704700004EF60C51CEF2000165
S31508002D200A684FF6FF031A4060F30A2242F08060F1
S31508002D3040F0FD700860704780B5C38800686FF37F
S31508002D40DF3303FB0202084611461A46FDF7ABFAC3
S31508002D5080BD0000F0B581B004468088E588266805
S31508002D60C01A6FF3DF351FFA80FC05FB0363944531
S31508002D700E460DD2111A01FB05F74543AAB2304695
S31508002D801946FDF790FA216816FA85F0BAB202E0FC
S31508002D906A4330461946FDF786FA01B0F0BD0000D1
S31508002DA080B5C38800686FF3DF3303FB02001A4659
S31508002DB0FDF779FA80BD00002DE9F04104468088C8
S31508002DC0E688C51A20686FF3DF36AFB206FB030044
S31508002DD097420F4610D2511B754301FB06F8AAB25B
S31508002DE03946FDF760FA206817FA85F11FFA88F266
S31508002DF0FDF759FABDE8F08172433946FDF753FAF3
S31508002E00BDE8F08170B58488D61A38BF06EB44064B
S31508002E10350410D0B5B2A54206D92346944298BFC8
S31508002E205B421344438100BF9AB2A242A3EB040358
S31508002E30FAD2FFF781FFB0B2002818BF012070BD93
S31508002E40F0B581B0069C174685881A1B38BF02EB79
S31508002E504502160417D096B2AE4207D92A469D42B5
S31508002E6098BF5242D4182A46448100BFA3B2AB4247
S31508002E70A4EB0504FAD296B2BE4238BF1746BAB2D8
S31508002E80FFF768FF00E00027B8B201B0F0BD000008
S31508002E90B0B582B00389458904460095FFF7D0FF8F
S31508002EA0A2886189054610462A4600F05BF8014665
S31508002EB02846618102B0B0BD2DE9F041CAB1884605
S31508002EC0044607894189B0F90600A58816460028F0
S31508002ED013D4781A38BF00EB450080B2854298BFF4
S31508002EE005462D1AA8B2B04288BF3546280423D114
S31508002EF017E00025A8B2BDE8F081B54214D9781AC2
S31508002F0038BF00EB450016FA80F0B0EB450F05D345
S31508002F10A81B82B2284600F025F80746354628043D
S31508002F200AD1A8B2BDE8F081721B6FF3DF3002FB4D
S31508002F3000880F462804F4D0A08839468BB283420D
S31508002F40A1EB0001FAD2AEB2204641463246FFF75F
S31508002F5033FFA0883946324600F004F82081A8B22B
S31508002F60BDE8F08111448AB28A4203D0A1EB400140
S31508002F7088B27047B2EB400F28BFA1EB400188B278
S31508002F80704700002DE9F04F81B040F2042BC2F2E1
S31508002F90000B9BF80010FF2938D040F2002A4EF6A5
S31508002FA0F05845F6A00904460026C2F2000ACEF2F9
S31508002FB00008C0F600090027C8B2874204D2DAF82A
S31508002FC0000085192DB911E0781A010605D00025EB
S31508002FD065B1E968204688470EE0C1B2C90051FAD2
S31508002FE080F009EB8005002DF3D100BFD8F800006A
S31508002FF0C00701D000BE00BFD5B19BF8001001374D
S31508003000481CC0B2874206F12406D5D340F29C2458
S31508003010C2F2000420463421FDF78AF94FF0FF304A
S31508003020C4E90100C4E90300C4E90500C4E90700CE
S3150800303001B0BDE8F08F0000B0B540F24821C2F2F9
S3150800304000018A89CB890446D51AAAB2402A91F981
S31508003050002028BF4025B2F1FF3F01DD00210BE02B
S31508003060280408D0896899B140F20820AAB2C2F2A9
S315080030700000FDF718F9802140F20822C2F200028A
S31508003080ABB22046002B08BF1A4602F077FAB0BD4D
S315080030900020B0BD70470000704700000878400661
S315080030A045F64C40C4F2000007D14A78052A04D1F7
S315080030B04988012262F3DF1101804FF48051A0F89C
S315080030C0C013704710B540F6C44001F00F0CC2F2A9
S315080030D00000CA0900EB4C10531E00EB021018BF83
S315080030E0012390F80EE045F6004CC4F2000C3CF8BB
S315080030F02E2048F280001043DA00131D032404FA38
S3150800310003F30632012404FA02F21A4348F68F73CF
S315080031101A43024000F4C0604FF40053B4EBD11FC9
S3150800312008BF2023B0F5806F4FF0000018BF5A4043
S315080031302CF82E2000F0F8FA10BD000080B540F6F5
S315080031400010C2F2000045F6004C01300121C4F21D
S31508003150000C00234FF6FF722CF821300131C0F81D
S315080031600320082900F10400F6D1002000F0DCFA5B
S3150800317040F62010C2F20000C021018080BD000088
S315080031802DE9F04381B08E78C8780F468D8800F017
S315080031900301304600F0AAF8082816D245F600487A
S315080031A0C4F20008044638F8200047F270010840C7
S315080031B0F97806F00F0701F00301022938440DD00B
S315080031C003293DD148F280610AE04EF6F050CEF26E
S315080031D000000068C0073BD000BE39E048F2800115
S315080031E06FF3DF2540EA01092846F60900F062FB7D
S315080031F086F0010108EB041202EBC101A1F80004F4
S3150800320040F6C440C2F2000000EB471000EB06107F
S31508003210858184734FF40050002E18BF202080EA61
S3150800322009004FF68F7118BF48F6FF71084028F855
S315080032302400002000F078FA012001B0BDE8F083F0
S315080032404EF6F050CEF200000068C00700D000BE6F
S31508003250002001B0BDE8F08380B540F6C44301F014
S315080032600F00C2F20003CA0903EB401000EB02107C
S31508003270807B45F6004CC4F2000C3CF8203048F23E
S3150800328080021A434BF68F734FF0010ECFF6FF7389
S31508003290BEEBD11F04BF48F6BF73CFF6FF7302EA31
S315080032A003014FF4805208BF102251402CF8201019
S315080032B0002000F039FA80BD10B54FEAD11C01F0A4
S315080032C00F0040F6C441C2F2000101EB401E4FEA6E
S315080032D00C140EEB0C114EF8042000224A600B81E8
S315080032E04A81614600F078FC012010BD2DE9F041C5
S315080032F04FF0010C00F00F02C3098CEAD01040F61B
S315080033000015023300F102086FF00704C2F2000547
S3150800331007E000BF87B1012737B3013405F104057B
S3150800332028D2EF5C04F1080637B168788842F1D1F3
S3150800333028789042EED134E0012903D115F8080027
S315080033400028E8D12F78FF2F18BF9742E3D16F786E
S31508003350FF2F18BF8F42DED10027B6462A70697044
S3150800336005F803C0002FD8D1002030B95FFA8EF0D7
S31508003370BDE8F08101200028F8D04EF6F050CEF2D4
S3150800338000000068C00705D14FF0000E5FFA8EF006
S31508003390BDE8F0814FF0000E00BE5FFA8EF0BDE882
S315080033A0F0810020B6460028E0D0E6E72DE9F04790
S315080033B084B00546407889460238052800F23481EB
S315080033C0DFE800F003124956636B40F29C20C2F214
S315080033D00000017801F0FE010170017801F0FD019D
S315080033E00170002141704BE040F20426C2F200064B
S315080033F03078FF286ED040F2002A45F6A00800274C
S31508003400C2F2000AC0F60008002407E0307801344A
S31508003410411CC9B28C4207F124075BD2C1B28C4267
S3150800342004D2DAF80000384470B9EFE7201A01062A
S3150800343002D0002040B9E9E7C1B2C90051FA80F0CC
S3150800344008EB80000028E1D0026A002ADED028783E
S3150800345069689047DAE740F29C20C2F200000178DA
S31508003460C90700F00D81017841F004010170DBE025
S3150800347040F29C20C2F200000178C90700F00081E2
S31508003480017801F0FB010170CEE040F29430C2F2FF
S315080034900000017801310170C6E0297911F00F00AA
S315080034A000F0C28040F29C22C2F2000202EB400009
S315080034B040F2042300EBD112C2F20003127D1B78FE
S315080034C09A423FD240F20023C2F200031B6802EB85
S315080034D0C2028BE040F29C27C2F20007387840F21D
S315080034E0D0284007C2F200083BD5387840F20404D9
S315080034F000F0FB0038702878D8F800608DF80400D2
S3150800350005208DF805000020B9F1000FC2F200046D
S31508003510CDE9020002D1216800208847301D01A9A3
S3150800352001F0B2FBB9F1000F064602D1216801206D
S31508003530884776B19DF804009DF805104A4601F0C3
S3150800354081FC0EE0D21A130648D00022002A50D178
S315080035506AE04EF6F050CEF200000068C00700D0D0
S3150800356000BEF878C00700F08B802878D8F80040AD
S315080035708DF8040003208DF805006868B9F1000F7E
S31508003580029006D140F20400C2F200000168002051
S315080035908847201D01A901F077FBB9F1000F054600
S315080035A006D140F20400C2F20000016801208847F3
S315080035B04DB19DF804009DF805104A4601F042FCFD
S315080035C004B0BDE8F0874EF6F050CEF20000006871
S315080035D0C00755D000BE04B0BDE8F087D3B2DB0003
S315080035E053FA82F245F6A003C0F6000303EB820203
S315080035F0D2B1D369C3B1CB09C41814F8240F00F0AB
S31508003600FE002070207800F0FB002070D76928782B
S315080036106A79AB68B84798BB207840F001002070FB
S31508003620207840F00400207040F2D020C2F200005A
S315080036300468B9F1000F06D140F20400C2F2000096
S31508003640016800208847201D294601F01DFBB9F1B5
S31508003650000F064606D140F20400C2F200000168D7
S31508003660012088472EB1287869784A4601F0EAFB96
S3150800367006E04EF6F050CEF200000068C00702D110
S3150800368004B0BDE8F08700BE04B0BDE8F0870000CE
S3150800369010B584B000210391039A0446C72A06D8B8
S315080036A000BF0398013003900398C828F8D345F65D
S315080036B04040C4F200000322028002910299C72901
S315080036C007D800BF00BF0299013102910299C829A3
S315080036D0F8D3018821F00201018000210191019AA5
S315080036E0C72A06D800BF019A01320192019AC82A50
S315080036F0F8D3002201800182818000BF00EB82039B
S315080037000132082A23F8401CF8D1018841F45D41AA
S31508003710018000F0B1FA2046FFF7BCFC012004B096
S3150800372010BD000070470000BFF34F8FBFF36F8FC7
S31508003730704700002DE9F04784B045F64045C4F2CD
S315080037400005B5F804904FF0FF385FEA89500ED5AA
S31508003750A8F50070A88028894FF440716FF3DF2020
S31508003760ADF80410029001A80121FFF71FFE5FEAD9
S31508003770495009D45FEAC94019D45FEA09502CD4E4
S315080037805FEAC9503FD44FE0A8F58060A88000F0F2
S3150800379073FA4FF48070ADF8040000208DF8080025
S315080037A001A80121FFF702FE04B0BDE8F0872888CA
S315080037B0012120F004002880288820F008002880AD
S315080037C0A8F58050A8804FF4A060ADF8040001A8C1
S315080037D0FFF7ECFD5FEA0950D2D52888012140F0B1
S315080037E008002880288840F004002880A8F5006092
S315080037F0A8804FF48060ADF8040001A8FFF7D6FD55
S315080038005FEAC95010D540F66010C2F20000017890
S3150800381039B1012903D12A8822F010022A800139F8
S315080038200170A8F58070A880B5F90400404510DD40
S315080038305FEA49400AD54EF6F050CEF2000000681D
S31508003840C00700D000BEA8F58040A88004B0BDE837
S31508003850F087A5F1400640F60F7A03E0B5F90400B3
S315080038604045E5DCA88800F00F0436F824703804D3
S315080038700BD5380518D436F8240000EA0A0080303B
S3150800388026F82400204600F019FA3806E6D536F858
S31508003890240000EA0A0000F5004026F82400204625
S315080038A000F0F6FADAE700BF204600F0B3FA380669
S315080038B0D4D5ECE7411C490800F11F0240F6201355
S315080038C03E2888BF51094FF00202C2F2000388BFA2
S315080038D020221888C9B211FB02018AB2B2F5007F0C
S315080038E0198098BF70474EF6F050CEF20000006877
S315080038F0C00704BF4FF6FF7070474FF6FF7000BE53
S3150800390070470000002A08BF704746F2000CC4F250
S31508003910000C0023B3EB520F0CEB410309D05108FE
S31508003920043B00BF33F804CF013920F802CBF9D1A4
S315080039300433D1071CBF198801707047002A08BFD5
S3150800394070472DE9F04784B08A4601A91646814694
S3150800395001F03EF9BDF80450B54288BF3546701BE4
S31508003960BDF8064081B2A14238BF0446029E25F042
S315080039700107304651463A4604EB0508FFF7C2FFF1
S31508003980E80707EB0A0501D1039817E0A9B20DF17C
S3150800399002000222FFF7B6FFBDF802000235F05515
S315080039A0010A03982204ADF8021007D0BDF80210E8
S315080039B0013C00F8011B090AADF80210A9B2A2B22F
S315080039C0FFF7A0FF1FFA88F1484601F07FF804B018
S315080039D0BDE8F0477047000080B50020802100222E
S315080039E00023FFF769FC80BD45F64040C4F200009D
S315080039F0028822F4007261F34922028070470000AF
S31508003A002DE9F04F81B0054646F2000900896A891A
S31508003A10C4F200090C46A9F58068801AAE8938F800
S31508003A2024B081B2B14238BF06460BF4C06A0027FB
S31508003A302001BAF5806F08BFCBF3801740EAC700AC
S31508003A4030F80910686818B1B2B200F047F806E015
S31508003A5028688318B2B20846194600F023F8688920
S31508003A60BAF5806F3044688109EB041000EBC70093
S31508003A7081886FF39F2601F47C413144818004BF1D
S31508003A800120E87340F63F7000EA0B0048F2B001E7
S31508003A90484028F824000020FFF746FE01B0BDE89C
S31508003AA0F08F0000002A08BF704746F2000CC4F2E7
S31508003AB0000C0023B3EB520F0CEB400309D050085F
S31508003AC0043B00BF31F802CB013823F804CFF9D103
S31508003AD00433D0071CBF087818807047002A08BF2F
S31508003AE070472DE9F04784B08A4601A916468146F3
S31508003AF001F030F8BDF80450B54288BF3546701B52
S31508003B00BDF8064081B2A14238BF0446029E25F0A0
S31508003B100107504631463A4604EB0508FFF7C2FF4F
S31508003B20E80707EB0A0501D1039E15E0F05D039E41
S31508003B302104ADF8020008D016F8010BBDF80210F2
S31508003B40013C41EA0020ADF80200A8B20DF10201DD
S31508003B500222FFF7A7FF0235A8B2A2B23146FFF745
S31508003B60A1FF1FFA88F1484600F0A4FF04B0BDE89B
S31508003B70F047704710B5002000210024FFF7B6FB78
S31508003B8080200021FFF7B2FB40F6C440C2F20000D5
S31508003B90402181818473818384774020FFF78AFEE0
S31508003BA004464020FFF786FE45F60041C4F20001B0
S31508003BB0A1F80844A1F80004088847F270021040EA
S31508003BC042F22022504046F20C02C4F200024FF4A0
S31508003BD080531380088010BD70B50A4640F6C4416C
S31508003BE0C2F2000101EB401000EB0210817B012AB2
S31508003BF002D1FFF705FF70BD46F2000CC4F2000CB7
S31508003C00ACF5806E4EEA81031B880289848943F6E7
S31508003C100F75A24238BF1446621C04F11F005208F1
S31508003C203E2C88BF4209D6B24FF0FF3088BF50FA03
S31508003C3082F6B0023E2C4FF4004403F4C06288BFFB
S31508003C4044EA8620040404BF48F20000CFF6FF7059
S31508003C50B2F5806F04BF0CEB011290800CEB0112D9
S31508003C602B4090814BF2800058402EF8210000200E
S31508003C70FFF75AFD70BD000010B545F64C44C4F276
S31508003C8000040020208040F60010C2F2000003382D
S31508003C9008214FF6FF7200BFC0F80320013900F172
S31508003CA00400F9D140F62010C2F20000402101803C
S31508003CB0FFF760FF8020208010BD00002DE9F04F3F
S31508003CC083B046F20002C4F20002A2F5806939F810
S31508003CD02060824606F4C06B0120BBF5806F08BFE2
S31508003CE020EA96304FEA0A1141EAC00081188D8809
S31508003CF0815A40F6C44206F00F07C2F2000202EBF0
S31508003D004718D8F804006FF39F2518B12A46FFF71D
S31508003D1015FE07E078011058B8F80A2010442A461C
S31508003D20FFF7F0FD444634F80A1F608829448542A7
S31508003D30218039D3B8F808208BB29A4234D9BBF51A
S31508003D40806F26D0511A8AB2824238BF084681B29D
S31508003D5000F11F02013040083E2988BF5009C2B24F
S31508003D604FF0FF3388BF53FA80F290023E294FF492
S31508003D70004388BF43EA8220010446F20001C4F2E8
S31508003D80000101EB0A1104BF48F20000CFF6FF70EC
S31508003D90888143F60F7030404BF28001484029F87D
S31508003DA02A0003B0BDE8F08F421C00F11F0152083B
S31508003DB03E2888BF4A09D1B24FF0FF3388BF53FA6D
S31508003DC082F18A023E284FF4004388BF43EA8122E3
S31508003DD0100446F20000C4F2000000EB0A1004BF0B
S31508003DE048F20002CFF6FF72828120884FF4E06124
S31508003DF0ADF8001002900025684601218DF8047080
S31508003E008DF80550FFF7D2FA2580A8F8085003B0B8
S31508003E10BDE8F08F70B586B046F20006C4F200061B
S31508003E20044606EB0010858901896FF39F256846CD
S31508003E302A46FFF767FD4FF6004106EB8400CFF6EA
S31508003E40FF71425A40F60F731A408032082D4252CB
S31508003E500DD14FF4C060ADF80C00DDE90010CDE9D6
S31508003E60041003A80121FFF7A1FA06B070BD4EF6AB
S31508003E70F050CEF200000068C00700D000BE46F23F
S31508003E800C00C4F200004FF48051018006B070BDEA
S31508003E9010B584B045F6004CC4F2000C3CF820304E
S31508003EA040F6C44103F00F0EC2F2000103F4C062EB
S31508003EB0B2F5806F01EB4E1212D1114611F81F4F61
S31508003EC014B300240C70012121EA93110CEB0013A2
S31508003ED003EBC101B1F8043403F47C43A1F80434BC
S31508003EE0118B538B994211D10EF180004FF4E0618A
S31508003EF08DF808000020ADF804108DF8090001A817
S31508003F0001210393FFF752FA04B010BD103281B2B3
S31508003F101046FFF775FD04B010BD000070B50D46DC
S31508003F20496906460846144601F0F8F96B693046B1
S31508003F3001212246984770BDFDF7BAFBFCF7E0FA67
S31508003F40FCF7EEFAFCE700002DE9F04182B00546E1
S31508003F5000200C4601F0E2F92078C0F3411102294D
S31508003F600AD0032915D14EF6F050CEF200000068AB
S31508003F70C00734D10026CAE145F2F510C0F60000A4
S31508003F8001F0CCF928460121224601F033F906460C
S31508003F90BDE100F01F01022924D0012940D00029E3
S31508003FA056D100F0600020285BD120790F2800F256
S31508003FB0868040F29C21C2F20001084440F20421A6
S31508003FC0C2F2000100790978884280F0848040F2C4
S31508003FD00021C2F20001096800EBC00059E100BEE9
S31508003FE0002694E1A18801F00F02082A58D240F26F
S31508003FF09C28C2F20008C9B208EB420240F2042328
S3150800400002EBD112C2F20003127D1B789A4258D2F3
S3150800401040F20023C2F200031B6802EBC20268E00A
S3150800402020790F2846D840F29C21C2F200010844A4
S3150800403040F20421C2F2000100790978884245D28B
S3150800404040F20021C2F20001096800EBC00078E0E6
S315080040504EF6F050CEF200000068C0072CD10026BC
S3150800406055E16078092800F28B80DFE800F0057CCE
S31508004070899389A0B089B9C340F29C20C2F2000096
S3150800408000780222C0F3401102EA90000844ADF815
S31508004090040001AA28462146022300F02DFE35E138
S315080040A04EF6F050CEF200000068C00700F00B8113
S315080040B000BE08E100262AE100BE002627E1002608
S315080040C025E1D21A13060CD0002614E0401A010680
S315080040D02FD0002137E0401A010600F0D2800021D7
S315080040E0D9E0D3B2DB0053FA82F245F6A003C0F654
S315080040F0000303EB820610F0600F09D0002E00F0D3
S31508004100E280284631462246FFF708FF0646DBE0EE
S315080041106078032818BF012840F091806288002A39
S3150800412040F0DA80012840F0D480002001F096F9AA
S31508004130D2E0C1B2C90051FA80F045F6A001C0F636
S31508004140000101EB800161B128462246FFF7E6FE31
S31508004150002840F0DB80207810F0600F7DD0002624
S31508004160D5E00026D3E06088012840F09D8040F223
S315080041709C20C2F20000017801F0F7010170C1E04D
S315080041804EF6F050CEF200000068C00740F08E8070
S315080041900026BCE06088012840F08B8040F29C2015
S315080041A0C2F20000017841F008010170AAE0204639
S315080041B001F0BAF8A1782846FFF70EFC40F29C20D9
S315080041C0C2F20000017841F0020101709EE0284623
S315080041D0214600F0ADF8002840F09880002696E0C9
S315080041E040F29C20C2F2000040780DF107028DF8DB
S315080041F0070040E040F29C27C2F20007A6787878CC
S31508004200B04200F07F80787868B128460021FFF731
S31508004210EBFB2846FEF792FF97F802802846FEF742
S31508004220B1FE87F80280002E7E7069D02846314696
S3150800423000F0DEF800286FD000F010FE62E0D0BB78
S315080042400020002701F08AF9ADF800006A462846E2
S315080042502146022300F050FD37E00020002601F039
S315080042605DF860780B284DD00A2850D100200DF152
S3150800427003028DF8030028462146012300F03CFD81
S3150800428044E0C1B2C90051FA80F045F6A001C0F673
S31508004290000101EB800129B128462246FFF73EFEC0
S315080042A0064634E0002632E0002630E000BE00264E
S315080042B02DE000262BE04EF6F050CEF20000006806
S315080042C0C00700D000BE00260127002F08BF012620
S315080042D01DE0002001F022F986B128463146224623
S315080042E0FFF71CFE0020002701F018F898F82500B3
S315080042F0C00704D12846214600F0ECFC0027E4E775
S3150800430000F072FF2846214600F0E4FC012606F07C
S31508004310010002B0BDE8F08100264EF6F0507E702E
S31508004320CEF200000068C007F1D000BE0026EEE716
S31508004330B0B54A8805464FF0FF300C4600EB12210F
S315080043400E294FF0000088BFB0BDDFE801F0081263
S315080043502132322933323232323232323A0000F0E6
S315080043601BFDC0B3024628462146122300F0C4FCB2
S31508004370B0BDD0B200F00AFD024600BB4EF6F050C2
S31508004380CEF200000068C0072CD0002000BEB0BDE9
S31508004390A188D0B200F00AFD20B30378024615E0E2
S315080043A000F000FDF0B1037802462846214600F0E9
S315080043B0A3FCB0BDD0B200F0F7FC024690B153881A
S315080043C004E000F0DDFC68B1438802462846214631
S315080043D000F092FCB0BD4EF6F050CEF20000006838
S315080043E0C00701D10020B0BD002000BEB0BD00004E
S315080043F02DE9F04F87B00590481EC0B200F0C6FC04
S31508004400002800F00E814178022940F00A8140F226
S315080044109C26C2F20006C1793278102303EA5103BA
S3150800442002F0CF021A44202303EA510111443170E5
S3150800443041884EF6F05400F109050144CEF2000415
S31508004440019106E00120049DDDE90112002840F0F3
S31508004450F4802A468D4280F0F08050780B2805D1EA
S31508004460107892F80380151803E000BF4FF0010892
S3150800447015466878042840F0AF8040F20420C2F25E
S31508004480000000780292FF2800F0B580491B89B227
S31508004490069141464FF0000B4FF00009B8F1000FA6
S315080044A018BF012103910495C1B28B450AD240F287
S315080044B00020C2F2000000680BEBCB0100EB810084
S315080044C038B949E0ABEB0000010639D000200028D6
S315080044D042D0069C0369059829462246B246984763
S315080044E0074609284FF000003ED3BC42564641D342
S315080044F0B8F1000F43D003994EF6F0540020CEF2DF
S31508004500000400BFAA78024456FA82F313F8042F6F
S31508004510FF2A05D02368DB0704D000BE02E000BFEF
S3150800452083F800B0FF2A53D10130C1B241454FF09C
S31508004530000138BF0121E5D31920C90727D037E084
S31508004540C1B2C90051FA80F045F6A001C0F60001D3
S3150800455001EB80000028BCD12068C00701D10120EA
S3150800456026E000BE012023E04EF6F054CEF2000409
S3150800457056461DE04EF6F054CEF2000418E00399B4
S315080045804EF6F0541920CEF20004C90710D106F1F0
S3150800459014005FFA8BF329463A4600F05FF8049850
S315080045A04EF6F05438445646CEF2000404901020D5
S315080045B0E0B940F20420C2F2000000780BF1010BCA
S315080045C0411CC9B28B4509F10109FFF46DAF15E02D
S315080045D00120C907DBD0EBE72068C00702D101201C
S315080045E034E700BF00BE012030E700BF10287FF483
S315080045F02AAFD94602E04FF00009049540F204209C
S31508004600C2F2000000785FFA89F10130C0B2814237
S3150800461001D2002017E72068C0073FF413AF00BE99
S3150800462010E74EF6F050CEF200000068C00700D042
S3150800463000BE002007B0BDE8F08F00208A4228BFE0
S31508004640012007B0BDE8F08F80B50978802222EAFC
S3150800465001010022002300F091FF80BD10B5002A59
S3150800466008BF10BD01EB020C04E000BF0A78114434
S3150800467061450AD24A78052AF8D18A7802F00F0EDF
S31508004680D40900EB4E021355F0E710BD0178C907AF
S315080046900DD1017849070AD40178C90709D10178EB
S315080046A0012201F0040182EA910141B103E00020F0
S315080046B07047002119B1027842F0040202700846D8
S315080046C0704700000178490702D4002149B104E087
S315080046D00178012222EA010119B1027802F0FB02EF
S315080046E002700846704700000120704770B582B016
S315080046F0044600789C46069B00F0FE00079A08448C
S31508004700DDE90865207004F1080019460123CDF893
S3150800471000C000F0EDF966600120658002B070BD4A
S3150800472070B515460C46064601F108009AB22946A8
S3150800473000F098FA05463046214600F003F8284668
S3150800474070BD0000F0B581B00C468989277805460A
S3150800475069B104F10806304600F088FAB9074FF443
S31508004760007758BF4027874217D900265FE0F80729
S3150800477029D16178284600F061FE40B32078C00749
S3150800478029D163886178002B14BF62680022284605
S3150800479000F0F4FEF8B1668849E02078C00714D125
S315080047A06178284600F04AFE98B1304600F05EFA75
S315080047B0874219D92078C00735D16178284600F094
S315080047C09DFE002633E0002631E000262FE0002675
S315080047D02DE000262BE04EF6F050CEF200000068E1
S315080047E0C0071DD1002622E0794266880840217854
S315080047F0B04238BF0646C80709D16178002E14BFF3
S31508004800626800222846334600F0B8FE78B94EF6AC
S31508004810F050CEF200000068C00706D1002606E078
S3150800482000BE002603E0002601E000BE0026304652
S3150800483001B0F0BD2DE9F04381B003B38046888905
S315080048401D4617460E46E8B106F10804AAB22046E8
S31508004850394600F03BFA35788146204600F05EF985
S31508004860A9074FF4007158BF4021814202D9B08987
S3150800487081423BD94046314600F03CF836E04FF0DD
S31508004880000933E03078C00727D17178404600F038
S31508004890D5FD28B3B6F802907068A94588BFA94621
S315080048A039464A46FBF7FFFC3078C0070BD17178CA
S315080048B05FEA094014BF726800221FFA89F340466E
S315080048C000F05CFE90B94EF6F050CEF2000000689B
S315080048D0C00708D14FF0000908E04FF0000905E0CD
S315080048E04FF0000902E000BE4FF00009484601B04B
S315080048F0BDE8F08370B501F10805044628460E4662
S3150800490000F00CF958B33078C00728D171782046E2
S3150800491000F094FD18B371687288284600F0A2F971
S315080049200546307800F001008DB130B971787268AB
S3150800493020462B4600F022FE78B94EF6F050CEF20D
S3150800494000000068C0070AD0002000BE70BD30B95C
S315080049507178204600F0D2FD0025284670BD00205B
S3150800496070BD000070B50D4609782B8A6C8A06461C
S315080049704FF000004AB3A34218BF70BD880740F243
S31508004980FF1058BF3F20104001F0010108431DD118
S315080049906978304600F052FDC0B12878C00709D1C1
S315080049A0697830460022002300F0E8FD00281CBF85
S315080049B0012070BD4EF6F050CEF200000068C00728
S315080049C004BF002070BD002000BE70BD002070BD71
S315080049D0C378B0F804C003F00303032B6FF3DF2C8E
S315080049E01BD0022B2ED0012B1CBF0020704740F293
S315080049F0FF30022908BF4FF48060604524BF0120BC
S31508004A0070474EF6F050CEF200000068C00704BFAB
S31508004A1000207047002000BE70474020022908BFCA
S31508004A204FF48060604524BF012070474EF6F05071
S31508004A30CEF200000068C00704BF002070470020BF
S31508004A4000BE7047022910D1BCF5007F04BF0120C3
S31508004A5070474EF6F050CEF200000068C00704BF5B
S31508004A6000207047002000BE7047BCF5007F04D1C7
S31508004A701AB14021818001207047ACF1080081B24B
S31508004A80400340EAD10081B2082907D2C0B28B217F
S31508004A9021FA00F0C0071CBF012070474EF6F050FF
S31508004AA0CEF200000068C00704BF0020704700204F
S31508004AB000BE704710B50446808862890B461146C9
S31508004AC01A46FEF74FFA608110BD000010B504467D
S31508004AD0808822890B4611461A46FEF743FA20813A
S31508004AE010BD000000220146428101200A8170475C
S31508004AF0B2F5004F0BD8DDF800C06FF3DF33016065
S31508004B006CF3CF3300218280C3804181018100206C
S31508004B10B2F5004F98BF01207047000081880289CE
S31508004B204089101A38BF00EB410082B28A4228BF7A
S31508004B30084680B270470000818802894089101AA9
S31508004B4038BF00EB410082B200208A4228BF01200C
S31508004B5070470000B0B502894389B0F804E0B2EBAB
S31508004B60030C38BF0CEB4E0C1FFA8CF4744506D9AF
S31508004B707346964598BF5B421344F44643815FEA01
S31508004B800C4417D094B27445A2EB0E02FAD200BFB9
S31508004B909DB21A467545A3EB0E03F9D20068AC42DE
S31508004BA010FA82F34B600AD90020A1F800C04880A9
S31508004BB08860B0BD0020C1E900008860B0BDAEEBDA
S31508004BC002020A80ACEB02024A808860B0BD00008F
S31508004BD070B505894389B0F804E0EA1A38BF02EBD4
S31508004BE04E0296B2B645324688BF72461AD9A2EB2D
S31508004BF0060C00BFACB22A467445A5EB0E05F9D2E1
S31508004C009EB21D467645A3EB0E03F9D20068A6426E
S31508004C1010FA82F34B600AD9A81A08800020488047
S31508004C20886070BD0020C1E90000886070BDAEEBE9
S31508004C3002020A80ACEB02024A80886070BD00005E
S31508004C40B0B5028943890446FEF7DCF8A288618973
S31508004C50054610462A46FEF785F90146284661812B
S31508004C60B0BD000080B5FEF713F980BD81880289C2
S31508004C704089101A38BF00EB410082B2914288BFC2
S31508004C800A46101A80B2704770B5058904460E4662
S31508004C90FFF752FF30B1B4F90600B0F1FF3FC4BFC9
S31508004CA0002070BDA08829468AB28242A1EB000185
S31508004CB0FAD220463146FEF773F8A0882946012223
S31508004CC00125FEF74FF92081284670BD80B5FEF70D
S31508004CD0F3F880BD80B5D1F800C04B6840F2482291
S31508004CE0C2F200024FF0000EC2E900C3C2E902EEAA
S31508004CF0FFF7AAFC80BD0000B0B5D1F800C0D1F816
S31508004D0004E040F24825C2F20005C5E900CE0024B9
S31508004D10EC81CC88AA609C4298BF2346AB815CB1E3
S31508004D20E2B9DBB14EF6F050CEF200000068C007DB
S31508004D3012D0002000BEB0BDFFF786FC00281CBFBD
S31508004D400120B0BD4EF6F050CEF200000068C00754
S31508004D5004BF0020B0BD00BE0020B0BDFEF76CF950
S31508004D6000281CBF0120B0BD4EF6F050CEF2000060
S31508004D700068C00704BF0020B0BD002000BEB0BD5B
S31508004D8045F6E800C0F600007047000045F61C101E
S31508004D90C0F600007047000045F60A10C0F600008D
S31508004DA070470000002070470020704710B5044681
S31508004DB0FDF7C0FB44B3032C84BF002010BD40F2AE
S31508004DC01800C2F2000050F824402046FBF74CFABF
S31508004DD010F0E00F18BF1F2001060ED040F25C222B
S31508004DE0C2F20002C1B2023A631E00BF13F8014FB5
S31508004DF00139948002F10202F8D1C0B2022101EB16
S31508004E00400040F440710CE040F21800C2F2000085
S31508004E10006840F25C210088C2F2000148804FF425
S31508004E20417140F25C20C2F20000018010BD000012
S31508004E3080B540F21400C2F200000078FEF72CF9A3
S31508004E40012080BD7047000040F21400C2F2000045
S31508004E500078FF3818BF01207047000080B5012090
S31508004E60FDF7ACFB80BD000080B5FDF7E3FB80BD18
S31508004E702DE9F04381B00D460446FFF7E5FF18B16A
S31508004E80012001B0BDE8F083002D65D040F29C20DA
S31508004E90C2F200003421FBF74BFA40F2943040F29C
S31508004EA00406C2F200000021C2F200060170301D9D
S31508004EB0FFF718FE40F2D020C2F20000066040F26A
S31508004EC00426C2F20006304600F016FA317840F29F
S31508004ED00028C2F20008FF29C8F8000045D030783B
S31508004EE0FF282BD045F6A0090027C0F6000900BF09
S31508004EF0C2B2F9B2914209D2D8F80000C90051FAF3
S31508004F0087F100EB810078B938E000BF381A01064E
S31508004F1002D0002040B931E0C1B2C90051FA80F090
S31508004F2009EB800050B300BF406838B3804730783B
S31508004F300137421CF9B2D2B29142D9D340F21400D9
S31508004F40C2F20000047020462946FEF7A1FBF0B124
S31508004F502046FEF7E9FB93E74EF6F050CEF2000046
S31508004F600068C0071BD000BE19E04EF6F050CEF21E
S31508004F7000000068C00712D000BE10E04EF6F050E0
S31508004F80CEF200000068C00709D000BE07E04EF662
S31508004F90F050CEF200000068C00700D000BE002026
S31508004FA001B0BDE8F08300007047000080B5FDF74A
S31508004FB00FFB80BD2DE9F04F85B0FFF745FF0028B0
S31508004FC000F00F8140F2040840F2D027C2F2000830
S31508004FD0C2F20007D8F800103C68002088470DF197
S31508004FE00809201D4946FFF72BFED8F8001005468C
S31508004FF001208847002D00F0F4804EF6F05B40F261
S315080050009C2440F2943540F2042ACEF2000B09F1B2
S315080050100400C2F20004C2F20005C2F2000A0190BE
S3150800502011E000BFD8F800103E6800208847301D00
S315080050304946FFF705FED8F80010064601208847BE
S31508005040002E00F0CE809DF809000138072814D8F4
S31508005050DFE800F00B041920282E678B9DF808005E
S3150800506000F0D8FA00F0C0F8DCE79DF8080000F078
S31508005070D1FA9DF80C00A070D4E7DBF80000C00751
S31508005080D0D000BECEE7E078C007CBD00398FFF7B4
S315080050908BFFC7E72078C107C4D0C0F3C000FFF76D
S315080050A085FFBFE72078C007BCD0FFF7DDFEB9E76C
S315080050B02878002800F09080287801382870287809
S315080050C00028AFD1207840F00100207094F8240021
S315080050D000F0FE0084F8240094F8240000F0FB0099
S315080050E084F8240094F8250000F0FE0084F82500D2
S315080050F094F8250000F0FB0084F825009DF80800C8
S315080051000199FEF721FF00287FF48CAF9DF808006F
S315080051100021FEF7A1F89DF808008021FEF79CF80B
S3150800512080E79DF80C1011F00F0004EB400000EB2F
S31508005130D11292F8243003F0FE0382F8243092F854
S31508005140243003F0FB0382F8243015D0CA09104432
S31508005150007D9AF80020904216D240F20022C2F250
S315080051600002126800EBC00021E0039900293FF411
S3150800517059AF0498884755E79DF808009DF80D2013
S31508005180049B00F0DDF84DE7801A020607D00026DA
S315080051908EB9DBF80000C0071AD000BE18E0C2B20C
S315080051A0D20052FA80F045F6A002C0F6000202EBE1
S315080051B08006002EEDD02C46B5699DF808009DF8AE
S315080051C00D20049BA847254640F29C24C2F2000401
S315080051D0002E7FF427AF04E0DBF80000C00700D0FC
S315080051E000BE05B0BDE8F08F80B50020FDF7E6F9F2
S315080051F080BD000080B501291CBF012080BD117843
S3150800520001F0600140290FD1517801290CD191880C
S31508005210072909D145F63C13C0F6000311461A467C
S315080052209E23FFF769FD80BD002080BD00281CBFB6
S315080052300020704780B540F21841C2F20001AC2246
S3150800524010FB02106030FFF769FC80BD00281CBF08
S315080052500020704740F21841C2F20001AC2210FB50
S31508005260021393F85930002B1CBF0120704710FB1E
S3150800527002104079002818BF0120704700281CBF7B
S315080052800020704780B540F2184C13460A46C2F211
S31508005290000CAC2110FB01C000F158010020FFF7FB
S315080052A03FFA80BD00281CBF0020704780B58C4699
S315080052B040F21841C2F20001AC2310FB0310011D95
S315080052C093B200206246FFF7B5FA80BD00281CBFDE
S315080052D00020704780B540F21841C2F20001AC22A6
S315080052E010FB0210011D0020FFF704FB80BD000023
S315080052F070470000704700000146002200200A702F
S315080053007047000040F24820C2F200000021C0E9C0
S315080053100011C0E9021101617047000040F24821FE
S31508005320C2F20001086170470168406840F24822ED
S31508005330C2F200020023C2E90010C2E90233704734
S3150800534070B540F24825C2F2000595F900201E46C0
S31508005350514049B2B1F1FF3F044628DD002A08D47E
S31508005360A86860B340F20821C2F200013246FAF793
S315080053709AFFE889A96830443144402EE881A9603B
S315080053801FD3E98880B281421BD02046FDF754FE20
S3150800539000281CBF012070BD4EF6F050CEF200006A
S315080053A00068C00704BF002070BD00BE07E04EB30A
S315080053B04EF6F050CEF200000068C00731D100204A
S315080053C070BD2B693BB140F24822C2F2000220466A
S315080053D00221984740B340F24821C2F20001204614
S315080053E0FFF732F900281CBF012070BD4EF6F050B9
S315080053F0CEF200000068C00704BF002070BD002080
S3150800540000BE70BD20462946FDF748FE2B699BB1B4
S3150800541040F24822C2F200022046032198470120A2
S3150800542070BD002000BE70BD20460021FDF714FFA8
S3150800543020468021FDF710FF012070BD80B540F29F
S315080054409C2201F00F00C2F2000202EB400000EBC2
S31508005450D11024300021FFF719F980BD10B540F2AC
S315080054601400C2F2000000780C46FDF72BFE40F24D
S315080054709C2104F00F00C2F2000101EB400000EB92
S31508005480D41090F8241001F0FD0180F8241090F84B
S31508005490241001F0FE0180F8241010BDB0B58878FC
S315080054A0000714D440F21400C2F20000057840F256
S315080054B09C20C2F200000C46817820460022FFF7A5
S315080054C087FA70B128462146FDF75AFEB0BD4EF65A
S315080054D0F050CEF200000068C00709D0002000BED8
S315080054E0B0BD4EF6F050CEF200000068C00701D1FC
S315080054F00020B0BD002000BEB0BD000080B540F25F
S315080055009C2201F00F00C2F2000202EB400000EB01
