S01A000064656D6F70726F675F73746D3332633037312E737265639A
S3150800800000600020E1830008C1830008C3830008DC
S315080080100000000000000000000000000000000052
S31508008020000000000000000000000000C5830008F2
S315080080300000000000000000C7830008C98300088C
S31508008040318400083184000831840008318400082E
S31508008050318400083184000831840008318400081E
S31508008060318400083184000831840008318400080E
S3150800807031840008318400083184000831840008FE
S315080080803184000800000000000000003184000868
S31508008090000000003184000831840008318400089B
S315080080A031840008318400083184000831840008CE
S315080080B031840008000000000000000000000000F5
S309080080C0EE11AA55B0
S315080080C410B5064C2378002B07D1054B002B02D09C
S315080080D4044800E000BF0123237010BD0C000020F3
S315080080E400000000C48C0008044B10B5002B03D014
S315080080F40349044800E000BF10BDC0460000000064
S3150800810410000020C48C0008002243088B4274D354
S3150800811403098B425FD3030A8B4244D3030B8B4276
S3150800812428D3030C8B420DD3FF22090212BA030C7F
S315080081348B4202D31212090265D0030B8B4219D360
S3150800814400E0090AC30B8B4201D3CB03C01A524180
S31508008154830B8B4201D38B03C01A5241430B8B42C8
S3150800816401D34B03C01A5241030B8B4201D30B03B1
S31508008174C01A5241C30A8B4201D3CB02C01A5241D8
S31508008184830A8B4201D38B02C01A5241430A8B429B
S3150800819401D34B02C01A5241030A8B4201D30B0284
S315080081A4C01A5241CDD2C3098B4201D3CB01C01A9E
S315080081B4524183098B4201D38B01C01A52414309A8
S315080081C48B4201D34B01C01A524103098B4201D396
S315080081D40B01C01A5241C3088B4201D3CB00C01A03
S315080081E4524183088B4201D38B00C01A524143087B
S315080081F48B4201D34B00C01A5241411A00D20146A0
S31508008204524110467047FFE701B5002000F006F812
S3150800821402BDC0460029F7D076E770477047C046C6
S3150800822410B500F037F800F005F810BD10B500F0E9
S3150800823409F810BD10B5A02000222021C00500F0C1
S3150800824473FA10BD10B500F026F804000F4B1B682E
S31508008254C31AFA22520093420ED30D4B1B78002BF5
S315080082640BD10B4BF43AFF3A1A70A0202021C00513
S3150800827400F05AFA054B1C6010BD054B00221A7013
S31508008284A0202021C00500F04FFAF3E72C000020B7
S3150800829428000020704710B500F00EF910BD000044
S315080082A4014B024A936070470080000800ED00E025
S315080082B470B588B01422002103A800F0D5FC114B30
S315080082C45A6B20252A435A635A6B2A400192019A0B
S315080082D45A6B012422435A635B6B23400293029B25
S315080082E4A026F60500222021300000F01DFA039589
S315080082F4049400230593069303A9300000F036F985
S3150800830408B070BD0010024072B6FEE700B58FB023
S315080083142022002106A800F0A7FC1422002101A8A7
S3150800832400F0A2FC11490B6807229343063A13434B
S315080083340B60069280235B02079306A800F0FAF9FD
S3150800834400280FD107230193063B029300230393C6
S3150800835404930593012101A800F0B6FB002803D174
S315080083640FB000BDFFF7D0FFFFF7CEFF0020024095
S3150800837410B5FFF795FF00F087F8FFF7C7FFFFF77B
S3150800838497FFFFF74DFFFFF751FFFCE782B00A4B53
S31508008394196C012211431964196C0A400092009A57
S315080083A4DA6B802149050A43DA63DB6B0B400193D8
S315080083B4019B02B07047C04600100240FEE7FEE784
S315080083C47047704710B500F06BF810BD024B802259
S315080083D412059A607047C04600ED00E00D488546D0
S315080083E4FFF7F4FF002103E00B4B5B5843500431BD
S315080083F40A480B4B42189A42F6D30A4A02E000236B
S3150800840413600432084B9A42F9D300F035FCFFF79F
S31508008414AFFFFEE700600020248D0008000000205E
S315080084240C0000200C00002034000020FEE70000A9
S3150800843410B50400114B1978002901D1012010BD8B
S31508008444FA208000FFF760FE01000D4B1868FFF75D
S315080084545BFE00F087F800280DD1032C01D9012012
S31508008464EDE7013000222100404200F077F8054B81
S315080084741C600020E3E70120E1E7C0460400002071
S31508008484000000200800002010B50320FFF7D0FFE5
S31508008494041E02D00124200010BDFFF777FFFAE777
S315080084A4034B1B78034A11685B1813607047C04670
S315080084B40400002030000020014B18687047C046AD
S315080084C43000002070B5002811DB8308134DC03333
S315080084D49B005C5903221040C000FC3216008640FB
S315080084E4B44389010A40824022435A5170BD0F237E
S315080084F40340083B9B0806339B00094A9446634499
S315080085045C6803221040C000FC3215008540AC4369
S3150800851489010A40824022435A60E7E700E100E005
S3150800852400ED00E0013880235B0498420FD2094A23
S3150800853450600948036A1B021B0AC02109060B433B
S3150800854403620023936007331360002070470120F9
S31508008554FCE7C04610E000E000ED00E010B5FFF7C8
S31508008564B1FF10BD10B5FFF7DDFF10BDF0B5D64657
S315080085744F464646C0B500233BE0052500E00025E6
S31508008584A5402C003C43634D183292005451802276
S31508008594AF584A46D2433D004C46A5434C68E403CB
S315080085A402D53D004C4625435A4C8027E55184257F
S315080085B467593D0015404C68A40302D53D004C4656
S315080085C42543544C8427E55127683D0015404C68DB
S315080085D4E40202D53D004C4625434E4C25606568A9
S315080085E42A404C68A40201D54A462A43494C62608B
S315080085F401330C682200DA4000D186E001229A4051
S3150800860426001640B1461442F2D04C68022C01D01A
S31508008614122C18D1DD080835AD002C58A4460727B6
S315080086241F40BF000F24A2462600BE40B046664639
S315080086344446A643B4460C69564626403400BC4014
S31508008644664634432C500468A4465D000324A246B7
S315080086542700AF40B846FF4366464446A643B44699
S315080086644C68564626403400AC406646344304609B
S315080086744C68661E012E03D9112C01D0122C12D176
S3150800868484683C40A446CC68AC406646344384605F
S31508008694446894434A68120994460122664632405D
S315080086A49A40224342604A68032A05D0C4683C407B
S315080086B48A68AA402243C2604A68D20098D59A08B2
S315080086C414001834A400134D675903241C40E4000D
S315080086D40F25A540AF43A025ED05A84200D14EE7D6
S315080086E40D4DA8420BD00D4DA8420AD00C4DA842F8
S315080086F409D00C4DA84200D13FE7062540E70125DD
S315080087043EE702253CE703253AE7E0BCBA46B1460C
S31508008714A846F0BD001802400004005000080050A6
S31508008724000C005000140050002A01D081617047E3
S315080087348162FCE770B5041E00D165E10368DB07B6
S315080087442CD5B74B9A6838231340082B22D0436894
S315080087548022520293422ED0A022D202934231D0D2
S31508008764AF4B1A68AF490A401A601A68AE490A40FC
S315080087741A606368002B31D0FFF79EFE0500A84BEC
S315080087841B689B030AD4FFF797FE401B6428F6D997
S3150800879403203AE14368002B00D137E123689B079D
S315080087A447D59F4B9B6838221A4261D1E368002B50
S315080087B422D1012029E19A4A116880235B020B43DE
S315080087C41360D6E7964B19688022D2020A431A60C8
S315080087D41968802252020A431A60CAE7FFF76CFE38
S315080087E405008F4B1B689B03D8D5FFF765FE401B16
S315080087F46428F6D9032008E1894B5A688B490A404C
S31508008804616909020A435A601A6889490A40216952
S315080088140A431A601B68DB0A07221A40854BD340B1
S31508008824854A1360854B1868FFF702FE002800D0B6
S31508008834EEE023681B0758D5794B9A68382313400A
S31508008844182B4ED0A369002B78D0754A136E0121D4
S315080088540B431366FFF730FE0500714B1B6E9B072F
S3150800886443D4FFF729FE401B0228F6D90320CCE09F
S31508008874E368002B22D06A4A13686D490B402169C4
S315080088840B431360116880235B000B431360FFF7E7
S3150800889413FE0500624B1B685B0506D4FFF70CFE46
S315080088A4401B0228F6D90320AFE05D494B685F4AAE
S315080088B413406269120213434B60BAE7584A1368B5
S315080088C45F490B401360FFF7F7FD0500544B1B681F
S315080088D45B05AED5FFF7F0FD401B0228F6D9032049
S315080088E493E0A369002B00D194E023685B073BD58A
S315080088F44B4B9A6838231340202B32D0A368012B9C
S315080089044CD0052B50D0464BDA6D01218A43DA65E3
S31508008914DA6D03318A43DA65A368002B4ED0FFF774
S31508008924CBFD05003E4BDB6D9B071DD4FFF7C4FD4D
S31508008934401B444B9842F5D9032066E0384A136E27
S3150800894401218B431366FFF7B7FD0500344B1B6EF5
S315080089549B07CAD5FFF7B0FD401B0228F6D90320AA
S3150800896453E0A368002B57D02368DB0656D5E36982
S31508008974002B34D02A4A11688023DB030B43136087
S31508008984FFF79AFD0400264B1B681B0225D4FFF744
S3150800899493FD001B0228F6D9032036E0204AD36D3E
S315080089A401210B43D365B7E71D4BDA6D04210A434E
S315080089B4DA65DA6D03390A43DA65ADE7FFF77CFD54
S315080089C40500174BDB6D9B07CED5FFF775FD401BDE
S315080089D41C4B9842F5D9032017E0002015E0104AED
S315080089E4136819490B401360FFF766FD04000C4B26
S315080089F41B681B0206D5FFF75FFD001B0228F6D984
S31508008A04032002E0002000E0012070BD0120FCE7FD
S31508008A140120FAE70120F8E70120F6E70020F4E749
S31508008A2400100240FFFFFEFFFFFFFBFFFF80FFFF72
S31508008A34FFC7FFFF006CDC020000002008000020CE
S31508008A44FFFEFFFF88130000FFFFBFFF10B51C4A97
S31508008A5413689B08072119400131936838221A4282
S31508008A6409D1174B1A68D20A072313401548D84068
S31508008A74FFF74AFB10BD124B9A6838231340082B9C
S31508008A8415D00F4B9A6838231340202B11D00C4B62
S31508008A949A6838231340182B0ED0094B9A68382342
S31508008AA41340102B01D00020E2E70648E0E705480A
S31508008AB4DEE780200002DBE7FA20C001D8E7C046DB
S31508008AC400100240006CDC0270B504000D0000289A
S31508008AD400D1B3E05B4B1A68072313408B4228D3B3
S31508008AE423689A0710D55B0707D557498A68574BF1
S31508008AF41A40B0231B0113438B60534A93685449A5
S31508008B040B40E1680B4393602368DB075BD54E4A49
S31508008B1413681C218B43A1680B4313606368012BFC
S31508008B241ED0002B39D1484A126852051CD401209C
S31508008B346CE0444A136807218B432B431360FFF701
S31508008B44BBFC06003F4B1A6807231340AB42C7D049
S31508008B54FFF7B2FC801B3F4A9042F3D9032055E045
S31508008B641268920300D46BE037498A680720824367
S31508008B7413438B60FFF7A0FC0600334B9B6838222F
S31508008B841A406368DB009A421DD0FFF795FC801BE8
S31508008B94304B9842F1D9032038E0022B07D0032B37
S31508008BA40BD0294AD26D9207DED401202EE0264A3C
S31508008BB412681202D8D4012028E0234A126E9207BA
S31508008BC4D2D4012022E01F4B1A6807231340AB4274
S31508008BD41DD823685B0706D51B4A93681E490B40B4
S31508008BE421690B439360FFF731FF174B9A68120A02
S31508008BF40F231340194A9B009A581F231340D84041
S31508008C04174B1860174B1868FFF712FC70BD0D4A0E
S31508008C14136807218B432B431360FFF74DFC0600AB
S31508008C24084B1A6807231340AB42D2D0FFF744FC1B
S31508008C34801B084B9842F3D90320E7E70120E5E7B0
S31508008C440120E3E70020024000100240FF84FFFFF2
S31508008C54FFF0FFFF88130000FF8FFFFFDC8C00087E
S31508008C64000000200800002003008218934200D167
S31508008C74704719700133F9E770B500260C4C0D4D91
S31508008C84641BA410A64209D1002600F019F80A4C60
S31508008C940A4D641BA410A64205D170BDB300EB5857
S31508008CA498470136EEE7B300EB5898470136F2E7E2
S31508008CB41C8D00081C8D0008208D00081C8D0008DA
S31508008CC4F8B5C046F8BC08BC9E467047F8B5C04619
S30D08008CD4F8BC08BC9E46704777
S31508008CDC000000000000000000000000000000007A
S31508008CEC000000000000000000000000000000006A
S31508008CFC0100000002000000030000000400000050
S31508008D0C060000000700000008000000090000002B
S30908008D1CED800008D0
S30908008D20C5800008F4
S31108008D24001BB70001000000040000005E
S705080083E18E
