S01F00006F70656E626C745F6F6C696D6578696E6F5F73746D33322E73726563C6
S3150800000000500020550500083D0500083F0500087A
S3150800001041050008430500084505000800000000E2
S31508000020000000000000000000000000470500086E
S3150800003049050008000000004B0500084D050008AA
S315080000409D0500089D0500089D0500089D050008FA
S315080000509D0500089D0500089D0500089D050008EA
S315080000609D0500089D0500089D0500089D050008DA
S315080000709D0500089D0500089D0500089D050008CA
S315080000809D0500089D0500089D0500089D050008BA
S315080000909D0500089D0500089D0500089D050008AA
S315080000A09D0500089D0500089D0500089D0500089A
S315080000B09D0500089D0500089D0500089D0500088A
S315080000C09D0500089D0500089D0500089D0500087A
S315080000D09D0500089D0500089D0500089D0500086A
S315080000E09D0500089D0500089D0500080000000004
S315080000F000000000000000000000000000000000F2
S3110800010000000000000000005FF808F195
S3150800010C10B5054C237833B9044B13B10448AFF337
S3150800011C00800123237010BD500000200000000051
S3150800012CD863000808B5034B1BB103490348AFF362
S3150800013C008008BD0000000054000020D8630008A9
S3150800014C034613F8012B002AFBD1181A01387047FD
S3150800015C01F0A2BC01F0B1BC4FF48052024B01284D
S3150800016C0CBF5A611A6170470010014070477047FE
S3150800017C08B5054B9B68DB0703D500F09DF80120F5
S3150800018C08BD0020FCE700BF00080140642000F011
S3150800019C6BB800F06FB8000000B5C7B04FF48C729E
S315080001AC0021684606F0CAF86946094803F086FE37
S315080001BC0346009848B19DF8082002F0100243EA5D
S315080001CC0200C0B2B0FA80F0400947B05DF804FBF3
S315080001DC296600080048704729660008002310B5F0
S315080001EC064C0A222046064984F8283203F0D0FA2F
S315080001FC10B9012384F8283210BD00BF6C0000200A
S3150800020CF063000808B5064890F82832012B01D18E
S3150800021C03F0A5FDBDE80840024803F06EBE00BF1A
S3150800022C6C00002029660008034890F82832012B38
S3150800023C01D103F094BD70476C00002010B5094C31
S3150800024C94F82832012B0CD1214603F0C9FE00285C
S3150800025C07DA002384F828322046BDE8104003F05C
S3150800026C7EBD10BD6C000020014B1880704700BF86
S3150800027CA002002010B501F0F5FA0B4C2368984241
S3150800028C0DD30A4B20211878094A48B90120187051
S3150800029C116101F0E7FA074B1B880344236010BD74
S315080002AC002018705161F4E79C0200209802002087
S315080002BC00080140A00200202022014B5A61704719
S315080002CC00080140054B82B09A6902439A619B6902
S315080002DC03400193019B02B0704700BF0010024017
S315080002EC224A10B5136823F0070343F00203136080
S315080002FC136803F00703022BFAD11D4C236843F449
S3150800030C8033236023689A03FCD5636823F47C1333
S3150800031C43F4E8136360236843F08073236023680F
S3150800032C9B01FCD5636823F0F0036360636823F4D0
S3150800033CE06343F480636360636823F4605363602B
S3150800034C636823F0030343F002036360636803F0F6
S3150800035C0C03082BFAD1074800F018FC002000F013
S3150800036C29F9636823F48003636010BD00200240FA
S3150800037C0010024000A24A04BFB5002400F03EF962
S3150800038CFFF7AEFF2020CDE90344FFF79BFF0420BF
S3150800039CFFF798FF0820FFF795FF1020FFF792FF4D
S315080003AC20231D4EDFF8748073614FF48053C8F810
S315080003BC143004231A4F40F2011201257B610823DD
S315080003CC01A93046CDE901234FF00209059500F045
S315080003DCFFFA42F2200301A93046CDE90135CDE9F1
S315080003EC039400F0F5FA0F4B01A94046CDE9013507
S315080003FCCDE9039400F0ECFA40F20443CDE901355B
S3150800040C032301A93846CDE9033400F0E1FAFFF7D6
S3150800041C9FFEFFF79FFEFCE7000801400010014015
S3150800042C0014014010001004104B82B09A6942F077
S3150800043C01029A619A6902F001020092009ADA693D
S3150800044C42F08052DA61DB69094A03F08053019362
S3150800045C019B536823F0E06343F080635360536851
S3150800046C23F0E063536002B0704700BF00100240EF
S3150800047C000001400268084B82B09A420AD103F583
S3150800048CDA33DA6942F40002DA61DB6903F4000351
S3150800049C0193019B02B07047005C00400268044B54
S315080004AC9A4201BF034AD36923F40003D361704708
S315080004BC005C00400010024008B500F00FFB17481E
S315080004CC00F036FA164800F033FA164800F030FAFF
S315080004DC154800F02DFA154BDA6922F40002DA6198
S315080004ECDA6922F00072DA619A6922F020029A61BE
S315080004FC9A6922F010029A619A6922F008029A61A6
S3150800050C9A6922F004029A61DA6922F08052DA6159
S3150800051C9A6922F001029A6108BD00BF00140140D5
S3150800052C00100140000C0140000801400010024078
S3150800053C7047FEE7FEE7FEE7FEE770477047704731
S3150800054C00F06EB870470000002103E00B4B5B58B7
S3150800055C435004310A480B4B42189A42F6D30A4ABE
S3150800056C02E0002342F8043B084B9A42F9D3FFF702
S3150800057CE9FF05F0F9FEFFF7FFFE7047C06C0008AF
S3150800058C000000205000002050000020AC1600206F
S3150800059CFEE7000010B54FF0FF320024044B1A6139
S315080005AC1C61DA60DC60FFF787FF204610BD00BFD0
S315080005BC0010024038B50E4B05461A784FF47A737C
S315080005CCB3FBF2F30B4A1068B0FBF3F000F076F8C5
S315080005DC044658B90F2D09D8024629464FF0FF3064
S315080005EC00F03CF82046044B1D6038BD0120FCE7A2
S315080005FC040000200000002008000020074A08B567
S3150800060C1368032043F01003136000F015F800205C
S3150800061CFFF7D0FFFFF708FF002008BD00200240B7
S3150800062C034A044B11681B780B441360704700BFD0
S3150800063CA40200200400002007490302CA6803F438
S3150800064CE06322F4E0621204120C134343F0BF6316
S3150800065C43F40033CB60704700ED00E0154B30B522
S3150800066CDC68C4F30224C4F10703251D042B28BF38
S3150800067C0423062D4FF0FF3594BF0024033C05FADE
S3150800068C03F321EA0303A54022EA0502A340002846
S3150800069C43EA0203ACBF00F16040074A4FEA031372
S315080006ACDBB2ABBF00F5614000F00F0080F80033F9
S315080006BC135430BD00ED00E014ED00E00138B0F144
S315080006CC807F0BD24FF0E023F021054A586182F85F
S315080006DC23100020072298611A6170470120704781
S315080006EC00ED00E0114AD36813F0100305D0104949
S315080006FCCB6943F00203CB611023D268500706D5A9
S3150800070C0B4943F00403CA6942F00102CA61074A5D
S3150800071CD169C90708D50648C16941F00401C16108
S3150800072CD16921F00101D161D360704700200240E4
S3150800073CA8020020064B186910F0800007D0054A5D
S3150800074C5A6002F188325A601869C0F3C0107047B3
S3150800075C0020024023016745034A0020136943F031
S3150800076C80031361704700BF0020024070B5054630
S3150800077C01F080F80646114CE368D80712D4E368F2
S3150800078C990644BF2023E360E368DA0606D4E369D6
S3150800079CDB0703D4E06810F0040007D0FFF7A2FFCC
S315080007AC012003E06B1CE7D00DB9032070BD01F0E6
S315080007BC61F8801BA842DFD9F7E700BF002002408A
S315080007CC2DE9F84FDFF894A01F469AF8183005461D
S315080007DC012B884691463FD001234CF250308AF8BB
S315080007EC1830FFF7C3FF90BB012D03D0022D14BFA1
S315080007FC0425022500263346DFF864B03401C4F11B
S3150800080C2001A4F1200207FA01F129FA04F4CAF826
S3150800081C1C300C4327FA02F21443DBF81020A4B25E
S3150800082C42F00102CBF810204CF2503028F8164052
S3150800083CFFF79CFFDBF8102022F00102CBF8102002
S3150800084C28B90136F2B295424FF00003D6D80023E8
S3150800085C8AF81830BDE8F88F0220FBE7A8020020BA
S3150800086C002002400022064BDA61064B1A6942F058
S3150800087C02021A6158611A6942F040021A617047FD
S3150800088CA8020020002002402DE9F041264F05461B
S3150800089C3B7E8846012B44D001243C7603684CF2F7
S315080008AC5030022B1AD1FFF761FF20B1012000232B
S315080008BC3B76BDE8F0811D4CF86123694CF250304B
S315080008CC43F004032361236943F040032361FFF7D4
S315080008DC4DFF236923F004032361E8E7FFF746FF7E
S315080008EC0028E3D14FF0FF33C8F800302046AE6835
S315080008FC0E4CD5E9023203EB8223B342D7D93046E4
S3150800090CFFF7B0FF4CF25030FFF730FF236923F0A6
S3150800091C0203236110B1C8F80060C8E706F58066C3
S3150800092CE7E70220C5E700BFA80200200020024026
S3150800093C224B98420BD103F58433DA6842F0040251
S3150800094CDA60DA6822F004020020DA6070471C4B81
S3150800095C984209D103F58233DA6842F00802DA6064
S3150800096CDA6822F00802EFE7164B984209D103F52C
S3150800097C8033DA6842F01002DA60DA6822F0100284
S3150800098CE2E7114B984209D103F57C43DA6842F049
S3150800099C2002DA60DA6822F02002D5E70B4B98427F
S315080009AC09D103F57843DA6842F04002DA60DA686E
S315080009BC22F04002C8E70120704700BF000801403A
S315080009CC000C0140001001400014014000180140C1
S315080009DC2DE9F04F0D680446C5F30F2595FAA5F2D7
S315080009EC0326B2FA82F204274FF0011C40F2011ECC
S315080009FC35FA02F001D1BDE8F08F012393402B4262
S31508000A0C6AD0072A88BFA2F10803D1F804A08ABFC6
S31508000A1C0CFA03F30EFA02F343F08063BAF1080FEB
S31508000A2C0ED1E0684FEA132898FAA8F9B9FA89F9A9
S31508000A3C20EA0808086900FA09F048EA0000E060AC
S31508000A4C4FEA136893FAA3F9B9FA89F993FAA3FB4F
S31508000A5C0F20BBFA8BFB4FEA890900FA09F954F8FF
S31508000A6C08004FEA8B0B20EA09090AFA0BFA49EA3D
S31508000A7C0A0A44F808A0486820F0080001282BD177
S31508000A8C93FAA3F9B9FA89F993FAA3F0B0FA80F0B4
S31508000A9C4FEA890906FA09F92AEA09094FEA800A86
S31508000AAC886800FA0AF049EA000044F8080093FA44
S31508000ABCA3F9B9FA89F993FAA3F3B3FA83F34FEACC
S31508000ACC890907FA09F920EA0909C8689B009840B8
S31508000ADC49EA000044F80800013289E7144B1A6801
S31508000AEC42F001021A601A689207FCD55A6822F07D
S31508000AFC03025A605A6812F00C0FFBD11A6822F0DE
S31508000B0C80721A60186810F00070FBD158601A6869
S31508000B1C22F450221A601A6822F0F80242F0800277
S31508000B2C1A6098605A6A42F080725A62704700BF1F
S31508000B3C00100240036870B55B0625D4D1E900366F
S31508000B4C33438E684C693343CE68056833430E6964
S31508000B5C0A6A33438E6923433343CE6925F47F45AA
S31508000B6C3343134325F0BF052B4303604368B2F5A3
S31508000B7C005F23F0040343EA1443436001D00020CA
S31508000B8C70BD8B8C0361FAE70120F9E7014B1860FD
S31508000B9C704700BF0000002070B50A4D287300F09E
S31508000BAC61FE00F13206AC6814F0010407D100F0BE
S31508000BBCE0FF00F057FEB042F5D9204670BD287B01
S31508000BCCC0B2FBE7003800400422024BFF201A6132
S31508000BDCFFF7E2BF0014014038B500F043FE00F5FC
S31508000BECFA75FF20FFF7D8FF044600F0C2FFFF2C6A
S31508000BFC03D000F037FEA842F3D3A4F1FF03584202
S31508000C0C584138BD0422084B10B5FF205A61FFF72E
S31508000C1CC3FFFFF7E1FF044618B9FFF7D5FF2046D7
S31508000C2C10BD0124FBE700BF0014014038B504468B
S31508000C3C0D46FFF7D1FF00B32846FFF7ADFFFD2D94
S31508000C4C1CD0A51C04F2022415F8020CFFF7A4FF0D
S31508000C5C023515F8030CFFF79FFFA542F4D1FF20C8
S31508000C6CFFF79AFFFF20FFF797FFFF20FFF794FF88
S31508000C7C00F01F00431F5842584138BD0120FCE7BD
S31508000C8C020670B505460E4608D500213720FFF733
S31508000C9CF7FF0128044631D805F07F05FFF794FFC6
S31508000CACFFF7B0FF70B345F04000FFF775FF300E45
S31508000CBCFFF772FFC6F30740FFF76EFFC6F3072070
S31508000CCCFFF76AFFF0B2FFF767FFCDB1082D0CBF2F
S31508000CDC87200120FFF760FF0C2D02D1FF20FFF7BC
S31508000CEC5BFF0A25FF20FFF757FF044600F041FF7C
S31508000CFC230603D5013D15F0FF05F3D1204670BD3B
S31508000D0C9520E7E7FF24F9E7F8B504460D4600F009
S31508000D1CA9FD00F16407FF20FFF73EFF064600F029
S31508000D2C28FFFF2E03D0FE2E06D00020F8BD00F0BB
S31508000D3C99FDB842EFD3F8E70234FF20FFF72CFFF2
S31508000D4C04F8020CFF20FFF727FF04F8010C00F04B
S31508000D5C10FF023D04F10204EFD1FF20FFF71CFF40
S31508000D6CFF20FFF719FF0120E0E700002DE9F04FFF
S31508000D7C99B0002840F03B819E4D2C7814F0020463
S31508000D8C04D02878C0B219B0BDE8F08F9A4B4FF052
S31508000D9C010B9A694FF0020A42F008029A619A69A5
S31508000DACDFF8588202F008020392039A9A694046C1
S31508000DBC42F020029A619A6904A902F02002029272
S31508000DCC029ADA694FF0040942F48042DA61DB6967
S31508000DDCCDE906A403F480430193019B40F2044336
S31508000DECCDE9043BFFF7F4FD0923854EC8F81090AE
S31508000DFCCDE904630323834F04A93846CDE90634A9
S31508000E0CFFF7E6FD804B04A93846CDE90439FFF710
S31508000E1CDFFD4FF482734FF4007CCDE90F34302399
S31508000E2CCDE913C30723794E0EA93046CDE91144F3
S31508000E3CCDE915440E941793FFF77CFE33683846B4
S31508000E4C43F040033360724BC8F8109009A9CDE9FA
S31508000E5C093BCDE90BA4FFF7BBFD4FF400430A246D
S31508000E6C4FF0FF083B6100F0FDFC00F16407B36826
S31508000E7C980703D400F0F6FC8742F8D286F80C8063
S31508000E8C00F0F0FC00F16407B368D90703D400F04E
S31508000E9CE9FC8742F8D2013CE5D109235C4A09A949
S31508000EACCDE9092303235748CDE90B34FFF790FD09
S31508000EBC0422524B214620465A61FFF7E1FE0128CF
S31508000ECC064629D00024534B1C60FFF77DFE2B7871
S31508000EDC002C00F088804D4C03F0FE032B70236821
S31508000EEC4FF4827223F0400323600023CDE90E32BF
S31508000EFC4FF40072CDE91033CDE91323CDE9153340
S31508000F0C1293072320460EA91793FFF713FE23689F
S31508000F1C43F04003236034E700F0A4FC4FF4D5718A
S31508000F2C00F57A770820FFF7ABFE012838D109AE11
S31508000F3CB046FF20FFF730FE0134E4B2042C08F863
S31508000F4C010BF6D19DF82630012BBBD19DF8273025
S31508000F5CAA2BB7D100F086FCB84206D24FF08041D6
S31508000F6CA920FFF78DFE0028F4D100F07BFCB842CF
S31508000F7CA8D200213A20FFF783FE0028A2D1042725
S31508000F8CFF20FFF709FE013F17F0FF0706F8010BD4
S31508000F9CF6D19DF8243013F0400F18BF0C2492E7B5
S31508000FAC2146A920FFF76CFE022836BF022401242D
S31508000FBCA92600F057FCB8420CD300F053FCB842F3
S31508000FCC80D24FF400711020FFF75AFE00287FF4E8
S31508000FDC79AF78E700213046FFF752FE0028ECD0AF
S31508000FEC00F0C7FDE5E743F001032B70C9E60120C5
S31508000FFCC9E600BF0C000020001002400014014096
S3150800100CA000A004000C0140400040040038004039
S3150800101C80008004C802002018B9034B1878C0B2A7
S3150800102C70470120704700BF0C00002038B50D46EC
S3150800103C1C46114698BB93B31B4B1B78DA0730D466
S3150800104C1A4B1B681B0758BF4902012C11D11120DA
S3150800105CFFF716FE38B94FF400712846FFF754FE11
S3150800106CB0FA80F46409FFF7AFFD201E18BF012003
S3150800107C38BD1220FFF704FE0028F4D14FF4007196
S3150800108C2846FFF741FE28B100F073FD013C05F533
S3150800109C0075F3D100210C20FFF7F2FDE3E70420DD
S315080010ACE6E70320E4E700BF0C000020C802002096
S315080010BC70B50E4615461C46002841D1002B3FD06C
S315080010CC224B1A78D0073DD41B7859073CD4204BB1
S315080010DC1B681A0758BF6D02012C11D12946182016
S315080010ECFFF7CEFD50BBFE213046FFF79FFDB0FA49
S315080010FC80F46409FFF768FD201E18BF012070BD37
S3150800110C13F0060F03D021469720FFF7B9FD2946A1
S3150800111C1920FFF7B5FD0028ECD1FC213046FFF766
S3150800112C85FD28B100F025FD013C06F50076F4D1C5
S3150800113CFD210020FFF77AFD0028DBD10124D9E731
S3150800114C0420DCE70320DAE70220D8E70C000020AD
S3150800115CC80200207FB51546002840F0DC80704B8D
S3150800116C1C7814F0010440F0D8800E2900F2D180C6
S3150800117CDFE801F0080ECF4FCFCFCFCFCFCF989C5B
S3150800118CA8ABBE00FFF73EFDB0FA80F4640905E093
S3150800119C00210920FFF774FD28B10124FFF714FD7F
S315080011AC204604B070BD10216846FFF7ADFD002837
S315080011BCF3D09DF800209DF809109209012A9DF894
S315080011CC08009DF807300BD1BDF808201B0452BA4D
S315080011DC92B203F47C13134401339B022B60DDE7B4
S315080011EC9DF806209B00920203EB901302F44062D2
S315080011FC13449DF805209DF80A0002F00F024900D9
S3150800120C02EBD01201F006010A440133073A934067
S3150800121CE4E7444E316811F004011BD000218D20FF
S3150800122CFFF72EFD0028B8D1FF20FFF7B5FC1021DB
S3150800123C6846FFF769FD0028AFD03026FF20013E2F
S3150800124CFFF7AAFC16F0FF06F8D19DF80A20102322
S3150800125C1209DCE70920FFF713FD00289DD11021A0
S3150800126C6846FFF751FD002897D032689DF80A307A
S3150800127C92079DF80B100AD59DF80D205B0003F01C
S3150800128C7E0303EBD11392090133013ABFE7CA0077
S3150800129C02F01802C3F3840302EB5112013302FB6A
S315080012AC03339BE71F4B1B68137077E70021092054
S315080012BCFFF7E6FC00287FF470AF10212846FFF7ED
S315080012CC23FD61E700210A20F2E700213A20FFF707
S315080012DCD7FC00287FF461AF6E1E0335FF20FFF79D
S315080012EC5BFC06F8010F00F044FCB542F6D155E755
S315080012FC0C4B1B685B077FF550AF00218D20FFF761
S3150800130CBFFC00287FF449AFFF20FFF745FC4021BE
S3150800131CD4E7042442E7042442E7032440E700BF49
S3150800132C0C000020C80200200048704731670008EE
S3150800133C004870471167000800487047F0660008B7
S3150800134C0B46012B11460ED11378C3F34113022B0E
S3150800135C0BD15378012B08D19388072B05D19E23E3
S3150800136C034A03F0D7BF012070470020704700BF1F
S3150800137C52660008F0B5284985B00B7823BB274A76
S3150800138C01AED2F8E8470194D2F8EC470294D2F8A9
S3150800139CF027039201220A7021490F4616F8015BC1
S315080013AC013305F00F022C099F2D8CBF37343034CE
S315080013BC092A8CBF373230320C2B0C704A7001F16B
S315080013CC0201EBD100233B7670B9164B1B681A88C1
S315080013DC154B5A8001230133DBB213485B0043F4E7
S315080013EC4073038005B0F0BD032813D80D4B53F892
S315080013FC20402046FEF7A4FEC3B21F2B28BF1F238E
S3150800140C2046094AE1188842E5D010F8014B22F823
S3150800141C024FF8E70020E5E7CC02002000F0FF1F9A
S3150800142C2000002010000020CE02002072B6704763
S3150800143C62B67047FFF7FABF10B500F08DF9C8B160
S3150800144CFEF796FEB0B100F069FBFFF7A3F800F0C3
S3150800145CD1F900F083F9084B20F0604020F07F00AA
S3150800146C986000F07BF94468FFF7E2FF2346BDE875
S3150800147C1040184710BD00BF00ED00E0F8B5064651
S3150800148C0F4615460024AC4200D1F8BD3B5D3355DA
S3150800149C00F06FFB0134F6E72DE9F8430646002504
S315080014ACFFF748F906F10409D6F8008059F80570D3
S315080014BC05EB080400F05DFB21463A4600230220A2
S315080014CCFFF77EF9044668B955F80830BB4204D1D3
S315080014DC0435B5F5007FE7D10124FFF73DF9204621
S315080014ECBDE8F8830024F8E738B5104B0446984253
S315080014FC0D4608D00E4A914216D0FFF7CDFF18B903
S3150800150C0024204638BD0B4CC5F30803002BF7D135
S3150800151C23689D42F5D020464FF40072294640F8C0
S3150800152C045BFFF7ABFFECE71C46F1E71003002062
S3150800153C00800008140500202DE9F0411F460368B9
S3150800154C21F4FF78013304460D46164628F00108A7
S3150800155C06D14FF40072414640F8048BFFF78EFF14
S3150800156C2368434505D020464146FFF7BDFF044690
S3150800157CE8B123680435ED1A2544374400F0F9FA26
S3150800158C231DEB1AB3F5007F08D32168204601F515
S3150800159C0071FFF7A9FF044648B1051D16F8013B73
S315080015ACBE4205F8013BE9D10120BDE8F0810020D7
S315080015BCFBE700004FF0FF33024A1360024A136040
S315080015CC704700BF140500201003002030B40E4DE0
S315080015DC4C1E0B46291A8C4212D80C4CA0420FD31F
S315080015EC411E1944A9420BD820F4FF7121F00101C0
S315080015FCA142014630BC0CBF05480648FFF79CBF04
S3150800160C002030BC704700BFFFFF010800800008AF
S3150800161C100300201405002030B500241C4D4A1E6A
S3150800162C2B1A87B09A42019420D81A4A20F47F7351
S3150800163C23F00303934219D3421E0A44AA4215D82F
S3150800164C0144C91AC1F38F25C1F3090109B1013542
S3150800165CADB200240493012302940593FFF76AF8AC
S3150800166CA3B29D4205D80124FFF776F8204607B0A9
S3150800167C30BD00F07EFA01A902A8FFF705F901347E
S3150800168C20B9049B03F580630493E9E70024EBE790
S3150800169CFFFF01080080000807B50F4803680133EF
S315080016AC17D0D0E901321344C2680C4913440269B5
S315080016BC13444269134482691344C26913445B4256
S315080016CC019304230DEB0302FFF736FF03B05DF815
S315080016DC04FB0120FAE700BF100300200C81000868
S315080016EC0A4AD2E900310B4491680B44D1680B4481
S315080016FC11690B4451690B449169D2F80C210B44BE
S3150800170CD3420CBF01200020704700BF00800008A0
S3150800171C0A4808B50368013305D10948036801333B
S3150800172C06D1012008BDFFF7B7FE0028F5D1F9E769
S3150800173CFFF7B2FE003818BF0120F3E710030020AC
S3150800174C140500200048704700800008FFF732BFD8
S3150800175CFFF73CBFFFF760BFFFF7C2BFFFF7F2BF4B
S3150800176C08B5FFF799FF18B1BDE80840FFF7D0BFD9
S3150800177C08BD0000184B82B09A69012042F4006239
S3150800178C9A619A69154902F400620192019A5A689B
S3150800179C5B68C2F3C22213F4605F14BF02230123F1
S315080017AC8A5C0F490968D1404B430E490E4AB3FB74
S315080017BCF1F310604FF6FF700021013BD062936283
S315080017CC536943F001035361084B526A1960084B7D
S315080017DC1A8002B0704700BF001002404866000825
S315080017EC00000020A0860100002C01401C070020E8
S315080017FC180700200B4BDA6842F40062DA60DA68E4
S3150800180C22F40062DA609A6922F400629A614FF057
S3150800181CE02300221A615A619A614FF00072C3F8EC
S3150800182C042D7047001002400B4B0C485B6A02886B
S3150800183C10B59B1A9BB2632B0DD96421B3FBF1F33C
S3150800184C074C2168194403EB830303EB830302EB70
S3150800185C83022160028010BD002C0140180700206D
S3150800186C1C07002008B5FFF7DFFF014B186808BDF9
S3150800187C1C07002008B5FFF7D7FF014B186808BDF1
S3150800188C1C07002010B50446002002F03BFC38B1BA
S3150800189C01222146002002F03FFC431E58425841C3
S315080018AC10BD000007B50D4B0D480360FEF7E2FDB1
S315080018BC012301A90020ADF8043002F0A3FF00F0C3
S315080018CCCBF8B0F5FA6F06D24FF4FA6003B05DF8B0
S315080018DC04EB00F0BBB803B05DF804FB005C0040F9
S315080018EC6407002008B502F083FF034B0348036026
S315080018FCBDE80840FEF7D2BD005C00406407002036
S3150800190C13B53F2904468DF8071003D98D211148C4
S3150800191C00F070F8012200200DF1070102F006FC18
S3150800192C012803D091210B4800F064F821460020C9
S3150800193C9DF8072002F0FAFB9DF80730834203D086
S3150800194C9421044800F056F8002002F0F9FB02B086
S3150800195C10BD00BF1D6400082DE9F84380461D4FD5
S3150800196C00200E4603F0C8FF00214FF0FF3003F0AD
S3150800197C8BF93C78184D7CB92846FFF783FF01286C
S3150800198C06D12B78013B3E2B9EBF144B38701C702E
S3150800199C00242046BDE8F883DFF8409099F800004B
S315080019AC01302844FFF76EFF01280446F0D199F858
S315080019BC00302A780133DBB29A4289F80030E7D135
S315080019CC4046691CFFF75AFD00233B7099F8003016
S315080019DC3370DEE76107002021070020200700206E
S315080019EC0120FEF7B9BB0020FEF7B6BBFEF7BEBB5F
S315080019FCFEF7BDBB08B500F0BCF8FCE710B500F067
S31508001A0CAFF801281AD000F039F9B8B10C4C237884
S31508001A1C012B13D1FFF726FF0A4B0B4A1B681268DA
S31508001A2C134403F5FA73984208D30023237000F085
S31508001A3C2DF918B9BDE81040FFF7FEBC10BD00BF64
S31508001A4C440A00203C0A0020400A0020014B18607A
S31508001A5C704700BF3C0A0020014B1868704700BF4E
S31508001A6C3C0A002008B5044B1B78012B03D1FFF761
S31508001A7CF9FE024B186008BD440A0020400A0020F3
S31508001A8C012208B5034B1A70FFF7ECFFBDE80840B6
S31508001A9CFFF7B4BF440A002008B5FFF7CBFC00F0EB
S31508001AAC66F8FFF767FEFFF751FE00F0CFF800F077
S31508001ABC11F8BDE80840FFF7E3BF08B500F059F880
S31508001ACCFFF7B2FE00F0E2F900F010F8BDE80840A6
S31508001ADCFFF794BF08B500F09FFBFFF7E3FE032260
S31508001AEC014B1A7008BD00BF3900002007B509481C
S31508001AFC0DF10701FFF730FF012807D10322064B2A
S31508001B0C9DF8071003481A7000F0A6FB03B05DF8A1
S31508001B1C04FB00BF450A002039000020FFF7E2BE8F
S31508001B2C08B5054B1B78032B02D1C9B2FFF7E8FEA3
S31508001B3CBDE8084000F088BB39000020064B1B782E
S31508001B4C022B05D006D9042B14BF3F2081207047E1
S31508001B5C082070478120704739000020FFF7EEBF38
S31508001B6C08B500F067FB003818BF012008BDFEF762
S31508001B7C0DBBFEF70EBB0000092802D93730C0B2E0
S31508001B8C7047074900F130023130C3B2CB5CD2B290
S31508001B9C03F00303022B08BF203AD0B2704700BFEC
S31508001BACAC6B0008F0B50146441E0020104E2546C5
S31508001BBC14F8013FF25C02F00302022A08BF203B2C
S31508001BCCDBB2A3F13002D2B2162A0ED8A3F13A0729
S31508001BDC062F0AD9092A84BF373BDAB202EB00135F
S31508001BECA94203F0FF00E2D1F0BD0020FCE700BFDC
S31508001BFCAD6B000810B502460A240B4B1146092991
S31508001C0CB2FBF4F203F10103F8D800220A241A7085
S31508001C1CB0FBF4F104FB1102303203F8012D024635
S31508001C2C092A0846F4D810BD840A002038B505469A
S31508001C3C00090C46FFF7A0FF207005F00F00FFF710
S31508001C4C9BFF00236070A37038BD0000002208B506
S31508001C5C064B074907481A7001F072FD28B1BDE812
S31508001C6C084078210448FFF7C5BE08BDAC10002013
S31508001C7C59640008500C00205C640008024B187864
S31508001C8CB0FA80F040097047AC10002010B5FFF789
S31508001C9C67FF012801D1002010BD054C2378002BC5
S31508001CACF9D1FEF779FA0128F5D12070F4E700BFCF
S31508001CBCAC10002003780E49CA5C02F00302022A13
S31508001CCC08BF203B532B0CD14378CA5C520708D566
S31508001CDC312B08D0322B08D0332B0CBF0220032013
S31508001CEC704703207047002070470120704700BFDB
S31508001CFCAD6B00082DE9F04105460230FFF752FF9F
S31508001D0C0435074604460646A8464046FFF74AFFEA
S31508001D1C013EB6B22044012EC4B208F10208F4D82A
S31508001D2CBB1E9BB2012F03F101034FEA430308BF05
S31508001D3C0223E443E818FFF735FFE4B2231A5842A6
S31508001D4C5841BDE8F08100002DE9F04104461646DD
S31508001D5C0F4601B120B940F20A314B48FFF74AFE4B
S31508001D6C2046FFF7A7FF0328054600F08A80204681
S31508001D7CFFF7C0FF002800F08180012D27D0022D27
S31508001D8C4DD0002D7DD1A01CFFF70CFF0546201D5C
S31508001D9CFFF708FF4FEA0028C7F80080A01DFFF7D9
S31508001DAC01FF033D404438602DB236B1771E083426
S31508001DBCC6F10106F3199D4202DC2846BDE8F081FE
S31508001DCC2046FFF7EFFE023407F8010FF2E7A01CD6
S31508001DDCFFF7E8FE8046201DFFF7E4FE05043D608C
S31508001DECA01DFFF7DFFE05EB00253D6004F108009A
S31508001DFCFFF7D8FE2844A8F1040538602DB2002E4A
S31508001E0CDBD0771E0A34C6F10106F3199D42D4DDE0
S31508001E1C2046FFF7C7FE023407F8010FF5E7A01CAA
S31508001E2CFFF7C0FE8046201DFFF7BCFE05063D6089
S31508001E3CA01DFFF7B7FE05EB00453D6004F1080051
S31508001E4CFFF7B0FE05EB00253D6004F10A00FFF72D
S31508001E5CA9FE2844A8F1050538602DB2002EACD091
S31508001E6C771E0C34C6F10106F3199D42A5DD2046F2
S31508001E7CFFF798FE023407F8010FF5E74FF0FF3528
S31508001E8C9BE7002599E700BF5C6400082DE9F84339
S31508001E9CB64C2678022E32D0032E00F0FA80012E8C
S31508001EAC40F0F580FFF752FCFEF798F9B048FEF7BC
S31508001EBCC5F9B048FEF7C2F9FEF78CF93246014669
S31508001ECCAD4801F065FC054648B10023AB482370C4
S31508001EDCFEF7B4F93046BDE8F843FEF7A5B9A848AD
S31508001EECFEF7ACF9A748FEF7A9F9A74BA748C3E92B
S31508001EFC005502232370BDE8F843FEF79FB9DFF8B7
S31508001F0C9082A44F4FF4807140469B4A02F043F8E6
S31508001F1C97F8455235B1002398482370FEF78EF989
S31508001F2C02200EE028B32A46404608F5C071FFF792
S31508001F3C0BFF431C06460CD190482570FEF77EF91C
S31508001F4C0320FEF771F907F50D70BDE8F84301F0AB
S31508001F5C06BF00280DDD8C4DD8F880116B6813B9B7
S31508001F6C29606E6005E02A681A448A4215D1034432
S31508001F7C6B60D7F84822D7F840329A4240F08780EF
S31508001F8C00217D4801F0F8FE00284AD000237B4842
S31508001F9C2370FEF753F9042035E07948FEF74EF91D
S31508001FAC7D48FEF74BF96868FFF724FE7B48FEF779
S31508001FBC45F97B48FEF742F9D5F8009077494FEA80
S31508001FCC1960FFF733FE7749C9F30740FFF72EFE72
S31508001FDC7549C9F30720FFF729FE74495FFA89F09A
S31508001FECFFF724FE6D48FEF729F97148FEF726F926
S31508001FFCD5E90001FFF7AEFB48B900235F4823700B
S3150800200CFEF71CF90520FEF70FF95B489DE75C48BF
S3150800201CFEF714F95D48FEF711F9D8F880312B60F4
S3150800202C9FE7594D6B686BB35548FEF707F95A4845
S3150800203CFEF704F96868FFF7DDFD5848FEF7FEF869
S3150800204C5748FEF7FBF82E685449300EFFF7EEFD9D
S3150800205C5449C6F30740FFF7E9FD5349C6F3072071
S3150800206CFFF7E4FD5149F0B2FFF7E0FD4B48FEF7E8
S3150800207CE5F84F48FEF7E2F8D5E90001FFF76AFBE9
S3150800208C0028BAD03E48FEF7D9F803232370BDE8DA
S3150800209CF8833F4D3F4F4FF480712846364A01F07E
S315080020AC7AFF97F84592B9F1000F03D000234148FF
S315080020BC237033E7002847D0284605F5807205F5C6
S315080020CCC071FFF741FEB0F1FF3F804603D13A4895
S315080020DC84F8009032E7002836DD3848FEF7AEF86B
S315080020EC4046FFF787FD2D48FEF7A8F83448FEF75B
S315080020FCA5F8D5F880612949300EFFF797FD2949CF
S3150800210CC6F30740FFF792FD2749C6F30720FFF7EA
S3150800211C8DFD2649F0B2FFF789FD2048FEF78EF8AB
S3150800212C2348FEF78BF84146D5F8800105F58072F1
S3150800213CFFF70EFB28B920701048FEF77FF806202B
S3150800214CFFE60F48FEF77AF8D7F84822D7F8403258
S3150800215C9A429CD11B48FEF771F8FFF701FB98BB16
S3150800216C20700648FEF76AF807204CE7AC100020EA
S3150800217C8A640008AD640008840E00208765000890
S3150800218CD2640008D7640008C40A0020FB6400085F
S3150800219CCC0A0020500C00202B650008840A00206D
S315080021AC34650008860A0020880A00208A0A00205E
S315080021BCCE6400084D6500086E6500088F6500083A
S315080021CC9C650008B36500080948FEF737F8094806
S315080021DCFEF734F8084801F0C2FD0848FEF72EF859
S315080021EC00232370FEF70EF8BDE8F843FFF724B971
S315080021FCD2640008CF650008840E0020E765000845
S3150800220CFE22034B1A7002225870A3F8442070471A
S3150800221CB0100020006870470022054B9A64A3F89A
S3150800222C442083F83F20A3F8402083F842207047C7
S3150800223CB0100020034B93F83F00003818BF01205C
S3150800224C704700BFB01000200022024B83F84220D2
S3150800225C704700BFB0100020F8B503780546FF2B71
S3150800226C974C37D1FFF70AFD18B91020FFF7C8FFAE
S3150800227C1BE00122002384F83F2041F2FF0284F878
S3150800228C4030A3702280FFF759FCE070FFF766FC1C
S3150800229C2071FFF763FC40F20113E3800823000A60
S315080022AC6071A4F84430FFF751FA94F84230012BC8
S315080022BC02D11020FFF7A4FFB4F94410002940F30B
S315080022CCFD80012384F842307D4889B2BDE8F84088
S315080022DCFFF726BC94F83F20012A40F0EF80D22B5A
S315080022EC1ED8C82B01D82020C0E7C93B092BFAD821
S315080022FC01A252F823F000BF33240008F322000889
S3150800230CF322000845240008F3220008F3220008EB
S3150800231CC32400085B240008AD2400089724000891
S3150800232C03F10D02D2B20B2ADDD8F33B0B2BDAD80C
S3150800233C01A252F823F000BFC9230008A123000804
S3150800234C75230008B9230008F3220008F3220008B5
S3150800235CF3220008FD230008F32200080B240008CA
S3150800236C0F24000823240008FFF7E8FB6A7890423C
S3150800237C01D822207AE7A16C5248FFF77FF8FF2391
S3150800238C6A782370A36C1344A3646B780133A4F89E
S3150800239C44308AE7FFF7D2FB6B788342E9D2281DD3
S315080023ACFFF738FFA06401466A78E5E7FF23281D86
S315080023BC2370FFF72FFFA0640123E8E7FF23281DEE
S315080023CC2370FFF727FF0025A66C8719BE4208D194
S315080023DC0023012225716371E380627063800823F0
S315080023ECD5E716F8013B1D44EDB2FFF7C2FBEDE746
S315080023FC354BFF22A3640723C4E90023EFE700202B
S3150800240C34E7FF23238094F84030A3700023E3704D
S3150800241CA3800623BBE7002384F83F3084F84030BA
S3150800242CFF232370C8E7A66CFFF788FB6A1C411EBE
S3150800243C3046FFF78DF908B9312017E7FF232370CB
S3150800244CFFF77CFBA36C01380344A364B4E7FFF7DE
S3150800245C75FB6B78013898428BDDFF2323700123BB
S3150800246CA4F84430697829B9FFF77AF900287FF47B
S3150800247C1CAFE1E7A06CAA1CFFF76AF90028DBD0B1
S3150800248C6A78A36C1344A3640FE7FF230025238003
S3150800249CA570FFF753FB0723E070A580A57176E7B7
S315080024AC0430FFF7B7FEA36C01461846FFF752F93E
S315080024BC0028B5D1C0E7FEF7BFFFB1E7F8BD00BFEE
S315080024CCB0100020B1100020436700080068704760
S315080024DC83690239023B8B4283BF4389C06A01FB7D
S315080024EC030000207047034600F10B010020C201CF
S315080024FC42EA500213F8010B02448B4202F0FF0029
S3150800250CF5D1704703687BB11A4612F8011B1F29CF
S3150800251C08D93A29F9D11978302905D102339A42C2
S3150800252C02D10260002070474FF0FF30704738B573
S3150800253C0D46044618B9092000232B6038BD0368DC
S3150800254C002BF8D01A78002AF5D08188DA889142BF
S3150800255CF1D15878FEF760FD10F00100EBD1236835
S3150800256CEBE738B503790446C3B100F13405026BC1
S3150800257C012329464078FEF79BFD88B9216B636ACF
S3150800258CE269CB1A9342207108D2E378022B05D163
S3150800259C0A44012329466078FEF78AFD002038BDD7
S315080025AC0120FCE72DE9F0470026D0F800908E753F
S315080025BC836907460C46002B7ED0C36A01335ED16D
S315080025CC00232E261846F9694D1E15F8012F0130E1
S315080025DC202A0CD0052A08BFE522092804D10B2B82
S315080025EC9EBFE7187E720133E7187A7201330B28FF
S315080025FCEBD10020E2185072A27D002A4FD1002B95
S3150800260C44D0082504F108035A78581C002A55D1D9
S3150800261C1B1B083B3DE0B8F1000F05D100F5205314
S3150800262C9BB2B3F5006F13D340F2B51140EA0840DC
S3150800263C01F0ECFCFF28C5F1FF0A18D9BAF1010F15
S3150800264C20D96319020A9A75D875022300201D44ED
S3150800265C80460236D9F80C30985B0028DBD1B8F1E5
S3150800266C000F18BF002500232544AB75A8E748B111
S3150800267CBAF1000F08D0631998750123E6E7B0463E
S3150800268C3546E7E70025EAE75546E8E73F23A3750D
S3150800269C0123002223449A750B7B03B96372CB7A08
S315080026AC01F11C0003F03F032372FFF70FFF2060B4
S315080026BCCB8AE3800B8BA380BDE8F0872E2A1346C2
S315080026CC09D0413A192A03D80A7B154200D020337F
S315080026DC4373034698E71025FAE7C2F307238A766D
S315080026ECCB760378032B01BF120C0A75120A4A75AE
S315080026FC704738B5036B05468B420C4610D0FFF76E
S3150800270C30FF60B922460123687805F13401FEF7DB
S3150800271C8DFC00281CBF4FF0FF3401202C6338BDFC
S3150800272C0020FCE738B5002303714FF0FF33036331
S3150800273C0446FFF7DEFF00283FD194F83430B4F88E
S3150800274C3252EB2B03D01833DBB2012B2ED84AF6B8
S3150800275C55239D4206D108221A4904F1860003F036
S3150800276CDDFD48B3B4F83F30B3F5007F1ED194F8BD
S3150800277C4130DBB15A1E1A4218D1B4F84230ABB10B
S3150800278C94F84430013B012B10D8B4F845306BB1A2
S3150800279CB4F847307F2B06D804F15400FFF796FEA1
S315080027ACB0F5803F02D3B4F84A3043B94AF65520FF
S315080027BC854214BF0320022038BD0420FCE7002004
S315080027CCFAE700BF1066000801292DE9F84305460B
S315080027DC0C46164672D983698B426FD90378022B3D
S315080027EC3ED0032B4FD0012B68D101EB5107416A20
S315080027FC01EB5721FFF77DFF034630BB14F00104AC
S3150800280C05F1340807F10109C7F3080718BF18F8CA
S3150800281C0720F3B21EBF02F00F0242EA0313DBB223
S3150800282C08F807300123696A2B71284601EB5921F0
S3150800283CFFF75FFF034640B9C9F3080144B1C6F375
S3150800284C071608F8016001222A711846BDE8F883B4
S3150800285C18F80120C6F3032622F00F021643F0E7F8
S3150800286C416A01EB1421FFF744FF03460028ECD11B
S3150800287C640005F1340204F4FF7416551119C6F3F5
S3150800288C07264E70DFE7416A01EBD411FFF731FFDB
S3150800289C03460028D9D1A40005F1340104F4FE74CA
S315080028AC0A191046FFF712FE66F31B000855010AB3
S315080028BC5170010C000E9170D070C4E70223C4E766
S315080028CCF8B505460E46FFF74CFE0446F8B93146F0
S315080028DC2846FFF7FDFD05F13407064628634FF435
S315080028EC00722146384603F029FD6B899C4204D3B5
S315080028FC6889001B18BF0120F8BD01233946687882
S3150800290C3219FEF7D5FB0028F2D10134EDE7012088
S3150800291CF2E700000023F0B585B00B600E461546AD
S3150800292CFFF7F0FD0028C0F20881874B53F82040CA
S3150800293C002C00F0048134602378607805F0FE05DD
S3150800294C5BB1FEF769FBC30707D40DB1470702D481
S3150800295C002005B0F0BD0A20FBE700236078237041
S3150800296CFEF704FAC60700F1EC800DB14107F2D464
S3150800297C00212046FFF7D6FE022840F0C6806E4698
S3150800298C324604F5FD7304F23A211846FFF79EFD0C
S3150800299C10338B4242F8040BF7D1002556F8041B6A
S315080029AC002900F0A9802046FFF7BCFE012800F29A
S315080029BCA480B4F83F30216BB3F5007F40F0AA80B1
S315080029CCB4F84A6026B904F15800FFF77FFD0646AD
S315080029DC94F84430E6615A1E012AE37000F29A8094
S315080029EC94F841506581002D00F094806A1E2A42A5
S315080029FC40F09080B4F845703A07278140F08A80F9
S31508002A0CB4F8470018B904F15400FFF75FFDB4F8A1
S31508002A1C4220002A7ED006FB03FE02EB171CF44468
S31508002A2C604577D3A0EB0C00A842B0FBF5F371D345
S31508002A3C464883426ED84FF6F57083426CD840F6FA
S31508002A4CF575AB428CBF0225012502330A4401EB0E
S31508002A5C0C00032DA36121626262E0625ED1B4F8B8
S31508002A6C5E203A4356D104F16000FFF72FFD9B0018
S31508002A7C03F2FF13B6EB532FA0624BD34FF0FF3381
S31508002A8CC4E904338023032D63712BD1B4F8643065
S31508002A9C012B27D120460131FFF72BFE10BB4AF636
S31508002AAC5523B4F8322260719A421BD104F13400D2
S31508002ABCFFF70CFD264B984214D104F50670FFF768
S31508002ACC05FD03F1FF5303F500532033984209D152
S31508002ADC04F50770FFF7FAFC606104F50870FFF758
S31508002AECF5FC20611B4A2570138801339BB21380B1
S31508002AFCE380194BE3602BE703200135042D7FF4A3
S31508002B0C4DAF042806D1012023E70428FBD0012861
S31508002B1C7FF64FAF0D201CE7032596E7002FF9D05B
S31508002B2C022D02EB0E004FEA43021BBFD21803F02C
S31508002B3C0103134603EB52039AE70B2009E70C2013
S31508002B4C07E7032005E700BF00130020F5FFFF0F7A
S31508002B5C52526141FC120020FC10002003284B8BBA
S31508002B6C04BF8A8A43EA0243184670470129F8B516
S31508002B7C06460C464ED9836999424BD20378022BEA
S31508002B8C29D0032B34D0012B44D101EB5105416AD2
S31508002B9C01EB5521FFF7ADFD10B14FF0FF30F8BD35
S31508002BAC716A6F1CC5F308053544304601EB57218D
S31508002BBC95F83450FFF79DFD0028EED1C7F30807AA
S31508002BCC374497F8343045EA0320E3074CBF00092D
S31508002BDCC0F30B00E3E7416A01EB1421FFF789FD0B
S31508002BEC0028DAD1640004F4FF743444A08ED6E7C6
S31508002BFC416A01EBD411FFF77CFD0028CDD1A40066
S31508002C0C06F1340004F4FE742044FFF75FFC20F050
S31508002C1C7040C4E70120C2E7F8B50C46012C0646FD
S31508002C2C114605682BD9AB69A34228D92AB14FF0AE
S31508002C3CFF322846FFF7C8FD38B921463068FFF73A
S31508002C4C95FF2746044608B90020F8BD012816D07A
S31508002C5C431C16D0002239462846FFF7B5FD002836
S31508002C6CF3D1D5E90532911E8B4205D201336B613E
S31508002C7C6B7943F001036B71A242DED8E4E70220BC
S31508002C8CE3E70120E1E72DE9F84381460F4605689D
S31508002C9C49B92E69C6B1AB69B34298BF01266B69AF
S31508002CACA3B9002406E02846FFF760FF012804466E
S31508002CBC03D801242046BDE8F883421C54D0AB69DE
S31508002CCC8342F7D83E46EAE70126E8E7BE42AB69F7
S31508002CDC15D1741C9C4228BF0224D9F80000214641
S31508002CECFFF744FF0128E4D0431C3DD0F0B1D5F8DA
S31508002CFC1080B8F1010F02D9AB69984500D3B046DC
S31508002D0C4446AB690134A34203D8B8F1010FC8D0C5
S31508002D1C02242146D9F80000FFF728FF40B1012804
S31508002D2CC7D0013020D04445EBD1BAE7002CE6D009
S31508002D3C4FF0FF3221462846FFF746FD90B957B9A2
S31508002D4CD5E90532023A93422C6110D96B7943F0D6
S31508002D5C01036B71AEE7224639462846FFF734FD68
S31508002D6C0028EDD00128A4D14FF0FF34A2E7013B8F
S31508002D7C6B61EBE72DE9F843076904462037B7F58D
S31508002D8C001F24BF0023836183698946066873B1D3
S31508002D9CC7F30808B8F1000F39D1416901338361CB
S31508002DAC41B93389B3EB571F31D80023A3610420EB
S31508002DBCBDE8F8837389013B13EA572327D13046BC
S31508002DCCFFF7D4FE0128054601D80220F0E7421C7D
S31508002DDC01D10120ECE7B369834212D8B9F1000F8F
S31508002DECE3D020466169FFF74EFF0546A8B10128D6
S31508002DFCEBD0431CEDD001463046FFF761FD0028A9
S31508002E0CE7D1294630466561FFF762FBA061343687
S31508002E1C464400202761E661CAE70720C8E7000098
S31508002E2C2DE9F843FF268046354604240768D8F86A
S31508002E3C181019B9002C69D0042453E03846FFF74A
S31508002E4C58FC044600284DD1D8F81C000378002BF2
S31508002E5CF2D0C27AE52B02F03F0288F8062047D05A
S31508002E6C2E2B45D022F02001082941D00F2A44D117
S31508002E7C59063BD503F0BF05D8F81030467BC8F881
S31508002E8C2C30437BB34233D1428B8ABB0D2103785A
S31508002E9C4FF6FF7923F04003013B4B430121D7F84A
S31508002EAC0CC0DFF870E01EF8014B045B11B3FF2B66
S31508002EBC1ED821462CF81340013301320D2AF2D1C3
S31508002ECC0278520605D521B1FF2B11D800222CF811
S31508002EDC1320013DEDB200214046FFF74BFF044697
S31508002EEC0028A4D00023C8F818300FE0AB42C8D08D
S31508002EFCFF25F0E74C45E0D0FAE71DB9FFF7F3FAE2
S31508002F0CB04203D04FF0FF33C8F82C302046BDE84A
S31508002F1CF88300BFCB670008B1F5001FF8B5064665
S31508002F2C0C46056801D30220F8BDCA06FBD1826897
S31508002F3C0161BAB92B78022B01D9AB6A9BB92B89DB
S31508002F4CB3EB541FEFD9A86AC6E905200028EAD0C6
S31508002F5C00EB54203435C4F308042544B061F561FC
S31508002F6C0020E1E713461A466F897F02BC421146D8
S31508002F7C03D22846FFF7ACFAE6E73068FFF7F6FD0A
S31508002F8C431C024606D00128CDD9AB698342CAD95F
S31508002F9CE41BEBE70120C7E7C16A2DE9F0414B1C9E
S31508002FAC04460568066918D1E5274FF00108284636
S31508002FBCA169FFF79EFB60B9E3691F7085F8048069
S31508002FCC2369B3420DD201462046FFF7D3FE0028EB
S31508002FDCEDD0042808BF022003E0FFF79DFF002868
S31508002FECE2D0BDE8F08100002DE9F04F002187B052
S31508002FFC0446D0F800A0FFF78FFF0546002840F0DE
S3150800300C8C804FF0FF084FF0FF39C34604F12003BC
S3150800301CC4F82C9002935046A169FFF76AFB054643
S3150800302C00287AD1E6693778002F7AD0F27AE52F1C
S3150800303C02F03F03A37103D0100704D50F2B04D05D
S3150800304CC4F82C904DE00F2B53D194F82B3059061D
S3150800305C3DD47A0643D5236996F80D8007F0BF0749
S3150800306CE362737B43453CD1738B002B39D10D231B
S3150800307C01213578DAF80CB005F03F05013D5D43C2
S3150800308C294B13F8012BB25A71B3FF2D059328D887
S3150800309C1046049200F0ECFF6B1C03903BF81500ED
S315080030AC019300F0E5FF039981421AD1049A019D18
S315080030BC1146059B1D4A9A42E3D133785B0603D524
S315080030CC11B13BF8153063B9013F5FFA87FB002154
S315080030DC2046FFF74FFE054600289CD01DE0BB4551
S315080030ECBFD04FF0FF0BF2E74FF6FF708242E1D0EC
S315080030FCF7E7BBF1000F04D13046FFF7F4F940456A
S3150800310C0BD094F82B5015F0010599D10B223046AB
S3150800311C029903F003F9002892D1284607B0BDE8B6
S3150800312CF08F0425F9E700BFCB670008D8670008BD
S3150800313C2DE9F04F0646036885B001938A4611F8C7
S3150800314C013B2F2BFAD05C2BF8D00023B3609AF8EE
S3150800315C00301F2B00F2A88080230021304686F809
S3150800316C2B3005B0BDE8F04FFFF7D6BE2F2800F080
S3150800317C2D815C2800F02A817F2806D801469B48B9
S3150800318C03F0E4F8002840F0DB80FF2F00F0D8802D
S3150800319C2BF8174001378BE033F8022D202A02D082
S315080031AC2E2A40F09880013F92E0994580F0CF8016
S315080031BCBA4212D10B2B07D1CCE0BA4204D044F058
S315080031CC0304E4B200F2CA804FEA88083A460B2395
S315080031DC4FF008095FFA88F8B0E07F2D3ED944F025
S315080031EC0201CDE902232846CBB240F2B511009371
S315080031FC00F00CFFDDE9022310F0800F054614D011
S3150800320C7B4900F07F054D5D45B129467948CDE9E6
S3150800321C022303F09BF8DDE9022308B300995F2526
S3150800322C41F00301C9B2009110E0FF28ECD9591EF0
S3150800323C894504D344F003049946E4B27EE006EBD0
S3150800324C0901000A81F8200009F1010906EB0901B8
S3150800325C009C81F8205009F101096FE00094D4E72D
S3150800326CA5F1410189B2192902D848F00208EDE7FF
S3150800327CA5F1610189B219299EBF203D48F00108C4
S3150800328CADB2E3E75A0700F19E80B379DB0659D550
S3150800329C019B03F134013369C3F308031944019BF9
S315080032AC1878FFF75BFCB06000273368D3F80CB0CE
S315080032BC1AF8010B48B140F2B51100F0C5FE0446E8
S315080032CC00283DD01F283FF651AF04240BEB4703CB
S315080032DC002F7FF461AF4FF000020BEB47032BF87E
S315080032EC17206FB300223BF812001146202802F172
S315080032FC0102F8D009B92E2802D144F00304E4B22D
S3150800330C33F8022D2E2A01D0013FF9D14FF0203384
S3150800331C4FF0000973623362C6F82730C846082393
S3150800332C3BF811504A1CCDB1202D04D02E2D7FF41C
S3150800333C3CAFBA4208D044F00304E4B21146EFE7B6
S3150800334C062040E005203EE09945FFF433AF0B2BF1
S3150800335C7FF433AF0B2344F00304E4B296F8202031
S3150800336CE52A04BF052286F82020082B04BF4FEA5D
S3150800337C88085FFA88F808F00C030C2B03D008F0C1
S3150800338C0303032B02D144F00204E4B2A1070AD4C6
S3150800339C48F3000303F010032343DCB218F0040FC0
S315080033AC18BF44F00804304686F82B40FFF71CFE7D
S315080033BC96F82B3000283FF465AF042803D113F098
S315080033CC040F08BF052005B0BDE8F08F53461C78DE
S315080033DC9A462F2C03F10103F9D05C2CF7D01F2C3D
S315080033EC8CBF00240124A40070E700BF19660008EE
S315080033FC4B670008226600082DE9F04F90F82BB0B1
S3150800340C04461BF0A00589B040F099800768FA6855
S3150800341C32F81530002B6FD10DF1140804F1200683
S3150800342C1BF0010F96E8070088E8070000F08E806D
S3150800343C40234FF0010A84F82B30B44698E807006D
S3150800344CFB68ACE80300BAF1050F2CF8022B4FEA1F
S3150800345C12428CF8002063D95246981E30F8021F87
S3150800346C00294BD1C446072102F00F0E0EF130008D
S3150800347C392888BF0EF13700013991460CF8010D31
S3150800348C4FEA121202D0B9F10F0FEDD87E2001F1D6
S3150800349C20030DEB030202F8140C002204F11F00A2
S315080034AC8A4206D010F801CF02F1010EBCF1200FAA
S315080034BC38D11F32224404F1270C07298FBF20204C
S315080034CC01F120030DEB030010F8140C98BF013121
S315080034DC02F8010F9445F0D12046FFF785FD814689
S315080034EC80BB0AF1010ABAF1640FA6D14FF007099D
S315080034FC484609B0BDE8F08F013589E74FF0100C46
S3150800350C01F0010E0EEB4202D30344BF82F488325B
S3150800351C82F02102BCF1010C4FEA5101F0D19DE772
S3150800352C52469FE77246BBE7804601212046FFF7C5
S3150800353C21FC814600B3B9F1040FD7D0D8E74FF078
S3150800354C0609D5E70428D3D184F82BB01BF0020F53
S3150800355C1EBF0D230C35B5FBF3F54FF000012046C5
S3150800356C08BF0125D4F800A018BF0135FFF7D4FC15
S3150800357C81460028DFD180465046A169FFF7B9F885
S3150800358C81460028D7D1E3691B78E52B01D0002B9F
S3150800359CCAD108F101084545C7D1013D55D0216965
S315080035AC2046A1EB4511FFF7B7FC814600289FD1B1
S315080035BC3046FEF798FF4FF6FF7801903846A1691A
S315080035CCFFF797F88146002892D1E369019AD7F854
S315080035DC0CE05A734FF00F024FF00D0CE9B2DA7289
S315080035EC4A1E0CFB02F28446DFF89CA018739876E8
S315080035FCD876404518BF3EF812001AF8019B0CF114
S3150800360C010C03F8090018BF013203EB090B4FEA4A
S3150800361C1029002808BF4046BCF10D0F8BF8019005
S3150800362CE7D1404502D03EF812200AB941F04001D4
S3150800363C19700123002120463B71FFF79BFB81463D
S3150800364C00287FF455AF013DB8D13846A169FFF77C
S3150800365C50F8814600287FF44BAF01462022E069DA
S3150800366C02F06CFE03CEE36918605960B2783188B3
S3150800367C9A72198194F82B30E26903F018031373C4
S3150800368C01233B7134E700BFCB670008F8B5044645
S3150800369CFEF767FF0546002850D12378032B45D142
S315080036AC6779012F42D104F1340601464FF40072B2
S315080036BC304602F043FE552384F83232AA2384F8A6
S315080036CC33325223412284F8343084F8353061235E
S315080036DC722184F8372084F81A22626984F8363005
S315080036EC84F81B32130A84F81C2284F81D32130C36
S315080036FC120E84F81F22226984F81E32130A84F8E3
S3150800370C202284F82132130C120E84F82322226A02
S3150800371C84F81812013284F8191284F822323146C8
S3150800372C3B4660782263FDF7C3FC6571002260781E
S3150800373C1146FDF70FFD003818BF0120F8BD000033
S3150800374C1FB5CDE9001003A814460391FEF7DAFE5F
S3150800375C002818DB0D4A52F820301BB1002142F81C
S3150800376C20101970019B23B100215870197042F86A
S3150800377C20302CB10022684601A9FFF7CBF8044685
S3150800378C204604B010BD0B24FAE700BF0013002036
S3150800379C2DE9F04790B0904604460191002800F0B8
S315080037ACE48002F03F06324603A901A8FFF7B2F8F7
S315080037BC0746002840F0B180039D019904A804959A
S315080037CCFFF7B6FC20B99DF93B30002BB8BF062095
S315080037DC18F01C0F59D000284DD0042840F09D80B5
S315080037EC04A8FFF709FE002840F0978046F0080663
S315080037FC30070B9B54D54FF0000A542221215A74DA
S3150800380C83F80EA083F80FA019740B9B5A7683F8CD
S3150800381C16A083F817A019760B992878FFF79EF946
S3150800382C2023CB728046524628460B99FEF755FF45
S3150800383C0B9B83F81CA083F81DA083F81EA083F8A5
S3150800384C1FA001232B71B8F1000F11D05246414627
S3150800385C04A8D5F83090FFF7DFF900285DD1494662
S3150800386C2846FEF746FF08F1FF332B61002854D192
S3150800387C46F0400614E09DF8163013F0110F70D17F
S3150800388C18F0040FB4D0082047E0002845D19DF85D
S3150800389C1630D90663D418F0020F01D0DA0760D4B3
S315080038AC2B6B0B99236261622878FFF757F9A06096
S315080038BC804601F11C00FEF709FE0021EB8804F195
S315080038CC280AE060A38081464FF4007250462560B2
S315080038DC26746174E161616102F030FDB3061FD58F
S315080038ECB9F1000F1CD06B89C4F81490B9EB432FAF
S315080038FC4FEA432618D941462068FFF737F90128BD
S3150800390C8046A9EB060926D9B0F1FF3F25D0B1456B
S3150800391CF1D80020C4F8188040B10023074623606C
S3150800392C384610B0BDE8F087C4F81880C9F3080308
S3150800393C002BF5D041462846FEF7CAFD98B100EB98
S3150800394C5922E261012351466878FDF76FFB00287E
S3150800395CE6D00120E1E70220DCE70120DAE70420C3
S3150800396CDBE70720D9E70220D7E70927D8E72DE9AF
S3150800397CF04F9A46002387B08846CAF8003005A946
S3150800398C04461746FEF7D3FD054620BB657C15BBDA
S3150800399C237C13F00103019300F098806369E668B1
S315080039ACF61ABE4228BF3E4604F12803029396B186
S315080039BC6369C3F30802002A79D1DDF81490B9F8C3
S315080039CC0A20013A12EA532217D143B9A0680128F2
S315080039DC0CD802256574284607B0BDE8F08FA16996
S315080039EC20680392FFF7C2F8039AF0E7431C03D149
S315080039FC0123019D6374EEE7A0614846A169FEF7B1
S31508003A0C67FD0028E5D0B6F5007F02EB00072FD33B
S31508003A1CB9F80A1002EB562088424FEA562B88BF93
S31508003A2CA1EB020B5B463A46414699F80100FDF7B5
S31508003A3CFDFA0028DCD194F91020002A0BDAE0698B
S31508003A4CC01B584507D24FF4007204F1280108EB45
S31508003A5C402002F0ADFC4FEA4B27DAF80030F61B93
S31508003A6C3B44CAF800306369B8443B4463619EE73B
S31508003A7CE269BA421AD094F9103099F80100002B71
S31508003A8C04F128010ADA01230391FDF711FB00283A
S31508003A9CAED1237C039903F07F03237401233A46A2
S31508003AAC99F80100FDF7C2FA0028A1D1E76161690E
S31508003ABC029BC1F30801C1F50077B74228BF374608
S31508003ACC40463A46194402F073FCC6E7072582E7D6
S31508003ADC2DE9F04F9A46002385B08846CAF800307F
S31508003AEC03A904461646FEF722FD054638BB657C37
S31508003AFC2DBB237C9A0740F1AE806369F34228BF3D
S31508003B0CDE4304F128030093AEB16369C3F30802DC
S31508003B1C002A40F08D80DDF80C90B9F80A70013F48
S31508003B2C17EA53271ED173B9A16871B92046FFF756
S31508003B3CAAF8014648B9237C43F040032374284667
S31508003B4C05B0BDE8F08FA169F0E7012902D102257D
S31508003B5C6574F4E74B1C01D10125F9E7A368A1614B
S31508003B6C03B9A16094F91030002B0DDA0123E26930
S31508003B7C99F8010004F12801FDF79AFA0028EBD10F
S31508003B8C237C03F07F0323744846A169FEF7A0FC47
S31508003B9C0028DCD0B6F5007F07EB000B35D3B9F857
S31508003BAC0A1007EB562088424FEA56235A4688BF16
S31508003BBCCB1B99F8010041460193FDF779FA0028C9
S31508003BCCCAD1E169019BA1EB0B0199420CD24FF4C6
S31508003BDC007208EB412104F1280002F0E9FB227C73
S31508003BEC019B02F07F0222745F02DAF80030F61BA2
S31508003BFC3B44CAF800306369B8441F44E3686761FC
S31508003C0CBB422CBFE360E7607EE7E169636959450F
S31508003C1C0CD0E168994209D901235A4699F8010052
S31508003C2C04F12801FDF702FA002895D1C4F81CB056
S31508003C3C6069009BC0F30800C0F50077B74228BF3F
S31508003C4C374618443A46414602F0B2FB237C63F0E9
S31508003C5C7F032374C9E7072571E70A29F7B50446D4
S31508003C6C0E4602D10D21FFF7F8FF6368002B14DB13
S31508003C7C5D1C3B2D2344A7681E730BDD2A4601AB3E
S31508003C8C206804F10C01FFF723FF019B5D1B18BF8D
S31508003C9C4FF0FF3501376560A76003B0F0BD426889
S31508003CAC13B5002A044603DA4FF0FF3002B010BDF4
S31508003CBC00F10C0101AB0068FFF70AFF0028F3D1ED
S31508003CCC6268019B9A42EFD1A068EFE773B501A928
S31508003CDC0546FEF72CFC044600283BD12B7C13F03A
S31508003CEC400437D01B06019E0BD50123EA69707870
S31508003CFC05F12801FDF7DCF978BB2B7C03F07F0373
S31508003D0C2B743046296AFEF7F4FC044610BB696A24
S31508003D1CCB7A43F02003CB72AA682868FEF7DDFC41
S31508003D2CEB6830461A0A0B774A771A0C1B0ECB77B8
S31508003D3C21230B7654234B7601238C75CC758C7406
S31508003D4CCC748A773371FFF7A1FC04462B7C23F0DD
S31508003D5C40032B74204602B070BD0124FAE713B554
S31508003D6C0446FFF7B3FF28B9204601A9FEF7DFFB87
S31508003D7C00B9206002B010BD2DE9F7430D4601A924
S31508003D8C0446FEF7D4FB064600286FD1667C002E47
S31508003D9C6CD1E368AB4204D2227C12F0020F08BF46
S31508003DAC1D460022636962616DBB0025E268636982
S31508003DBC934282BF227CE36042F04002C3F30803BD
S31508003DCC88BF2274002B51D0E269AA424ED094F9CE
S31508003DDC1030019F002B787804F1280809DA0123A2
S31508003DEC4146FDF765F9002846D1237C03F07F038D
S31508003DFC237401232A4641467878FDF717F90028DB
S31508003E0C3AD1E56132E0019FB7F80A804FEA4828B3
S31508003E1C83B1013B6A1EB2FBF8F2B3FBF8F18A4296
S31508003E2C08D3C8F100021340A1696361ED1A002991
S31508003E3CBBD002E0A16889B1A1614545636920D868
S31508003E4C63692B446361C5F30803002BADD0384670
S31508003E5CFEF73EFB40B100EB5525A7E72046FEF7DB
S31508003E6C12FF0128014605D102266674304603B0B6
S31508003E7CBDE8F083481C01D10126F6E7A160A161D3
S31508003E8CD5E743446361237CA5EB08099A0706D555
S31508003E9C2046FEF7F8FE054628B90146D0E7206805
S31508003EACFEF764FE05466B1CE6D0012DDCD9BB6912
S31508003EBCAB42D9D92946A5614D46BEE730B58FB078
S31508003ECC01900D46002202A901A8FEF723FD04461F
S31508003EDC70B9019902A8FFF72BF9044640B99DF968
S31508003EEC3330002B07DB1DB1294602A8FEF75AFB17
S31508003EFC20460FB030BD0624FAE7F0B59DB0019008
S31508003F0C022203A901A8FEF705FD044680B9039E03
S31508003F1C019904A80496FFF70BF9044640B99DF9D4
S31508003F2C3B30002B35DB9DF81670FA0703D50724B2
S31508003F3C20461DB0F0BD0B993078FEF70FFEFB0638
S31508003F4C05460BD404A8FFF727F804460028EFD13A
S31508003F5CB5B93046FFF79AFB0446E9E721461290B5
S31508003F6C10A81096FEF7D8FF04460028E0D110A832
S31508003F7CFEF756FF04460028D9D00428D8D1E1E725
S31508003F8C0246294604A8FEF747FE04460028CFD168
S31508003F9CDFE70624CCE72DE9F341044690460646AE
S31508003FAC00254F1EBD4212DA01AB01226946404676
S31508003FBCFFF7DDFC019B012B09D19DF800300D2B79
S31508003FCCF0D00A2B06F8013B05F10105EAD10023CE
S31508003FDC9D4214BF20461846337002B0BDE8F081E6
S31508003FEC30B504460D4695B04822002102A802F0C9
S31508003FFCA5F9013C019514F8011F01A819B9FFF799
S3150800400C4EFE15B030BDFFF728FEF4E77F2801D821
S3150800401C80B27047B0F5803F11D240F2B513994281
S3150800402C0DD10023074A32F8021B814201D19BB2FB
S3150800403C02E00133802BF6D18033D8B270470020CA
S3150800404C704700BF866A00087F280DD940F2B51361
S3150800405C994208D1FF2806D8044B00F10040803855
S3150800406C33F8100070470020704700BF866A0008B6
S3150800407CB0F5803FF0B521D21F4A204983B2B3F57B
S3150800408C805F38BF0A46141D34F8042C2146A2B1A9
S3150800409C934212D334F8025C2E0AEDB2AF18B8422A
S315080040AC23DA082E09D8DFE806F0050A10131517C7
S315080040BC191B1D00801A34F810301846F0BD9A1AD0
S315080040CC02F001029A1A93B2F7E7103B9BB2F4E797
S315080040DC203BFBE7303BF9E71A3BF7E70833F5E7F4
S315080040EC503BF3E7A3F5E353F0E70434002ECBD1AA
S315080040FC01EB4502C7E700BFD867000894680008BB
S3150800410C7047704708B518B9024800F097F908BD0A
S3150800411C0020FCE7E4130020134618B90A460249A6
S3150800412C02F0ECB800207047DC13002020B993B2DB
S3150800413C0A46024902F032B800207047881300205C
S3150800414C10B9024901F0F4BF00207047881300200B
S3150800415C7FB5124CAC220021204602F0EFF804F190
S3150800416C6C034025009300230D4E1A461946CDE9DB
S3150800417C0156039504F1580001F090FF04F1180359
S3150800418C009300232E4401221946CDE901560395C6
S3150800419C201D01F083FF04B070BD00BF84130020FE
S315080041AC0413002010B5054C204601F08DFFA4F130
S315080041BC540001F089FF012010BD00BFDC1300205C
S315080041CC38B5074C0025204600F8605B00F028FA45
S315080041DC04F10C0084F8595000F022FA657138BDC8
S315080041EC841300202DE9F0414B798046FF2B0E46AF
S315080041FC27D12E4D0C7895F8593013BB6B7903BB28
S3150800420C8B788F180C442B70BC4206D22378234427
S3150800421C9F4202D36378042B03D1A01B80B2BDE85E
S3150800422CF0810B2BF9D0052B22D12146404600F004
S3150800423C75FC40B94FF0E023D3F8F03DD80700D50C
S3150800424C00BE0020EBE7A378DA0914D06A797AB9AC
S3150800425C6B71A3882A79C3F30A03A3F500714B4241
S3150800426C4B4163F34102404611492A7101F060FF44
S3150800427C23781C44C8E795F85920002AF8D185F804
S3150800428C5930A3884046C3F30A03A3F50072534278
S3150800429C534195F85820074963F3410285F858208D
S315080042AC01F0CEFF0028E3D1C4E700BF8413002039
S315080042BC88130020DC13002070B5184D1C4695F8A1
S315080042CC593006468B4214D1B5F86430A4B22BB1DA
S315080042DC2246E96D05F1600000F02DF90020104921
S315080042EC2246FFF70DFF30460E4901F0A9FF0120C3
S315080042FC70BD6B798B420FD10020A1B2FFF701FF7D
S3150800430C3046291D01F014FF0028F0D1224630460C
S3150800431C291D01F0DBFEEAE70020E9E784130020FB
S3150800432C04130020DC1300200A4492B291424FEA8F
S3150800433C400001D8824201DB121A92B2104670472D
S3150800434C38B50546D41A0846A988A4B29A423CBF81
S3150800435C04EB4104A4B2B4B1A14205D2914294BF74
S3150800436C521A521893B26B81994209D9EA8829686C
S3150800437CC2F30E0202FB031102F01AF8012038BD33
S3150800438C5B1A9BB2F0E72046F9E72DE9F047BDF832
S3150800439C205086885C1BA4B2AB423CBF04EB460497
S315080043ACA4B207468846FCB1A64206D234469E42BB
S315080043BC94BF9B1B9B199DB24581944228BF1446FA
S315080043CCAE4214D9B7F806A0A6EB050939681FFA48
S315080043DC89F9CAF30E0A4C450AFB05110AD8404658
S315080043EC0AFB04F201F0E4FF2046BDE8F087AD1B9A
S315080043FCADB2E5E70AFB09F9A61B1FFA89F94A4685
S3150800440C4046354401F0D4FF05FB0AF2396892B2EE
S3150800441C08EB0900E6E7B2F5004F0DD882809DF847
S3150800442C0020C3F30E0343EAC233C38000230160A2
S3150800443C4381038101207047002070470246138987
S3150800444C5289808892B29BB2934236BFC2EB400225
S3150800445C9B1A9B189BB2984228BF1846704703892B
S3150800446C4289818892B29BB2934236BFC2EB410213
S3150800447C9B1A9B189BB299428CBF0020012070474F
S3150800448C03894189828889B29BB28B4236BFC1EBBC
S3150800449C42015B1A5B189BB29A4286BFD01A80B24D
S315080044AC002070470289438910B504469BB292B224
S315080044BCFFF746FF61890346024689B2A088FFF7D3
S315080044CC33FF6081184610BD37B503894589044604
S315080044DCADB200959BB2FFF758FF618903460246B9
S315080044EC89B2A088FFF720FF6081184603B030BD5B
S315080044FC70B5058904460E46ADB2FFF7B0FF10B18C
S3150800450CE079C00913D02846A388834210D9E288DB
S3150800451C2368C2F30E02314602FB003001F048FF55
S3150800452C01222946A088FFF7FFFE2081012070BDD5
S3150800453CC01A80B2E9E72DE9F84F074688461446B3
S3150800454C002A32D0C37906894189DB098588B6B237
S3150800455C89B22DD18E4235BFC1EB4503711A9B1911
S3150800456C8BB238BF9BB2AB4256D2EB1A9BB29A426D
S3150800457C28BF1C46B146A94538D2B7F806B0A5EBF4
S3150800458C090A38681FFA8AFACBF30E0BA2450BFBFD
S3150800459C090030D341460BFB04F201F009FF224611
S315080045AC3146B888FFF7C0FE38812046BDE8F88F3B
S315080045BCAA4209D395B3C388541BC3F30E0303FB52
S315080045CC04880E462C46D5E78E424FEA450236BF7E
S315080045DC531A731A9B199BB223449342CADB2A1BA0
S315080045EC284692B2FFF7A0FE0646C3E7A9EB0509D3
S315080045FC1FFA89F9BFE70BFB0AFA651B1FFA8AFA39
S3150800460C52464146A94401F0D3FE09FB0BF2386821
S3150800461C92B208EB0A01C0E70024C6E72C46C4E7A9
S3150800462C002343810381012070470A46018908B596
S3150800463C89B203468088FFF777FE188108BD0A46BB
S3150800464C418908B589B203468088FFF76DFE588103
S3150800465C08BD70B504894389A4B29BB285889C426F
S3150800466C36BFC3EB4502E21A121992B2954205D22D
S3150800467CA54209D82A46631B9BB24381B2B9C1E944
S3150800468C00220020886070BD2A462B199BB24381F4
S3150800469C9D420ED90068A34200EB03064E600BD26E
S315080046AC00230A804B80ECE7641BA4B2A542FBD915
S315080046BCEEE75B1B9BB2EBE7521BEC1A13440C8020
S315080046CC4B80DFE70389428970B59BB292B2858825
S315080046DC934236BFC2EB45049C1AE418A4B2A54211
S315080046EC07D80023C1E900330020886070BD5B1B26
S315080046FC9BB29D42FBD995420AD900689A4200EBB7
S3150800470C03064E6007D9D21A00230A804B80EBE7C2
S3150800471C521B92B2EFE7ED1A1B1B0D804B80E4E798
S3150800472C2DE9F04105460024194E1A4FDFF868802A
S3150800473C3178E2B24B1CDBB2934210D834220021FA
S3150800474C164801F0FBFD1022FF21154801F0F6FD75
S3150800475CBDE8F0411022FF21124801F0EFBD91424D
S3150800476C0DD92421D8F8003001FB02334BB94FF090
S3150800477CE023D3F8F03DDB0708D4BDE8F081F6D189
S3150800478C3B462846DB6898470134D1E700BEF4E778
S3150800479CF4140020886B0008F8140020FD1400207F
S315080047AC011500201115002070B50C460546164655
S315080047BC486900F0E1FD3246284663690121BDE8E7
S315080047CC704018470346034A10780BB101F032B80B
S315080047DC01F035B84C000020704770470020704730
S315080047EC00207047704770470346002018707047C2
S315080047FC08B5034B1878FFF7F6FF012008BD00BF74
S3150800480C4C0000202DE9F84FDFF8A480054698F8EF
S3150800481C00300E46FF2B46D149B94FF0E023D3F8AA
S3150800482CF03DDB0700D500BE0020BDE8F88F00245C
S3150800483C342200211F4801F081FD1F4B1F4F2048D1
S3150800484C1C70FFF7EDFE1F4B1F4A38461A60FFF720
S3150800485CCBFF3B78DFF87490FF2BC9F80000DCD04F
S3150800486C4FF0240BDFF868A00CE091421DD9D9F85B
S3150800487C00300BFB0233002BCFD05B680134002BC6
S3150800488CCBD098473978E2B24B1CDBB29342ECD8C2
S3150800489C3146284688F8005000F0D2FF0028BCD0D4
S315080048AC284600F0C7FF0120BFE7B6D15346E4E718
S315080048BC4C000020FD140020FC140020F4140020E9
S315080048CC40000020301400203C000020F814002082
S315080048DC886B00082DE9F04343780446023B0E46E4
S315080048EC85B0052B16D8DFE813F00600B1002A00B0
S315080048FC3200C800CD000021824B1A7822F0010242
S3150800490C1A701A7822F002021A7059701A7861F322
S3150800491C82021A707C4B1F6816B930463B6898475A
S3150800492C2146381DFFF7E4FD054616B901203B68FC
S3150800493C9847002D77D03246617820789AE0714BEB
S3150800494C1A78D70776D51A7842F00402E1E76D4A49
S3150800495C1378DD076ED5137823F004031370D9E7A3
S3150800496C91426AD92421D9F8003001FB0233002B75
S3150800497C65D101353978EAB24B1CDBB29342EFD8D4
S3150800498C604D2B7858072CD52B7823F004032B7005
S3150800499C0023CDF80630CDF80A30ADF80E30237862
S315080049AC8DF8043005238DF80530574BD3F8008065
S315080049BC1EB93046D8F80030984701A908F104000A
S315080049CCFFF796FD07461EB90120D8F80030984720
S315080049DC002F42D14FF0E023D3F8F03DD90700D58C
S315080049EC00BEEB78DA0725D50023CDF80630CDF8CE
S315080049FC0A30ADF80E3023788DF8043003238DF881
S31508004A0C053063680293404B1D6816B930462B680F
S31508004A1C984701A9281DFFF76BFD044616B9012016
S31508004A2C2B6898470CBB4FF0E023D3F8F03DDB0717
S31508004A3C00D500BE05B0BDE8F0839AD143461B6A83
S31508004A4C002B96D061682078984792E700252F4F5F
S31508004A5CDFF8BC80DFF8BC908CE732469DF8051071
S31508004A6C9DF80400FFF7B8FEBBE732469DF8051023
S31508004A7C9DF80400FFF7B0FEDCE7274A13780133EC
S31508004A8CDBB26BE7017911F00F033FF443AF1D4D11
S31508004A9C4FEA430C05EB430303EBD1131A7D1B4B6F
S31508004AACC8091B789A4228D224271A4B1B6807FB7D
S31508004ABC0233002B3FF42EAFDF69002F3FF42AAFE9
S31508004ACC6544054495F82430627923F0010385F88A
S31508004ADC243095F82430203523F004032B712078E4
S31508004AECA368B8470028A5D12B7943F001032B718D
S31508004AFC2B7943F004032B710CE77FF40BAF044BB3
S31508004B0CDAE700BFFD14002030140020F41400204E
S31508004B1C886B0008F8140020FC14002038B58A7835
S31508004B2C0D4B12F008020C461D7808D04FF0E02306
S31508004B3CD3F8F03DDB0700D500BE002038BD074B87
S31508004B4C2046997801F054FA0028EFD021462846D9
S31508004B5CBDE8384001F012B94C000020FD140020C5
S31508004B6CCB0901F00F020448243303EB420300215E
S31508004B7C184401F011BA00BFFD140020CB0901F04E
S31508004B8C0F020448243303EB42030021184401F0B6
S31508004B9C1EBA00BFFD14002070B5144C01F00F06A8
S31508004BAC04EB460404EBD11494F824501048ED0792
S31508004BBC04F12004007808D54FF0E023D3F8F03D33
S31508004BCCDB0700D500BE002070BD257945F0010530
S31508004BDC257101F05DF90028F6D1227960F30002FF
S31508004BEC2271227960F382022271E5E7FD14002016
S31508004BFC4C00002010B50C460B4B187801F064F9E4
S31508004C0C0A4904F00F0301EB430101EBD41191F8A7
S31508004C1C243043F0020381F8243091F8243043F011
S31508004C2C010381F8243010BD4C000020FD1400202F
S31508004C3C10B50C460B4B187801F076F90A4904F0B6
S31508004C4C0F0301EB430101EBD41191F8243023F047
S31508004C5C020381F8243091F8243023F0010381F8FB
S31508004C6C243010BD4C000020FD140020054B01F02B
S31508004C7C0F0203EB420303EBD11191F82400C0F3A6
S31508004C8C40007047FD1400202DE9F04F984B87B073
S31508004C9C1B78FF2B3DD0974F974B00201D682C4651
S31508004CAC54F8043B9847204603A9FFF7FBFB044638
S31508004CBC2B680120984764B39DF80D30013B072BF0
S31508004CCC00F2D082DFE813F008001200C602AE022A
S31508004CDCB8021B007002BF029DF80C00FFF720FDFE
S31508004CEC00F042FB9DF81030BB70D5E79DF80C0020
S31508004CFCFFF716FD00F038FBFCF775FECCE77F4A8C
S31508004D0C13784BB94FF0E023D3F8F03DDC0700D508
S31508004D1C00BE07B0BDE8F08F1378013BDBB2137009
S31508004D2C137803F0FF00002BB6D1724C9DF80C508B
S31508004D3C237843F00103237094F8243060F30003BE
S31508004D4C84F8243094F8243060F3820384F82430F1
S31508004D5C94F8253060F3000384F8253094F8253050
S31508004D6C60F3820384F8253000F006FB9DF81020CA
S31508004D7C02F06003602B07D14FF0E023D3F8F03D27
S31508004D8CDD072BD500BE29E0402B0BD15C4800F083
S31508004D9CF3FA0121284604AAFCF7D2FA00287FF474
S31508004DAC7BAF1BE002F01F02012A00F07E81022A6B
S31508004DBC00F0AC81002ADFD1202B21D19DF81430CC
S31508004DCC0F2B0BD84F4A23441B791278934210D2D7
S31508004DDC4D4A1168242202FB031161B99DF80C0097
S31508004DEC002101F071F880219DF80C0001F06CF897
S31508004DFC52E7F3D1454904AA2846FFF7D5FCCDE777
S31508004E0C002BB9D19DF81130092BB5D801A252F84F
S31508004E1C23F000BF9550000883500008854D000804
S31508004E2C6F500008854D0008494E0008C74F00080A
S31508004E3C854D0008634E00086D4E000804A800F066
S31508004E4CA1FA28469DF8121001F038F8237843F099
S31508004E5C0203237020E763788DF80A3001231DE1DD
S31508004E6C9DF8126063789E4213D063786BB100216B
S31508004E7C284600F02FFD284600F0EAFF94F8028039
S31508004E8C2846FFF74DFC84F80280667036B9FCF7A5
S31508004E9CAAFD284604A900F02BFAFDE6701EC0B23E
S31508004EACFCF746FA10B14378022B08D04FF0E023F2
S31508004EBCD3F8F03DD9077ED4002363705CE7C37939
S31508004ECC00F10906C3F38012C3F340131B0143EA2E
S31508004EDC4213227822F03002134323704388C318F6
S31508004EEC0093009BB34213D8FCF77AFDD1E700BFB9
S31508004EFC4C000020FD14002030140020FC14002067
S31508004F0C4D130008F4140020F8140020886B0008D0
S31508004F1C73780B2B02BF3278F378B618727818BFF1
S31508004F2C0123042AC2D14FF0000B009AA2EB060A01
S31508004F3C1FFA8AFAB54A5FFA8BF811784A1CD2B26C
S31508004F4C4245B3D9414515D92421B14A126801FB0A
S31508004F5C0822002AAAD0D2F8109031465246284682
S31508004F6C0193C84708288146019B21D982451FD33E
S31508004F7C00210CE09AD1A74AEDE7B078013102443A
S31508004F8CD2B222441079FF2890D182F80480CAB292
S31508004F9C9342F2D8434631464A469F4801F06CF88C
S31508004FAC9A4B4E441B780133DBB2434599D87DE7BF
S31508004FBC0BF1010BBEE700BE7EE7BDF812301A0AEC
S31508004FCCD8B2531E0E2B3FF609AF01A151F823F0A8
S31508004FDC195000083B50000855500008E94D0008C8
S31508004FECE94D0008695000083B500008E94D0008D7
S31508004FFCE94D0008E94D0008E94D0008E94D00089F
S3150800500CE94D0008E94D000831500008FCF78CF909
S3150800501C024600283FF4B0AE1223284604A900F035
S3150800502C79F9BBE6FCF788F9024640B9D6E6022AB6
S3150800503C07D1FCF77DF9024600283FF49DAE53884C
S3150800504CEBE7FFF7CDFBEFE7BDF81410FCF792F989
S3150800505C024600283FF4C2AE0378DEE7FFF7BEFB34
S3150800506CF6E7BDF81230012B7FF4B8AE237843F07F
S3150800507C080323700DE7BDF81230012B7FF4AEAE92
S3150800508C237823F00803F4E72378C3F340129B082C
S3150800509C03F002031343ADF80A30022328460DF138
S315080050AC0A0204A900F036F9F6E59DF814300F2B20
S315080050BC3FF694AE554A23441B79127893421ED276
S315080050CC534A1168242202FB031100293FF486AEC9
S315080050DC284604AAFFF768FB00287FF4DDAD9DF887
S315080050EC103013F060047FF479AE00F045F99DF8A2
S315080050FC11300A2B07D00B2B3FF4CBAE6EE67FF4A0
S3150800510C6DAE4449E4E78DF80A40A7E69DF81410FD
S3150800511C0A073FF531AE01F00F023C4804EB420298
S3150800512C02EBD112127D0078824214D238480668F6
S3150800513C242000FB0266ABB99DF8113003F0FD0282
S3150800514C012A15D0002B7FF417AE2846FFF78EFDE3
S3150800515CADF80A00A1E700F08E80002B7FF43EAE76
S3150800516C0026E9E7002E3FF439AE314604AA43E699
S3150800517CBDF8122022B9012B284612D1FFF758FD8B
S3150800518C002E3FF489AD314604AA2846FFF70CFBDE
S3150800519C002000F0F1F894F82530DE073FF57CADD9
S315080051AC77E6FFF727FDEBE79DF8101001F00F04E3
S315080051BC07EB440202EBD11292F8243023F00103D8
S315080051CC82F8243092F8243023F0040382F8243031
S315080051DC3CB9059B9DF811209DF80C0000F0E0F8F1
S315080051EC5AE50A4B127D1B789A4217D22420084B93
S315080051FC1B6800FB0233002B3FF484AD9C699DF8B9
S3150800520C1120059B9DF80C00A04745E5F4140020D9
S3150800521CF8140020886B0008111500207FF472AD75
S3150800522C174BEBE73B78D8077FF536AD3878C0F3E4
S3150800523CC000FCF7DBFB2FE53B78D9077FF52CADD7
S3150800524CFCF7D6FB28E5049B002B3FF425AD059807
S3150800525C984721E5FB78DA077FF51EAD0498FFF72A
S3150800526CBCFA19E54FF0E023D3F8F03DDB077FF5E0
S3150800527C13AD00BE10E5024E002B7FF476AF5BE74C
S3150800528C886B0008144B70B59989DA8905468C1A0F
S3150800529CA4B293F90000402C28BF402400280FDA4A
S315080052AC914213D09968A1B122460C4801F080F8B6
S315080052BC80210A4A23462846BDE87040FFF76CBC95
S315080052CC91424FF00001F4D10A46F3E780210022FF
S315080052DCF0E7084670BD00BF741500203415002091
S315080052ECC943002301F080011A46FFF755BC00009C
S315080052FC30B4074C0546224608680B46496803C273
S3150800530C00222846C4E9022230BC1978FFF7E8BF08
S3150800531C74150020F8B5134E0C4637460546086832
S3150800532C4968B26003C70021F181E1888B4228BF26
S3150800533C0B46B38189B14BB142B94FF0E023D3F890
S3150800534CF03DDB0700D500BE002005E02846FFF738
S3150800535C99FF0028F1D00120F8BD28462178FFF7DF
S3150800536CBFFFF6E77415002014220021014800F04F
S3150800537CE5BF00BF74150020014B1861704700BFCC
S3150800538C7415002010B50246044C00682346516873
S3150800539C03C30023C4E9023310BD00BF74150020F3
S315080053AC70B5284C1E462378C909B1EBD31F0546A0
S315080053BC13D03EB14FF0E023D3F8F03DDB073FD4D2
S315080053CC002070BD214600F0C3FC23691BB12246A0
S315080053DC0321284698470120F3E794F90030A06882
S315080053EC002B05DB0028EBD03246174900F0E0FF0E
S315080053FCA268E38932443344A260E2889BB29A429B
S3150800540CE38101D03F2E17D8236933B92846217872
S3150800541CFFF766FF0028DED1CCE702212846094AA9
S3150800542C984701460028F1D1284600F04DFD802109
S3150800543C284600F049FDCEE72846FFF723FFE9E7A3
S3150800544C00BEBDE774150020341500201E4AF0B5C1
S3150800545C00231646C40900F00F0504F1020C84F06B
S3150800546C010E12F80C70D8B237B157788F421DD18D
S3150800547C1778AF421AD1F0BD012904D106EB830780
S3150800548C7744BF7897B91778FF2F01D0AF420DD163
S3150800549C5778FF2F08D1012206F8235006EB830311
S315080054AC597023449A70E6E78F42F4D00133082BDF
S315080054BC02F10402D5D14FF0E023D3F8F03DDB0717
S315080054CC00D500BE0020D6E78B150020400000F161
S315080054DC8040530800F5C040F0B50D4606461C46FC
S315080054EC013C06D2D20744BF11F8132020F823201A
